{
	"test72.sol": {
		"RepeatedStorageWrites": {
			"abi": [
				{
					"anonymous": false,
					"inputs": [
						{
							"indexed": false,
							"internalType": "uint256",
							"name": "value",
							"type": "uint256"
						}
					],
					"name": "ValueProcessed",
					"type": "event"
				},
				{
					"inputs": [],
					"name": "compareGas",
					"outputs": [
						{
							"internalType": "uint256",
							"name": "heavyGas",
							"type": "uint256"
						},
						{
							"internalType": "uint256",
							"name": "optimizedGas",
							"type": "uint256"
						}
					],
					"stateMutability": "view",
					"type": "function"
				},
				{
					"inputs": [],
					"name": "counter",
					"outputs": [
						{
							"internalType": "uint256",
							"name": "",
							"type": "uint256"
						}
					],
					"stateMutability": "view",
					"type": "function"
				},
				{
					"inputs": [],
					"name": "heavyGasUsed",
					"outputs": [
						{
							"internalType": "uint256",
							"name": "",
							"type": "uint256"
						}
					],
					"stateMutability": "view",
					"type": "function"
				},
				{
					"inputs": [
						{
							"internalType": "uint256",
							"name": "n",
							"type": "uint256"
						}
					],
					"name": "heavyWrites",
					"outputs": [],
					"stateMutability": "nonpayable",
					"type": "function"
				},
				{
					"inputs": [],
					"name": "lastValue",
					"outputs": [
						{
							"internalType": "uint256",
							"name": "",
							"type": "uint256"
						}
					],
					"stateMutability": "view",
					"type": "function"
				},
				{
					"inputs": [],
					"name": "optimizedGasUsed",
					"outputs": [
						{
							"internalType": "uint256",
							"name": "",
							"type": "uint256"
						}
					],
					"stateMutability": "view",
					"type": "function"
				},
				{
					"inputs": [
						{
							"internalType": "uint256",
							"name": "n",
							"type": "uint256"
						}
					],
					"name": "optimizedWrites",
					"outputs": [],
					"stateMutability": "nonpayable",
					"type": "function"
				}
			],
			"devdoc": {
				"kind": "dev",
				"methods": {},
				"version": 1
			},
			"evm": {
				"assembly": "    /* \"test72.sol\":12670:14675  contract RepeatedStorageWrites {... */\n  mstore(0x40, 0x80)\n  callvalue\n  dup1\n  iszero\n  tag_1\n  jumpi\n  revert(0x00, 0x00)\ntag_1:\n  pop\n  dataSize(sub_0)\n  dup1\n  dataOffset(sub_0)\n  0x00\n  codecopy\n  0x00\n  return\nstop\n\nsub_0: assembly {\n        /* \"test72.sol\":12670:14675  contract RepeatedStorageWrites {... */\n      mstore(0x40, 0x80)\n      callvalue\n      dup1\n      iszero\n      tag_1\n      jumpi\n      revert(0x00, 0x00)\n    tag_1:\n      pop\n      jumpi(tag_2, lt(calldatasize, 0x04))\n      shr(0xe0, calldataload(0x00))\n      dup1\n      0xad576fa8\n      gt\n      tag_10\n      jumpi\n      dup1\n      0xad576fa8\n      eq\n      tag_6\n      jumpi\n      dup1\n      0xbc8c2323\n      eq\n      tag_7\n      jumpi\n      dup1\n      0xdc44521c\n      eq\n      tag_8\n      jumpi\n      dup1\n      0xe28670de\n      eq\n      tag_9\n      jumpi\n      jump(tag_2)\n    tag_10:\n      dup1\n      0x43183834\n      eq\n      tag_3\n      jumpi\n      dup1\n      0x61bc221a\n      eq\n      tag_4\n      jumpi\n      dup1\n      0x8f32aa78\n      eq\n      tag_5\n      jumpi\n    tag_2:\n      revert(0x00, 0x00)\n        /* \"test72.sol\":12739:12763  uint256 public lastValue */\n    tag_3:\n      tag_11\n      tag_12\n      jump\t// in\n    tag_11:\n      mload(0x40)\n      tag_13\n      swap2\n      swap1\n      tag_14\n      jump\t// in\n    tag_13:\n      mload(0x40)\n      dup1\n      swap2\n      sub\n      swap1\n      return\n        /* \"test72.sol\":12710:12732  uint256 public counter */\n    tag_4:\n      tag_15\n      tag_16\n      jump\t// in\n    tag_15:\n      mload(0x40)\n      tag_17\n      swap2\n      swap1\n      tag_14\n      jump\t// in\n    tag_17:\n      mload(0x40)\n      dup1\n      swap2\n      sub\n      swap1\n      return\n        /* \"test72.sol\":14423:14672  function compareGas()... */\n    tag_5:\n      tag_18\n      tag_19\n      jump\t// in\n    tag_18:\n      mload(0x40)\n      tag_20\n      swap3\n      swap2\n      swap1\n      tag_21\n      jump\t// in\n    tag_20:\n      mload(0x40)\n      dup1\n      swap2\n      sub\n      swap1\n      return\n        /* \"test72.sol\":13086:13485  function heavyWrites(uint256 n)... */\n    tag_6:\n      tag_22\n      0x04\n      dup1\n      calldatasize\n      sub\n      dup2\n      add\n      swap1\n      tag_23\n      swap2\n      swap1\n      tag_24\n      jump\t// in\n    tag_23:\n      tag_25\n      jump\t// in\n    tag_22:\n      stop\n        /* \"test72.sol\":13650:14261  function optimizedWrites(uint256 n)... */\n    tag_7:\n      tag_26\n      0x04\n      dup1\n      calldatasize\n      sub\n      dup2\n      add\n      swap1\n      tag_27\n      swap2\n      swap1\n      tag_24\n      jump\t// in\n    tag_27:\n      tag_28\n      jump\t// in\n    tag_26:\n      stop\n        /* \"test72.sol\":12827:12858  uint256 public optimizedGasUsed */\n    tag_8:\n      tag_29\n      tag_30\n      jump\t// in\n    tag_29:\n      mload(0x40)\n      tag_31\n      swap2\n      swap1\n      tag_14\n      jump\t// in\n    tag_31:\n      mload(0x40)\n      dup1\n      swap2\n      sub\n      swap1\n      return\n        /* \"test72.sol\":12793:12820  uint256 public heavyGasUsed */\n    tag_9:\n      tag_32\n      tag_33\n      jump\t// in\n    tag_32:\n      mload(0x40)\n      tag_34\n      swap2\n      swap1\n      tag_14\n      jump\t// in\n    tag_34:\n      mload(0x40)\n      dup1\n      swap2\n      sub\n      swap1\n      return\n        /* \"test72.sol\":12739:12763  uint256 public lastValue */\n    tag_12:\n      sload(0x01)\n      dup2\n      jump\t// out\n        /* \"test72.sol\":12710:12732  uint256 public counter */\n    tag_16:\n      sload(0x00)\n      dup2\n      jump\t// out\n        /* \"test72.sol\":14423:14672  function compareGas()... */\n    tag_19:\n        /* \"test72.sol\":14509:14525  uint256 heavyGas */\n      0x00\n        /* \"test72.sol\":14540:14560  uint256 optimizedGas */\n      0x00\n        /* \"test72.sol\":14610:14622  heavyGasUsed */\n      sload(0x02)\n        /* \"test72.sol\":14637:14653  optimizedGasUsed */\n      sload(0x03)\n        /* \"test72.sol\":14588:14664  return (... */\n      swap2\n      pop\n      swap2\n      pop\n        /* \"test72.sol\":14423:14672  function compareGas()... */\n      swap1\n      swap2\n      jump\t// out\n        /* \"test72.sol\":13086:13485  function heavyWrites(uint256 n)... */\n    tag_25:\n        /* \"test72.sol\":13165:13167  50 */\n      0x32\n        /* \"test72.sol\":13160:13161  n */\n      dup2\n        /* \"test72.sol\":13160:13167  n <= 50 */\n      gt\n      iszero\n        /* \"test72.sol\":13152:13178  require(n <= 50, \"Max 50\") */\n      tag_37\n      jumpi\n      mload(0x40)\n      0x08c379a000000000000000000000000000000000000000000000000000000000\n      dup2\n      mstore\n      0x04\n      add\n      tag_38\n      swap1\n      tag_39\n      jump\t// in\n    tag_38:\n      mload(0x40)\n      dup1\n      swap2\n      sub\n      swap1\n      revert\n    tag_37:\n        /* \"test72.sol\":13191:13207  uint256 startGas */\n      0x00\n        /* \"test72.sol\":13210:13219  gasleft() */\n      gas\n        /* \"test72.sol\":13191:13219  uint256 startGas = gasleft() */\n      swap1\n      pop\n        /* \"test72.sol\":13251:13260  uint256 i */\n      0x00\n        /* \"test72.sol\":13263:13264  0 */\n      0x00\n        /* \"test72.sol\":13251:13264  uint256 i = 0 */\n      swap1\n      pop\n        /* \"test72.sol\":13232:13417  for (... */\n    tag_40:\n        /* \"test72.sol\":13283:13284  n */\n      dup3\n        /* \"test72.sol\":13279:13280  i */\n      dup2\n        /* \"test72.sol\":13279:13284  i < n */\n      lt\n        /* \"test72.sol\":13232:13417  for (... */\n      iszero\n      tag_41\n      jumpi\n        /* \"test72.sol\":13329:13336  counter */\n      0x00\n      0x00\n        /* \"test72.sol\":13329:13338  counter++ */\n      dup2\n      sload\n      dup1\n      swap3\n      swap2\n      swap1\n      tag_43\n      swap1\n      tag_44\n      jump\t// in\n    tag_43:\n      swap2\n      swap1\n      pop\n      sstore\n      pop\n        /* \"test72.sol\":13365:13366  i */\n      dup1\n        /* \"test72.sol\":13353:13362  lastValue */\n      0x01\n        /* \"test72.sol\":13353:13366  lastValue = i */\n      dup2\n      swap1\n      sstore\n      pop\n        /* \"test72.sol\":13388:13405  ValueProcessed(i) */\n      0xb8fab2e88183280dfbc0701f47dfad7454e4a3eccdd3cc5cff51d73c1f9df8c9\n        /* \"test72.sol\":13403:13404  i */\n      dup2\n        /* \"test72.sol\":13388:13405  ValueProcessed(i) */\n      mload(0x40)\n      tag_45\n      swap2\n      swap1\n      tag_14\n      jump\t// in\n    tag_45:\n      mload(0x40)\n      dup1\n      swap2\n      sub\n      swap1\n      log1\n        /* \"test72.sol\":13299:13302  i++ */\n      dup1\n      dup1\n      0x01\n      add\n      swap2\n      pop\n      pop\n        /* \"test72.sol\":13232:13417  for (... */\n      jump(tag_40)\n    tag_41:\n      pop\n        /* \"test72.sol\":13468:13477  gasleft() */\n      gas\n        /* \"test72.sol\":13457:13465  startGas */\n      dup2\n        /* \"test72.sol\":13457:13477  startGas - gasleft() */\n      tag_46\n      swap2\n      swap1\n      tag_47\n      jump\t// in\n    tag_46:\n        /* \"test72.sol\":13429:13441  heavyGasUsed */\n      0x02\n        /* \"test72.sol\":13429:13477  heavyGasUsed =... */\n      dup2\n      swap1\n      sstore\n      pop\n        /* \"test72.sol\":13141:13485  {... */\n      pop\n        /* \"test72.sol\":13086:13485  function heavyWrites(uint256 n)... */\n      pop\n      jump\t// out\n        /* \"test72.sol\":13650:14261  function optimizedWrites(uint256 n)... */\n    tag_28:\n        /* \"test72.sol\":13733:13735  50 */\n      0x32\n        /* \"test72.sol\":13728:13729  n */\n      dup2\n        /* \"test72.sol\":13728:13735  n <= 50 */\n      gt\n      iszero\n        /* \"test72.sol\":13720:13746  require(n <= 50, \"Max 50\") */\n      tag_49\n      jumpi\n      mload(0x40)\n      0x08c379a000000000000000000000000000000000000000000000000000000000\n      dup2\n      mstore\n      0x04\n      add\n      tag_50\n      swap1\n      tag_39\n      jump\t// in\n    tag_50:\n      mload(0x40)\n      dup1\n      swap2\n      sub\n      swap1\n      revert\n    tag_49:\n        /* \"test72.sol\":13759:13775  uint256 startGas */\n      0x00\n        /* \"test72.sol\":13778:13787  gasleft() */\n      gas\n        /* \"test72.sol\":13759:13787  uint256 startGas = gasleft() */\n      swap1\n      pop\n        /* \"test72.sol\":13800:13819  uint256 tempCounter */\n      0x00\n        /* \"test72.sol\":13835:13842  counter */\n      sload(0x00)\n        /* \"test72.sol\":13800:13842  uint256 tempCounter =... */\n      swap1\n      pop\n        /* \"test72.sol\":13855:13872  uint256 tempValue */\n      0x00\n        /* \"test72.sol\":13904:13913  uint256 i */\n      0x00\n        /* \"test72.sol\":13916:13917  0 */\n      0x00\n        /* \"test72.sol\":13904:13917  uint256 i = 0 */\n      swap1\n      pop\n        /* \"test72.sol\":13885:14123  for (... */\n    tag_51:\n        /* \"test72.sol\":13936:13937  n */\n      dup5\n        /* \"test72.sol\":13932:13933  i */\n      dup2\n        /* \"test72.sol\":13932:13937  i < n */\n      lt\n        /* \"test72.sol\":13885:14123  for (... */\n      iszero\n      tag_52\n      jumpi\n        /* \"test72.sol\":13965:13978  tempCounter++ */\n      dup3\n      dup1\n      tag_54\n      swap1\n      tag_44\n      jump\t// in\n    tag_54:\n      swap4\n      pop\n      pop\n        /* \"test72.sol\":14007:14008  i */\n      dup1\n        /* \"test72.sol\":13995:14008  tempValue = i */\n      swap2\n      pop\n        /* \"test72.sol\":14030:14047  ValueProcessed(i) */\n      0xb8fab2e88183280dfbc0701f47dfad7454e4a3eccdd3cc5cff51d73c1f9df8c9\n        /* \"test72.sol\":14045:14046  i */\n      dup2\n        /* \"test72.sol\":14030:14047  ValueProcessed(i) */\n      mload(0x40)\n      tag_55\n      swap2\n      swap1\n      tag_14\n      jump\t// in\n    tag_55:\n      mload(0x40)\n      dup1\n      swap2\n      sub\n      swap1\n      log1\n        /* \"test72.sol\":14093:14096  ++i */\n      dup1\n      0x01\n      add\n      swap1\n      pop\n        /* \"test72.sol\":13885:14123  for (... */\n      jump(tag_51)\n    tag_52:\n      pop\n        /* \"test72.sol\":14145:14156  tempCounter */\n      dup2\n        /* \"test72.sol\":14135:14142  counter */\n      0x00\n        /* \"test72.sol\":14135:14156  counter = tempCounter */\n      dup2\n      swap1\n      sstore\n      pop\n        /* \"test72.sol\":14179:14188  tempValue */\n      dup1\n        /* \"test72.sol\":14167:14176  lastValue */\n      0x01\n        /* \"test72.sol\":14167:14188  lastValue = tempValue */\n      dup2\n      swap1\n      sstore\n      pop\n        /* \"test72.sol\":14244:14253  gasleft() */\n      gas\n        /* \"test72.sol\":14233:14241  startGas */\n      dup4\n        /* \"test72.sol\":14233:14253  startGas - gasleft() */\n      tag_56\n      swap2\n      swap1\n      tag_47\n      jump\t// in\n    tag_56:\n        /* \"test72.sol\":14201:14217  optimizedGasUsed */\n      0x03\n        /* \"test72.sol\":14201:14253  optimizedGasUsed =... */\n      dup2\n      swap1\n      sstore\n      pop\n        /* \"test72.sol\":13709:14261  {... */\n      pop\n      pop\n      pop\n        /* \"test72.sol\":13650:14261  function optimizedWrites(uint256 n)... */\n      pop\n      jump\t// out\n        /* \"test72.sol\":12827:12858  uint256 public optimizedGasUsed */\n    tag_30:\n      sload(0x03)\n      dup2\n      jump\t// out\n        /* \"test72.sol\":12793:12820  uint256 public heavyGasUsed */\n    tag_33:\n      sload(0x02)\n      dup2\n      jump\t// out\n        /* \"#utility.yul\":7:84   */\n    tag_57:\n        /* \"#utility.yul\":44:51   */\n      0x00\n        /* \"#utility.yul\":73:78   */\n      dup2\n        /* \"#utility.yul\":62:78   */\n      swap1\n      pop\n        /* \"#utility.yul\":7:84   */\n      swap2\n      swap1\n      pop\n      jump\t// out\n        /* \"#utility.yul\":90:208   */\n    tag_58:\n        /* \"#utility.yul\":177:201   */\n      tag_71\n        /* \"#utility.yul\":195:200   */\n      dup2\n        /* \"#utility.yul\":177:201   */\n      tag_57\n      jump\t// in\n    tag_71:\n        /* \"#utility.yul\":172:175   */\n      dup3\n        /* \"#utility.yul\":165:202   */\n      mstore\n        /* \"#utility.yul\":90:208   */\n      pop\n      pop\n      jump\t// out\n        /* \"#utility.yul\":214:436   */\n    tag_14:\n        /* \"#utility.yul\":307:311   */\n      0x00\n        /* \"#utility.yul\":345:347   */\n      0x20\n        /* \"#utility.yul\":334:343   */\n      dup3\n        /* \"#utility.yul\":330:348   */\n      add\n        /* \"#utility.yul\":322:348   */\n      swap1\n      pop\n        /* \"#utility.yul\":358:429   */\n      tag_73\n        /* \"#utility.yul\":426:427   */\n      0x00\n        /* \"#utility.yul\":415:424   */\n      dup4\n        /* \"#utility.yul\":411:428   */\n      add\n        /* \"#utility.yul\":402:408   */\n      dup5\n        /* \"#utility.yul\":358:429   */\n      tag_58\n      jump\t// in\n    tag_73:\n        /* \"#utility.yul\":214:436   */\n      swap3\n      swap2\n      pop\n      pop\n      jump\t// out\n        /* \"#utility.yul\":442:774   */\n    tag_21:\n        /* \"#utility.yul\":563:567   */\n      0x00\n        /* \"#utility.yul\":601:603   */\n      0x40\n        /* \"#utility.yul\":590:599   */\n      dup3\n        /* \"#utility.yul\":586:604   */\n      add\n        /* \"#utility.yul\":578:604   */\n      swap1\n      pop\n        /* \"#utility.yul\":614:685   */\n      tag_75\n        /* \"#utility.yul\":682:683   */\n      0x00\n        /* \"#utility.yul\":671:680   */\n      dup4\n        /* \"#utility.yul\":667:684   */\n      add\n        /* \"#utility.yul\":658:664   */\n      dup6\n        /* \"#utility.yul\":614:685   */\n      tag_58\n      jump\t// in\n    tag_75:\n        /* \"#utility.yul\":695:767   */\n      tag_76\n        /* \"#utility.yul\":763:765   */\n      0x20\n        /* \"#utility.yul\":752:761   */\n      dup4\n        /* \"#utility.yul\":748:766   */\n      add\n        /* \"#utility.yul\":739:745   */\n      dup5\n        /* \"#utility.yul\":695:767   */\n      tag_58\n      jump\t// in\n    tag_76:\n        /* \"#utility.yul\":442:774   */\n      swap4\n      swap3\n      pop\n      pop\n      pop\n      jump\t// out\n        /* \"#utility.yul\":861:978   */\n    tag_60:\n        /* \"#utility.yul\":970:971   */\n      0x00\n        /* \"#utility.yul\":967:968   */\n      0x00\n        /* \"#utility.yul\":960:972   */\n      revert\n        /* \"#utility.yul\":1107:1229   */\n    tag_62:\n        /* \"#utility.yul\":1180:1204   */\n      tag_81\n        /* \"#utility.yul\":1198:1203   */\n      dup2\n        /* \"#utility.yul\":1180:1204   */\n      tag_57\n      jump\t// in\n    tag_81:\n        /* \"#utility.yul\":1173:1178   */\n      dup2\n        /* \"#utility.yul\":1170:1205   */\n      eq\n        /* \"#utility.yul\":1160:1223   */\n      tag_82\n      jumpi\n        /* \"#utility.yul\":1219:1220   */\n      0x00\n        /* \"#utility.yul\":1216:1217   */\n      0x00\n        /* \"#utility.yul\":1209:1221   */\n      revert\n        /* \"#utility.yul\":1160:1223   */\n    tag_82:\n        /* \"#utility.yul\":1107:1229   */\n      pop\n      jump\t// out\n        /* \"#utility.yul\":1235:1374   */\n    tag_63:\n        /* \"#utility.yul\":1281:1286   */\n      0x00\n        /* \"#utility.yul\":1319:1325   */\n      dup2\n        /* \"#utility.yul\":1306:1326   */\n      calldataload\n        /* \"#utility.yul\":1297:1326   */\n      swap1\n      pop\n        /* \"#utility.yul\":1335:1368   */\n      tag_84\n        /* \"#utility.yul\":1362:1367   */\n      dup2\n        /* \"#utility.yul\":1335:1368   */\n      tag_62\n      jump\t// in\n    tag_84:\n        /* \"#utility.yul\":1235:1374   */\n      swap3\n      swap2\n      pop\n      pop\n      jump\t// out\n        /* \"#utility.yul\":1380:1709   */\n    tag_24:\n        /* \"#utility.yul\":1439:1445   */\n      0x00\n        /* \"#utility.yul\":1488:1490   */\n      0x20\n        /* \"#utility.yul\":1476:1485   */\n      dup3\n        /* \"#utility.yul\":1467:1474   */\n      dup5\n        /* \"#utility.yul\":1463:1486   */\n      sub\n        /* \"#utility.yul\":1459:1491   */\n      slt\n        /* \"#utility.yul\":1456:1575   */\n      iszero\n      tag_86\n      jumpi\n        /* \"#utility.yul\":1494:1573   */\n      tag_87\n      tag_60\n      jump\t// in\n    tag_87:\n        /* \"#utility.yul\":1456:1575   */\n    tag_86:\n        /* \"#utility.yul\":1614:1615   */\n      0x00\n        /* \"#utility.yul\":1639:1692   */\n      tag_88\n        /* \"#utility.yul\":1684:1691   */\n      dup5\n        /* \"#utility.yul\":1675:1681   */\n      dup3\n        /* \"#utility.yul\":1664:1673   */\n      dup6\n        /* \"#utility.yul\":1660:1682   */\n      add\n        /* \"#utility.yul\":1639:1692   */\n      tag_63\n      jump\t// in\n    tag_88:\n        /* \"#utility.yul\":1629:1692   */\n      swap2\n      pop\n        /* \"#utility.yul\":1585:1702   */\n      pop\n        /* \"#utility.yul\":1380:1709   */\n      swap3\n      swap2\n      pop\n      pop\n      jump\t// out\n        /* \"#utility.yul\":1715:1884   */\n    tag_64:\n        /* \"#utility.yul\":1799:1810   */\n      0x00\n        /* \"#utility.yul\":1833:1839   */\n      dup3\n        /* \"#utility.yul\":1828:1831   */\n      dup3\n        /* \"#utility.yul\":1821:1840   */\n      mstore\n        /* \"#utility.yul\":1873:1877   */\n      0x20\n        /* \"#utility.yul\":1868:1871   */\n      dup3\n        /* \"#utility.yul\":1864:1878   */\n      add\n        /* \"#utility.yul\":1849:1878   */\n      swap1\n      pop\n        /* \"#utility.yul\":1715:1884   */\n      swap3\n      swap2\n      pop\n      pop\n      jump\t// out\n        /* \"#utility.yul\":1890:2046   */\n    tag_65:\n        /* \"#utility.yul\":2030:2038   */\n      0x4d61782035300000000000000000000000000000000000000000000000000000\n        /* \"#utility.yul\":2026:2027   */\n      0x00\n        /* \"#utility.yul\":2018:2024   */\n      dup3\n        /* \"#utility.yul\":2014:2028   */\n      add\n        /* \"#utility.yul\":2007:2039   */\n      mstore\n        /* \"#utility.yul\":1890:2046   */\n      pop\n      jump\t// out\n        /* \"#utility.yul\":2052:2417   */\n    tag_66:\n        /* \"#utility.yul\":2194:2197   */\n      0x00\n        /* \"#utility.yul\":2215:2281   */\n      tag_92\n        /* \"#utility.yul\":2279:2280   */\n      0x06\n        /* \"#utility.yul\":2274:2277   */\n      dup4\n        /* \"#utility.yul\":2215:2281   */\n      tag_64\n      jump\t// in\n    tag_92:\n        /* \"#utility.yul\":2208:2281   */\n      swap2\n      pop\n        /* \"#utility.yul\":2290:2383   */\n      tag_93\n        /* \"#utility.yul\":2379:2382   */\n      dup3\n        /* \"#utility.yul\":2290:2383   */\n      tag_65\n      jump\t// in\n    tag_93:\n        /* \"#utility.yul\":2408:2410   */\n      0x20\n        /* \"#utility.yul\":2403:2406   */\n      dup3\n        /* \"#utility.yul\":2399:2411   */\n      add\n        /* \"#utility.yul\":2392:2411   */\n      swap1\n      pop\n        /* \"#utility.yul\":2052:2417   */\n      swap2\n      swap1\n      pop\n      jump\t// out\n        /* \"#utility.yul\":2423:2842   */\n    tag_39:\n        /* \"#utility.yul\":2589:2593   */\n      0x00\n        /* \"#utility.yul\":2627:2629   */\n      0x20\n        /* \"#utility.yul\":2616:2625   */\n      dup3\n        /* \"#utility.yul\":2612:2630   */\n      add\n        /* \"#utility.yul\":2604:2630   */\n      swap1\n      pop\n        /* \"#utility.yul\":2676:2685   */\n      dup2\n        /* \"#utility.yul\":2670:2674   */\n      dup2\n        /* \"#utility.yul\":2666:2686   */\n      sub\n        /* \"#utility.yul\":2662:2663   */\n      0x00\n        /* \"#utility.yul\":2651:2660   */\n      dup4\n        /* \"#utility.yul\":2647:2664   */\n      add\n        /* \"#utility.yul\":2640:2687   */\n      mstore\n        /* \"#utility.yul\":2704:2835   */\n      tag_95\n        /* \"#utility.yul\":2830:2834   */\n      dup2\n        /* \"#utility.yul\":2704:2835   */\n      tag_66\n      jump\t// in\n    tag_95:\n        /* \"#utility.yul\":2696:2835   */\n      swap1\n      pop\n        /* \"#utility.yul\":2423:2842   */\n      swap2\n      swap1\n      pop\n      jump\t// out\n        /* \"#utility.yul\":2848:3028   */\n    tag_67:\n        /* \"#utility.yul\":2896:2973   */\n      0x4e487b7100000000000000000000000000000000000000000000000000000000\n        /* \"#utility.yul\":2893:2894   */\n      0x00\n        /* \"#utility.yul\":2886:2974   */\n      mstore\n        /* \"#utility.yul\":2993:2997   */\n      0x11\n        /* \"#utility.yul\":2990:2991   */\n      0x04\n        /* \"#utility.yul\":2983:2998   */\n      mstore\n        /* \"#utility.yul\":3017:3021   */\n      0x24\n        /* \"#utility.yul\":3014:3015   */\n      0x00\n        /* \"#utility.yul\":3007:3022   */\n      revert\n        /* \"#utility.yul\":3034:3267   */\n    tag_44:\n        /* \"#utility.yul\":3073:3076   */\n      0x00\n        /* \"#utility.yul\":3096:3120   */\n      tag_98\n        /* \"#utility.yul\":3114:3119   */\n      dup3\n        /* \"#utility.yul\":3096:3120   */\n      tag_57\n      jump\t// in\n    tag_98:\n        /* \"#utility.yul\":3087:3120   */\n      swap2\n      pop\n        /* \"#utility.yul\":3142:3208   */\n      0xffffffffffffffffffffffffffffffffffffffffffffffffffffffffffffffff\n        /* \"#utility.yul\":3135:3140   */\n      dup3\n        /* \"#utility.yul\":3132:3209   */\n      sub\n        /* \"#utility.yul\":3129:3232   */\n      tag_99\n      jumpi\n        /* \"#utility.yul\":3212:3230   */\n      tag_100\n      tag_67\n      jump\t// in\n    tag_100:\n        /* \"#utility.yul\":3129:3232   */\n    tag_99:\n        /* \"#utility.yul\":3259:3260   */\n      0x01\n        /* \"#utility.yul\":3252:3257   */\n      dup3\n        /* \"#utility.yul\":3248:3261   */\n      add\n        /* \"#utility.yul\":3241:3261   */\n      swap1\n      pop\n        /* \"#utility.yul\":3034:3267   */\n      swap2\n      swap1\n      pop\n      jump\t// out\n        /* \"#utility.yul\":3273:3467   */\n    tag_47:\n        /* \"#utility.yul\":3313:3317   */\n      0x00\n        /* \"#utility.yul\":3333:3353   */\n      tag_102\n        /* \"#utility.yul\":3351:3352   */\n      dup3\n        /* \"#utility.yul\":3333:3353   */\n      tag_57\n      jump\t// in\n    tag_102:\n        /* \"#utility.yul\":3328:3353   */\n      swap2\n      pop\n        /* \"#utility.yul\":3367:3387   */\n      tag_103\n        /* \"#utility.yul\":3385:3386   */\n      dup4\n        /* \"#utility.yul\":3367:3387   */\n      tag_57\n      jump\t// in\n    tag_103:\n        /* \"#utility.yul\":3362:3387   */\n      swap3\n      pop\n        /* \"#utility.yul\":3411:3412   */\n      dup3\n        /* \"#utility.yul\":3408:3409   */\n      dup3\n        /* \"#utility.yul\":3404:3413   */\n      sub\n        /* \"#utility.yul\":3396:3413   */\n      swap1\n      pop\n        /* \"#utility.yul\":3435:3436   */\n      dup2\n        /* \"#utility.yul\":3429:3433   */\n      dup2\n        /* \"#utility.yul\":3426:3437   */\n      gt\n        /* \"#utility.yul\":3423:3460   */\n      iszero\n      tag_104\n      jumpi\n        /* \"#utility.yul\":3440:3458   */\n      tag_105\n      tag_67\n      jump\t// in\n    tag_105:\n        /* \"#utility.yul\":3423:3460   */\n    tag_104:\n        /* \"#utility.yul\":3273:3467   */\n      swap3\n      swap2\n      pop\n      pop\n      jump\t// out\n\n    auxdata: 0xa26469706673582212200b18db45340762ee2237336c257a79400cbe30747218187b8460d3f53bf65a3064736f6c63430008220033\n}\n",
				"bytecode": {
					"linkReferences": {},
					"object": "6080604052348015600e575f5ffd5b5061051c8061001c5f395ff3fe608060405234801561000f575f5ffd5b506004361061007b575f3560e01c8063ad576fa811610059578063ad576fa8146100da578063bc8c2323146100f6578063dc44521c14610112578063e28670de146101305761007b565b8063431838341461007f57806361bc221a1461009d5780638f32aa78146100bb575b5f5ffd5b61008761014e565b604051610094919061032e565b60405180910390f35b6100a5610154565b6040516100b2919061032e565b60405180910390f35b6100c3610159565b6040516100d1929190610347565b60405180910390f35b6100f460048036038101906100ef919061039c565b610169565b005b610110600480360381019061010b919061039c565b610236565b005b61011a61030a565b604051610127919061032e565b60405180910390f35b610138610310565b604051610145919061032e565b60405180910390f35b60015481565b5f5481565b5f5f600254600354915091509091565b60328111156101ad576040517f08c379a00000000000000000000000000000000000000000000000000000000081526004016101a490610421565b60405180910390fd5b5f5a90505f5f90505b8281101561021f575f5f8154809291906101cf9061046c565b9190505550806001819055507fb8fab2e88183280dfbc0701f47dfad7454e4a3eccdd3cc5cff51d73c1f9df8c98160405161020a919061032e565b60405180910390a180806001019150506101b6565b505a8161022c91906104b3565b6002819055505050565b603281111561027a576040517f08c379a000000000000000000000000000000000000000000000000000000000815260040161027190610421565b60405180910390fd5b5f5a90505f5f5490505f5f5f90505b848110156102e457828061029c9061046c565b9350508091507fb8fab2e88183280dfbc0701f47dfad7454e4a3eccdd3cc5cff51d73c1f9df8c9816040516102d1919061032e565b60405180910390a1806001019050610289565b50815f81905550806001819055505a836102fe91906104b3565b60038190555050505050565b60035481565b60025481565b5f819050919050565b61032881610316565b82525050565b5f6020820190506103415f83018461031f565b92915050565b5f60408201905061035a5f83018561031f565b610367602083018461031f565b9392505050565b5f5ffd5b61037b81610316565b8114610385575f5ffd5b50565b5f8135905061039681610372565b92915050565b5f602082840312156103b1576103b061036e565b5b5f6103be84828501610388565b91505092915050565b5f82825260208201905092915050565b7f4d617820353000000000000000000000000000000000000000000000000000005f82015250565b5f61040b6006836103c7565b9150610416826103d7565b602082019050919050565b5f6020820190508181035f830152610438816103ff565b9050919050565b7f4e487b71000000000000000000000000000000000000000000000000000000005f52601160045260245ffd5b5f61047682610316565b91507fffffffffffffffffffffffffffffffffffffffffffffffffffffffffffffffff82036104a8576104a761043f565b5b600182019050919050565b5f6104bd82610316565b91506104c883610316565b92508282039050818111156104e0576104df61043f565b5b9291505056fea26469706673582212200b18db45340762ee2237336c257a79400cbe30747218187b8460d3f53bf65a3064736f6c63430008220033",
					"opcodes": "PUSH1 0x80 PUSH1 0x40 MSTORE CALLVALUE DUP1 ISZERO PUSH1 0xE JUMPI PUSH0 PUSH0 REVERT JUMPDEST POP PUSH2 0x51C DUP1 PUSH2 0x1C PUSH0 CODECOPY PUSH0 RETURN INVALID PUSH1 0x80 PUSH1 0x40 MSTORE CALLVALUE DUP1 ISZERO PUSH2 0xF JUMPI PUSH0 PUSH0 REVERT JUMPDEST POP PUSH1 0x4 CALLDATASIZE LT PUSH2 0x7B JUMPI PUSH0 CALLDATALOAD PUSH1 0xE0 SHR DUP1 PUSH4 0xAD576FA8 GT PUSH2 0x59 JUMPI DUP1 PUSH4 0xAD576FA8 EQ PUSH2 0xDA JUMPI DUP1 PUSH4 0xBC8C2323 EQ PUSH2 0xF6 JUMPI DUP1 PUSH4 0xDC44521C EQ PUSH2 0x112 JUMPI DUP1 PUSH4 0xE28670DE EQ PUSH2 0x130 JUMPI PUSH2 0x7B JUMP JUMPDEST DUP1 PUSH4 0x43183834 EQ PUSH2 0x7F JUMPI DUP1 PUSH4 0x61BC221A EQ PUSH2 0x9D JUMPI DUP1 PUSH4 0x8F32AA78 EQ PUSH2 0xBB JUMPI JUMPDEST PUSH0 PUSH0 REVERT JUMPDEST PUSH2 0x87 PUSH2 0x14E JUMP JUMPDEST PUSH1 0x40 MLOAD PUSH2 0x94 SWAP2 SWAP1 PUSH2 0x32E JUMP JUMPDEST PUSH1 0x40 MLOAD DUP1 SWAP2 SUB SWAP1 RETURN JUMPDEST PUSH2 0xA5 PUSH2 0x154 JUMP JUMPDEST PUSH1 0x40 MLOAD PUSH2 0xB2 SWAP2 SWAP1 PUSH2 0x32E JUMP JUMPDEST PUSH1 0x40 MLOAD DUP1 SWAP2 SUB SWAP1 RETURN JUMPDEST PUSH2 0xC3 PUSH2 0x159 JUMP JUMPDEST PUSH1 0x40 MLOAD PUSH2 0xD1 SWAP3 SWAP2 SWAP1 PUSH2 0x347 JUMP JUMPDEST PUSH1 0x40 MLOAD DUP1 SWAP2 SUB SWAP1 RETURN JUMPDEST PUSH2 0xF4 PUSH1 0x4 DUP1 CALLDATASIZE SUB DUP2 ADD SWAP1 PUSH2 0xEF SWAP2 SWAP1 PUSH2 0x39C JUMP JUMPDEST PUSH2 0x169 JUMP JUMPDEST STOP JUMPDEST PUSH2 0x110 PUSH1 0x4 DUP1 CALLDATASIZE SUB DUP2 ADD SWAP1 PUSH2 0x10B SWAP2 SWAP1 PUSH2 0x39C JUMP JUMPDEST PUSH2 0x236 JUMP JUMPDEST STOP JUMPDEST PUSH2 0x11A PUSH2 0x30A JUMP JUMPDEST PUSH1 0x40 MLOAD PUSH2 0x127 SWAP2 SWAP1 PUSH2 0x32E JUMP JUMPDEST PUSH1 0x40 MLOAD DUP1 SWAP2 SUB SWAP1 RETURN JUMPDEST PUSH2 0x138 PUSH2 0x310 JUMP JUMPDEST PUSH1 0x40 MLOAD PUSH2 0x145 SWAP2 SWAP1 PUSH2 0x32E JUMP JUMPDEST PUSH1 0x40 MLOAD DUP1 SWAP2 SUB SWAP1 RETURN JUMPDEST PUSH1 0x1 SLOAD DUP2 JUMP JUMPDEST PUSH0 SLOAD DUP2 JUMP JUMPDEST PUSH0 PUSH0 PUSH1 0x2 SLOAD PUSH1 0x3 SLOAD SWAP2 POP SWAP2 POP SWAP1 SWAP2 JUMP JUMPDEST PUSH1 0x32 DUP2 GT ISZERO PUSH2 0x1AD JUMPI PUSH1 0x40 MLOAD PUSH32 0x8C379A000000000000000000000000000000000000000000000000000000000 DUP2 MSTORE PUSH1 0x4 ADD PUSH2 0x1A4 SWAP1 PUSH2 0x421 JUMP JUMPDEST PUSH1 0x40 MLOAD DUP1 SWAP2 SUB SWAP1 REVERT JUMPDEST PUSH0 GAS SWAP1 POP PUSH0 PUSH0 SWAP1 POP JUMPDEST DUP3 DUP2 LT ISZERO PUSH2 0x21F JUMPI PUSH0 PUSH0 DUP2 SLOAD DUP1 SWAP3 SWAP2 SWAP1 PUSH2 0x1CF SWAP1 PUSH2 0x46C JUMP JUMPDEST SWAP2 SWAP1 POP SSTORE POP DUP1 PUSH1 0x1 DUP2 SWAP1 SSTORE POP PUSH32 0xB8FAB2E88183280DFBC0701F47DFAD7454E4A3ECCDD3CC5CFF51D73C1F9DF8C9 DUP2 PUSH1 0x40 MLOAD PUSH2 0x20A SWAP2 SWAP1 PUSH2 0x32E JUMP JUMPDEST PUSH1 0x40 MLOAD DUP1 SWAP2 SUB SWAP1 LOG1 DUP1 DUP1 PUSH1 0x1 ADD SWAP2 POP POP PUSH2 0x1B6 JUMP JUMPDEST POP GAS DUP2 PUSH2 0x22C SWAP2 SWAP1 PUSH2 0x4B3 JUMP JUMPDEST PUSH1 0x2 DUP2 SWAP1 SSTORE POP POP POP JUMP JUMPDEST PUSH1 0x32 DUP2 GT ISZERO PUSH2 0x27A JUMPI PUSH1 0x40 MLOAD PUSH32 0x8C379A000000000000000000000000000000000000000000000000000000000 DUP2 MSTORE PUSH1 0x4 ADD PUSH2 0x271 SWAP1 PUSH2 0x421 JUMP JUMPDEST PUSH1 0x40 MLOAD DUP1 SWAP2 SUB SWAP1 REVERT JUMPDEST PUSH0 GAS SWAP1 POP PUSH0 PUSH0 SLOAD SWAP1 POP PUSH0 PUSH0 PUSH0 SWAP1 POP JUMPDEST DUP5 DUP2 LT ISZERO PUSH2 0x2E4 JUMPI DUP3 DUP1 PUSH2 0x29C SWAP1 PUSH2 0x46C JUMP JUMPDEST SWAP4 POP POP DUP1 SWAP2 POP PUSH32 0xB8FAB2E88183280DFBC0701F47DFAD7454E4A3ECCDD3CC5CFF51D73C1F9DF8C9 DUP2 PUSH1 0x40 MLOAD PUSH2 0x2D1 SWAP2 SWAP1 PUSH2 0x32E JUMP JUMPDEST PUSH1 0x40 MLOAD DUP1 SWAP2 SUB SWAP1 LOG1 DUP1 PUSH1 0x1 ADD SWAP1 POP PUSH2 0x289 JUMP JUMPDEST POP DUP2 PUSH0 DUP2 SWAP1 SSTORE POP DUP1 PUSH1 0x1 DUP2 SWAP1 SSTORE POP GAS DUP4 PUSH2 0x2FE SWAP2 SWAP1 PUSH2 0x4B3 JUMP JUMPDEST PUSH1 0x3 DUP2 SWAP1 SSTORE POP POP POP POP POP JUMP JUMPDEST PUSH1 0x3 SLOAD DUP2 JUMP JUMPDEST PUSH1 0x2 SLOAD DUP2 JUMP JUMPDEST PUSH0 DUP2 SWAP1 POP SWAP2 SWAP1 POP JUMP JUMPDEST PUSH2 0x328 DUP2 PUSH2 0x316 JUMP JUMPDEST DUP3 MSTORE POP POP JUMP JUMPDEST PUSH0 PUSH1 0x20 DUP3 ADD SWAP1 POP PUSH2 0x341 PUSH0 DUP4 ADD DUP5 PUSH2 0x31F JUMP JUMPDEST SWAP3 SWAP2 POP POP JUMP JUMPDEST PUSH0 PUSH1 0x40 DUP3 ADD SWAP1 POP PUSH2 0x35A PUSH0 DUP4 ADD DUP6 PUSH2 0x31F JUMP JUMPDEST PUSH2 0x367 PUSH1 0x20 DUP4 ADD DUP5 PUSH2 0x31F JUMP JUMPDEST SWAP4 SWAP3 POP POP POP JUMP JUMPDEST PUSH0 PUSH0 REVERT JUMPDEST PUSH2 0x37B DUP2 PUSH2 0x316 JUMP JUMPDEST DUP2 EQ PUSH2 0x385 JUMPI PUSH0 PUSH0 REVERT JUMPDEST POP JUMP JUMPDEST PUSH0 DUP2 CALLDATALOAD SWAP1 POP PUSH2 0x396 DUP2 PUSH2 0x372 JUMP JUMPDEST SWAP3 SWAP2 POP POP JUMP JUMPDEST PUSH0 PUSH1 0x20 DUP3 DUP5 SUB SLT ISZERO PUSH2 0x3B1 JUMPI PUSH2 0x3B0 PUSH2 0x36E JUMP JUMPDEST JUMPDEST PUSH0 PUSH2 0x3BE DUP5 DUP3 DUP6 ADD PUSH2 0x388 JUMP JUMPDEST SWAP2 POP POP SWAP3 SWAP2 POP POP JUMP JUMPDEST PUSH0 DUP3 DUP3 MSTORE PUSH1 0x20 DUP3 ADD SWAP1 POP SWAP3 SWAP2 POP POP JUMP JUMPDEST PUSH32 0x4D61782035300000000000000000000000000000000000000000000000000000 PUSH0 DUP3 ADD MSTORE POP JUMP JUMPDEST PUSH0 PUSH2 0x40B PUSH1 0x6 DUP4 PUSH2 0x3C7 JUMP JUMPDEST SWAP2 POP PUSH2 0x416 DUP3 PUSH2 0x3D7 JUMP JUMPDEST PUSH1 0x20 DUP3 ADD SWAP1 POP SWAP2 SWAP1 POP JUMP JUMPDEST PUSH0 PUSH1 0x20 DUP3 ADD SWAP1 POP DUP2 DUP2 SUB PUSH0 DUP4 ADD MSTORE PUSH2 0x438 DUP2 PUSH2 0x3FF JUMP JUMPDEST SWAP1 POP SWAP2 SWAP1 POP JUMP JUMPDEST PUSH32 0x4E487B7100000000000000000000000000000000000000000000000000000000 PUSH0 MSTORE PUSH1 0x11 PUSH1 0x4 MSTORE PUSH1 0x24 PUSH0 REVERT JUMPDEST PUSH0 PUSH2 0x476 DUP3 PUSH2 0x316 JUMP JUMPDEST SWAP2 POP PUSH32 0xFFFFFFFFFFFFFFFFFFFFFFFFFFFFFFFFFFFFFFFFFFFFFFFFFFFFFFFFFFFFFFFF DUP3 SUB PUSH2 0x4A8 JUMPI PUSH2 0x4A7 PUSH2 0x43F JUMP JUMPDEST JUMPDEST PUSH1 0x1 DUP3 ADD SWAP1 POP SWAP2 SWAP1 POP JUMP JUMPDEST PUSH0 PUSH2 0x4BD DUP3 PUSH2 0x316 JUMP JUMPDEST SWAP2 POP PUSH2 0x4C8 DUP4 PUSH2 0x316 JUMP JUMPDEST SWAP3 POP DUP3 DUP3 SUB SWAP1 POP DUP2 DUP2 GT ISZERO PUSH2 0x4E0 JUMPI PUSH2 0x4DF PUSH2 0x43F JUMP JUMPDEST JUMPDEST SWAP3 SWAP2 POP POP JUMP INVALID LOG2 PUSH5 0x6970667358 0x22 SLT KECCAK256 SIGNEXTEND XOR 0xDB GASLIMIT CALLVALUE SMOD PUSH3 0xEE2237 CALLER PUSH13 0x257A79400CBE30747218187B84 PUSH1 0xD3 CREATE2 EXTCODESIZE 0xF6 GAS ADDRESS PUSH5 0x736F6C6343 STOP ADDMOD 0x22 STOP CALLER "
				},
				"gasEstimates": {
					"creation": {
						"codeDepositCost": "261600",
						"executionCost": "298",
						"totalCost": "261898"
					},
					"external": {
						"compareGas()": "infinite",
						"counter()": "2447",
						"heavyGasUsed()": "2491",
						"heavyWrites(uint256)": "infinite",
						"lastValue()": "2426",
						"optimizedGasUsed()": "2469",
						"optimizedWrites(uint256)": "infinite"
					}
				},
				"methodIdentifiers": {
					"compareGas()": "8f32aa78",
					"counter()": "61bc221a",
					"heavyGasUsed()": "e28670de",
					"heavyWrites(uint256)": "ad576fa8",
					"lastValue()": "43183834",
					"optimizedGasUsed()": "dc44521c",
					"optimizedWrites(uint256)": "bc8c2323"
				}
			},
			"storageLayout": {
				"storage": [
					{
						"astId": 3,
						"contract": "test72.sol:RepeatedStorageWrites",
						"label": "counter",
						"offset": 0,
						"slot": "0",
						"type": "t_uint256"
					},
					{
						"astId": 5,
						"contract": "test72.sol:RepeatedStorageWrites",
						"label": "lastValue",
						"offset": 0,
						"slot": "1",
						"type": "t_uint256"
					},
					{
						"astId": 7,
						"contract": "test72.sol:RepeatedStorageWrites",
						"label": "heavyGasUsed",
						"offset": 0,
						"slot": "2",
						"type": "t_uint256"
					},
					{
						"astId": 9,
						"contract": "test72.sol:RepeatedStorageWrites",
						"label": "optimizedGasUsed",
						"offset": 0,
						"slot": "3",
						"type": "t_uint256"
					}
				],
				"types": {
					"t_uint256": {
						"encoding": "inplace",
						"label": "uint256",
						"numberOfBytes": "32"
					}
				}
			},
			"userdoc": {
				"kind": "user",
				"methods": {},
				"version": 1
			}
		}
	}
}