{
	"test83.sol": {
		"LogicV2": {
			"abi": [
				{
					"inputs": [],
					"name": "owner",
					"outputs": [
						{
							"internalType": "address",
							"name": "",
							"type": "address"
						}
					],
					"stateMutability": "view",
					"type": "function"
				},
				{
					"inputs": [
						{
							"internalType": "uint256",
							"name": "_value",
							"type": "uint256"
						}
					],
					"name": "setValue",
					"outputs": [],
					"stateMutability": "nonpayable",
					"type": "function"
				},
				{
					"inputs": [
						{
							"internalType": "uint256",
							"name": "_value",
							"type": "uint256"
						}
					],
					"name": "setValueIncrement",
					"outputs": [],
					"stateMutability": "nonpayable",
					"type": "function"
				},
				{
					"inputs": [],
					"name": "value",
					"outputs": [
						{
							"internalType": "uint256",
							"name": "",
							"type": "uint256"
						}
					],
					"stateMutability": "view",
					"type": "function"
				}
			],
			"devdoc": {
				"kind": "dev",
				"methods": {},
				"version": 1
			},
			"evm": {
				"assembly": "    /* \"test83.sol\":1568:1911  contract LogicV2 {... */\n  mstore(0x40, 0x80)\n  callvalue\n  dup1\n  iszero\n  tag_1\n  jumpi\n  revert(0x00, 0x00)\ntag_1:\n  pop\n  dataSize(sub_0)\n  dup1\n  dataOffset(sub_0)\n  0x00\n  codecopy\n  0x00\n  return\nstop\n\nsub_0: assembly {\n        /* \"test83.sol\":1568:1911  contract LogicV2 {... */\n      mstore(0x40, 0x80)\n      callvalue\n      dup1\n      iszero\n      tag_1\n      jumpi\n      revert(0x00, 0x00)\n    tag_1:\n      pop\n      jumpi(tag_2, lt(calldatasize, 0x04))\n      shr(0xe0, calldataload(0x00))\n      dup1\n      0x3956de47\n      eq\n      tag_3\n      jumpi\n      dup1\n      0x3fa4f245\n      eq\n      tag_4\n      jumpi\n      dup1\n      0x55241077\n      eq\n      tag_5\n      jumpi\n      dup1\n      0x8da5cb5b\n      eq\n      tag_6\n      jumpi\n    tag_2:\n      revert(0x00, 0x00)\n        /* \"test83.sol\":1815:1908  function setValueIncrement(uint256 _value) external {... */\n    tag_3:\n      tag_7\n      0x04\n      dup1\n      calldatasize\n      sub\n      dup2\n      add\n      swap1\n      tag_8\n      swap2\n      swap1\n      tag_9\n      jump\t// in\n    tag_8:\n      tag_10\n      jump\t// in\n    tag_7:\n      stop\n        /* \"test83.sol\":1653:1673  uint256 public value */\n    tag_4:\n      tag_11\n      tag_12\n      jump\t// in\n    tag_11:\n      mload(0x40)\n      tag_13\n      swap2\n      swap1\n      tag_14\n      jump\t// in\n    tag_13:\n      mload(0x40)\n      dup1\n      swap2\n      sub\n      swap1\n      return\n        /* \"test83.sol\":1709:1807  function setValue(uint256 _value) external {... */\n    tag_5:\n      tag_15\n      0x04\n      dup1\n      calldatasize\n      sub\n      dup2\n      add\n      swap1\n      tag_16\n      swap2\n      swap1\n      tag_9\n      jump\t// in\n    tag_16:\n      tag_17\n      jump\t// in\n    tag_15:\n      stop\n        /* \"test83.sol\":1680:1700  address public owner */\n    tag_6:\n      tag_18\n      tag_19\n      jump\t// in\n    tag_18:\n      mload(0x40)\n      tag_20\n      swap2\n      swap1\n      tag_21\n      jump\t// in\n    tag_20:\n      mload(0x40)\n      dup1\n      swap2\n      sub\n      swap1\n      return\n        /* \"test83.sol\":1815:1908  function setValueIncrement(uint256 _value) external {... */\n    tag_10:\n        /* \"test83.sol\":1894:1900  _value */\n      dup1\n        /* \"test83.sol\":1886:1891  value */\n      sload(0x00)\n        /* \"test83.sol\":1886:1900  value + _value */\n      tag_23\n      swap2\n      swap1\n      tag_24\n      jump\t// in\n    tag_23:\n        /* \"test83.sol\":1878:1883  value */\n      0x00\n        /* \"test83.sol\":1878:1900  value = value + _value */\n      dup2\n      swap1\n      sstore\n      pop\n        /* \"test83.sol\":1815:1908  function setValueIncrement(uint256 _value) external {... */\n      pop\n      jump\t// out\n        /* \"test83.sol\":1653:1673  uint256 public value */\n    tag_12:\n      sload(0x00)\n      dup2\n      jump\t// out\n        /* \"test83.sol\":1709:1807  function setValue(uint256 _value) external {... */\n    tag_17:\n        /* \"test83.sol\":1780:1781  2 */\n      0x02\n        /* \"test83.sol\":1771:1777  _value */\n      dup2\n        /* \"test83.sol\":1771:1781  _value * 2 */\n      tag_26\n      swap2\n      swap1\n      tag_27\n      jump\t// in\n    tag_26:\n        /* \"test83.sol\":1763:1768  value */\n      0x00\n        /* \"test83.sol\":1763:1781  value = _value * 2 */\n      dup2\n      swap1\n      sstore\n      pop\n        /* \"test83.sol\":1709:1807  function setValue(uint256 _value) external {... */\n      pop\n      jump\t// out\n        /* \"test83.sol\":1680:1700  address public owner */\n    tag_19:\n      0x01\n      0x00\n      swap1\n      sload\n      swap1\n      0x0100\n      exp\n      swap1\n      div\n      0xffffffffffffffffffffffffffffffffffffffff\n      and\n      dup2\n      jump\t// out\n        /* \"#utility.yul\":88:205   */\n    tag_29:\n        /* \"#utility.yul\":197:198   */\n      0x00\n        /* \"#utility.yul\":194:195   */\n      0x00\n        /* \"#utility.yul\":187:199   */\n      revert\n        /* \"#utility.yul\":334:411   */\n    tag_31:\n        /* \"#utility.yul\":371:378   */\n      0x00\n        /* \"#utility.yul\":400:405   */\n      dup2\n        /* \"#utility.yul\":389:405   */\n      swap1\n      pop\n        /* \"#utility.yul\":334:411   */\n      swap2\n      swap1\n      pop\n      jump\t// out\n        /* \"#utility.yul\":417:539   */\n    tag_32:\n        /* \"#utility.yul\":490:514   */\n      tag_45\n        /* \"#utility.yul\":508:513   */\n      dup2\n        /* \"#utility.yul\":490:514   */\n      tag_31\n      jump\t// in\n    tag_45:\n        /* \"#utility.yul\":483:488   */\n      dup2\n        /* \"#utility.yul\":480:515   */\n      eq\n        /* \"#utility.yul\":470:533   */\n      tag_46\n      jumpi\n        /* \"#utility.yul\":529:530   */\n      0x00\n        /* \"#utility.yul\":526:527   */\n      0x00\n        /* \"#utility.yul\":519:531   */\n      revert\n        /* \"#utility.yul\":470:533   */\n    tag_46:\n        /* \"#utility.yul\":417:539   */\n      pop\n      jump\t// out\n        /* \"#utility.yul\":545:684   */\n    tag_33:\n        /* \"#utility.yul\":591:596   */\n      0x00\n        /* \"#utility.yul\":629:635   */\n      dup2\n        /* \"#utility.yul\":616:636   */\n      calldataload\n        /* \"#utility.yul\":607:636   */\n      swap1\n      pop\n        /* \"#utility.yul\":645:678   */\n      tag_48\n        /* \"#utility.yul\":672:677   */\n      dup2\n        /* \"#utility.yul\":645:678   */\n      tag_32\n      jump\t// in\n    tag_48:\n        /* \"#utility.yul\":545:684   */\n      swap3\n      swap2\n      pop\n      pop\n      jump\t// out\n        /* \"#utility.yul\":690:1019   */\n    tag_9:\n        /* \"#utility.yul\":749:755   */\n      0x00\n        /* \"#utility.yul\":798:800   */\n      0x20\n        /* \"#utility.yul\":786:795   */\n      dup3\n        /* \"#utility.yul\":777:784   */\n      dup5\n        /* \"#utility.yul\":773:796   */\n      sub\n        /* \"#utility.yul\":769:801   */\n      slt\n        /* \"#utility.yul\":766:885   */\n      iszero\n      tag_50\n      jumpi\n        /* \"#utility.yul\":804:883   */\n      tag_51\n      tag_29\n      jump\t// in\n    tag_51:\n        /* \"#utility.yul\":766:885   */\n    tag_50:\n        /* \"#utility.yul\":924:925   */\n      0x00\n        /* \"#utility.yul\":949:1002   */\n      tag_52\n        /* \"#utility.yul\":994:1001   */\n      dup5\n        /* \"#utility.yul\":985:991   */\n      dup3\n        /* \"#utility.yul\":974:983   */\n      dup6\n        /* \"#utility.yul\":970:992   */\n      add\n        /* \"#utility.yul\":949:1002   */\n      tag_33\n      jump\t// in\n    tag_52:\n        /* \"#utility.yul\":939:1002   */\n      swap2\n      pop\n        /* \"#utility.yul\":895:1012   */\n      pop\n        /* \"#utility.yul\":690:1019   */\n      swap3\n      swap2\n      pop\n      pop\n      jump\t// out\n        /* \"#utility.yul\":1025:1143   */\n    tag_34:\n        /* \"#utility.yul\":1112:1136   */\n      tag_54\n        /* \"#utility.yul\":1130:1135   */\n      dup2\n        /* \"#utility.yul\":1112:1136   */\n      tag_31\n      jump\t// in\n    tag_54:\n        /* \"#utility.yul\":1107:1110   */\n      dup3\n        /* \"#utility.yul\":1100:1137   */\n      mstore\n        /* \"#utility.yul\":1025:1143   */\n      pop\n      pop\n      jump\t// out\n        /* \"#utility.yul\":1149:1371   */\n    tag_14:\n        /* \"#utility.yul\":1242:1246   */\n      0x00\n        /* \"#utility.yul\":1280:1282   */\n      0x20\n        /* \"#utility.yul\":1269:1278   */\n      dup3\n        /* \"#utility.yul\":1265:1283   */\n      add\n        /* \"#utility.yul\":1257:1283   */\n      swap1\n      pop\n        /* \"#utility.yul\":1293:1364   */\n      tag_56\n        /* \"#utility.yul\":1361:1362   */\n      0x00\n        /* \"#utility.yul\":1350:1359   */\n      dup4\n        /* \"#utility.yul\":1346:1363   */\n      add\n        /* \"#utility.yul\":1337:1343   */\n      dup5\n        /* \"#utility.yul\":1293:1364   */\n      tag_34\n      jump\t// in\n    tag_56:\n        /* \"#utility.yul\":1149:1371   */\n      swap3\n      swap2\n      pop\n      pop\n      jump\t// out\n        /* \"#utility.yul\":1377:1503   */\n    tag_35:\n        /* \"#utility.yul\":1414:1421   */\n      0x00\n        /* \"#utility.yul\":1454:1496   */\n      0xffffffffffffffffffffffffffffffffffffffff\n        /* \"#utility.yul\":1447:1452   */\n      dup3\n        /* \"#utility.yul\":1443:1497   */\n      and\n        /* \"#utility.yul\":1432:1497   */\n      swap1\n      pop\n        /* \"#utility.yul\":1377:1503   */\n      swap2\n      swap1\n      pop\n      jump\t// out\n        /* \"#utility.yul\":1509:1605   */\n    tag_36:\n        /* \"#utility.yul\":1546:1553   */\n      0x00\n        /* \"#utility.yul\":1575:1599   */\n      tag_59\n        /* \"#utility.yul\":1593:1598   */\n      dup3\n        /* \"#utility.yul\":1575:1599   */\n      tag_35\n      jump\t// in\n    tag_59:\n        /* \"#utility.yul\":1564:1599   */\n      swap1\n      pop\n        /* \"#utility.yul\":1509:1605   */\n      swap2\n      swap1\n      pop\n      jump\t// out\n        /* \"#utility.yul\":1611:1729   */\n    tag_37:\n        /* \"#utility.yul\":1698:1722   */\n      tag_61\n        /* \"#utility.yul\":1716:1721   */\n      dup2\n        /* \"#utility.yul\":1698:1722   */\n      tag_36\n      jump\t// in\n    tag_61:\n        /* \"#utility.yul\":1693:1696   */\n      dup3\n        /* \"#utility.yul\":1686:1723   */\n      mstore\n        /* \"#utility.yul\":1611:1729   */\n      pop\n      pop\n      jump\t// out\n        /* \"#utility.yul\":1735:1957   */\n    tag_21:\n        /* \"#utility.yul\":1828:1832   */\n      0x00\n        /* \"#utility.yul\":1866:1868   */\n      0x20\n        /* \"#utility.yul\":1855:1864   */\n      dup3\n        /* \"#utility.yul\":1851:1869   */\n      add\n        /* \"#utility.yul\":1843:1869   */\n      swap1\n      pop\n        /* \"#utility.yul\":1879:1950   */\n      tag_63\n        /* \"#utility.yul\":1947:1948   */\n      0x00\n        /* \"#utility.yul\":1936:1945   */\n      dup4\n        /* \"#utility.yul\":1932:1949   */\n      add\n        /* \"#utility.yul\":1923:1929   */\n      dup5\n        /* \"#utility.yul\":1879:1950   */\n      tag_37\n      jump\t// in\n    tag_63:\n        /* \"#utility.yul\":1735:1957   */\n      swap3\n      swap2\n      pop\n      pop\n      jump\t// out\n        /* \"#utility.yul\":1963:2143   */\n    tag_38:\n        /* \"#utility.yul\":2011:2088   */\n      0x4e487b7100000000000000000000000000000000000000000000000000000000\n        /* \"#utility.yul\":2008:2009   */\n      0x00\n        /* \"#utility.yul\":2001:2089   */\n      mstore\n        /* \"#utility.yul\":2108:2112   */\n      0x11\n        /* \"#utility.yul\":2105:2106   */\n      0x04\n        /* \"#utility.yul\":2098:2113   */\n      mstore\n        /* \"#utility.yul\":2132:2136   */\n      0x24\n        /* \"#utility.yul\":2129:2130   */\n      0x00\n        /* \"#utility.yul\":2122:2137   */\n      revert\n        /* \"#utility.yul\":2149:2340   */\n    tag_24:\n        /* \"#utility.yul\":2189:2192   */\n      0x00\n        /* \"#utility.yul\":2208:2228   */\n      tag_66\n        /* \"#utility.yul\":2226:2227   */\n      dup3\n        /* \"#utility.yul\":2208:2228   */\n      tag_31\n      jump\t// in\n    tag_66:\n        /* \"#utility.yul\":2203:2228   */\n      swap2\n      pop\n        /* \"#utility.yul\":2242:2262   */\n      tag_67\n        /* \"#utility.yul\":2260:2261   */\n      dup4\n        /* \"#utility.yul\":2242:2262   */\n      tag_31\n      jump\t// in\n    tag_67:\n        /* \"#utility.yul\":2237:2262   */\n      swap3\n      pop\n        /* \"#utility.yul\":2285:2286   */\n      dup3\n        /* \"#utility.yul\":2282:2283   */\n      dup3\n        /* \"#utility.yul\":2278:2287   */\n      add\n        /* \"#utility.yul\":2271:2287   */\n      swap1\n      pop\n        /* \"#utility.yul\":2306:2309   */\n      dup1\n        /* \"#utility.yul\":2303:2304   */\n      dup3\n        /* \"#utility.yul\":2300:2310   */\n      gt\n        /* \"#utility.yul\":2297:2333   */\n      iszero\n      tag_68\n      jumpi\n        /* \"#utility.yul\":2313:2331   */\n      tag_69\n      tag_38\n      jump\t// in\n    tag_69:\n        /* \"#utility.yul\":2297:2333   */\n    tag_68:\n        /* \"#utility.yul\":2149:2340   */\n      swap3\n      swap2\n      pop\n      pop\n      jump\t// out\n        /* \"#utility.yul\":2346:2756   */\n    tag_27:\n        /* \"#utility.yul\":2386:2393   */\n      0x00\n        /* \"#utility.yul\":2409:2429   */\n      tag_71\n        /* \"#utility.yul\":2427:2428   */\n      dup3\n        /* \"#utility.yul\":2409:2429   */\n      tag_31\n      jump\t// in\n    tag_71:\n        /* \"#utility.yul\":2404:2429   */\n      swap2\n      pop\n        /* \"#utility.yul\":2443:2463   */\n      tag_72\n        /* \"#utility.yul\":2461:2462   */\n      dup4\n        /* \"#utility.yul\":2443:2463   */\n      tag_31\n      jump\t// in\n    tag_72:\n        /* \"#utility.yul\":2438:2463   */\n      swap3\n      pop\n        /* \"#utility.yul\":2498:2499   */\n      dup3\n        /* \"#utility.yul\":2495:2496   */\n      dup3\n        /* \"#utility.yul\":2491:2500   */\n      mul\n        /* \"#utility.yul\":2520:2550   */\n      tag_73\n        /* \"#utility.yul\":2538:2549   */\n      dup2\n        /* \"#utility.yul\":2520:2550   */\n      tag_31\n      jump\t// in\n    tag_73:\n        /* \"#utility.yul\":2509:2550   */\n      swap2\n      pop\n        /* \"#utility.yul\":2699:2700   */\n      dup3\n        /* \"#utility.yul\":2690:2697   */\n      dup3\n        /* \"#utility.yul\":2686:2701   */\n      div\n        /* \"#utility.yul\":2683:2684   */\n      dup5\n        /* \"#utility.yul\":2680:2702   */\n      eq\n        /* \"#utility.yul\":2660:2661   */\n      dup4\n        /* \"#utility.yul\":2653:2662   */\n      iszero\n        /* \"#utility.yul\":2633:2716   */\n      or\n        /* \"#utility.yul\":2610:2749   */\n      tag_74\n      jumpi\n        /* \"#utility.yul\":2729:2747   */\n      tag_75\n      tag_38\n      jump\t// in\n    tag_75:\n        /* \"#utility.yul\":2610:2749   */\n    tag_74:\n        /* \"#utility.yul\":2394:2756   */\n      pop\n        /* \"#utility.yul\":2346:2756   */\n      swap3\n      swap2\n      pop\n      pop\n      jump\t// out\n\n    auxdata: 0xa264697066735822122041e30ad26a79c381f0d7af2a518feba06e4eb1b48f0fb7c5163b8210d9259d4564736f6c63430008220033\n}\n",
				"bytecode": {
					"linkReferences": {},
					"object": "6080604052348015600e575f5ffd5b506102cf8061001c5f395ff3fe608060405234801561000f575f5ffd5b506004361061004a575f3560e01c80633956de471461004e5780633fa4f2451461006a57806355241077146100885780638da5cb5b146100a4575b5f5ffd5b6100686004803603810190610063919061014d565b6100c2565b005b6100726100d7565b60405161007f9190610187565b60405180910390f35b6100a2600480360381019061009d919061014d565b6100dc565b005b6100ac6100f1565b6040516100b991906101df565b60405180910390f35b805f546100cf9190610225565b5f8190555050565b5f5481565b6002816100e99190610258565b5f8190555050565b60015f9054906101000a900473ffffffffffffffffffffffffffffffffffffffff1681565b5f5ffd5b5f819050919050565b61012c8161011a565b8114610136575f5ffd5b50565b5f8135905061014781610123565b92915050565b5f6020828403121561016257610161610116565b5b5f61016f84828501610139565b91505092915050565b6101818161011a565b82525050565b5f60208201905061019a5f830184610178565b92915050565b5f73ffffffffffffffffffffffffffffffffffffffff82169050919050565b5f6101c9826101a0565b9050919050565b6101d9816101bf565b82525050565b5f6020820190506101f25f8301846101d0565b92915050565b7f4e487b71000000000000000000000000000000000000000000000000000000005f52601160045260245ffd5b5f61022f8261011a565b915061023a8361011a565b9250828201905080821115610252576102516101f8565b5b92915050565b5f6102628261011a565b915061026d8361011a565b925082820261027b8161011a565b91508282048414831517610292576102916101f8565b5b509291505056fea264697066735822122041e30ad26a79c381f0d7af2a518feba06e4eb1b48f0fb7c5163b8210d9259d4564736f6c63430008220033",
					"opcodes": "PUSH1 0x80 PUSH1 0x40 MSTORE CALLVALUE DUP1 ISZERO PUSH1 0xE JUMPI PUSH0 PUSH0 REVERT JUMPDEST POP PUSH2 0x2CF DUP1 PUSH2 0x1C PUSH0 CODECOPY PUSH0 RETURN INVALID PUSH1 0x80 PUSH1 0x40 MSTORE CALLVALUE DUP1 ISZERO PUSH2 0xF JUMPI PUSH0 PUSH0 REVERT JUMPDEST POP PUSH1 0x4 CALLDATASIZE LT PUSH2 0x4A JUMPI PUSH0 CALLDATALOAD PUSH1 0xE0 SHR DUP1 PUSH4 0x3956DE47 EQ PUSH2 0x4E JUMPI DUP1 PUSH4 0x3FA4F245 EQ PUSH2 0x6A JUMPI DUP1 PUSH4 0x55241077 EQ PUSH2 0x88 JUMPI DUP1 PUSH4 0x8DA5CB5B EQ PUSH2 0xA4 JUMPI JUMPDEST PUSH0 PUSH0 REVERT JUMPDEST PUSH2 0x68 PUSH1 0x4 DUP1 CALLDATASIZE SUB DUP2 ADD SWAP1 PUSH2 0x63 SWAP2 SWAP1 PUSH2 0x14D JUMP JUMPDEST PUSH2 0xC2 JUMP JUMPDEST STOP JUMPDEST PUSH2 0x72 PUSH2 0xD7 JUMP JUMPDEST PUSH1 0x40 MLOAD PUSH2 0x7F SWAP2 SWAP1 PUSH2 0x187 JUMP JUMPDEST PUSH1 0x40 MLOAD DUP1 SWAP2 SUB SWAP1 RETURN JUMPDEST PUSH2 0xA2 PUSH1 0x4 DUP1 CALLDATASIZE SUB DUP2 ADD SWAP1 PUSH2 0x9D SWAP2 SWAP1 PUSH2 0x14D JUMP JUMPDEST PUSH2 0xDC JUMP JUMPDEST STOP JUMPDEST PUSH2 0xAC PUSH2 0xF1 JUMP JUMPDEST PUSH1 0x40 MLOAD PUSH2 0xB9 SWAP2 SWAP1 PUSH2 0x1DF JUMP JUMPDEST PUSH1 0x40 MLOAD DUP1 SWAP2 SUB SWAP1 RETURN JUMPDEST DUP1 PUSH0 SLOAD PUSH2 0xCF SWAP2 SWAP1 PUSH2 0x225 JUMP JUMPDEST PUSH0 DUP2 SWAP1 SSTORE POP POP JUMP JUMPDEST PUSH0 SLOAD DUP2 JUMP JUMPDEST PUSH1 0x2 DUP2 PUSH2 0xE9 SWAP2 SWAP1 PUSH2 0x258 JUMP JUMPDEST PUSH0 DUP2 SWAP1 SSTORE POP POP JUMP JUMPDEST PUSH1 0x1 PUSH0 SWAP1 SLOAD SWAP1 PUSH2 0x100 EXP SWAP1 DIV PUSH20 0xFFFFFFFFFFFFFFFFFFFFFFFFFFFFFFFFFFFFFFFF AND DUP2 JUMP JUMPDEST PUSH0 PUSH0 REVERT JUMPDEST PUSH0 DUP2 SWAP1 POP SWAP2 SWAP1 POP JUMP JUMPDEST PUSH2 0x12C DUP2 PUSH2 0x11A JUMP JUMPDEST DUP2 EQ PUSH2 0x136 JUMPI PUSH0 PUSH0 REVERT JUMPDEST POP JUMP JUMPDEST PUSH0 DUP2 CALLDATALOAD SWAP1 POP PUSH2 0x147 DUP2 PUSH2 0x123 JUMP JUMPDEST SWAP3 SWAP2 POP POP JUMP JUMPDEST PUSH0 PUSH1 0x20 DUP3 DUP5 SUB SLT ISZERO PUSH2 0x162 JUMPI PUSH2 0x161 PUSH2 0x116 JUMP JUMPDEST JUMPDEST PUSH0 PUSH2 0x16F DUP5 DUP3 DUP6 ADD PUSH2 0x139 JUMP JUMPDEST SWAP2 POP POP SWAP3 SWAP2 POP POP JUMP JUMPDEST PUSH2 0x181 DUP2 PUSH2 0x11A JUMP JUMPDEST DUP3 MSTORE POP POP JUMP JUMPDEST PUSH0 PUSH1 0x20 DUP3 ADD SWAP1 POP PUSH2 0x19A PUSH0 DUP4 ADD DUP5 PUSH2 0x178 JUMP JUMPDEST SWAP3 SWAP2 POP POP JUMP JUMPDEST PUSH0 PUSH20 0xFFFFFFFFFFFFFFFFFFFFFFFFFFFFFFFFFFFFFFFF DUP3 AND SWAP1 POP SWAP2 SWAP1 POP JUMP JUMPDEST PUSH0 PUSH2 0x1C9 DUP3 PUSH2 0x1A0 JUMP JUMPDEST SWAP1 POP SWAP2 SWAP1 POP JUMP JUMPDEST PUSH2 0x1D9 DUP2 PUSH2 0x1BF JUMP JUMPDEST DUP3 MSTORE POP POP JUMP JUMPDEST PUSH0 PUSH1 0x20 DUP3 ADD SWAP1 POP PUSH2 0x1F2 PUSH0 DUP4 ADD DUP5 PUSH2 0x1D0 JUMP JUMPDEST SWAP3 SWAP2 POP POP JUMP JUMPDEST PUSH32 0x4E487B7100000000000000000000000000000000000000000000000000000000 PUSH0 MSTORE PUSH1 0x11 PUSH1 0x4 MSTORE PUSH1 0x24 PUSH0 REVERT JUMPDEST PUSH0 PUSH2 0x22F DUP3 PUSH2 0x11A JUMP JUMPDEST SWAP2 POP PUSH2 0x23A DUP4 PUSH2 0x11A JUMP JUMPDEST SWAP3 POP DUP3 DUP3 ADD SWAP1 POP DUP1 DUP3 GT ISZERO PUSH2 0x252 JUMPI PUSH2 0x251 PUSH2 0x1F8 JUMP JUMPDEST JUMPDEST SWAP3 SWAP2 POP POP JUMP JUMPDEST PUSH0 PUSH2 0x262 DUP3 PUSH2 0x11A JUMP JUMPDEST SWAP2 POP PUSH2 0x26D DUP4 PUSH2 0x11A JUMP JUMPDEST SWAP3 POP DUP3 DUP3 MUL PUSH2 0x27B DUP2 PUSH2 0x11A JUMP JUMPDEST SWAP2 POP DUP3 DUP3 DIV DUP5 EQ DUP4 ISZERO OR PUSH2 0x292 JUMPI PUSH2 0x291 PUSH2 0x1F8 JUMP JUMPDEST JUMPDEST POP SWAP3 SWAP2 POP POP JUMP INVALID LOG2 PUSH5 0x6970667358 0x22 SLT KECCAK256 COINBASE CALLF 0xAD2 PUSH11 0x79C381F0D7AF2A518FEBA0 PUSH15 0x4EB1B48F0FB7C5163B8210D9259D45 PUSH5 0x736F6C6343 STOP ADDMOD 0x22 STOP CALLER "
				},
				"gasEstimates": {
					"creation": {
						"codeDepositCost": "143800",
						"executionCost": "188",
						"totalCost": "143988"
					},
					"external": {
						"owner()": "2552",
						"setValue(uint256)": "infinite",
						"setValueIncrement(uint256)": "infinite",
						"value()": "2424"
					}
				},
				"methodIdentifiers": {
					"owner()": "8da5cb5b",
					"setValue(uint256)": "55241077",
					"setValueIncrement(uint256)": "3956de47",
					"value()": "3fa4f245"
				}
			},
			"storageLayout": {
				"storage": [
					{
						"astId": 28,
						"contract": "test83.sol:LogicV2",
						"label": "value",
						"offset": 0,
						"slot": "0",
						"type": "t_uint256"
					},
					{
						"astId": 30,
						"contract": "test83.sol:LogicV2",
						"label": "owner",
						"offset": 0,
						"slot": "1",
						"type": "t_address"
					}
				],
				"types": {
					"t_address": {
						"encoding": "inplace",
						"label": "address",
						"numberOfBytes": "20"
					},
					"t_uint256": {
						"encoding": "inplace",
						"label": "uint256",
						"numberOfBytes": "32"
					}
				}
			},
			"userdoc": {
				"kind": "user",
				"methods": {},
				"version": 1
			}
		}
	}
}