{
	"test56.sol": {
		"VictimBank": {
			"abi": [
				{
					"anonymous": false,
					"inputs": [
						{
							"indexed": true,
							"internalType": "address",
							"name": "user",
							"type": "address"
						},
						{
							"indexed": false,
							"internalType": "uint256",
							"name": "amount",
							"type": "uint256"
						}
					],
					"name": "Deposit",
					"type": "event"
				},
				{
					"anonymous": false,
					"inputs": [
						{
							"indexed": true,
							"internalType": "address",
							"name": "attacker",
							"type": "address"
						}
					],
					"name": "ReentrancyBlocked",
					"type": "event"
				},
				{
					"anonymous": false,
					"inputs": [
						{
							"indexed": true,
							"internalType": "address",
							"name": "user",
							"type": "address"
						},
						{
							"indexed": false,
							"internalType": "uint256",
							"name": "amount",
							"type": "uint256"
						},
						{
							"indexed": false,
							"internalType": "string",
							"name": "method",
							"type": "string"
						}
					],
					"name": "Withdraw",
					"type": "event"
				},
				{
					"inputs": [
						{
							"internalType": "address",
							"name": "",
							"type": "address"
						}
					],
					"name": "balances",
					"outputs": [
						{
							"internalType": "uint256",
							"name": "",
							"type": "uint256"
						}
					],
					"stateMutability": "view",
					"type": "function"
				},
				{
					"inputs": [],
					"name": "compareExecutions",
					"outputs": [
						{
							"internalType": "uint256",
							"name": "safeExecutions",
							"type": "uint256"
						},
						{
							"internalType": "uint256",
							"name": "patchedExecutions",
							"type": "uint256"
						}
					],
					"stateMutability": "view",
					"type": "function"
				},
				{
					"inputs": [],
					"name": "contractBalance",
					"outputs": [
						{
							"internalType": "uint256",
							"name": "",
							"type": "uint256"
						}
					],
					"stateMutability": "view",
					"type": "function"
				},
				{
					"inputs": [],
					"name": "deposit",
					"outputs": [],
					"stateMutability": "payable",
					"type": "function"
				},
				{
					"inputs": [
						{
							"internalType": "uint256",
							"name": "_amount",
							"type": "uint256"
						}
					],
					"name": "safeWithdraw",
					"outputs": [],
					"stateMutability": "nonpayable",
					"type": "function"
				},
				{
					"inputs": [],
					"name": "safeWithdrawCounter",
					"outputs": [
						{
							"internalType": "uint256",
							"name": "",
							"type": "uint256"
						}
					],
					"stateMutability": "view",
					"type": "function"
				},
				{
					"inputs": [
						{
							"internalType": "uint256",
							"name": "_amount",
							"type": "uint256"
						}
					],
					"name": "vulnerableWithdraw",
					"outputs": [],
					"stateMutability": "nonpayable",
					"type": "function"
				},
				{
					"inputs": [],
					"name": "vulnerableWithdrawCounter",
					"outputs": [
						{
							"internalType": "uint256",
							"name": "",
							"type": "uint256"
						}
					],
					"stateMutability": "view",
					"type": "function"
				}
			],
			"devdoc": {
				"kind": "dev",
				"methods": {},
				"version": 1
			},
			"evm": {
				"assembly": "    /* \"test56.sol\":14903:19220  contract VictimBank {... */\n  mstore(0x40, 0x80)\n  callvalue\n  dup1\n  iszero\n  tag_1\n  jumpi\n  revert(0x00, 0x00)\ntag_1:\n  pop\n  dataSize(sub_0)\n  dup1\n  dataOffset(sub_0)\n  0x00\n  codecopy\n  0x00\n  return\nstop\n\nsub_0: assembly {\n        /* \"test56.sol\":14903:19220  contract VictimBank {... */\n      mstore(0x40, 0x80)\n      jumpi(tag_1, lt(calldatasize, 0x04))\n      shr(0xe0, calldataload(0x00))\n      dup1\n      0xb0fd035b\n      gt\n      tag_10\n      jumpi\n      dup1\n      0xb0fd035b\n      eq\n      tag_6\n      jumpi\n      dup1\n      0xcc817673\n      eq\n      tag_7\n      jumpi\n      dup1\n      0xd0e30db0\n      eq\n      tag_8\n      jumpi\n      dup1\n      0xece739e6\n      eq\n      tag_9\n      jumpi\n      jump(tag_1)\n    tag_10:\n      dup1\n      0x27e235e3\n      eq\n      tag_2\n      jumpi\n      dup1\n      0x82c49321\n      eq\n      tag_3\n      jumpi\n      dup1\n      0x84b4c56c\n      eq\n      tag_4\n      jumpi\n      dup1\n      0x8b7afe2e\n      eq\n      tag_5\n      jumpi\n    tag_1:\n      revert(0x00, 0x00)\n        /* \"test56.sol\":15081:15124  mapping(address => uint256) public balances */\n    tag_2:\n      callvalue\n      dup1\n      iszero\n      tag_11\n      jumpi\n      revert(0x00, 0x00)\n    tag_11:\n      pop\n      tag_12\n      0x04\n      dup1\n      calldatasize\n      sub\n      dup2\n      add\n      swap1\n      tag_13\n      swap2\n      swap1\n      tag_14\n      jump\t// in\n    tag_13:\n      tag_15\n      jump\t// in\n    tag_12:\n      mload(0x40)\n      tag_16\n      swap2\n      swap1\n      tag_17\n      jump\t// in\n    tag_16:\n      mload(0x40)\n      dup1\n      swap2\n      sub\n      swap1\n      return\n        /* \"test56.sol\":15291:15331  uint256 public vulnerableWithdrawCounter */\n    tag_3:\n      callvalue\n      dup1\n      iszero\n      tag_18\n      jumpi\n      revert(0x00, 0x00)\n    tag_18:\n      pop\n      tag_19\n      tag_20\n      jump\t// in\n    tag_19:\n      mload(0x40)\n      tag_21\n      swap2\n      swap1\n      tag_17\n      jump\t// in\n    tag_21:\n      mload(0x40)\n      dup1\n      swap2\n      sub\n      swap1\n      return\n        /* \"test56.sol\":15248:15282  uint256 public safeWithdrawCounter */\n    tag_4:\n      callvalue\n      dup1\n      iszero\n      tag_22\n      jumpi\n      revert(0x00, 0x00)\n    tag_22:\n      pop\n      tag_23\n      tag_24\n      jump\t// in\n    tag_23:\n      mload(0x40)\n      tag_25\n      swap2\n      swap1\n      tag_17\n      jump\t// in\n    tag_25:\n      mload(0x40)\n      dup1\n      swap2\n      sub\n      swap1\n      return\n        /* \"test56.sol\":19077:19217  function contractBalance()... */\n    tag_5:\n      callvalue\n      dup1\n      iszero\n      tag_26\n      jumpi\n      revert(0x00, 0x00)\n    tag_26:\n      pop\n      tag_27\n      tag_28\n      jump\t// in\n    tag_27:\n      mload(0x40)\n      tag_29\n      swap2\n      swap1\n      tag_17\n      jump\t// in\n    tag_29:\n      mload(0x40)\n      dup1\n      swap2\n      sub\n      swap1\n      return\n        /* \"test56.sol\":16720:17477  function safeWithdraw(... */\n    tag_6:\n      callvalue\n      dup1\n      iszero\n      tag_30\n      jumpi\n      revert(0x00, 0x00)\n    tag_30:\n      pop\n      tag_31\n      0x04\n      dup1\n      calldatasize\n      sub\n      dup2\n      add\n      swap1\n      tag_32\n      swap2\n      swap1\n      tag_33\n      jump\t// in\n    tag_32:\n      tag_34\n      jump\t// in\n    tag_31:\n      stop\n        /* \"test56.sol\":17654:18458  function vulnerableWithdraw(... */\n    tag_7:\n      callvalue\n      dup1\n      iszero\n      tag_35\n      jumpi\n      revert(0x00, 0x00)\n    tag_35:\n      pop\n      tag_36\n      0x04\n      dup1\n      calldatasize\n      sub\n      dup2\n      add\n      swap1\n      tag_37\n      swap2\n      swap1\n      tag_33\n      jump\t// in\n    tag_37:\n      tag_38\n      jump\t// in\n    tag_36:\n      stop\n        /* \"test56.sol\":16270:16557  function deposit()... */\n    tag_8:\n      tag_39\n      tag_40\n      jump\t// in\n    tag_39:\n      stop\n        /* \"test56.sol\":18626:18911  function compareExecutions()... */\n    tag_9:\n      callvalue\n      dup1\n      iszero\n      tag_41\n      jumpi\n      revert(0x00, 0x00)\n    tag_41:\n      pop\n      tag_42\n      tag_43\n      jump\t// in\n    tag_42:\n      mload(0x40)\n      tag_44\n      swap3\n      swap2\n      swap1\n      tag_45\n      jump\t// in\n    tag_44:\n      mload(0x40)\n      dup1\n      swap2\n      sub\n      swap1\n      return\n        /* \"test56.sol\":15081:15124  mapping(address => uint256) public balances */\n    tag_15:\n      mstore(0x20, 0x00)\n      dup1\n      0x00\n      mstore\n      keccak256(0x00, 0x40)\n      0x00\n      swap2\n      pop\n      swap1\n      pop\n      sload\n      dup2\n      jump\t// out\n        /* \"test56.sol\":15291:15331  uint256 public vulnerableWithdrawCounter */\n    tag_20:\n      sload(0x03)\n      dup2\n      jump\t// out\n        /* \"test56.sol\":15248:15282  uint256 public safeWithdrawCounter */\n    tag_24:\n      sload(0x02)\n      dup2\n      jump\t// out\n        /* \"test56.sol\":19077:19217  function contractBalance()... */\n    tag_28:\n        /* \"test56.sol\":19154:19161  uint256 */\n      0x00\n        /* \"test56.sol\":19188:19209  address(this).balance */\n      selfbalance\n        /* \"test56.sol\":19181:19209  return address(this).balance */\n      swap1\n      pop\n        /* \"test56.sol\":19077:19217  function contractBalance()... */\n      swap1\n      jump\t// out\n        /* \"test56.sol\":16720:17477  function safeWithdraw(... */\n    tag_34:\n        /* \"test56.sol\":15981:15987  locked */\n      0x01\n      0x00\n      swap1\n      sload\n      swap1\n      0x0100\n      exp\n      swap1\n      div\n      0xff\n      and\n        /* \"test56.sol\":15980:15987  !locked */\n      iszero\n        /* \"test56.sol\":15958:16034  require(... */\n      tag_48\n      jumpi\n      mload(0x40)\n      0x08c379a000000000000000000000000000000000000000000000000000000000\n      dup2\n      mstore\n      0x04\n      add\n      tag_49\n      swap1\n      tag_50\n      jump\t// in\n    tag_49:\n      mload(0x40)\n      dup1\n      swap2\n      sub\n      swap1\n      revert\n    tag_48:\n        /* \"test56.sol\":16056:16060  true */\n      0x01\n        /* \"test56.sol\":16047:16053  locked */\n      dup1\n      0x00\n        /* \"test56.sol\":16047:16060  locked = true */\n      0x0100\n      exp\n      dup2\n      sload\n      dup2\n      0xff\n      mul\n      not\n      and\n      swap1\n      dup4\n      iszero\n      iszero\n      mul\n      or\n      swap1\n      sstore\n      pop\n        /* \"test56.sol\":16923:16930  _amount */\n      dup1\n        /* \"test56.sol\":16899:16907  balances */\n      0x00\n        /* \"test56.sol\":16899:16919  balances[msg.sender] */\n      0x00\n        /* \"test56.sol\":16908:16918  msg.sender */\n      caller\n        /* \"test56.sol\":16899:16919  balances[msg.sender] */\n      0xffffffffffffffffffffffffffffffffffffffff\n      and\n      0xffffffffffffffffffffffffffffffffffffffff\n      and\n      dup2\n      mstore\n      0x20\n      add\n      swap1\n      dup2\n      mstore\n      0x20\n      add\n      0x00\n      keccak256\n      sload\n        /* \"test56.sol\":16899:16930  balances[msg.sender] >= _amount */\n      lt\n      iszero\n        /* \"test56.sol\":16877:16978  require(... */\n      tag_52\n      jumpi\n      mload(0x40)\n      0x08c379a000000000000000000000000000000000000000000000000000000000\n      dup2\n      mstore\n      0x04\n      add\n      tag_53\n      swap1\n      tag_54\n      jump\t// in\n    tag_53:\n      mload(0x40)\n      dup1\n      swap2\n      sub\n      swap1\n      revert\n    tag_52:\n        /* \"test56.sol\":17060:17067  _amount */\n      dup1\n        /* \"test56.sol\":17036:17044  balances */\n      0x00\n        /* \"test56.sol\":17036:17056  balances[msg.sender] */\n      0x00\n        /* \"test56.sol\":17045:17055  msg.sender */\n      caller\n        /* \"test56.sol\":17036:17056  balances[msg.sender] */\n      0xffffffffffffffffffffffffffffffffffffffff\n      and\n      0xffffffffffffffffffffffffffffffffffffffff\n      and\n      dup2\n      mstore\n      0x20\n      add\n      swap1\n      dup2\n      mstore\n      0x20\n      add\n      0x00\n      keccak256\n      0x00\n        /* \"test56.sol\":17036:17067  balances[msg.sender] -= _amount */\n      dup3\n      dup3\n      sload\n      tag_55\n      swap2\n      swap1\n      tag_56\n      jump\t// in\n    tag_55:\n      swap3\n      pop\n      pop\n      dup2\n      swap1\n      sstore\n      pop\n        /* \"test56.sol\":17080:17099  safeWithdrawCounter */\n      0x02\n      0x00\n        /* \"test56.sol\":17080:17101  safeWithdrawCounter++ */\n      dup2\n      sload\n      dup1\n      swap3\n      swap2\n      swap1\n      tag_57\n      swap1\n      tag_58\n      jump\t// in\n    tag_57:\n      swap2\n      swap1\n      pop\n      sstore\n      pop\n        /* \"test56.sol\":17164:17176  bool success */\n      0x00\n        /* \"test56.sol\":17203:17213  msg.sender */\n      caller\n        /* \"test56.sol\":17195:17219  payable(msg.sender).call */\n      0xffffffffffffffffffffffffffffffffffffffff\n      and\n        /* \"test56.sol\":17245:17252  _amount */\n      dup3\n        /* \"test56.sol\":17195:17271  payable(msg.sender).call{... */\n      mload(0x40)\n      tag_59\n      swap1\n      tag_60\n      jump\t// in\n    tag_59:\n      0x00\n      mload(0x40)\n      dup1\n      dup4\n      sub\n      dup2\n      dup6\n      dup8\n      gas\n      call\n      swap3\n      pop\n      pop\n      pop\n      returndatasize\n      dup1\n      0x00\n      dup2\n      eq\n      tag_63\n      jumpi\n      mload(0x40)\n      swap2\n      pop\n      and(add(returndatasize, 0x3f), not(0x1f))\n      dup3\n      add\n      0x40\n      mstore\n      returndatasize\n      dup3\n      mstore\n      returndatasize\n      0x00\n      0x20\n      dup5\n      add\n      returndatacopy\n      jump(tag_62)\n    tag_63:\n      0x60\n      swap2\n      pop\n    tag_62:\n      pop\n        /* \"test56.sol\":17163:17271  (bool success, ) =... */\n      pop\n      swap1\n      pop\n        /* \"test56.sol\":17306:17313  success */\n      dup1\n        /* \"test56.sol\":17284:17356  require(... */\n      tag_64\n      jumpi\n      mload(0x40)\n      0x08c379a000000000000000000000000000000000000000000000000000000000\n      dup2\n      mstore\n      0x04\n      add\n      tag_65\n      swap1\n      tag_66\n      jump\t// in\n    tag_65:\n      mload(0x40)\n      dup1\n      swap2\n      sub\n      swap1\n      revert\n    tag_64:\n        /* \"test56.sol\":17397:17407  msg.sender */\n      caller\n        /* \"test56.sol\":17374:17469  Withdraw(... */\n      0xffffffffffffffffffffffffffffffffffffffff\n      and\n      0x485f1bb6524c663555797e00171a10f341656e59b02d6b557a0a38ba7d5d9751\n        /* \"test56.sol\":17422:17429  _amount */\n      dup4\n        /* \"test56.sol\":17374:17469  Withdraw(... */\n      mload(0x40)\n      tag_67\n      swap2\n      swap1\n      tag_68\n      jump\t// in\n    tag_67:\n      mload(0x40)\n      dup1\n      swap2\n      sub\n      swap1\n      log2\n        /* \"test56.sol\":16820:17477  {... */\n      pop\n        /* \"test56.sol\":16096:16101  false */\n      0x00\n        /* \"test56.sol\":16087:16093  locked */\n      0x01\n      0x00\n        /* \"test56.sol\":16087:16101  locked = false */\n      0x0100\n      exp\n      dup2\n      sload\n      dup2\n      0xff\n      mul\n      not\n      and\n      swap1\n      dup4\n      iszero\n      iszero\n      mul\n      or\n      swap1\n      sstore\n      pop\n        /* \"test56.sol\":16720:17477  function safeWithdraw(... */\n      pop\n      jump\t// out\n        /* \"test56.sol\":17654:18458  function vulnerableWithdraw(... */\n    tag_38:\n        /* \"test56.sol\":15981:15987  locked */\n      0x01\n      0x00\n      swap1\n      sload\n      swap1\n      0x0100\n      exp\n      swap1\n      div\n      0xff\n      and\n        /* \"test56.sol\":15980:15987  !locked */\n      iszero\n        /* \"test56.sol\":15958:16034  require(... */\n      tag_70\n      jumpi\n      mload(0x40)\n      0x08c379a000000000000000000000000000000000000000000000000000000000\n      dup2\n      mstore\n      0x04\n      add\n      tag_71\n      swap1\n      tag_50\n      jump\t// in\n    tag_71:\n      mload(0x40)\n      dup1\n      swap2\n      sub\n      swap1\n      revert\n    tag_70:\n        /* \"test56.sol\":16056:16060  true */\n      0x01\n        /* \"test56.sol\":16047:16053  locked */\n      dup1\n      0x00\n        /* \"test56.sol\":16047:16060  locked = true */\n      0x0100\n      exp\n      dup2\n      sload\n      dup2\n      0xff\n      mul\n      not\n      and\n      swap1\n      dup4\n      iszero\n      iszero\n      mul\n      or\n      swap1\n      sstore\n      pop\n        /* \"test56.sol\":17863:17870  _amount */\n      dup1\n        /* \"test56.sol\":17839:17847  balances */\n      0x00\n        /* \"test56.sol\":17839:17859  balances[msg.sender] */\n      0x00\n        /* \"test56.sol\":17848:17858  msg.sender */\n      caller\n        /* \"test56.sol\":17839:17859  balances[msg.sender] */\n      0xffffffffffffffffffffffffffffffffffffffff\n      and\n      0xffffffffffffffffffffffffffffffffffffffff\n      and\n      dup2\n      mstore\n      0x20\n      add\n      swap1\n      dup2\n      mstore\n      0x20\n      add\n      0x00\n      keccak256\n      sload\n        /* \"test56.sol\":17839:17870  balances[msg.sender] >= _amount */\n      lt\n      iszero\n        /* \"test56.sol\":17817:17918  require(... */\n      tag_73\n      jumpi\n      mload(0x40)\n      0x08c379a000000000000000000000000000000000000000000000000000000000\n      dup2\n      mstore\n      0x04\n      add\n      tag_74\n      swap1\n      tag_54\n      jump\t// in\n    tag_74:\n      mload(0x40)\n      dup1\n      swap2\n      sub\n      swap1\n      revert\n    tag_73:\n        /* \"test56.sol\":18027:18034  _amount */\n      dup1\n        /* \"test56.sol\":18003:18011  balances */\n      0x00\n        /* \"test56.sol\":18003:18023  balances[msg.sender] */\n      0x00\n        /* \"test56.sol\":18012:18022  msg.sender */\n      caller\n        /* \"test56.sol\":18003:18023  balances[msg.sender] */\n      0xffffffffffffffffffffffffffffffffffffffff\n      and\n      0xffffffffffffffffffffffffffffffffffffffff\n      and\n      dup2\n      mstore\n      0x20\n      add\n      swap1\n      dup2\n      mstore\n      0x20\n      add\n      0x00\n      keccak256\n      0x00\n        /* \"test56.sol\":18003:18034  balances[msg.sender] -= _amount */\n      dup3\n      dup3\n      sload\n      tag_75\n      swap2\n      swap1\n      tag_56\n      jump\t// in\n    tag_75:\n      swap3\n      pop\n      pop\n      dup2\n      swap1\n      sstore\n      pop\n        /* \"test56.sol\":18047:18072  vulnerableWithdrawCounter */\n      0x03\n      0x00\n        /* \"test56.sol\":18047:18074  vulnerableWithdrawCounter++ */\n      dup2\n      sload\n      dup1\n      swap3\n      swap2\n      swap1\n      tag_76\n      swap1\n      tag_58\n      jump\t// in\n    tag_76:\n      swap2\n      swap1\n      pop\n      sstore\n      pop\n        /* \"test56.sol\":18142:18154  bool success */\n      0x00\n        /* \"test56.sol\":18181:18191  msg.sender */\n      caller\n        /* \"test56.sol\":18173:18197  payable(msg.sender).call */\n      0xffffffffffffffffffffffffffffffffffffffff\n      and\n        /* \"test56.sol\":18223:18230  _amount */\n      dup3\n        /* \"test56.sol\":18173:18249  payable(msg.sender).call{... */\n      mload(0x40)\n      tag_77\n      swap1\n      tag_60\n      jump\t// in\n    tag_77:\n      0x00\n      mload(0x40)\n      dup1\n      dup4\n      sub\n      dup2\n      dup6\n      dup8\n      gas\n      call\n      swap3\n      pop\n      pop\n      pop\n      returndatasize\n      dup1\n      0x00\n      dup2\n      eq\n      tag_80\n      jumpi\n      mload(0x40)\n      swap2\n      pop\n      and(add(returndatasize, 0x3f), not(0x1f))\n      dup3\n      add\n      0x40\n      mstore\n      returndatasize\n      dup3\n      mstore\n      returndatasize\n      0x00\n      0x20\n      dup5\n      add\n      returndatacopy\n      jump(tag_79)\n    tag_80:\n      0x60\n      swap2\n      pop\n    tag_79:\n      pop\n        /* \"test56.sol\":18141:18249  (bool success, ) =... */\n      pop\n      swap1\n      pop\n        /* \"test56.sol\":18284:18291  success */\n      dup1\n        /* \"test56.sol\":18262:18334  require(... */\n      tag_81\n      jumpi\n      mload(0x40)\n      0x08c379a000000000000000000000000000000000000000000000000000000000\n      dup2\n      mstore\n      0x04\n      add\n      tag_82\n      swap1\n      tag_66\n      jump\t// in\n    tag_82:\n      mload(0x40)\n      dup1\n      swap2\n      sub\n      swap1\n      revert\n    tag_81:\n        /* \"test56.sol\":18375:18385  msg.sender */\n      caller\n        /* \"test56.sol\":18352:18450  Withdraw(... */\n      0xffffffffffffffffffffffffffffffffffffffff\n      and\n      0x485f1bb6524c663555797e00171a10f341656e59b02d6b557a0a38ba7d5d9751\n        /* \"test56.sol\":18400:18407  _amount */\n      dup4\n        /* \"test56.sol\":18352:18450  Withdraw(... */\n      mload(0x40)\n      tag_83\n      swap2\n      swap1\n      tag_84\n      jump\t// in\n    tag_83:\n      mload(0x40)\n      dup1\n      swap2\n      sub\n      swap1\n      log2\n        /* \"test56.sol\":17760:18458  {... */\n      pop\n        /* \"test56.sol\":16096:16101  false */\n      0x00\n        /* \"test56.sol\":16087:16093  locked */\n      0x01\n      0x00\n        /* \"test56.sol\":16087:16101  locked = false */\n      0x0100\n      exp\n      dup2\n      sload\n      dup2\n      0xff\n      mul\n      not\n      and\n      swap1\n      dup4\n      iszero\n      iszero\n      mul\n      or\n      swap1\n      sstore\n      pop\n        /* \"test56.sol\":17654:18458  function vulnerableWithdraw(... */\n      pop\n      jump\t// out\n        /* \"test56.sol\":16270:16557  function deposit()... */\n    tag_40:\n        /* \"test56.sol\":16376:16377  0 */\n      0x00\n        /* \"test56.sol\":16364:16373  msg.value */\n      callvalue\n        /* \"test56.sol\":16364:16377  msg.value > 0 */\n      gt\n        /* \"test56.sol\":16342:16418  require(... */\n      tag_86\n      jumpi\n      mload(0x40)\n      0x08c379a000000000000000000000000000000000000000000000000000000000\n      dup2\n      mstore\n      0x04\n      add\n      tag_87\n      swap1\n      tag_88\n      jump\t// in\n    tag_87:\n      mload(0x40)\n      dup1\n      swap2\n      sub\n      swap1\n      revert\n    tag_86:\n        /* \"test56.sol\":16455:16464  msg.value */\n      callvalue\n        /* \"test56.sol\":16431:16439  balances */\n      0x00\n        /* \"test56.sol\":16431:16451  balances[msg.sender] */\n      0x00\n        /* \"test56.sol\":16440:16450  msg.sender */\n      caller\n        /* \"test56.sol\":16431:16451  balances[msg.sender] */\n      0xffffffffffffffffffffffffffffffffffffffff\n      and\n      0xffffffffffffffffffffffffffffffffffffffff\n      and\n      dup2\n      mstore\n      0x20\n      add\n      swap1\n      dup2\n      mstore\n      0x20\n      add\n      0x00\n      keccak256\n      0x00\n        /* \"test56.sol\":16431:16464  balances[msg.sender] += msg.value */\n      dup3\n      dup3\n      sload\n      tag_89\n      swap2\n      swap1\n      tag_90\n      jump\t// in\n    tag_89:\n      swap3\n      pop\n      pop\n      dup2\n      swap1\n      sstore\n      pop\n        /* \"test56.sol\":16504:16514  msg.sender */\n      caller\n        /* \"test56.sol\":16482:16549  Deposit(... */\n      0xffffffffffffffffffffffffffffffffffffffff\n      and\n      0xe1fffcc4923d04b559f4d29a8bfc6cda04eb5b0d3c460751c2402c5c5cc9109c\n        /* \"test56.sol\":16529:16538  msg.value */\n      callvalue\n        /* \"test56.sol\":16482:16549  Deposit(... */\n      mload(0x40)\n      tag_91\n      swap2\n      swap1\n      tag_17\n      jump\t// in\n    tag_91:\n      mload(0x40)\n      dup1\n      swap2\n      sub\n      swap1\n      log2\n        /* \"test56.sol\":16270:16557  function deposit()... */\n      jump\t// out\n        /* \"test56.sol\":18626:18911  function compareExecutions()... */\n    tag_43:\n        /* \"test56.sol\":18719:18741  uint256 safeExecutions */\n      0x00\n        /* \"test56.sol\":18756:18781  uint256 patchedExecutions */\n      0x00\n        /* \"test56.sol\":18833:18852  safeWithdrawCounter */\n      sload(0x02)\n        /* \"test56.sol\":18867:18892  vulnerableWithdrawCounter */\n      sload(0x03)\n        /* \"test56.sol\":18811:18903  return (... */\n      swap2\n      pop\n      swap2\n      pop\n        /* \"test56.sol\":18626:18911  function compareExecutions()... */\n      swap1\n      swap2\n      jump\t// out\n        /* \"#utility.yul\":88:205   */\n    tag_94:\n        /* \"#utility.yul\":197:198   */\n      0x00\n        /* \"#utility.yul\":194:195   */\n      0x00\n        /* \"#utility.yul\":187:199   */\n      revert\n        /* \"#utility.yul\":334:460   */\n    tag_96:\n        /* \"#utility.yul\":371:378   */\n      0x00\n        /* \"#utility.yul\":411:453   */\n      0xffffffffffffffffffffffffffffffffffffffff\n        /* \"#utility.yul\":404:409   */\n      dup3\n        /* \"#utility.yul\":400:454   */\n      and\n        /* \"#utility.yul\":389:454   */\n      swap1\n      pop\n        /* \"#utility.yul\":334:460   */\n      swap2\n      swap1\n      pop\n      jump\t// out\n        /* \"#utility.yul\":466:562   */\n    tag_97:\n        /* \"#utility.yul\":503:510   */\n      0x00\n        /* \"#utility.yul\":532:556   */\n      tag_127\n        /* \"#utility.yul\":550:555   */\n      dup3\n        /* \"#utility.yul\":532:556   */\n      tag_96\n      jump\t// in\n    tag_127:\n        /* \"#utility.yul\":521:556   */\n      swap1\n      pop\n        /* \"#utility.yul\":466:562   */\n      swap2\n      swap1\n      pop\n      jump\t// out\n        /* \"#utility.yul\":568:690   */\n    tag_98:\n        /* \"#utility.yul\":641:665   */\n      tag_129\n        /* \"#utility.yul\":659:664   */\n      dup2\n        /* \"#utility.yul\":641:665   */\n      tag_97\n      jump\t// in\n    tag_129:\n        /* \"#utility.yul\":634:639   */\n      dup2\n        /* \"#utility.yul\":631:666   */\n      eq\n        /* \"#utility.yul\":621:684   */\n      tag_130\n      jumpi\n        /* \"#utility.yul\":680:681   */\n      0x00\n        /* \"#utility.yul\":677:678   */\n      0x00\n        /* \"#utility.yul\":670:682   */\n      revert\n        /* \"#utility.yul\":621:684   */\n    tag_130:\n        /* \"#utility.yul\":568:690   */\n      pop\n      jump\t// out\n        /* \"#utility.yul\":696:835   */\n    tag_99:\n        /* \"#utility.yul\":742:747   */\n      0x00\n        /* \"#utility.yul\":780:786   */\n      dup2\n        /* \"#utility.yul\":767:787   */\n      calldataload\n        /* \"#utility.yul\":758:787   */\n      swap1\n      pop\n        /* \"#utility.yul\":796:829   */\n      tag_132\n        /* \"#utility.yul\":823:828   */\n      dup2\n        /* \"#utility.yul\":796:829   */\n      tag_98\n      jump\t// in\n    tag_132:\n        /* \"#utility.yul\":696:835   */\n      swap3\n      swap2\n      pop\n      pop\n      jump\t// out\n        /* \"#utility.yul\":841:1170   */\n    tag_14:\n        /* \"#utility.yul\":900:906   */\n      0x00\n        /* \"#utility.yul\":949:951   */\n      0x20\n        /* \"#utility.yul\":937:946   */\n      dup3\n        /* \"#utility.yul\":928:935   */\n      dup5\n        /* \"#utility.yul\":924:947   */\n      sub\n        /* \"#utility.yul\":920:952   */\n      slt\n        /* \"#utility.yul\":917:1036   */\n      iszero\n      tag_134\n      jumpi\n        /* \"#utility.yul\":955:1034   */\n      tag_135\n      tag_94\n      jump\t// in\n    tag_135:\n        /* \"#utility.yul\":917:1036   */\n    tag_134:\n        /* \"#utility.yul\":1075:1076   */\n      0x00\n        /* \"#utility.yul\":1100:1153   */\n      tag_136\n        /* \"#utility.yul\":1145:1152   */\n      dup5\n        /* \"#utility.yul\":1136:1142   */\n      dup3\n        /* \"#utility.yul\":1125:1134   */\n      dup6\n        /* \"#utility.yul\":1121:1143   */\n      add\n        /* \"#utility.yul\":1100:1153   */\n      tag_99\n      jump\t// in\n    tag_136:\n        /* \"#utility.yul\":1090:1153   */\n      swap2\n      pop\n        /* \"#utility.yul\":1046:1163   */\n      pop\n        /* \"#utility.yul\":841:1170   */\n      swap3\n      swap2\n      pop\n      pop\n      jump\t// out\n        /* \"#utility.yul\":1176:1253   */\n    tag_100:\n        /* \"#utility.yul\":1213:1220   */\n      0x00\n        /* \"#utility.yul\":1242:1247   */\n      dup2\n        /* \"#utility.yul\":1231:1247   */\n      swap1\n      pop\n        /* \"#utility.yul\":1176:1253   */\n      swap2\n      swap1\n      pop\n      jump\t// out\n        /* \"#utility.yul\":1259:1377   */\n    tag_101:\n        /* \"#utility.yul\":1346:1370   */\n      tag_139\n        /* \"#utility.yul\":1364:1369   */\n      dup2\n        /* \"#utility.yul\":1346:1370   */\n      tag_100\n      jump\t// in\n    tag_139:\n        /* \"#utility.yul\":1341:1344   */\n      dup3\n        /* \"#utility.yul\":1334:1371   */\n      mstore\n        /* \"#utility.yul\":1259:1377   */\n      pop\n      pop\n      jump\t// out\n        /* \"#utility.yul\":1383:1605   */\n    tag_17:\n        /* \"#utility.yul\":1476:1480   */\n      0x00\n        /* \"#utility.yul\":1514:1516   */\n      0x20\n        /* \"#utility.yul\":1503:1512   */\n      dup3\n        /* \"#utility.yul\":1499:1517   */\n      add\n        /* \"#utility.yul\":1491:1517   */\n      swap1\n      pop\n        /* \"#utility.yul\":1527:1598   */\n      tag_141\n        /* \"#utility.yul\":1595:1596   */\n      0x00\n        /* \"#utility.yul\":1584:1593   */\n      dup4\n        /* \"#utility.yul\":1580:1597   */\n      add\n        /* \"#utility.yul\":1571:1577   */\n      dup5\n        /* \"#utility.yul\":1527:1598   */\n      tag_101\n      jump\t// in\n    tag_141:\n        /* \"#utility.yul\":1383:1605   */\n      swap3\n      swap2\n      pop\n      pop\n      jump\t// out\n        /* \"#utility.yul\":1611:1733   */\n    tag_102:\n        /* \"#utility.yul\":1684:1708   */\n      tag_143\n        /* \"#utility.yul\":1702:1707   */\n      dup2\n        /* \"#utility.yul\":1684:1708   */\n      tag_100\n      jump\t// in\n    tag_143:\n        /* \"#utility.yul\":1677:1682   */\n      dup2\n        /* \"#utility.yul\":1674:1709   */\n      eq\n        /* \"#utility.yul\":1664:1727   */\n      tag_144\n      jumpi\n        /* \"#utility.yul\":1723:1724   */\n      0x00\n        /* \"#utility.yul\":1720:1721   */\n      0x00\n        /* \"#utility.yul\":1713:1725   */\n      revert\n        /* \"#utility.yul\":1664:1727   */\n    tag_144:\n        /* \"#utility.yul\":1611:1733   */\n      pop\n      jump\t// out\n        /* \"#utility.yul\":1739:1878   */\n    tag_103:\n        /* \"#utility.yul\":1785:1790   */\n      0x00\n        /* \"#utility.yul\":1823:1829   */\n      dup2\n        /* \"#utility.yul\":1810:1830   */\n      calldataload\n        /* \"#utility.yul\":1801:1830   */\n      swap1\n      pop\n        /* \"#utility.yul\":1839:1872   */\n      tag_146\n        /* \"#utility.yul\":1866:1871   */\n      dup2\n        /* \"#utility.yul\":1839:1872   */\n      tag_102\n      jump\t// in\n    tag_146:\n        /* \"#utility.yul\":1739:1878   */\n      swap3\n      swap2\n      pop\n      pop\n      jump\t// out\n        /* \"#utility.yul\":1884:2213   */\n    tag_33:\n        /* \"#utility.yul\":1943:1949   */\n      0x00\n        /* \"#utility.yul\":1992:1994   */\n      0x20\n        /* \"#utility.yul\":1980:1989   */\n      dup3\n        /* \"#utility.yul\":1971:1978   */\n      dup5\n        /* \"#utility.yul\":1967:1990   */\n      sub\n        /* \"#utility.yul\":1963:1995   */\n      slt\n        /* \"#utility.yul\":1960:2079   */\n      iszero\n      tag_148\n      jumpi\n        /* \"#utility.yul\":1998:2077   */\n      tag_149\n      tag_94\n      jump\t// in\n    tag_149:\n        /* \"#utility.yul\":1960:2079   */\n    tag_148:\n        /* \"#utility.yul\":2118:2119   */\n      0x00\n        /* \"#utility.yul\":2143:2196   */\n      tag_150\n        /* \"#utility.yul\":2188:2195   */\n      dup5\n        /* \"#utility.yul\":2179:2185   */\n      dup3\n        /* \"#utility.yul\":2168:2177   */\n      dup6\n        /* \"#utility.yul\":2164:2186   */\n      add\n        /* \"#utility.yul\":2143:2196   */\n      tag_103\n      jump\t// in\n    tag_150:\n        /* \"#utility.yul\":2133:2196   */\n      swap2\n      pop\n        /* \"#utility.yul\":2089:2206   */\n      pop\n        /* \"#utility.yul\":1884:2213   */\n      swap3\n      swap2\n      pop\n      pop\n      jump\t// out\n        /* \"#utility.yul\":2219:2551   */\n    tag_45:\n        /* \"#utility.yul\":2340:2344   */\n      0x00\n        /* \"#utility.yul\":2378:2380   */\n      0x40\n        /* \"#utility.yul\":2367:2376   */\n      dup3\n        /* \"#utility.yul\":2363:2381   */\n      add\n        /* \"#utility.yul\":2355:2381   */\n      swap1\n      pop\n        /* \"#utility.yul\":2391:2462   */\n      tag_152\n        /* \"#utility.yul\":2459:2460   */\n      0x00\n        /* \"#utility.yul\":2448:2457   */\n      dup4\n        /* \"#utility.yul\":2444:2461   */\n      add\n        /* \"#utility.yul\":2435:2441   */\n      dup6\n        /* \"#utility.yul\":2391:2462   */\n      tag_101\n      jump\t// in\n    tag_152:\n        /* \"#utility.yul\":2472:2544   */\n      tag_153\n        /* \"#utility.yul\":2540:2542   */\n      0x20\n        /* \"#utility.yul\":2529:2538   */\n      dup4\n        /* \"#utility.yul\":2525:2543   */\n      add\n        /* \"#utility.yul\":2516:2522   */\n      dup5\n        /* \"#utility.yul\":2472:2544   */\n      tag_101\n      jump\t// in\n    tag_153:\n        /* \"#utility.yul\":2219:2551   */\n      swap4\n      swap3\n      pop\n      pop\n      pop\n      jump\t// out\n        /* \"#utility.yul\":2557:2726   */\n    tag_104:\n        /* \"#utility.yul\":2641:2652   */\n      0x00\n        /* \"#utility.yul\":2675:2681   */\n      dup3\n        /* \"#utility.yul\":2670:2673   */\n      dup3\n        /* \"#utility.yul\":2663:2682   */\n      mstore\n        /* \"#utility.yul\":2715:2719   */\n      0x20\n        /* \"#utility.yul\":2710:2713   */\n      dup3\n        /* \"#utility.yul\":2706:2720   */\n      add\n        /* \"#utility.yul\":2691:2720   */\n      swap1\n      pop\n        /* \"#utility.yul\":2557:2726   */\n      swap3\n      swap2\n      pop\n      pop\n      jump\t// out\n        /* \"#utility.yul\":2732:2901   */\n    tag_105:\n        /* \"#utility.yul\":2872:2893   */\n      0x5265656e7472616e637920646574656374656400000000000000000000000000\n        /* \"#utility.yul\":2868:2869   */\n      0x00\n        /* \"#utility.yul\":2860:2866   */\n      dup3\n        /* \"#utility.yul\":2856:2870   */\n      add\n        /* \"#utility.yul\":2849:2894   */\n      mstore\n        /* \"#utility.yul\":2732:2901   */\n      pop\n      jump\t// out\n        /* \"#utility.yul\":2907:3273   */\n    tag_106:\n        /* \"#utility.yul\":3049:3052   */\n      0x00\n        /* \"#utility.yul\":3070:3137   */\n      tag_157\n        /* \"#utility.yul\":3134:3136   */\n      0x13\n        /* \"#utility.yul\":3129:3132   */\n      dup4\n        /* \"#utility.yul\":3070:3137   */\n      tag_104\n      jump\t// in\n    tag_157:\n        /* \"#utility.yul\":3063:3137   */\n      swap2\n      pop\n        /* \"#utility.yul\":3146:3239   */\n      tag_158\n        /* \"#utility.yul\":3235:3238   */\n      dup3\n        /* \"#utility.yul\":3146:3239   */\n      tag_105\n      jump\t// in\n    tag_158:\n        /* \"#utility.yul\":3264:3266   */\n      0x20\n        /* \"#utility.yul\":3259:3262   */\n      dup3\n        /* \"#utility.yul\":3255:3267   */\n      add\n        /* \"#utility.yul\":3248:3267   */\n      swap1\n      pop\n        /* \"#utility.yul\":2907:3273   */\n      swap2\n      swap1\n      pop\n      jump\t// out\n        /* \"#utility.yul\":3279:3698   */\n    tag_50:\n        /* \"#utility.yul\":3445:3449   */\n      0x00\n        /* \"#utility.yul\":3483:3485   */\n      0x20\n        /* \"#utility.yul\":3472:3481   */\n      dup3\n        /* \"#utility.yul\":3468:3486   */\n      add\n        /* \"#utility.yul\":3460:3486   */\n      swap1\n      pop\n        /* \"#utility.yul\":3532:3541   */\n      dup2\n        /* \"#utility.yul\":3526:3530   */\n      dup2\n        /* \"#utility.yul\":3522:3542   */\n      sub\n        /* \"#utility.yul\":3518:3519   */\n      0x00\n        /* \"#utility.yul\":3507:3516   */\n      dup4\n        /* \"#utility.yul\":3503:3520   */\n      add\n        /* \"#utility.yul\":3496:3543   */\n      mstore\n        /* \"#utility.yul\":3560:3691   */\n      tag_160\n        /* \"#utility.yul\":3686:3690   */\n      dup2\n        /* \"#utility.yul\":3560:3691   */\n      tag_106\n      jump\t// in\n    tag_160:\n        /* \"#utility.yul\":3552:3691   */\n      swap1\n      pop\n        /* \"#utility.yul\":3279:3698   */\n      swap2\n      swap1\n      pop\n      jump\t// out\n        /* \"#utility.yul\":3704:3874   */\n    tag_107:\n        /* \"#utility.yul\":3844:3866   */\n      0x496e73756666696369656e742062616c616e6365000000000000000000000000\n        /* \"#utility.yul\":3840:3841   */\n      0x00\n        /* \"#utility.yul\":3832:3838   */\n      dup3\n        /* \"#utility.yul\":3828:3842   */\n      add\n        /* \"#utility.yul\":3821:3867   */\n      mstore\n        /* \"#utility.yul\":3704:3874   */\n      pop\n      jump\t// out\n        /* \"#utility.yul\":3880:4246   */\n    tag_108:\n        /* \"#utility.yul\":4022:4025   */\n      0x00\n        /* \"#utility.yul\":4043:4110   */\n      tag_163\n        /* \"#utility.yul\":4107:4109   */\n      0x14\n        /* \"#utility.yul\":4102:4105   */\n      dup4\n        /* \"#utility.yul\":4043:4110   */\n      tag_104\n      jump\t// in\n    tag_163:\n        /* \"#utility.yul\":4036:4110   */\n      swap2\n      pop\n        /* \"#utility.yul\":4119:4212   */\n      tag_164\n        /* \"#utility.yul\":4208:4211   */\n      dup3\n        /* \"#utility.yul\":4119:4212   */\n      tag_107\n      jump\t// in\n    tag_164:\n        /* \"#utility.yul\":4237:4239   */\n      0x20\n        /* \"#utility.yul\":4232:4235   */\n      dup3\n        /* \"#utility.yul\":4228:4240   */\n      add\n        /* \"#utility.yul\":4221:4240   */\n      swap1\n      pop\n        /* \"#utility.yul\":3880:4246   */\n      swap2\n      swap1\n      pop\n      jump\t// out\n        /* \"#utility.yul\":4252:4671   */\n    tag_54:\n        /* \"#utility.yul\":4418:4422   */\n      0x00\n        /* \"#utility.yul\":4456:4458   */\n      0x20\n        /* \"#utility.yul\":4445:4454   */\n      dup3\n        /* \"#utility.yul\":4441:4459   */\n      add\n        /* \"#utility.yul\":4433:4459   */\n      swap1\n      pop\n        /* \"#utility.yul\":4505:4514   */\n      dup2\n        /* \"#utility.yul\":4499:4503   */\n      dup2\n        /* \"#utility.yul\":4495:4515   */\n      sub\n        /* \"#utility.yul\":4491:4492   */\n      0x00\n        /* \"#utility.yul\":4480:4489   */\n      dup4\n        /* \"#utility.yul\":4476:4493   */\n      add\n        /* \"#utility.yul\":4469:4516   */\n      mstore\n        /* \"#utility.yul\":4533:4664   */\n      tag_166\n        /* \"#utility.yul\":4659:4663   */\n      dup2\n        /* \"#utility.yul\":4533:4664   */\n      tag_108\n      jump\t// in\n    tag_166:\n        /* \"#utility.yul\":4525:4664   */\n      swap1\n      pop\n        /* \"#utility.yul\":4252:4671   */\n      swap2\n      swap1\n      pop\n      jump\t// out\n        /* \"#utility.yul\":4677:4857   */\n    tag_109:\n        /* \"#utility.yul\":4725:4802   */\n      0x4e487b7100000000000000000000000000000000000000000000000000000000\n        /* \"#utility.yul\":4722:4723   */\n      0x00\n        /* \"#utility.yul\":4715:4803   */\n      mstore\n        /* \"#utility.yul\":4822:4826   */\n      0x11\n        /* \"#utility.yul\":4819:4820   */\n      0x04\n        /* \"#utility.yul\":4812:4827   */\n      mstore\n        /* \"#utility.yul\":4846:4850   */\n      0x24\n        /* \"#utility.yul\":4843:4844   */\n      0x00\n        /* \"#utility.yul\":4836:4851   */\n      revert\n        /* \"#utility.yul\":4863:5057   */\n    tag_56:\n        /* \"#utility.yul\":4903:4907   */\n      0x00\n        /* \"#utility.yul\":4923:4943   */\n      tag_169\n        /* \"#utility.yul\":4941:4942   */\n      dup3\n        /* \"#utility.yul\":4923:4943   */\n      tag_100\n      jump\t// in\n    tag_169:\n        /* \"#utility.yul\":4918:4943   */\n      swap2\n      pop\n        /* \"#utility.yul\":4957:4977   */\n      tag_170\n        /* \"#utility.yul\":4975:4976   */\n      dup4\n        /* \"#utility.yul\":4957:4977   */\n      tag_100\n      jump\t// in\n    tag_170:\n        /* \"#utility.yul\":4952:4977   */\n      swap3\n      pop\n        /* \"#utility.yul\":5001:5002   */\n      dup3\n        /* \"#utility.yul\":4998:4999   */\n      dup3\n        /* \"#utility.yul\":4994:5003   */\n      sub\n        /* \"#utility.yul\":4986:5003   */\n      swap1\n      pop\n        /* \"#utility.yul\":5025:5026   */\n      dup2\n        /* \"#utility.yul\":5019:5023   */\n      dup2\n        /* \"#utility.yul\":5016:5027   */\n      gt\n        /* \"#utility.yul\":5013:5050   */\n      iszero\n      tag_171\n      jumpi\n        /* \"#utility.yul\":5030:5048   */\n      tag_172\n      tag_109\n      jump\t// in\n    tag_172:\n        /* \"#utility.yul\":5013:5050   */\n    tag_171:\n        /* \"#utility.yul\":4863:5057   */\n      swap3\n      swap2\n      pop\n      pop\n      jump\t// out\n        /* \"#utility.yul\":5063:5296   */\n    tag_58:\n        /* \"#utility.yul\":5102:5105   */\n      0x00\n        /* \"#utility.yul\":5125:5149   */\n      tag_174\n        /* \"#utility.yul\":5143:5148   */\n      dup3\n        /* \"#utility.yul\":5125:5149   */\n      tag_100\n      jump\t// in\n    tag_174:\n        /* \"#utility.yul\":5116:5149   */\n      swap2\n      pop\n        /* \"#utility.yul\":5171:5237   */\n      0xffffffffffffffffffffffffffffffffffffffffffffffffffffffffffffffff\n        /* \"#utility.yul\":5164:5169   */\n      dup3\n        /* \"#utility.yul\":5161:5238   */\n      sub\n        /* \"#utility.yul\":5158:5261   */\n      tag_175\n      jumpi\n        /* \"#utility.yul\":5241:5259   */\n      tag_176\n      tag_109\n      jump\t// in\n    tag_176:\n        /* \"#utility.yul\":5158:5261   */\n    tag_175:\n        /* \"#utility.yul\":5288:5289   */\n      0x01\n        /* \"#utility.yul\":5281:5286   */\n      dup3\n        /* \"#utility.yul\":5277:5290   */\n      add\n        /* \"#utility.yul\":5270:5290   */\n      swap1\n      pop\n        /* \"#utility.yul\":5063:5296   */\n      swap2\n      swap1\n      pop\n      jump\t// out\n        /* \"#utility.yul\":5302:5449   */\n    tag_110:\n        /* \"#utility.yul\":5403:5414   */\n      0x00\n        /* \"#utility.yul\":5440:5443   */\n      dup2\n        /* \"#utility.yul\":5425:5443   */\n      swap1\n      pop\n        /* \"#utility.yul\":5302:5449   */\n      swap3\n      swap2\n      pop\n      pop\n      jump\t// out\n        /* \"#utility.yul\":5455:5569   */\n    tag_111:\n      pop\n      jump\t// out\n        /* \"#utility.yul\":5575:5973   */\n    tag_112:\n        /* \"#utility.yul\":5734:5737   */\n      0x00\n        /* \"#utility.yul\":5755:5838   */\n      tag_180\n        /* \"#utility.yul\":5836:5837   */\n      0x00\n        /* \"#utility.yul\":5831:5834   */\n      dup4\n        /* \"#utility.yul\":5755:5838   */\n      tag_110\n      jump\t// in\n    tag_180:\n        /* \"#utility.yul\":5748:5838   */\n      swap2\n      pop\n        /* \"#utility.yul\":5847:5940   */\n      tag_181\n        /* \"#utility.yul\":5936:5939   */\n      dup3\n        /* \"#utility.yul\":5847:5940   */\n      tag_111\n      jump\t// in\n    tag_181:\n        /* \"#utility.yul\":5965:5966   */\n      0x00\n        /* \"#utility.yul\":5960:5963   */\n      dup3\n        /* \"#utility.yul\":5956:5967   */\n      add\n        /* \"#utility.yul\":5949:5967   */\n      swap1\n      pop\n        /* \"#utility.yul\":5575:5973   */\n      swap2\n      swap1\n      pop\n      jump\t// out\n        /* \"#utility.yul\":5979:6358   */\n    tag_60:\n        /* \"#utility.yul\":6163:6166   */\n      0x00\n        /* \"#utility.yul\":6185:6332   */\n      tag_183\n        /* \"#utility.yul\":6328:6331   */\n      dup3\n        /* \"#utility.yul\":6185:6332   */\n      tag_112\n      jump\t// in\n    tag_183:\n        /* \"#utility.yul\":6178:6332   */\n      swap2\n      pop\n        /* \"#utility.yul\":6349:6352   */\n      dup2\n        /* \"#utility.yul\":6342:6352   */\n      swap1\n      pop\n        /* \"#utility.yul\":5979:6358   */\n      swap2\n      swap1\n      pop\n      jump\t// out\n        /* \"#utility.yul\":6364:6529   */\n    tag_113:\n        /* \"#utility.yul\":6504:6521   */\n      0x5472616e73666572206661696c65640000000000000000000000000000000000\n        /* \"#utility.yul\":6500:6501   */\n      0x00\n        /* \"#utility.yul\":6492:6498   */\n      dup3\n        /* \"#utility.yul\":6488:6502   */\n      add\n        /* \"#utility.yul\":6481:6522   */\n      mstore\n        /* \"#utility.yul\":6364:6529   */\n      pop\n      jump\t// out\n        /* \"#utility.yul\":6535:6901   */\n    tag_114:\n        /* \"#utility.yul\":6677:6680   */\n      0x00\n        /* \"#utility.yul\":6698:6765   */\n      tag_186\n        /* \"#utility.yul\":6762:6764   */\n      0x0f\n        /* \"#utility.yul\":6757:6760   */\n      dup4\n        /* \"#utility.yul\":6698:6765   */\n      tag_104\n      jump\t// in\n    tag_186:\n        /* \"#utility.yul\":6691:6765   */\n      swap2\n      pop\n        /* \"#utility.yul\":6774:6867   */\n      tag_187\n        /* \"#utility.yul\":6863:6866   */\n      dup3\n        /* \"#utility.yul\":6774:6867   */\n      tag_113\n      jump\t// in\n    tag_187:\n        /* \"#utility.yul\":6892:6894   */\n      0x20\n        /* \"#utility.yul\":6887:6890   */\n      dup3\n        /* \"#utility.yul\":6883:6895   */\n      add\n        /* \"#utility.yul\":6876:6895   */\n      swap1\n      pop\n        /* \"#utility.yul\":6535:6901   */\n      swap2\n      swap1\n      pop\n      jump\t// out\n        /* \"#utility.yul\":6907:7326   */\n    tag_66:\n        /* \"#utility.yul\":7073:7077   */\n      0x00\n        /* \"#utility.yul\":7111:7113   */\n      0x20\n        /* \"#utility.yul\":7100:7109   */\n      dup3\n        /* \"#utility.yul\":7096:7114   */\n      add\n        /* \"#utility.yul\":7088:7114   */\n      swap1\n      pop\n        /* \"#utility.yul\":7160:7169   */\n      dup2\n        /* \"#utility.yul\":7154:7158   */\n      dup2\n        /* \"#utility.yul\":7150:7170   */\n      sub\n        /* \"#utility.yul\":7146:7147   */\n      0x00\n        /* \"#utility.yul\":7135:7144   */\n      dup4\n        /* \"#utility.yul\":7131:7148   */\n      add\n        /* \"#utility.yul\":7124:7171   */\n      mstore\n        /* \"#utility.yul\":7188:7319   */\n      tag_189\n        /* \"#utility.yul\":7314:7318   */\n      dup2\n        /* \"#utility.yul\":7188:7319   */\n      tag_114\n      jump\t// in\n    tag_189:\n        /* \"#utility.yul\":7180:7319   */\n      swap1\n      pop\n        /* \"#utility.yul\":6907:7326   */\n      swap2\n      swap1\n      pop\n      jump\t// out\n        /* \"#utility.yul\":7332:7494   */\n    tag_115:\n        /* \"#utility.yul\":7472:7486   */\n      0x7361666557697468647261770000000000000000000000000000000000000000\n        /* \"#utility.yul\":7468:7469   */\n      0x00\n        /* \"#utility.yul\":7460:7466   */\n      dup3\n        /* \"#utility.yul\":7456:7470   */\n      add\n        /* \"#utility.yul\":7449:7487   */\n      mstore\n        /* \"#utility.yul\":7332:7494   */\n      pop\n      jump\t// out\n        /* \"#utility.yul\":7500:7866   */\n    tag_116:\n        /* \"#utility.yul\":7642:7645   */\n      0x00\n        /* \"#utility.yul\":7663:7730   */\n      tag_192\n        /* \"#utility.yul\":7727:7729   */\n      0x0c\n        /* \"#utility.yul\":7722:7725   */\n      dup4\n        /* \"#utility.yul\":7663:7730   */\n      tag_104\n      jump\t// in\n    tag_192:\n        /* \"#utility.yul\":7656:7730   */\n      swap2\n      pop\n        /* \"#utility.yul\":7739:7832   */\n      tag_193\n        /* \"#utility.yul\":7828:7831   */\n      dup3\n        /* \"#utility.yul\":7739:7832   */\n      tag_115\n      jump\t// in\n    tag_193:\n        /* \"#utility.yul\":7857:7859   */\n      0x20\n        /* \"#utility.yul\":7852:7855   */\n      dup3\n        /* \"#utility.yul\":7848:7860   */\n      add\n        /* \"#utility.yul\":7841:7860   */\n      swap1\n      pop\n        /* \"#utility.yul\":7500:7866   */\n      swap2\n      swap1\n      pop\n      jump\t// out\n        /* \"#utility.yul\":7872:8401   */\n    tag_68:\n        /* \"#utility.yul\":8066:8070   */\n      0x00\n        /* \"#utility.yul\":8104:8106   */\n      0x40\n        /* \"#utility.yul\":8093:8102   */\n      dup3\n        /* \"#utility.yul\":8089:8107   */\n      add\n        /* \"#utility.yul\":8081:8107   */\n      swap1\n      pop\n        /* \"#utility.yul\":8117:8188   */\n      tag_195\n        /* \"#utility.yul\":8185:8186   */\n      0x00\n        /* \"#utility.yul\":8174:8183   */\n      dup4\n        /* \"#utility.yul\":8170:8187   */\n      add\n        /* \"#utility.yul\":8161:8167   */\n      dup5\n        /* \"#utility.yul\":8117:8188   */\n      tag_101\n      jump\t// in\n    tag_195:\n        /* \"#utility.yul\":8235:8244   */\n      dup2\n        /* \"#utility.yul\":8229:8233   */\n      dup2\n        /* \"#utility.yul\":8225:8245   */\n      sub\n        /* \"#utility.yul\":8220:8222   */\n      0x20\n        /* \"#utility.yul\":8209:8218   */\n      dup4\n        /* \"#utility.yul\":8205:8223   */\n      add\n        /* \"#utility.yul\":8198:8246   */\n      mstore\n        /* \"#utility.yul\":8263:8394   */\n      tag_196\n        /* \"#utility.yul\":8389:8393   */\n      dup2\n        /* \"#utility.yul\":8263:8394   */\n      tag_116\n      jump\t// in\n    tag_196:\n        /* \"#utility.yul\":8255:8394   */\n      swap1\n      pop\n        /* \"#utility.yul\":7872:8401   */\n      swap3\n      swap2\n      pop\n      pop\n      jump\t// out\n        /* \"#utility.yul\":8407:8572   */\n    tag_117:\n        /* \"#utility.yul\":8547:8564   */\n      0x7061746368656457697468647261770000000000000000000000000000000000\n        /* \"#utility.yul\":8543:8544   */\n      0x00\n        /* \"#utility.yul\":8535:8541   */\n      dup3\n        /* \"#utility.yul\":8531:8545   */\n      add\n        /* \"#utility.yul\":8524:8565   */\n      mstore\n        /* \"#utility.yul\":8407:8572   */\n      pop\n      jump\t// out\n        /* \"#utility.yul\":8578:8944   */\n    tag_118:\n        /* \"#utility.yul\":8720:8723   */\n      0x00\n        /* \"#utility.yul\":8741:8808   */\n      tag_199\n        /* \"#utility.yul\":8805:8807   */\n      0x0f\n        /* \"#utility.yul\":8800:8803   */\n      dup4\n        /* \"#utility.yul\":8741:8808   */\n      tag_104\n      jump\t// in\n    tag_199:\n        /* \"#utility.yul\":8734:8808   */\n      swap2\n      pop\n        /* \"#utility.yul\":8817:8910   */\n      tag_200\n        /* \"#utility.yul\":8906:8909   */\n      dup3\n        /* \"#utility.yul\":8817:8910   */\n      tag_117\n      jump\t// in\n    tag_200:\n        /* \"#utility.yul\":8935:8937   */\n      0x20\n        /* \"#utility.yul\":8930:8933   */\n      dup3\n        /* \"#utility.yul\":8926:8938   */\n      add\n        /* \"#utility.yul\":8919:8938   */\n      swap1\n      pop\n        /* \"#utility.yul\":8578:8944   */\n      swap2\n      swap1\n      pop\n      jump\t// out\n        /* \"#utility.yul\":8950:9479   */\n    tag_84:\n        /* \"#utility.yul\":9144:9148   */\n      0x00\n        /* \"#utility.yul\":9182:9184   */\n      0x40\n        /* \"#utility.yul\":9171:9180   */\n      dup3\n        /* \"#utility.yul\":9167:9185   */\n      add\n        /* \"#utility.yul\":9159:9185   */\n      swap1\n      pop\n        /* \"#utility.yul\":9195:9266   */\n      tag_202\n        /* \"#utility.yul\":9263:9264   */\n      0x00\n        /* \"#utility.yul\":9252:9261   */\n      dup4\n        /* \"#utility.yul\":9248:9265   */\n      add\n        /* \"#utility.yul\":9239:9245   */\n      dup5\n        /* \"#utility.yul\":9195:9266   */\n      tag_101\n      jump\t// in\n    tag_202:\n        /* \"#utility.yul\":9313:9322   */\n      dup2\n        /* \"#utility.yul\":9307:9311   */\n      dup2\n        /* \"#utility.yul\":9303:9323   */\n      sub\n        /* \"#utility.yul\":9298:9300   */\n      0x20\n        /* \"#utility.yul\":9287:9296   */\n      dup4\n        /* \"#utility.yul\":9283:9301   */\n      add\n        /* \"#utility.yul\":9276:9324   */\n      mstore\n        /* \"#utility.yul\":9341:9472   */\n      tag_203\n        /* \"#utility.yul\":9467:9471   */\n      dup2\n        /* \"#utility.yul\":9341:9472   */\n      tag_118\n      jump\t// in\n    tag_203:\n        /* \"#utility.yul\":9333:9472   */\n      swap1\n      pop\n        /* \"#utility.yul\":8950:9479   */\n      swap3\n      swap2\n      pop\n      pop\n      jump\t// out\n        /* \"#utility.yul\":9485:9648   */\n    tag_119:\n        /* \"#utility.yul\":9625:9640   */\n      0x4d7573742073656e642045544800000000000000000000000000000000000000\n        /* \"#utility.yul\":9621:9622   */\n      0x00\n        /* \"#utility.yul\":9613:9619   */\n      dup3\n        /* \"#utility.yul\":9609:9623   */\n      add\n        /* \"#utility.yul\":9602:9641   */\n      mstore\n        /* \"#utility.yul\":9485:9648   */\n      pop\n      jump\t// out\n        /* \"#utility.yul\":9654:10020   */\n    tag_120:\n        /* \"#utility.yul\":9796:9799   */\n      0x00\n        /* \"#utility.yul\":9817:9884   */\n      tag_206\n        /* \"#utility.yul\":9881:9883   */\n      0x0d\n        /* \"#utility.yul\":9876:9879   */\n      dup4\n        /* \"#utility.yul\":9817:9884   */\n      tag_104\n      jump\t// in\n    tag_206:\n        /* \"#utility.yul\":9810:9884   */\n      swap2\n      pop\n        /* \"#utility.yul\":9893:9986   */\n      tag_207\n        /* \"#utility.yul\":9982:9985   */\n      dup3\n        /* \"#utility.yul\":9893:9986   */\n      tag_119\n      jump\t// in\n    tag_207:\n        /* \"#utility.yul\":10011:10013   */\n      0x20\n        /* \"#utility.yul\":10006:10009   */\n      dup3\n        /* \"#utility.yul\":10002:10014   */\n      add\n        /* \"#utility.yul\":9995:10014   */\n      swap1\n      pop\n        /* \"#utility.yul\":9654:10020   */\n      swap2\n      swap1\n      pop\n      jump\t// out\n        /* \"#utility.yul\":10026:10445   */\n    tag_88:\n        /* \"#utility.yul\":10192:10196   */\n      0x00\n        /* \"#utility.yul\":10230:10232   */\n      0x20\n        /* \"#utility.yul\":10219:10228   */\n      dup3\n        /* \"#utility.yul\":10215:10233   */\n      add\n        /* \"#utility.yul\":10207:10233   */\n      swap1\n      pop\n        /* \"#utility.yul\":10279:10288   */\n      dup2\n        /* \"#utility.yul\":10273:10277   */\n      dup2\n        /* \"#utility.yul\":10269:10289   */\n      sub\n        /* \"#utility.yul\":10265:10266   */\n      0x00\n        /* \"#utility.yul\":10254:10263   */\n      dup4\n        /* \"#utility.yul\":10250:10267   */\n      add\n        /* \"#utility.yul\":10243:10290   */\n      mstore\n        /* \"#utility.yul\":10307:10438   */\n      tag_209\n        /* \"#utility.yul\":10433:10437   */\n      dup2\n        /* \"#utility.yul\":10307:10438   */\n      tag_120\n      jump\t// in\n    tag_209:\n        /* \"#utility.yul\":10299:10438   */\n      swap1\n      pop\n        /* \"#utility.yul\":10026:10445   */\n      swap2\n      swap1\n      pop\n      jump\t// out\n        /* \"#utility.yul\":10451:10642   */\n    tag_90:\n        /* \"#utility.yul\":10491:10494   */\n      0x00\n        /* \"#utility.yul\":10510:10530   */\n      tag_211\n        /* \"#utility.yul\":10528:10529   */\n      dup3\n        /* \"#utility.yul\":10510:10530   */\n      tag_100\n      jump\t// in\n    tag_211:\n        /* \"#utility.yul\":10505:10530   */\n      swap2\n      pop\n        /* \"#utility.yul\":10544:10564   */\n      tag_212\n        /* \"#utility.yul\":10562:10563   */\n      dup4\n        /* \"#utility.yul\":10544:10564   */\n      tag_100\n      jump\t// in\n    tag_212:\n        /* \"#utility.yul\":10539:10564   */\n      swap3\n      pop\n        /* \"#utility.yul\":10587:10588   */\n      dup3\n        /* \"#utility.yul\":10584:10585   */\n      dup3\n        /* \"#utility.yul\":10580:10589   */\n      add\n        /* \"#utility.yul\":10573:10589   */\n      swap1\n      pop\n        /* \"#utility.yul\":10608:10611   */\n      dup1\n        /* \"#utility.yul\":10605:10606   */\n      dup3\n        /* \"#utility.yul\":10602:10612   */\n      gt\n        /* \"#utility.yul\":10599:10635   */\n      iszero\n      tag_213\n      jumpi\n        /* \"#utility.yul\":10615:10633   */\n      tag_214\n      tag_109\n      jump\t// in\n    tag_214:\n        /* \"#utility.yul\":10599:10635   */\n    tag_213:\n        /* \"#utility.yul\":10451:10642   */\n      swap3\n      swap2\n      pop\n      pop\n      jump\t// out\n\n    auxdata: 0xa2646970667358221220e97e96e5d1e0436a56b843c39dbee47548061e2730140155ffa39b6ff4198b4464736f6c63430008220033\n}\n",
				"bytecode": {
					"linkReferences": {},
					"object": "6080604052348015600e575f5ffd5b50610cc18061001c5f395ff3fe60806040526004361061007a575f3560e01c8063b0fd035b1161004d578063b0fd035b14610138578063cc81767314610160578063d0e30db014610188578063ece739e6146101925761007a565b806327e235e31461007e57806382c49321146100ba57806384b4c56c146100e45780638b7afe2e1461010e575b5f5ffd5b348015610089575f5ffd5b506100a4600480360381019061009f91906107fc565b6101bd565b6040516100b1919061083f565b60405180910390f35b3480156100c5575f5ffd5b506100ce6101d1565b6040516100db919061083f565b60405180910390f35b3480156100ef575f5ffd5b506100f86101d7565b604051610105919061083f565b60405180910390f35b348015610119575f5ffd5b506101226101dd565b60405161012f919061083f565b60405180910390f35b348015610143575f5ffd5b5061015e60048036038101906101599190610882565b6101e4565b005b34801561016b575f5ffd5b5061018660048036038101906101819190610882565b610447565b005b6101906106aa565b005b34801561019d575f5ffd5b506101a661078e565b6040516101b49291906108ad565b60405180910390f35b5f602052805f5260405f205f915090505481565b60035481565b60025481565b5f47905090565b60015f9054906101000a900460ff1615610233576040517f08c379a000000000000000000000000000000000000000000000000000000000815260040161022a9061092e565b60405180910390fd5b6001805f6101000a81548160ff021916908315150217905550805f5f3373ffffffffffffffffffffffffffffffffffffffff1673ffffffffffffffffffffffffffffffffffffffff1681526020019081526020015f205410156102cb576040517f08c379a00000000000000000000000000000000000000000000000000000000081526004016102c290610996565b60405180910390fd5b805f5f3373ffffffffffffffffffffffffffffffffffffffff1673ffffffffffffffffffffffffffffffffffffffff1681526020019081526020015f205f82825461031691906109e1565b9250508190555060025f81548092919061032f90610a14565b91905055505f3373ffffffffffffffffffffffffffffffffffffffff168260405161035990610a88565b5f6040518083038185875af1925050503d805f8114610393576040519150601f19603f3d011682016040523d82523d5f602084013e610398565b606091505b50509050806103dc576040517f08c379a00000000000000000000000000000000000000000000000000000000081526004016103d390610ae6565b60405180910390fd5b3373ffffffffffffffffffffffffffffffffffffffff167f485f1bb6524c663555797e00171a10f341656e59b02d6b557a0a38ba7d5d9751836040516104229190610b4e565b60405180910390a2505f60015f6101000a81548160ff02191690831515021790555050565b60015f9054906101000a900460ff1615610496576040517f08c379a000000000000000000000000000000000000000000000000000000000815260040161048d9061092e565b60405180910390fd5b6001805f6101000a81548160ff021916908315150217905550805f5f3373ffffffffffffffffffffffffffffffffffffffff1673ffffffffffffffffffffffffffffffffffffffff1681526020019081526020015f2054101561052e576040517f08c379a000000000000000000000000000000000000000000000000000000000815260040161052590610996565b60405180910390fd5b805f5f3373ffffffffffffffffffffffffffffffffffffffff1673ffffffffffffffffffffffffffffffffffffffff1681526020019081526020015f205f82825461057991906109e1565b9250508190555060035f81548092919061059290610a14565b91905055505f3373ffffffffffffffffffffffffffffffffffffffff16826040516105bc90610a88565b5f6040518083038185875af1925050503d805f81146105f6576040519150601f19603f3d011682016040523d82523d5f602084013e6105fb565b606091505b505090508061063f576040517f08c379a000000000000000000000000000000000000000000000000000000000815260040161063690610ae6565b60405180910390fd5b3373ffffffffffffffffffffffffffffffffffffffff167f485f1bb6524c663555797e00171a10f341656e59b02d6b557a0a38ba7d5d9751836040516106859190610bc4565b60405180910390a2505f60015f6101000a81548160ff02191690831515021790555050565b5f34116106ec576040517f08c379a00000000000000000000000000000000000000000000000000000000081526004016106e390610c3a565b60405180910390fd5b345f5f3373ffffffffffffffffffffffffffffffffffffffff1673ffffffffffffffffffffffffffffffffffffffff1681526020019081526020015f205f8282546107379190610c58565b925050819055503373ffffffffffffffffffffffffffffffffffffffff167fe1fffcc4923d04b559f4d29a8bfc6cda04eb5b0d3c460751c2402c5c5cc9109c34604051610784919061083f565b60405180910390a2565b5f5f600254600354915091509091565b5f5ffd5b5f73ffffffffffffffffffffffffffffffffffffffff82169050919050565b5f6107cb826107a2565b9050919050565b6107db816107c1565b81146107e5575f5ffd5b50565b5f813590506107f6816107d2565b92915050565b5f602082840312156108115761081061079e565b5b5f61081e848285016107e8565b91505092915050565b5f819050919050565b61083981610827565b82525050565b5f6020820190506108525f830184610830565b92915050565b61086181610827565b811461086b575f5ffd5b50565b5f8135905061087c81610858565b92915050565b5f602082840312156108975761089661079e565b5b5f6108a48482850161086e565b91505092915050565b5f6040820190506108c05f830185610830565b6108cd6020830184610830565b9392505050565b5f82825260208201905092915050565b7f5265656e7472616e6379206465746563746564000000000000000000000000005f82015250565b5f6109186013836108d4565b9150610923826108e4565b602082019050919050565b5f6020820190508181035f8301526109458161090c565b9050919050565b7f496e73756666696369656e742062616c616e63650000000000000000000000005f82015250565b5f6109806014836108d4565b915061098b8261094c565b602082019050919050565b5f6020820190508181035f8301526109ad81610974565b9050919050565b7f4e487b71000000000000000000000000000000000000000000000000000000005f52601160045260245ffd5b5f6109eb82610827565b91506109f683610827565b9250828203905081811115610a0e57610a0d6109b4565b5b92915050565b5f610a1e82610827565b91507fffffffffffffffffffffffffffffffffffffffffffffffffffffffffffffffff8203610a5057610a4f6109b4565b5b600182019050919050565b5f81905092915050565b50565b5f610a735f83610a5b565b9150610a7e82610a65565b5f82019050919050565b5f610a9282610a68565b9150819050919050565b7f5472616e73666572206661696c656400000000000000000000000000000000005f82015250565b5f610ad0600f836108d4565b9150610adb82610a9c565b602082019050919050565b5f6020820190508181035f830152610afd81610ac4565b9050919050565b7f73616665576974686472617700000000000000000000000000000000000000005f82015250565b5f610b38600c836108d4565b9150610b4382610b04565b602082019050919050565b5f604082019050610b615f830184610830565b8181036020830152610b7281610b2c565b905092915050565b7f70617463686564576974686472617700000000000000000000000000000000005f82015250565b5f610bae600f836108d4565b9150610bb982610b7a565b602082019050919050565b5f604082019050610bd75f830184610830565b8181036020830152610be881610ba2565b905092915050565b7f4d7573742073656e6420455448000000000000000000000000000000000000005f82015250565b5f610c24600d836108d4565b9150610c2f82610bf0565b602082019050919050565b5f6020820190508181035f830152610c5181610c18565b9050919050565b5f610c6282610827565b9150610c6d83610827565b9250828201905080821115610c8557610c846109b4565b5b9291505056fea2646970667358221220e97e96e5d1e0436a56b843c39dbee47548061e2730140155ffa39b6ff4198b4464736f6c63430008220033",
					"opcodes": "PUSH1 0x80 PUSH1 0x40 MSTORE CALLVALUE DUP1 ISZERO PUSH1 0xE JUMPI PUSH0 PUSH0 REVERT JUMPDEST POP PUSH2 0xCC1 DUP1 PUSH2 0x1C PUSH0 CODECOPY PUSH0 RETURN INVALID PUSH1 0x80 PUSH1 0x40 MSTORE PUSH1 0x4 CALLDATASIZE LT PUSH2 0x7A JUMPI PUSH0 CALLDATALOAD PUSH1 0xE0 SHR DUP1 PUSH4 0xB0FD035B GT PUSH2 0x4D JUMPI DUP1 PUSH4 0xB0FD035B EQ PUSH2 0x138 JUMPI DUP1 PUSH4 0xCC817673 EQ PUSH2 0x160 JUMPI DUP1 PUSH4 0xD0E30DB0 EQ PUSH2 0x188 JUMPI DUP1 PUSH4 0xECE739E6 EQ PUSH2 0x192 JUMPI PUSH2 0x7A JUMP JUMPDEST DUP1 PUSH4 0x27E235E3 EQ PUSH2 0x7E JUMPI DUP1 PUSH4 0x82C49321 EQ PUSH2 0xBA JUMPI DUP1 PUSH4 0x84B4C56C EQ PUSH2 0xE4 JUMPI DUP1 PUSH4 0x8B7AFE2E EQ PUSH2 0x10E JUMPI JUMPDEST PUSH0 PUSH0 REVERT JUMPDEST CALLVALUE DUP1 ISZERO PUSH2 0x89 JUMPI PUSH0 PUSH0 REVERT JUMPDEST POP PUSH2 0xA4 PUSH1 0x4 DUP1 CALLDATASIZE SUB DUP2 ADD SWAP1 PUSH2 0x9F SWAP2 SWAP1 PUSH2 0x7FC JUMP JUMPDEST PUSH2 0x1BD JUMP JUMPDEST PUSH1 0x40 MLOAD PUSH2 0xB1 SWAP2 SWAP1 PUSH2 0x83F JUMP JUMPDEST PUSH1 0x40 MLOAD DUP1 SWAP2 SUB SWAP1 RETURN JUMPDEST CALLVALUE DUP1 ISZERO PUSH2 0xC5 JUMPI PUSH0 PUSH0 REVERT JUMPDEST POP PUSH2 0xCE PUSH2 0x1D1 JUMP JUMPDEST PUSH1 0x40 MLOAD PUSH2 0xDB SWAP2 SWAP1 PUSH2 0x83F JUMP JUMPDEST PUSH1 0x40 MLOAD DUP1 SWAP2 SUB SWAP1 RETURN JUMPDEST CALLVALUE DUP1 ISZERO PUSH2 0xEF JUMPI PUSH0 PUSH0 REVERT JUMPDEST POP PUSH2 0xF8 PUSH2 0x1D7 JUMP JUMPDEST PUSH1 0x40 MLOAD PUSH2 0x105 SWAP2 SWAP1 PUSH2 0x83F JUMP JUMPDEST PUSH1 0x40 MLOAD DUP1 SWAP2 SUB SWAP1 RETURN JUMPDEST CALLVALUE DUP1 ISZERO PUSH2 0x119 JUMPI PUSH0 PUSH0 REVERT JUMPDEST POP PUSH2 0x122 PUSH2 0x1DD JUMP JUMPDEST PUSH1 0x40 MLOAD PUSH2 0x12F SWAP2 SWAP1 PUSH2 0x83F JUMP JUMPDEST PUSH1 0x40 MLOAD DUP1 SWAP2 SUB SWAP1 RETURN JUMPDEST CALLVALUE DUP1 ISZERO PUSH2 0x143 JUMPI PUSH0 PUSH0 REVERT JUMPDEST POP PUSH2 0x15E PUSH1 0x4 DUP1 CALLDATASIZE SUB DUP2 ADD SWAP1 PUSH2 0x159 SWAP2 SWAP1 PUSH2 0x882 JUMP JUMPDEST PUSH2 0x1E4 JUMP JUMPDEST STOP JUMPDEST CALLVALUE DUP1 ISZERO PUSH2 0x16B JUMPI PUSH0 PUSH0 REVERT JUMPDEST POP PUSH2 0x186 PUSH1 0x4 DUP1 CALLDATASIZE SUB DUP2 ADD SWAP1 PUSH2 0x181 SWAP2 SWAP1 PUSH2 0x882 JUMP JUMPDEST PUSH2 0x447 JUMP JUMPDEST STOP JUMPDEST PUSH2 0x190 PUSH2 0x6AA JUMP JUMPDEST STOP JUMPDEST CALLVALUE DUP1 ISZERO PUSH2 0x19D JUMPI PUSH0 PUSH0 REVERT JUMPDEST POP PUSH2 0x1A6 PUSH2 0x78E JUMP JUMPDEST PUSH1 0x40 MLOAD PUSH2 0x1B4 SWAP3 SWAP2 SWAP1 PUSH2 0x8AD JUMP JUMPDEST PUSH1 0x40 MLOAD DUP1 SWAP2 SUB SWAP1 RETURN JUMPDEST PUSH0 PUSH1 0x20 MSTORE DUP1 PUSH0 MSTORE PUSH1 0x40 PUSH0 KECCAK256 PUSH0 SWAP2 POP SWAP1 POP SLOAD DUP2 JUMP JUMPDEST PUSH1 0x3 SLOAD DUP2 JUMP JUMPDEST PUSH1 0x2 SLOAD DUP2 JUMP JUMPDEST PUSH0 SELFBALANCE SWAP1 POP SWAP1 JUMP JUMPDEST PUSH1 0x1 PUSH0 SWAP1 SLOAD SWAP1 PUSH2 0x100 EXP SWAP1 DIV PUSH1 0xFF AND ISZERO PUSH2 0x233 JUMPI PUSH1 0x40 MLOAD PUSH32 0x8C379A000000000000000000000000000000000000000000000000000000000 DUP2 MSTORE PUSH1 0x4 ADD PUSH2 0x22A SWAP1 PUSH2 0x92E JUMP JUMPDEST PUSH1 0x40 MLOAD DUP1 SWAP2 SUB SWAP1 REVERT JUMPDEST PUSH1 0x1 DUP1 PUSH0 PUSH2 0x100 EXP DUP2 SLOAD DUP2 PUSH1 0xFF MUL NOT AND SWAP1 DUP4 ISZERO ISZERO MUL OR SWAP1 SSTORE POP DUP1 PUSH0 PUSH0 CALLER PUSH20 0xFFFFFFFFFFFFFFFFFFFFFFFFFFFFFFFFFFFFFFFF AND PUSH20 0xFFFFFFFFFFFFFFFFFFFFFFFFFFFFFFFFFFFFFFFF AND DUP2 MSTORE PUSH1 0x20 ADD SWAP1 DUP2 MSTORE PUSH1 0x20 ADD PUSH0 KECCAK256 SLOAD LT ISZERO PUSH2 0x2CB JUMPI PUSH1 0x40 MLOAD PUSH32 0x8C379A000000000000000000000000000000000000000000000000000000000 DUP2 MSTORE PUSH1 0x4 ADD PUSH2 0x2C2 SWAP1 PUSH2 0x996 JUMP JUMPDEST PUSH1 0x40 MLOAD DUP1 SWAP2 SUB SWAP1 REVERT JUMPDEST DUP1 PUSH0 PUSH0 CALLER PUSH20 0xFFFFFFFFFFFFFFFFFFFFFFFFFFFFFFFFFFFFFFFF AND PUSH20 0xFFFFFFFFFFFFFFFFFFFFFFFFFFFFFFFFFFFFFFFF AND DUP2 MSTORE PUSH1 0x20 ADD SWAP1 DUP2 MSTORE PUSH1 0x20 ADD PUSH0 KECCAK256 PUSH0 DUP3 DUP3 SLOAD PUSH2 0x316 SWAP2 SWAP1 PUSH2 0x9E1 JUMP JUMPDEST SWAP3 POP POP DUP2 SWAP1 SSTORE POP PUSH1 0x2 PUSH0 DUP2 SLOAD DUP1 SWAP3 SWAP2 SWAP1 PUSH2 0x32F SWAP1 PUSH2 0xA14 JUMP JUMPDEST SWAP2 SWAP1 POP SSTORE POP PUSH0 CALLER PUSH20 0xFFFFFFFFFFFFFFFFFFFFFFFFFFFFFFFFFFFFFFFF AND DUP3 PUSH1 0x40 MLOAD PUSH2 0x359 SWAP1 PUSH2 0xA88 JUMP JUMPDEST PUSH0 PUSH1 0x40 MLOAD DUP1 DUP4 SUB DUP2 DUP6 DUP8 GAS CALL SWAP3 POP POP POP RETURNDATASIZE DUP1 PUSH0 DUP2 EQ PUSH2 0x393 JUMPI PUSH1 0x40 MLOAD SWAP2 POP PUSH1 0x1F NOT PUSH1 0x3F RETURNDATASIZE ADD AND DUP3 ADD PUSH1 0x40 MSTORE RETURNDATASIZE DUP3 MSTORE RETURNDATASIZE PUSH0 PUSH1 0x20 DUP5 ADD RETURNDATACOPY PUSH2 0x398 JUMP JUMPDEST PUSH1 0x60 SWAP2 POP JUMPDEST POP POP SWAP1 POP DUP1 PUSH2 0x3DC JUMPI PUSH1 0x40 MLOAD PUSH32 0x8C379A000000000000000000000000000000000000000000000000000000000 DUP2 MSTORE PUSH1 0x4 ADD PUSH2 0x3D3 SWAP1 PUSH2 0xAE6 JUMP JUMPDEST PUSH1 0x40 MLOAD DUP1 SWAP2 SUB SWAP1 REVERT JUMPDEST CALLER PUSH20 0xFFFFFFFFFFFFFFFFFFFFFFFFFFFFFFFFFFFFFFFF AND PUSH32 0x485F1BB6524C663555797E00171A10F341656E59B02D6B557A0A38BA7D5D9751 DUP4 PUSH1 0x40 MLOAD PUSH2 0x422 SWAP2 SWAP1 PUSH2 0xB4E JUMP JUMPDEST PUSH1 0x40 MLOAD DUP1 SWAP2 SUB SWAP1 LOG2 POP PUSH0 PUSH1 0x1 PUSH0 PUSH2 0x100 EXP DUP2 SLOAD DUP2 PUSH1 0xFF MUL NOT AND SWAP1 DUP4 ISZERO ISZERO MUL OR SWAP1 SSTORE POP POP JUMP JUMPDEST PUSH1 0x1 PUSH0 SWAP1 SLOAD SWAP1 PUSH2 0x100 EXP SWAP1 DIV PUSH1 0xFF AND ISZERO PUSH2 0x496 JUMPI PUSH1 0x40 MLOAD PUSH32 0x8C379A000000000000000000000000000000000000000000000000000000000 DUP2 MSTORE PUSH1 0x4 ADD PUSH2 0x48D SWAP1 PUSH2 0x92E JUMP JUMPDEST PUSH1 0x40 MLOAD DUP1 SWAP2 SUB SWAP1 REVERT JUMPDEST PUSH1 0x1 DUP1 PUSH0 PUSH2 0x100 EXP DUP2 SLOAD DUP2 PUSH1 0xFF MUL NOT AND SWAP1 DUP4 ISZERO ISZERO MUL OR SWAP1 SSTORE POP DUP1 PUSH0 PUSH0 CALLER PUSH20 0xFFFFFFFFFFFFFFFFFFFFFFFFFFFFFFFFFFFFFFFF AND PUSH20 0xFFFFFFFFFFFFFFFFFFFFFFFFFFFFFFFFFFFFFFFF AND DUP2 MSTORE PUSH1 0x20 ADD SWAP1 DUP2 MSTORE PUSH1 0x20 ADD PUSH0 KECCAK256 SLOAD LT ISZERO PUSH2 0x52E JUMPI PUSH1 0x40 MLOAD PUSH32 0x8C379A000000000000000000000000000000000000000000000000000000000 DUP2 MSTORE PUSH1 0x4 ADD PUSH2 0x525 SWAP1 PUSH2 0x996 JUMP JUMPDEST PUSH1 0x40 MLOAD DUP1 SWAP2 SUB SWAP1 REVERT JUMPDEST DUP1 PUSH0 PUSH0 CALLER PUSH20 0xFFFFFFFFFFFFFFFFFFFFFFFFFFFFFFFFFFFFFFFF AND PUSH20 0xFFFFFFFFFFFFFFFFFFFFFFFFFFFFFFFFFFFFFFFF AND DUP2 MSTORE PUSH1 0x20 ADD SWAP1 DUP2 MSTORE PUSH1 0x20 ADD PUSH0 KECCAK256 PUSH0 DUP3 DUP3 SLOAD PUSH2 0x579 SWAP2 SWAP1 PUSH2 0x9E1 JUMP JUMPDEST SWAP3 POP POP DUP2 SWAP1 SSTORE POP PUSH1 0x3 PUSH0 DUP2 SLOAD DUP1 SWAP3 SWAP2 SWAP1 PUSH2 0x592 SWAP1 PUSH2 0xA14 JUMP JUMPDEST SWAP2 SWAP1 POP SSTORE POP PUSH0 CALLER PUSH20 0xFFFFFFFFFFFFFFFFFFFFFFFFFFFFFFFFFFFFFFFF AND DUP3 PUSH1 0x40 MLOAD PUSH2 0x5BC SWAP1 PUSH2 0xA88 JUMP JUMPDEST PUSH0 PUSH1 0x40 MLOAD DUP1 DUP4 SUB DUP2 DUP6 DUP8 GAS CALL SWAP3 POP POP POP RETURNDATASIZE DUP1 PUSH0 DUP2 EQ PUSH2 0x5F6 JUMPI PUSH1 0x40 MLOAD SWAP2 POP PUSH1 0x1F NOT PUSH1 0x3F RETURNDATASIZE ADD AND DUP3 ADD PUSH1 0x40 MSTORE RETURNDATASIZE DUP3 MSTORE RETURNDATASIZE PUSH0 PUSH1 0x20 DUP5 ADD RETURNDATACOPY PUSH2 0x5FB JUMP JUMPDEST PUSH1 0x60 SWAP2 POP JUMPDEST POP POP SWAP1 POP DUP1 PUSH2 0x63F JUMPI PUSH1 0x40 MLOAD PUSH32 0x8C379A000000000000000000000000000000000000000000000000000000000 DUP2 MSTORE PUSH1 0x4 ADD PUSH2 0x636 SWAP1 PUSH2 0xAE6 JUMP JUMPDEST PUSH1 0x40 MLOAD DUP1 SWAP2 SUB SWAP1 REVERT JUMPDEST CALLER PUSH20 0xFFFFFFFFFFFFFFFFFFFFFFFFFFFFFFFFFFFFFFFF AND PUSH32 0x485F1BB6524C663555797E00171A10F341656E59B02D6B557A0A38BA7D5D9751 DUP4 PUSH1 0x40 MLOAD PUSH2 0x685 SWAP2 SWAP1 PUSH2 0xBC4 JUMP JUMPDEST PUSH1 0x40 MLOAD DUP1 SWAP2 SUB SWAP1 LOG2 POP PUSH0 PUSH1 0x1 PUSH0 PUSH2 0x100 EXP DUP2 SLOAD DUP2 PUSH1 0xFF MUL NOT AND SWAP1 DUP4 ISZERO ISZERO MUL OR SWAP1 SSTORE POP POP JUMP JUMPDEST PUSH0 CALLVALUE GT PUSH2 0x6EC JUMPI PUSH1 0x40 MLOAD PUSH32 0x8C379A000000000000000000000000000000000000000000000000000000000 DUP2 MSTORE PUSH1 0x4 ADD PUSH2 0x6E3 SWAP1 PUSH2 0xC3A JUMP JUMPDEST PUSH1 0x40 MLOAD DUP1 SWAP2 SUB SWAP1 REVERT JUMPDEST CALLVALUE PUSH0 PUSH0 CALLER PUSH20 0xFFFFFFFFFFFFFFFFFFFFFFFFFFFFFFFFFFFFFFFF AND PUSH20 0xFFFFFFFFFFFFFFFFFFFFFFFFFFFFFFFFFFFFFFFF AND DUP2 MSTORE PUSH1 0x20 ADD SWAP1 DUP2 MSTORE PUSH1 0x20 ADD PUSH0 KECCAK256 PUSH0 DUP3 DUP3 SLOAD PUSH2 0x737 SWAP2 SWAP1 PUSH2 0xC58 JUMP JUMPDEST SWAP3 POP POP DUP2 SWAP1 SSTORE POP CALLER PUSH20 0xFFFFFFFFFFFFFFFFFFFFFFFFFFFFFFFFFFFFFFFF AND PUSH32 0xE1FFFCC4923D04B559F4D29A8BFC6CDA04EB5B0D3C460751C2402C5C5CC9109C CALLVALUE PUSH1 0x40 MLOAD PUSH2 0x784 SWAP2 SWAP1 PUSH2 0x83F JUMP JUMPDEST PUSH1 0x40 MLOAD DUP1 SWAP2 SUB SWAP1 LOG2 JUMP JUMPDEST PUSH0 PUSH0 PUSH1 0x2 SLOAD PUSH1 0x3 SLOAD SWAP2 POP SWAP2 POP SWAP1 SWAP2 JUMP JUMPDEST PUSH0 PUSH0 REVERT JUMPDEST PUSH0 PUSH20 0xFFFFFFFFFFFFFFFFFFFFFFFFFFFFFFFFFFFFFFFF DUP3 AND SWAP1 POP SWAP2 SWAP1 POP JUMP JUMPDEST PUSH0 PUSH2 0x7CB DUP3 PUSH2 0x7A2 JUMP JUMPDEST SWAP1 POP SWAP2 SWAP1 POP JUMP JUMPDEST PUSH2 0x7DB DUP2 PUSH2 0x7C1 JUMP JUMPDEST DUP2 EQ PUSH2 0x7E5 JUMPI PUSH0 PUSH0 REVERT JUMPDEST POP JUMP JUMPDEST PUSH0 DUP2 CALLDATALOAD SWAP1 POP PUSH2 0x7F6 DUP2 PUSH2 0x7D2 JUMP JUMPDEST SWAP3 SWAP2 POP POP JUMP JUMPDEST PUSH0 PUSH1 0x20 DUP3 DUP5 SUB SLT ISZERO PUSH2 0x811 JUMPI PUSH2 0x810 PUSH2 0x79E JUMP JUMPDEST JUMPDEST PUSH0 PUSH2 0x81E DUP5 DUP3 DUP6 ADD PUSH2 0x7E8 JUMP JUMPDEST SWAP2 POP POP SWAP3 SWAP2 POP POP JUMP JUMPDEST PUSH0 DUP2 SWAP1 POP SWAP2 SWAP1 POP JUMP JUMPDEST PUSH2 0x839 DUP2 PUSH2 0x827 JUMP JUMPDEST DUP3 MSTORE POP POP JUMP JUMPDEST PUSH0 PUSH1 0x20 DUP3 ADD SWAP1 POP PUSH2 0x852 PUSH0 DUP4 ADD DUP5 PUSH2 0x830 JUMP JUMPDEST SWAP3 SWAP2 POP POP JUMP JUMPDEST PUSH2 0x861 DUP2 PUSH2 0x827 JUMP JUMPDEST DUP2 EQ PUSH2 0x86B JUMPI PUSH0 PUSH0 REVERT JUMPDEST POP JUMP JUMPDEST PUSH0 DUP2 CALLDATALOAD SWAP1 POP PUSH2 0x87C DUP2 PUSH2 0x858 JUMP JUMPDEST SWAP3 SWAP2 POP POP JUMP JUMPDEST PUSH0 PUSH1 0x20 DUP3 DUP5 SUB SLT ISZERO PUSH2 0x897 JUMPI PUSH2 0x896 PUSH2 0x79E JUMP JUMPDEST JUMPDEST PUSH0 PUSH2 0x8A4 DUP5 DUP3 DUP6 ADD PUSH2 0x86E JUMP JUMPDEST SWAP2 POP POP SWAP3 SWAP2 POP POP JUMP JUMPDEST PUSH0 PUSH1 0x40 DUP3 ADD SWAP1 POP PUSH2 0x8C0 PUSH0 DUP4 ADD DUP6 PUSH2 0x830 JUMP JUMPDEST PUSH2 0x8CD PUSH1 0x20 DUP4 ADD DUP5 PUSH2 0x830 JUMP JUMPDEST SWAP4 SWAP3 POP POP POP JUMP JUMPDEST PUSH0 DUP3 DUP3 MSTORE PUSH1 0x20 DUP3 ADD SWAP1 POP SWAP3 SWAP2 POP POP JUMP JUMPDEST PUSH32 0x5265656E7472616E637920646574656374656400000000000000000000000000 PUSH0 DUP3 ADD MSTORE POP JUMP JUMPDEST PUSH0 PUSH2 0x918 PUSH1 0x13 DUP4 PUSH2 0x8D4 JUMP JUMPDEST SWAP2 POP PUSH2 0x923 DUP3 PUSH2 0x8E4 JUMP JUMPDEST PUSH1 0x20 DUP3 ADD SWAP1 POP SWAP2 SWAP1 POP JUMP JUMPDEST PUSH0 PUSH1 0x20 DUP3 ADD SWAP1 POP DUP2 DUP2 SUB PUSH0 DUP4 ADD MSTORE PUSH2 0x945 DUP2 PUSH2 0x90C JUMP JUMPDEST SWAP1 POP SWAP2 SWAP1 POP JUMP JUMPDEST PUSH32 0x496E73756666696369656E742062616C616E6365000000000000000000000000 PUSH0 DUP3 ADD MSTORE POP JUMP JUMPDEST PUSH0 PUSH2 0x980 PUSH1 0x14 DUP4 PUSH2 0x8D4 JUMP JUMPDEST SWAP2 POP PUSH2 0x98B DUP3 PUSH2 0x94C JUMP JUMPDEST PUSH1 0x20 DUP3 ADD SWAP1 POP SWAP2 SWAP1 POP JUMP JUMPDEST PUSH0 PUSH1 0x20 DUP3 ADD SWAP1 POP DUP2 DUP2 SUB PUSH0 DUP4 ADD MSTORE PUSH2 0x9AD DUP2 PUSH2 0x974 JUMP JUMPDEST SWAP1 POP SWAP2 SWAP1 POP JUMP JUMPDEST PUSH32 0x4E487B7100000000000000000000000000000000000000000000000000000000 PUSH0 MSTORE PUSH1 0x11 PUSH1 0x4 MSTORE PUSH1 0x24 PUSH0 REVERT JUMPDEST PUSH0 PUSH2 0x9EB DUP3 PUSH2 0x827 JUMP JUMPDEST SWAP2 POP PUSH2 0x9F6 DUP4 PUSH2 0x827 JUMP JUMPDEST SWAP3 POP DUP3 DUP3 SUB SWAP1 POP DUP2 DUP2 GT ISZERO PUSH2 0xA0E JUMPI PUSH2 0xA0D PUSH2 0x9B4 JUMP JUMPDEST JUMPDEST SWAP3 SWAP2 POP POP JUMP JUMPDEST PUSH0 PUSH2 0xA1E DUP3 PUSH2 0x827 JUMP JUMPDEST SWAP2 POP PUSH32 0xFFFFFFFFFFFFFFFFFFFFFFFFFFFFFFFFFFFFFFFFFFFFFFFFFFFFFFFFFFFFFFFF DUP3 SUB PUSH2 0xA50 JUMPI PUSH2 0xA4F PUSH2 0x9B4 JUMP JUMPDEST JUMPDEST PUSH1 0x1 DUP3 ADD SWAP1 POP SWAP2 SWAP1 POP JUMP JUMPDEST PUSH0 DUP2 SWAP1 POP SWAP3 SWAP2 POP POP JUMP JUMPDEST POP JUMP JUMPDEST PUSH0 PUSH2 0xA73 PUSH0 DUP4 PUSH2 0xA5B JUMP JUMPDEST SWAP2 POP PUSH2 0xA7E DUP3 PUSH2 0xA65 JUMP JUMPDEST PUSH0 DUP3 ADD SWAP1 POP SWAP2 SWAP1 POP JUMP JUMPDEST PUSH0 PUSH2 0xA92 DUP3 PUSH2 0xA68 JUMP JUMPDEST SWAP2 POP DUP2 SWAP1 POP SWAP2 SWAP1 POP JUMP JUMPDEST PUSH32 0x5472616E73666572206661696C65640000000000000000000000000000000000 PUSH0 DUP3 ADD MSTORE POP JUMP JUMPDEST PUSH0 PUSH2 0xAD0 PUSH1 0xF DUP4 PUSH2 0x8D4 JUMP JUMPDEST SWAP2 POP PUSH2 0xADB DUP3 PUSH2 0xA9C JUMP JUMPDEST PUSH1 0x20 DUP3 ADD SWAP1 POP SWAP2 SWAP1 POP JUMP JUMPDEST PUSH0 PUSH1 0x20 DUP3 ADD SWAP1 POP DUP2 DUP2 SUB PUSH0 DUP4 ADD MSTORE PUSH2 0xAFD DUP2 PUSH2 0xAC4 JUMP JUMPDEST SWAP1 POP SWAP2 SWAP1 POP JUMP JUMPDEST PUSH32 0x7361666557697468647261770000000000000000000000000000000000000000 PUSH0 DUP3 ADD MSTORE POP JUMP JUMPDEST PUSH0 PUSH2 0xB38 PUSH1 0xC DUP4 PUSH2 0x8D4 JUMP JUMPDEST SWAP2 POP PUSH2 0xB43 DUP3 PUSH2 0xB04 JUMP JUMPDEST PUSH1 0x20 DUP3 ADD SWAP1 POP SWAP2 SWAP1 POP JUMP JUMPDEST PUSH0 PUSH1 0x40 DUP3 ADD SWAP1 POP PUSH2 0xB61 PUSH0 DUP4 ADD DUP5 PUSH2 0x830 JUMP JUMPDEST DUP2 DUP2 SUB PUSH1 0x20 DUP4 ADD MSTORE PUSH2 0xB72 DUP2 PUSH2 0xB2C JUMP JUMPDEST SWAP1 POP SWAP3 SWAP2 POP POP JUMP JUMPDEST PUSH32 0x7061746368656457697468647261770000000000000000000000000000000000 PUSH0 DUP3 ADD MSTORE POP JUMP JUMPDEST PUSH0 PUSH2 0xBAE PUSH1 0xF DUP4 PUSH2 0x8D4 JUMP JUMPDEST SWAP2 POP PUSH2 0xBB9 DUP3 PUSH2 0xB7A JUMP JUMPDEST PUSH1 0x20 DUP3 ADD SWAP1 POP SWAP2 SWAP1 POP JUMP JUMPDEST PUSH0 PUSH1 0x40 DUP3 ADD SWAP1 POP PUSH2 0xBD7 PUSH0 DUP4 ADD DUP5 PUSH2 0x830 JUMP JUMPDEST DUP2 DUP2 SUB PUSH1 0x20 DUP4 ADD MSTORE PUSH2 0xBE8 DUP2 PUSH2 0xBA2 JUMP JUMPDEST SWAP1 POP SWAP3 SWAP2 POP POP JUMP JUMPDEST PUSH32 0x4D7573742073656E642045544800000000000000000000000000000000000000 PUSH0 DUP3 ADD MSTORE POP JUMP JUMPDEST PUSH0 PUSH2 0xC24 PUSH1 0xD DUP4 PUSH2 0x8D4 JUMP JUMPDEST SWAP2 POP PUSH2 0xC2F DUP3 PUSH2 0xBF0 JUMP JUMPDEST PUSH1 0x20 DUP3 ADD SWAP1 POP SWAP2 SWAP1 POP JUMP JUMPDEST PUSH0 PUSH1 0x20 DUP3 ADD SWAP1 POP DUP2 DUP2 SUB PUSH0 DUP4 ADD MSTORE PUSH2 0xC51 DUP2 PUSH2 0xC18 JUMP JUMPDEST SWAP1 POP SWAP2 SWAP1 POP JUMP JUMPDEST PUSH0 PUSH2 0xC62 DUP3 PUSH2 0x827 JUMP JUMPDEST SWAP2 POP PUSH2 0xC6D DUP4 PUSH2 0x827 JUMP JUMPDEST SWAP3 POP DUP3 DUP3 ADD SWAP1 POP DUP1 DUP3 GT ISZERO PUSH2 0xC85 JUMPI PUSH2 0xC84 PUSH2 0x9B4 JUMP JUMPDEST JUMPDEST SWAP3 SWAP2 POP POP JUMP INVALID LOG2 PUSH5 0x6970667358 0x22 SLT KECCAK256 0xE9 PUSH31 0x96E5D1E0436A56B843C39DBEE47548061E2730140155FFA39B6FF4198B4464 PUSH20 0x6F6C634300082200330000000000000000000000 "
				},
				"gasEstimates": {
					"creation": {
						"codeDepositCost": "653000",
						"executionCost": "687",
						"totalCost": "653687"
					},
					"external": {
						"balances(address)": "2802",
						"compareExecutions()": "infinite",
						"contractBalance()": "401",
						"deposit()": "infinite",
						"safeWithdraw(uint256)": "infinite",
						"safeWithdrawCounter()": "2470",
						"vulnerableWithdraw(uint256)": "infinite",
						"vulnerableWithdrawCounter()": "2448"
					}
				},
				"methodIdentifiers": {
					"balances(address)": "27e235e3",
					"compareExecutions()": "ece739e6",
					"contractBalance()": "8b7afe2e",
					"deposit()": "d0e30db0",
					"safeWithdraw(uint256)": "b0fd035b",
					"safeWithdrawCounter()": "84b4c56c",
					"vulnerableWithdraw(uint256)": "cc817673",
					"vulnerableWithdrawCounter()": "82c49321"
				}
			},
			"storageLayout": {
				"storage": [
					{
						"astId": 5,
						"contract": "test56.sol:VictimBank",
						"label": "balances",
						"offset": 0,
						"slot": "0",
						"type": "t_mapping(t_address,t_uint256)"
					},
					{
						"astId": 7,
						"contract": "test56.sol:VictimBank",
						"label": "locked",
						"offset": 0,
						"slot": "1",
						"type": "t_bool"
					},
					{
						"astId": 9,
						"contract": "test56.sol:VictimBank",
						"label": "safeWithdrawCounter",
						"offset": 0,
						"slot": "2",
						"type": "t_uint256"
					},
					{
						"astId": 11,
						"contract": "test56.sol:VictimBank",
						"label": "vulnerableWithdrawCounter",
						"offset": 0,
						"slot": "3",
						"type": "t_uint256"
					}
				],
				"types": {
					"t_address": {
						"encoding": "inplace",
						"label": "address",
						"numberOfBytes": "20"
					},
					"t_bool": {
						"encoding": "inplace",
						"label": "bool",
						"numberOfBytes": "1"
					},
					"t_mapping(t_address,t_uint256)": {
						"encoding": "mapping",
						"key": "t_address",
						"label": "mapping(address => uint256)",
						"numberOfBytes": "32",
						"value": "t_uint256"
					},
					"t_uint256": {
						"encoding": "inplace",
						"label": "uint256",
						"numberOfBytes": "32"
					}
				}
			},
			"userdoc": {
				"kind": "user",
				"methods": {},
				"version": 1
			}
		}
	}
}