{
	"test79.sol": {
		"TxOriginAuthFixed": {
			"abi": [
				{
					"inputs": [],
					"stateMutability": "nonpayable",
					"type": "constructor"
				},
				{
					"inputs": [],
					"name": "deposit",
					"outputs": [],
					"stateMutability": "payable",
					"type": "function"
				},
				{
					"inputs": [],
					"name": "owner",
					"outputs": [
						{
							"internalType": "address",
							"name": "",
							"type": "address"
						}
					],
					"stateMutability": "view",
					"type": "function"
				},
				{
					"inputs": [],
					"name": "withdrawAll",
					"outputs": [],
					"stateMutability": "nonpayable",
					"type": "function"
				}
			],
			"devdoc": {
				"kind": "dev",
				"methods": {},
				"version": 1
			},
			"evm": {
				"assembly": "    /* \"test79.sol\":3208:4006  contract TxOriginAuthFixed {... */\n  mstore(0x40, 0x80)\n    /* \"test79.sol\":3273:3324  constructor() {... */\n  callvalue\n  dup1\n  iszero\n  tag_1\n  jumpi\n  revert(0x00, 0x00)\ntag_1:\n  pop\n    /* \"test79.sol\":3306:3316  msg.sender */\n  caller\n    /* \"test79.sol\":3298:3303  owner */\n  0x00\n  0x00\n    /* \"test79.sol\":3298:3316  owner = msg.sender */\n  0x0100\n  exp\n  dup2\n  sload\n  dup2\n  0xffffffffffffffffffffffffffffffffffffffff\n  mul\n  not\n  and\n  swap1\n  dup4\n  0xffffffffffffffffffffffffffffffffffffffff\n  and\n  mul\n  or\n  swap1\n  sstore\n  pop\n    /* \"test79.sol\":3208:4006  contract TxOriginAuthFixed {... */\n  dataSize(sub_0)\n  dup1\n  dataOffset(sub_0)\n  0x00\n  codecopy\n  0x00\n  return\nstop\n\nsub_0: assembly {\n        /* \"test79.sol\":3208:4006  contract TxOriginAuthFixed {... */\n      mstore(0x40, 0x80)\n      jumpi(tag_1, lt(calldatasize, 0x04))\n      shr(0xe0, calldataload(0x00))\n      dup1\n      0x853828b6\n      eq\n      tag_2\n      jumpi\n      dup1\n      0x8da5cb5b\n      eq\n      tag_3\n      jumpi\n      dup1\n      0xd0e30db0\n      eq\n      tag_4\n      jumpi\n    tag_1:\n      revert(0x00, 0x00)\n        /* \"test79.sol\":3491:3778  function withdrawAll() external {... */\n    tag_2:\n      callvalue\n      dup1\n      iszero\n      tag_5\n      jumpi\n      revert(0x00, 0x00)\n    tag_5:\n      pop\n      tag_6\n      tag_7\n      jump\t// in\n    tag_6:\n      stop\n        /* \"test79.sol\":3244:3264  address public owner */\n    tag_3:\n      callvalue\n      dup1\n      iszero\n      tag_8\n      jumpi\n      revert(0x00, 0x00)\n    tag_8:\n      pop\n      tag_9\n      tag_10\n      jump\t// in\n    tag_9:\n      mload(0x40)\n      tag_11\n      swap2\n      swap1\n      tag_12\n      jump\t// in\n    tag_11:\n      mload(0x40)\n      dup1\n      swap2\n      sub\n      swap1\n      return\n        /* \"test79.sol\":3942:4003  function deposit()... */\n    tag_4:\n      tag_13\n      tag_14\n      jump\t// in\n    tag_13:\n      stop\n        /* \"test79.sol\":3491:3778  function withdrawAll() external {... */\n    tag_7:\n        /* \"test79.sol\":3645:3650  owner */\n      0x00\n      0x00\n      swap1\n      sload\n      swap1\n      0x0100\n      exp\n      swap1\n      div\n      0xffffffffffffffffffffffffffffffffffffffff\n      and\n        /* \"test79.sol\":3631:3650  msg.sender == owner */\n      0xffffffffffffffffffffffffffffffffffffffff\n      and\n        /* \"test79.sol\":3631:3641  msg.sender */\n      caller\n        /* \"test79.sol\":3631:3650  msg.sender == owner */\n      0xffffffffffffffffffffffffffffffffffffffff\n      and\n      eq\n        /* \"test79.sol\":3609:3687  require(... */\n      tag_16\n      jumpi\n      mload(0x40)\n      0x08c379a000000000000000000000000000000000000000000000000000000000\n      dup2\n      mstore\n      0x04\n      add\n      tag_17\n      swap1\n      tag_18\n      jump\t// in\n    tag_17:\n      mload(0x40)\n      dup1\n      swap2\n      sub\n      swap1\n      revert\n    tag_16:\n        /* \"test79.sol\":3708:3713  owner */\n      0x00\n      0x00\n      swap1\n      sload\n      swap1\n      0x0100\n      exp\n      swap1\n      div\n      0xffffffffffffffffffffffffffffffffffffffff\n      and\n        /* \"test79.sol\":3700:3723  payable(owner).transfer */\n      0xffffffffffffffffffffffffffffffffffffffff\n      and\n        /* \"test79.sol\":3700:3770  payable(owner).transfer(... */\n      0x08fc\n        /* \"test79.sol\":3738:3759  address(this).balance */\n      selfbalance\n        /* \"test79.sol\":3700:3770  payable(owner).transfer(... */\n      swap1\n      dup2\n      iszero\n      mul\n      swap1\n      mload(0x40)\n      0x00\n      mload(0x40)\n      dup1\n      dup4\n      sub\n      dup2\n      dup6\n      dup9\n      dup9\n      call\n      swap4\n      pop\n      pop\n      pop\n      pop\n      iszero\n      dup1\n      iszero\n      tag_20\n      jumpi\n      returndatacopy(0x00, 0x00, returndatasize)\n      revert(0x00, returndatasize)\n    tag_20:\n      pop\n        /* \"test79.sol\":3491:3778  function withdrawAll() external {... */\n      jump\t// out\n        /* \"test79.sol\":3244:3264  address public owner */\n    tag_10:\n      0x00\n      0x00\n      swap1\n      sload\n      swap1\n      0x0100\n      exp\n      swap1\n      div\n      0xffffffffffffffffffffffffffffffffffffffff\n      and\n      dup2\n      jump\t// out\n        /* \"test79.sol\":3942:4003  function deposit()... */\n    tag_14:\n      jump\t// out\n        /* \"#utility.yul\":7:133   */\n    tag_22:\n        /* \"#utility.yul\":44:51   */\n      0x00\n        /* \"#utility.yul\":84:126   */\n      0xffffffffffffffffffffffffffffffffffffffff\n        /* \"#utility.yul\":77:82   */\n      dup3\n        /* \"#utility.yul\":73:127   */\n      and\n        /* \"#utility.yul\":62:127   */\n      swap1\n      pop\n        /* \"#utility.yul\":7:133   */\n      swap2\n      swap1\n      pop\n      jump\t// out\n        /* \"#utility.yul\":139:235   */\n    tag_23:\n        /* \"#utility.yul\":176:183   */\n      0x00\n        /* \"#utility.yul\":205:229   */\n      tag_31\n        /* \"#utility.yul\":223:228   */\n      dup3\n        /* \"#utility.yul\":205:229   */\n      tag_22\n      jump\t// in\n    tag_31:\n        /* \"#utility.yul\":194:229   */\n      swap1\n      pop\n        /* \"#utility.yul\":139:235   */\n      swap2\n      swap1\n      pop\n      jump\t// out\n        /* \"#utility.yul\":241:359   */\n    tag_24:\n        /* \"#utility.yul\":328:352   */\n      tag_33\n        /* \"#utility.yul\":346:351   */\n      dup2\n        /* \"#utility.yul\":328:352   */\n      tag_23\n      jump\t// in\n    tag_33:\n        /* \"#utility.yul\":323:326   */\n      dup3\n        /* \"#utility.yul\":316:353   */\n      mstore\n        /* \"#utility.yul\":241:359   */\n      pop\n      pop\n      jump\t// out\n        /* \"#utility.yul\":365:587   */\n    tag_12:\n        /* \"#utility.yul\":458:462   */\n      0x00\n        /* \"#utility.yul\":496:498   */\n      0x20\n        /* \"#utility.yul\":485:494   */\n      dup3\n        /* \"#utility.yul\":481:499   */\n      add\n        /* \"#utility.yul\":473:499   */\n      swap1\n      pop\n        /* \"#utility.yul\":509:580   */\n      tag_35\n        /* \"#utility.yul\":577:578   */\n      0x00\n        /* \"#utility.yul\":566:575   */\n      dup4\n        /* \"#utility.yul\":562:579   */\n      add\n        /* \"#utility.yul\":553:559   */\n      dup5\n        /* \"#utility.yul\":509:580   */\n      tag_24\n      jump\t// in\n    tag_35:\n        /* \"#utility.yul\":365:587   */\n      swap3\n      swap2\n      pop\n      pop\n      jump\t// out\n        /* \"#utility.yul\":593:762   */\n    tag_25:\n        /* \"#utility.yul\":677:688   */\n      0x00\n        /* \"#utility.yul\":711:717   */\n      dup3\n        /* \"#utility.yul\":706:709   */\n      dup3\n        /* \"#utility.yul\":699:718   */\n      mstore\n        /* \"#utility.yul\":751:755   */\n      0x20\n        /* \"#utility.yul\":746:749   */\n      dup3\n        /* \"#utility.yul\":742:756   */\n      add\n        /* \"#utility.yul\":727:756   */\n      swap1\n      pop\n        /* \"#utility.yul\":593:762   */\n      swap3\n      swap2\n      pop\n      pop\n      jump\t// out\n        /* \"#utility.yul\":768:927   */\n    tag_26:\n        /* \"#utility.yul\":908:919   */\n      0x4e6f74206f776e65720000000000000000000000000000000000000000000000\n        /* \"#utility.yul\":904:905   */\n      0x00\n        /* \"#utility.yul\":896:902   */\n      dup3\n        /* \"#utility.yul\":892:906   */\n      add\n        /* \"#utility.yul\":885:920   */\n      mstore\n        /* \"#utility.yul\":768:927   */\n      pop\n      jump\t// out\n        /* \"#utility.yul\":933:1298   */\n    tag_27:\n        /* \"#utility.yul\":1075:1078   */\n      0x00\n        /* \"#utility.yul\":1096:1162   */\n      tag_39\n        /* \"#utility.yul\":1160:1161   */\n      0x09\n        /* \"#utility.yul\":1155:1158   */\n      dup4\n        /* \"#utility.yul\":1096:1162   */\n      tag_25\n      jump\t// in\n    tag_39:\n        /* \"#utility.yul\":1089:1162   */\n      swap2\n      pop\n        /* \"#utility.yul\":1171:1264   */\n      tag_40\n        /* \"#utility.yul\":1260:1263   */\n      dup3\n        /* \"#utility.yul\":1171:1264   */\n      tag_26\n      jump\t// in\n    tag_40:\n        /* \"#utility.yul\":1289:1291   */\n      0x20\n        /* \"#utility.yul\":1284:1287   */\n      dup3\n        /* \"#utility.yul\":1280:1292   */\n      add\n        /* \"#utility.yul\":1273:1292   */\n      swap1\n      pop\n        /* \"#utility.yul\":933:1298   */\n      swap2\n      swap1\n      pop\n      jump\t// out\n        /* \"#utility.yul\":1304:1723   */\n    tag_18:\n        /* \"#utility.yul\":1470:1474   */\n      0x00\n        /* \"#utility.yul\":1508:1510   */\n      0x20\n        /* \"#utility.yul\":1497:1506   */\n      dup3\n        /* \"#utility.yul\":1493:1511   */\n      add\n        /* \"#utility.yul\":1485:1511   */\n      swap1\n      pop\n        /* \"#utility.yul\":1557:1566   */\n      dup2\n        /* \"#utility.yul\":1551:1555   */\n      dup2\n        /* \"#utility.yul\":1547:1567   */\n      sub\n        /* \"#utility.yul\":1543:1544   */\n      0x00\n        /* \"#utility.yul\":1532:1541   */\n      dup4\n        /* \"#utility.yul\":1528:1545   */\n      add\n        /* \"#utility.yul\":1521:1568   */\n      mstore\n        /* \"#utility.yul\":1585:1716   */\n      tag_42\n        /* \"#utility.yul\":1711:1715   */\n      dup2\n        /* \"#utility.yul\":1585:1716   */\n      tag_27\n      jump\t// in\n    tag_42:\n        /* \"#utility.yul\":1577:1716   */\n      swap1\n      pop\n        /* \"#utility.yul\":1304:1723   */\n      swap2\n      swap1\n      pop\n      jump\t// out\n\n    auxdata: 0xa26469706673582212206ef1ef1d6749223b6571366d1369b0f9cad5c781b5491a809204e92ba4e2517b64736f6c63430008220033\n}\n",
				"bytecode": {
					"linkReferences": {},
					"object": "6080604052348015600e575f5ffd5b50335f5f6101000a81548173ffffffffffffffffffffffffffffffffffffffff021916908373ffffffffffffffffffffffffffffffffffffffff1602179055506102a18061005b5f395ff3fe608060405260043610610033575f3560e01c8063853828b6146100375780638da5cb5b1461004d578063d0e30db014610077575b5f5ffd5b348015610042575f5ffd5b5061004b610081565b005b348015610058575f5ffd5b50610061610175565b60405161006e91906101da565b60405180910390f35b61007f610199565b005b5f5f9054906101000a900473ffffffffffffffffffffffffffffffffffffffff1673ffffffffffffffffffffffffffffffffffffffff163373ffffffffffffffffffffffffffffffffffffffff161461010f576040517f08c379a00000000000000000000000000000000000000000000000000000000081526004016101069061024d565b60405180910390fd5b5f5f9054906101000a900473ffffffffffffffffffffffffffffffffffffffff1673ffffffffffffffffffffffffffffffffffffffff166108fc4790811502906040515f60405180830381858888f19350505050158015610172573d5f5f3e3d5ffd5b50565b5f5f9054906101000a900473ffffffffffffffffffffffffffffffffffffffff1681565b565b5f73ffffffffffffffffffffffffffffffffffffffff82169050919050565b5f6101c48261019b565b9050919050565b6101d4816101ba565b82525050565b5f6020820190506101ed5f8301846101cb565b92915050565b5f82825260208201905092915050565b7f4e6f74206f776e657200000000000000000000000000000000000000000000005f82015250565b5f6102376009836101f3565b915061024282610203565b602082019050919050565b5f6020820190508181035f8301526102648161022b565b905091905056fea26469706673582212206ef1ef1d6749223b6571366d1369b0f9cad5c781b5491a809204e92ba4e2517b64736f6c63430008220033",
					"opcodes": "PUSH1 0x80 PUSH1 0x40 MSTORE CALLVALUE DUP1 ISZERO PUSH1 0xE JUMPI PUSH0 PUSH0 REVERT JUMPDEST POP CALLER PUSH0 PUSH0 PUSH2 0x100 EXP DUP2 SLOAD DUP2 PUSH20 0xFFFFFFFFFFFFFFFFFFFFFFFFFFFFFFFFFFFFFFFF MUL NOT AND SWAP1 DUP4 PUSH20 0xFFFFFFFFFFFFFFFFFFFFFFFFFFFFFFFFFFFFFFFF AND MUL OR SWAP1 SSTORE POP PUSH2 0x2A1 DUP1 PUSH2 0x5B PUSH0 CODECOPY PUSH0 RETURN INVALID PUSH1 0x80 PUSH1 0x40 MSTORE PUSH1 0x4 CALLDATASIZE LT PUSH2 0x33 JUMPI PUSH0 CALLDATALOAD PUSH1 0xE0 SHR DUP1 PUSH4 0x853828B6 EQ PUSH2 0x37 JUMPI DUP1 PUSH4 0x8DA5CB5B EQ PUSH2 0x4D JUMPI DUP1 PUSH4 0xD0E30DB0 EQ PUSH2 0x77 JUMPI JUMPDEST PUSH0 PUSH0 REVERT JUMPDEST CALLVALUE DUP1 ISZERO PUSH2 0x42 JUMPI PUSH0 PUSH0 REVERT JUMPDEST POP PUSH2 0x4B PUSH2 0x81 JUMP JUMPDEST STOP JUMPDEST CALLVALUE DUP1 ISZERO PUSH2 0x58 JUMPI PUSH0 PUSH0 REVERT JUMPDEST POP PUSH2 0x61 PUSH2 0x175 JUMP JUMPDEST PUSH1 0x40 MLOAD PUSH2 0x6E SWAP2 SWAP1 PUSH2 0x1DA JUMP JUMPDEST PUSH1 0x40 MLOAD DUP1 SWAP2 SUB SWAP1 RETURN JUMPDEST PUSH2 0x7F PUSH2 0x199 JUMP JUMPDEST STOP JUMPDEST PUSH0 PUSH0 SWAP1 SLOAD SWAP1 PUSH2 0x100 EXP SWAP1 DIV PUSH20 0xFFFFFFFFFFFFFFFFFFFFFFFFFFFFFFFFFFFFFFFF AND PUSH20 0xFFFFFFFFFFFFFFFFFFFFFFFFFFFFFFFFFFFFFFFF AND CALLER PUSH20 0xFFFFFFFFFFFFFFFFFFFFFFFFFFFFFFFFFFFFFFFF AND EQ PUSH2 0x10F JUMPI PUSH1 0x40 MLOAD PUSH32 0x8C379A000000000000000000000000000000000000000000000000000000000 DUP2 MSTORE PUSH1 0x4 ADD PUSH2 0x106 SWAP1 PUSH2 0x24D JUMP JUMPDEST PUSH1 0x40 MLOAD DUP1 SWAP2 SUB SWAP1 REVERT JUMPDEST PUSH0 PUSH0 SWAP1 SLOAD SWAP1 PUSH2 0x100 EXP SWAP1 DIV PUSH20 0xFFFFFFFFFFFFFFFFFFFFFFFFFFFFFFFFFFFFFFFF AND PUSH20 0xFFFFFFFFFFFFFFFFFFFFFFFFFFFFFFFFFFFFFFFF AND PUSH2 0x8FC SELFBALANCE SWAP1 DUP2 ISZERO MUL SWAP1 PUSH1 0x40 MLOAD PUSH0 PUSH1 0x40 MLOAD DUP1 DUP4 SUB DUP2 DUP6 DUP9 DUP9 CALL SWAP4 POP POP POP POP ISZERO DUP1 ISZERO PUSH2 0x172 JUMPI RETURNDATASIZE PUSH0 PUSH0 RETURNDATACOPY RETURNDATASIZE PUSH0 REVERT JUMPDEST POP JUMP JUMPDEST PUSH0 PUSH0 SWAP1 SLOAD SWAP1 PUSH2 0x100 EXP SWAP1 DIV PUSH20 0xFFFFFFFFFFFFFFFFFFFFFFFFFFFFFFFFFFFFFFFF AND DUP2 JUMP JUMPDEST JUMP JUMPDEST PUSH0 PUSH20 0xFFFFFFFFFFFFFFFFFFFFFFFFFFFFFFFFFFFFFFFF DUP3 AND SWAP1 POP SWAP2 SWAP1 POP JUMP JUMPDEST PUSH0 PUSH2 0x1C4 DUP3 PUSH2 0x19B JUMP JUMPDEST SWAP1 POP SWAP2 SWAP1 POP JUMP JUMPDEST PUSH2 0x1D4 DUP2 PUSH2 0x1BA JUMP JUMPDEST DUP3 MSTORE POP POP JUMP JUMPDEST PUSH0 PUSH1 0x20 DUP3 ADD SWAP1 POP PUSH2 0x1ED PUSH0 DUP4 ADD DUP5 PUSH2 0x1CB JUMP JUMPDEST SWAP3 SWAP2 POP POP JUMP JUMPDEST PUSH0 DUP3 DUP3 MSTORE PUSH1 0x20 DUP3 ADD SWAP1 POP SWAP3 SWAP2 POP POP JUMP JUMPDEST PUSH32 0x4E6F74206F776E65720000000000000000000000000000000000000000000000 PUSH0 DUP3 ADD MSTORE POP JUMP JUMPDEST PUSH0 PUSH2 0x237 PUSH1 0x9 DUP4 PUSH2 0x1F3 JUMP JUMPDEST SWAP2 POP PUSH2 0x242 DUP3 PUSH2 0x203 JUMP JUMPDEST PUSH1 0x20 DUP3 ADD SWAP1 POP SWAP2 SWAP1 POP JUMP JUMPDEST PUSH0 PUSH1 0x20 DUP3 ADD SWAP1 POP DUP2 DUP2 SUB PUSH0 DUP4 ADD MSTORE PUSH2 0x264 DUP2 PUSH2 0x22B JUMP JUMPDEST SWAP1 POP SWAP2 SWAP1 POP JUMP INVALID LOG2 PUSH5 0x6970667358 0x22 SLT KECCAK256 PUSH15 0xF1EF1D6749223B6571366D1369B0F9 0xCA 0xD5 0xC7 DUP2 0xB5 BLOBHASH BYTE DUP1 SWAP3 DIV 0xE9 0x2B LOG4 0xE2 MLOAD PUSH28 0x64736F6C634300082200330000000000000000000000000000000000 "
				},
				"gasEstimates": {
					"creation": {
						"codeDepositCost": "134600",
						"executionCost": "24445",
						"totalCost": "159045"
					},
					"external": {
						"deposit()": "141",
						"owner()": "2507",
						"withdrawAll()": "infinite"
					}
				},
				"methodIdentifiers": {
					"deposit()": "d0e30db0",
					"owner()": "8da5cb5b",
					"withdrawAll()": "853828b6"
				}
			},
			"storageLayout": {
				"storage": [
					{
						"astId": 3,
						"contract": "test79.sol:TxOriginAuthFixed",
						"label": "owner",
						"offset": 0,
						"slot": "0",
						"type": "t_address"
					}
				],
				"types": {
					"t_address": {
						"encoding": "inplace",
						"label": "address",
						"numberOfBytes": "20"
					}
				}
			},
			"userdoc": {
				"kind": "user",
				"methods": {},
				"version": 1
			}
		}
	}
}