{
	"test73.sol": {
		"StressTestCalls": {
			"abi": [
				{
					"anonymous": false,
					"inputs": [
						{
							"indexed": false,
							"internalType": "uint256",
							"name": "value",
							"type": "uint256"
						}
					],
					"name": "CallExecuted",
					"type": "event"
				},
				{
					"anonymous": false,
					"inputs": [
						{
							"indexed": false,
							"internalType": "string",
							"name": "callType",
							"type": "string"
						},
						{
							"indexed": false,
							"internalType": "uint256",
							"name": "gasUsed",
							"type": "uint256"
						}
					],
					"name": "GasMeasured",
					"type": "event"
				},
				{
					"inputs": [],
					"name": "compareGas",
					"outputs": [
						{
							"internalType": "uint256",
							"name": "internalGas",
							"type": "uint256"
						},
						{
							"internalType": "uint256",
							"name": "externalGas",
							"type": "uint256"
						}
					],
					"stateMutability": "view",
					"type": "function"
				},
				{
					"inputs": [],
					"name": "counter",
					"outputs": [
						{
							"internalType": "uint256",
							"name": "",
							"type": "uint256"
						}
					],
					"stateMutability": "view",
					"type": "function"
				},
				{
					"inputs": [],
					"name": "externalGasUsed",
					"outputs": [
						{
							"internalType": "uint256",
							"name": "",
							"type": "uint256"
						}
					],
					"stateMutability": "view",
					"type": "function"
				},
				{
					"inputs": [
						{
							"internalType": "uint256",
							"name": "times",
							"type": "uint256"
						}
					],
					"name": "externalStyleStress",
					"outputs": [],
					"stateMutability": "nonpayable",
					"type": "function"
				},
				{
					"inputs": [],
					"name": "internalGasUsed",
					"outputs": [
						{
							"internalType": "uint256",
							"name": "",
							"type": "uint256"
						}
					],
					"stateMutability": "view",
					"type": "function"
				},
				{
					"inputs": [],
					"name": "reset",
					"outputs": [],
					"stateMutability": "nonpayable",
					"type": "function"
				},
				{
					"inputs": [
						{
							"internalType": "uint256",
							"name": "value",
							"type": "uint256"
						}
					],
					"name": "singleCall",
					"outputs": [],
					"stateMutability": "nonpayable",
					"type": "function"
				},
				{
					"inputs": [
						{
							"internalType": "uint256",
							"name": "times",
							"type": "uint256"
						}
					],
					"name": "stressTest",
					"outputs": [],
					"stateMutability": "nonpayable",
					"type": "function"
				},
				{
					"inputs": [],
					"name": "totalCalls",
					"outputs": [
						{
							"internalType": "uint256",
							"name": "",
							"type": "uint256"
						}
					],
					"stateMutability": "view",
					"type": "function"
				}
			],
			"devdoc": {
				"kind": "dev",
				"methods": {},
				"version": 1
			},
			"evm": {
				"assembly": "    /* \"test73.sol\":13164:15687  contract StressTestCalls {... */\n  mstore(0x40, 0x80)\n  callvalue\n  dup1\n  iszero\n  tag_1\n  jumpi\n  revert(0x00, 0x00)\ntag_1:\n  pop\n  dataSize(sub_0)\n  dup1\n  dataOffset(sub_0)\n  0x00\n  codecopy\n  0x00\n  return\nstop\n\nsub_0: assembly {\n        /* \"test73.sol\":13164:15687  contract StressTestCalls {... */\n      mstore(0x40, 0x80)\n      callvalue\n      dup1\n      iszero\n      tag_1\n      jumpi\n      revert(0x00, 0x00)\n    tag_1:\n      pop\n      jumpi(tag_2, lt(calldatasize, 0x04))\n      shr(0xe0, calldataload(0x00))\n      dup1\n      0x8f32aa78\n      gt\n      tag_12\n      jumpi\n      dup1\n      0x8f32aa78\n      eq\n      tag_7\n      jumpi\n      dup1\n      0xb1e964fe\n      eq\n      tag_8\n      jumpi\n      dup1\n      0xd826f88f\n      eq\n      tag_9\n      jumpi\n      dup1\n      0xde5021e0\n      eq\n      tag_10\n      jumpi\n      dup1\n      0xe93116b6\n      eq\n      tag_11\n      jumpi\n      jump(tag_2)\n    tag_12:\n      dup1\n      0x2326305f\n      eq\n      tag_3\n      jumpi\n      dup1\n      0x3af3f24f\n      eq\n      tag_4\n      jumpi\n      dup1\n      0x61bc221a\n      eq\n      tag_5\n      jumpi\n      dup1\n      0x6561fd92\n      eq\n      tag_6\n      jumpi\n    tag_2:\n      revert(0x00, 0x00)\n        /* \"test73.sol\":13992:14442  function stressTest(... */\n    tag_3:\n      tag_13\n      0x04\n      dup1\n      calldatasize\n      sub\n      dup2\n      add\n      swap1\n      tag_14\n      swap2\n      swap1\n      tag_15\n      jump\t// in\n    tag_14:\n      tag_16\n      jump\t// in\n    tag_13:\n      stop\n        /* \"test73.sol\":13260:13285  uint256 public totalCalls */\n    tag_4:\n      tag_17\n      tag_18\n      jump\t// in\n    tag_17:\n      mload(0x40)\n      tag_19\n      swap2\n      swap1\n      tag_20\n      jump\t// in\n    tag_19:\n      mload(0x40)\n      dup1\n      swap2\n      sub\n      swap1\n      return\n        /* \"test73.sol\":13231:13253  uint256 public counter */\n    tag_5:\n      tag_21\n      tag_22\n      jump\t// in\n    tag_21:\n      mload(0x40)\n      tag_23\n      swap2\n      swap1\n      tag_20\n      jump\t// in\n    tag_23:\n      mload(0x40)\n      dup1\n      swap2\n      sub\n      swap1\n      return\n        /* \"test73.sol\":13326:13356  uint256 public internalGasUsed */\n    tag_6:\n      tag_24\n      tag_25\n      jump\t// in\n    tag_24:\n      mload(0x40)\n      tag_26\n      swap2\n      swap1\n      tag_20\n      jump\t// in\n    tag_26:\n      mload(0x40)\n      dup1\n      swap2\n      sub\n      swap1\n      return\n        /* \"test73.sol\":15243:15472  function compareGas()... */\n    tag_7:\n      tag_27\n      tag_28\n      jump\t// in\n    tag_27:\n      mload(0x40)\n      tag_29\n      swap3\n      swap2\n      swap1\n      tag_30\n      jump\t// in\n    tag_29:\n      mload(0x40)\n      dup1\n      swap2\n      sub\n      swap1\n      return\n        /* \"test73.sol\":13363:13393  uint256 public externalGasUsed */\n    tag_8:\n      tag_31\n      tag_32\n      jump\t// in\n    tag_31:\n      mload(0x40)\n      tag_33\n      swap2\n      swap1\n      tag_20\n      jump\t// in\n    tag_33:\n      mload(0x40)\n      dup1\n      swap2\n      sub\n      swap1\n      return\n        /* \"test73.sol\":15581:15677  function reset()... */\n    tag_9:\n      tag_34\n      tag_35\n      jump\t// in\n    tag_34:\n      stop\n        /* \"test73.sol\":13657:13853  function singleCall(... */\n    tag_10:\n      tag_36\n      0x04\n      dup1\n      calldatasize\n      sub\n      dup2\n      add\n      swap1\n      tag_37\n      swap2\n      swap1\n      tag_15\n      jump\t// in\n    tag_37:\n      tag_38\n      jump\t// in\n    tag_36:\n      stop\n        /* \"test73.sol\":14603:15136  function externalStyleStress(... */\n    tag_11:\n      tag_39\n      0x04\n      dup1\n      calldatasize\n      sub\n      dup2\n      add\n      swap1\n      tag_40\n      swap2\n      swap1\n      tag_15\n      jump\t// in\n    tag_40:\n      tag_41\n      jump\t// in\n    tag_39:\n      stop\n        /* \"test73.sol\":13992:14442  function stressTest(... */\n    tag_16:\n        /* \"test73.sol\":14104:14107  100 */\n      0x64\n        /* \"test73.sol\":14095:14100  times */\n      dup2\n        /* \"test73.sol\":14095:14107  times <= 100 */\n      gt\n      iszero\n        /* \"test73.sol\":14073:14148  require(... */\n      tag_43\n      jumpi\n      mload(0x40)\n      0x08c379a000000000000000000000000000000000000000000000000000000000\n      dup2\n      mstore\n      0x04\n      add\n      tag_44\n      swap1\n      tag_45\n      jump\t// in\n    tag_44:\n      mload(0x40)\n      dup1\n      swap2\n      sub\n      swap1\n      revert\n    tag_43:\n        /* \"test73.sol\":14159:14175  uint256 startGas */\n      0x00\n        /* \"test73.sol\":14187:14196  gasleft() */\n      gas\n        /* \"test73.sol\":14159:14196  uint256 startGas =... */\n      swap1\n      pop\n        /* \"test73.sol\":14219:14228  uint256 i */\n      0x00\n        /* \"test73.sol\":14231:14232  0 */\n      0x00\n        /* \"test73.sol\":14219:14232  uint256 i = 0 */\n      swap1\n      pop\n        /* \"test73.sol\":14204:14306  for (... */\n    tag_46:\n        /* \"test73.sol\":14247:14252  times */\n      dup3\n        /* \"test73.sol\":14243:14244  i */\n      dup2\n        /* \"test73.sol\":14243:14252  i < times */\n      lt\n        /* \"test73.sol\":14204:14306  for (... */\n      iszero\n      tag_47\n      jumpi\n        /* \"test73.sol\":14285:14298  singleCall(i) */\n      tag_49\n        /* \"test73.sol\":14296:14297  i */\n      dup2\n        /* \"test73.sol\":14285:14295  singleCall */\n      tag_38\n        /* \"test73.sol\":14285:14298  singleCall(i) */\n      jump\t// in\n    tag_49:\n        /* \"test73.sol\":14263:14266  i++ */\n      dup1\n      dup1\n      0x01\n      add\n      swap2\n      pop\n      pop\n        /* \"test73.sol\":14204:14306  for (... */\n      jump(tag_46)\n    tag_47:\n      pop\n        /* \"test73.sol\":14350:14359  gasleft() */\n      gas\n        /* \"test73.sol\":14339:14347  startGas */\n      dup2\n        /* \"test73.sol\":14339:14359  startGas - gasleft() */\n      tag_50\n      swap2\n      swap1\n      tag_51\n      jump\t// in\n    tag_50:\n        /* \"test73.sol\":14312:14327  internalGasUsed */\n      0x02\n        /* \"test73.sol\":14312:14359  internalGasUsed =... */\n      dup2\n      swap1\n      sstore\n      pop\n        /* \"test73.sol\":14373:14438  GasMeasured(... */\n      0x4d605d112b717b70b80f393cc6a0239ae0459508e54af125ee28f92acbf7fc49\n        /* \"test73.sol\":14416:14431  internalGasUsed */\n      sload(0x02)\n        /* \"test73.sol\":14373:14438  GasMeasured(... */\n      mload(0x40)\n      tag_52\n      swap2\n      swap1\n      tag_53\n      jump\t// in\n    tag_52:\n      mload(0x40)\n      dup1\n      swap2\n      sub\n      swap1\n      log1\n        /* \"test73.sol\":14062:14442  {... */\n      pop\n        /* \"test73.sol\":13992:14442  function stressTest(... */\n      pop\n      jump\t// out\n        /* \"test73.sol\":13260:13285  uint256 public totalCalls */\n    tag_18:\n      sload(0x01)\n      dup2\n      jump\t// out\n        /* \"test73.sol\":13231:13253  uint256 public counter */\n    tag_22:\n      sload(0x00)\n      dup2\n      jump\t// out\n        /* \"test73.sol\":13326:13356  uint256 public internalGasUsed */\n    tag_25:\n      sload(0x02)\n      dup2\n      jump\t// out\n        /* \"test73.sol\":15243:15472  function compareGas()... */\n    tag_28:\n        /* \"test73.sol\":15313:15332  uint256 internalGas */\n      0x00\n        /* \"test73.sol\":15343:15362  uint256 externalGas */\n      0x00\n        /* \"test73.sol\":15408:15423  internalGasUsed */\n      sload(0x02)\n        /* \"test73.sol\":15438:15453  externalGasUsed */\n      sload(0x03)\n        /* \"test73.sol\":15386:15464  return (... */\n      swap2\n      pop\n      swap2\n      pop\n        /* \"test73.sol\":15243:15472  function compareGas()... */\n      swap1\n      swap2\n      jump\t// out\n        /* \"test73.sol\":13363:13393  uint256 public externalGasUsed */\n    tag_32:\n      sload(0x03)\n      dup2\n      jump\t// out\n        /* \"test73.sol\":15581:15677  function reset()... */\n    tag_35:\n        /* \"test73.sol\":15643:15644  0 */\n      0x00\n        /* \"test73.sol\":15633:15640  counter */\n      0x00\n        /* \"test73.sol\":15633:15644  counter = 0 */\n      dup2\n      swap1\n      sstore\n      pop\n        /* \"test73.sol\":15668:15669  0 */\n      0x00\n        /* \"test73.sol\":15655:15665  totalCalls */\n      0x01\n        /* \"test73.sol\":15655:15669  totalCalls = 0 */\n      dup2\n      swap1\n      sstore\n      pop\n        /* \"test73.sol\":15581:15677  function reset()... */\n      jump\t// out\n        /* \"test73.sol\":13657:13853  function singleCall(... */\n    tag_38:\n        /* \"test73.sol\":13736:13743  counter */\n      0x00\n      0x00\n        /* \"test73.sol\":13736:13745  counter++ */\n      dup2\n      sload\n      dup1\n      swap3\n      swap2\n      swap1\n      tag_57\n      swap1\n      tag_58\n      jump\t// in\n    tag_57:\n      swap2\n      swap1\n      pop\n      sstore\n      pop\n        /* \"test73.sol\":13756:13766  totalCalls */\n      0x01\n      0x00\n        /* \"test73.sol\":13756:13768  totalCalls++ */\n      dup2\n      sload\n      dup1\n      swap3\n      swap2\n      swap1\n      tag_59\n      swap1\n      tag_58\n      jump\t// in\n    tag_59:\n      swap2\n      swap1\n      pop\n      sstore\n      pop\n        /* \"test73.sol\":13826:13845  CallExecuted(value) */\n      0x3928d16f1b83bc921c1b727730bac772d6fcb40349aa360f13d0eb4ee24e0516\n        /* \"test73.sol\":13839:13844  value */\n      dup2\n        /* \"test73.sol\":13826:13845  CallExecuted(value) */\n      mload(0x40)\n      tag_60\n      swap2\n      swap1\n      tag_20\n      jump\t// in\n    tag_60:\n      mload(0x40)\n      dup1\n      swap2\n      sub\n      swap1\n      log1\n        /* \"test73.sol\":13657:13853  function singleCall(... */\n      pop\n      jump\t// out\n        /* \"test73.sol\":14603:15136  function externalStyleStress(... */\n    tag_41:\n        /* \"test73.sol\":14724:14727  100 */\n      0x64\n        /* \"test73.sol\":14715:14720  times */\n      dup2\n        /* \"test73.sol\":14715:14727  times <= 100 */\n      gt\n      iszero\n        /* \"test73.sol\":14693:14768  require(... */\n      tag_62\n      jumpi\n      mload(0x40)\n      0x08c379a000000000000000000000000000000000000000000000000000000000\n      dup2\n      mstore\n      0x04\n      add\n      tag_63\n      swap1\n      tag_45\n      jump\t// in\n    tag_63:\n      mload(0x40)\n      dup1\n      swap2\n      sub\n      swap1\n      revert\n    tag_62:\n        /* \"test73.sol\":14779:14795  uint256 startGas */\n      0x00\n        /* \"test73.sol\":14807:14816  gasleft() */\n      gas\n        /* \"test73.sol\":14779:14816  uint256 startGas =... */\n      swap1\n      pop\n        /* \"test73.sol\":14846:14855  uint256 i */\n      0x00\n        /* \"test73.sol\":14858:14859  0 */\n      0x00\n        /* \"test73.sol\":14846:14859  uint256 i = 0 */\n      swap1\n      pop\n        /* \"test73.sol\":14827:14957  for (... */\n    tag_64:\n        /* \"test73.sol\":14878:14883  times */\n      dup3\n        /* \"test73.sol\":14874:14875  i */\n      dup2\n        /* \"test73.sol\":14874:14883  i < times */\n      lt\n        /* \"test73.sol\":14827:14957  for (... */\n      iszero\n      tag_65\n      jumpi\n        /* \"test73.sol\":14927:14931  this */\n      address\n        /* \"test73.sol\":14927:14942  this.singleCall */\n      0xffffffffffffffffffffffffffffffffffffffff\n      and\n      0xde5021e0\n        /* \"test73.sol\":14943:14944  i */\n      dup3\n        /* \"test73.sol\":14927:14945  this.singleCall(i) */\n      mload(0x40)\n      dup3\n      0xffffffff\n      and\n      0xe0\n      shl\n      dup2\n      mstore\n      0x04\n      add\n      tag_67\n      swap2\n      swap1\n      tag_20\n      jump\t// in\n    tag_67:\n      0x00\n      mload(0x40)\n      dup1\n      dup4\n      sub\n      dup2\n      0x00\n      dup8\n      dup1\n      extcodesize\n      iszero\n      dup1\n      iszero\n      tag_68\n      jumpi\n      revert(0x00, 0x00)\n    tag_68:\n      pop\n      gas\n      call\n      iszero\n      dup1\n      iszero\n      tag_70\n      jumpi\n      returndatacopy(0x00, 0x00, returndatasize)\n      revert(0x00, returndatasize)\n    tag_70:\n      pop\n      pop\n      pop\n      pop\n        /* \"test73.sol\":14898:14901  i++ */\n      dup1\n      dup1\n      0x01\n      add\n      swap2\n      pop\n      pop\n        /* \"test73.sol\":14827:14957  for (... */\n      jump(tag_64)\n    tag_65:\n      pop\n        /* \"test73.sol\":15010:15019  gasleft() */\n      gas\n        /* \"test73.sol\":14999:15007  startGas */\n      dup2\n        /* \"test73.sol\":14999:15019  startGas - gasleft() */\n      tag_71\n      swap2\n      swap1\n      tag_51\n      jump\t// in\n    tag_71:\n        /* \"test73.sol\":14967:14982  externalGasUsed */\n      0x03\n        /* \"test73.sol\":14967:15019  externalGasUsed = ... */\n      dup2\n      swap1\n      sstore\n      pop\n        /* \"test73.sol\":15039:15128  GasMeasured(... */\n      0x4d605d112b717b70b80f393cc6a0239ae0459508e54af125ee28f92acbf7fc49\n        /* \"test73.sol\":15098:15113  externalGasUsed */\n      sload(0x03)\n        /* \"test73.sol\":15039:15128  GasMeasured(... */\n      mload(0x40)\n      tag_72\n      swap2\n      swap1\n      tag_73\n      jump\t// in\n    tag_72:\n      mload(0x40)\n      dup1\n      swap2\n      sub\n      swap1\n      log1\n        /* \"test73.sol\":14682:15136  {... */\n      pop\n        /* \"test73.sol\":14603:15136  function externalStyleStress(... */\n      pop\n      jump\t// out\n        /* \"#utility.yul\":88:205   */\n    tag_75:\n        /* \"#utility.yul\":197:198   */\n      0x00\n        /* \"#utility.yul\":194:195   */\n      0x00\n        /* \"#utility.yul\":187:199   */\n      revert\n        /* \"#utility.yul\":334:411   */\n    tag_77:\n        /* \"#utility.yul\":371:378   */\n      0x00\n        /* \"#utility.yul\":400:405   */\n      dup2\n        /* \"#utility.yul\":389:405   */\n      swap1\n      pop\n        /* \"#utility.yul\":334:411   */\n      swap2\n      swap1\n      pop\n      jump\t// out\n        /* \"#utility.yul\":417:539   */\n    tag_78:\n        /* \"#utility.yul\":490:514   */\n      tag_95\n        /* \"#utility.yul\":508:513   */\n      dup2\n        /* \"#utility.yul\":490:514   */\n      tag_77\n      jump\t// in\n    tag_95:\n        /* \"#utility.yul\":483:488   */\n      dup2\n        /* \"#utility.yul\":480:515   */\n      eq\n        /* \"#utility.yul\":470:533   */\n      tag_96\n      jumpi\n        /* \"#utility.yul\":529:530   */\n      0x00\n        /* \"#utility.yul\":526:527   */\n      0x00\n        /* \"#utility.yul\":519:531   */\n      revert\n        /* \"#utility.yul\":470:533   */\n    tag_96:\n        /* \"#utility.yul\":417:539   */\n      pop\n      jump\t// out\n        /* \"#utility.yul\":545:684   */\n    tag_79:\n        /* \"#utility.yul\":591:596   */\n      0x00\n        /* \"#utility.yul\":629:635   */\n      dup2\n        /* \"#utility.yul\":616:636   */\n      calldataload\n        /* \"#utility.yul\":607:636   */\n      swap1\n      pop\n        /* \"#utility.yul\":645:678   */\n      tag_98\n        /* \"#utility.yul\":672:677   */\n      dup2\n        /* \"#utility.yul\":645:678   */\n      tag_78\n      jump\t// in\n    tag_98:\n        /* \"#utility.yul\":545:684   */\n      swap3\n      swap2\n      pop\n      pop\n      jump\t// out\n        /* \"#utility.yul\":690:1019   */\n    tag_15:\n        /* \"#utility.yul\":749:755   */\n      0x00\n        /* \"#utility.yul\":798:800   */\n      0x20\n        /* \"#utility.yul\":786:795   */\n      dup3\n        /* \"#utility.yul\":777:784   */\n      dup5\n        /* \"#utility.yul\":773:796   */\n      sub\n        /* \"#utility.yul\":769:801   */\n      slt\n        /* \"#utility.yul\":766:885   */\n      iszero\n      tag_100\n      jumpi\n        /* \"#utility.yul\":804:883   */\n      tag_101\n      tag_75\n      jump\t// in\n    tag_101:\n        /* \"#utility.yul\":766:885   */\n    tag_100:\n        /* \"#utility.yul\":924:925   */\n      0x00\n        /* \"#utility.yul\":949:1002   */\n      tag_102\n        /* \"#utility.yul\":994:1001   */\n      dup5\n        /* \"#utility.yul\":985:991   */\n      dup3\n        /* \"#utility.yul\":974:983   */\n      dup6\n        /* \"#utility.yul\":970:992   */\n      add\n        /* \"#utility.yul\":949:1002   */\n      tag_79\n      jump\t// in\n    tag_102:\n        /* \"#utility.yul\":939:1002   */\n      swap2\n      pop\n        /* \"#utility.yul\":895:1012   */\n      pop\n        /* \"#utility.yul\":690:1019   */\n      swap3\n      swap2\n      pop\n      pop\n      jump\t// out\n        /* \"#utility.yul\":1025:1143   */\n    tag_80:\n        /* \"#utility.yul\":1112:1136   */\n      tag_104\n        /* \"#utility.yul\":1130:1135   */\n      dup2\n        /* \"#utility.yul\":1112:1136   */\n      tag_77\n      jump\t// in\n    tag_104:\n        /* \"#utility.yul\":1107:1110   */\n      dup3\n        /* \"#utility.yul\":1100:1137   */\n      mstore\n        /* \"#utility.yul\":1025:1143   */\n      pop\n      pop\n      jump\t// out\n        /* \"#utility.yul\":1149:1371   */\n    tag_20:\n        /* \"#utility.yul\":1242:1246   */\n      0x00\n        /* \"#utility.yul\":1280:1282   */\n      0x20\n        /* \"#utility.yul\":1269:1278   */\n      dup3\n        /* \"#utility.yul\":1265:1283   */\n      add\n        /* \"#utility.yul\":1257:1283   */\n      swap1\n      pop\n        /* \"#utility.yul\":1293:1364   */\n      tag_106\n        /* \"#utility.yul\":1361:1362   */\n      0x00\n        /* \"#utility.yul\":1350:1359   */\n      dup4\n        /* \"#utility.yul\":1346:1363   */\n      add\n        /* \"#utility.yul\":1337:1343   */\n      dup5\n        /* \"#utility.yul\":1293:1364   */\n      tag_80\n      jump\t// in\n    tag_106:\n        /* \"#utility.yul\":1149:1371   */\n      swap3\n      swap2\n      pop\n      pop\n      jump\t// out\n        /* \"#utility.yul\":1377:1709   */\n    tag_30:\n        /* \"#utility.yul\":1498:1502   */\n      0x00\n        /* \"#utility.yul\":1536:1538   */\n      0x40\n        /* \"#utility.yul\":1525:1534   */\n      dup3\n        /* \"#utility.yul\":1521:1539   */\n      add\n        /* \"#utility.yul\":1513:1539   */\n      swap1\n      pop\n        /* \"#utility.yul\":1549:1620   */\n      tag_108\n        /* \"#utility.yul\":1617:1618   */\n      0x00\n        /* \"#utility.yul\":1606:1615   */\n      dup4\n        /* \"#utility.yul\":1602:1619   */\n      add\n        /* \"#utility.yul\":1593:1599   */\n      dup6\n        /* \"#utility.yul\":1549:1620   */\n      tag_80\n      jump\t// in\n    tag_108:\n        /* \"#utility.yul\":1630:1702   */\n      tag_109\n        /* \"#utility.yul\":1698:1700   */\n      0x20\n        /* \"#utility.yul\":1687:1696   */\n      dup4\n        /* \"#utility.yul\":1683:1701   */\n      add\n        /* \"#utility.yul\":1674:1680   */\n      dup5\n        /* \"#utility.yul\":1630:1702   */\n      tag_80\n      jump\t// in\n    tag_109:\n        /* \"#utility.yul\":1377:1709   */\n      swap4\n      swap3\n      pop\n      pop\n      pop\n      jump\t// out\n        /* \"#utility.yul\":1715:1884   */\n    tag_81:\n        /* \"#utility.yul\":1799:1810   */\n      0x00\n        /* \"#utility.yul\":1833:1839   */\n      dup3\n        /* \"#utility.yul\":1828:1831   */\n      dup3\n        /* \"#utility.yul\":1821:1840   */\n      mstore\n        /* \"#utility.yul\":1873:1877   */\n      0x20\n        /* \"#utility.yul\":1868:1871   */\n      dup3\n        /* \"#utility.yul\":1864:1878   */\n      add\n        /* \"#utility.yul\":1849:1878   */\n      swap1\n      pop\n        /* \"#utility.yul\":1715:1884   */\n      swap3\n      swap2\n      pop\n      pop\n      jump\t// out\n        /* \"#utility.yul\":1890:2053   */\n    tag_82:\n        /* \"#utility.yul\":2030:2045   */\n      0x4d6178203130302063616c6c7300000000000000000000000000000000000000\n        /* \"#utility.yul\":2026:2027   */\n      0x00\n        /* \"#utility.yul\":2018:2024   */\n      dup3\n        /* \"#utility.yul\":2014:2028   */\n      add\n        /* \"#utility.yul\":2007:2046   */\n      mstore\n        /* \"#utility.yul\":1890:2053   */\n      pop\n      jump\t// out\n        /* \"#utility.yul\":2059:2425   */\n    tag_83:\n        /* \"#utility.yul\":2201:2204   */\n      0x00\n        /* \"#utility.yul\":2222:2289   */\n      tag_113\n        /* \"#utility.yul\":2286:2288   */\n      0x0d\n        /* \"#utility.yul\":2281:2284   */\n      dup4\n        /* \"#utility.yul\":2222:2289   */\n      tag_81\n      jump\t// in\n    tag_113:\n        /* \"#utility.yul\":2215:2289   */\n      swap2\n      pop\n        /* \"#utility.yul\":2298:2391   */\n      tag_114\n        /* \"#utility.yul\":2387:2390   */\n      dup3\n        /* \"#utility.yul\":2298:2391   */\n      tag_82\n      jump\t// in\n    tag_114:\n        /* \"#utility.yul\":2416:2418   */\n      0x20\n        /* \"#utility.yul\":2411:2414   */\n      dup3\n        /* \"#utility.yul\":2407:2419   */\n      add\n        /* \"#utility.yul\":2400:2419   */\n      swap1\n      pop\n        /* \"#utility.yul\":2059:2425   */\n      swap2\n      swap1\n      pop\n      jump\t// out\n        /* \"#utility.yul\":2431:2850   */\n    tag_45:\n        /* \"#utility.yul\":2597:2601   */\n      0x00\n        /* \"#utility.yul\":2635:2637   */\n      0x20\n        /* \"#utility.yul\":2624:2633   */\n      dup3\n        /* \"#utility.yul\":2620:2638   */\n      add\n        /* \"#utility.yul\":2612:2638   */\n      swap1\n      pop\n        /* \"#utility.yul\":2684:2693   */\n      dup2\n        /* \"#utility.yul\":2678:2682   */\n      dup2\n        /* \"#utility.yul\":2674:2694   */\n      sub\n        /* \"#utility.yul\":2670:2671   */\n      0x00\n        /* \"#utility.yul\":2659:2668   */\n      dup4\n        /* \"#utility.yul\":2655:2672   */\n      add\n        /* \"#utility.yul\":2648:2695   */\n      mstore\n        /* \"#utility.yul\":2712:2843   */\n      tag_116\n        /* \"#utility.yul\":2838:2842   */\n      dup2\n        /* \"#utility.yul\":2712:2843   */\n      tag_83\n      jump\t// in\n    tag_116:\n        /* \"#utility.yul\":2704:2843   */\n      swap1\n      pop\n        /* \"#utility.yul\":2431:2850   */\n      swap2\n      swap1\n      pop\n      jump\t// out\n        /* \"#utility.yul\":2856:3036   */\n    tag_84:\n        /* \"#utility.yul\":2904:2981   */\n      0x4e487b7100000000000000000000000000000000000000000000000000000000\n        /* \"#utility.yul\":2901:2902   */\n      0x00\n        /* \"#utility.yul\":2894:2982   */\n      mstore\n        /* \"#utility.yul\":3001:3005   */\n      0x11\n        /* \"#utility.yul\":2998:2999   */\n      0x04\n        /* \"#utility.yul\":2991:3006   */\n      mstore\n        /* \"#utility.yul\":3025:3029   */\n      0x24\n        /* \"#utility.yul\":3022:3023   */\n      0x00\n        /* \"#utility.yul\":3015:3030   */\n      revert\n        /* \"#utility.yul\":3042:3236   */\n    tag_51:\n        /* \"#utility.yul\":3082:3086   */\n      0x00\n        /* \"#utility.yul\":3102:3122   */\n      tag_119\n        /* \"#utility.yul\":3120:3121   */\n      dup3\n        /* \"#utility.yul\":3102:3122   */\n      tag_77\n      jump\t// in\n    tag_119:\n        /* \"#utility.yul\":3097:3122   */\n      swap2\n      pop\n        /* \"#utility.yul\":3136:3156   */\n      tag_120\n        /* \"#utility.yul\":3154:3155   */\n      dup4\n        /* \"#utility.yul\":3136:3156   */\n      tag_77\n      jump\t// in\n    tag_120:\n        /* \"#utility.yul\":3131:3156   */\n      swap3\n      pop\n        /* \"#utility.yul\":3180:3181   */\n      dup3\n        /* \"#utility.yul\":3177:3178   */\n      dup3\n        /* \"#utility.yul\":3173:3182   */\n      sub\n        /* \"#utility.yul\":3165:3182   */\n      swap1\n      pop\n        /* \"#utility.yul\":3204:3205   */\n      dup2\n        /* \"#utility.yul\":3198:3202   */\n      dup2\n        /* \"#utility.yul\":3195:3206   */\n      gt\n        /* \"#utility.yul\":3192:3229   */\n      iszero\n      tag_121\n      jumpi\n        /* \"#utility.yul\":3209:3227   */\n      tag_122\n      tag_84\n      jump\t// in\n    tag_122:\n        /* \"#utility.yul\":3192:3229   */\n    tag_121:\n        /* \"#utility.yul\":3042:3236   */\n      swap3\n      swap2\n      pop\n      pop\n      jump\t// out\n        /* \"#utility.yul\":3242:3400   */\n    tag_85:\n        /* \"#utility.yul\":3382:3392   */\n      0x496e7465726e616c000000000000000000000000000000000000000000000000\n        /* \"#utility.yul\":3378:3379   */\n      0x00\n        /* \"#utility.yul\":3370:3376   */\n      dup3\n        /* \"#utility.yul\":3366:3380   */\n      add\n        /* \"#utility.yul\":3359:3393   */\n      mstore\n        /* \"#utility.yul\":3242:3400   */\n      pop\n      jump\t// out\n        /* \"#utility.yul\":3406:3771   */\n    tag_86:\n        /* \"#utility.yul\":3548:3551   */\n      0x00\n        /* \"#utility.yul\":3569:3635   */\n      tag_125\n        /* \"#utility.yul\":3633:3634   */\n      0x08\n        /* \"#utility.yul\":3628:3631   */\n      dup4\n        /* \"#utility.yul\":3569:3635   */\n      tag_81\n      jump\t// in\n    tag_125:\n        /* \"#utility.yul\":3562:3635   */\n      swap2\n      pop\n        /* \"#utility.yul\":3644:3737   */\n      tag_126\n        /* \"#utility.yul\":3733:3736   */\n      dup3\n        /* \"#utility.yul\":3644:3737   */\n      tag_85\n      jump\t// in\n    tag_126:\n        /* \"#utility.yul\":3762:3764   */\n      0x20\n        /* \"#utility.yul\":3757:3760   */\n      dup3\n        /* \"#utility.yul\":3753:3765   */\n      add\n        /* \"#utility.yul\":3746:3765   */\n      swap1\n      pop\n        /* \"#utility.yul\":3406:3771   */\n      swap2\n      swap1\n      pop\n      jump\t// out\n        /* \"#utility.yul\":3777:4306   */\n    tag_53:\n        /* \"#utility.yul\":3971:3975   */\n      0x00\n        /* \"#utility.yul\":4009:4011   */\n      0x40\n        /* \"#utility.yul\":3998:4007   */\n      dup3\n        /* \"#utility.yul\":3994:4012   */\n      add\n        /* \"#utility.yul\":3986:4012   */\n      swap1\n      pop\n        /* \"#utility.yul\":4058:4067   */\n      dup2\n        /* \"#utility.yul\":4052:4056   */\n      dup2\n        /* \"#utility.yul\":4048:4068   */\n      sub\n        /* \"#utility.yul\":4044:4045   */\n      0x00\n        /* \"#utility.yul\":4033:4042   */\n      dup4\n        /* \"#utility.yul\":4029:4046   */\n      add\n        /* \"#utility.yul\":4022:4069   */\n      mstore\n        /* \"#utility.yul\":4086:4217   */\n      tag_128\n        /* \"#utility.yul\":4212:4216   */\n      dup2\n        /* \"#utility.yul\":4086:4217   */\n      tag_86\n      jump\t// in\n    tag_128:\n        /* \"#utility.yul\":4078:4217   */\n      swap1\n      pop\n        /* \"#utility.yul\":4227:4299   */\n      tag_129\n        /* \"#utility.yul\":4295:4297   */\n      0x20\n        /* \"#utility.yul\":4284:4293   */\n      dup4\n        /* \"#utility.yul\":4280:4298   */\n      add\n        /* \"#utility.yul\":4271:4277   */\n      dup5\n        /* \"#utility.yul\":4227:4299   */\n      tag_80\n      jump\t// in\n    tag_129:\n        /* \"#utility.yul\":3777:4306   */\n      swap3\n      swap2\n      pop\n      pop\n      jump\t// out\n        /* \"#utility.yul\":4312:4545   */\n    tag_58:\n        /* \"#utility.yul\":4351:4354   */\n      0x00\n        /* \"#utility.yul\":4374:4398   */\n      tag_131\n        /* \"#utility.yul\":4392:4397   */\n      dup3\n        /* \"#utility.yul\":4374:4398   */\n      tag_77\n      jump\t// in\n    tag_131:\n        /* \"#utility.yul\":4365:4398   */\n      swap2\n      pop\n        /* \"#utility.yul\":4420:4486   */\n      0xffffffffffffffffffffffffffffffffffffffffffffffffffffffffffffffff\n        /* \"#utility.yul\":4413:4418   */\n      dup3\n        /* \"#utility.yul\":4410:4487   */\n      sub\n        /* \"#utility.yul\":4407:4510   */\n      tag_132\n      jumpi\n        /* \"#utility.yul\":4490:4508   */\n      tag_133\n      tag_84\n      jump\t// in\n    tag_133:\n        /* \"#utility.yul\":4407:4510   */\n    tag_132:\n        /* \"#utility.yul\":4537:4538   */\n      0x01\n        /* \"#utility.yul\":4530:4535   */\n      dup3\n        /* \"#utility.yul\":4526:4539   */\n      add\n        /* \"#utility.yul\":4519:4539   */\n      swap1\n      pop\n        /* \"#utility.yul\":4312:4545   */\n      swap2\n      swap1\n      pop\n      jump\t// out\n        /* \"#utility.yul\":4551:4709   */\n    tag_87:\n        /* \"#utility.yul\":4691:4701   */\n      0x45787465726e616c000000000000000000000000000000000000000000000000\n        /* \"#utility.yul\":4687:4688   */\n      0x00\n        /* \"#utility.yul\":4679:4685   */\n      dup3\n        /* \"#utility.yul\":4675:4689   */\n      add\n        /* \"#utility.yul\":4668:4702   */\n      mstore\n        /* \"#utility.yul\":4551:4709   */\n      pop\n      jump\t// out\n        /* \"#utility.yul\":4715:5080   */\n    tag_88:\n        /* \"#utility.yul\":4857:4860   */\n      0x00\n        /* \"#utility.yul\":4878:4944   */\n      tag_136\n        /* \"#utility.yul\":4942:4943   */\n      0x08\n        /* \"#utility.yul\":4937:4940   */\n      dup4\n        /* \"#utility.yul\":4878:4944   */\n      tag_81\n      jump\t// in\n    tag_136:\n        /* \"#utility.yul\":4871:4944   */\n      swap2\n      pop\n        /* \"#utility.yul\":4953:5046   */\n      tag_137\n        /* \"#utility.yul\":5042:5045   */\n      dup3\n        /* \"#utility.yul\":4953:5046   */\n      tag_87\n      jump\t// in\n    tag_137:\n        /* \"#utility.yul\":5071:5073   */\n      0x20\n        /* \"#utility.yul\":5066:5069   */\n      dup3\n        /* \"#utility.yul\":5062:5074   */\n      add\n        /* \"#utility.yul\":5055:5074   */\n      swap1\n      pop\n        /* \"#utility.yul\":4715:5080   */\n      swap2\n      swap1\n      pop\n      jump\t// out\n        /* \"#utility.yul\":5086:5615   */\n    tag_73:\n        /* \"#utility.yul\":5280:5284   */\n      0x00\n        /* \"#utility.yul\":5318:5320   */\n      0x40\n        /* \"#utility.yul\":5307:5316   */\n      dup3\n        /* \"#utility.yul\":5303:5321   */\n      add\n        /* \"#utility.yul\":5295:5321   */\n      swap1\n      pop\n        /* \"#utility.yul\":5367:5376   */\n      dup2\n        /* \"#utility.yul\":5361:5365   */\n      dup2\n        /* \"#utility.yul\":5357:5377   */\n      sub\n        /* \"#utility.yul\":5353:5354   */\n      0x00\n        /* \"#utility.yul\":5342:5351   */\n      dup4\n        /* \"#utility.yul\":5338:5355   */\n      add\n        /* \"#utility.yul\":5331:5378   */\n      mstore\n        /* \"#utility.yul\":5395:5526   */\n      tag_139\n        /* \"#utility.yul\":5521:5525   */\n      dup2\n        /* \"#utility.yul\":5395:5526   */\n      tag_88\n      jump\t// in\n    tag_139:\n        /* \"#utility.yul\":5387:5526   */\n      swap1\n      pop\n        /* \"#utility.yul\":5536:5608   */\n      tag_140\n        /* \"#utility.yul\":5604:5606   */\n      0x20\n        /* \"#utility.yul\":5593:5602   */\n      dup4\n        /* \"#utility.yul\":5589:5607   */\n      add\n        /* \"#utility.yul\":5580:5586   */\n      dup5\n        /* \"#utility.yul\":5536:5608   */\n      tag_80\n      jump\t// in\n    tag_140:\n        /* \"#utility.yul\":5086:5615   */\n      swap3\n      swap2\n      pop\n      pop\n      jump\t// out\n\n    auxdata: 0xa264697066735822122059838da6cbb20b0aaae8d06ae8fadaa2e9dbdb3bcdf4e0a8c129a8378f2349f664736f6c63430008220033\n}\n",
				"bytecode": {
					"linkReferences": {},
					"object": "6080604052348015600e575f5ffd5b506106ec8061001c5f395ff3fe608060405234801561000f575f5ffd5b5060043610610091575f3560e01c80638f32aa78116100645780638f32aa781461010b578063b1e964fe1461012a578063d826f88f14610148578063de5021e014610152578063e93116b61461016e57610091565b80632326305f146100955780633af3f24f146100b157806361bc221a146100cf5780636561fd92146100ed575b5f5ffd5b6100af60048036038101906100aa9190610431565b61018a565b005b6100b9610245565b6040516100c6919061046b565b60405180910390f35b6100d761024b565b6040516100e4919061046b565b60405180910390f35b6100f5610250565b604051610102919061046b565b60405180910390f35b610113610256565b604051610121929190610484565b60405180910390f35b610132610266565b60405161013f919061046b565b60405180910390f35b61015061026c565b005b61016c60048036038101906101679190610431565b61027b565b005b61018860048036038101906101839190610431565b6102e2565b005b60648111156101ce576040517f08c379a00000000000000000000000000000000000000000000000000000000081526004016101c590610505565b60405180910390fd5b5f5a90505f5f90505b828110156101f5576101e88161027b565b80806001019150506101d7565b505a816102029190610550565b6002819055507f4d605d112b717b70b80f393cc6a0239ae0459508e54af125ee28f92acbf7fc4960025460405161023991906105cd565b60405180910390a15050565b60015481565b5f5481565b60025481565b5f5f600254600354915091509091565b60035481565b5f5f819055505f600181905550565b5f5f81548092919061028c906105f9565b919050555060015f8154809291906102a3906105f9565b91905055507f3928d16f1b83bc921c1b727730bac772d6fcb40349aa360f13d0eb4ee24e0516816040516102d7919061046b565b60405180910390a150565b6064811115610326576040517f08c379a000000000000000000000000000000000000000000000000000000000815260040161031d90610505565b60405180910390fd5b5f5a90505f5f90505b828110156103aa573073ffffffffffffffffffffffffffffffffffffffff1663de5021e0826040518263ffffffff1660e01b8152600401610370919061046b565b5f604051808303815f87803b158015610387575f5ffd5b505af1158015610399573d5f5f3e3d5ffd5b50505050808060010191505061032f565b505a816103b79190610550565b6003819055507f4d605d112b717b70b80f393cc6a0239ae0459508e54af125ee28f92acbf7fc496003546040516103ee919061068a565b60405180910390a15050565b5f5ffd5b5f819050919050565b610410816103fe565b811461041a575f5ffd5b50565b5f8135905061042b81610407565b92915050565b5f60208284031215610446576104456103fa565b5b5f6104538482850161041d565b91505092915050565b610465816103fe565b82525050565b5f60208201905061047e5f83018461045c565b92915050565b5f6040820190506104975f83018561045c565b6104a4602083018461045c565b9392505050565b5f82825260208201905092915050565b7f4d6178203130302063616c6c73000000000000000000000000000000000000005f82015250565b5f6104ef600d836104ab565b91506104fa826104bb565b602082019050919050565b5f6020820190508181035f83015261051c816104e3565b9050919050565b7f4e487b71000000000000000000000000000000000000000000000000000000005f52601160045260245ffd5b5f61055a826103fe565b9150610565836103fe565b925082820390508181111561057d5761057c610523565b5b92915050565b7f496e7465726e616c0000000000000000000000000000000000000000000000005f82015250565b5f6105b76008836104ab565b91506105c282610583565b602082019050919050565b5f6040820190508181035f8301526105e4816105ab565b90506105f3602083018461045c565b92915050565b5f610603826103fe565b91507fffffffffffffffffffffffffffffffffffffffffffffffffffffffffffffffff820361063557610634610523565b5b600182019050919050565b7f45787465726e616c0000000000000000000000000000000000000000000000005f82015250565b5f6106746008836104ab565b915061067f82610640565b602082019050919050565b5f6040820190508181035f8301526106a181610668565b90506106b0602083018461045c565b9291505056fea264697066735822122059838da6cbb20b0aaae8d06ae8fadaa2e9dbdb3bcdf4e0a8c129a8378f2349f664736f6c63430008220033",
					"opcodes": "PUSH1 0x80 PUSH1 0x40 MSTORE CALLVALUE DUP1 ISZERO PUSH1 0xE JUMPI PUSH0 PUSH0 REVERT JUMPDEST POP PUSH2 0x6EC DUP1 PUSH2 0x1C PUSH0 CODECOPY PUSH0 RETURN INVALID PUSH1 0x80 PUSH1 0x40 MSTORE CALLVALUE DUP1 ISZERO PUSH2 0xF JUMPI PUSH0 PUSH0 REVERT JUMPDEST POP PUSH1 0x4 CALLDATASIZE LT PUSH2 0x91 JUMPI PUSH0 CALLDATALOAD PUSH1 0xE0 SHR DUP1 PUSH4 0x8F32AA78 GT PUSH2 0x64 JUMPI DUP1 PUSH4 0x8F32AA78 EQ PUSH2 0x10B JUMPI DUP1 PUSH4 0xB1E964FE EQ PUSH2 0x12A JUMPI DUP1 PUSH4 0xD826F88F EQ PUSH2 0x148 JUMPI DUP1 PUSH4 0xDE5021E0 EQ PUSH2 0x152 JUMPI DUP1 PUSH4 0xE93116B6 EQ PUSH2 0x16E JUMPI PUSH2 0x91 JUMP JUMPDEST DUP1 PUSH4 0x2326305F EQ PUSH2 0x95 JUMPI DUP1 PUSH4 0x3AF3F24F EQ PUSH2 0xB1 JUMPI DUP1 PUSH4 0x61BC221A EQ PUSH2 0xCF JUMPI DUP1 PUSH4 0x6561FD92 EQ PUSH2 0xED JUMPI JUMPDEST PUSH0 PUSH0 REVERT JUMPDEST PUSH2 0xAF PUSH1 0x4 DUP1 CALLDATASIZE SUB DUP2 ADD SWAP1 PUSH2 0xAA SWAP2 SWAP1 PUSH2 0x431 JUMP JUMPDEST PUSH2 0x18A JUMP JUMPDEST STOP JUMPDEST PUSH2 0xB9 PUSH2 0x245 JUMP JUMPDEST PUSH1 0x40 MLOAD PUSH2 0xC6 SWAP2 SWAP1 PUSH2 0x46B JUMP JUMPDEST PUSH1 0x40 MLOAD DUP1 SWAP2 SUB SWAP1 RETURN JUMPDEST PUSH2 0xD7 PUSH2 0x24B JUMP JUMPDEST PUSH1 0x40 MLOAD PUSH2 0xE4 SWAP2 SWAP1 PUSH2 0x46B JUMP JUMPDEST PUSH1 0x40 MLOAD DUP1 SWAP2 SUB SWAP1 RETURN JUMPDEST PUSH2 0xF5 PUSH2 0x250 JUMP JUMPDEST PUSH1 0x40 MLOAD PUSH2 0x102 SWAP2 SWAP1 PUSH2 0x46B JUMP JUMPDEST PUSH1 0x40 MLOAD DUP1 SWAP2 SUB SWAP1 RETURN JUMPDEST PUSH2 0x113 PUSH2 0x256 JUMP JUMPDEST PUSH1 0x40 MLOAD PUSH2 0x121 SWAP3 SWAP2 SWAP1 PUSH2 0x484 JUMP JUMPDEST PUSH1 0x40 MLOAD DUP1 SWAP2 SUB SWAP1 RETURN JUMPDEST PUSH2 0x132 PUSH2 0x266 JUMP JUMPDEST PUSH1 0x40 MLOAD PUSH2 0x13F SWAP2 SWAP1 PUSH2 0x46B JUMP JUMPDEST PUSH1 0x40 MLOAD DUP1 SWAP2 SUB SWAP1 RETURN JUMPDEST PUSH2 0x150 PUSH2 0x26C JUMP JUMPDEST STOP JUMPDEST PUSH2 0x16C PUSH1 0x4 DUP1 CALLDATASIZE SUB DUP2 ADD SWAP1 PUSH2 0x167 SWAP2 SWAP1 PUSH2 0x431 JUMP JUMPDEST PUSH2 0x27B JUMP JUMPDEST STOP JUMPDEST PUSH2 0x188 PUSH1 0x4 DUP1 CALLDATASIZE SUB DUP2 ADD SWAP1 PUSH2 0x183 SWAP2 SWAP1 PUSH2 0x431 JUMP JUMPDEST PUSH2 0x2E2 JUMP JUMPDEST STOP JUMPDEST PUSH1 0x64 DUP2 GT ISZERO PUSH2 0x1CE JUMPI PUSH1 0x40 MLOAD PUSH32 0x8C379A000000000000000000000000000000000000000000000000000000000 DUP2 MSTORE PUSH1 0x4 ADD PUSH2 0x1C5 SWAP1 PUSH2 0x505 JUMP JUMPDEST PUSH1 0x40 MLOAD DUP1 SWAP2 SUB SWAP1 REVERT JUMPDEST PUSH0 GAS SWAP1 POP PUSH0 PUSH0 SWAP1 POP JUMPDEST DUP3 DUP2 LT ISZERO PUSH2 0x1F5 JUMPI PUSH2 0x1E8 DUP2 PUSH2 0x27B JUMP JUMPDEST DUP1 DUP1 PUSH1 0x1 ADD SWAP2 POP POP PUSH2 0x1D7 JUMP JUMPDEST POP GAS DUP2 PUSH2 0x202 SWAP2 SWAP1 PUSH2 0x550 JUMP JUMPDEST PUSH1 0x2 DUP2 SWAP1 SSTORE POP PUSH32 0x4D605D112B717B70B80F393CC6A0239AE0459508E54AF125EE28F92ACBF7FC49 PUSH1 0x2 SLOAD PUSH1 0x40 MLOAD PUSH2 0x239 SWAP2 SWAP1 PUSH2 0x5CD JUMP JUMPDEST PUSH1 0x40 MLOAD DUP1 SWAP2 SUB SWAP1 LOG1 POP POP JUMP JUMPDEST PUSH1 0x1 SLOAD DUP2 JUMP JUMPDEST PUSH0 SLOAD DUP2 JUMP JUMPDEST PUSH1 0x2 SLOAD DUP2 JUMP JUMPDEST PUSH0 PUSH0 PUSH1 0x2 SLOAD PUSH1 0x3 SLOAD SWAP2 POP SWAP2 POP SWAP1 SWAP2 JUMP JUMPDEST PUSH1 0x3 SLOAD DUP2 JUMP JUMPDEST PUSH0 PUSH0 DUP2 SWAP1 SSTORE POP PUSH0 PUSH1 0x1 DUP2 SWAP1 SSTORE POP JUMP JUMPDEST PUSH0 PUSH0 DUP2 SLOAD DUP1 SWAP3 SWAP2 SWAP1 PUSH2 0x28C SWAP1 PUSH2 0x5F9 JUMP JUMPDEST SWAP2 SWAP1 POP SSTORE POP PUSH1 0x1 PUSH0 DUP2 SLOAD DUP1 SWAP3 SWAP2 SWAP1 PUSH2 0x2A3 SWAP1 PUSH2 0x5F9 JUMP JUMPDEST SWAP2 SWAP1 POP SSTORE POP PUSH32 0x3928D16F1B83BC921C1B727730BAC772D6FCB40349AA360F13D0EB4EE24E0516 DUP2 PUSH1 0x40 MLOAD PUSH2 0x2D7 SWAP2 SWAP1 PUSH2 0x46B JUMP JUMPDEST PUSH1 0x40 MLOAD DUP1 SWAP2 SUB SWAP1 LOG1 POP JUMP JUMPDEST PUSH1 0x64 DUP2 GT ISZERO PUSH2 0x326 JUMPI PUSH1 0x40 MLOAD PUSH32 0x8C379A000000000000000000000000000000000000000000000000000000000 DUP2 MSTORE PUSH1 0x4 ADD PUSH2 0x31D SWAP1 PUSH2 0x505 JUMP JUMPDEST PUSH1 0x40 MLOAD DUP1 SWAP2 SUB SWAP1 REVERT JUMPDEST PUSH0 GAS SWAP1 POP PUSH0 PUSH0 SWAP1 POP JUMPDEST DUP3 DUP2 LT ISZERO PUSH2 0x3AA JUMPI ADDRESS PUSH20 0xFFFFFFFFFFFFFFFFFFFFFFFFFFFFFFFFFFFFFFFF AND PUSH4 0xDE5021E0 DUP3 PUSH1 0x40 MLOAD DUP3 PUSH4 0xFFFFFFFF AND PUSH1 0xE0 SHL DUP2 MSTORE PUSH1 0x4 ADD PUSH2 0x370 SWAP2 SWAP1 PUSH2 0x46B JUMP JUMPDEST PUSH0 PUSH1 0x40 MLOAD DUP1 DUP4 SUB DUP2 PUSH0 DUP8 DUP1 EXTCODESIZE ISZERO DUP1 ISZERO PUSH2 0x387 JUMPI PUSH0 PUSH0 REVERT JUMPDEST POP GAS CALL ISZERO DUP1 ISZERO PUSH2 0x399 JUMPI RETURNDATASIZE PUSH0 PUSH0 RETURNDATACOPY RETURNDATASIZE PUSH0 REVERT JUMPDEST POP POP POP POP DUP1 DUP1 PUSH1 0x1 ADD SWAP2 POP POP PUSH2 0x32F JUMP JUMPDEST POP GAS DUP2 PUSH2 0x3B7 SWAP2 SWAP1 PUSH2 0x550 JUMP JUMPDEST PUSH1 0x3 DUP2 SWAP1 SSTORE POP PUSH32 0x4D605D112B717B70B80F393CC6A0239AE0459508E54AF125EE28F92ACBF7FC49 PUSH1 0x3 SLOAD PUSH1 0x40 MLOAD PUSH2 0x3EE SWAP2 SWAP1 PUSH2 0x68A JUMP JUMPDEST PUSH1 0x40 MLOAD DUP1 SWAP2 SUB SWAP1 LOG1 POP POP JUMP JUMPDEST PUSH0 PUSH0 REVERT JUMPDEST PUSH0 DUP2 SWAP1 POP SWAP2 SWAP1 POP JUMP JUMPDEST PUSH2 0x410 DUP2 PUSH2 0x3FE JUMP JUMPDEST DUP2 EQ PUSH2 0x41A JUMPI PUSH0 PUSH0 REVERT JUMPDEST POP JUMP JUMPDEST PUSH0 DUP2 CALLDATALOAD SWAP1 POP PUSH2 0x42B DUP2 PUSH2 0x407 JUMP JUMPDEST SWAP3 SWAP2 POP POP JUMP JUMPDEST PUSH0 PUSH1 0x20 DUP3 DUP5 SUB SLT ISZERO PUSH2 0x446 JUMPI PUSH2 0x445 PUSH2 0x3FA JUMP JUMPDEST JUMPDEST PUSH0 PUSH2 0x453 DUP5 DUP3 DUP6 ADD PUSH2 0x41D JUMP JUMPDEST SWAP2 POP POP SWAP3 SWAP2 POP POP JUMP JUMPDEST PUSH2 0x465 DUP2 PUSH2 0x3FE JUMP JUMPDEST DUP3 MSTORE POP POP JUMP JUMPDEST PUSH0 PUSH1 0x20 DUP3 ADD SWAP1 POP PUSH2 0x47E PUSH0 DUP4 ADD DUP5 PUSH2 0x45C JUMP JUMPDEST SWAP3 SWAP2 POP POP JUMP JUMPDEST PUSH0 PUSH1 0x40 DUP3 ADD SWAP1 POP PUSH2 0x497 PUSH0 DUP4 ADD DUP6 PUSH2 0x45C JUMP JUMPDEST PUSH2 0x4A4 PUSH1 0x20 DUP4 ADD DUP5 PUSH2 0x45C JUMP JUMPDEST SWAP4 SWAP3 POP POP POP JUMP JUMPDEST PUSH0 DUP3 DUP3 MSTORE PUSH1 0x20 DUP3 ADD SWAP1 POP SWAP3 SWAP2 POP POP JUMP JUMPDEST PUSH32 0x4D6178203130302063616C6C7300000000000000000000000000000000000000 PUSH0 DUP3 ADD MSTORE POP JUMP JUMPDEST PUSH0 PUSH2 0x4EF PUSH1 0xD DUP4 PUSH2 0x4AB JUMP JUMPDEST SWAP2 POP PUSH2 0x4FA DUP3 PUSH2 0x4BB JUMP JUMPDEST PUSH1 0x20 DUP3 ADD SWAP1 POP SWAP2 SWAP1 POP JUMP JUMPDEST PUSH0 PUSH1 0x20 DUP3 ADD SWAP1 POP DUP2 DUP2 SUB PUSH0 DUP4 ADD MSTORE PUSH2 0x51C DUP2 PUSH2 0x4E3 JUMP JUMPDEST SWAP1 POP SWAP2 SWAP1 POP JUMP JUMPDEST PUSH32 0x4E487B7100000000000000000000000000000000000000000000000000000000 PUSH0 MSTORE PUSH1 0x11 PUSH1 0x4 MSTORE PUSH1 0x24 PUSH0 REVERT JUMPDEST PUSH0 PUSH2 0x55A DUP3 PUSH2 0x3FE JUMP JUMPDEST SWAP2 POP PUSH2 0x565 DUP4 PUSH2 0x3FE JUMP JUMPDEST SWAP3 POP DUP3 DUP3 SUB SWAP1 POP DUP2 DUP2 GT ISZERO PUSH2 0x57D JUMPI PUSH2 0x57C PUSH2 0x523 JUMP JUMPDEST JUMPDEST SWAP3 SWAP2 POP POP JUMP JUMPDEST PUSH32 0x496E7465726E616C000000000000000000000000000000000000000000000000 PUSH0 DUP3 ADD MSTORE POP JUMP JUMPDEST PUSH0 PUSH2 0x5B7 PUSH1 0x8 DUP4 PUSH2 0x4AB JUMP JUMPDEST SWAP2 POP PUSH2 0x5C2 DUP3 PUSH2 0x583 JUMP JUMPDEST PUSH1 0x20 DUP3 ADD SWAP1 POP SWAP2 SWAP1 POP JUMP JUMPDEST PUSH0 PUSH1 0x40 DUP3 ADD SWAP1 POP DUP2 DUP2 SUB PUSH0 DUP4 ADD MSTORE PUSH2 0x5E4 DUP2 PUSH2 0x5AB JUMP JUMPDEST SWAP1 POP PUSH2 0x5F3 PUSH1 0x20 DUP4 ADD DUP5 PUSH2 0x45C JUMP JUMPDEST SWAP3 SWAP2 POP POP JUMP JUMPDEST PUSH0 PUSH2 0x603 DUP3 PUSH2 0x3FE JUMP JUMPDEST SWAP2 POP PUSH32 0xFFFFFFFFFFFFFFFFFFFFFFFFFFFFFFFFFFFFFFFFFFFFFFFFFFFFFFFFFFFFFFFF DUP3 SUB PUSH2 0x635 JUMPI PUSH2 0x634 PUSH2 0x523 JUMP JUMPDEST JUMPDEST PUSH1 0x1 DUP3 ADD SWAP1 POP SWAP2 SWAP1 POP JUMP JUMPDEST PUSH32 0x45787465726E616C000000000000000000000000000000000000000000000000 PUSH0 DUP3 ADD MSTORE POP JUMP JUMPDEST PUSH0 PUSH2 0x674 PUSH1 0x8 DUP4 PUSH2 0x4AB JUMP JUMPDEST SWAP2 POP PUSH2 0x67F DUP3 PUSH2 0x640 JUMP JUMPDEST PUSH1 0x20 DUP3 ADD SWAP1 POP SWAP2 SWAP1 POP JUMP JUMPDEST PUSH0 PUSH1 0x40 DUP3 ADD SWAP1 POP DUP2 DUP2 SUB PUSH0 DUP4 ADD MSTORE PUSH2 0x6A1 DUP2 PUSH2 0x668 JUMP JUMPDEST SWAP1 POP PUSH2 0x6B0 PUSH1 0x20 DUP4 ADD DUP5 PUSH2 0x45C JUMP JUMPDEST SWAP3 SWAP2 POP POP JUMP INVALID LOG2 PUSH5 0x6970667358 0x22 SLT KECCAK256 MSIZE DUP4 DUP14 0xA6 0xCB 0xB2 SIGNEXTEND EXP 0xAA 0xE8 0xD0 PUSH11 0xE8FADAA2E9DBDB3BCDF4E0 0xA8 0xC1 0x29 0xA8 CALLDATACOPY DUP16 0x23 BLOBHASH 0xF6 PUSH5 0x736F6C6343 STOP ADDMOD 0x22 STOP CALLER "
				},
				"gasEstimates": {
					"creation": {
						"codeDepositCost": "354400",
						"executionCost": "391",
						"totalCost": "354791"
					},
					"external": {
						"compareGas()": "infinite",
						"counter()": "2469",
						"externalGasUsed()": "2447",
						"externalStyleStress(uint256)": "infinite",
						"internalGasUsed()": "2492",
						"reset()": "10212",
						"singleCall(uint256)": "infinite",
						"stressTest(uint256)": "infinite",
						"totalCalls()": "2448"
					}
				},
				"methodIdentifiers": {
					"compareGas()": "8f32aa78",
					"counter()": "61bc221a",
					"externalGasUsed()": "b1e964fe",
					"externalStyleStress(uint256)": "e93116b6",
					"internalGasUsed()": "6561fd92",
					"reset()": "d826f88f",
					"singleCall(uint256)": "de5021e0",
					"stressTest(uint256)": "2326305f",
					"totalCalls()": "3af3f24f"
				}
			},
			"storageLayout": {
				"storage": [
					{
						"astId": 3,
						"contract": "test73.sol:StressTestCalls",
						"label": "counter",
						"offset": 0,
						"slot": "0",
						"type": "t_uint256"
					},
					{
						"astId": 5,
						"contract": "test73.sol:StressTestCalls",
						"label": "totalCalls",
						"offset": 0,
						"slot": "1",
						"type": "t_uint256"
					},
					{
						"astId": 7,
						"contract": "test73.sol:StressTestCalls",
						"label": "internalGasUsed",
						"offset": 0,
						"slot": "2",
						"type": "t_uint256"
					},
					{
						"astId": 9,
						"contract": "test73.sol:StressTestCalls",
						"label": "externalGasUsed",
						"offset": 0,
						"slot": "3",
						"type": "t_uint256"
					}
				],
				"types": {
					"t_uint256": {
						"encoding": "inplace",
						"label": "uint256",
						"numberOfBytes": "32"
					}
				}
			},
			"userdoc": {
				"kind": "user",
				"methods": {},
				"version": 1
			}
		}
	}
}