{
	"test67.sol": {
		"GasScalingLoop": {
			"abi": [
				{
					"inputs": [
						{
							"internalType": "address",
							"name": "_worker",
							"type": "address"
						}
					],
					"stateMutability": "nonpayable",
					"type": "constructor"
				},
				{
					"inputs": [],
					"name": "finalSum",
					"outputs": [
						{
							"internalType": "uint256",
							"name": "",
							"type": "uint256"
						}
					],
					"stateMutability": "view",
					"type": "function"
				},
				{
					"inputs": [],
					"name": "gasUsed",
					"outputs": [
						{
							"internalType": "uint256",
							"name": "",
							"type": "uint256"
						}
					],
					"stateMutability": "view",
					"type": "function"
				},
				{
					"inputs": [],
					"name": "loop10000",
					"outputs": [],
					"stateMutability": "nonpayable",
					"type": "function"
				},
				{
					"inputs": [],
					"name": "totalIterations",
					"outputs": [
						{
							"internalType": "uint256",
							"name": "",
							"type": "uint256"
						}
					],
					"stateMutability": "view",
					"type": "function"
				},
				{
					"inputs": [],
					"name": "worker",
					"outputs": [
						{
							"internalType": "contract ExternalWorker",
							"name": "",
							"type": "address"
						}
					],
					"stateMutability": "view",
					"type": "function"
				}
			],
			"devdoc": {
				"kind": "dev",
				"methods": {},
				"version": 1
			},
			"evm": {
				"assembly": "    /* \"test67.sol\":16549:17433  contract GasScalingLoop {... */\n  mstore(0x40, 0x80)\n    /* \"test67.sol\":16711:16797  constructor(address _worker)... */\n  callvalue\n  dup1\n  iszero\n  tag_1\n  jumpi\n  revert(0x00, 0x00)\ntag_1:\n  pop\n  mload(0x40)\n  sub(codesize, bytecodeSize)\n  dup1\n  bytecodeSize\n  dup4\n  codecopy\n  dup2\n  dup2\n  add\n  0x40\n  mstore\n  dup2\n  add\n  swap1\n  tag_2\n  swap2\n  swap1\n  tag_3\n  jump\t// in\ntag_2:\n    /* \"test67.sol\":16780:16787  _worker */\n  dup1\n    /* \"test67.sol\":16756:16762  worker */\n  0x03\n  0x00\n    /* \"test67.sol\":16756:16788  worker = ExternalWorker(_worker) */\n  0x0100\n  exp\n  dup2\n  sload\n  dup2\n  0xffffffffffffffffffffffffffffffffffffffff\n  mul\n  not\n  and\n  swap1\n  dup4\n  0xffffffffffffffffffffffffffffffffffffffff\n  and\n  mul\n  or\n  swap1\n  sstore\n  pop\n    /* \"test67.sol\":16711:16797  constructor(address _worker)... */\n  pop\n    /* \"test67.sol\":16549:17433  contract GasScalingLoop {... */\n  jump(tag_6)\n    /* \"#utility.yul\":88:205   */\ntag_8:\n    /* \"#utility.yul\":197:198   */\n  0x00\n    /* \"#utility.yul\":194:195   */\n  0x00\n    /* \"#utility.yul\":187:199   */\n  revert\n    /* \"#utility.yul\":334:460   */\ntag_10:\n    /* \"#utility.yul\":371:378   */\n  0x00\n    /* \"#utility.yul\":411:453   */\n  0xffffffffffffffffffffffffffffffffffffffff\n    /* \"#utility.yul\":404:409   */\n  dup3\n    /* \"#utility.yul\":400:454   */\n  and\n    /* \"#utility.yul\":389:454   */\n  swap1\n  pop\n    /* \"#utility.yul\":334:460   */\n  swap2\n  swap1\n  pop\n  jump\t// out\n    /* \"#utility.yul\":466:562   */\ntag_11:\n    /* \"#utility.yul\":503:510   */\n  0x00\n    /* \"#utility.yul\":532:556   */\n  tag_20\n    /* \"#utility.yul\":550:555   */\n  dup3\n    /* \"#utility.yul\":532:556   */\n  tag_10\n  jump\t// in\ntag_20:\n    /* \"#utility.yul\":521:556   */\n  swap1\n  pop\n    /* \"#utility.yul\":466:562   */\n  swap2\n  swap1\n  pop\n  jump\t// out\n    /* \"#utility.yul\":568:690   */\ntag_12:\n    /* \"#utility.yul\":641:665   */\n  tag_22\n    /* \"#utility.yul\":659:664   */\n  dup2\n    /* \"#utility.yul\":641:665   */\n  tag_11\n  jump\t// in\ntag_22:\n    /* \"#utility.yul\":634:639   */\n  dup2\n    /* \"#utility.yul\":631:666   */\n  eq\n    /* \"#utility.yul\":621:684   */\n  tag_23\n  jumpi\n    /* \"#utility.yul\":680:681   */\n  0x00\n    /* \"#utility.yul\":677:678   */\n  0x00\n    /* \"#utility.yul\":670:682   */\n  revert\n    /* \"#utility.yul\":621:684   */\ntag_23:\n    /* \"#utility.yul\":568:690   */\n  pop\n  jump\t// out\n    /* \"#utility.yul\":696:839   */\ntag_13:\n    /* \"#utility.yul\":753:758   */\n  0x00\n    /* \"#utility.yul\":784:790   */\n  dup2\n    /* \"#utility.yul\":778:791   */\n  mload\n    /* \"#utility.yul\":769:791   */\n  swap1\n  pop\n    /* \"#utility.yul\":800:833   */\n  tag_25\n    /* \"#utility.yul\":827:832   */\n  dup2\n    /* \"#utility.yul\":800:833   */\n  tag_12\n  jump\t// in\ntag_25:\n    /* \"#utility.yul\":696:839   */\n  swap3\n  swap2\n  pop\n  pop\n  jump\t// out\n    /* \"#utility.yul\":845:1196   */\ntag_3:\n    /* \"#utility.yul\":915:921   */\n  0x00\n    /* \"#utility.yul\":964:966   */\n  0x20\n    /* \"#utility.yul\":952:961   */\n  dup3\n    /* \"#utility.yul\":943:950   */\n  dup5\n    /* \"#utility.yul\":939:962   */\n  sub\n    /* \"#utility.yul\":935:967   */\n  slt\n    /* \"#utility.yul\":932:1051   */\n  iszero\n  tag_27\n  jumpi\n    /* \"#utility.yul\":970:1049   */\n  tag_28\n  tag_8\n  jump\t// in\ntag_28:\n    /* \"#utility.yul\":932:1051   */\ntag_27:\n    /* \"#utility.yul\":1090:1091   */\n  0x00\n    /* \"#utility.yul\":1115:1179   */\n  tag_29\n    /* \"#utility.yul\":1171:1178   */\n  dup5\n    /* \"#utility.yul\":1162:1168   */\n  dup3\n    /* \"#utility.yul\":1151:1160   */\n  dup6\n    /* \"#utility.yul\":1147:1169   */\n  add\n    /* \"#utility.yul\":1115:1179   */\n  tag_13\n  jump\t// in\ntag_29:\n    /* \"#utility.yul\":1105:1179   */\n  swap2\n  pop\n    /* \"#utility.yul\":1061:1189   */\n  pop\n    /* \"#utility.yul\":845:1196   */\n  swap3\n  swap2\n  pop\n  pop\n  jump\t// out\n    /* \"test67.sol\":16549:17433  contract GasScalingLoop {... */\ntag_6:\n  dataSize(sub_0)\n  dup1\n  dataOffset(sub_0)\n  0x00\n  codecopy\n  0x00\n  return\nstop\n\nsub_0: assembly {\n        /* \"test67.sol\":16549:17433  contract GasScalingLoop {... */\n      mstore(0x40, 0x80)\n      callvalue\n      dup1\n      iszero\n      tag_1\n      jumpi\n      revert(0x00, 0x00)\n    tag_1:\n      pop\n      jumpi(tag_2, lt(calldatasize, 0x04))\n      shr(0xe0, calldataload(0x00))\n      dup1\n      0x283c91f4\n      eq\n      tag_3\n      jumpi\n      dup1\n      0x4d547ada\n      eq\n      tag_4\n      jumpi\n      dup1\n      0x592cdadd\n      eq\n      tag_5\n      jumpi\n      dup1\n      0xc87fde32\n      eq\n      tag_6\n      jumpi\n      dup1\n      0xeaa5e545\n      eq\n      tag_7\n      jumpi\n    tag_2:\n      revert(0x00, 0x00)\n        /* \"test67.sol\":16580:16610  uint256 public totalIterations */\n    tag_3:\n      tag_8\n      tag_9\n      jump\t// in\n    tag_8:\n      mload(0x40)\n      tag_10\n      swap2\n      swap1\n      tag_11\n      jump\t// in\n    tag_10:\n      mload(0x40)\n      dup1\n      swap2\n      sub\n      swap1\n      return\n        /* \"test67.sol\":16676:16704  ExternalWorker public worker */\n    tag_4:\n      tag_12\n      tag_13\n      jump\t// in\n    tag_12:\n      mload(0x40)\n      tag_14\n      swap2\n      swap1\n      tag_15\n      jump\t// in\n    tag_14:\n      mload(0x40)\n      dup1\n      swap2\n      sub\n      swap1\n      return\n        /* \"test67.sol\":16647:16669  uint256 public gasUsed */\n    tag_5:\n      tag_16\n      tag_17\n      jump\t// in\n    tag_16:\n      mload(0x40)\n      tag_18\n      swap2\n      swap1\n      tag_11\n      jump\t// in\n    tag_18:\n      mload(0x40)\n      dup1\n      swap2\n      sub\n      swap1\n      return\n        /* \"test67.sol\":16617:16640  uint256 public finalSum */\n    tag_6:\n      tag_19\n      tag_20\n      jump\t// in\n    tag_19:\n      mload(0x40)\n      tag_21\n      swap2\n      swap1\n      tag_11\n      jump\t// in\n    tag_21:\n      mload(0x40)\n      dup1\n      swap2\n      sub\n      swap1\n      return\n        /* \"test67.sol\":17047:17430  function loop10000()... */\n    tag_7:\n      tag_22\n      tag_23\n      jump\t// in\n    tag_22:\n      stop\n        /* \"test67.sol\":16580:16610  uint256 public totalIterations */\n    tag_9:\n      sload(0x00)\n      dup2\n      jump\t// out\n        /* \"test67.sol\":16676:16704  ExternalWorker public worker */\n    tag_13:\n      0x03\n      0x00\n      swap1\n      sload\n      swap1\n      0x0100\n      exp\n      swap1\n      div\n      0xffffffffffffffffffffffffffffffffffffffff\n      and\n      dup2\n      jump\t// out\n        /* \"test67.sol\":16647:16669  uint256 public gasUsed */\n    tag_17:\n      sload(0x02)\n      dup2\n      jump\t// out\n        /* \"test67.sol\":16617:16640  uint256 public finalSum */\n    tag_20:\n      sload(0x01)\n      dup2\n      jump\t// out\n        /* \"test67.sol\":17047:17430  function loop10000()... */\n    tag_23:\n        /* \"test67.sol\":17098:17114  uint256 startGas */\n      0x00\n        /* \"test67.sol\":17126:17135  gasleft() */\n      gas\n        /* \"test67.sol\":17098:17135  uint256 startGas =... */\n      swap1\n      pop\n        /* \"test67.sol\":17146:17157  uint256 sum */\n      0x00\n        /* \"test67.sol\":17160:17161  0 */\n      0x00\n        /* \"test67.sol\":17146:17161  uint256 sum = 0 */\n      swap1\n      pop\n        /* \"test67.sol\":17184:17193  uint256 i */\n      0x00\n        /* \"test67.sol\":17194:17195  0 */\n      0x00\n        /* \"test67.sol\":17184:17195  uint256 i=0 */\n      swap1\n      pop\n        /* \"test67.sol\":17169:17356  for (... */\n    tag_25:\n        /* \"test67.sol\":17210:17215  10000 */\n      0x2710\n        /* \"test67.sol\":17206:17207  i */\n      dup2\n        /* \"test67.sol\":17206:17215  i < 10000 */\n      lt\n        /* \"test67.sol\":17169:17356  for (... */\n      iszero\n      tag_26\n      jumpi\n        /* \"test67.sol\":17255:17256  i */\n      dup1\n        /* \"test67.sol\":17248:17256  sum += i */\n      dup3\n      tag_28\n      swap2\n      swap1\n      tag_29\n      jump\t// in\n    tag_28:\n      swap2\n      pop\n        /* \"test67.sol\":17304:17310  worker */\n      0x03\n      0x00\n      swap1\n      sload\n      swap1\n      0x0100\n      exp\n      swap1\n      div\n      0xffffffffffffffffffffffffffffffffffffffff\n      and\n        /* \"test67.sol\":17304:17317  worker.doWork */\n      0xffffffffffffffffffffffffffffffffffffffff\n      and\n      0x2630dd3a\n        /* \"test67.sol\":17304:17319  worker.doWork() */\n      mload(0x40)\n      dup2\n      0xffffffff\n      and\n      0xe0\n      shl\n      dup2\n      mstore\n      0x04\n      add\n      0x00\n      mload(0x40)\n      dup1\n      dup4\n      sub\n      dup2\n      0x00\n      dup8\n      dup1\n      extcodesize\n      iszero\n      dup1\n      iszero\n      tag_30\n      jumpi\n      revert(0x00, 0x00)\n    tag_30:\n      pop\n      gas\n      call\n      iszero\n      dup1\n      iszero\n      tag_32\n      jumpi\n      returndatacopy(0x00, 0x00, returndatasize)\n      revert(0x00, returndatasize)\n    tag_32:\n      pop\n      pop\n      pop\n      pop\n        /* \"test67.sol\":17330:17345  totalIterations */\n      0x00\n      0x00\n        /* \"test67.sol\":17330:17347  totalIterations++ */\n      dup2\n      sload\n      dup1\n      swap3\n      swap2\n      swap1\n      tag_33\n      swap1\n      tag_34\n      jump\t// in\n    tag_33:\n      swap2\n      swap1\n      pop\n      sstore\n      pop\n        /* \"test67.sol\":17226:17229  i++ */\n      dup1\n      dup1\n      0x01\n      add\n      swap2\n      pop\n      pop\n        /* \"test67.sol\":17169:17356  for (... */\n      jump(tag_25)\n    tag_26:\n      pop\n        /* \"test67.sol\":17374:17377  sum */\n      dup1\n        /* \"test67.sol\":17363:17371  finalSum */\n      0x01\n        /* \"test67.sol\":17363:17377  finalSum = sum */\n      dup2\n      swap1\n      sstore\n      pop\n        /* \"test67.sol\":17413:17422  gasleft() */\n      gas\n        /* \"test67.sol\":17402:17410  startGas */\n      dup3\n        /* \"test67.sol\":17402:17422  startGas - gasleft() */\n      tag_35\n      swap2\n      swap1\n      tag_36\n      jump\t// in\n    tag_35:\n        /* \"test67.sol\":17385:17392  gasUsed */\n      0x02\n        /* \"test67.sol\":17385:17422  gasUsed = ... */\n      dup2\n      swap1\n      sstore\n      pop\n        /* \"test67.sol\":17087:17430  {... */\n      pop\n      pop\n        /* \"test67.sol\":17047:17430  function loop10000()... */\n      jump\t// out\n        /* \"#utility.yul\":7:84   */\n    tag_37:\n        /* \"#utility.yul\":44:51   */\n      0x00\n        /* \"#utility.yul\":73:78   */\n      dup2\n        /* \"#utility.yul\":62:78   */\n      swap1\n      pop\n        /* \"#utility.yul\":7:84   */\n      swap2\n      swap1\n      pop\n      jump\t// out\n        /* \"#utility.yul\":90:208   */\n    tag_38:\n        /* \"#utility.yul\":177:201   */\n      tag_49\n        /* \"#utility.yul\":195:200   */\n      dup2\n        /* \"#utility.yul\":177:201   */\n      tag_37\n      jump\t// in\n    tag_49:\n        /* \"#utility.yul\":172:175   */\n      dup3\n        /* \"#utility.yul\":165:202   */\n      mstore\n        /* \"#utility.yul\":90:208   */\n      pop\n      pop\n      jump\t// out\n        /* \"#utility.yul\":214:436   */\n    tag_11:\n        /* \"#utility.yul\":307:311   */\n      0x00\n        /* \"#utility.yul\":345:347   */\n      0x20\n        /* \"#utility.yul\":334:343   */\n      dup3\n        /* \"#utility.yul\":330:348   */\n      add\n        /* \"#utility.yul\":322:348   */\n      swap1\n      pop\n        /* \"#utility.yul\":358:429   */\n      tag_51\n        /* \"#utility.yul\":426:427   */\n      0x00\n        /* \"#utility.yul\":415:424   */\n      dup4\n        /* \"#utility.yul\":411:428   */\n      add\n        /* \"#utility.yul\":402:408   */\n      dup5\n        /* \"#utility.yul\":358:429   */\n      tag_38\n      jump\t// in\n    tag_51:\n        /* \"#utility.yul\":214:436   */\n      swap3\n      swap2\n      pop\n      pop\n      jump\t// out\n        /* \"#utility.yul\":442:568   */\n    tag_39:\n        /* \"#utility.yul\":479:486   */\n      0x00\n        /* \"#utility.yul\":519:561   */\n      0xffffffffffffffffffffffffffffffffffffffff\n        /* \"#utility.yul\":512:517   */\n      dup3\n        /* \"#utility.yul\":508:562   */\n      and\n        /* \"#utility.yul\":497:562   */\n      swap1\n      pop\n        /* \"#utility.yul\":442:568   */\n      swap2\n      swap1\n      pop\n      jump\t// out\n        /* \"#utility.yul\":574:634   */\n    tag_40:\n        /* \"#utility.yul\":602:605   */\n      0x00\n        /* \"#utility.yul\":623:628   */\n      dup2\n        /* \"#utility.yul\":616:628   */\n      swap1\n      pop\n        /* \"#utility.yul\":574:634   */\n      swap2\n      swap1\n      pop\n      jump\t// out\n        /* \"#utility.yul\":640:782   */\n    tag_41:\n        /* \"#utility.yul\":690:699   */\n      0x00\n        /* \"#utility.yul\":723:776   */\n      tag_55\n        /* \"#utility.yul\":741:775   */\n      tag_56\n        /* \"#utility.yul\":750:774   */\n      tag_57\n        /* \"#utility.yul\":768:773   */\n      dup5\n        /* \"#utility.yul\":750:774   */\n      tag_39\n      jump\t// in\n    tag_57:\n        /* \"#utility.yul\":741:775   */\n      tag_40\n      jump\t// in\n    tag_56:\n        /* \"#utility.yul\":723:776   */\n      tag_39\n      jump\t// in\n    tag_55:\n        /* \"#utility.yul\":710:776   */\n      swap1\n      pop\n        /* \"#utility.yul\":640:782   */\n      swap2\n      swap1\n      pop\n      jump\t// out\n        /* \"#utility.yul\":788:914   */\n    tag_42:\n        /* \"#utility.yul\":838:847   */\n      0x00\n        /* \"#utility.yul\":871:908   */\n      tag_59\n        /* \"#utility.yul\":902:907   */\n      dup3\n        /* \"#utility.yul\":871:908   */\n      tag_41\n      jump\t// in\n    tag_59:\n        /* \"#utility.yul\":858:908   */\n      swap1\n      pop\n        /* \"#utility.yul\":788:914   */\n      swap2\n      swap1\n      pop\n      jump\t// out\n        /* \"#utility.yul\":920:1067   */\n    tag_43:\n        /* \"#utility.yul\":991:1000   */\n      0x00\n        /* \"#utility.yul\":1024:1061   */\n      tag_61\n        /* \"#utility.yul\":1055:1060   */\n      dup3\n        /* \"#utility.yul\":1024:1061   */\n      tag_42\n      jump\t// in\n    tag_61:\n        /* \"#utility.yul\":1011:1061   */\n      swap1\n      pop\n        /* \"#utility.yul\":920:1067   */\n      swap2\n      swap1\n      pop\n      jump\t// out\n        /* \"#utility.yul\":1073:1246   */\n    tag_44:\n        /* \"#utility.yul\":1181:1239   */\n      tag_63\n        /* \"#utility.yul\":1233:1238   */\n      dup2\n        /* \"#utility.yul\":1181:1239   */\n      tag_43\n      jump\t// in\n    tag_63:\n        /* \"#utility.yul\":1176:1179   */\n      dup3\n        /* \"#utility.yul\":1169:1240   */\n      mstore\n        /* \"#utility.yul\":1073:1246   */\n      pop\n      pop\n      jump\t// out\n        /* \"#utility.yul\":1252:1516   */\n    tag_15:\n        /* \"#utility.yul\":1366:1370   */\n      0x00\n        /* \"#utility.yul\":1404:1406   */\n      0x20\n        /* \"#utility.yul\":1393:1402   */\n      dup3\n        /* \"#utility.yul\":1389:1407   */\n      add\n        /* \"#utility.yul\":1381:1407   */\n      swap1\n      pop\n        /* \"#utility.yul\":1417:1509   */\n      tag_65\n        /* \"#utility.yul\":1506:1507   */\n      0x00\n        /* \"#utility.yul\":1495:1504   */\n      dup4\n        /* \"#utility.yul\":1491:1508   */\n      add\n        /* \"#utility.yul\":1482:1488   */\n      dup5\n        /* \"#utility.yul\":1417:1509   */\n      tag_44\n      jump\t// in\n    tag_65:\n        /* \"#utility.yul\":1252:1516   */\n      swap3\n      swap2\n      pop\n      pop\n      jump\t// out\n        /* \"#utility.yul\":1522:1702   */\n    tag_45:\n        /* \"#utility.yul\":1570:1647   */\n      0x4e487b7100000000000000000000000000000000000000000000000000000000\n        /* \"#utility.yul\":1567:1568   */\n      0x00\n        /* \"#utility.yul\":1560:1648   */\n      mstore\n        /* \"#utility.yul\":1667:1671   */\n      0x11\n        /* \"#utility.yul\":1664:1665   */\n      0x04\n        /* \"#utility.yul\":1657:1672   */\n      mstore\n        /* \"#utility.yul\":1691:1695   */\n      0x24\n        /* \"#utility.yul\":1688:1689   */\n      0x00\n        /* \"#utility.yul\":1681:1696   */\n      revert\n        /* \"#utility.yul\":1708:1899   */\n    tag_29:\n        /* \"#utility.yul\":1748:1751   */\n      0x00\n        /* \"#utility.yul\":1767:1787   */\n      tag_68\n        /* \"#utility.yul\":1785:1786   */\n      dup3\n        /* \"#utility.yul\":1767:1787   */\n      tag_37\n      jump\t// in\n    tag_68:\n        /* \"#utility.yul\":1762:1787   */\n      swap2\n      pop\n        /* \"#utility.yul\":1801:1821   */\n      tag_69\n        /* \"#utility.yul\":1819:1820   */\n      dup4\n        /* \"#utility.yul\":1801:1821   */\n      tag_37\n      jump\t// in\n    tag_69:\n        /* \"#utility.yul\":1796:1821   */\n      swap3\n      pop\n        /* \"#utility.yul\":1844:1845   */\n      dup3\n        /* \"#utility.yul\":1841:1842   */\n      dup3\n        /* \"#utility.yul\":1837:1846   */\n      add\n        /* \"#utility.yul\":1830:1846   */\n      swap1\n      pop\n        /* \"#utility.yul\":1865:1868   */\n      dup1\n        /* \"#utility.yul\":1862:1863   */\n      dup3\n        /* \"#utility.yul\":1859:1869   */\n      gt\n        /* \"#utility.yul\":1856:1892   */\n      iszero\n      tag_70\n      jumpi\n        /* \"#utility.yul\":1872:1890   */\n      tag_71\n      tag_45\n      jump\t// in\n    tag_71:\n        /* \"#utility.yul\":1856:1892   */\n    tag_70:\n        /* \"#utility.yul\":1708:1899   */\n      swap3\n      swap2\n      pop\n      pop\n      jump\t// out\n        /* \"#utility.yul\":1905:2138   */\n    tag_34:\n        /* \"#utility.yul\":1944:1947   */\n      0x00\n        /* \"#utility.yul\":1967:1991   */\n      tag_73\n        /* \"#utility.yul\":1985:1990   */\n      dup3\n        /* \"#utility.yul\":1967:1991   */\n      tag_37\n      jump\t// in\n    tag_73:\n        /* \"#utility.yul\":1958:1991   */\n      swap2\n      pop\n        /* \"#utility.yul\":2013:2079   */\n      0xffffffffffffffffffffffffffffffffffffffffffffffffffffffffffffffff\n        /* \"#utility.yul\":2006:2011   */\n      dup3\n        /* \"#utility.yul\":2003:2080   */\n      sub\n        /* \"#utility.yul\":2000:2103   */\n      tag_74\n      jumpi\n        /* \"#utility.yul\":2083:2101   */\n      tag_75\n      tag_45\n      jump\t// in\n    tag_75:\n        /* \"#utility.yul\":2000:2103   */\n    tag_74:\n        /* \"#utility.yul\":2130:2131   */\n      0x01\n        /* \"#utility.yul\":2123:2128   */\n      dup3\n        /* \"#utility.yul\":2119:2132   */\n      add\n        /* \"#utility.yul\":2112:2132   */\n      swap1\n      pop\n        /* \"#utility.yul\":1905:2138   */\n      swap2\n      swap1\n      pop\n      jump\t// out\n        /* \"#utility.yul\":2144:2338   */\n    tag_36:\n        /* \"#utility.yul\":2184:2188   */\n      0x00\n        /* \"#utility.yul\":2204:2224   */\n      tag_77\n        /* \"#utility.yul\":2222:2223   */\n      dup3\n        /* \"#utility.yul\":2204:2224   */\n      tag_37\n      jump\t// in\n    tag_77:\n        /* \"#utility.yul\":2199:2224   */\n      swap2\n      pop\n        /* \"#utility.yul\":2238:2258   */\n      tag_78\n        /* \"#utility.yul\":2256:2257   */\n      dup4\n        /* \"#utility.yul\":2238:2258   */\n      tag_37\n      jump\t// in\n    tag_78:\n        /* \"#utility.yul\":2233:2258   */\n      swap3\n      pop\n        /* \"#utility.yul\":2282:2283   */\n      dup3\n        /* \"#utility.yul\":2279:2280   */\n      dup3\n        /* \"#utility.yul\":2275:2284   */\n      sub\n        /* \"#utility.yul\":2267:2284   */\n      swap1\n      pop\n        /* \"#utility.yul\":2306:2307   */\n      dup2\n        /* \"#utility.yul\":2300:2304   */\n      dup2\n        /* \"#utility.yul\":2297:2308   */\n      gt\n        /* \"#utility.yul\":2294:2331   */\n      iszero\n      tag_79\n      jumpi\n        /* \"#utility.yul\":2311:2329   */\n      tag_80\n      tag_45\n      jump\t// in\n    tag_80:\n        /* \"#utility.yul\":2294:2331   */\n    tag_79:\n        /* \"#utility.yul\":2144:2338   */\n      swap3\n      swap2\n      pop\n      pop\n      jump\t// out\n\n    auxdata: 0xa26469706673582212203ea83a84ef13efe1bdcaf77334370207b288db39b2def5761c17438e6e865ee864736f6c63430008220033\n}\n",
				"bytecode": {
					"linkReferences": {},
					"object": "608060405234801561000f575f5ffd5b506040516104d43803806104d4833981810160405281019061003191906100d5565b8060035f6101000a81548173ffffffffffffffffffffffffffffffffffffffff021916908373ffffffffffffffffffffffffffffffffffffffff16021790555050610100565b5f5ffd5b5f73ffffffffffffffffffffffffffffffffffffffff82169050919050565b5f6100a48261007b565b9050919050565b6100b48161009a565b81146100be575f5ffd5b50565b5f815190506100cf816100ab565b92915050565b5f602082840312156100ea576100e9610077565b5b5f6100f7848285016100c1565b91505092915050565b6103c78061010d5f395ff3fe608060405234801561000f575f5ffd5b5060043610610055575f3560e01c8063283c91f4146100595780634d547ada14610077578063592cdadd14610095578063c87fde32146100b3578063eaa5e545146100d1575b5f5ffd5b6100616100db565b60405161006e919061020b565b60405180910390f35b61007f6100e0565b60405161008c919061029e565b60405180910390f35b61009d610105565b6040516100aa919061020b565b60405180910390f35b6100bb61010b565b6040516100c8919061020b565b60405180910390f35b6100d9610111565b005b5f5481565b60035f9054906101000a900473ffffffffffffffffffffffffffffffffffffffff1681565b60025481565b60015481565b5f5a90505f5f90505f5f90505b6127108110156101d557808261013491906102e4565b915060035f9054906101000a900473ffffffffffffffffffffffffffffffffffffffff1673ffffffffffffffffffffffffffffffffffffffff16632630dd3a6040518163ffffffff1660e01b81526004015f604051808303815f87803b15801561019c575f5ffd5b505af11580156101ae573d5f5f3e3d5ffd5b505050505f5f8154809291906101c390610317565b9190505550808060010191505061011e565b50806001819055505a826101e9919061035e565b6002819055505050565b5f819050919050565b610205816101f3565b82525050565b5f60208201905061021e5f8301846101fc565b92915050565b5f73ffffffffffffffffffffffffffffffffffffffff82169050919050565b5f819050919050565b5f61026661026161025c84610224565b610243565b610224565b9050919050565b5f6102778261024c565b9050919050565b5f6102888261026d565b9050919050565b6102988161027e565b82525050565b5f6020820190506102b15f83018461028f565b92915050565b7f4e487b71000000000000000000000000000000000000000000000000000000005f52601160045260245ffd5b5f6102ee826101f3565b91506102f9836101f3565b9250828201905080821115610311576103106102b7565b5b92915050565b5f610321826101f3565b91507fffffffffffffffffffffffffffffffffffffffffffffffffffffffffffffffff8203610353576103526102b7565b5b600182019050919050565b5f610368826101f3565b9150610373836101f3565b925082820390508181111561038b5761038a6102b7565b5b9291505056fea26469706673582212203ea83a84ef13efe1bdcaf77334370207b288db39b2def5761c17438e6e865ee864736f6c63430008220033",
					"opcodes": "PUSH1 0x80 PUSH1 0x40 MSTORE CALLVALUE DUP1 ISZERO PUSH2 0xF JUMPI PUSH0 PUSH0 REVERT JUMPDEST POP PUSH1 0x40 MLOAD PUSH2 0x4D4 CODESIZE SUB DUP1 PUSH2 0x4D4 DUP4 CODECOPY DUP2 DUP2 ADD PUSH1 0x40 MSTORE DUP2 ADD SWAP1 PUSH2 0x31 SWAP2 SWAP1 PUSH2 0xD5 JUMP JUMPDEST DUP1 PUSH1 0x3 PUSH0 PUSH2 0x100 EXP DUP2 SLOAD DUP2 PUSH20 0xFFFFFFFFFFFFFFFFFFFFFFFFFFFFFFFFFFFFFFFF MUL NOT AND SWAP1 DUP4 PUSH20 0xFFFFFFFFFFFFFFFFFFFFFFFFFFFFFFFFFFFFFFFF AND MUL OR SWAP1 SSTORE POP POP PUSH2 0x100 JUMP JUMPDEST PUSH0 PUSH0 REVERT JUMPDEST PUSH0 PUSH20 0xFFFFFFFFFFFFFFFFFFFFFFFFFFFFFFFFFFFFFFFF DUP3 AND SWAP1 POP SWAP2 SWAP1 POP JUMP JUMPDEST PUSH0 PUSH2 0xA4 DUP3 PUSH2 0x7B JUMP JUMPDEST SWAP1 POP SWAP2 SWAP1 POP JUMP JUMPDEST PUSH2 0xB4 DUP2 PUSH2 0x9A JUMP JUMPDEST DUP2 EQ PUSH2 0xBE JUMPI PUSH0 PUSH0 REVERT JUMPDEST POP JUMP JUMPDEST PUSH0 DUP2 MLOAD SWAP1 POP PUSH2 0xCF DUP2 PUSH2 0xAB JUMP JUMPDEST SWAP3 SWAP2 POP POP JUMP JUMPDEST PUSH0 PUSH1 0x20 DUP3 DUP5 SUB SLT ISZERO PUSH2 0xEA JUMPI PUSH2 0xE9 PUSH2 0x77 JUMP JUMPDEST JUMPDEST PUSH0 PUSH2 0xF7 DUP5 DUP3 DUP6 ADD PUSH2 0xC1 JUMP JUMPDEST SWAP2 POP POP SWAP3 SWAP2 POP POP JUMP JUMPDEST PUSH2 0x3C7 DUP1 PUSH2 0x10D PUSH0 CODECOPY PUSH0 RETURN INVALID PUSH1 0x80 PUSH1 0x40 MSTORE CALLVALUE DUP1 ISZERO PUSH2 0xF JUMPI PUSH0 PUSH0 REVERT JUMPDEST POP PUSH1 0x4 CALLDATASIZE LT PUSH2 0x55 JUMPI PUSH0 CALLDATALOAD PUSH1 0xE0 SHR DUP1 PUSH4 0x283C91F4 EQ PUSH2 0x59 JUMPI DUP1 PUSH4 0x4D547ADA EQ PUSH2 0x77 JUMPI DUP1 PUSH4 0x592CDADD EQ PUSH2 0x95 JUMPI DUP1 PUSH4 0xC87FDE32 EQ PUSH2 0xB3 JUMPI DUP1 PUSH4 0xEAA5E545 EQ PUSH2 0xD1 JUMPI JUMPDEST PUSH0 PUSH0 REVERT JUMPDEST PUSH2 0x61 PUSH2 0xDB JUMP JUMPDEST PUSH1 0x40 MLOAD PUSH2 0x6E SWAP2 SWAP1 PUSH2 0x20B JUMP JUMPDEST PUSH1 0x40 MLOAD DUP1 SWAP2 SUB SWAP1 RETURN JUMPDEST PUSH2 0x7F PUSH2 0xE0 JUMP JUMPDEST PUSH1 0x40 MLOAD PUSH2 0x8C SWAP2 SWAP1 PUSH2 0x29E JUMP JUMPDEST PUSH1 0x40 MLOAD DUP1 SWAP2 SUB SWAP1 RETURN JUMPDEST PUSH2 0x9D PUSH2 0x105 JUMP JUMPDEST PUSH1 0x40 MLOAD PUSH2 0xAA SWAP2 SWAP1 PUSH2 0x20B JUMP JUMPDEST PUSH1 0x40 MLOAD DUP1 SWAP2 SUB SWAP1 RETURN JUMPDEST PUSH2 0xBB PUSH2 0x10B JUMP JUMPDEST PUSH1 0x40 MLOAD PUSH2 0xC8 SWAP2 SWAP1 PUSH2 0x20B JUMP JUMPDEST PUSH1 0x40 MLOAD DUP1 SWAP2 SUB SWAP1 RETURN JUMPDEST PUSH2 0xD9 PUSH2 0x111 JUMP JUMPDEST STOP JUMPDEST PUSH0 SLOAD DUP2 JUMP JUMPDEST PUSH1 0x3 PUSH0 SWAP1 SLOAD SWAP1 PUSH2 0x100 EXP SWAP1 DIV PUSH20 0xFFFFFFFFFFFFFFFFFFFFFFFFFFFFFFFFFFFFFFFF AND DUP2 JUMP JUMPDEST PUSH1 0x2 SLOAD DUP2 JUMP JUMPDEST PUSH1 0x1 SLOAD DUP2 JUMP JUMPDEST PUSH0 GAS SWAP1 POP PUSH0 PUSH0 SWAP1 POP PUSH0 PUSH0 SWAP1 POP JUMPDEST PUSH2 0x2710 DUP2 LT ISZERO PUSH2 0x1D5 JUMPI DUP1 DUP3 PUSH2 0x134 SWAP2 SWAP1 PUSH2 0x2E4 JUMP JUMPDEST SWAP2 POP PUSH1 0x3 PUSH0 SWAP1 SLOAD SWAP1 PUSH2 0x100 EXP SWAP1 DIV PUSH20 0xFFFFFFFFFFFFFFFFFFFFFFFFFFFFFFFFFFFFFFFF AND PUSH20 0xFFFFFFFFFFFFFFFFFFFFFFFFFFFFFFFFFFFFFFFF AND PUSH4 0x2630DD3A PUSH1 0x40 MLOAD DUP2 PUSH4 0xFFFFFFFF AND PUSH1 0xE0 SHL DUP2 MSTORE PUSH1 0x4 ADD PUSH0 PUSH1 0x40 MLOAD DUP1 DUP4 SUB DUP2 PUSH0 DUP8 DUP1 EXTCODESIZE ISZERO DUP1 ISZERO PUSH2 0x19C JUMPI PUSH0 PUSH0 REVERT JUMPDEST POP GAS CALL ISZERO DUP1 ISZERO PUSH2 0x1AE JUMPI RETURNDATASIZE PUSH0 PUSH0 RETURNDATACOPY RETURNDATASIZE PUSH0 REVERT JUMPDEST POP POP POP POP PUSH0 PUSH0 DUP2 SLOAD DUP1 SWAP3 SWAP2 SWAP1 PUSH2 0x1C3 SWAP1 PUSH2 0x317 JUMP JUMPDEST SWAP2 SWAP1 POP SSTORE POP DUP1 DUP1 PUSH1 0x1 ADD SWAP2 POP POP PUSH2 0x11E JUMP JUMPDEST POP DUP1 PUSH1 0x1 DUP2 SWAP1 SSTORE POP GAS DUP3 PUSH2 0x1E9 SWAP2 SWAP1 PUSH2 0x35E JUMP JUMPDEST PUSH1 0x2 DUP2 SWAP1 SSTORE POP POP POP JUMP JUMPDEST PUSH0 DUP2 SWAP1 POP SWAP2 SWAP1 POP JUMP JUMPDEST PUSH2 0x205 DUP2 PUSH2 0x1F3 JUMP JUMPDEST DUP3 MSTORE POP POP JUMP JUMPDEST PUSH0 PUSH1 0x20 DUP3 ADD SWAP1 POP PUSH2 0x21E PUSH0 DUP4 ADD DUP5 PUSH2 0x1FC JUMP JUMPDEST SWAP3 SWAP2 POP POP JUMP JUMPDEST PUSH0 PUSH20 0xFFFFFFFFFFFFFFFFFFFFFFFFFFFFFFFFFFFFFFFF DUP3 AND SWAP1 POP SWAP2 SWAP1 POP JUMP JUMPDEST PUSH0 DUP2 SWAP1 POP SWAP2 SWAP1 POP JUMP JUMPDEST PUSH0 PUSH2 0x266 PUSH2 0x261 PUSH2 0x25C DUP5 PUSH2 0x224 JUMP JUMPDEST PUSH2 0x243 JUMP JUMPDEST PUSH2 0x224 JUMP JUMPDEST SWAP1 POP SWAP2 SWAP1 POP JUMP JUMPDEST PUSH0 PUSH2 0x277 DUP3 PUSH2 0x24C JUMP JUMPDEST SWAP1 POP SWAP2 SWAP1 POP JUMP JUMPDEST PUSH0 PUSH2 0x288 DUP3 PUSH2 0x26D JUMP JUMPDEST SWAP1 POP SWAP2 SWAP1 POP JUMP JUMPDEST PUSH2 0x298 DUP2 PUSH2 0x27E JUMP JUMPDEST DUP3 MSTORE POP POP JUMP JUMPDEST PUSH0 PUSH1 0x20 DUP3 ADD SWAP1 POP PUSH2 0x2B1 PUSH0 DUP4 ADD DUP5 PUSH2 0x28F JUMP JUMPDEST SWAP3 SWAP2 POP POP JUMP JUMPDEST PUSH32 0x4E487B7100000000000000000000000000000000000000000000000000000000 PUSH0 MSTORE PUSH1 0x11 PUSH1 0x4 MSTORE PUSH1 0x24 PUSH0 REVERT JUMPDEST PUSH0 PUSH2 0x2EE DUP3 PUSH2 0x1F3 JUMP JUMPDEST SWAP2 POP PUSH2 0x2F9 DUP4 PUSH2 0x1F3 JUMP JUMPDEST SWAP3 POP DUP3 DUP3 ADD SWAP1 POP DUP1 DUP3 GT ISZERO PUSH2 0x311 JUMPI PUSH2 0x310 PUSH2 0x2B7 JUMP JUMPDEST JUMPDEST SWAP3 SWAP2 POP POP JUMP JUMPDEST PUSH0 PUSH2 0x321 DUP3 PUSH2 0x1F3 JUMP JUMPDEST SWAP2 POP PUSH32 0xFFFFFFFFFFFFFFFFFFFFFFFFFFFFFFFFFFFFFFFFFFFFFFFFFFFFFFFFFFFFFFFF DUP3 SUB PUSH2 0x353 JUMPI PUSH2 0x352 PUSH2 0x2B7 JUMP JUMPDEST JUMPDEST PUSH1 0x1 DUP3 ADD SWAP1 POP SWAP2 SWAP1 POP JUMP JUMPDEST PUSH0 PUSH2 0x368 DUP3 PUSH2 0x1F3 JUMP JUMPDEST SWAP2 POP PUSH2 0x373 DUP4 PUSH2 0x1F3 JUMP JUMPDEST SWAP3 POP DUP3 DUP3 SUB SWAP1 POP DUP2 DUP2 GT ISZERO PUSH2 0x38B JUMPI PUSH2 0x38A PUSH2 0x2B7 JUMP JUMPDEST JUMPDEST SWAP3 SWAP2 POP POP JUMP INVALID LOG2 PUSH5 0x6970667358 0x22 SLT KECCAK256 RETURNDATACOPY 0xA8 GASPRICE DUP5 0xEF SGT 0xEF RJUMPI 0xBDCA 0xF7 PUSH20 0x34370207B288DB39B2DEF5761C17438E6E865EE8 PUSH5 0x736F6C6343 STOP ADDMOD 0x22 STOP CALLER "
				},
				"gasEstimates": {
					"creation": {
						"codeDepositCost": "193400",
						"executionCost": "infinite",
						"totalCost": "infinite"
					},
					"external": {
						"finalSum()": "2469",
						"gasUsed()": "2447",
						"loop10000()": "infinite",
						"totalIterations()": "2402",
						"worker()": "infinite"
					}
				},
				"methodIdentifiers": {
					"finalSum()": "c87fde32",
					"gasUsed()": "592cdadd",
					"loop10000()": "eaa5e545",
					"totalIterations()": "283c91f4",
					"worker()": "4d547ada"
				}
			},
			"storageLayout": {
				"storage": [
					{
						"astId": 13,
						"contract": "test67.sol:GasScalingLoop",
						"label": "totalIterations",
						"offset": 0,
						"slot": "0",
						"type": "t_uint256"
					},
					{
						"astId": 15,
						"contract": "test67.sol:GasScalingLoop",
						"label": "finalSum",
						"offset": 0,
						"slot": "1",
						"type": "t_uint256"
					},
					{
						"astId": 17,
						"contract": "test67.sol:GasScalingLoop",
						"label": "gasUsed",
						"offset": 0,
						"slot": "2",
						"type": "t_uint256"
					},
					{
						"astId": 20,
						"contract": "test67.sol:GasScalingLoop",
						"label": "worker",
						"offset": 0,
						"slot": "3",
						"type": "t_contract(ExternalWorker)11"
					}
				],
				"types": {
					"t_contract(ExternalWorker)11": {
						"encoding": "inplace",
						"label": "contract ExternalWorker",
						"numberOfBytes": "20"
					},
					"t_uint256": {
						"encoding": "inplace",
						"label": "uint256",
						"numberOfBytes": "32"
					}
				}
			},
			"userdoc": {
				"kind": "user",
				"methods": {},
				"version": 1
			}
		}
	}
}