{
	"test.71.sol": {
		"OutOfGasDemo": {
			"abi": [
				{
					"inputs": [
						{
							"internalType": "uint256",
							"name": "n",
							"type": "uint256"
						}
					],
					"name": "addMany",
					"outputs": [],
					"stateMutability": "nonpayable",
					"type": "function"
				},
				{
					"inputs": [],
					"name": "dangerousLoop",
					"outputs": [],
					"stateMutability": "nonpayable",
					"type": "function"
				},
				{
					"inputs": [
						{
							"internalType": "uint256",
							"name": "",
							"type": "uint256"
						}
					],
					"name": "data",
					"outputs": [
						{
							"internalType": "uint256",
							"name": "",
							"type": "uint256"
						}
					],
					"stateMutability": "view",
					"type": "function"
				},
				{
					"inputs": [
						{
							"internalType": "uint256",
							"name": "batchSize",
							"type": "uint256"
						}
					],
					"name": "estimateBatchGas",
					"outputs": [
						{
							"internalType": "uint256",
							"name": "",
							"type": "uint256"
						}
					],
					"stateMutability": "pure",
					"type": "function"
				},
				{
					"inputs": [],
					"name": "gasComparison",
					"outputs": [
						{
							"internalType": "uint256",
							"name": "unsafeGas",
							"type": "uint256"
						},
						{
							"internalType": "uint256",
							"name": "safeGas",
							"type": "uint256"
						}
					],
					"stateMutability": "view",
					"type": "function"
				},
				{
					"inputs": [],
					"name": "getLength",
					"outputs": [
						{
							"internalType": "uint256",
							"name": "",
							"type": "uint256"
						}
					],
					"stateMutability": "view",
					"type": "function"
				},
				{
					"inputs": [
						{
							"internalType": "uint256",
							"name": "start",
							"type": "uint256"
						},
						{
							"internalType": "uint256",
							"name": "batchSize",
							"type": "uint256"
						}
					],
					"name": "processChunk",
					"outputs": [],
					"stateMutability": "nonpayable",
					"type": "function"
				},
				{
					"inputs": [],
					"name": "safeGasUsed",
					"outputs": [
						{
							"internalType": "uint256",
							"name": "",
							"type": "uint256"
						}
					],
					"stateMutability": "view",
					"type": "function"
				},
				{
					"inputs": [],
					"name": "unsafeGasUsed",
					"outputs": [
						{
							"internalType": "uint256",
							"name": "",
							"type": "uint256"
						}
					],
					"stateMutability": "view",
					"type": "function"
				}
			],
			"devdoc": {
				"kind": "dev",
				"methods": {},
				"version": 1
			},
			"evm": {
				"assembly": "    /* \"test.71.sol\":11511:14179  contract OutOfGasDemo {... */\n  mstore(0x40, 0x80)\n  callvalue\n  dup1\n  iszero\n  tag_1\n  jumpi\n  revert(0x00, 0x00)\ntag_1:\n  pop\n  dataSize(sub_0)\n  dup1\n  dataOffset(sub_0)\n  0x00\n  codecopy\n  0x00\n  return\nstop\n\nsub_0: assembly {\n        /* \"test.71.sol\":11511:14179  contract OutOfGasDemo {... */\n      mstore(0x40, 0x80)\n      callvalue\n      dup1\n      iszero\n      tag_1\n      jumpi\n      revert(0x00, 0x00)\n    tag_1:\n      pop\n      jumpi(tag_2, lt(calldatasize, 0x04))\n      shr(0xe0, calldataload(0x00))\n      dup1\n      0x6a622364\n      gt\n      tag_12\n      jumpi\n      dup1\n      0x6a622364\n      eq\n      tag_7\n      jumpi\n      dup1\n      0x8dd7b84d\n      eq\n      tag_8\n      jumpi\n      dup1\n      0xbe1c766b\n      eq\n      tag_9\n      jumpi\n      dup1\n      0xd4d5e8d5\n      eq\n      tag_10\n      jumpi\n      dup1\n      0xf0ba8440\n      eq\n      tag_11\n      jumpi\n      jump(tag_2)\n    tag_12:\n      dup1\n      0x39ad3b0e\n      eq\n      tag_3\n      jumpi\n      dup1\n      0x3b19aeff\n      eq\n      tag_4\n      jumpi\n      dup1\n      0x58378b41\n      eq\n      tag_5\n      jumpi\n      dup1\n      0x62a5f171\n      eq\n      tag_6\n      jumpi\n    tag_2:\n      revert(0x00, 0x00)\n        /* \"test.71.sol\":13559:13789  function estimateBatchGas(... */\n    tag_3:\n      tag_13\n      0x04\n      dup1\n      calldatasize\n      sub\n      dup2\n      add\n      swap1\n      tag_14\n      swap2\n      swap1\n      tag_15\n      jump\t// in\n    tag_14:\n      tag_16\n      jump\t// in\n    tag_13:\n      mload(0x40)\n      tag_17\n      swap2\n      swap1\n      tag_18\n      jump\t// in\n    tag_17:\n      mload(0x40)\n      dup1\n      swap2\n      sub\n      swap1\n      return\n        /* \"test.71.sol\":13151:13395  function gasComparison()... */\n    tag_4:\n      tag_19\n      tag_20\n      jump\t// in\n    tag_19:\n      mload(0x40)\n      tag_21\n      swap3\n      swap2\n      swap1\n      tag_22\n      jump\t// in\n    tag_21:\n      mload(0x40)\n      dup1\n      swap2\n      sub\n      swap1\n      return\n        /* \"test.71.sol\":12365:12978  function processChunk(... */\n    tag_5:\n      tag_23\n      0x04\n      dup1\n      calldatasize\n      sub\n      dup2\n      add\n      swap1\n      tag_24\n      swap2\n      swap1\n      tag_25\n      jump\t// in\n    tag_24:\n      tag_26\n      jump\t// in\n    tag_23:\n      stop\n        /* \"test.71.sol\":11793:12158  function dangerousLoop()... */\n    tag_6:\n      tag_27\n      tag_28\n      jump\t// in\n    tag_27:\n      stop\n        /* \"test.71.sol\":11572:11600  uint256 public unsafeGasUsed */\n    tag_7:\n      tag_29\n      tag_30\n      jump\t// in\n    tag_29:\n      mload(0x40)\n      tag_31\n      swap2\n      swap1\n      tag_18\n      jump\t// in\n    tag_31:\n      mload(0x40)\n      dup1\n      swap2\n      sub\n      swap1\n      return\n        /* \"test.71.sol\":11607:11633  uint256 public safeGasUsed */\n    tag_8:\n      tag_32\n      tag_33\n      jump\t// in\n    tag_32:\n      mload(0x40)\n      tag_34\n      swap2\n      swap1\n      tag_18\n      jump\t// in\n    tag_34:\n      mload(0x40)\n      dup1\n      swap2\n      sub\n      swap1\n      return\n        /* \"test.71.sol\":14054:14176  function getLength()... */\n    tag_9:\n      tag_35\n      tag_36\n      jump\t// in\n    tag_35:\n      mload(0x40)\n      tag_37\n      swap2\n      swap1\n      tag_18\n      jump\t// in\n    tag_37:\n      mload(0x40)\n      dup1\n      swap2\n      sub\n      swap1\n      return\n        /* \"test.71.sol\":13797:14046  function addMany(... */\n    tag_10:\n      tag_38\n      0x04\n      dup1\n      calldatasize\n      sub\n      dup2\n      add\n      swap1\n      tag_39\n      swap2\n      swap1\n      tag_15\n      jump\t// in\n    tag_39:\n      tag_40\n      jump\t// in\n    tag_38:\n      stop\n        /* \"test.71.sol\":11542:11563  uint256[] public data */\n    tag_11:\n      tag_41\n      0x04\n      dup1\n      calldatasize\n      sub\n      dup2\n      add\n      swap1\n      tag_42\n      swap2\n      swap1\n      tag_15\n      jump\t// in\n    tag_42:\n      tag_43\n      jump\t// in\n    tag_41:\n      mload(0x40)\n      tag_44\n      swap2\n      swap1\n      tag_18\n      jump\t// in\n    tag_44:\n      mload(0x40)\n      dup1\n      swap2\n      sub\n      swap1\n      return\n        /* \"test.71.sol\":13559:13789  function estimateBatchGas(... */\n    tag_16:\n        /* \"test.71.sol\":13670:13677  uint256 */\n      0x00\n        /* \"test.71.sol\":13777:13780  250 */\n      0xfa\n        /* \"test.71.sol\":13765:13774  batchSize */\n      dup3\n        /* \"test.71.sol\":13765:13780  batchSize * 250 */\n      tag_46\n      swap2\n      swap1\n      tag_47\n      jump\t// in\n    tag_46:\n        /* \"test.71.sol\":13744:13748  5000 */\n      0x1388\n        /* \"test.71.sol\":13744:13781  5000 +... */\n      tag_48\n      swap2\n      swap1\n      tag_49\n      jump\t// in\n    tag_48:\n        /* \"test.71.sol\":13724:13781  return... */\n      swap1\n      pop\n        /* \"test.71.sol\":13559:13789  function estimateBatchGas(... */\n      swap2\n      swap1\n      pop\n      jump\t// out\n        /* \"test.71.sol\":13151:13395  function gasComparison()... */\n    tag_20:\n        /* \"test.71.sol\":13240:13257  uint256 unsafeGas */\n      0x00\n        /* \"test.71.sol\":13272:13287  uint256 safeGas */\n      0x00\n        /* \"test.71.sol\":13337:13350  unsafeGasUsed */\n      sload(0x01)\n        /* \"test.71.sol\":13365:13376  safeGasUsed */\n      sload(0x02)\n        /* \"test.71.sol\":13315:13387  return (... */\n      swap2\n      pop\n      swap2\n      pop\n        /* \"test.71.sol\":13151:13395  function gasComparison()... */\n      swap1\n      swap2\n      jump\t// out\n        /* \"test.71.sol\":12365:12978  function processChunk(... */\n    tag_26:\n        /* \"test.71.sol\":12480:12496  uint256 startGas */\n      0x00\n        /* \"test.71.sol\":12512:12521  gasleft() */\n      gas\n        /* \"test.71.sol\":12480:12521  uint256 startGas =... */\n      swap1\n      pop\n        /* \"test.71.sol\":12534:12545  uint256 end */\n      0x00\n        /* \"test.71.sol\":12569:12578  batchSize */\n      dup3\n        /* \"test.71.sol\":12561:12566  start */\n      dup5\n        /* \"test.71.sol\":12561:12578  start + batchSize */\n      tag_52\n      swap2\n      swap1\n      tag_49\n      jump\t// in\n    tag_52:\n        /* \"test.71.sol\":12534:12578  uint256 end =... */\n      swap1\n      pop\n        /* \"test.71.sol\":12615:12619  data */\n      0x00\n        /* \"test.71.sol\":12615:12626  data.length */\n      dup1\n      sload\n      swap1\n      pop\n        /* \"test.71.sol\":12609:12612  end */\n      dup2\n        /* \"test.71.sol\":12609:12626  end > data.length */\n      gt\n        /* \"test.71.sol\":12591:12699  if (... */\n      iszero\n      tag_53\n      jumpi\n        /* \"test.71.sol\":12676:12680  data */\n      0x00\n        /* \"test.71.sol\":12676:12687  data.length */\n      dup1\n      sload\n      swap1\n      pop\n        /* \"test.71.sol\":12653:12687  end =... */\n      swap1\n      pop\n        /* \"test.71.sol\":12591:12699  if (... */\n    tag_53:\n        /* \"test.71.sol\":12711:12722  uint256 sum */\n      0x00\n        /* \"test.71.sol\":12754:12763  uint256 i */\n      0x00\n        /* \"test.71.sol\":12766:12771  start */\n      dup6\n        /* \"test.71.sol\":12754:12771  uint256 i = start */\n      swap1\n      pop\n        /* \"test.71.sol\":12735:12911  for (... */\n    tag_54:\n        /* \"test.71.sol\":12790:12793  end */\n      dup3\n        /* \"test.71.sol\":12786:12787  i */\n      dup2\n        /* \"test.71.sol\":12786:12793  i < end */\n      lt\n        /* \"test.71.sol\":12735:12911  for (... */\n      iszero\n      tag_55\n      jumpi\n        /* \"test.71.sol\":12828:12832  data */\n      0x00\n        /* \"test.71.sol\":12833:12834  i */\n      dup2\n        /* \"test.71.sol\":12828:12835  data[i] */\n      dup2\n      sload\n      dup2\n      lt\n      tag_57\n      jumpi\n      tag_58\n      tag_59\n      jump\t// in\n    tag_58:\n    tag_57:\n      swap1\n      0x00\n      mstore\n      keccak256(0x00, 0x20)\n      add\n      sload\n        /* \"test.71.sol\":12821:12835  sum += data[i] */\n      dup3\n      tag_61\n      swap2\n      swap1\n      tag_49\n      jump\t// in\n    tag_61:\n      swap2\n      pop\n        /* \"test.71.sol\":12881:12884  ++i */\n      dup1\n      0x01\n      add\n      swap1\n      pop\n        /* \"test.71.sol\":12735:12911  for (... */\n      jump(tag_54)\n    tag_55:\n      pop\n        /* \"test.71.sol\":12961:12970  gasleft() */\n      gas\n        /* \"test.71.sol\":12950:12958  startGas */\n      dup4\n        /* \"test.71.sol\":12950:12970  startGas - gasleft() */\n      tag_62\n      swap2\n      swap1\n      tag_63\n      jump\t// in\n    tag_62:\n        /* \"test.71.sol\":12923:12934  safeGasUsed */\n      0x02\n        /* \"test.71.sol\":12923:12970  safeGasUsed =... */\n      dup2\n      swap1\n      sstore\n      pop\n        /* \"test.71.sol\":12469:12978  {... */\n      pop\n      pop\n      pop\n        /* \"test.71.sol\":12365:12978  function processChunk(... */\n      pop\n      pop\n      jump\t// out\n        /* \"test.71.sol\":11793:12158  function dangerousLoop()... */\n    tag_28:\n        /* \"test.71.sol\":11852:11868  uint256 startGas */\n      0x00\n        /* \"test.71.sol\":11884:11893  gasleft() */\n      gas\n        /* \"test.71.sol\":11852:11893  uint256 startGas =... */\n      swap1\n      pop\n        /* \"test.71.sol\":11906:11917  uint256 sum */\n      0x00\n        /* \"test.71.sol\":11949:11958  uint256 i */\n      0x00\n        /* \"test.71.sol\":11930:12089  for (... */\n    tag_65:\n        /* \"test.71.sol\":11977:11981  data */\n      0x00\n        /* \"test.71.sol\":11977:11988  data.length */\n      dup1\n      sload\n      swap1\n      pop\n        /* \"test.71.sol\":11973:11974  i */\n      dup2\n        /* \"test.71.sol\":11973:11988  i < data.length */\n      lt\n        /* \"test.71.sol\":11930:12089  for (... */\n      iszero\n      tag_66\n      jumpi\n        /* \"test.71.sol\":12040:12044  data */\n      0x00\n        /* \"test.71.sol\":12045:12046  i */\n      dup2\n        /* \"test.71.sol\":12040:12047  data[i] */\n      dup2\n      sload\n      dup2\n      lt\n      tag_68\n      jumpi\n      tag_69\n      tag_59\n      jump\t// in\n    tag_69:\n    tag_68:\n      swap1\n      0x00\n      mstore\n      keccak256(0x00, 0x20)\n      add\n      sload\n        /* \"test.71.sol\":12033:12047  sum += data[i] */\n      dup3\n      tag_71\n      swap2\n      swap1\n      tag_49\n      jump\t// in\n    tag_71:\n      swap2\n      pop\n        /* \"test.71.sol\":12074:12077  sum */\n      dup2\n        /* \"test.71.sol\":12064:12068  data */\n      0x00\n        /* \"test.71.sol\":12069:12070  i */\n      dup3\n        /* \"test.71.sol\":12064:12071  data[i] */\n      dup2\n      sload\n      dup2\n      lt\n      tag_72\n      jumpi\n      tag_73\n      tag_59\n      jump\t// in\n    tag_73:\n    tag_72:\n      swap1\n      0x00\n      mstore\n      keccak256(0x00, 0x20)\n      add\n        /* \"test.71.sol\":12064:12077  data[i] = sum */\n      dup2\n      swap1\n      sstore\n      pop\n        /* \"test.71.sol\":12003:12006  i++ */\n      dup1\n      dup1\n      0x01\n      add\n      swap2\n      pop\n      pop\n        /* \"test.71.sol\":11930:12089  for (... */\n      jump(tag_65)\n    tag_66:\n      pop\n        /* \"test.71.sol\":12141:12150  gasleft() */\n      gas\n        /* \"test.71.sol\":12130:12138  startGas */\n      dup3\n        /* \"test.71.sol\":12130:12150  startGas - gasleft() */\n      tag_75\n      swap2\n      swap1\n      tag_63\n      jump\t// in\n    tag_75:\n        /* \"test.71.sol\":12101:12114  unsafeGasUsed */\n      0x01\n        /* \"test.71.sol\":12101:12150  unsafeGasUsed =... */\n      dup2\n      swap1\n      sstore\n      pop\n        /* \"test.71.sol\":11841:12158  {... */\n      pop\n      pop\n        /* \"test.71.sol\":11793:12158  function dangerousLoop()... */\n      jump\t// out\n        /* \"test.71.sol\":11572:11600  uint256 public unsafeGasUsed */\n    tag_30:\n      sload(0x01)\n      dup2\n      jump\t// out\n        /* \"test.71.sol\":11607:11633  uint256 public safeGasUsed */\n    tag_33:\n      sload(0x02)\n      dup2\n      jump\t// out\n        /* \"test.71.sol\":14054:14176  function getLength()... */\n    tag_36:\n        /* \"test.71.sol\":14125:14132  uint256 */\n      0x00\n        /* \"test.71.sol\":14157:14161  data */\n      0x00\n        /* \"test.71.sol\":14157:14168  data.length */\n      dup1\n      sload\n      swap1\n      pop\n        /* \"test.71.sol\":14150:14168  return data.length */\n      swap1\n      pop\n        /* \"test.71.sol\":14054:14176  function getLength()... */\n      swap1\n      jump\t// out\n        /* \"test.71.sol\":13797:14046  function addMany(... */\n    tag_40:\n        /* \"test.71.sol\":13894:13903  uint256 i */\n      0x00\n        /* \"test.71.sol\":13875:14039  for (... */\n    tag_78:\n        /* \"test.71.sol\":13922:13923  n */\n      dup2\n        /* \"test.71.sol\":13918:13919  i */\n      dup2\n        /* \"test.71.sol\":13918:13923  i < n */\n      lt\n        /* \"test.71.sol\":13875:14039  for (... */\n      iszero\n      tag_79\n      jumpi\n        /* \"test.71.sol\":13951:13955  data */\n      0x00\n        /* \"test.71.sol\":13961:13962  i */\n      dup2\n        /* \"test.71.sol\":13951:13963  data.push(i) */\n      swap1\n      dup1\n      0x01\n      dup2\n      sload\n      add\n      dup1\n      dup3\n      sstore\n      dup1\n      swap2\n      pop\n      pop\n      0x01\n      swap1\n      sub\n      swap1\n      0x00\n      mstore\n      keccak256(0x00, 0x20)\n      add\n      0x00\n      swap1\n      swap2\n      swap1\n      swap2\n      swap1\n      swap2\n      pop\n      sstore\n        /* \"test.71.sol\":14009:14012  ++i */\n      dup1\n      0x01\n      add\n      swap1\n      pop\n        /* \"test.71.sol\":13875:14039  for (... */\n      jump(tag_78)\n    tag_79:\n      pop\n        /* \"test.71.sol\":13797:14046  function addMany(... */\n      pop\n      jump\t// out\n        /* \"test.71.sol\":11542:11563  uint256[] public data */\n    tag_43:\n      0x00\n      dup2\n      dup2\n      sload\n      dup2\n      lt\n      tag_82\n      jumpi\n      0x00\n      dup1\n      revert\n    tag_82:\n      swap1\n      0x00\n      mstore\n      keccak256(0x00, 0x20)\n      add\n      0x00\n      swap2\n      pop\n      swap1\n      pop\n      sload\n      dup2\n      jump\t// out\n        /* \"#utility.yul\":88:205   */\n    tag_85:\n        /* \"#utility.yul\":197:198   */\n      0x00\n        /* \"#utility.yul\":194:195   */\n      0x00\n        /* \"#utility.yul\":187:199   */\n      revert\n        /* \"#utility.yul\":334:411   */\n    tag_87:\n        /* \"#utility.yul\":371:378   */\n      0x00\n        /* \"#utility.yul\":400:405   */\n      dup2\n        /* \"#utility.yul\":389:405   */\n      swap1\n      pop\n        /* \"#utility.yul\":334:411   */\n      swap2\n      swap1\n      pop\n      jump\t// out\n        /* \"#utility.yul\":417:539   */\n    tag_88:\n        /* \"#utility.yul\":490:514   */\n      tag_98\n        /* \"#utility.yul\":508:513   */\n      dup2\n        /* \"#utility.yul\":490:514   */\n      tag_87\n      jump\t// in\n    tag_98:\n        /* \"#utility.yul\":483:488   */\n      dup2\n        /* \"#utility.yul\":480:515   */\n      eq\n        /* \"#utility.yul\":470:533   */\n      tag_99\n      jumpi\n        /* \"#utility.yul\":529:530   */\n      0x00\n        /* \"#utility.yul\":526:527   */\n      0x00\n        /* \"#utility.yul\":519:531   */\n      revert\n        /* \"#utility.yul\":470:533   */\n    tag_99:\n        /* \"#utility.yul\":417:539   */\n      pop\n      jump\t// out\n        /* \"#utility.yul\":545:684   */\n    tag_89:\n        /* \"#utility.yul\":591:596   */\n      0x00\n        /* \"#utility.yul\":629:635   */\n      dup2\n        /* \"#utility.yul\":616:636   */\n      calldataload\n        /* \"#utility.yul\":607:636   */\n      swap1\n      pop\n        /* \"#utility.yul\":645:678   */\n      tag_101\n        /* \"#utility.yul\":672:677   */\n      dup2\n        /* \"#utility.yul\":645:678   */\n      tag_88\n      jump\t// in\n    tag_101:\n        /* \"#utility.yul\":545:684   */\n      swap3\n      swap2\n      pop\n      pop\n      jump\t// out\n        /* \"#utility.yul\":690:1019   */\n    tag_15:\n        /* \"#utility.yul\":749:755   */\n      0x00\n        /* \"#utility.yul\":798:800   */\n      0x20\n        /* \"#utility.yul\":786:795   */\n      dup3\n        /* \"#utility.yul\":777:784   */\n      dup5\n        /* \"#utility.yul\":773:796   */\n      sub\n        /* \"#utility.yul\":769:801   */\n      slt\n        /* \"#utility.yul\":766:885   */\n      iszero\n      tag_103\n      jumpi\n        /* \"#utility.yul\":804:883   */\n      tag_104\n      tag_85\n      jump\t// in\n    tag_104:\n        /* \"#utility.yul\":766:885   */\n    tag_103:\n        /* \"#utility.yul\":924:925   */\n      0x00\n        /* \"#utility.yul\":949:1002   */\n      tag_105\n        /* \"#utility.yul\":994:1001   */\n      dup5\n        /* \"#utility.yul\":985:991   */\n      dup3\n        /* \"#utility.yul\":974:983   */\n      dup6\n        /* \"#utility.yul\":970:992   */\n      add\n        /* \"#utility.yul\":949:1002   */\n      tag_89\n      jump\t// in\n    tag_105:\n        /* \"#utility.yul\":939:1002   */\n      swap2\n      pop\n        /* \"#utility.yul\":895:1012   */\n      pop\n        /* \"#utility.yul\":690:1019   */\n      swap3\n      swap2\n      pop\n      pop\n      jump\t// out\n        /* \"#utility.yul\":1025:1143   */\n    tag_90:\n        /* \"#utility.yul\":1112:1136   */\n      tag_107\n        /* \"#utility.yul\":1130:1135   */\n      dup2\n        /* \"#utility.yul\":1112:1136   */\n      tag_87\n      jump\t// in\n    tag_107:\n        /* \"#utility.yul\":1107:1110   */\n      dup3\n        /* \"#utility.yul\":1100:1137   */\n      mstore\n        /* \"#utility.yul\":1025:1143   */\n      pop\n      pop\n      jump\t// out\n        /* \"#utility.yul\":1149:1371   */\n    tag_18:\n        /* \"#utility.yul\":1242:1246   */\n      0x00\n        /* \"#utility.yul\":1280:1282   */\n      0x20\n        /* \"#utility.yul\":1269:1278   */\n      dup3\n        /* \"#utility.yul\":1265:1283   */\n      add\n        /* \"#utility.yul\":1257:1283   */\n      swap1\n      pop\n        /* \"#utility.yul\":1293:1364   */\n      tag_109\n        /* \"#utility.yul\":1361:1362   */\n      0x00\n        /* \"#utility.yul\":1350:1359   */\n      dup4\n        /* \"#utility.yul\":1346:1363   */\n      add\n        /* \"#utility.yul\":1337:1343   */\n      dup5\n        /* \"#utility.yul\":1293:1364   */\n      tag_90\n      jump\t// in\n    tag_109:\n        /* \"#utility.yul\":1149:1371   */\n      swap3\n      swap2\n      pop\n      pop\n      jump\t// out\n        /* \"#utility.yul\":1377:1709   */\n    tag_22:\n        /* \"#utility.yul\":1498:1502   */\n      0x00\n        /* \"#utility.yul\":1536:1538   */\n      0x40\n        /* \"#utility.yul\":1525:1534   */\n      dup3\n        /* \"#utility.yul\":1521:1539   */\n      add\n        /* \"#utility.yul\":1513:1539   */\n      swap1\n      pop\n        /* \"#utility.yul\":1549:1620   */\n      tag_111\n        /* \"#utility.yul\":1617:1618   */\n      0x00\n        /* \"#utility.yul\":1606:1615   */\n      dup4\n        /* \"#utility.yul\":1602:1619   */\n      add\n        /* \"#utility.yul\":1593:1599   */\n      dup6\n        /* \"#utility.yul\":1549:1620   */\n      tag_90\n      jump\t// in\n    tag_111:\n        /* \"#utility.yul\":1630:1702   */\n      tag_112\n        /* \"#utility.yul\":1698:1700   */\n      0x20\n        /* \"#utility.yul\":1687:1696   */\n      dup4\n        /* \"#utility.yul\":1683:1701   */\n      add\n        /* \"#utility.yul\":1674:1680   */\n      dup5\n        /* \"#utility.yul\":1630:1702   */\n      tag_90\n      jump\t// in\n    tag_112:\n        /* \"#utility.yul\":1377:1709   */\n      swap4\n      swap3\n      pop\n      pop\n      pop\n      jump\t// out\n        /* \"#utility.yul\":1715:2189   */\n    tag_25:\n        /* \"#utility.yul\":1783:1789   */\n      0x00\n        /* \"#utility.yul\":1791:1797   */\n      0x00\n        /* \"#utility.yul\":1840:1842   */\n      0x40\n        /* \"#utility.yul\":1828:1837   */\n      dup4\n        /* \"#utility.yul\":1819:1826   */\n      dup6\n        /* \"#utility.yul\":1815:1838   */\n      sub\n        /* \"#utility.yul\":1811:1843   */\n      slt\n        /* \"#utility.yul\":1808:1927   */\n      iszero\n      tag_114\n      jumpi\n        /* \"#utility.yul\":1846:1925   */\n      tag_115\n      tag_85\n      jump\t// in\n    tag_115:\n        /* \"#utility.yul\":1808:1927   */\n    tag_114:\n        /* \"#utility.yul\":1966:1967   */\n      0x00\n        /* \"#utility.yul\":1991:2044   */\n      tag_116\n        /* \"#utility.yul\":2036:2043   */\n      dup6\n        /* \"#utility.yul\":2027:2033   */\n      dup3\n        /* \"#utility.yul\":2016:2025   */\n      dup7\n        /* \"#utility.yul\":2012:2034   */\n      add\n        /* \"#utility.yul\":1991:2044   */\n      tag_89\n      jump\t// in\n    tag_116:\n        /* \"#utility.yul\":1981:2044   */\n      swap3\n      pop\n        /* \"#utility.yul\":1937:2054   */\n      pop\n        /* \"#utility.yul\":2093:2095   */\n      0x20\n        /* \"#utility.yul\":2119:2172   */\n      tag_117\n        /* \"#utility.yul\":2164:2171   */\n      dup6\n        /* \"#utility.yul\":2155:2161   */\n      dup3\n        /* \"#utility.yul\":2144:2153   */\n      dup7\n        /* \"#utility.yul\":2140:2162   */\n      add\n        /* \"#utility.yul\":2119:2172   */\n      tag_89\n      jump\t// in\n    tag_117:\n        /* \"#utility.yul\":2109:2172   */\n      swap2\n      pop\n        /* \"#utility.yul\":2064:2182   */\n      pop\n        /* \"#utility.yul\":1715:2189   */\n      swap3\n      pop\n      swap3\n      swap1\n      pop\n      jump\t// out\n        /* \"#utility.yul\":2195:2375   */\n    tag_91:\n        /* \"#utility.yul\":2243:2320   */\n      0x4e487b7100000000000000000000000000000000000000000000000000000000\n        /* \"#utility.yul\":2240:2241   */\n      0x00\n        /* \"#utility.yul\":2233:2321   */\n      mstore\n        /* \"#utility.yul\":2340:2344   */\n      0x11\n        /* \"#utility.yul\":2337:2338   */\n      0x04\n        /* \"#utility.yul\":2330:2345   */\n      mstore\n        /* \"#utility.yul\":2364:2368   */\n      0x24\n        /* \"#utility.yul\":2361:2362   */\n      0x00\n        /* \"#utility.yul\":2354:2369   */\n      revert\n        /* \"#utility.yul\":2381:2791   */\n    tag_47:\n        /* \"#utility.yul\":2421:2428   */\n      0x00\n        /* \"#utility.yul\":2444:2464   */\n      tag_120\n        /* \"#utility.yul\":2462:2463   */\n      dup3\n        /* \"#utility.yul\":2444:2464   */\n      tag_87\n      jump\t// in\n    tag_120:\n        /* \"#utility.yul\":2439:2464   */\n      swap2\n      pop\n        /* \"#utility.yul\":2478:2498   */\n      tag_121\n        /* \"#utility.yul\":2496:2497   */\n      dup4\n        /* \"#utility.yul\":2478:2498   */\n      tag_87\n      jump\t// in\n    tag_121:\n        /* \"#utility.yul\":2473:2498   */\n      swap3\n      pop\n        /* \"#utility.yul\":2533:2534   */\n      dup3\n        /* \"#utility.yul\":2530:2531   */\n      dup3\n        /* \"#utility.yul\":2526:2535   */\n      mul\n        /* \"#utility.yul\":2555:2585   */\n      tag_122\n        /* \"#utility.yul\":2573:2584   */\n      dup2\n        /* \"#utility.yul\":2555:2585   */\n      tag_87\n      jump\t// in\n    tag_122:\n        /* \"#utility.yul\":2544:2585   */\n      swap2\n      pop\n        /* \"#utility.yul\":2734:2735   */\n      dup3\n        /* \"#utility.yul\":2725:2732   */\n      dup3\n        /* \"#utility.yul\":2721:2736   */\n      div\n        /* \"#utility.yul\":2718:2719   */\n      dup5\n        /* \"#utility.yul\":2715:2737   */\n      eq\n        /* \"#utility.yul\":2695:2696   */\n      dup4\n        /* \"#utility.yul\":2688:2697   */\n      iszero\n        /* \"#utility.yul\":2668:2751   */\n      or\n        /* \"#utility.yul\":2645:2784   */\n      tag_123\n      jumpi\n        /* \"#utility.yul\":2764:2782   */\n      tag_124\n      tag_91\n      jump\t// in\n    tag_124:\n        /* \"#utility.yul\":2645:2784   */\n    tag_123:\n        /* \"#utility.yul\":2429:2791   */\n      pop\n        /* \"#utility.yul\":2381:2791   */\n      swap3\n      swap2\n      pop\n      pop\n      jump\t// out\n        /* \"#utility.yul\":2797:2988   */\n    tag_49:\n        /* \"#utility.yul\":2837:2840   */\n      0x00\n        /* \"#utility.yul\":2856:2876   */\n      tag_126\n        /* \"#utility.yul\":2874:2875   */\n      dup3\n        /* \"#utility.yul\":2856:2876   */\n      tag_87\n      jump\t// in\n    tag_126:\n        /* \"#utility.yul\":2851:2876   */\n      swap2\n      pop\n        /* \"#utility.yul\":2890:2910   */\n      tag_127\n        /* \"#utility.yul\":2908:2909   */\n      dup4\n        /* \"#utility.yul\":2890:2910   */\n      tag_87\n      jump\t// in\n    tag_127:\n        /* \"#utility.yul\":2885:2910   */\n      swap3\n      pop\n        /* \"#utility.yul\":2933:2934   */\n      dup3\n        /* \"#utility.yul\":2930:2931   */\n      dup3\n        /* \"#utility.yul\":2926:2935   */\n      add\n        /* \"#utility.yul\":2919:2935   */\n      swap1\n      pop\n        /* \"#utility.yul\":2954:2957   */\n      dup1\n        /* \"#utility.yul\":2951:2952   */\n      dup3\n        /* \"#utility.yul\":2948:2958   */\n      gt\n        /* \"#utility.yul\":2945:2981   */\n      iszero\n      tag_128\n      jumpi\n        /* \"#utility.yul\":2961:2979   */\n      tag_129\n      tag_91\n      jump\t// in\n    tag_129:\n        /* \"#utility.yul\":2945:2981   */\n    tag_128:\n        /* \"#utility.yul\":2797:2988   */\n      swap3\n      swap2\n      pop\n      pop\n      jump\t// out\n        /* \"#utility.yul\":2994:3174   */\n    tag_59:\n        /* \"#utility.yul\":3042:3119   */\n      0x4e487b7100000000000000000000000000000000000000000000000000000000\n        /* \"#utility.yul\":3039:3040   */\n      0x00\n        /* \"#utility.yul\":3032:3120   */\n      mstore\n        /* \"#utility.yul\":3139:3143   */\n      0x32\n        /* \"#utility.yul\":3136:3137   */\n      0x04\n        /* \"#utility.yul\":3129:3144   */\n      mstore\n        /* \"#utility.yul\":3163:3167   */\n      0x24\n        /* \"#utility.yul\":3160:3161   */\n      0x00\n        /* \"#utility.yul\":3153:3168   */\n      revert\n        /* \"#utility.yul\":3180:3374   */\n    tag_63:\n        /* \"#utility.yul\":3220:3224   */\n      0x00\n        /* \"#utility.yul\":3240:3260   */\n      tag_132\n        /* \"#utility.yul\":3258:3259   */\n      dup3\n        /* \"#utility.yul\":3240:3260   */\n      tag_87\n      jump\t// in\n    tag_132:\n        /* \"#utility.yul\":3235:3260   */\n      swap2\n      pop\n        /* \"#utility.yul\":3274:3294   */\n      tag_133\n        /* \"#utility.yul\":3292:3293   */\n      dup4\n        /* \"#utility.yul\":3274:3294   */\n      tag_87\n      jump\t// in\n    tag_133:\n        /* \"#utility.yul\":3269:3294   */\n      swap3\n      pop\n        /* \"#utility.yul\":3318:3319   */\n      dup3\n        /* \"#utility.yul\":3315:3316   */\n      dup3\n        /* \"#utility.yul\":3311:3320   */\n      sub\n        /* \"#utility.yul\":3303:3320   */\n      swap1\n      pop\n        /* \"#utility.yul\":3342:3343   */\n      dup2\n        /* \"#utility.yul\":3336:3340   */\n      dup2\n        /* \"#utility.yul\":3333:3344   */\n      gt\n        /* \"#utility.yul\":3330:3367   */\n      iszero\n      tag_134\n      jumpi\n        /* \"#utility.yul\":3347:3365   */\n      tag_135\n      tag_91\n      jump\t// in\n    tag_135:\n        /* \"#utility.yul\":3330:3367   */\n    tag_134:\n        /* \"#utility.yul\":3180:3374   */\n      swap3\n      swap2\n      pop\n      pop\n      jump\t// out\n\n    auxdata: 0xa26469706673582212204202b8612626536670bcd1bb2a5c186e402da2e531ea4145027a4ba4e6cb19fd64736f6c63430008220033\n}\n",
				"bytecode": {
					"linkReferences": {},
					"object": "6080604052348015600e575f5ffd5b5061057f8061001c5f395ff3fe608060405234801561000f575f5ffd5b5060043610610091575f3560e01c80636a622364116100645780636a6223641461010a5780638dd7b84d14610128578063be1c766b14610146578063d4d5e8d514610164578063f0ba84401461018057610091565b806339ad3b0e146100955780633b19aeff146100c557806358378b41146100e457806362a5f17114610100575b5f5ffd5b6100af60048036038101906100aa9190610390565b6101b0565b6040516100bc91906103ca565b60405180910390f35b6100cd6101d2565b6040516100db9291906103e3565b60405180910390f35b6100fe60048036038101906100f9919061040a565b6101e2565b005b610108610265565b005b6101126102e5565b60405161011f91906103ca565b60405180910390f35b6101306102eb565b60405161013d91906103ca565b60405180910390f35b61014e6102f1565b60405161015b91906103ca565b60405180910390f35b61017e60048036038101906101799190610390565b6102fc565b005b61019a60048036038101906101959190610390565b61033a565b6040516101a791906103ca565b60405180910390f35b5f60fa826101be9190610475565b6113886101cb91906104b6565b9050919050565b5f5f600154600254915091509091565b5f5a90505f82846101f391906104b6565b90505f80549050811115610209575f8054905090505b5f5f8590505b8281101561024b575f818154811061022a576102296104e9565b5b905f5260205f2001548261023e91906104b6565b915080600101905061020f565b505a836102589190610516565b6002819055505050505050565b5f5a90505f5f5b5f805490508110156102ce575f818154811061028b5761028a6104e9565b5b905f5260205f2001548261029f91906104b6565b9150815f82815481106102b5576102b46104e9565b5b905f5260205f200181905550808060010191505061026c565b505a826102db9190610516565b6001819055505050565b60015481565b60025481565b5f5f80549050905090565b5f5b81811015610336575f81908060018154018082558091505060019003905f5260205f20015f90919091909150558060010190506102fe565b5050565b5f8181548110610348575f80fd5b905f5260205f20015f915090505481565b5f5ffd5b5f819050919050565b61036f8161035d565b8114610379575f5ffd5b50565b5f8135905061038a81610366565b92915050565b5f602082840312156103a5576103a4610359565b5b5f6103b28482850161037c565b91505092915050565b6103c48161035d565b82525050565b5f6020820190506103dd5f8301846103bb565b92915050565b5f6040820190506103f65f8301856103bb565b61040360208301846103bb565b9392505050565b5f5f604083850312156104205761041f610359565b5b5f61042d8582860161037c565b925050602061043e8582860161037c565b9150509250929050565b7f4e487b71000000000000000000000000000000000000000000000000000000005f52601160045260245ffd5b5f61047f8261035d565b915061048a8361035d565b92508282026104988161035d565b915082820484148315176104af576104ae610448565b5b5092915050565b5f6104c08261035d565b91506104cb8361035d565b92508282019050808211156104e3576104e2610448565b5b92915050565b7f4e487b71000000000000000000000000000000000000000000000000000000005f52603260045260245ffd5b5f6105208261035d565b915061052b8361035d565b925082820390508181111561054357610542610448565b5b9291505056fea26469706673582212204202b8612626536670bcd1bb2a5c186e402da2e531ea4145027a4ba4e6cb19fd64736f6c63430008220033",
					"opcodes": "PUSH1 0x80 PUSH1 0x40 MSTORE CALLVALUE DUP1 ISZERO PUSH1 0xE JUMPI PUSH0 PUSH0 REVERT JUMPDEST POP PUSH2 0x57F DUP1 PUSH2 0x1C PUSH0 CODECOPY PUSH0 RETURN INVALID PUSH1 0x80 PUSH1 0x40 MSTORE CALLVALUE DUP1 ISZERO PUSH2 0xF JUMPI PUSH0 PUSH0 REVERT JUMPDEST POP PUSH1 0x4 CALLDATASIZE LT PUSH2 0x91 JUMPI PUSH0 CALLDATALOAD PUSH1 0xE0 SHR DUP1 PUSH4 0x6A622364 GT PUSH2 0x64 JUMPI DUP1 PUSH4 0x6A622364 EQ PUSH2 0x10A JUMPI DUP1 PUSH4 0x8DD7B84D EQ PUSH2 0x128 JUMPI DUP1 PUSH4 0xBE1C766B EQ PUSH2 0x146 JUMPI DUP1 PUSH4 0xD4D5E8D5 EQ PUSH2 0x164 JUMPI DUP1 PUSH4 0xF0BA8440 EQ PUSH2 0x180 JUMPI PUSH2 0x91 JUMP JUMPDEST DUP1 PUSH4 0x39AD3B0E EQ PUSH2 0x95 JUMPI DUP1 PUSH4 0x3B19AEFF EQ PUSH2 0xC5 JUMPI DUP1 PUSH4 0x58378B41 EQ PUSH2 0xE4 JUMPI DUP1 PUSH4 0x62A5F171 EQ PUSH2 0x100 JUMPI JUMPDEST PUSH0 PUSH0 REVERT JUMPDEST PUSH2 0xAF PUSH1 0x4 DUP1 CALLDATASIZE SUB DUP2 ADD SWAP1 PUSH2 0xAA SWAP2 SWAP1 PUSH2 0x390 JUMP JUMPDEST PUSH2 0x1B0 JUMP JUMPDEST PUSH1 0x40 MLOAD PUSH2 0xBC SWAP2 SWAP1 PUSH2 0x3CA JUMP JUMPDEST PUSH1 0x40 MLOAD DUP1 SWAP2 SUB SWAP1 RETURN JUMPDEST PUSH2 0xCD PUSH2 0x1D2 JUMP JUMPDEST PUSH1 0x40 MLOAD PUSH2 0xDB SWAP3 SWAP2 SWAP1 PUSH2 0x3E3 JUMP JUMPDEST PUSH1 0x40 MLOAD DUP1 SWAP2 SUB SWAP1 RETURN JUMPDEST PUSH2 0xFE PUSH1 0x4 DUP1 CALLDATASIZE SUB DUP2 ADD SWAP1 PUSH2 0xF9 SWAP2 SWAP1 PUSH2 0x40A JUMP JUMPDEST PUSH2 0x1E2 JUMP JUMPDEST STOP JUMPDEST PUSH2 0x108 PUSH2 0x265 JUMP JUMPDEST STOP JUMPDEST PUSH2 0x112 PUSH2 0x2E5 JUMP JUMPDEST PUSH1 0x40 MLOAD PUSH2 0x11F SWAP2 SWAP1 PUSH2 0x3CA JUMP JUMPDEST PUSH1 0x40 MLOAD DUP1 SWAP2 SUB SWAP1 RETURN JUMPDEST PUSH2 0x130 PUSH2 0x2EB JUMP JUMPDEST PUSH1 0x40 MLOAD PUSH2 0x13D SWAP2 SWAP1 PUSH2 0x3CA JUMP JUMPDEST PUSH1 0x40 MLOAD DUP1 SWAP2 SUB SWAP1 RETURN JUMPDEST PUSH2 0x14E PUSH2 0x2F1 JUMP JUMPDEST PUSH1 0x40 MLOAD PUSH2 0x15B SWAP2 SWAP1 PUSH2 0x3CA JUMP JUMPDEST PUSH1 0x40 MLOAD DUP1 SWAP2 SUB SWAP1 RETURN JUMPDEST PUSH2 0x17E PUSH1 0x4 DUP1 CALLDATASIZE SUB DUP2 ADD SWAP1 PUSH2 0x179 SWAP2 SWAP1 PUSH2 0x390 JUMP JUMPDEST PUSH2 0x2FC JUMP JUMPDEST STOP JUMPDEST PUSH2 0x19A PUSH1 0x4 DUP1 CALLDATASIZE SUB DUP2 ADD SWAP1 PUSH2 0x195 SWAP2 SWAP1 PUSH2 0x390 JUMP JUMPDEST PUSH2 0x33A JUMP JUMPDEST PUSH1 0x40 MLOAD PUSH2 0x1A7 SWAP2 SWAP1 PUSH2 0x3CA JUMP JUMPDEST PUSH1 0x40 MLOAD DUP1 SWAP2 SUB SWAP1 RETURN JUMPDEST PUSH0 PUSH1 0xFA DUP3 PUSH2 0x1BE SWAP2 SWAP1 PUSH2 0x475 JUMP JUMPDEST PUSH2 0x1388 PUSH2 0x1CB SWAP2 SWAP1 PUSH2 0x4B6 JUMP JUMPDEST SWAP1 POP SWAP2 SWAP1 POP JUMP JUMPDEST PUSH0 PUSH0 PUSH1 0x1 SLOAD PUSH1 0x2 SLOAD SWAP2 POP SWAP2 POP SWAP1 SWAP2 JUMP JUMPDEST PUSH0 GAS SWAP1 POP PUSH0 DUP3 DUP5 PUSH2 0x1F3 SWAP2 SWAP1 PUSH2 0x4B6 JUMP JUMPDEST SWAP1 POP PUSH0 DUP1 SLOAD SWAP1 POP DUP2 GT ISZERO PUSH2 0x209 JUMPI PUSH0 DUP1 SLOAD SWAP1 POP SWAP1 POP JUMPDEST PUSH0 PUSH0 DUP6 SWAP1 POP JUMPDEST DUP3 DUP2 LT ISZERO PUSH2 0x24B JUMPI PUSH0 DUP2 DUP2 SLOAD DUP2 LT PUSH2 0x22A JUMPI PUSH2 0x229 PUSH2 0x4E9 JUMP JUMPDEST JUMPDEST SWAP1 PUSH0 MSTORE PUSH1 0x20 PUSH0 KECCAK256 ADD SLOAD DUP3 PUSH2 0x23E SWAP2 SWAP1 PUSH2 0x4B6 JUMP JUMPDEST SWAP2 POP DUP1 PUSH1 0x1 ADD SWAP1 POP PUSH2 0x20F JUMP JUMPDEST POP GAS DUP4 PUSH2 0x258 SWAP2 SWAP1 PUSH2 0x516 JUMP JUMPDEST PUSH1 0x2 DUP2 SWAP1 SSTORE POP POP POP POP POP POP JUMP JUMPDEST PUSH0 GAS SWAP1 POP PUSH0 PUSH0 JUMPDEST PUSH0 DUP1 SLOAD SWAP1 POP DUP2 LT ISZERO PUSH2 0x2CE JUMPI PUSH0 DUP2 DUP2 SLOAD DUP2 LT PUSH2 0x28B JUMPI PUSH2 0x28A PUSH2 0x4E9 JUMP JUMPDEST JUMPDEST SWAP1 PUSH0 MSTORE PUSH1 0x20 PUSH0 KECCAK256 ADD SLOAD DUP3 PUSH2 0x29F SWAP2 SWAP1 PUSH2 0x4B6 JUMP JUMPDEST SWAP2 POP DUP2 PUSH0 DUP3 DUP2 SLOAD DUP2 LT PUSH2 0x2B5 JUMPI PUSH2 0x2B4 PUSH2 0x4E9 JUMP JUMPDEST JUMPDEST SWAP1 PUSH0 MSTORE PUSH1 0x20 PUSH0 KECCAK256 ADD DUP2 SWAP1 SSTORE POP DUP1 DUP1 PUSH1 0x1 ADD SWAP2 POP POP PUSH2 0x26C JUMP JUMPDEST POP GAS DUP3 PUSH2 0x2DB SWAP2 SWAP1 PUSH2 0x516 JUMP JUMPDEST PUSH1 0x1 DUP2 SWAP1 SSTORE POP POP POP JUMP JUMPDEST PUSH1 0x1 SLOAD DUP2 JUMP JUMPDEST PUSH1 0x2 SLOAD DUP2 JUMP JUMPDEST PUSH0 PUSH0 DUP1 SLOAD SWAP1 POP SWAP1 POP SWAP1 JUMP JUMPDEST PUSH0 JUMPDEST DUP2 DUP2 LT ISZERO PUSH2 0x336 JUMPI PUSH0 DUP2 SWAP1 DUP1 PUSH1 0x1 DUP2 SLOAD ADD DUP1 DUP3 SSTORE DUP1 SWAP2 POP POP PUSH1 0x1 SWAP1 SUB SWAP1 PUSH0 MSTORE PUSH1 0x20 PUSH0 KECCAK256 ADD PUSH0 SWAP1 SWAP2 SWAP1 SWAP2 SWAP1 SWAP2 POP SSTORE DUP1 PUSH1 0x1 ADD SWAP1 POP PUSH2 0x2FE JUMP JUMPDEST POP POP JUMP JUMPDEST PUSH0 DUP2 DUP2 SLOAD DUP2 LT PUSH2 0x348 JUMPI PUSH0 DUP1 REVERT JUMPDEST SWAP1 PUSH0 MSTORE PUSH1 0x20 PUSH0 KECCAK256 ADD PUSH0 SWAP2 POP SWAP1 POP SLOAD DUP2 JUMP JUMPDEST PUSH0 PUSH0 REVERT JUMPDEST PUSH0 DUP2 SWAP1 POP SWAP2 SWAP1 POP JUMP JUMPDEST PUSH2 0x36F DUP2 PUSH2 0x35D JUMP JUMPDEST DUP2 EQ PUSH2 0x379 JUMPI PUSH0 PUSH0 REVERT JUMPDEST POP JUMP JUMPDEST PUSH0 DUP2 CALLDATALOAD SWAP1 POP PUSH2 0x38A DUP2 PUSH2 0x366 JUMP JUMPDEST SWAP3 SWAP2 POP POP JUMP JUMPDEST PUSH0 PUSH1 0x20 DUP3 DUP5 SUB SLT ISZERO PUSH2 0x3A5 JUMPI PUSH2 0x3A4 PUSH2 0x359 JUMP JUMPDEST JUMPDEST PUSH0 PUSH2 0x3B2 DUP5 DUP3 DUP6 ADD PUSH2 0x37C JUMP JUMPDEST SWAP2 POP POP SWAP3 SWAP2 POP POP JUMP JUMPDEST PUSH2 0x3C4 DUP2 PUSH2 0x35D JUMP JUMPDEST DUP3 MSTORE POP POP JUMP JUMPDEST PUSH0 PUSH1 0x20 DUP3 ADD SWAP1 POP PUSH2 0x3DD PUSH0 DUP4 ADD DUP5 PUSH2 0x3BB JUMP JUMPDEST SWAP3 SWAP2 POP POP JUMP JUMPDEST PUSH0 PUSH1 0x40 DUP3 ADD SWAP1 POP PUSH2 0x3F6 PUSH0 DUP4 ADD DUP6 PUSH2 0x3BB JUMP JUMPDEST PUSH2 0x403 PUSH1 0x20 DUP4 ADD DUP5 PUSH2 0x3BB JUMP JUMPDEST SWAP4 SWAP3 POP POP POP JUMP JUMPDEST PUSH0 PUSH0 PUSH1 0x40 DUP4 DUP6 SUB SLT ISZERO PUSH2 0x420 JUMPI PUSH2 0x41F PUSH2 0x359 JUMP JUMPDEST JUMPDEST PUSH0 PUSH2 0x42D DUP6 DUP3 DUP7 ADD PUSH2 0x37C JUMP JUMPDEST SWAP3 POP POP PUSH1 0x20 PUSH2 0x43E DUP6 DUP3 DUP7 ADD PUSH2 0x37C JUMP JUMPDEST SWAP2 POP POP SWAP3 POP SWAP3 SWAP1 POP JUMP JUMPDEST PUSH32 0x4E487B7100000000000000000000000000000000000000000000000000000000 PUSH0 MSTORE PUSH1 0x11 PUSH1 0x4 MSTORE PUSH1 0x24 PUSH0 REVERT JUMPDEST PUSH0 PUSH2 0x47F DUP3 PUSH2 0x35D JUMP JUMPDEST SWAP2 POP PUSH2 0x48A DUP4 PUSH2 0x35D JUMP JUMPDEST SWAP3 POP DUP3 DUP3 MUL PUSH2 0x498 DUP2 PUSH2 0x35D JUMP JUMPDEST SWAP2 POP DUP3 DUP3 DIV DUP5 EQ DUP4 ISZERO OR PUSH2 0x4AF JUMPI PUSH2 0x4AE PUSH2 0x448 JUMP JUMPDEST JUMPDEST POP SWAP3 SWAP2 POP POP JUMP JUMPDEST PUSH0 PUSH2 0x4C0 DUP3 PUSH2 0x35D JUMP JUMPDEST SWAP2 POP PUSH2 0x4CB DUP4 PUSH2 0x35D JUMP JUMPDEST SWAP3 POP DUP3 DUP3 ADD SWAP1 POP DUP1 DUP3 GT ISZERO PUSH2 0x4E3 JUMPI PUSH2 0x4E2 PUSH2 0x448 JUMP JUMPDEST JUMPDEST SWAP3 SWAP2 POP POP JUMP JUMPDEST PUSH32 0x4E487B7100000000000000000000000000000000000000000000000000000000 PUSH0 MSTORE PUSH1 0x32 PUSH1 0x4 MSTORE PUSH1 0x24 PUSH0 REVERT JUMPDEST PUSH0 PUSH2 0x520 DUP3 PUSH2 0x35D JUMP JUMPDEST SWAP2 POP PUSH2 0x52B DUP4 PUSH2 0x35D JUMP JUMPDEST SWAP3 POP DUP3 DUP3 SUB SWAP1 POP DUP2 DUP2 GT ISZERO PUSH2 0x543 JUMPI PUSH2 0x542 PUSH2 0x448 JUMP JUMPDEST JUMPDEST SWAP3 SWAP2 POP POP JUMP INVALID LOG2 PUSH5 0x6970667358 0x22 SLT KECCAK256 TIMESTAMP MUL 0xB8 PUSH2 0x2626 MSTORE8 PUSH7 0x70BCD1BB2A5C18 PUSH15 0x402DA2E531EA4145027A4BA4E6CB19 REVERT PUSH5 0x736F6C6343 STOP ADDMOD 0x22 STOP CALLER "
				},
				"gasEstimates": {
					"creation": {
						"codeDepositCost": "281400",
						"executionCost": "316",
						"totalCost": "281716"
					},
					"external": {
						"addMany(uint256)": "infinite",
						"dangerousLoop()": "infinite",
						"data(uint256)": "infinite",
						"estimateBatchGas(uint256)": "infinite",
						"gasComparison()": "infinite",
						"getLength()": "2483",
						"processChunk(uint256,uint256)": "infinite",
						"safeGasUsed()": "2447",
						"unsafeGasUsed()": "2425"
					}
				},
				"methodIdentifiers": {
					"addMany(uint256)": "d4d5e8d5",
					"dangerousLoop()": "62a5f171",
					"data(uint256)": "f0ba8440",
					"estimateBatchGas(uint256)": "39ad3b0e",
					"gasComparison()": "3b19aeff",
					"getLength()": "be1c766b",
					"processChunk(uint256,uint256)": "58378b41",
					"safeGasUsed()": "8dd7b84d",
					"unsafeGasUsed()": "6a622364"
				}
			},
			"storageLayout": {
				"storage": [
					{
						"astId": 4,
						"contract": "test.71.sol:OutOfGasDemo",
						"label": "data",
						"offset": 0,
						"slot": "0",
						"type": "t_array(t_uint256)dyn_storage"
					},
					{
						"astId": 6,
						"contract": "test.71.sol:OutOfGasDemo",
						"label": "unsafeGasUsed",
						"offset": 0,
						"slot": "1",
						"type": "t_uint256"
					},
					{
						"astId": 8,
						"contract": "test.71.sol:OutOfGasDemo",
						"label": "safeGasUsed",
						"offset": 0,
						"slot": "2",
						"type": "t_uint256"
					}
				],
				"types": {
					"t_array(t_uint256)dyn_storage": {
						"base": "t_uint256",
						"encoding": "dynamic_array",
						"label": "uint256[]",
						"numberOfBytes": "32"
					},
					"t_uint256": {
						"encoding": "inplace",
						"label": "uint256",
						"numberOfBytes": "32"
					}
				}
			},
			"userdoc": {
				"kind": "user",
				"methods": {},
				"version": 1
			}
		}
	}
}