{
	"test69.sol": {
		"GasComparison": {
			"abi": [
				{
					"inputs": [
						{
							"internalType": "uint256",
							"name": "a",
							"type": "uint256"
						},
						{
							"internalType": "uint256",
							"name": "b",
							"type": "uint256"
						}
					],
					"name": "calculateSum",
					"outputs": [
						{
							"internalType": "uint256",
							"name": "",
							"type": "uint256"
						}
					],
					"stateMutability": "pure",
					"type": "function"
				},
				{
					"inputs": [],
					"name": "getArrayLength",
					"outputs": [
						{
							"internalType": "uint256",
							"name": "",
							"type": "uint256"
						}
					],
					"stateMutability": "view",
					"type": "function"
				},
				{
					"inputs": [],
					"name": "memoryGasUsed",
					"outputs": [
						{
							"internalType": "uint256",
							"name": "",
							"type": "uint256"
						}
					],
					"stateMutability": "view",
					"type": "function"
				},
				{
					"inputs": [],
					"name": "readStoredNumber",
					"outputs": [
						{
							"internalType": "uint256",
							"name": "",
							"type": "uint256"
						}
					],
					"stateMutability": "view",
					"type": "function"
				},
				{
					"inputs": [],
					"name": "storageGasUsed",
					"outputs": [
						{
							"internalType": "uint256",
							"name": "",
							"type": "uint256"
						}
					],
					"stateMutability": "view",
					"type": "function"
				},
				{
					"inputs": [],
					"name": "store1000Values",
					"outputs": [],
					"stateMutability": "nonpayable",
					"type": "function"
				},
				{
					"inputs": [],
					"name": "storedNumber",
					"outputs": [
						{
							"internalType": "uint256",
							"name": "",
							"type": "uint256"
						}
					],
					"stateMutability": "view",
					"type": "function"
				},
				{
					"inputs": [
						{
							"internalType": "uint256",
							"name": "_num",
							"type": "uint256"
						}
					],
					"name": "updateStoredNumber",
					"outputs": [],
					"stateMutability": "nonpayable",
					"type": "function"
				},
				{
					"inputs": [],
					"name": "useMemoryArray",
					"outputs": [],
					"stateMutability": "nonpayable",
					"type": "function"
				},
				{
					"inputs": [
						{
							"internalType": "uint256",
							"name": "",
							"type": "uint256"
						}
					],
					"name": "userValues",
					"outputs": [
						{
							"internalType": "uint256",
							"name": "",
							"type": "uint256"
						}
					],
					"stateMutability": "view",
					"type": "function"
				},
				{
					"inputs": [
						{
							"internalType": "uint256",
							"name": "",
							"type": "uint256"
						}
					],
					"name": "values",
					"outputs": [
						{
							"internalType": "uint256",
							"name": "",
							"type": "uint256"
						}
					],
					"stateMutability": "view",
					"type": "function"
				}
			],
			"devdoc": {
				"kind": "dev",
				"methods": {},
				"version": 1
			},
			"evm": {
				"assembly": "    /* \"test69.sol\":16251:19014  contract GasComparison {... */\n  mstore(0x40, 0x80)\n  callvalue\n  dup1\n  iszero\n  tag_1\n  jumpi\n  revert(0x00, 0x00)\ntag_1:\n  pop\n  dataSize(sub_0)\n  dup1\n  dataOffset(sub_0)\n  0x00\n  codecopy\n  0x00\n  return\nstop\n\nsub_0: assembly {\n        /* \"test69.sol\":16251:19014  contract GasComparison {... */\n      mstore(0x40, 0x80)\n      callvalue\n      dup1\n      iszero\n      tag_1\n      jumpi\n      revert(0x00, 0x00)\n    tag_1:\n      pop\n      jumpi(tag_2, lt(calldatasize, 0x04))\n      shr(0xe0, calldataload(0x00))\n      dup1\n      0x6dadde62\n      gt\n      tag_14\n      jumpi\n      dup1\n      0x6dadde62\n      eq\n      tag_8\n      jumpi\n      dup1\n      0x981a67d3\n      eq\n      tag_9\n      jumpi\n      dup1\n      0x9c4fa45f\n      eq\n      tag_10\n      jumpi\n      dup1\n      0xe4430cff\n      eq\n      tag_11\n      jumpi\n      dup1\n      0xea4097bd\n      eq\n      tag_12\n      jumpi\n      dup1\n      0xed905055\n      eq\n      tag_13\n      jumpi\n      jump(tag_2)\n    tag_14:\n      dup1\n      0x0849cc99\n      eq\n      tag_3\n      jumpi\n      dup1\n      0x09ce9ccb\n      eq\n      tag_4\n      jumpi\n      dup1\n      0x3a4f096d\n      eq\n      tag_5\n      jumpi\n      dup1\n      0x4039ef26\n      eq\n      tag_6\n      jumpi\n      dup1\n      0x5e383d21\n      eq\n      tag_7\n      jumpi\n    tag_2:\n      revert(0x00, 0x00)\n        /* \"test69.sol\":18882:19011  function getArrayLength()... */\n    tag_3:\n      tag_15\n      tag_16\n      jump\t// in\n    tag_15:\n      mload(0x40)\n      tag_17\n      swap2\n      swap1\n      tag_18\n      jump\t// in\n    tag_17:\n      mload(0x40)\n      dup1\n      swap2\n      sub\n      swap1\n      return\n        /* \"test69.sol\":16326:16353  uint256 public storedNumber */\n    tag_4:\n      tag_19\n      tag_20\n      jump\t// in\n    tag_19:\n      mload(0x40)\n      tag_21\n      swap2\n      swap1\n      tag_18\n      jump\t// in\n    tag_21:\n      mload(0x40)\n      dup1\n      swap2\n      sub\n      swap1\n      return\n        /* \"test69.sol\":17724:18116  function store1000Values()... */\n    tag_5:\n      tag_22\n      tag_23\n      jump\t// in\n    tag_22:\n      stop\n        /* \"test69.sol\":18295:18717  function useMemoryArray()... */\n    tag_6:\n      tag_24\n      tag_25\n      jump\t// in\n    tag_24:\n      stop\n        /* \"test69.sol\":16360:16383  uint256[] public values */\n    tag_7:\n      tag_26\n      0x04\n      dup1\n      calldatasize\n      sub\n      dup2\n      add\n      swap1\n      tag_27\n      swap2\n      swap1\n      tag_28\n      jump\t// in\n    tag_27:\n      tag_29\n      jump\t// in\n    tag_26:\n      mload(0x40)\n      tag_30\n      swap2\n      swap1\n      tag_18\n      jump\t// in\n    tag_30:\n      mload(0x40)\n      dup1\n      swap2\n      sub\n      swap1\n      return\n        /* \"test69.sol\":16432:16486  mapping(uint256 => uint256)... */\n    tag_8:\n      tag_31\n      0x04\n      dup1\n      calldatasize\n      sub\n      dup2\n      add\n      swap1\n      tag_32\n      swap2\n      swap1\n      tag_28\n      jump\t// in\n    tag_32:\n      tag_33\n      jump\t// in\n    tag_31:\n      mload(0x40)\n      tag_34\n      swap2\n      swap1\n      tag_18\n      jump\t// in\n    tag_34:\n      mload(0x40)\n      dup1\n      swap2\n      sub\n      swap1\n      return\n        /* \"test69.sol\":16535:16564  uint256 public storageGasUsed */\n    tag_9:\n      tag_35\n      tag_36\n      jump\t// in\n    tag_35:\n      mload(0x40)\n      tag_37\n      swap2\n      swap1\n      tag_18\n      jump\t// in\n    tag_37:\n      mload(0x40)\n      dup1\n      swap2\n      sub\n      swap1\n      return\n        /* \"test69.sol\":17377:17496  function updateStoredNumber(... */\n    tag_10:\n      tag_38\n      0x04\n      dup1\n      calldatasize\n      sub\n      dup2\n      add\n      swap1\n      tag_39\n      swap2\n      swap1\n      tag_28\n      jump\t// in\n    tag_39:\n      tag_40\n      jump\t// in\n    tag_38:\n      stop\n        /* \"test69.sol\":16571:16599  uint256 public memoryGasUsed */\n    tag_11:\n      tag_41\n      tag_42\n      jump\t// in\n    tag_41:\n      mload(0x40)\n      tag_43\n      swap2\n      swap1\n      tag_18\n      jump\t// in\n    tag_43:\n      mload(0x40)\n      dup1\n      swap2\n      sub\n      swap1\n      return\n        /* \"test69.sol\":17052:17216  function calculateSum(... */\n    tag_12:\n      tag_44\n      0x04\n      dup1\n      calldatasize\n      sub\n      dup2\n      add\n      swap1\n      tag_45\n      swap2\n      swap1\n      tag_46\n      jump\t// in\n    tag_45:\n      tag_47\n      jump\t// in\n    tag_44:\n      mload(0x40)\n      tag_48\n      swap2\n      swap1\n      tag_18\n      jump\t// in\n    tag_48:\n      mload(0x40)\n      dup1\n      swap2\n      sub\n      swap1\n      return\n        /* \"test69.sol\":16761:16891  function readStoredNumber()... */\n    tag_13:\n      tag_49\n      tag_50\n      jump\t// in\n    tag_49:\n      mload(0x40)\n      tag_51\n      swap2\n      swap1\n      tag_18\n      jump\t// in\n    tag_51:\n      mload(0x40)\n      dup1\n      swap2\n      sub\n      swap1\n      return\n        /* \"test69.sol\":18882:19011  function getArrayLength()... */\n    tag_16:\n        /* \"test69.sol\":18958:18965  uint256 */\n      0x00\n        /* \"test69.sol\":18990:18996  values */\n      0x01\n        /* \"test69.sol\":18990:19003  values.length */\n      dup1\n      sload\n      swap1\n      pop\n        /* \"test69.sol\":18983:19003  return values.length */\n      swap1\n      pop\n        /* \"test69.sol\":18882:19011  function getArrayLength()... */\n      swap1\n      jump\t// out\n        /* \"test69.sol\":16326:16353  uint256 public storedNumber */\n    tag_20:\n      sload(0x00)\n      dup2\n      jump\t// out\n        /* \"test69.sol\":17724:18116  function store1000Values()... */\n    tag_23:\n        /* \"test69.sol\":17785:17801  uint256 startGas */\n      0x00\n        /* \"test69.sol\":17817:17826  gasleft() */\n      gas\n        /* \"test69.sol\":17785:17826  uint256 startGas =... */\n      swap1\n      pop\n        /* \"test69.sol\":17858:17867  uint256 i */\n      0x00\n        /* \"test69.sol\":17870:17871  0 */\n      0x00\n        /* \"test69.sol\":17858:17871  uint256 i = 0 */\n      swap1\n      pop\n        /* \"test69.sol\":17839:18046  for (... */\n    tag_54:\n        /* \"test69.sol\":17890:17894  1000 */\n      0x03e8\n        /* \"test69.sol\":17886:17887  i */\n      dup2\n        /* \"test69.sol\":17886:17894  i < 1000 */\n      lt\n        /* \"test69.sol\":17839:18046  for (... */\n      iszero\n      tag_55\n      jumpi\n        /* \"test69.sol\":17922:17928  values */\n      0x01\n        /* \"test69.sol\":17934:17935  i */\n      dup2\n        /* \"test69.sol\":17922:17936  values.push(i) */\n      swap1\n      dup1\n      0x01\n      dup2\n      sload\n      add\n      dup1\n      dup3\n      sstore\n      dup1\n      swap2\n      pop\n      pop\n      0x01\n      swap1\n      sub\n      swap1\n      0x00\n      mstore\n      keccak256(0x00, 0x20)\n      add\n      0x00\n      swap1\n      swap2\n      swap1\n      swap2\n      swap1\n      swap2\n      pop\n      sstore\n        /* \"test69.sol\":17969:17970  i */\n      dup1\n        /* \"test69.sol\":17953:17963  userValues */\n      0x02\n        /* \"test69.sol\":17953:17966  userValues[i] */\n      0x00\n        /* \"test69.sol\":17964:17965  i */\n      dup4\n        /* \"test69.sol\":17953:17966  userValues[i] */\n      dup2\n      mstore\n      0x20\n      add\n      swap1\n      dup2\n      mstore\n      0x20\n      add\n      0x00\n      keccak256\n        /* \"test69.sol\":17953:17970  userValues[i] = i */\n      dup2\n      swap1\n      sstore\n      pop\n        /* \"test69.sol\":18016:18019  ++i */\n      dup1\n      0x01\n      add\n      swap1\n      pop\n        /* \"test69.sol\":17839:18046  for (... */\n      jump(tag_54)\n    tag_55:\n      pop\n        /* \"test69.sol\":18099:18108  gasleft() */\n      gas\n        /* \"test69.sol\":18088:18096  startGas */\n      dup2\n        /* \"test69.sol\":18088:18108  startGas - gasleft() */\n      tag_58\n      swap2\n      swap1\n      tag_59\n      jump\t// in\n    tag_58:\n        /* \"test69.sol\":18058:18072  storageGasUsed */\n      0x03\n        /* \"test69.sol\":18058:18108  storageGasUsed =... */\n      dup2\n      swap1\n      sstore\n      pop\n        /* \"test69.sol\":17774:18116  {... */\n      pop\n        /* \"test69.sol\":17724:18116  function store1000Values()... */\n      jump\t// out\n        /* \"test69.sol\":18295:18717  function useMemoryArray()... */\n    tag_25:\n        /* \"test69.sol\":18355:18371  uint256 startGas */\n      0x00\n        /* \"test69.sol\":18387:18396  gasleft() */\n      gas\n        /* \"test69.sol\":18355:18396  uint256 startGas =... */\n      swap1\n      pop\n        /* \"test69.sol\":18409:18430  uint256[] memory temp */\n      0x00\n        /* \"test69.sol\":18460:18464  1000 */\n      0x03e8\n        /* \"test69.sol\":18446:18465  new uint256[](1000) */\n      0xffffffffffffffff\n      dup2\n      gt\n      iszero\n      tag_61\n      jumpi\n      tag_62\n      tag_63\n      jump\t// in\n    tag_62:\n    tag_61:\n      mload(0x40)\n      swap1\n      dup1\n      dup3\n      mstore\n      dup1\n      0x20\n      mul\n      0x20\n      add\n      dup3\n      add\n      0x40\n      mstore\n      dup1\n      iszero\n      tag_64\n      jumpi\n      dup2\n      0x20\n      add\n      0x20\n      dup3\n      mul\n      dup1\n      calldatasize\n      dup4\n      calldatacopy\n      dup1\n      dup3\n      add\n      swap2\n      pop\n      pop\n      swap1\n      pop\n    tag_64:\n      pop\n        /* \"test69.sol\":18409:18465  uint256[] memory temp =... */\n      swap1\n      pop\n        /* \"test69.sol\":18497:18506  uint256 i */\n      0x00\n        /* \"test69.sol\":18509:18510  0 */\n      0x00\n        /* \"test69.sol\":18497:18510  uint256 i = 0 */\n      swap1\n      pop\n        /* \"test69.sol\":18478:18648  for (... */\n    tag_65:\n        /* \"test69.sol\":18529:18533  1000 */\n      0x03e8\n        /* \"test69.sol\":18525:18526  i */\n      dup2\n        /* \"test69.sol\":18525:18533  i < 1000 */\n      lt\n        /* \"test69.sol\":18478:18648  for (... */\n      iszero\n      tag_66\n      jumpi\n        /* \"test69.sol\":18571:18572  i */\n      dup1\n        /* \"test69.sol\":18561:18565  temp */\n      dup3\n        /* \"test69.sol\":18566:18567  i */\n      dup3\n        /* \"test69.sol\":18561:18568  temp[i] */\n      dup2\n      mload\n      dup2\n      lt\n      tag_68\n      jumpi\n      tag_69\n      tag_70\n      jump\t// in\n    tag_69:\n    tag_68:\n      0x20\n      mul\n      0x20\n      add\n      add\n        /* \"test69.sol\":18561:18572  temp[i] = i */\n      dup2\n      dup2\n      mstore\n      pop\n      pop\n        /* \"test69.sol\":18618:18621  ++i */\n      dup1\n      0x01\n      add\n      swap1\n      pop\n        /* \"test69.sol\":18478:18648  for (... */\n      jump(tag_65)\n    tag_66:\n      pop\n        /* \"test69.sol\":18700:18709  gasleft() */\n      gas\n        /* \"test69.sol\":18689:18697  startGas */\n      dup3\n        /* \"test69.sol\":18689:18709  startGas - gasleft() */\n      tag_71\n      swap2\n      swap1\n      tag_59\n      jump\t// in\n    tag_71:\n        /* \"test69.sol\":18660:18673  memoryGasUsed */\n      0x04\n        /* \"test69.sol\":18660:18709  memoryGasUsed =... */\n      dup2\n      swap1\n      sstore\n      pop\n        /* \"test69.sol\":18344:18717  {... */\n      pop\n      pop\n        /* \"test69.sol\":18295:18717  function useMemoryArray()... */\n      jump\t// out\n        /* \"test69.sol\":16360:16383  uint256[] public values */\n    tag_29:\n      0x01\n      dup2\n      dup2\n      sload\n      dup2\n      lt\n      tag_72\n      jumpi\n      0x00\n      dup1\n      revert\n    tag_72:\n      swap1\n      0x00\n      mstore\n      keccak256(0x00, 0x20)\n      add\n      0x00\n      swap2\n      pop\n      swap1\n      pop\n      sload\n      dup2\n      jump\t// out\n        /* \"test69.sol\":16432:16486  mapping(uint256 => uint256)... */\n    tag_33:\n      mstore(0x20, 0x02)\n      dup1\n      0x00\n      mstore\n      keccak256(0x00, 0x40)\n      0x00\n      swap2\n      pop\n      swap1\n      pop\n      sload\n      dup2\n      jump\t// out\n        /* \"test69.sol\":16535:16564  uint256 public storageGasUsed */\n    tag_36:\n      sload(0x03)\n      dup2\n      jump\t// out\n        /* \"test69.sol\":17377:17496  function updateStoredNumber(... */\n    tag_40:\n        /* \"test69.sol\":17484:17488  _num */\n      dup1\n        /* \"test69.sol\":17469:17481  storedNumber */\n      0x00\n        /* \"test69.sol\":17469:17488  storedNumber = _num */\n      dup2\n      swap1\n      sstore\n      pop\n        /* \"test69.sol\":17377:17496  function updateStoredNumber(... */\n      pop\n      jump\t// out\n        /* \"test69.sol\":16571:16599  uint256 public memoryGasUsed */\n    tag_42:\n      sload(0x04)\n      dup2\n      jump\t// out\n        /* \"test69.sol\":17052:17216  function calculateSum(... */\n    tag_47:\n        /* \"test69.sol\":17171:17178  uint256 */\n      0x00\n        /* \"test69.sol\":17207:17208  b */\n      dup2\n        /* \"test69.sol\":17203:17204  a */\n      dup4\n        /* \"test69.sol\":17203:17208  a + b */\n      tag_76\n      swap2\n      swap1\n      tag_77\n      jump\t// in\n    tag_76:\n        /* \"test69.sol\":17196:17208  return a + b */\n      swap1\n      pop\n        /* \"test69.sol\":17052:17216  function calculateSum(... */\n      swap3\n      swap2\n      pop\n      pop\n      jump\t// out\n        /* \"test69.sol\":16761:16891  function readStoredNumber()... */\n    tag_50:\n        /* \"test69.sol\":16839:16846  uint256 */\n      0x00\n        /* \"test69.sol\":16871:16883  storedNumber */\n      sload(0x00)\n        /* \"test69.sol\":16864:16883  return storedNumber */\n      swap1\n      pop\n        /* \"test69.sol\":16761:16891  function readStoredNumber()... */\n      swap1\n      jump\t// out\n        /* \"#utility.yul\":7:84   */\n    tag_79:\n        /* \"#utility.yul\":44:51   */\n      0x00\n        /* \"#utility.yul\":73:78   */\n      dup2\n        /* \"#utility.yul\":62:78   */\n      swap1\n      pop\n        /* \"#utility.yul\":7:84   */\n      swap2\n      swap1\n      pop\n      jump\t// out\n        /* \"#utility.yul\":90:208   */\n    tag_80:\n        /* \"#utility.yul\":177:201   */\n      tag_90\n        /* \"#utility.yul\":195:200   */\n      dup2\n        /* \"#utility.yul\":177:201   */\n      tag_79\n      jump\t// in\n    tag_90:\n        /* \"#utility.yul\":172:175   */\n      dup3\n        /* \"#utility.yul\":165:202   */\n      mstore\n        /* \"#utility.yul\":90:208   */\n      pop\n      pop\n      jump\t// out\n        /* \"#utility.yul\":214:436   */\n    tag_18:\n        /* \"#utility.yul\":307:311   */\n      0x00\n        /* \"#utility.yul\":345:347   */\n      0x20\n        /* \"#utility.yul\":334:343   */\n      dup3\n        /* \"#utility.yul\":330:348   */\n      add\n        /* \"#utility.yul\":322:348   */\n      swap1\n      pop\n        /* \"#utility.yul\":358:429   */\n      tag_92\n        /* \"#utility.yul\":426:427   */\n      0x00\n        /* \"#utility.yul\":415:424   */\n      dup4\n        /* \"#utility.yul\":411:428   */\n      add\n        /* \"#utility.yul\":402:408   */\n      dup5\n        /* \"#utility.yul\":358:429   */\n      tag_80\n      jump\t// in\n    tag_92:\n        /* \"#utility.yul\":214:436   */\n      swap3\n      swap2\n      pop\n      pop\n      jump\t// out\n        /* \"#utility.yul\":523:640   */\n    tag_82:\n        /* \"#utility.yul\":632:633   */\n      0x00\n        /* \"#utility.yul\":629:630   */\n      0x00\n        /* \"#utility.yul\":622:634   */\n      revert\n        /* \"#utility.yul\":769:891   */\n    tag_84:\n        /* \"#utility.yul\":842:866   */\n      tag_97\n        /* \"#utility.yul\":860:865   */\n      dup2\n        /* \"#utility.yul\":842:866   */\n      tag_79\n      jump\t// in\n    tag_97:\n        /* \"#utility.yul\":835:840   */\n      dup2\n        /* \"#utility.yul\":832:867   */\n      eq\n        /* \"#utility.yul\":822:885   */\n      tag_98\n      jumpi\n        /* \"#utility.yul\":881:882   */\n      0x00\n        /* \"#utility.yul\":878:879   */\n      0x00\n        /* \"#utility.yul\":871:883   */\n      revert\n        /* \"#utility.yul\":822:885   */\n    tag_98:\n        /* \"#utility.yul\":769:891   */\n      pop\n      jump\t// out\n        /* \"#utility.yul\":897:1036   */\n    tag_85:\n        /* \"#utility.yul\":943:948   */\n      0x00\n        /* \"#utility.yul\":981:987   */\n      dup2\n        /* \"#utility.yul\":968:988   */\n      calldataload\n        /* \"#utility.yul\":959:988   */\n      swap1\n      pop\n        /* \"#utility.yul\":997:1030   */\n      tag_100\n        /* \"#utility.yul\":1024:1029   */\n      dup2\n        /* \"#utility.yul\":997:1030   */\n      tag_84\n      jump\t// in\n    tag_100:\n        /* \"#utility.yul\":897:1036   */\n      swap3\n      swap2\n      pop\n      pop\n      jump\t// out\n        /* \"#utility.yul\":1042:1371   */\n    tag_28:\n        /* \"#utility.yul\":1101:1107   */\n      0x00\n        /* \"#utility.yul\":1150:1152   */\n      0x20\n        /* \"#utility.yul\":1138:1147   */\n      dup3\n        /* \"#utility.yul\":1129:1136   */\n      dup5\n        /* \"#utility.yul\":1125:1148   */\n      sub\n        /* \"#utility.yul\":1121:1153   */\n      slt\n        /* \"#utility.yul\":1118:1237   */\n      iszero\n      tag_102\n      jumpi\n        /* \"#utility.yul\":1156:1235   */\n      tag_103\n      tag_82\n      jump\t// in\n    tag_103:\n        /* \"#utility.yul\":1118:1237   */\n    tag_102:\n        /* \"#utility.yul\":1276:1277   */\n      0x00\n        /* \"#utility.yul\":1301:1354   */\n      tag_104\n        /* \"#utility.yul\":1346:1353   */\n      dup5\n        /* \"#utility.yul\":1337:1343   */\n      dup3\n        /* \"#utility.yul\":1326:1335   */\n      dup6\n        /* \"#utility.yul\":1322:1344   */\n      add\n        /* \"#utility.yul\":1301:1354   */\n      tag_85\n      jump\t// in\n    tag_104:\n        /* \"#utility.yul\":1291:1354   */\n      swap2\n      pop\n        /* \"#utility.yul\":1247:1364   */\n      pop\n        /* \"#utility.yul\":1042:1371   */\n      swap3\n      swap2\n      pop\n      pop\n      jump\t// out\n        /* \"#utility.yul\":1377:1851   */\n    tag_46:\n        /* \"#utility.yul\":1445:1451   */\n      0x00\n        /* \"#utility.yul\":1453:1459   */\n      0x00\n        /* \"#utility.yul\":1502:1504   */\n      0x40\n        /* \"#utility.yul\":1490:1499   */\n      dup4\n        /* \"#utility.yul\":1481:1488   */\n      dup6\n        /* \"#utility.yul\":1477:1500   */\n      sub\n        /* \"#utility.yul\":1473:1505   */\n      slt\n        /* \"#utility.yul\":1470:1589   */\n      iszero\n      tag_106\n      jumpi\n        /* \"#utility.yul\":1508:1587   */\n      tag_107\n      tag_82\n      jump\t// in\n    tag_107:\n        /* \"#utility.yul\":1470:1589   */\n    tag_106:\n        /* \"#utility.yul\":1628:1629   */\n      0x00\n        /* \"#utility.yul\":1653:1706   */\n      tag_108\n        /* \"#utility.yul\":1698:1705   */\n      dup6\n        /* \"#utility.yul\":1689:1695   */\n      dup3\n        /* \"#utility.yul\":1678:1687   */\n      dup7\n        /* \"#utility.yul\":1674:1696   */\n      add\n        /* \"#utility.yul\":1653:1706   */\n      tag_85\n      jump\t// in\n    tag_108:\n        /* \"#utility.yul\":1643:1706   */\n      swap3\n      pop\n        /* \"#utility.yul\":1599:1716   */\n      pop\n        /* \"#utility.yul\":1755:1757   */\n      0x20\n        /* \"#utility.yul\":1781:1834   */\n      tag_109\n        /* \"#utility.yul\":1826:1833   */\n      dup6\n        /* \"#utility.yul\":1817:1823   */\n      dup3\n        /* \"#utility.yul\":1806:1815   */\n      dup7\n        /* \"#utility.yul\":1802:1824   */\n      add\n        /* \"#utility.yul\":1781:1834   */\n      tag_85\n      jump\t// in\n    tag_109:\n        /* \"#utility.yul\":1771:1834   */\n      swap2\n      pop\n        /* \"#utility.yul\":1726:1844   */\n      pop\n        /* \"#utility.yul\":1377:1851   */\n      swap3\n      pop\n      swap3\n      swap1\n      pop\n      jump\t// out\n        /* \"#utility.yul\":1857:2037   */\n    tag_86:\n        /* \"#utility.yul\":1905:1982   */\n      0x4e487b7100000000000000000000000000000000000000000000000000000000\n        /* \"#utility.yul\":1902:1903   */\n      0x00\n        /* \"#utility.yul\":1895:1983   */\n      mstore\n        /* \"#utility.yul\":2002:2006   */\n      0x11\n        /* \"#utility.yul\":1999:2000   */\n      0x04\n        /* \"#utility.yul\":1992:2007   */\n      mstore\n        /* \"#utility.yul\":2026:2030   */\n      0x24\n        /* \"#utility.yul\":2023:2024   */\n      0x00\n        /* \"#utility.yul\":2016:2031   */\n      revert\n        /* \"#utility.yul\":2043:2237   */\n    tag_59:\n        /* \"#utility.yul\":2083:2087   */\n      0x00\n        /* \"#utility.yul\":2103:2123   */\n      tag_112\n        /* \"#utility.yul\":2121:2122   */\n      dup3\n        /* \"#utility.yul\":2103:2123   */\n      tag_79\n      jump\t// in\n    tag_112:\n        /* \"#utility.yul\":2098:2123   */\n      swap2\n      pop\n        /* \"#utility.yul\":2137:2157   */\n      tag_113\n        /* \"#utility.yul\":2155:2156   */\n      dup4\n        /* \"#utility.yul\":2137:2157   */\n      tag_79\n      jump\t// in\n    tag_113:\n        /* \"#utility.yul\":2132:2157   */\n      swap3\n      pop\n        /* \"#utility.yul\":2181:2182   */\n      dup3\n        /* \"#utility.yul\":2178:2179   */\n      dup3\n        /* \"#utility.yul\":2174:2183   */\n      sub\n        /* \"#utility.yul\":2166:2183   */\n      swap1\n      pop\n        /* \"#utility.yul\":2205:2206   */\n      dup2\n        /* \"#utility.yul\":2199:2203   */\n      dup2\n        /* \"#utility.yul\":2196:2207   */\n      gt\n        /* \"#utility.yul\":2193:2230   */\n      iszero\n      tag_114\n      jumpi\n        /* \"#utility.yul\":2210:2228   */\n      tag_115\n      tag_86\n      jump\t// in\n    tag_115:\n        /* \"#utility.yul\":2193:2230   */\n    tag_114:\n        /* \"#utility.yul\":2043:2237   */\n      swap3\n      swap2\n      pop\n      pop\n      jump\t// out\n        /* \"#utility.yul\":2243:2423   */\n    tag_63:\n        /* \"#utility.yul\":2291:2368   */\n      0x4e487b7100000000000000000000000000000000000000000000000000000000\n        /* \"#utility.yul\":2288:2289   */\n      0x00\n        /* \"#utility.yul\":2281:2369   */\n      mstore\n        /* \"#utility.yul\":2388:2392   */\n      0x41\n        /* \"#utility.yul\":2385:2386   */\n      0x04\n        /* \"#utility.yul\":2378:2393   */\n      mstore\n        /* \"#utility.yul\":2412:2416   */\n      0x24\n        /* \"#utility.yul\":2409:2410   */\n      0x00\n        /* \"#utility.yul\":2402:2417   */\n      revert\n        /* \"#utility.yul\":2429:2609   */\n    tag_70:\n        /* \"#utility.yul\":2477:2554   */\n      0x4e487b7100000000000000000000000000000000000000000000000000000000\n        /* \"#utility.yul\":2474:2475   */\n      0x00\n        /* \"#utility.yul\":2467:2555   */\n      mstore\n        /* \"#utility.yul\":2574:2578   */\n      0x32\n        /* \"#utility.yul\":2571:2572   */\n      0x04\n        /* \"#utility.yul\":2564:2579   */\n      mstore\n        /* \"#utility.yul\":2598:2602   */\n      0x24\n        /* \"#utility.yul\":2595:2596   */\n      0x00\n        /* \"#utility.yul\":2588:2603   */\n      revert\n        /* \"#utility.yul\":2615:2806   */\n    tag_77:\n        /* \"#utility.yul\":2655:2658   */\n      0x00\n        /* \"#utility.yul\":2674:2694   */\n      tag_119\n        /* \"#utility.yul\":2692:2693   */\n      dup3\n        /* \"#utility.yul\":2674:2694   */\n      tag_79\n      jump\t// in\n    tag_119:\n        /* \"#utility.yul\":2669:2694   */\n      swap2\n      pop\n        /* \"#utility.yul\":2708:2728   */\n      tag_120\n        /* \"#utility.yul\":2726:2727   */\n      dup4\n        /* \"#utility.yul\":2708:2728   */\n      tag_79\n      jump\t// in\n    tag_120:\n        /* \"#utility.yul\":2703:2728   */\n      swap3\n      pop\n        /* \"#utility.yul\":2751:2752   */\n      dup3\n        /* \"#utility.yul\":2748:2749   */\n      dup3\n        /* \"#utility.yul\":2744:2753   */\n      add\n        /* \"#utility.yul\":2737:2753   */\n      swap1\n      pop\n        /* \"#utility.yul\":2772:2775   */\n      dup1\n        /* \"#utility.yul\":2769:2770   */\n      dup3\n        /* \"#utility.yul\":2766:2776   */\n      gt\n        /* \"#utility.yul\":2763:2799   */\n      iszero\n      tag_121\n      jumpi\n        /* \"#utility.yul\":2779:2797   */\n      tag_122\n      tag_86\n      jump\t// in\n    tag_122:\n        /* \"#utility.yul\":2763:2799   */\n    tag_121:\n        /* \"#utility.yul\":2615:2806   */\n      swap3\n      swap2\n      pop\n      pop\n      jump\t// out\n\n    auxdata: 0xa264697066735822122094a69b08d3c8cfe23c9d1f558c15ac86a3ebc1757c01214ea7f0b1e314b1e98164736f6c63430008220033\n}\n",
				"bytecode": {
					"linkReferences": {},
					"object": "6080604052348015600e575f5ffd5b506105778061001c5f395ff3fe608060405234801561000f575f5ffd5b50600436106100a7575f3560e01c80636dadde621161006f5780636dadde621461012b578063981a67d31461015b5780639c4fa45f14610179578063e4430cff14610195578063ea4097bd146101b3578063ed905055146101e3576100a7565b80630849cc99146100ab57806309ce9ccb146100c95780633a4f096d146100e75780634039ef26146100f15780635e383d21146100fb575b5f5ffd5b6100b3610201565b6040516100c091906103a4565b60405180910390f35b6100d161020d565b6040516100de91906103a4565b60405180910390f35b6100ef610212565b005b6100f9610282565b005b610115600480360381019061011091906103eb565b610325565b60405161012291906103a4565b60405180910390f35b610145600480360381019061014091906103eb565b610345565b60405161015291906103a4565b60405180910390f35b61016361035a565b60405161017091906103a4565b60405180910390f35b610193600480360381019061018e91906103eb565b610360565b005b61019d610369565b6040516101aa91906103a4565b60405180910390f35b6101cd60048036038101906101c89190610416565b61036f565b6040516101da91906103a4565b60405180910390f35b6101eb610384565b6040516101f891906103a4565b60405180910390f35b5f600180549050905090565b5f5481565b5f5a90505f5f90505b6103e881101561026c57600181908060018154018082558091505060019003905f5260205f20015f90919091909150558060025f8381526020019081526020015f208190555080600101905061021b565b505a816102799190610481565b60038190555050565b5f5a90505f6103e867ffffffffffffffff8111156102a3576102a26104b4565b5b6040519080825280602002602001820160405280156102d15781602001602082028036833780820191505090505b5090505f5f90505b6103e881101561030e57808282815181106102f7576102f66104e1565b5b6020026020010181815250508060010190506102d9565b505a8261031b9190610481565b6004819055505050565b60018181548110610334575f80fd5b905f5260205f20015f915090505481565b6002602052805f5260405f205f915090505481565b60035481565b805f8190555050565b60045481565b5f818361037c919061050e565b905092915050565b5f5f54905090565b5f819050919050565b61039e8161038c565b82525050565b5f6020820190506103b75f830184610395565b92915050565b5f5ffd5b6103ca8161038c565b81146103d4575f5ffd5b50565b5f813590506103e5816103c1565b92915050565b5f60208284031215610400576103ff6103bd565b5b5f61040d848285016103d7565b91505092915050565b5f5f6040838503121561042c5761042b6103bd565b5b5f610439858286016103d7565b925050602061044a858286016103d7565b9150509250929050565b7f4e487b71000000000000000000000000000000000000000000000000000000005f52601160045260245ffd5b5f61048b8261038c565b91506104968361038c565b92508282039050818111156104ae576104ad610454565b5b92915050565b7f4e487b71000000000000000000000000000000000000000000000000000000005f52604160045260245ffd5b7f4e487b71000000000000000000000000000000000000000000000000000000005f52603260045260245ffd5b5f6105188261038c565b91506105238361038c565b925082820190508082111561053b5761053a610454565b5b9291505056fea264697066735822122094a69b08d3c8cfe23c9d1f558c15ac86a3ebc1757c01214ea7f0b1e314b1e98164736f6c63430008220033",
					"opcodes": "PUSH1 0x80 PUSH1 0x40 MSTORE CALLVALUE DUP1 ISZERO PUSH1 0xE JUMPI PUSH0 PUSH0 REVERT JUMPDEST POP PUSH2 0x577 DUP1 PUSH2 0x1C PUSH0 CODECOPY PUSH0 RETURN INVALID PUSH1 0x80 PUSH1 0x40 MSTORE CALLVALUE DUP1 ISZERO PUSH2 0xF JUMPI PUSH0 PUSH0 REVERT JUMPDEST POP PUSH1 0x4 CALLDATASIZE LT PUSH2 0xA7 JUMPI PUSH0 CALLDATALOAD PUSH1 0xE0 SHR DUP1 PUSH4 0x6DADDE62 GT PUSH2 0x6F JUMPI DUP1 PUSH4 0x6DADDE62 EQ PUSH2 0x12B JUMPI DUP1 PUSH4 0x981A67D3 EQ PUSH2 0x15B JUMPI DUP1 PUSH4 0x9C4FA45F EQ PUSH2 0x179 JUMPI DUP1 PUSH4 0xE4430CFF EQ PUSH2 0x195 JUMPI DUP1 PUSH4 0xEA4097BD EQ PUSH2 0x1B3 JUMPI DUP1 PUSH4 0xED905055 EQ PUSH2 0x1E3 JUMPI PUSH2 0xA7 JUMP JUMPDEST DUP1 PUSH4 0x849CC99 EQ PUSH2 0xAB JUMPI DUP1 PUSH4 0x9CE9CCB EQ PUSH2 0xC9 JUMPI DUP1 PUSH4 0x3A4F096D EQ PUSH2 0xE7 JUMPI DUP1 PUSH4 0x4039EF26 EQ PUSH2 0xF1 JUMPI DUP1 PUSH4 0x5E383D21 EQ PUSH2 0xFB JUMPI JUMPDEST PUSH0 PUSH0 REVERT JUMPDEST PUSH2 0xB3 PUSH2 0x201 JUMP JUMPDEST PUSH1 0x40 MLOAD PUSH2 0xC0 SWAP2 SWAP1 PUSH2 0x3A4 JUMP JUMPDEST PUSH1 0x40 MLOAD DUP1 SWAP2 SUB SWAP1 RETURN JUMPDEST PUSH2 0xD1 PUSH2 0x20D JUMP JUMPDEST PUSH1 0x40 MLOAD PUSH2 0xDE SWAP2 SWAP1 PUSH2 0x3A4 JUMP JUMPDEST PUSH1 0x40 MLOAD DUP1 SWAP2 SUB SWAP1 RETURN JUMPDEST PUSH2 0xEF PUSH2 0x212 JUMP JUMPDEST STOP JUMPDEST PUSH2 0xF9 PUSH2 0x282 JUMP JUMPDEST STOP JUMPDEST PUSH2 0x115 PUSH1 0x4 DUP1 CALLDATASIZE SUB DUP2 ADD SWAP1 PUSH2 0x110 SWAP2 SWAP1 PUSH2 0x3EB JUMP JUMPDEST PUSH2 0x325 JUMP JUMPDEST PUSH1 0x40 MLOAD PUSH2 0x122 SWAP2 SWAP1 PUSH2 0x3A4 JUMP JUMPDEST PUSH1 0x40 MLOAD DUP1 SWAP2 SUB SWAP1 RETURN JUMPDEST PUSH2 0x145 PUSH1 0x4 DUP1 CALLDATASIZE SUB DUP2 ADD SWAP1 PUSH2 0x140 SWAP2 SWAP1 PUSH2 0x3EB JUMP JUMPDEST PUSH2 0x345 JUMP JUMPDEST PUSH1 0x40 MLOAD PUSH2 0x152 SWAP2 SWAP1 PUSH2 0x3A4 JUMP JUMPDEST PUSH1 0x40 MLOAD DUP1 SWAP2 SUB SWAP1 RETURN JUMPDEST PUSH2 0x163 PUSH2 0x35A JUMP JUMPDEST PUSH1 0x40 MLOAD PUSH2 0x170 SWAP2 SWAP1 PUSH2 0x3A4 JUMP JUMPDEST PUSH1 0x40 MLOAD DUP1 SWAP2 SUB SWAP1 RETURN JUMPDEST PUSH2 0x193 PUSH1 0x4 DUP1 CALLDATASIZE SUB DUP2 ADD SWAP1 PUSH2 0x18E SWAP2 SWAP1 PUSH2 0x3EB JUMP JUMPDEST PUSH2 0x360 JUMP JUMPDEST STOP JUMPDEST PUSH2 0x19D PUSH2 0x369 JUMP JUMPDEST PUSH1 0x40 MLOAD PUSH2 0x1AA SWAP2 SWAP1 PUSH2 0x3A4 JUMP JUMPDEST PUSH1 0x40 MLOAD DUP1 SWAP2 SUB SWAP1 RETURN JUMPDEST PUSH2 0x1CD PUSH1 0x4 DUP1 CALLDATASIZE SUB DUP2 ADD SWAP1 PUSH2 0x1C8 SWAP2 SWAP1 PUSH2 0x416 JUMP JUMPDEST PUSH2 0x36F JUMP JUMPDEST PUSH1 0x40 MLOAD PUSH2 0x1DA SWAP2 SWAP1 PUSH2 0x3A4 JUMP JUMPDEST PUSH1 0x40 MLOAD DUP1 SWAP2 SUB SWAP1 RETURN JUMPDEST PUSH2 0x1EB PUSH2 0x384 JUMP JUMPDEST PUSH1 0x40 MLOAD PUSH2 0x1F8 SWAP2 SWAP1 PUSH2 0x3A4 JUMP JUMPDEST PUSH1 0x40 MLOAD DUP1 SWAP2 SUB SWAP1 RETURN JUMPDEST PUSH0 PUSH1 0x1 DUP1 SLOAD SWAP1 POP SWAP1 POP SWAP1 JUMP JUMPDEST PUSH0 SLOAD DUP2 JUMP JUMPDEST PUSH0 GAS SWAP1 POP PUSH0 PUSH0 SWAP1 POP JUMPDEST PUSH2 0x3E8 DUP2 LT ISZERO PUSH2 0x26C JUMPI PUSH1 0x1 DUP2 SWAP1 DUP1 PUSH1 0x1 DUP2 SLOAD ADD DUP1 DUP3 SSTORE DUP1 SWAP2 POP POP PUSH1 0x1 SWAP1 SUB SWAP1 PUSH0 MSTORE PUSH1 0x20 PUSH0 KECCAK256 ADD PUSH0 SWAP1 SWAP2 SWAP1 SWAP2 SWAP1 SWAP2 POP SSTORE DUP1 PUSH1 0x2 PUSH0 DUP4 DUP2 MSTORE PUSH1 0x20 ADD SWAP1 DUP2 MSTORE PUSH1 0x20 ADD PUSH0 KECCAK256 DUP2 SWAP1 SSTORE POP DUP1 PUSH1 0x1 ADD SWAP1 POP PUSH2 0x21B JUMP JUMPDEST POP GAS DUP2 PUSH2 0x279 SWAP2 SWAP1 PUSH2 0x481 JUMP JUMPDEST PUSH1 0x3 DUP2 SWAP1 SSTORE POP POP JUMP JUMPDEST PUSH0 GAS SWAP1 POP PUSH0 PUSH2 0x3E8 PUSH8 0xFFFFFFFFFFFFFFFF DUP2 GT ISZERO PUSH2 0x2A3 JUMPI PUSH2 0x2A2 PUSH2 0x4B4 JUMP JUMPDEST JUMPDEST PUSH1 0x40 MLOAD SWAP1 DUP1 DUP3 MSTORE DUP1 PUSH1 0x20 MUL PUSH1 0x20 ADD DUP3 ADD PUSH1 0x40 MSTORE DUP1 ISZERO PUSH2 0x2D1 JUMPI DUP2 PUSH1 0x20 ADD PUSH1 0x20 DUP3 MUL DUP1 CALLDATASIZE DUP4 CALLDATACOPY DUP1 DUP3 ADD SWAP2 POP POP SWAP1 POP JUMPDEST POP SWAP1 POP PUSH0 PUSH0 SWAP1 POP JUMPDEST PUSH2 0x3E8 DUP2 LT ISZERO PUSH2 0x30E JUMPI DUP1 DUP3 DUP3 DUP2 MLOAD DUP2 LT PUSH2 0x2F7 JUMPI PUSH2 0x2F6 PUSH2 0x4E1 JUMP JUMPDEST JUMPDEST PUSH1 0x20 MUL PUSH1 0x20 ADD ADD DUP2 DUP2 MSTORE POP POP DUP1 PUSH1 0x1 ADD SWAP1 POP PUSH2 0x2D9 JUMP JUMPDEST POP GAS DUP3 PUSH2 0x31B SWAP2 SWAP1 PUSH2 0x481 JUMP JUMPDEST PUSH1 0x4 DUP2 SWAP1 SSTORE POP POP POP JUMP JUMPDEST PUSH1 0x1 DUP2 DUP2 SLOAD DUP2 LT PUSH2 0x334 JUMPI PUSH0 DUP1 REVERT JUMPDEST SWAP1 PUSH0 MSTORE PUSH1 0x20 PUSH0 KECCAK256 ADD PUSH0 SWAP2 POP SWAP1 POP SLOAD DUP2 JUMP JUMPDEST PUSH1 0x2 PUSH1 0x20 MSTORE DUP1 PUSH0 MSTORE PUSH1 0x40 PUSH0 KECCAK256 PUSH0 SWAP2 POP SWAP1 POP SLOAD DUP2 JUMP JUMPDEST PUSH1 0x3 SLOAD DUP2 JUMP JUMPDEST DUP1 PUSH0 DUP2 SWAP1 SSTORE POP POP JUMP JUMPDEST PUSH1 0x4 SLOAD DUP2 JUMP JUMPDEST PUSH0 DUP2 DUP4 PUSH2 0x37C SWAP2 SWAP1 PUSH2 0x50E JUMP JUMPDEST SWAP1 POP SWAP3 SWAP2 POP POP JUMP JUMPDEST PUSH0 PUSH0 SLOAD SWAP1 POP SWAP1 JUMP JUMPDEST PUSH0 DUP2 SWAP1 POP SWAP2 SWAP1 POP JUMP JUMPDEST PUSH2 0x39E DUP2 PUSH2 0x38C JUMP JUMPDEST DUP3 MSTORE POP POP JUMP JUMPDEST PUSH0 PUSH1 0x20 DUP3 ADD SWAP1 POP PUSH2 0x3B7 PUSH0 DUP4 ADD DUP5 PUSH2 0x395 JUMP JUMPDEST SWAP3 SWAP2 POP POP JUMP JUMPDEST PUSH0 PUSH0 REVERT JUMPDEST PUSH2 0x3CA DUP2 PUSH2 0x38C JUMP JUMPDEST DUP2 EQ PUSH2 0x3D4 JUMPI PUSH0 PUSH0 REVERT JUMPDEST POP JUMP JUMPDEST PUSH0 DUP2 CALLDATALOAD SWAP1 POP PUSH2 0x3E5 DUP2 PUSH2 0x3C1 JUMP JUMPDEST SWAP3 SWAP2 POP POP JUMP JUMPDEST PUSH0 PUSH1 0x20 DUP3 DUP5 SUB SLT ISZERO PUSH2 0x400 JUMPI PUSH2 0x3FF PUSH2 0x3BD JUMP JUMPDEST JUMPDEST PUSH0 PUSH2 0x40D DUP5 DUP3 DUP6 ADD PUSH2 0x3D7 JUMP JUMPDEST SWAP2 POP POP SWAP3 SWAP2 POP POP JUMP JUMPDEST PUSH0 PUSH0 PUSH1 0x40 DUP4 DUP6 SUB SLT ISZERO PUSH2 0x42C JUMPI PUSH2 0x42B PUSH2 0x3BD JUMP JUMPDEST JUMPDEST PUSH0 PUSH2 0x439 DUP6 DUP3 DUP7 ADD PUSH2 0x3D7 JUMP JUMPDEST SWAP3 POP POP PUSH1 0x20 PUSH2 0x44A DUP6 DUP3 DUP7 ADD PUSH2 0x3D7 JUMP JUMPDEST SWAP2 POP POP SWAP3 POP SWAP3 SWAP1 POP JUMP JUMPDEST PUSH32 0x4E487B7100000000000000000000000000000000000000000000000000000000 PUSH0 MSTORE PUSH1 0x11 PUSH1 0x4 MSTORE PUSH1 0x24 PUSH0 REVERT JUMPDEST PUSH0 PUSH2 0x48B DUP3 PUSH2 0x38C JUMP JUMPDEST SWAP2 POP PUSH2 0x496 DUP4 PUSH2 0x38C JUMP JUMPDEST SWAP3 POP DUP3 DUP3 SUB SWAP1 POP DUP2 DUP2 GT ISZERO PUSH2 0x4AE JUMPI PUSH2 0x4AD PUSH2 0x454 JUMP JUMPDEST JUMPDEST SWAP3 SWAP2 POP POP JUMP JUMPDEST PUSH32 0x4E487B7100000000000000000000000000000000000000000000000000000000 PUSH0 MSTORE PUSH1 0x41 PUSH1 0x4 MSTORE PUSH1 0x24 PUSH0 REVERT JUMPDEST PUSH32 0x4E487B7100000000000000000000000000000000000000000000000000000000 PUSH0 MSTORE PUSH1 0x32 PUSH1 0x4 MSTORE PUSH1 0x24 PUSH0 REVERT JUMPDEST PUSH0 PUSH2 0x518 DUP3 PUSH2 0x38C JUMP JUMPDEST SWAP2 POP PUSH2 0x523 DUP4 PUSH2 0x38C JUMP JUMPDEST SWAP3 POP DUP3 DUP3 ADD SWAP1 POP DUP1 DUP3 GT ISZERO PUSH2 0x53B JUMPI PUSH2 0x53A PUSH2 0x454 JUMP JUMPDEST JUMPDEST SWAP3 SWAP2 POP POP JUMP INVALID LOG2 PUSH5 0x6970667358 0x22 SLT KECCAK256 SWAP5 0xA6 SWAP12 ADDMOD 0xD3 0xC8 0xCF 0xE2 EXTCODECOPY SWAP14 0x1F SSTORE DUP13 ISZERO 0xAC DUP7 LOG3 0xEB 0xC1 PUSH22 0x7C01214EA7F0B1E314B1E98164736F6C634300082200 CALLER "
				},
				"gasEstimates": {
					"creation": {
						"codeDepositCost": "279800",
						"executionCost": "316",
						"totalCost": "280116"
					},
					"external": {
						"calculateSum(uint256,uint256)": "infinite",
						"getArrayLength()": "2441",
						"memoryGasUsed()": "2491",
						"readStoredNumber()": "2541",
						"storageGasUsed()": "2447",
						"store1000Values()": "infinite",
						"storedNumber()": "2447",
						"updateStoredNumber(uint256)": "22558",
						"useMemoryArray()": "infinite",
						"userValues(uint256)": "infinite",
						"values(uint256)": "infinite"
					}
				},
				"methodIdentifiers": {
					"calculateSum(uint256,uint256)": "ea4097bd",
					"getArrayLength()": "0849cc99",
					"memoryGasUsed()": "e4430cff",
					"readStoredNumber()": "ed905055",
					"storageGasUsed()": "981a67d3",
					"store1000Values()": "3a4f096d",
					"storedNumber()": "09ce9ccb",
					"updateStoredNumber(uint256)": "9c4fa45f",
					"useMemoryArray()": "4039ef26",
					"userValues(uint256)": "6dadde62",
					"values(uint256)": "5e383d21"
				}
			},
			"storageLayout": {
				"storage": [
					{
						"astId": 3,
						"contract": "test69.sol:GasComparison",
						"label": "storedNumber",
						"offset": 0,
						"slot": "0",
						"type": "t_uint256"
					},
					{
						"astId": 6,
						"contract": "test69.sol:GasComparison",
						"label": "values",
						"offset": 0,
						"slot": "1",
						"type": "t_array(t_uint256)dyn_storage"
					},
					{
						"astId": 10,
						"contract": "test69.sol:GasComparison",
						"label": "userValues",
						"offset": 0,
						"slot": "2",
						"type": "t_mapping(t_uint256,t_uint256)"
					},
					{
						"astId": 12,
						"contract": "test69.sol:GasComparison",
						"label": "storageGasUsed",
						"offset": 0,
						"slot": "3",
						"type": "t_uint256"
					},
					{
						"astId": 14,
						"contract": "test69.sol:GasComparison",
						"label": "memoryGasUsed",
						"offset": 0,
						"slot": "4",
						"type": "t_uint256"
					}
				],
				"types": {
					"t_array(t_uint256)dyn_storage": {
						"base": "t_uint256",
						"encoding": "dynamic_array",
						"label": "uint256[]",
						"numberOfBytes": "32"
					},
					"t_mapping(t_uint256,t_uint256)": {
						"encoding": "mapping",
						"key": "t_uint256",
						"label": "mapping(uint256 => uint256)",
						"numberOfBytes": "32",
						"value": "t_uint256"
					},
					"t_uint256": {
						"encoding": "inplace",
						"label": "uint256",
						"numberOfBytes": "32"
					}
				}
			},
			"userdoc": {
				"kind": "user",
				"methods": {},
				"version": 1
			}
		}
	}
}