{
	"test64.sol": {
		"NonPayableReceiver": {
			"abi": [
				{
					"anonymous": false,
					"inputs": [
						{
							"indexed": false,
							"internalType": "address",
							"name": "sender",
							"type": "address"
						},
						{
							"indexed": false,
							"internalType": "uint256",
							"name": "amount",
							"type": "uint256"
						},
						{
							"indexed": false,
							"internalType": "bytes",
							"name": "data",
							"type": "bytes"
						}
					],
					"name": "FallbackReceived",
					"type": "event"
				},
				{
					"anonymous": false,
					"inputs": [
						{
							"indexed": false,
							"internalType": "address",
							"name": "caller",
							"type": "address"
						}
					],
					"name": "Incremented",
					"type": "event"
				},
				{
					"stateMutability": "payable",
					"type": "fallback"
				},
				{
					"inputs": [],
					"name": "counter",
					"outputs": [
						{
							"internalType": "uint256",
							"name": "",
							"type": "uint256"
						}
					],
					"stateMutability": "view",
					"type": "function"
				},
				{
					"inputs": [],
					"name": "fallbackReceived",
					"outputs": [
						{
							"internalType": "uint256",
							"name": "",
							"type": "uint256"
						}
					],
					"stateMutability": "view",
					"type": "function"
				},
				{
					"inputs": [],
					"name": "increment",
					"outputs": [],
					"stateMutability": "nonpayable",
					"type": "function"
				}
			],
			"devdoc": {
				"kind": "dev",
				"methods": {},
				"version": 1
			},
			"evm": {
				"assembly": "    /* \"test64.sol\":17841:18598  contract NonPayableReceiver {... */\n  mstore(0x40, 0x80)\n  callvalue\n  dup1\n  iszero\n  tag_1\n  jumpi\n  revert(0x00, 0x00)\ntag_1:\n  pop\n  dataSize(sub_0)\n  dup1\n  dataOffset(sub_0)\n  0x00\n  codecopy\n  0x00\n  return\nstop\n\nsub_0: assembly {\n        /* \"test64.sol\":17841:18598  contract NonPayableReceiver {... */\n      mstore(0x40, 0x80)\n      jumpi(tag_1, lt(calldatasize, 0x04))\n      shr(0xe0, calldataload(0x00))\n      dup1\n      0x5d6a3e7d\n      eq\n      tag_3\n      jumpi\n      dup1\n      0x61bc221a\n      eq\n      tag_4\n      jumpi\n      dup1\n      0xd09de08a\n      eq\n      tag_5\n      jumpi\n      jump(tag_2)\n    tag_1:\n    tag_2:\n        /* \"test64.sol\":18461:18470  msg.value */\n      callvalue\n        /* \"test64.sol\":18441:18457  fallbackReceived */\n      0x01\n      0x00\n        /* \"test64.sol\":18441:18470  fallbackReceived += msg.value */\n      dup3\n      dup3\n      sload\n      tag_8\n      swap2\n      swap1\n      tag_9\n      jump\t// in\n    tag_8:\n      swap3\n      pop\n      pop\n      dup2\n      swap1\n      sstore\n      pop\n        /* \"test64.sol\":18488:18587  FallbackReceived(... */\n      0x640b83e5ae3a7a0c65a8f78dd3f7df9ccf89e6c9f920bb57308cf1cb1c921144\n        /* \"test64.sol\":18519:18529  msg.sender */\n      caller\n        /* \"test64.sol\":18544:18553  msg.value */\n      callvalue\n        /* \"test64.sol\":18568:18576  msg.data */\n      0x00\n      calldatasize\n        /* \"test64.sol\":18488:18587  FallbackReceived(... */\n      mload(0x40)\n      tag_10\n      swap5\n      swap4\n      swap3\n      swap2\n      swap1\n      tag_11\n      jump\t// in\n    tag_10:\n      mload(0x40)\n      dup1\n      swap2\n      sub\n      swap1\n      log1\n        /* \"test64.sol\":17841:18598  contract NonPayableReceiver {... */\n      stop\n        /* \"test64.sol\":17907:17938  uint256 public fallbackReceived */\n    tag_3:\n      callvalue\n      dup1\n      iszero\n      tag_12\n      jumpi\n      revert(0x00, 0x00)\n    tag_12:\n      pop\n      tag_13\n      tag_14\n      jump\t// in\n    tag_13:\n      mload(0x40)\n      tag_15\n      swap2\n      swap1\n      tag_16\n      jump\t// in\n    tag_15:\n      mload(0x40)\n      dup1\n      swap2\n      sub\n      swap1\n      return\n        /* \"test64.sol\":17878:17900  uint256 public counter */\n    tag_4:\n      callvalue\n      dup1\n      iszero\n      tag_17\n      jumpi\n      revert(0x00, 0x00)\n    tag_17:\n      pop\n      tag_18\n      tag_19\n      jump\t// in\n    tag_18:\n      mload(0x40)\n      tag_20\n      swap2\n      swap1\n      tag_16\n      jump\t// in\n    tag_20:\n      mload(0x40)\n      dup1\n      swap2\n      sub\n      swap1\n      return\n        /* \"test64.sol\":18096:18209  function increment()... */\n    tag_5:\n      callvalue\n      dup1\n      iszero\n      tag_21\n      jumpi\n      revert(0x00, 0x00)\n    tag_21:\n      pop\n      tag_22\n      tag_23\n      jump\t// in\n    tag_22:\n      stop\n        /* \"test64.sol\":17907:17938  uint256 public fallbackReceived */\n    tag_14:\n      sload(0x01)\n      dup2\n      jump\t// out\n        /* \"test64.sol\":17878:17900  uint256 public counter */\n    tag_19:\n      sload(0x00)\n      dup2\n      jump\t// out\n        /* \"test64.sol\":18096:18209  function increment()... */\n    tag_23:\n        /* \"test64.sol\":18151:18158  counter */\n      0x00\n      0x00\n        /* \"test64.sol\":18151:18160  counter++ */\n      dup2\n      sload\n      dup1\n      swap3\n      swap2\n      swap1\n      tag_25\n      swap1\n      tag_26\n      jump\t// in\n    tag_25:\n      swap2\n      swap1\n      pop\n      sstore\n      pop\n        /* \"test64.sol\":18178:18201  Incremented(msg.sender) */\n      0xf57bb28dda50be2d99bc97dce404fae0ecca665bba60759ec491a82e893e4fd5\n        /* \"test64.sol\":18190:18200  msg.sender */\n      caller\n        /* \"test64.sol\":18178:18201  Incremented(msg.sender) */\n      mload(0x40)\n      tag_27\n      swap2\n      swap1\n      tag_28\n      jump\t// in\n    tag_27:\n      mload(0x40)\n      dup1\n      swap2\n      sub\n      swap1\n      log1\n        /* \"test64.sol\":18096:18209  function increment()... */\n      jump\t// out\n        /* \"#utility.yul\":7:84   */\n    tag_29:\n        /* \"#utility.yul\":44:51   */\n      0x00\n        /* \"#utility.yul\":73:78   */\n      dup2\n        /* \"#utility.yul\":62:78   */\n      swap1\n      pop\n        /* \"#utility.yul\":7:84   */\n      swap2\n      swap1\n      pop\n      jump\t// out\n        /* \"#utility.yul\":90:270   */\n    tag_30:\n        /* \"#utility.yul\":138:215   */\n      0x4e487b7100000000000000000000000000000000000000000000000000000000\n        /* \"#utility.yul\":135:136   */\n      0x00\n        /* \"#utility.yul\":128:216   */\n      mstore\n        /* \"#utility.yul\":235:239   */\n      0x11\n        /* \"#utility.yul\":232:233   */\n      0x04\n        /* \"#utility.yul\":225:240   */\n      mstore\n        /* \"#utility.yul\":259:263   */\n      0x24\n        /* \"#utility.yul\":256:257   */\n      0x00\n        /* \"#utility.yul\":249:264   */\n      revert\n        /* \"#utility.yul\":276:467   */\n    tag_9:\n        /* \"#utility.yul\":316:319   */\n      0x00\n        /* \"#utility.yul\":335:355   */\n      tag_43\n        /* \"#utility.yul\":353:354   */\n      dup3\n        /* \"#utility.yul\":335:355   */\n      tag_29\n      jump\t// in\n    tag_43:\n        /* \"#utility.yul\":330:355   */\n      swap2\n      pop\n        /* \"#utility.yul\":369:389   */\n      tag_44\n        /* \"#utility.yul\":387:388   */\n      dup4\n        /* \"#utility.yul\":369:389   */\n      tag_29\n      jump\t// in\n    tag_44:\n        /* \"#utility.yul\":364:389   */\n      swap3\n      pop\n        /* \"#utility.yul\":412:413   */\n      dup3\n        /* \"#utility.yul\":409:410   */\n      dup3\n        /* \"#utility.yul\":405:414   */\n      add\n        /* \"#utility.yul\":398:414   */\n      swap1\n      pop\n        /* \"#utility.yul\":433:436   */\n      dup1\n        /* \"#utility.yul\":430:431   */\n      dup3\n        /* \"#utility.yul\":427:437   */\n      gt\n        /* \"#utility.yul\":424:460   */\n      iszero\n      tag_45\n      jumpi\n        /* \"#utility.yul\":440:458   */\n      tag_46\n      tag_30\n      jump\t// in\n    tag_46:\n        /* \"#utility.yul\":424:460   */\n    tag_45:\n        /* \"#utility.yul\":276:467   */\n      swap3\n      swap2\n      pop\n      pop\n      jump\t// out\n        /* \"#utility.yul\":473:599   */\n    tag_31:\n        /* \"#utility.yul\":510:517   */\n      0x00\n        /* \"#utility.yul\":550:592   */\n      0xffffffffffffffffffffffffffffffffffffffff\n        /* \"#utility.yul\":543:548   */\n      dup3\n        /* \"#utility.yul\":539:593   */\n      and\n        /* \"#utility.yul\":528:593   */\n      swap1\n      pop\n        /* \"#utility.yul\":473:599   */\n      swap2\n      swap1\n      pop\n      jump\t// out\n        /* \"#utility.yul\":605:701   */\n    tag_32:\n        /* \"#utility.yul\":642:649   */\n      0x00\n        /* \"#utility.yul\":671:695   */\n      tag_49\n        /* \"#utility.yul\":689:694   */\n      dup3\n        /* \"#utility.yul\":671:695   */\n      tag_31\n      jump\t// in\n    tag_49:\n        /* \"#utility.yul\":660:695   */\n      swap1\n      pop\n        /* \"#utility.yul\":605:701   */\n      swap2\n      swap1\n      pop\n      jump\t// out\n        /* \"#utility.yul\":707:825   */\n    tag_33:\n        /* \"#utility.yul\":794:818   */\n      tag_51\n        /* \"#utility.yul\":812:817   */\n      dup2\n        /* \"#utility.yul\":794:818   */\n      tag_32\n      jump\t// in\n    tag_51:\n        /* \"#utility.yul\":789:792   */\n      dup3\n        /* \"#utility.yul\":782:819   */\n      mstore\n        /* \"#utility.yul\":707:825   */\n      pop\n      pop\n      jump\t// out\n        /* \"#utility.yul\":831:949   */\n    tag_34:\n        /* \"#utility.yul\":918:942   */\n      tag_53\n        /* \"#utility.yul\":936:941   */\n      dup2\n        /* \"#utility.yul\":918:942   */\n      tag_29\n      jump\t// in\n    tag_53:\n        /* \"#utility.yul\":913:916   */\n      dup3\n        /* \"#utility.yul\":906:943   */\n      mstore\n        /* \"#utility.yul\":831:949   */\n      pop\n      pop\n      jump\t// out\n        /* \"#utility.yul\":955:1123   */\n    tag_35:\n        /* \"#utility.yul\":1038:1049   */\n      0x00\n        /* \"#utility.yul\":1072:1078   */\n      dup3\n        /* \"#utility.yul\":1067:1070   */\n      dup3\n        /* \"#utility.yul\":1060:1079   */\n      mstore\n        /* \"#utility.yul\":1112:1116   */\n      0x20\n        /* \"#utility.yul\":1107:1110   */\n      dup3\n        /* \"#utility.yul\":1103:1117   */\n      add\n        /* \"#utility.yul\":1088:1117   */\n      swap1\n      pop\n        /* \"#utility.yul\":955:1123   */\n      swap3\n      swap2\n      pop\n      pop\n      jump\t// out\n        /* \"#utility.yul\":1129:1277   */\n    tag_36:\n        /* \"#utility.yul\":1227:1233   */\n      dup3\n        /* \"#utility.yul\":1222:1225   */\n      dup2\n        /* \"#utility.yul\":1217:1220   */\n      dup4\n        /* \"#utility.yul\":1204:1234   */\n      calldatacopy\n        /* \"#utility.yul\":1268:1269   */\n      0x00\n        /* \"#utility.yul\":1259:1265   */\n      dup4\n        /* \"#utility.yul\":1254:1257   */\n      dup4\n        /* \"#utility.yul\":1250:1266   */\n      add\n        /* \"#utility.yul\":1243:1270   */\n      mstore\n        /* \"#utility.yul\":1129:1277   */\n      pop\n      pop\n      pop\n      jump\t// out\n        /* \"#utility.yul\":1283:1385   */\n    tag_37:\n        /* \"#utility.yul\":1324:1330   */\n      0x00\n        /* \"#utility.yul\":1375:1377   */\n      0x1f\n        /* \"#utility.yul\":1371:1378   */\n      not\n        /* \"#utility.yul\":1366:1368   */\n      0x1f\n        /* \"#utility.yul\":1359:1364   */\n      dup4\n        /* \"#utility.yul\":1355:1369   */\n      add\n        /* \"#utility.yul\":1351:1379   */\n      and\n        /* \"#utility.yul\":1341:1379   */\n      swap1\n      pop\n        /* \"#utility.yul\":1283:1385   */\n      swap2\n      swap1\n      pop\n      jump\t// out\n        /* \"#utility.yul\":1413:1727   */\n    tag_38:\n        /* \"#utility.yul\":1509:1512   */\n      0x00\n        /* \"#utility.yul\":1530:1600   */\n      tag_58\n        /* \"#utility.yul\":1593:1599   */\n      dup4\n        /* \"#utility.yul\":1588:1591   */\n      dup6\n        /* \"#utility.yul\":1530:1600   */\n      tag_35\n      jump\t// in\n    tag_58:\n        /* \"#utility.yul\":1523:1600   */\n      swap4\n      pop\n        /* \"#utility.yul\":1610:1666   */\n      tag_59\n        /* \"#utility.yul\":1659:1665   */\n      dup4\n        /* \"#utility.yul\":1654:1657   */\n      dup6\n        /* \"#utility.yul\":1647:1652   */\n      dup5\n        /* \"#utility.yul\":1610:1666   */\n      tag_36\n      jump\t// in\n    tag_59:\n        /* \"#utility.yul\":1691:1720   */\n      tag_60\n        /* \"#utility.yul\":1713:1719   */\n      dup4\n        /* \"#utility.yul\":1691:1720   */\n      tag_37\n      jump\t// in\n    tag_60:\n        /* \"#utility.yul\":1686:1689   */\n      dup5\n        /* \"#utility.yul\":1682:1721   */\n      add\n        /* \"#utility.yul\":1675:1721   */\n      swap1\n      pop\n        /* \"#utility.yul\":1413:1727   */\n      swap4\n      swap3\n      pop\n      pop\n      pop\n      jump\t// out\n        /* \"#utility.yul\":1733:2282   */\n    tag_11:\n        /* \"#utility.yul\":1910:1914   */\n      0x00\n        /* \"#utility.yul\":1948:1950   */\n      0x60\n        /* \"#utility.yul\":1937:1946   */\n      dup3\n        /* \"#utility.yul\":1933:1951   */\n      add\n        /* \"#utility.yul\":1925:1951   */\n      swap1\n      pop\n        /* \"#utility.yul\":1961:2032   */\n      tag_62\n        /* \"#utility.yul\":2029:2030   */\n      0x00\n        /* \"#utility.yul\":2018:2027   */\n      dup4\n        /* \"#utility.yul\":2014:2031   */\n      add\n        /* \"#utility.yul\":2005:2011   */\n      dup8\n        /* \"#utility.yul\":1961:2032   */\n      tag_33\n      jump\t// in\n    tag_62:\n        /* \"#utility.yul\":2042:2114   */\n      tag_63\n        /* \"#utility.yul\":2110:2112   */\n      0x20\n        /* \"#utility.yul\":2099:2108   */\n      dup4\n        /* \"#utility.yul\":2095:2113   */\n      add\n        /* \"#utility.yul\":2086:2092   */\n      dup7\n        /* \"#utility.yul\":2042:2114   */\n      tag_34\n      jump\t// in\n    tag_63:\n        /* \"#utility.yul\":2161:2170   */\n      dup2\n        /* \"#utility.yul\":2155:2159   */\n      dup2\n        /* \"#utility.yul\":2151:2171   */\n      sub\n        /* \"#utility.yul\":2146:2148   */\n      0x40\n        /* \"#utility.yul\":2135:2144   */\n      dup4\n        /* \"#utility.yul\":2131:2149   */\n      add\n        /* \"#utility.yul\":2124:2172   */\n      mstore\n        /* \"#utility.yul\":2189:2275   */\n      tag_64\n        /* \"#utility.yul\":2270:2274   */\n      dup2\n        /* \"#utility.yul\":2261:2267   */\n      dup5\n        /* \"#utility.yul\":2253:2259   */\n      dup7\n        /* \"#utility.yul\":2189:2275   */\n      tag_38\n      jump\t// in\n    tag_64:\n        /* \"#utility.yul\":2181:2275   */\n      swap1\n      pop\n        /* \"#utility.yul\":1733:2282   */\n      swap6\n      swap5\n      pop\n      pop\n      pop\n      pop\n      pop\n      jump\t// out\n        /* \"#utility.yul\":2288:2510   */\n    tag_16:\n        /* \"#utility.yul\":2381:2385   */\n      0x00\n        /* \"#utility.yul\":2419:2421   */\n      0x20\n        /* \"#utility.yul\":2408:2417   */\n      dup3\n        /* \"#utility.yul\":2404:2422   */\n      add\n        /* \"#utility.yul\":2396:2422   */\n      swap1\n      pop\n        /* \"#utility.yul\":2432:2503   */\n      tag_66\n        /* \"#utility.yul\":2500:2501   */\n      0x00\n        /* \"#utility.yul\":2489:2498   */\n      dup4\n        /* \"#utility.yul\":2485:2502   */\n      add\n        /* \"#utility.yul\":2476:2482   */\n      dup5\n        /* \"#utility.yul\":2432:2503   */\n      tag_34\n      jump\t// in\n    tag_66:\n        /* \"#utility.yul\":2288:2510   */\n      swap3\n      swap2\n      pop\n      pop\n      jump\t// out\n        /* \"#utility.yul\":2516:2749   */\n    tag_26:\n        /* \"#utility.yul\":2555:2558   */\n      0x00\n        /* \"#utility.yul\":2578:2602   */\n      tag_68\n        /* \"#utility.yul\":2596:2601   */\n      dup3\n        /* \"#utility.yul\":2578:2602   */\n      tag_29\n      jump\t// in\n    tag_68:\n        /* \"#utility.yul\":2569:2602   */\n      swap2\n      pop\n        /* \"#utility.yul\":2624:2690   */\n      0xffffffffffffffffffffffffffffffffffffffffffffffffffffffffffffffff\n        /* \"#utility.yul\":2617:2622   */\n      dup3\n        /* \"#utility.yul\":2614:2691   */\n      sub\n        /* \"#utility.yul\":2611:2714   */\n      tag_69\n      jumpi\n        /* \"#utility.yul\":2694:2712   */\n      tag_70\n      tag_30\n      jump\t// in\n    tag_70:\n        /* \"#utility.yul\":2611:2714   */\n    tag_69:\n        /* \"#utility.yul\":2741:2742   */\n      0x01\n        /* \"#utility.yul\":2734:2739   */\n      dup3\n        /* \"#utility.yul\":2730:2743   */\n      add\n        /* \"#utility.yul\":2723:2743   */\n      swap1\n      pop\n        /* \"#utility.yul\":2516:2749   */\n      swap2\n      swap1\n      pop\n      jump\t// out\n        /* \"#utility.yul\":2755:2977   */\n    tag_28:\n        /* \"#utility.yul\":2848:2852   */\n      0x00\n        /* \"#utility.yul\":2886:2888   */\n      0x20\n        /* \"#utility.yul\":2875:2884   */\n      dup3\n        /* \"#utility.yul\":2871:2889   */\n      add\n        /* \"#utility.yul\":2863:2889   */\n      swap1\n      pop\n        /* \"#utility.yul\":2899:2970   */\n      tag_72\n        /* \"#utility.yul\":2967:2968   */\n      0x00\n        /* \"#utility.yul\":2956:2965   */\n      dup4\n        /* \"#utility.yul\":2952:2969   */\n      add\n        /* \"#utility.yul\":2943:2949   */\n      dup5\n        /* \"#utility.yul\":2899:2970   */\n      tag_33\n      jump\t// in\n    tag_72:\n        /* \"#utility.yul\":2755:2977   */\n      swap3\n      swap2\n      pop\n      pop\n      jump\t// out\n\n    auxdata: 0xa264697066735822122085f481cb327f7a9ba186d5df3264ab6183d4ef521823ec713cff2e8c91b53f6664736f6c63430008220033\n}\n",
				"bytecode": {
					"linkReferences": {},
					"object": "6080604052348015600e575f5ffd5b506103518061001c5f395ff3fe608060405260043610610037575f3560e01c80635d6a3e7d1461008f57806361bc221a146100b9578063d09de08a146100e357610038565b5b3460015f8282546100499190610189565b925050819055507f640b83e5ae3a7a0c65a8f78dd3f7df9ccf89e6c9f920bb57308cf1cb1c92114433345f366040516100859493929190610264565b60405180910390a1005b34801561009a575f5ffd5b506100a36100f9565b6040516100b091906102a2565b60405180910390f35b3480156100c4575f5ffd5b506100cd6100ff565b6040516100da91906102a2565b60405180910390f35b3480156100ee575f5ffd5b506100f7610104565b005b60015481565b5f5481565b5f5f815480929190610115906102bb565b91905055507ff57bb28dda50be2d99bc97dce404fae0ecca665bba60759ec491a82e893e4fd5336040516101499190610302565b60405180910390a1565b5f819050919050565b7f4e487b71000000000000000000000000000000000000000000000000000000005f52601160045260245ffd5b5f61019382610153565b915061019e83610153565b92508282019050808211156101b6576101b561015c565b5b92915050565b5f73ffffffffffffffffffffffffffffffffffffffff82169050919050565b5f6101e5826101bc565b9050919050565b6101f5816101db565b82525050565b61020481610153565b82525050565b5f82825260208201905092915050565b828183375f83830152505050565b5f601f19601f8301169050919050565b5f610243838561020a565b935061025083858461021a565b61025983610228565b840190509392505050565b5f6060820190506102775f8301876101ec565b61028460208301866101fb565b8181036040830152610297818486610238565b905095945050505050565b5f6020820190506102b55f8301846101fb565b92915050565b5f6102c582610153565b91507fffffffffffffffffffffffffffffffffffffffffffffffffffffffffffffffff82036102f7576102f661015c565b5b600182019050919050565b5f6020820190506103155f8301846101ec565b9291505056fea264697066735822122085f481cb327f7a9ba186d5df3264ab6183d4ef521823ec713cff2e8c91b53f6664736f6c63430008220033",
					"opcodes": "PUSH1 0x80 PUSH1 0x40 MSTORE CALLVALUE DUP1 ISZERO PUSH1 0xE JUMPI PUSH0 PUSH0 REVERT JUMPDEST POP PUSH2 0x351 DUP1 PUSH2 0x1C PUSH0 CODECOPY PUSH0 RETURN INVALID PUSH1 0x80 PUSH1 0x40 MSTORE PUSH1 0x4 CALLDATASIZE LT PUSH2 0x37 JUMPI PUSH0 CALLDATALOAD PUSH1 0xE0 SHR DUP1 PUSH4 0x5D6A3E7D EQ PUSH2 0x8F JUMPI DUP1 PUSH4 0x61BC221A EQ PUSH2 0xB9 JUMPI DUP1 PUSH4 0xD09DE08A EQ PUSH2 0xE3 JUMPI PUSH2 0x38 JUMP JUMPDEST JUMPDEST CALLVALUE PUSH1 0x1 PUSH0 DUP3 DUP3 SLOAD PUSH2 0x49 SWAP2 SWAP1 PUSH2 0x189 JUMP JUMPDEST SWAP3 POP POP DUP2 SWAP1 SSTORE POP PUSH32 0x640B83E5AE3A7A0C65A8F78DD3F7DF9CCF89E6C9F920BB57308CF1CB1C921144 CALLER CALLVALUE PUSH0 CALLDATASIZE PUSH1 0x40 MLOAD PUSH2 0x85 SWAP5 SWAP4 SWAP3 SWAP2 SWAP1 PUSH2 0x264 JUMP JUMPDEST PUSH1 0x40 MLOAD DUP1 SWAP2 SUB SWAP1 LOG1 STOP JUMPDEST CALLVALUE DUP1 ISZERO PUSH2 0x9A JUMPI PUSH0 PUSH0 REVERT JUMPDEST POP PUSH2 0xA3 PUSH2 0xF9 JUMP JUMPDEST PUSH1 0x40 MLOAD PUSH2 0xB0 SWAP2 SWAP1 PUSH2 0x2A2 JUMP JUMPDEST PUSH1 0x40 MLOAD DUP1 SWAP2 SUB SWAP1 RETURN JUMPDEST CALLVALUE DUP1 ISZERO PUSH2 0xC4 JUMPI PUSH0 PUSH0 REVERT JUMPDEST POP PUSH2 0xCD PUSH2 0xFF JUMP JUMPDEST PUSH1 0x40 MLOAD PUSH2 0xDA SWAP2 SWAP1 PUSH2 0x2A2 JUMP JUMPDEST PUSH1 0x40 MLOAD DUP1 SWAP2 SUB SWAP1 RETURN JUMPDEST CALLVALUE DUP1 ISZERO PUSH2 0xEE JUMPI PUSH0 PUSH0 REVERT JUMPDEST POP PUSH2 0xF7 PUSH2 0x104 JUMP JUMPDEST STOP JUMPDEST PUSH1 0x1 SLOAD DUP2 JUMP JUMPDEST PUSH0 SLOAD DUP2 JUMP JUMPDEST PUSH0 PUSH0 DUP2 SLOAD DUP1 SWAP3 SWAP2 SWAP1 PUSH2 0x115 SWAP1 PUSH2 0x2BB JUMP JUMPDEST SWAP2 SWAP1 POP SSTORE POP PUSH32 0xF57BB28DDA50BE2D99BC97DCE404FAE0ECCA665BBA60759EC491A82E893E4FD5 CALLER PUSH1 0x40 MLOAD PUSH2 0x149 SWAP2 SWAP1 PUSH2 0x302 JUMP JUMPDEST PUSH1 0x40 MLOAD DUP1 SWAP2 SUB SWAP1 LOG1 JUMP JUMPDEST PUSH0 DUP2 SWAP1 POP SWAP2 SWAP1 POP JUMP JUMPDEST PUSH32 0x4E487B7100000000000000000000000000000000000000000000000000000000 PUSH0 MSTORE PUSH1 0x11 PUSH1 0x4 MSTORE PUSH1 0x24 PUSH0 REVERT JUMPDEST PUSH0 PUSH2 0x193 DUP3 PUSH2 0x153 JUMP JUMPDEST SWAP2 POP PUSH2 0x19E DUP4 PUSH2 0x153 JUMP JUMPDEST SWAP3 POP DUP3 DUP3 ADD SWAP1 POP DUP1 DUP3 GT ISZERO PUSH2 0x1B6 JUMPI PUSH2 0x1B5 PUSH2 0x15C JUMP JUMPDEST JUMPDEST SWAP3 SWAP2 POP POP JUMP JUMPDEST PUSH0 PUSH20 0xFFFFFFFFFFFFFFFFFFFFFFFFFFFFFFFFFFFFFFFF DUP3 AND SWAP1 POP SWAP2 SWAP1 POP JUMP JUMPDEST PUSH0 PUSH2 0x1E5 DUP3 PUSH2 0x1BC JUMP JUMPDEST SWAP1 POP SWAP2 SWAP1 POP JUMP JUMPDEST PUSH2 0x1F5 DUP2 PUSH2 0x1DB JUMP JUMPDEST DUP3 MSTORE POP POP JUMP JUMPDEST PUSH2 0x204 DUP2 PUSH2 0x153 JUMP JUMPDEST DUP3 MSTORE POP POP JUMP JUMPDEST PUSH0 DUP3 DUP3 MSTORE PUSH1 0x20 DUP3 ADD SWAP1 POP SWAP3 SWAP2 POP POP JUMP JUMPDEST DUP3 DUP2 DUP4 CALLDATACOPY PUSH0 DUP4 DUP4 ADD MSTORE POP POP POP JUMP JUMPDEST PUSH0 PUSH1 0x1F NOT PUSH1 0x1F DUP4 ADD AND SWAP1 POP SWAP2 SWAP1 POP JUMP JUMPDEST PUSH0 PUSH2 0x243 DUP4 DUP6 PUSH2 0x20A JUMP JUMPDEST SWAP4 POP PUSH2 0x250 DUP4 DUP6 DUP5 PUSH2 0x21A JUMP JUMPDEST PUSH2 0x259 DUP4 PUSH2 0x228 JUMP JUMPDEST DUP5 ADD SWAP1 POP SWAP4 SWAP3 POP POP POP JUMP JUMPDEST PUSH0 PUSH1 0x60 DUP3 ADD SWAP1 POP PUSH2 0x277 PUSH0 DUP4 ADD DUP8 PUSH2 0x1EC JUMP JUMPDEST PUSH2 0x284 PUSH1 0x20 DUP4 ADD DUP7 PUSH2 0x1FB JUMP JUMPDEST DUP2 DUP2 SUB PUSH1 0x40 DUP4 ADD MSTORE PUSH2 0x297 DUP2 DUP5 DUP7 PUSH2 0x238 JUMP JUMPDEST SWAP1 POP SWAP6 SWAP5 POP POP POP POP POP JUMP JUMPDEST PUSH0 PUSH1 0x20 DUP3 ADD SWAP1 POP PUSH2 0x2B5 PUSH0 DUP4 ADD DUP5 PUSH2 0x1FB JUMP JUMPDEST SWAP3 SWAP2 POP POP JUMP JUMPDEST PUSH0 PUSH2 0x2C5 DUP3 PUSH2 0x153 JUMP JUMPDEST SWAP2 POP PUSH32 0xFFFFFFFFFFFFFFFFFFFFFFFFFFFFFFFFFFFFFFFFFFFFFFFFFFFFFFFFFFFFFFFF DUP3 SUB PUSH2 0x2F7 JUMPI PUSH2 0x2F6 PUSH2 0x15C JUMP JUMPDEST JUMPDEST PUSH1 0x1 DUP3 ADD SWAP1 POP SWAP2 SWAP1 POP JUMP JUMPDEST PUSH0 PUSH1 0x20 DUP3 ADD SWAP1 POP PUSH2 0x315 PUSH0 DUP4 ADD DUP5 PUSH2 0x1EC JUMP JUMPDEST SWAP3 SWAP2 POP POP JUMP INVALID LOG2 PUSH5 0x6970667358 0x22 SLT KECCAK256 DUP6 DELEGATECALL DUP2 0xCB ORIGIN PUSH32 0x7A9BA186D5DF3264AB6183D4EF521823EC713CFF2E8C91B53F6664736F6C6343 STOP ADDMOD 0x22 STOP CALLER "
				},
				"gasEstimates": {
					"creation": {
						"codeDepositCost": "169800",
						"executionCost": "212",
						"totalCost": "170012"
					},
					"external": {
						"": "infinite",
						"counter()": "2424",
						"fallbackReceived()": "2403",
						"increment()": "25753"
					}
				},
				"methodIdentifiers": {
					"counter()": "61bc221a",
					"fallbackReceived()": "5d6a3e7d",
					"increment()": "d09de08a"
				}
			},
			"storageLayout": {
				"storage": [
					{
						"astId": 3,
						"contract": "test64.sol:NonPayableReceiver",
						"label": "counter",
						"offset": 0,
						"slot": "0",
						"type": "t_uint256"
					},
					{
						"astId": 5,
						"contract": "test64.sol:NonPayableReceiver",
						"label": "fallbackReceived",
						"offset": 0,
						"slot": "1",
						"type": "t_uint256"
					}
				],
				"types": {
					"t_uint256": {
						"encoding": "inplace",
						"label": "uint256",
						"numberOfBytes": "32"
					}
				}
			},
			"userdoc": {
				"kind": "user",
				"methods": {},
				"version": 1
			}
		}
	}
}