{
	"test64.sol": {
		"PayableReceiver": {
			"abi": [
				{
					"anonymous": false,
					"inputs": [
						{
							"indexed": false,
							"internalType": "address",
							"name": "sender",
							"type": "address"
						},
						{
							"indexed": false,
							"internalType": "uint256",
							"name": "amount",
							"type": "uint256"
						}
					],
					"name": "EtherReceived",
					"type": "event"
				},
				{
					"anonymous": false,
					"inputs": [
						{
							"indexed": false,
							"internalType": "address",
							"name": "sender",
							"type": "address"
						},
						{
							"indexed": false,
							"internalType": "uint256",
							"name": "amount",
							"type": "uint256"
						},
						{
							"indexed": false,
							"internalType": "bytes",
							"name": "data",
							"type": "bytes"
						}
					],
					"name": "FallbackReceived",
					"type": "event"
				},
				{
					"stateMutability": "payable",
					"type": "fallback"
				},
				{
					"inputs": [],
					"name": "receivedAmount",
					"outputs": [
						{
							"internalType": "uint256",
							"name": "",
							"type": "uint256"
						}
					],
					"stateMutability": "view",
					"type": "function"
				},
				{
					"stateMutability": "payable",
					"type": "receive"
				}
			],
			"devdoc": {
				"kind": "dev",
				"methods": {},
				"version": 1
			},
			"evm": {
				"assembly": "    /* \"test64.sol\":18757:19597  contract PayableReceiver {... */\n  mstore(0x40, 0x80)\n  callvalue\n  dup1\n  iszero\n  tag_1\n  jumpi\n  revert(0x00, 0x00)\ntag_1:\n  pop\n  dataSize(sub_0)\n  dup1\n  dataOffset(sub_0)\n  0x00\n  codecopy\n  0x00\n  return\nstop\n\nsub_0: assembly {\n        /* \"test64.sol\":18757:19597  contract PayableReceiver {... */\n      mstore(0x40, 0x80)\n      jumpi(tag_1, lt(calldatasize, 0x04))\n      shr(0xe0, calldataload(0x00))\n      dup1\n      0x9632e720\n      eq\n      tag_3\n      jumpi\n      jump(tag_2)\n    tag_1:\n      jumpi(tag_2, calldatasize)\n        /* \"test64.sol\":19102:19111  msg.value */\n      callvalue\n        /* \"test64.sol\":19084:19098  receivedAmount */\n      0x00\n      0x00\n        /* \"test64.sol\":19084:19111  receivedAmount += msg.value */\n      dup3\n      dup3\n      sload\n      tag_6\n      swap2\n      swap1\n      tag_7\n      jump\t// in\n    tag_6:\n      swap3\n      pop\n      pop\n      dup2\n      swap1\n      sstore\n      pop\n        /* \"test64.sol\":19129:19202  EtherReceived(... */\n      0x1e57e3bb474320be3d2c77138f75b7c3941292d647f5f9634e33a8e94e0e069b\n        /* \"test64.sol\":19157:19167  msg.sender */\n      caller\n        /* \"test64.sol\":19182:19191  msg.value */\n      callvalue\n        /* \"test64.sol\":19129:19202  EtherReceived(... */\n      mload(0x40)\n      tag_8\n      swap3\n      swap2\n      swap1\n      tag_9\n      jump\t// in\n    tag_8:\n      mload(0x40)\n      dup1\n      swap2\n      sub\n      swap1\n      log1\n        /* \"test64.sol\":18757:19597  contract PayableReceiver {... */\n      stop\n    tag_2:\n        /* \"test64.sol\":19460:19469  msg.value */\n      callvalue\n        /* \"test64.sol\":19442:19456  receivedAmount */\n      0x00\n      0x00\n        /* \"test64.sol\":19442:19469  receivedAmount += msg.value */\n      dup3\n      dup3\n      sload\n      tag_12\n      swap2\n      swap1\n      tag_7\n      jump\t// in\n    tag_12:\n      swap3\n      pop\n      pop\n      dup2\n      swap1\n      sstore\n      pop\n        /* \"test64.sol\":19487:19586  FallbackReceived(... */\n      0x640b83e5ae3a7a0c65a8f78dd3f7df9ccf89e6c9f920bb57308cf1cb1c921144\n        /* \"test64.sol\":19518:19528  msg.sender */\n      caller\n        /* \"test64.sol\":19543:19552  msg.value */\n      callvalue\n        /* \"test64.sol\":19567:19575  msg.data */\n      0x00\n      calldatasize\n        /* \"test64.sol\":19487:19586  FallbackReceived(... */\n      mload(0x40)\n      tag_13\n      swap5\n      swap4\n      swap3\n      swap2\n      swap1\n      tag_14\n      jump\t// in\n    tag_13:\n      mload(0x40)\n      dup1\n      swap2\n      sub\n      swap1\n      log1\n        /* \"test64.sol\":18757:19597  contract PayableReceiver {... */\n      stop\n        /* \"test64.sol\":18791:18820  uint256 public receivedAmount */\n    tag_3:\n      callvalue\n      dup1\n      iszero\n      tag_15\n      jumpi\n      revert(0x00, 0x00)\n    tag_15:\n      pop\n      tag_16\n      tag_17\n      jump\t// in\n    tag_16:\n      mload(0x40)\n      tag_18\n      swap2\n      swap1\n      tag_19\n      jump\t// in\n    tag_18:\n      mload(0x40)\n      dup1\n      swap2\n      sub\n      swap1\n      return\n    tag_17:\n      sload(0x00)\n      dup2\n      jump\t// out\n        /* \"#utility.yul\":7:84   */\n    tag_20:\n        /* \"#utility.yul\":44:51   */\n      0x00\n        /* \"#utility.yul\":73:78   */\n      dup2\n        /* \"#utility.yul\":62:78   */\n      swap1\n      pop\n        /* \"#utility.yul\":7:84   */\n      swap2\n      swap1\n      pop\n      jump\t// out\n        /* \"#utility.yul\":90:270   */\n    tag_21:\n        /* \"#utility.yul\":138:215   */\n      0x4e487b7100000000000000000000000000000000000000000000000000000000\n        /* \"#utility.yul\":135:136   */\n      0x00\n        /* \"#utility.yul\":128:216   */\n      mstore\n        /* \"#utility.yul\":235:239   */\n      0x11\n        /* \"#utility.yul\":232:233   */\n      0x04\n        /* \"#utility.yul\":225:240   */\n      mstore\n        /* \"#utility.yul\":259:263   */\n      0x24\n        /* \"#utility.yul\":256:257   */\n      0x00\n        /* \"#utility.yul\":249:264   */\n      revert\n        /* \"#utility.yul\":276:467   */\n    tag_7:\n        /* \"#utility.yul\":316:319   */\n      0x00\n        /* \"#utility.yul\":335:355   */\n      tag_34\n        /* \"#utility.yul\":353:354   */\n      dup3\n        /* \"#utility.yul\":335:355   */\n      tag_20\n      jump\t// in\n    tag_34:\n        /* \"#utility.yul\":330:355   */\n      swap2\n      pop\n        /* \"#utility.yul\":369:389   */\n      tag_35\n        /* \"#utility.yul\":387:388   */\n      dup4\n        /* \"#utility.yul\":369:389   */\n      tag_20\n      jump\t// in\n    tag_35:\n        /* \"#utility.yul\":364:389   */\n      swap3\n      pop\n        /* \"#utility.yul\":412:413   */\n      dup3\n        /* \"#utility.yul\":409:410   */\n      dup3\n        /* \"#utility.yul\":405:414   */\n      add\n        /* \"#utility.yul\":398:414   */\n      swap1\n      pop\n        /* \"#utility.yul\":433:436   */\n      dup1\n        /* \"#utility.yul\":430:431   */\n      dup3\n        /* \"#utility.yul\":427:437   */\n      gt\n        /* \"#utility.yul\":424:460   */\n      iszero\n      tag_36\n      jumpi\n        /* \"#utility.yul\":440:458   */\n      tag_37\n      tag_21\n      jump\t// in\n    tag_37:\n        /* \"#utility.yul\":424:460   */\n    tag_36:\n        /* \"#utility.yul\":276:467   */\n      swap3\n      swap2\n      pop\n      pop\n      jump\t// out\n        /* \"#utility.yul\":473:599   */\n    tag_22:\n        /* \"#utility.yul\":510:517   */\n      0x00\n        /* \"#utility.yul\":550:592   */\n      0xffffffffffffffffffffffffffffffffffffffff\n        /* \"#utility.yul\":543:548   */\n      dup3\n        /* \"#utility.yul\":539:593   */\n      and\n        /* \"#utility.yul\":528:593   */\n      swap1\n      pop\n        /* \"#utility.yul\":473:599   */\n      swap2\n      swap1\n      pop\n      jump\t// out\n        /* \"#utility.yul\":605:701   */\n    tag_23:\n        /* \"#utility.yul\":642:649   */\n      0x00\n        /* \"#utility.yul\":671:695   */\n      tag_40\n        /* \"#utility.yul\":689:694   */\n      dup3\n        /* \"#utility.yul\":671:695   */\n      tag_22\n      jump\t// in\n    tag_40:\n        /* \"#utility.yul\":660:695   */\n      swap1\n      pop\n        /* \"#utility.yul\":605:701   */\n      swap2\n      swap1\n      pop\n      jump\t// out\n        /* \"#utility.yul\":707:825   */\n    tag_24:\n        /* \"#utility.yul\":794:818   */\n      tag_42\n        /* \"#utility.yul\":812:817   */\n      dup2\n        /* \"#utility.yul\":794:818   */\n      tag_23\n      jump\t// in\n    tag_42:\n        /* \"#utility.yul\":789:792   */\n      dup3\n        /* \"#utility.yul\":782:819   */\n      mstore\n        /* \"#utility.yul\":707:825   */\n      pop\n      pop\n      jump\t// out\n        /* \"#utility.yul\":831:949   */\n    tag_25:\n        /* \"#utility.yul\":918:942   */\n      tag_44\n        /* \"#utility.yul\":936:941   */\n      dup2\n        /* \"#utility.yul\":918:942   */\n      tag_20\n      jump\t// in\n    tag_44:\n        /* \"#utility.yul\":913:916   */\n      dup3\n        /* \"#utility.yul\":906:943   */\n      mstore\n        /* \"#utility.yul\":831:949   */\n      pop\n      pop\n      jump\t// out\n        /* \"#utility.yul\":955:1287   */\n    tag_9:\n        /* \"#utility.yul\":1076:1080   */\n      0x00\n        /* \"#utility.yul\":1114:1116   */\n      0x40\n        /* \"#utility.yul\":1103:1112   */\n      dup3\n        /* \"#utility.yul\":1099:1117   */\n      add\n        /* \"#utility.yul\":1091:1117   */\n      swap1\n      pop\n        /* \"#utility.yul\":1127:1198   */\n      tag_46\n        /* \"#utility.yul\":1195:1196   */\n      0x00\n        /* \"#utility.yul\":1184:1193   */\n      dup4\n        /* \"#utility.yul\":1180:1197   */\n      add\n        /* \"#utility.yul\":1171:1177   */\n      dup6\n        /* \"#utility.yul\":1127:1198   */\n      tag_24\n      jump\t// in\n    tag_46:\n        /* \"#utility.yul\":1208:1280   */\n      tag_47\n        /* \"#utility.yul\":1276:1278   */\n      0x20\n        /* \"#utility.yul\":1265:1274   */\n      dup4\n        /* \"#utility.yul\":1261:1279   */\n      add\n        /* \"#utility.yul\":1252:1258   */\n      dup5\n        /* \"#utility.yul\":1208:1280   */\n      tag_25\n      jump\t// in\n    tag_47:\n        /* \"#utility.yul\":955:1287   */\n      swap4\n      swap3\n      pop\n      pop\n      pop\n      jump\t// out\n        /* \"#utility.yul\":1293:1461   */\n    tag_26:\n        /* \"#utility.yul\":1376:1387   */\n      0x00\n        /* \"#utility.yul\":1410:1416   */\n      dup3\n        /* \"#utility.yul\":1405:1408   */\n      dup3\n        /* \"#utility.yul\":1398:1417   */\n      mstore\n        /* \"#utility.yul\":1450:1454   */\n      0x20\n        /* \"#utility.yul\":1445:1448   */\n      dup3\n        /* \"#utility.yul\":1441:1455   */\n      add\n        /* \"#utility.yul\":1426:1455   */\n      swap1\n      pop\n        /* \"#utility.yul\":1293:1461   */\n      swap3\n      swap2\n      pop\n      pop\n      jump\t// out\n        /* \"#utility.yul\":1467:1615   */\n    tag_27:\n        /* \"#utility.yul\":1565:1571   */\n      dup3\n        /* \"#utility.yul\":1560:1563   */\n      dup2\n        /* \"#utility.yul\":1555:1558   */\n      dup4\n        /* \"#utility.yul\":1542:1572   */\n      calldatacopy\n        /* \"#utility.yul\":1606:1607   */\n      0x00\n        /* \"#utility.yul\":1597:1603   */\n      dup4\n        /* \"#utility.yul\":1592:1595   */\n      dup4\n        /* \"#utility.yul\":1588:1604   */\n      add\n        /* \"#utility.yul\":1581:1608   */\n      mstore\n        /* \"#utility.yul\":1467:1615   */\n      pop\n      pop\n      pop\n      jump\t// out\n        /* \"#utility.yul\":1621:1723   */\n    tag_28:\n        /* \"#utility.yul\":1662:1668   */\n      0x00\n        /* \"#utility.yul\":1713:1715   */\n      0x1f\n        /* \"#utility.yul\":1709:1716   */\n      not\n        /* \"#utility.yul\":1704:1706   */\n      0x1f\n        /* \"#utility.yul\":1697:1702   */\n      dup4\n        /* \"#utility.yul\":1693:1707   */\n      add\n        /* \"#utility.yul\":1689:1717   */\n      and\n        /* \"#utility.yul\":1679:1717   */\n      swap1\n      pop\n        /* \"#utility.yul\":1621:1723   */\n      swap2\n      swap1\n      pop\n      jump\t// out\n        /* \"#utility.yul\":1751:2065   */\n    tag_29:\n        /* \"#utility.yul\":1847:1850   */\n      0x00\n        /* \"#utility.yul\":1868:1938   */\n      tag_52\n        /* \"#utility.yul\":1931:1937   */\n      dup4\n        /* \"#utility.yul\":1926:1929   */\n      dup6\n        /* \"#utility.yul\":1868:1938   */\n      tag_26\n      jump\t// in\n    tag_52:\n        /* \"#utility.yul\":1861:1938   */\n      swap4\n      pop\n        /* \"#utility.yul\":1948:2004   */\n      tag_53\n        /* \"#utility.yul\":1997:2003   */\n      dup4\n        /* \"#utility.yul\":1992:1995   */\n      dup6\n        /* \"#utility.yul\":1985:1990   */\n      dup5\n        /* \"#utility.yul\":1948:2004   */\n      tag_27\n      jump\t// in\n    tag_53:\n        /* \"#utility.yul\":2029:2058   */\n      tag_54\n        /* \"#utility.yul\":2051:2057   */\n      dup4\n        /* \"#utility.yul\":2029:2058   */\n      tag_28\n      jump\t// in\n    tag_54:\n        /* \"#utility.yul\":2024:2027   */\n      dup5\n        /* \"#utility.yul\":2020:2059   */\n      add\n        /* \"#utility.yul\":2013:2059   */\n      swap1\n      pop\n        /* \"#utility.yul\":1751:2065   */\n      swap4\n      swap3\n      pop\n      pop\n      pop\n      jump\t// out\n        /* \"#utility.yul\":2071:2620   */\n    tag_14:\n        /* \"#utility.yul\":2248:2252   */\n      0x00\n        /* \"#utility.yul\":2286:2288   */\n      0x60\n        /* \"#utility.yul\":2275:2284   */\n      dup3\n        /* \"#utility.yul\":2271:2289   */\n      add\n        /* \"#utility.yul\":2263:2289   */\n      swap1\n      pop\n        /* \"#utility.yul\":2299:2370   */\n      tag_56\n        /* \"#utility.yul\":2367:2368   */\n      0x00\n        /* \"#utility.yul\":2356:2365   */\n      dup4\n        /* \"#utility.yul\":2352:2369   */\n      add\n        /* \"#utility.yul\":2343:2349   */\n      dup8\n        /* \"#utility.yul\":2299:2370   */\n      tag_24\n      jump\t// in\n    tag_56:\n        /* \"#utility.yul\":2380:2452   */\n      tag_57\n        /* \"#utility.yul\":2448:2450   */\n      0x20\n        /* \"#utility.yul\":2437:2446   */\n      dup4\n        /* \"#utility.yul\":2433:2451   */\n      add\n        /* \"#utility.yul\":2424:2430   */\n      dup7\n        /* \"#utility.yul\":2380:2452   */\n      tag_25\n      jump\t// in\n    tag_57:\n        /* \"#utility.yul\":2499:2508   */\n      dup2\n        /* \"#utility.yul\":2493:2497   */\n      dup2\n        /* \"#utility.yul\":2489:2509   */\n      sub\n        /* \"#utility.yul\":2484:2486   */\n      0x40\n        /* \"#utility.yul\":2473:2482   */\n      dup4\n        /* \"#utility.yul\":2469:2487   */\n      add\n        /* \"#utility.yul\":2462:2510   */\n      mstore\n        /* \"#utility.yul\":2527:2613   */\n      tag_58\n        /* \"#utility.yul\":2608:2612   */\n      dup2\n        /* \"#utility.yul\":2599:2605   */\n      dup5\n        /* \"#utility.yul\":2591:2597   */\n      dup7\n        /* \"#utility.yul\":2527:2613   */\n      tag_29\n      jump\t// in\n    tag_58:\n        /* \"#utility.yul\":2519:2613   */\n      swap1\n      pop\n        /* \"#utility.yul\":2071:2620   */\n      swap6\n      swap5\n      pop\n      pop\n      pop\n      pop\n      pop\n      jump\t// out\n        /* \"#utility.yul\":2626:2848   */\n    tag_19:\n        /* \"#utility.yul\":2719:2723   */\n      0x00\n        /* \"#utility.yul\":2757:2759   */\n      0x20\n        /* \"#utility.yul\":2746:2755   */\n      dup3\n        /* \"#utility.yul\":2742:2760   */\n      add\n        /* \"#utility.yul\":2734:2760   */\n      swap1\n      pop\n        /* \"#utility.yul\":2770:2841   */\n      tag_60\n        /* \"#utility.yul\":2838:2839   */\n      0x00\n        /* \"#utility.yul\":2827:2836   */\n      dup4\n        /* \"#utility.yul\":2823:2840   */\n      add\n        /* \"#utility.yul\":2814:2820   */\n      dup5\n        /* \"#utility.yul\":2770:2841   */\n      tag_25\n      jump\t// in\n    tag_60:\n        /* \"#utility.yul\":2626:2848   */\n      swap3\n      swap2\n      pop\n      pop\n      jump\t// out\n\n    auxdata: 0xa2646970667358221220c14c1bc9cd145a2a58d2fe97275523b96f3d6af0ad8d101a8a1fb52a440980e364736f6c63430008220033\n}\n",
				"bytecode": {
					"linkReferences": {},
					"object": "6080604052348015600e575f5ffd5b506102c28061001c5f395ff3fe608060405260043610610021575f3560e01c80639632e720146100ce57610078565b3661007857345f5f8282546100369190610133565b925050819055507f1e57e3bb474320be3d2c77138f75b7c3941292d647f5f9634e33a8e94e0e069b333460405161006e9291906101b4565b60405180910390a1005b345f5f8282546100889190610133565b925050819055507f640b83e5ae3a7a0c65a8f78dd3f7df9ccf89e6c9f920bb57308cf1cb1c92114433345f366040516100c49493929190610235565b60405180910390a1005b3480156100d9575f5ffd5b506100e26100f8565b6040516100ef9190610273565b60405180910390f35b5f5481565b5f819050919050565b7f4e487b71000000000000000000000000000000000000000000000000000000005f52601160045260245ffd5b5f61013d826100fd565b9150610148836100fd565b92508282019050808211156101605761015f610106565b5b92915050565b5f73ffffffffffffffffffffffffffffffffffffffff82169050919050565b5f61018f82610166565b9050919050565b61019f81610185565b82525050565b6101ae816100fd565b82525050565b5f6040820190506101c75f830185610196565b6101d460208301846101a5565b9392505050565b5f82825260208201905092915050565b828183375f83830152505050565b5f601f19601f8301169050919050565b5f61021483856101db565b93506102218385846101eb565b61022a836101f9565b840190509392505050565b5f6060820190506102485f830187610196565b61025560208301866101a5565b8181036040830152610268818486610209565b905095945050505050565b5f6020820190506102865f8301846101a5565b9291505056fea2646970667358221220c14c1bc9cd145a2a58d2fe97275523b96f3d6af0ad8d101a8a1fb52a440980e364736f6c63430008220033",
					"opcodes": "PUSH1 0x80 PUSH1 0x40 MSTORE CALLVALUE DUP1 ISZERO PUSH1 0xE JUMPI PUSH0 PUSH0 REVERT JUMPDEST POP PUSH2 0x2C2 DUP1 PUSH2 0x1C PUSH0 CODECOPY PUSH0 RETURN INVALID PUSH1 0x80 PUSH1 0x40 MSTORE PUSH1 0x4 CALLDATASIZE LT PUSH2 0x21 JUMPI PUSH0 CALLDATALOAD PUSH1 0xE0 SHR DUP1 PUSH4 0x9632E720 EQ PUSH2 0xCE JUMPI PUSH2 0x78 JUMP JUMPDEST CALLDATASIZE PUSH2 0x78 JUMPI CALLVALUE PUSH0 PUSH0 DUP3 DUP3 SLOAD PUSH2 0x36 SWAP2 SWAP1 PUSH2 0x133 JUMP JUMPDEST SWAP3 POP POP DUP2 SWAP1 SSTORE POP PUSH32 0x1E57E3BB474320BE3D2C77138F75B7C3941292D647F5F9634E33A8E94E0E069B CALLER CALLVALUE PUSH1 0x40 MLOAD PUSH2 0x6E SWAP3 SWAP2 SWAP1 PUSH2 0x1B4 JUMP JUMPDEST PUSH1 0x40 MLOAD DUP1 SWAP2 SUB SWAP1 LOG1 STOP JUMPDEST CALLVALUE PUSH0 PUSH0 DUP3 DUP3 SLOAD PUSH2 0x88 SWAP2 SWAP1 PUSH2 0x133 JUMP JUMPDEST SWAP3 POP POP DUP2 SWAP1 SSTORE POP PUSH32 0x640B83E5AE3A7A0C65A8F78DD3F7DF9CCF89E6C9F920BB57308CF1CB1C921144 CALLER CALLVALUE PUSH0 CALLDATASIZE PUSH1 0x40 MLOAD PUSH2 0xC4 SWAP5 SWAP4 SWAP3 SWAP2 SWAP1 PUSH2 0x235 JUMP JUMPDEST PUSH1 0x40 MLOAD DUP1 SWAP2 SUB SWAP1 LOG1 STOP JUMPDEST CALLVALUE DUP1 ISZERO PUSH2 0xD9 JUMPI PUSH0 PUSH0 REVERT JUMPDEST POP PUSH2 0xE2 PUSH2 0xF8 JUMP JUMPDEST PUSH1 0x40 MLOAD PUSH2 0xEF SWAP2 SWAP1 PUSH2 0x273 JUMP JUMPDEST PUSH1 0x40 MLOAD DUP1 SWAP2 SUB SWAP1 RETURN JUMPDEST PUSH0 SLOAD DUP2 JUMP JUMPDEST PUSH0 DUP2 SWAP1 POP SWAP2 SWAP1 POP JUMP JUMPDEST PUSH32 0x4E487B7100000000000000000000000000000000000000000000000000000000 PUSH0 MSTORE PUSH1 0x11 PUSH1 0x4 MSTORE PUSH1 0x24 PUSH0 REVERT JUMPDEST PUSH0 PUSH2 0x13D DUP3 PUSH2 0xFD JUMP JUMPDEST SWAP2 POP PUSH2 0x148 DUP4 PUSH2 0xFD JUMP JUMPDEST SWAP3 POP DUP3 DUP3 ADD SWAP1 POP DUP1 DUP3 GT ISZERO PUSH2 0x160 JUMPI PUSH2 0x15F PUSH2 0x106 JUMP JUMPDEST JUMPDEST SWAP3 SWAP2 POP POP JUMP JUMPDEST PUSH0 PUSH20 0xFFFFFFFFFFFFFFFFFFFFFFFFFFFFFFFFFFFFFFFF DUP3 AND SWAP1 POP SWAP2 SWAP1 POP JUMP JUMPDEST PUSH0 PUSH2 0x18F DUP3 PUSH2 0x166 JUMP JUMPDEST SWAP1 POP SWAP2 SWAP1 POP JUMP JUMPDEST PUSH2 0x19F DUP2 PUSH2 0x185 JUMP JUMPDEST DUP3 MSTORE POP POP JUMP JUMPDEST PUSH2 0x1AE DUP2 PUSH2 0xFD JUMP JUMPDEST DUP3 MSTORE POP POP JUMP JUMPDEST PUSH0 PUSH1 0x40 DUP3 ADD SWAP1 POP PUSH2 0x1C7 PUSH0 DUP4 ADD DUP6 PUSH2 0x196 JUMP JUMPDEST PUSH2 0x1D4 PUSH1 0x20 DUP4 ADD DUP5 PUSH2 0x1A5 JUMP JUMPDEST SWAP4 SWAP3 POP POP POP JUMP JUMPDEST PUSH0 DUP3 DUP3 MSTORE PUSH1 0x20 DUP3 ADD SWAP1 POP SWAP3 SWAP2 POP POP JUMP JUMPDEST DUP3 DUP2 DUP4 CALLDATACOPY PUSH0 DUP4 DUP4 ADD MSTORE POP POP POP JUMP JUMPDEST PUSH0 PUSH1 0x1F NOT PUSH1 0x1F DUP4 ADD AND SWAP1 POP SWAP2 SWAP1 POP JUMP JUMPDEST PUSH0 PUSH2 0x214 DUP4 DUP6 PUSH2 0x1DB JUMP JUMPDEST SWAP4 POP PUSH2 0x221 DUP4 DUP6 DUP5 PUSH2 0x1EB JUMP JUMPDEST PUSH2 0x22A DUP4 PUSH2 0x1F9 JUMP JUMPDEST DUP5 ADD SWAP1 POP SWAP4 SWAP3 POP POP POP JUMP JUMPDEST PUSH0 PUSH1 0x60 DUP3 ADD SWAP1 POP PUSH2 0x248 PUSH0 DUP4 ADD DUP8 PUSH2 0x196 JUMP JUMPDEST PUSH2 0x255 PUSH1 0x20 DUP4 ADD DUP7 PUSH2 0x1A5 JUMP JUMPDEST DUP2 DUP2 SUB PUSH1 0x40 DUP4 ADD MSTORE PUSH2 0x268 DUP2 DUP5 DUP7 PUSH2 0x209 JUMP JUMPDEST SWAP1 POP SWAP6 SWAP5 POP POP POP POP POP JUMP JUMPDEST PUSH0 PUSH1 0x20 DUP3 ADD SWAP1 POP PUSH2 0x286 PUSH0 DUP4 ADD DUP5 PUSH2 0x1A5 JUMP JUMPDEST SWAP3 SWAP2 POP POP JUMP INVALID LOG2 PUSH5 0x6970667358 0x22 SLT KECCAK256 0xC1 0x4C SHL 0xC9 0xCD EQ GAS 0x2A PC 0xD2 INVALID SWAP8 0x27 SSTORE 0x23 0xB9 PUSH16 0x3D6AF0AD8D101A8A1FB52A440980E364 PUSH20 0x6F6C634300082200330000000000000000000000 "
				},
				"gasEstimates": {
					"creation": {
						"codeDepositCost": "141200",
						"executionCost": "188",
						"totalCost": "141388"
					},
					"external": {
						"": "infinite",
						"receivedAmount()": "2402"
					}
				},
				"methodIdentifiers": {
					"receivedAmount()": "9632e720"
				}
			},
			"storageLayout": {
				"storage": [
					{
						"astId": 50,
						"contract": "test64.sol:PayableReceiver",
						"label": "receivedAmount",
						"offset": 0,
						"slot": "0",
						"type": "t_uint256"
					}
				],
				"types": {
					"t_uint256": {
						"encoding": "inplace",
						"label": "uint256",
						"numberOfBytes": "32"
					}
				}
			},
			"userdoc": {
				"kind": "user",
				"methods": {},
				"version": 1
			}
		}
	}
}