{
	"test60.sol": {
		"CheckedVsUnchecked": {
			"abi": [
				{
					"anonymous": false,
					"inputs": [
						{
							"indexed": true,
							"internalType": "address",
							"name": "user",
							"type": "address"
						},
						{
							"indexed": false,
							"internalType": "uint256",
							"name": "amount",
							"type": "uint256"
						}
					],
					"name": "Deposit",
					"type": "event"
				},
				{
					"anonymous": false,
					"inputs": [
						{
							"indexed": false,
							"internalType": "bool",
							"name": "success",
							"type": "bool"
						},
						{
							"indexed": false,
							"internalType": "bytes",
							"name": "data",
							"type": "bytes"
						}
					],
					"name": "LowLevelResult",
					"type": "event"
				},
				{
					"anonymous": false,
					"inputs": [
						{
							"indexed": false,
							"internalType": "string",
							"name": "reason",
							"type": "string"
						}
					],
					"name": "TryCatchFailure",
					"type": "event"
				},
				{
					"anonymous": false,
					"inputs": [
						{
							"indexed": false,
							"internalType": "address",
							"name": "target",
							"type": "address"
						}
					],
					"name": "TryCatchSuccess",
					"type": "event"
				},
				{
					"anonymous": false,
					"inputs": [
						{
							"indexed": true,
							"internalType": "address",
							"name": "user",
							"type": "address"
						},
						{
							"indexed": true,
							"internalType": "address",
							"name": "receiver",
							"type": "address"
						},
						{
							"indexed": false,
							"internalType": "uint256",
							"name": "amount",
							"type": "uint256"
						}
					],
					"name": "WithdrawAttempt",
					"type": "event"
				},
				{
					"anonymous": false,
					"inputs": [
						{
							"indexed": true,
							"internalType": "address",
							"name": "user",
							"type": "address"
						},
						{
							"indexed": true,
							"internalType": "address",
							"name": "receiver",
							"type": "address"
						},
						{
							"indexed": false,
							"internalType": "uint256",
							"name": "amount",
							"type": "uint256"
						},
						{
							"indexed": false,
							"internalType": "string",
							"name": "reason",
							"type": "string"
						}
					],
					"name": "WithdrawFailure",
					"type": "event"
				},
				{
					"anonymous": false,
					"inputs": [
						{
							"indexed": true,
							"internalType": "address",
							"name": "user",
							"type": "address"
						},
						{
							"indexed": true,
							"internalType": "address",
							"name": "receiver",
							"type": "address"
						},
						{
							"indexed": false,
							"internalType": "uint256",
							"name": "amount",
							"type": "uint256"
						}
					],
					"name": "WithdrawSuccess",
					"type": "event"
				},
				{
					"inputs": [
						{
							"internalType": "address",
							"name": "",
							"type": "address"
						}
					],
					"name": "balances",
					"outputs": [
						{
							"internalType": "uint256",
							"name": "",
							"type": "uint256"
						}
					],
					"stateMutability": "view",
					"type": "function"
				},
				{
					"inputs": [],
					"name": "contractBalance",
					"outputs": [
						{
							"internalType": "uint256",
							"name": "",
							"type": "uint256"
						}
					],
					"stateMutability": "view",
					"type": "function"
				},
				{
					"inputs": [
						{
							"internalType": "address payable",
							"name": "receiver",
							"type": "address"
						},
						{
							"internalType": "uint256",
							"name": "amount",
							"type": "uint256"
						}
					],
					"name": "dangerousWithdraw",
					"outputs": [],
					"stateMutability": "nonpayable",
					"type": "function"
				},
				{
					"inputs": [],
					"name": "deposit",
					"outputs": [],
					"stateMutability": "payable",
					"type": "function"
				},
				{
					"inputs": [
						{
							"internalType": "address payable",
							"name": "receiver",
							"type": "address"
						},
						{
							"internalType": "uint256",
							"name": "amount",
							"type": "uint256"
						}
					],
					"name": "safeWithdraw",
					"outputs": [],
					"stateMutability": "nonpayable",
					"type": "function"
				},
				{
					"inputs": [
						{
							"internalType": "address",
							"name": "target",
							"type": "address"
						},
						{
							"internalType": "bool",
							"name": "shouldFail",
							"type": "bool"
						}
					],
					"name": "testTryCatch",
					"outputs": [],
					"stateMutability": "nonpayable",
					"type": "function"
				},
				{
					"inputs": [
						{
							"internalType": "address",
							"name": "",
							"type": "address"
						}
					],
					"name": "withdrawn",
					"outputs": [
						{
							"internalType": "bool",
							"name": "",
							"type": "bool"
						}
					],
					"stateMutability": "view",
					"type": "function"
				}
			],
			"devdoc": {
				"kind": "dev",
				"methods": {},
				"version": 1
			},
			"evm": {
				"assembly": "    /* \"test60.sol\":18713:24707  contract CheckedVsUnchecked {... */\n  mstore(0x40, 0x80)\n  callvalue\n  dup1\n  iszero\n  tag_1\n  jumpi\n  revert(0x00, 0x00)\ntag_1:\n  pop\n  dataSize(sub_0)\n  dup1\n  dataOffset(sub_0)\n  0x00\n  codecopy\n  0x00\n  return\nstop\n\nsub_0: assembly {\n        /* \"test60.sol\":18713:24707  contract CheckedVsUnchecked {... */\n      mstore(0x40, 0x80)\n      jumpi(tag_1, lt(calldatasize, 0x04))\n      shr(0xe0, calldataload(0x00))\n      dup1\n      0x8b7afe2e\n      gt\n      tag_9\n      jumpi\n      dup1\n      0x8b7afe2e\n      eq\n      tag_5\n      jumpi\n      dup1\n      0xa7b9b10b\n      eq\n      tag_6\n      jumpi\n      dup1\n      0xd0e30db0\n      eq\n      tag_7\n      jumpi\n      dup1\n      0xf9087315\n      eq\n      tag_8\n      jumpi\n      jump(tag_1)\n    tag_9:\n      dup1\n      0x27e235e3\n      eq\n      tag_2\n      jumpi\n      dup1\n      0x5058c460\n      eq\n      tag_3\n      jumpi\n      dup1\n      0x6ef61092\n      eq\n      tag_4\n      jumpi\n    tag_1:\n      revert(0x00, 0x00)\n        /* \"test60.sol\":18899:18951  mapping(address => uint256)... */\n    tag_2:\n      callvalue\n      dup1\n      iszero\n      tag_10\n      jumpi\n      revert(0x00, 0x00)\n    tag_10:\n      pop\n      tag_11\n      0x04\n      dup1\n      calldatasize\n      sub\n      dup2\n      add\n      swap1\n      tag_12\n      swap2\n      swap1\n      tag_13\n      jump\t// in\n    tag_12:\n      tag_14\n      jump\t// in\n    tag_11:\n      mload(0x40)\n      tag_15\n      swap2\n      swap1\n      tag_16\n      jump\t// in\n    tag_15:\n      mload(0x40)\n      dup1\n      swap2\n      sub\n      swap1\n      return\n        /* \"test60.sol\":21286:22405  function safeWithdraw(... */\n    tag_3:\n      callvalue\n      dup1\n      iszero\n      tag_17\n      jumpi\n      revert(0x00, 0x00)\n    tag_17:\n      pop\n      tag_18\n      0x04\n      dup1\n      calldatasize\n      sub\n      dup2\n      add\n      swap1\n      tag_19\n      swap2\n      swap1\n      tag_20\n      jump\t// in\n    tag_19:\n      tag_21\n      jump\t// in\n    tag_18:\n      stop\n        /* \"test60.sol\":18960:19010  mapping(address => bool)... */\n    tag_4:\n      callvalue\n      dup1\n      iszero\n      tag_22\n      jumpi\n      revert(0x00, 0x00)\n    tag_22:\n      pop\n      tag_23\n      0x04\n      dup1\n      calldatasize\n      sub\n      dup2\n      add\n      swap1\n      tag_24\n      swap2\n      swap1\n      tag_13\n      jump\t// in\n    tag_24:\n      tag_25\n      jump\t// in\n    tag_23:\n      mload(0x40)\n      tag_26\n      swap2\n      swap1\n      tag_27\n      jump\t// in\n    tag_26:\n      mload(0x40)\n      dup1\n      swap2\n      sub\n      swap1\n      return\n        /* \"test60.sol\":24566:24704  function contractBalance()... */\n    tag_5:\n      callvalue\n      dup1\n      iszero\n      tag_28\n      jumpi\n      revert(0x00, 0x00)\n    tag_28:\n      pop\n      tag_29\n      tag_30\n      jump\t// in\n    tag_29:\n      mload(0x40)\n      tag_31\n      swap2\n      swap1\n      tag_16\n      jump\t// in\n    tag_31:\n      mload(0x40)\n      dup1\n      swap2\n      sub\n      swap1\n      return\n        /* \"test60.sol\":22569:23757  function testTryCatch(... */\n    tag_6:\n      callvalue\n      dup1\n      iszero\n      tag_32\n      jumpi\n      revert(0x00, 0x00)\n    tag_32:\n      pop\n      tag_33\n      0x04\n      dup1\n      calldatasize\n      sub\n      dup2\n      add\n      swap1\n      tag_34\n      swap2\n      swap1\n      tag_35\n      jump\t// in\n    tag_34:\n      tag_36\n      jump\t// in\n    tag_33:\n      stop\n        /* \"test60.sol\":20012:20208  function deposit()... */\n    tag_7:\n      tag_37\n      tag_38\n      jump\t// in\n    tag_37:\n      stop\n        /* \"test60.sol\":20375:21124  function dangerousWithdraw(... */\n    tag_8:\n      callvalue\n      dup1\n      iszero\n      tag_39\n      jumpi\n      revert(0x00, 0x00)\n    tag_39:\n      pop\n      tag_40\n      0x04\n      dup1\n      calldatasize\n      sub\n      dup2\n      add\n      swap1\n      tag_41\n      swap2\n      swap1\n      tag_20\n      jump\t// in\n    tag_41:\n      tag_42\n      jump\t// in\n    tag_40:\n      stop\n        /* \"test60.sol\":18899:18951  mapping(address => uint256)... */\n    tag_14:\n      mstore(0x20, 0x00)\n      dup1\n      0x00\n      mstore\n      keccak256(0x00, 0x40)\n      0x00\n      swap2\n      pop\n      swap1\n      pop\n      sload\n      dup2\n      jump\t// out\n        /* \"test60.sol\":21286:22405  function safeWithdraw(... */\n    tag_21:\n        /* \"test60.sol\":21455:21461  amount */\n      dup1\n        /* \"test60.sol\":21431:21439  balances */\n      0x00\n        /* \"test60.sol\":21431:21451  balances[msg.sender] */\n      0x00\n        /* \"test60.sol\":21440:21450  msg.sender */\n      caller\n        /* \"test60.sol\":21431:21451  balances[msg.sender] */\n      0xffffffffffffffffffffffffffffffffffffffff\n      and\n      0xffffffffffffffffffffffffffffffffffffffff\n      and\n      dup2\n      mstore\n      0x20\n      add\n      swap1\n      dup2\n      mstore\n      0x20\n      add\n      0x00\n      keccak256\n      sload\n        /* \"test60.sol\":21431:21461  balances[msg.sender] >= amount */\n      lt\n      iszero\n        /* \"test60.sol\":21409:21509  require(... */\n      tag_44\n      jumpi\n      mload(0x40)\n      0x08c379a000000000000000000000000000000000000000000000000000000000\n      dup2\n      mstore\n      0x04\n      add\n      tag_45\n      swap1\n      tag_46\n      jump\t// in\n    tag_45:\n      mload(0x40)\n      dup1\n      swap2\n      sub\n      swap1\n      revert\n    tag_44:\n        /* \"test60.sol\":21582:21590  receiver */\n      dup2\n        /* \"test60.sol\":21527:21622  WithdrawAttempt(... */\n      0xffffffffffffffffffffffffffffffffffffffff\n      and\n        /* \"test60.sol\":21557:21567  msg.sender */\n      caller\n        /* \"test60.sol\":21527:21622  WithdrawAttempt(... */\n      0xffffffffffffffffffffffffffffffffffffffff\n      and\n      0xb82e8ec75b966e34b483311327fa5fa31c11c92095cd0a42e067394ece4e8a0f\n        /* \"test60.sol\":21605:21611  amount */\n      dup4\n        /* \"test60.sol\":21527:21622  WithdrawAttempt(... */\n      mload(0x40)\n      tag_47\n      swap2\n      swap1\n      tag_16\n      jump\t// in\n    tag_47:\n      mload(0x40)\n      dup1\n      swap2\n      sub\n      swap1\n      log3\n        /* \"test60.sol\":21685:21697  bool success */\n      0x00\n        /* \"test60.sol\":21699:21716  bytes memory data */\n      0x00\n        /* \"test60.sol\":21733:21741  receiver */\n      dup4\n        /* \"test60.sol\":21733:21746  receiver.call */\n      0xffffffffffffffffffffffffffffffffffffffff\n      and\n        /* \"test60.sol\":21754:21760  amount */\n      dup4\n        /* \"test60.sol\":21733:21765  receiver.call{value: amount}(\"\") */\n      mload(0x40)\n      tag_48\n      swap1\n      tag_49\n      jump\t// in\n    tag_48:\n      0x00\n      mload(0x40)\n      dup1\n      dup4\n      sub\n      dup2\n      dup6\n      dup8\n      gas\n      call\n      swap3\n      pop\n      pop\n      pop\n      returndatasize\n      dup1\n      0x00\n      dup2\n      eq\n      tag_52\n      jumpi\n      mload(0x40)\n      swap2\n      pop\n      and(add(returndatasize, 0x3f), not(0x1f))\n      dup3\n      add\n      0x40\n      mstore\n      returndatasize\n      dup3\n      mstore\n      returndatasize\n      0x00\n      0x20\n      dup5\n      add\n      returndatacopy\n      jump(tag_51)\n    tag_52:\n      0x60\n      swap2\n      pop\n    tag_51:\n      pop\n        /* \"test60.sol\":21684:21765  (bool success, bytes memory data) =... */\n      swap2\n      pop\n      swap2\n      pop\n        /* \"test60.sol\":21833:21840  success */\n      dup2\n        /* \"test60.sol\":21828:22137  if (!success) {... */\n      tag_53\n      jumpi\n        /* \"test60.sol\":21859:21885  string memory revertReason */\n      0x00\n        /* \"test60.sol\":21905:21924  _getRevertMsg(data) */\n      tag_54\n        /* \"test60.sol\":21919:21923  data */\n      dup3\n        /* \"test60.sol\":21905:21918  _getRevertMsg */\n      tag_55\n        /* \"test60.sol\":21905:21924  _getRevertMsg(data) */\n      jump\t// in\n    tag_54:\n        /* \"test60.sol\":21859:21924  string memory revertReason =... */\n      swap1\n      pop\n        /* \"test60.sol\":22009:22017  receiver */\n      dup5\n        /* \"test60.sol\":21946:22088  WithdrawFailure(... */\n      0xffffffffffffffffffffffffffffffffffffffff\n      and\n        /* \"test60.sol\":21980:21990  msg.sender */\n      caller\n        /* \"test60.sol\":21946:22088  WithdrawFailure(... */\n      0xffffffffffffffffffffffffffffffffffffffff\n      and\n      0xe7b4f1435cad7862bda8b9d202f8901c444dc265e6f57e263c202af99af72b26\n        /* \"test60.sol\":22036:22042  amount */\n      dup7\n        /* \"test60.sol\":22061:22073  revertReason */\n      dup5\n        /* \"test60.sol\":21946:22088  WithdrawFailure(... */\n      mload(0x40)\n      tag_56\n      swap3\n      swap2\n      swap1\n      tag_57\n      jump\t// in\n    tag_56:\n      mload(0x40)\n      dup1\n      swap2\n      sub\n      swap1\n      log3\n        /* \"test60.sol\":22112:22124  revertReason */\n      dup1\n        /* \"test60.sol\":22105:22125  revert(revertReason) */\n      mload(0x40)\n      0x08c379a000000000000000000000000000000000000000000000000000000000\n      dup2\n      mstore\n      0x04\n      add\n      tag_58\n      swap2\n      swap1\n      tag_59\n      jump\t// in\n    tag_58:\n      mload(0x40)\n      dup1\n      swap2\n      sub\n      swap1\n      revert\n        /* \"test60.sol\":21828:22137  if (!success) {... */\n    tag_53:\n        /* \"test60.sol\":22237:22243  amount */\n      dup3\n        /* \"test60.sol\":22213:22221  balances */\n      0x00\n        /* \"test60.sol\":22213:22233  balances[msg.sender] */\n      0x00\n        /* \"test60.sol\":22222:22232  msg.sender */\n      caller\n        /* \"test60.sol\":22213:22233  balances[msg.sender] */\n      0xffffffffffffffffffffffffffffffffffffffff\n      and\n      0xffffffffffffffffffffffffffffffffffffffff\n      and\n      dup2\n      mstore\n      0x20\n      add\n      swap1\n      dup2\n      mstore\n      0x20\n      add\n      0x00\n      keccak256\n      0x00\n        /* \"test60.sol\":22213:22243  balances[msg.sender] -= amount */\n      dup3\n      dup3\n      sload\n      tag_60\n      swap2\n      swap1\n      tag_61\n      jump\t// in\n    tag_60:\n      swap3\n      pop\n      pop\n      dup2\n      swap1\n      sstore\n      pop\n        /* \"test60.sol\":22280:22284  true */\n      0x01\n        /* \"test60.sol\":22256:22265  withdrawn */\n      dup1\n        /* \"test60.sol\":22256:22277  withdrawn[msg.sender] */\n      0x00\n        /* \"test60.sol\":22266:22276  msg.sender */\n      caller\n        /* \"test60.sol\":22256:22277  withdrawn[msg.sender] */\n      0xffffffffffffffffffffffffffffffffffffffff\n      and\n      0xffffffffffffffffffffffffffffffffffffffff\n      and\n      dup2\n      mstore\n      0x20\n      add\n      swap1\n      dup2\n      mstore\n      0x20\n      add\n      0x00\n      keccak256\n      0x00\n        /* \"test60.sol\":22256:22284  withdrawn[msg.sender] = true */\n      0x0100\n      exp\n      dup2\n      sload\n      dup2\n      0xff\n      mul\n      not\n      and\n      swap1\n      dup4\n      iszero\n      iszero\n      mul\n      or\n      swap1\n      sstore\n      pop\n        /* \"test60.sol\":22357:22365  receiver */\n      dup4\n        /* \"test60.sol\":22302:22397  WithdrawSuccess(... */\n      0xffffffffffffffffffffffffffffffffffffffff\n      and\n        /* \"test60.sol\":22332:22342  msg.sender */\n      caller\n        /* \"test60.sol\":22302:22397  WithdrawSuccess(... */\n      0xffffffffffffffffffffffffffffffffffffffff\n      and\n      0x13f6fde85ff279c84605d36a9e826fa288b03b0fe2c8df3be542eb045ace0483\n        /* \"test60.sol\":22380:22386  amount */\n      dup6\n        /* \"test60.sol\":22302:22397  WithdrawSuccess(... */\n      mload(0x40)\n      tag_62\n      swap2\n      swap1\n      tag_16\n      jump\t// in\n    tag_62:\n      mload(0x40)\n      dup1\n      swap2\n      sub\n      swap1\n      log3\n        /* \"test60.sol\":21398:22405  {... */\n      pop\n      pop\n        /* \"test60.sol\":21286:22405  function safeWithdraw(... */\n      pop\n      pop\n      jump\t// out\n        /* \"test60.sol\":18960:19010  mapping(address => bool)... */\n    tag_25:\n      mstore(0x20, 0x01)\n      dup1\n      0x00\n      mstore\n      keccak256(0x00, 0x40)\n      0x00\n      swap2\n      pop\n      sload\n      swap1\n      0x0100\n      exp\n      swap1\n      div\n      0xff\n      and\n      dup2\n      jump\t// out\n        /* \"test60.sol\":24566:24704  function contractBalance()... */\n    tag_30:\n        /* \"test60.sol\":24643:24650  uint256 */\n      0x00\n        /* \"test60.sol\":24675:24696  address(this).balance */\n      selfbalance\n        /* \"test60.sol\":24668:24696  return address(this).balance */\n      swap1\n      pop\n        /* \"test60.sol\":24566:24704  function contractBalance()... */\n      swap1\n      jump\t// out\n        /* \"test60.sol\":22569:23757  function testTryCatch(... */\n    tag_36:\n        /* \"test60.sol\":22687:22697  shouldFail */\n      dup1\n        /* \"test60.sol\":22683:23750  if (shouldFail) {... */\n      iszero\n      tag_65\n      jumpi\n        /* \"test60.sol\":22748:22754  target */\n      dup2\n        /* \"test60.sol\":22737:22790  IRejectETH(target)... */\n      0xffffffffffffffffffffffffffffffffffffffff\n      and\n      0xca463e19\n        /* \"test60.sol\":22737:22792  IRejectETH(target)... */\n      mload(0x40)\n      dup2\n      0xffffffff\n      and\n      0xe0\n      shl\n      dup2\n      mstore\n      0x04\n      add\n      0x00\n      mload(0x40)\n      dup1\n      dup4\n      sub\n      dup2\n      0x00\n      dup8\n      dup1\n      extcodesize\n      iszero\n      dup1\n      iszero\n      tag_66\n      jumpi\n      revert(0x00, 0x00)\n    tag_66:\n      pop\n      gas\n      call\n      swap3\n      pop\n      pop\n      pop\n      dup1\n      iszero\n      tag_67\n      jumpi\n      pop\n      0x01\n    tag_67:\n        /* \"test60.sol\":22716:23208  try... */\n      tag_68\n      jumpi\n      tag_72\n      tag_73\n      jump\t// in\n    tag_72:\n      dup1\n      0x08c379a0\n      sub\n      tag_71\n      jumpi\n      pop\n      tag_74\n      tag_75\n      jump\t// in\n    tag_74:\n      dup1\n      tag_76\n      jumpi\n      pop\n      jump(tag_70)\n    tag_76:\n        /* \"test60.sol\":23004:23067  TryCatchFailure(... */\n      0x2170a899eb3df99de3d6973d7f04a8981d877b84ca2055234d696ae04a5547f3\n        /* \"test60.sol\":23042:23048  reason */\n      dup2\n        /* \"test60.sol\":23004:23067  TryCatchFailure(... */\n      mload(0x40)\n      tag_77\n      swap2\n      swap1\n      tag_59\n      jump\t// in\n    tag_77:\n      mload(0x40)\n      dup1\n      swap2\n      sub\n      swap1\n      log1\n        /* \"test60.sol\":22912:23085  catch Error(... */\n      pop\n        /* \"test60.sol\":22716:23208  try... */\n      jump(tag_69)\n    tag_71:\n      pop\n    tag_70:\n        /* \"test60.sol\":23118:23192  TryCatchFailure(... */\n      0x2170a899eb3df99de3d6973d7f04a8981d877b84ca2055234d696ae04a5547f3\n      mload(0x40)\n      tag_78\n      swap1\n      tag_79\n      jump\t// in\n    tag_78:\n      mload(0x40)\n      dup1\n      swap2\n      sub\n      swap1\n      log1\n        /* \"test60.sol\":22716:23208  try... */\n    tag_69:\n      jump(tag_80)\n    tag_68:\n        /* \"test60.sol\":22830:22893  TryCatchSuccess(... */\n      0xe8bacbd8bc730979c451f1de2057fd8a1e9d9f872abc22735c6ab976ca2ebe6f\n        /* \"test60.sol\":22868:22874  target */\n      dup3\n        /* \"test60.sol\":22830:22893  TryCatchSuccess(... */\n      mload(0x40)\n      tag_81\n      swap2\n      swap1\n      tag_82\n      jump\t// in\n    tag_81:\n      mload(0x40)\n      dup1\n      swap2\n      sub\n      swap1\n      log1\n        /* \"test60.sol\":22716:23208  try... */\n    tag_80:\n        /* \"test60.sol\":22683:23750  if (shouldFail) {... */\n      jump(tag_83)\n    tag_65:\n        /* \"test60.sol\":23276:23282  target */\n      dup2\n        /* \"test60.sol\":23265:23321  IRejectETH(target)... */\n      0xffffffffffffffffffffffffffffffffffffffff\n      and\n      0x671bd39d\n        /* \"test60.sol\":23265:23323  IRejectETH(target)... */\n      mload(0x40)\n      dup2\n      0xffffffff\n      and\n      0xe0\n      shl\n      dup2\n      mstore\n      0x04\n      add\n      0x00\n      mload(0x40)\n      dup1\n      dup4\n      sub\n      dup2\n      0x00\n      dup8\n      dup1\n      extcodesize\n      iszero\n      dup1\n      iszero\n      tag_84\n      jumpi\n      revert(0x00, 0x00)\n    tag_84:\n      pop\n      gas\n      call\n      swap3\n      pop\n      pop\n      pop\n      dup1\n      iszero\n      tag_85\n      jumpi\n      pop\n      0x01\n    tag_85:\n        /* \"test60.sol\":23244:23739  try... */\n      tag_86\n      jumpi\n      tag_90\n      tag_73\n      jump\t// in\n    tag_90:\n      dup1\n      0x08c379a0\n      sub\n      tag_89\n      jumpi\n      pop\n      tag_91\n      tag_75\n      jump\t// in\n    tag_91:\n      dup1\n      tag_92\n      jumpi\n      pop\n      jump(tag_88)\n    tag_92:\n        /* \"test60.sol\":23535:23598  TryCatchFailure(... */\n      0x2170a899eb3df99de3d6973d7f04a8981d877b84ca2055234d696ae04a5547f3\n        /* \"test60.sol\":23573:23579  reason */\n      dup2\n        /* \"test60.sol\":23535:23598  TryCatchFailure(... */\n      mload(0x40)\n      tag_93\n      swap2\n      swap1\n      tag_59\n      jump\t// in\n    tag_93:\n      mload(0x40)\n      dup1\n      swap2\n      sub\n      swap1\n      log1\n        /* \"test60.sol\":23443:23616  catch Error(... */\n      pop\n        /* \"test60.sol\":23244:23739  try... */\n      jump(tag_87)\n    tag_89:\n      pop\n    tag_88:\n        /* \"test60.sol\":23649:23723  TryCatchFailure(... */\n      0x2170a899eb3df99de3d6973d7f04a8981d877b84ca2055234d696ae04a5547f3\n      mload(0x40)\n      tag_94\n      swap1\n      tag_79\n      jump\t// in\n    tag_94:\n      mload(0x40)\n      dup1\n      swap2\n      sub\n      swap1\n      log1\n        /* \"test60.sol\":23244:23739  try... */\n    tag_87:\n      jump(tag_95)\n    tag_86:\n        /* \"test60.sol\":23361:23424  TryCatchSuccess(... */\n      0xe8bacbd8bc730979c451f1de2057fd8a1e9d9f872abc22735c6ab976ca2ebe6f\n        /* \"test60.sol\":23399:23405  target */\n      dup3\n        /* \"test60.sol\":23361:23424  TryCatchSuccess(... */\n      mload(0x40)\n      tag_96\n      swap2\n      swap1\n      tag_82\n      jump\t// in\n    tag_96:\n      mload(0x40)\n      dup1\n      swap2\n      sub\n      swap1\n      log1\n        /* \"test60.sol\":23244:23739  try... */\n    tag_95:\n        /* \"test60.sol\":22683:23750  if (shouldFail) {... */\n    tag_83:\n        /* \"test60.sol\":22569:23757  function testTryCatch(... */\n      pop\n      pop\n      jump\t// out\n        /* \"test60.sol\":20012:20208  function deposit()... */\n    tag_38:\n        /* \"test60.sol\":20106:20115  msg.value */\n      callvalue\n        /* \"test60.sol\":20082:20090  balances */\n      0x00\n        /* \"test60.sol\":20082:20102  balances[msg.sender] */\n      0x00\n        /* \"test60.sol\":20091:20101  msg.sender */\n      caller\n        /* \"test60.sol\":20082:20102  balances[msg.sender] */\n      0xffffffffffffffffffffffffffffffffffffffff\n      and\n      0xffffffffffffffffffffffffffffffffffffffff\n      and\n      dup2\n      mstore\n      0x20\n      add\n      swap1\n      dup2\n      mstore\n      0x20\n      add\n      0x00\n      keccak256\n      0x00\n        /* \"test60.sol\":20082:20115  balances[msg.sender] += msg.value */\n      dup3\n      dup3\n      sload\n      tag_98\n      swap2\n      swap1\n      tag_99\n      jump\t// in\n    tag_98:\n      swap3\n      pop\n      pop\n      dup2\n      swap1\n      sstore\n      pop\n        /* \"test60.sol\":20155:20165  msg.sender */\n      caller\n        /* \"test60.sol\":20133:20200  Deposit(... */\n      0xffffffffffffffffffffffffffffffffffffffff\n      and\n      0xe1fffcc4923d04b559f4d29a8bfc6cda04eb5b0d3c460751c2402c5c5cc9109c\n        /* \"test60.sol\":20180:20189  msg.value */\n      callvalue\n        /* \"test60.sol\":20133:20200  Deposit(... */\n      mload(0x40)\n      tag_100\n      swap2\n      swap1\n      tag_16\n      jump\t// in\n    tag_100:\n      mload(0x40)\n      dup1\n      swap2\n      sub\n      swap1\n      log2\n        /* \"test60.sol\":20012:20208  function deposit()... */\n      jump\t// out\n        /* \"test60.sol\":20375:21124  function dangerousWithdraw(... */\n    tag_42:\n        /* \"test60.sol\":20549:20555  amount */\n      dup1\n        /* \"test60.sol\":20525:20533  balances */\n      0x00\n        /* \"test60.sol\":20525:20545  balances[msg.sender] */\n      0x00\n        /* \"test60.sol\":20534:20544  msg.sender */\n      caller\n        /* \"test60.sol\":20525:20545  balances[msg.sender] */\n      0xffffffffffffffffffffffffffffffffffffffff\n      and\n      0xffffffffffffffffffffffffffffffffffffffff\n      and\n      dup2\n      mstore\n      0x20\n      add\n      swap1\n      dup2\n      mstore\n      0x20\n      add\n      0x00\n      keccak256\n      sload\n        /* \"test60.sol\":20525:20555  balances[msg.sender] >= amount */\n      lt\n      iszero\n        /* \"test60.sol\":20503:20603  require(... */\n      tag_102\n      jumpi\n      mload(0x40)\n      0x08c379a000000000000000000000000000000000000000000000000000000000\n      dup2\n      mstore\n      0x04\n      add\n      tag_103\n      swap1\n      tag_46\n      jump\t// in\n    tag_103:\n      mload(0x40)\n      dup1\n      swap2\n      sub\n      swap1\n      revert\n    tag_102:\n        /* \"test60.sol\":20640:20646  amount */\n      dup1\n        /* \"test60.sol\":20616:20624  balances */\n      0x00\n        /* \"test60.sol\":20616:20636  balances[msg.sender] */\n      0x00\n        /* \"test60.sol\":20625:20635  msg.sender */\n      caller\n        /* \"test60.sol\":20616:20636  balances[msg.sender] */\n      0xffffffffffffffffffffffffffffffffffffffff\n      and\n      0xffffffffffffffffffffffffffffffffffffffff\n      and\n      dup2\n      mstore\n      0x20\n      add\n      swap1\n      dup2\n      mstore\n      0x20\n      add\n      0x00\n      keccak256\n      0x00\n        /* \"test60.sol\":20616:20646  balances[msg.sender] -= amount */\n      dup3\n      dup3\n      sload\n      tag_104\n      swap2\n      swap1\n      tag_61\n      jump\t// in\n    tag_104:\n      swap3\n      pop\n      pop\n      dup2\n      swap1\n      sstore\n      pop\n        /* \"test60.sol\":20683:20687  true */\n      0x01\n        /* \"test60.sol\":20659:20668  withdrawn */\n      dup1\n        /* \"test60.sol\":20659:20680  withdrawn[msg.sender] */\n      0x00\n        /* \"test60.sol\":20669:20679  msg.sender */\n      caller\n        /* \"test60.sol\":20659:20680  withdrawn[msg.sender] */\n      0xffffffffffffffffffffffffffffffffffffffff\n      and\n      0xffffffffffffffffffffffffffffffffffffffff\n      and\n      dup2\n      mstore\n      0x20\n      add\n      swap1\n      dup2\n      mstore\n      0x20\n      add\n      0x00\n      keccak256\n      0x00\n        /* \"test60.sol\":20659:20687  withdrawn[msg.sender] = true */\n      0x0100\n      exp\n      dup2\n      sload\n      dup2\n      0xff\n      mul\n      not\n      and\n      swap1\n      dup4\n      iszero\n      iszero\n      mul\n      or\n      swap1\n      sstore\n      pop\n        /* \"test60.sol\":20760:20768  receiver */\n      dup2\n        /* \"test60.sol\":20705:20800  WithdrawAttempt(... */\n      0xffffffffffffffffffffffffffffffffffffffff\n      and\n        /* \"test60.sol\":20735:20745  msg.sender */\n      caller\n        /* \"test60.sol\":20705:20800  WithdrawAttempt(... */\n      0xffffffffffffffffffffffffffffffffffffffff\n      and\n      0xb82e8ec75b966e34b483311327fa5fa31c11c92095cd0a42e067394ece4e8a0f\n        /* \"test60.sol\":20783:20789  amount */\n      dup4\n        /* \"test60.sol\":20705:20800  WithdrawAttempt(... */\n      mload(0x40)\n      tag_105\n      swap2\n      swap1\n      tag_16\n      jump\t// in\n    tag_105:\n      mload(0x40)\n      dup1\n      swap2\n      sub\n      swap1\n      log3\n        /* \"test60.sol\":20885:20897  bool success */\n      0x00\n        /* \"test60.sol\":20899:20916  bytes memory data */\n      0x00\n        /* \"test60.sol\":20933:20941  receiver */\n      dup4\n        /* \"test60.sol\":20933:20946  receiver.call */\n      0xffffffffffffffffffffffffffffffffffffffff\n      and\n        /* \"test60.sol\":20954:20960  amount */\n      dup4\n        /* \"test60.sol\":20933:20965  receiver.call{value: amount}(\"\") */\n      mload(0x40)\n      tag_106\n      swap1\n      tag_49\n      jump\t// in\n    tag_106:\n      0x00\n      mload(0x40)\n      dup1\n      dup4\n      sub\n      dup2\n      dup6\n      dup8\n      gas\n      call\n      swap3\n      pop\n      pop\n      pop\n      returndatasize\n      dup1\n      0x00\n      dup2\n      eq\n      tag_109\n      jumpi\n      mload(0x40)\n      swap2\n      pop\n      and(add(returndatasize, 0x3f), not(0x1f))\n      dup3\n      add\n      0x40\n      mstore\n      returndatasize\n      dup3\n      mstore\n      returndatasize\n      0x00\n      0x20\n      dup5\n      add\n      returndatacopy\n      jump(tag_108)\n    tag_109:\n      0x60\n      swap2\n      pop\n    tag_108:\n      pop\n        /* \"test60.sol\":20884:20965  (bool success, bytes memory data) =... */\n      swap2\n      pop\n      swap2\n      pop\n        /* \"test60.sol\":20983:21049  LowLevelResult(... */\n      0x58ca563c963d38068899a617772b6ad1322e8201814b5a73f3e628f09a21e0c2\n        /* \"test60.sol\":21012:21019  success */\n      dup3\n        /* \"test60.sol\":21034:21038  data */\n      dup3\n        /* \"test60.sol\":20983:21049  LowLevelResult(... */\n      mload(0x40)\n      tag_110\n      swap3\n      swap2\n      swap1\n      tag_111\n      jump\t// in\n    tag_110:\n      mload(0x40)\n      dup1\n      swap2\n      sub\n      swap1\n      log1\n        /* \"test60.sol\":20492:21124  {... */\n      pop\n      pop\n        /* \"test60.sol\":20375:21124  function dangerousWithdraw(... */\n      pop\n      pop\n      jump\t// out\n        /* \"test60.sol\":23929:24400  function _getRevertMsg(... */\n    tag_55:\n        /* \"test60.sol\":24043:24056  string memory */\n      0x60\n        /* \"test60.sol\":24153:24155  68 */\n      0x44\n        /* \"test60.sol\":24133:24143  revertData */\n      dup3\n        /* \"test60.sol\":24133:24150  revertData.length */\n      mload\n        /* \"test60.sol\":24133:24155  revertData.length < 68 */\n      lt\n        /* \"test60.sol\":24129:24222  if (revertData.length < 68) {... */\n      iszero\n      tag_113\n      jumpi\n        /* \"test60.sol\":24172:24210  return \"Transaction reverted silently\" */\n      mload(0x40)\n      dup1\n      0x40\n      add\n      0x40\n      mstore\n      dup1\n      0x1d\n      dup2\n      mstore\n      0x20\n      add\n      0x5472616e73616374696f6e2072657665727465642073696c656e746c79000000\n      dup2\n      mstore\n      pop\n      swap1\n      pop\n      jump(tag_112)\n        /* \"test60.sol\":24129:24222  if (revertData.length < 68) {... */\n    tag_113:\n        /* \"test60.sol\":24288:24292  0x04 */\n      0x04\n        /* \"test60.sol\":24276:24286  revertData */\n      dup3\n        /* \"test60.sol\":24272:24293  add(revertData, 0x04) */\n      add\n        /* \"test60.sol\":24258:24293  revertData := add(revertData, 0x04) */\n      swap2\n      pop\n        /* \"test60.sol\":24348:24358  revertData */\n      dup2\n        /* \"test60.sol\":24323:24392  abi.decode(... */\n      dup1\n      0x20\n      add\n      swap1\n      mload\n      dup2\n      add\n      swap1\n      tag_114\n      swap2\n      swap1\n      tag_115\n      jump\t// in\n    tag_114:\n        /* \"test60.sol\":24316:24392  return abi.decode(... */\n      swap1\n      pop\n        /* \"test60.sol\":23929:24400  function _getRevertMsg(... */\n    tag_112:\n      swap2\n      swap1\n      pop\n      jump\t// out\n        /* \"#utility.yul\":7:82   */\n    tag_116:\n        /* \"#utility.yul\":40:46   */\n      0x00\n        /* \"#utility.yul\":73:75   */\n      0x40\n        /* \"#utility.yul\":67:76   */\n      mload\n        /* \"#utility.yul\":57:76   */\n      swap1\n      pop\n        /* \"#utility.yul\":7:82   */\n      swap1\n      jump\t// out\n        /* \"#utility.yul\":88:205   */\n    tag_117:\n        /* \"#utility.yul\":197:198   */\n      0x00\n        /* \"#utility.yul\":194:195   */\n      0x00\n        /* \"#utility.yul\":187:199   */\n      revert\n        /* \"#utility.yul\":211:328   */\n    tag_118:\n        /* \"#utility.yul\":320:321   */\n      0x00\n        /* \"#utility.yul\":317:318   */\n      0x00\n        /* \"#utility.yul\":310:322   */\n      revert\n        /* \"#utility.yul\":334:460   */\n    tag_119:\n        /* \"#utility.yul\":371:378   */\n      0x00\n        /* \"#utility.yul\":411:453   */\n      0xffffffffffffffffffffffffffffffffffffffff\n        /* \"#utility.yul\":404:409   */\n      dup3\n        /* \"#utility.yul\":400:454   */\n      and\n        /* \"#utility.yul\":389:454   */\n      swap1\n      pop\n        /* \"#utility.yul\":334:460   */\n      swap2\n      swap1\n      pop\n      jump\t// out\n        /* \"#utility.yul\":466:562   */\n    tag_120:\n        /* \"#utility.yul\":503:510   */\n      0x00\n        /* \"#utility.yul\":532:556   */\n      tag_166\n        /* \"#utility.yul\":550:555   */\n      dup3\n        /* \"#utility.yul\":532:556   */\n      tag_119\n      jump\t// in\n    tag_166:\n        /* \"#utility.yul\":521:556   */\n      swap1\n      pop\n        /* \"#utility.yul\":466:562   */\n      swap2\n      swap1\n      pop\n      jump\t// out\n        /* \"#utility.yul\":568:690   */\n    tag_121:\n        /* \"#utility.yul\":641:665   */\n      tag_168\n        /* \"#utility.yul\":659:664   */\n      dup2\n        /* \"#utility.yul\":641:665   */\n      tag_120\n      jump\t// in\n    tag_168:\n        /* \"#utility.yul\":634:639   */\n      dup2\n        /* \"#utility.yul\":631:666   */\n      eq\n        /* \"#utility.yul\":621:684   */\n      tag_169\n      jumpi\n        /* \"#utility.yul\":680:681   */\n      0x00\n        /* \"#utility.yul\":677:678   */\n      0x00\n        /* \"#utility.yul\":670:682   */\n      revert\n        /* \"#utility.yul\":621:684   */\n    tag_169:\n        /* \"#utility.yul\":568:690   */\n      pop\n      jump\t// out\n        /* \"#utility.yul\":696:835   */\n    tag_122:\n        /* \"#utility.yul\":742:747   */\n      0x00\n        /* \"#utility.yul\":780:786   */\n      dup2\n        /* \"#utility.yul\":767:787   */\n      calldataload\n        /* \"#utility.yul\":758:787   */\n      swap1\n      pop\n        /* \"#utility.yul\":796:829   */\n      tag_171\n        /* \"#utility.yul\":823:828   */\n      dup2\n        /* \"#utility.yul\":796:829   */\n      tag_121\n      jump\t// in\n    tag_171:\n        /* \"#utility.yul\":696:835   */\n      swap3\n      swap2\n      pop\n      pop\n      jump\t// out\n        /* \"#utility.yul\":841:1170   */\n    tag_13:\n        /* \"#utility.yul\":900:906   */\n      0x00\n        /* \"#utility.yul\":949:951   */\n      0x20\n        /* \"#utility.yul\":937:946   */\n      dup3\n        /* \"#utility.yul\":928:935   */\n      dup5\n        /* \"#utility.yul\":924:947   */\n      sub\n        /* \"#utility.yul\":920:952   */\n      slt\n        /* \"#utility.yul\":917:1036   */\n      iszero\n      tag_173\n      jumpi\n        /* \"#utility.yul\":955:1034   */\n      tag_174\n      tag_117\n      jump\t// in\n    tag_174:\n        /* \"#utility.yul\":917:1036   */\n    tag_173:\n        /* \"#utility.yul\":1075:1076   */\n      0x00\n        /* \"#utility.yul\":1100:1153   */\n      tag_175\n        /* \"#utility.yul\":1145:1152   */\n      dup5\n        /* \"#utility.yul\":1136:1142   */\n      dup3\n        /* \"#utility.yul\":1125:1134   */\n      dup6\n        /* \"#utility.yul\":1121:1143   */\n      add\n        /* \"#utility.yul\":1100:1153   */\n      tag_122\n      jump\t// in\n    tag_175:\n        /* \"#utility.yul\":1090:1153   */\n      swap2\n      pop\n        /* \"#utility.yul\":1046:1163   */\n      pop\n        /* \"#utility.yul\":841:1170   */\n      swap3\n      swap2\n      pop\n      pop\n      jump\t// out\n        /* \"#utility.yul\":1176:1253   */\n    tag_123:\n        /* \"#utility.yul\":1213:1220   */\n      0x00\n        /* \"#utility.yul\":1242:1247   */\n      dup2\n        /* \"#utility.yul\":1231:1247   */\n      swap1\n      pop\n        /* \"#utility.yul\":1176:1253   */\n      swap2\n      swap1\n      pop\n      jump\t// out\n        /* \"#utility.yul\":1259:1377   */\n    tag_124:\n        /* \"#utility.yul\":1346:1370   */\n      tag_178\n        /* \"#utility.yul\":1364:1369   */\n      dup2\n        /* \"#utility.yul\":1346:1370   */\n      tag_123\n      jump\t// in\n    tag_178:\n        /* \"#utility.yul\":1341:1344   */\n      dup3\n        /* \"#utility.yul\":1334:1371   */\n      mstore\n        /* \"#utility.yul\":1259:1377   */\n      pop\n      pop\n      jump\t// out\n        /* \"#utility.yul\":1383:1605   */\n    tag_16:\n        /* \"#utility.yul\":1476:1480   */\n      0x00\n        /* \"#utility.yul\":1514:1516   */\n      0x20\n        /* \"#utility.yul\":1503:1512   */\n      dup3\n        /* \"#utility.yul\":1499:1517   */\n      add\n        /* \"#utility.yul\":1491:1517   */\n      swap1\n      pop\n        /* \"#utility.yul\":1527:1598   */\n      tag_180\n        /* \"#utility.yul\":1595:1596   */\n      0x00\n        /* \"#utility.yul\":1584:1593   */\n      dup4\n        /* \"#utility.yul\":1580:1597   */\n      add\n        /* \"#utility.yul\":1571:1577   */\n      dup5\n        /* \"#utility.yul\":1527:1598   */\n      tag_124\n      jump\t// in\n    tag_180:\n        /* \"#utility.yul\":1383:1605   */\n      swap3\n      swap2\n      pop\n      pop\n      jump\t// out\n        /* \"#utility.yul\":1611:1715   */\n    tag_125:\n        /* \"#utility.yul\":1656:1663   */\n      0x00\n        /* \"#utility.yul\":1685:1709   */\n      tag_182\n        /* \"#utility.yul\":1703:1708   */\n      dup3\n        /* \"#utility.yul\":1685:1709   */\n      tag_119\n      jump\t// in\n    tag_182:\n        /* \"#utility.yul\":1674:1709   */\n      swap1\n      pop\n        /* \"#utility.yul\":1611:1715   */\n      swap2\n      swap1\n      pop\n      jump\t// out\n        /* \"#utility.yul\":1721:1859   */\n    tag_126:\n        /* \"#utility.yul\":1802:1834   */\n      tag_184\n        /* \"#utility.yul\":1828:1833   */\n      dup2\n        /* \"#utility.yul\":1802:1834   */\n      tag_125\n      jump\t// in\n    tag_184:\n        /* \"#utility.yul\":1795:1800   */\n      dup2\n        /* \"#utility.yul\":1792:1835   */\n      eq\n        /* \"#utility.yul\":1782:1853   */\n      tag_185\n      jumpi\n        /* \"#utility.yul\":1849:1850   */\n      0x00\n        /* \"#utility.yul\":1846:1847   */\n      0x00\n        /* \"#utility.yul\":1839:1851   */\n      revert\n        /* \"#utility.yul\":1782:1853   */\n    tag_185:\n        /* \"#utility.yul\":1721:1859   */\n      pop\n      jump\t// out\n        /* \"#utility.yul\":1865:2020   */\n    tag_127:\n        /* \"#utility.yul\":1919:1924   */\n      0x00\n        /* \"#utility.yul\":1957:1963   */\n      dup2\n        /* \"#utility.yul\":1944:1964   */\n      calldataload\n        /* \"#utility.yul\":1935:1964   */\n      swap1\n      pop\n        /* \"#utility.yul\":1973:2014   */\n      tag_187\n        /* \"#utility.yul\":2008:2013   */\n      dup2\n        /* \"#utility.yul\":1973:2014   */\n      tag_126\n      jump\t// in\n    tag_187:\n        /* \"#utility.yul\":1865:2020   */\n      swap3\n      swap2\n      pop\n      pop\n      jump\t// out\n        /* \"#utility.yul\":2026:2148   */\n    tag_128:\n        /* \"#utility.yul\":2099:2123   */\n      tag_189\n        /* \"#utility.yul\":2117:2122   */\n      dup2\n        /* \"#utility.yul\":2099:2123   */\n      tag_123\n      jump\t// in\n    tag_189:\n        /* \"#utility.yul\":2092:2097   */\n      dup2\n        /* \"#utility.yul\":2089:2124   */\n      eq\n        /* \"#utility.yul\":2079:2142   */\n      tag_190\n      jumpi\n        /* \"#utility.yul\":2138:2139   */\n      0x00\n        /* \"#utility.yul\":2135:2136   */\n      0x00\n        /* \"#utility.yul\":2128:2140   */\n      revert\n        /* \"#utility.yul\":2079:2142   */\n    tag_190:\n        /* \"#utility.yul\":2026:2148   */\n      pop\n      jump\t// out\n        /* \"#utility.yul\":2154:2293   */\n    tag_129:\n        /* \"#utility.yul\":2200:2205   */\n      0x00\n        /* \"#utility.yul\":2238:2244   */\n      dup2\n        /* \"#utility.yul\":2225:2245   */\n      calldataload\n        /* \"#utility.yul\":2216:2245   */\n      swap1\n      pop\n        /* \"#utility.yul\":2254:2287   */\n      tag_192\n        /* \"#utility.yul\":2281:2286   */\n      dup2\n        /* \"#utility.yul\":2254:2287   */\n      tag_128\n      jump\t// in\n    tag_192:\n        /* \"#utility.yul\":2154:2293   */\n      swap3\n      swap2\n      pop\n      pop\n      jump\t// out\n        /* \"#utility.yul\":2299:2789   */\n    tag_20:\n        /* \"#utility.yul\":2375:2381   */\n      0x00\n        /* \"#utility.yul\":2383:2389   */\n      0x00\n        /* \"#utility.yul\":2432:2434   */\n      0x40\n        /* \"#utility.yul\":2420:2429   */\n      dup4\n        /* \"#utility.yul\":2411:2418   */\n      dup6\n        /* \"#utility.yul\":2407:2430   */\n      sub\n        /* \"#utility.yul\":2403:2435   */\n      slt\n        /* \"#utility.yul\":2400:2519   */\n      iszero\n      tag_194\n      jumpi\n        /* \"#utility.yul\":2438:2517   */\n      tag_195\n      tag_117\n      jump\t// in\n    tag_195:\n        /* \"#utility.yul\":2400:2519   */\n    tag_194:\n        /* \"#utility.yul\":2558:2559   */\n      0x00\n        /* \"#utility.yul\":2583:2644   */\n      tag_196\n        /* \"#utility.yul\":2636:2643   */\n      dup6\n        /* \"#utility.yul\":2627:2633   */\n      dup3\n        /* \"#utility.yul\":2616:2625   */\n      dup7\n        /* \"#utility.yul\":2612:2634   */\n      add\n        /* \"#utility.yul\":2583:2644   */\n      tag_127\n      jump\t// in\n    tag_196:\n        /* \"#utility.yul\":2573:2644   */\n      swap3\n      pop\n        /* \"#utility.yul\":2529:2654   */\n      pop\n        /* \"#utility.yul\":2693:2695   */\n      0x20\n        /* \"#utility.yul\":2719:2772   */\n      tag_197\n        /* \"#utility.yul\":2764:2771   */\n      dup6\n        /* \"#utility.yul\":2755:2761   */\n      dup3\n        /* \"#utility.yul\":2744:2753   */\n      dup7\n        /* \"#utility.yul\":2740:2762   */\n      add\n        /* \"#utility.yul\":2719:2772   */\n      tag_129\n      jump\t// in\n    tag_197:\n        /* \"#utility.yul\":2709:2772   */\n      swap2\n      pop\n        /* \"#utility.yul\":2664:2782   */\n      pop\n        /* \"#utility.yul\":2299:2789   */\n      swap3\n      pop\n      swap3\n      swap1\n      pop\n      jump\t// out\n        /* \"#utility.yul\":2795:2885   */\n    tag_130:\n        /* \"#utility.yul\":2829:2836   */\n      0x00\n        /* \"#utility.yul\":2872:2877   */\n      dup2\n        /* \"#utility.yul\":2865:2878   */\n      iszero\n        /* \"#utility.yul\":2858:2879   */\n      iszero\n        /* \"#utility.yul\":2847:2879   */\n      swap1\n      pop\n        /* \"#utility.yul\":2795:2885   */\n      swap2\n      swap1\n      pop\n      jump\t// out\n        /* \"#utility.yul\":2891:3000   */\n    tag_131:\n        /* \"#utility.yul\":2972:2993   */\n      tag_200\n        /* \"#utility.yul\":2987:2992   */\n      dup2\n        /* \"#utility.yul\":2972:2993   */\n      tag_130\n      jump\t// in\n    tag_200:\n        /* \"#utility.yul\":2967:2970   */\n      dup3\n        /* \"#utility.yul\":2960:2994   */\n      mstore\n        /* \"#utility.yul\":2891:3000   */\n      pop\n      pop\n      jump\t// out\n        /* \"#utility.yul\":3006:3216   */\n    tag_27:\n        /* \"#utility.yul\":3093:3097   */\n      0x00\n        /* \"#utility.yul\":3131:3133   */\n      0x20\n        /* \"#utility.yul\":3120:3129   */\n      dup3\n        /* \"#utility.yul\":3116:3134   */\n      add\n        /* \"#utility.yul\":3108:3134   */\n      swap1\n      pop\n        /* \"#utility.yul\":3144:3209   */\n      tag_202\n        /* \"#utility.yul\":3206:3207   */\n      0x00\n        /* \"#utility.yul\":3195:3204   */\n      dup4\n        /* \"#utility.yul\":3191:3208   */\n      add\n        /* \"#utility.yul\":3182:3188   */\n      dup5\n        /* \"#utility.yul\":3144:3209   */\n      tag_131\n      jump\t// in\n    tag_202:\n        /* \"#utility.yul\":3006:3216   */\n      swap3\n      swap2\n      pop\n      pop\n      jump\t// out\n        /* \"#utility.yul\":3222:3338   */\n    tag_132:\n        /* \"#utility.yul\":3292:3313   */\n      tag_204\n        /* \"#utility.yul\":3307:3312   */\n      dup2\n        /* \"#utility.yul\":3292:3313   */\n      tag_130\n      jump\t// in\n    tag_204:\n        /* \"#utility.yul\":3285:3290   */\n      dup2\n        /* \"#utility.yul\":3282:3314   */\n      eq\n        /* \"#utility.yul\":3272:3332   */\n      tag_205\n      jumpi\n        /* \"#utility.yul\":3328:3329   */\n      0x00\n        /* \"#utility.yul\":3325:3326   */\n      0x00\n        /* \"#utility.yul\":3318:3330   */\n      revert\n        /* \"#utility.yul\":3272:3332   */\n    tag_205:\n        /* \"#utility.yul\":3222:3338   */\n      pop\n      jump\t// out\n        /* \"#utility.yul\":3344:3477   */\n    tag_133:\n        /* \"#utility.yul\":3387:3392   */\n      0x00\n        /* \"#utility.yul\":3425:3431   */\n      dup2\n        /* \"#utility.yul\":3412:3432   */\n      calldataload\n        /* \"#utility.yul\":3403:3432   */\n      swap1\n      pop\n        /* \"#utility.yul\":3441:3471   */\n      tag_207\n        /* \"#utility.yul\":3465:3470   */\n      dup2\n        /* \"#utility.yul\":3441:3471   */\n      tag_132\n      jump\t// in\n    tag_207:\n        /* \"#utility.yul\":3344:3477   */\n      swap3\n      swap2\n      pop\n      pop\n      jump\t// out\n        /* \"#utility.yul\":3483:3951   */\n    tag_35:\n        /* \"#utility.yul\":3548:3554   */\n      0x00\n        /* \"#utility.yul\":3556:3562   */\n      0x00\n        /* \"#utility.yul\":3605:3607   */\n      0x40\n        /* \"#utility.yul\":3593:3602   */\n      dup4\n        /* \"#utility.yul\":3584:3591   */\n      dup6\n        /* \"#utility.yul\":3580:3603   */\n      sub\n        /* \"#utility.yul\":3576:3608   */\n      slt\n        /* \"#utility.yul\":3573:3692   */\n      iszero\n      tag_209\n      jumpi\n        /* \"#utility.yul\":3611:3690   */\n      tag_210\n      tag_117\n      jump\t// in\n    tag_210:\n        /* \"#utility.yul\":3573:3692   */\n    tag_209:\n        /* \"#utility.yul\":3731:3732   */\n      0x00\n        /* \"#utility.yul\":3756:3809   */\n      tag_211\n        /* \"#utility.yul\":3801:3808   */\n      dup6\n        /* \"#utility.yul\":3792:3798   */\n      dup3\n        /* \"#utility.yul\":3781:3790   */\n      dup7\n        /* \"#utility.yul\":3777:3799   */\n      add\n        /* \"#utility.yul\":3756:3809   */\n      tag_122\n      jump\t// in\n    tag_211:\n        /* \"#utility.yul\":3746:3809   */\n      swap3\n      pop\n        /* \"#utility.yul\":3702:3819   */\n      pop\n        /* \"#utility.yul\":3858:3860   */\n      0x20\n        /* \"#utility.yul\":3884:3934   */\n      tag_212\n        /* \"#utility.yul\":3926:3933   */\n      dup6\n        /* \"#utility.yul\":3917:3923   */\n      dup3\n        /* \"#utility.yul\":3906:3915   */\n      dup7\n        /* \"#utility.yul\":3902:3924   */\n      add\n        /* \"#utility.yul\":3884:3934   */\n      tag_133\n      jump\t// in\n    tag_212:\n        /* \"#utility.yul\":3874:3934   */\n      swap2\n      pop\n        /* \"#utility.yul\":3829:3944   */\n      pop\n        /* \"#utility.yul\":3483:3951   */\n      swap3\n      pop\n      swap3\n      swap1\n      pop\n      jump\t// out\n        /* \"#utility.yul\":3957:4126   */\n    tag_134:\n        /* \"#utility.yul\":4041:4052   */\n      0x00\n        /* \"#utility.yul\":4075:4081   */\n      dup3\n        /* \"#utility.yul\":4070:4073   */\n      dup3\n        /* \"#utility.yul\":4063:4082   */\n      mstore\n        /* \"#utility.yul\":4115:4119   */\n      0x20\n        /* \"#utility.yul\":4110:4113   */\n      dup3\n        /* \"#utility.yul\":4106:4120   */\n      add\n        /* \"#utility.yul\":4091:4120   */\n      swap1\n      pop\n        /* \"#utility.yul\":3957:4126   */\n      swap3\n      swap2\n      pop\n      pop\n      jump\t// out\n        /* \"#utility.yul\":4132:4302   */\n    tag_135:\n        /* \"#utility.yul\":4272:4294   */\n      0x496e73756666696369656e742062616c616e6365000000000000000000000000\n        /* \"#utility.yul\":4268:4269   */\n      0x00\n        /* \"#utility.yul\":4260:4266   */\n      dup3\n        /* \"#utility.yul\":4256:4270   */\n      add\n        /* \"#utility.yul\":4249:4295   */\n      mstore\n        /* \"#utility.yul\":4132:4302   */\n      pop\n      jump\t// out\n        /* \"#utility.yul\":4308:4674   */\n    tag_136:\n        /* \"#utility.yul\":4450:4453   */\n      0x00\n        /* \"#utility.yul\":4471:4538   */\n      tag_216\n        /* \"#utility.yul\":4535:4537   */\n      0x14\n        /* \"#utility.yul\":4530:4533   */\n      dup4\n        /* \"#utility.yul\":4471:4538   */\n      tag_134\n      jump\t// in\n    tag_216:\n        /* \"#utility.yul\":4464:4538   */\n      swap2\n      pop\n        /* \"#utility.yul\":4547:4640   */\n      tag_217\n        /* \"#utility.yul\":4636:4639   */\n      dup3\n        /* \"#utility.yul\":4547:4640   */\n      tag_135\n      jump\t// in\n    tag_217:\n        /* \"#utility.yul\":4665:4667   */\n      0x20\n        /* \"#utility.yul\":4660:4663   */\n      dup3\n        /* \"#utility.yul\":4656:4668   */\n      add\n        /* \"#utility.yul\":4649:4668   */\n      swap1\n      pop\n        /* \"#utility.yul\":4308:4674   */\n      swap2\n      swap1\n      pop\n      jump\t// out\n        /* \"#utility.yul\":4680:5099   */\n    tag_46:\n        /* \"#utility.yul\":4846:4850   */\n      0x00\n        /* \"#utility.yul\":4884:4886   */\n      0x20\n        /* \"#utility.yul\":4873:4882   */\n      dup3\n        /* \"#utility.yul\":4869:4887   */\n      add\n        /* \"#utility.yul\":4861:4887   */\n      swap1\n      pop\n        /* \"#utility.yul\":4933:4942   */\n      dup2\n        /* \"#utility.yul\":4927:4931   */\n      dup2\n        /* \"#utility.yul\":4923:4943   */\n      sub\n        /* \"#utility.yul\":4919:4920   */\n      0x00\n        /* \"#utility.yul\":4908:4917   */\n      dup4\n        /* \"#utility.yul\":4904:4921   */\n      add\n        /* \"#utility.yul\":4897:4944   */\n      mstore\n        /* \"#utility.yul\":4961:5092   */\n      tag_219\n        /* \"#utility.yul\":5087:5091   */\n      dup2\n        /* \"#utility.yul\":4961:5092   */\n      tag_136\n      jump\t// in\n    tag_219:\n        /* \"#utility.yul\":4953:5092   */\n      swap1\n      pop\n        /* \"#utility.yul\":4680:5099   */\n      swap2\n      swap1\n      pop\n      jump\t// out\n        /* \"#utility.yul\":5105:5252   */\n    tag_137:\n        /* \"#utility.yul\":5206:5217   */\n      0x00\n        /* \"#utility.yul\":5243:5246   */\n      dup2\n        /* \"#utility.yul\":5228:5246   */\n      swap1\n      pop\n        /* \"#utility.yul\":5105:5252   */\n      swap3\n      swap2\n      pop\n      pop\n      jump\t// out\n        /* \"#utility.yul\":5258:5372   */\n    tag_138:\n      pop\n      jump\t// out\n        /* \"#utility.yul\":5378:5776   */\n    tag_139:\n        /* \"#utility.yul\":5537:5540   */\n      0x00\n        /* \"#utility.yul\":5558:5641   */\n      tag_223\n        /* \"#utility.yul\":5639:5640   */\n      0x00\n        /* \"#utility.yul\":5634:5637   */\n      dup4\n        /* \"#utility.yul\":5558:5641   */\n      tag_137\n      jump\t// in\n    tag_223:\n        /* \"#utility.yul\":5551:5641   */\n      swap2\n      pop\n        /* \"#utility.yul\":5650:5743   */\n      tag_224\n        /* \"#utility.yul\":5739:5742   */\n      dup3\n        /* \"#utility.yul\":5650:5743   */\n      tag_138\n      jump\t// in\n    tag_224:\n        /* \"#utility.yul\":5768:5769   */\n      0x00\n        /* \"#utility.yul\":5763:5766   */\n      dup3\n        /* \"#utility.yul\":5759:5770   */\n      add\n        /* \"#utility.yul\":5752:5770   */\n      swap1\n      pop\n        /* \"#utility.yul\":5378:5776   */\n      swap2\n      swap1\n      pop\n      jump\t// out\n        /* \"#utility.yul\":5782:6161   */\n    tag_49:\n        /* \"#utility.yul\":5966:5969   */\n      0x00\n        /* \"#utility.yul\":5988:6135   */\n      tag_226\n        /* \"#utility.yul\":6131:6134   */\n      dup3\n        /* \"#utility.yul\":5988:6135   */\n      tag_139\n      jump\t// in\n    tag_226:\n        /* \"#utility.yul\":5981:6135   */\n      swap2\n      pop\n        /* \"#utility.yul\":6152:6155   */\n      dup2\n        /* \"#utility.yul\":6145:6155   */\n      swap1\n      pop\n        /* \"#utility.yul\":5782:6161   */\n      swap2\n      swap1\n      pop\n      jump\t// out\n        /* \"#utility.yul\":6167:6266   */\n    tag_140:\n        /* \"#utility.yul\":6219:6225   */\n      0x00\n        /* \"#utility.yul\":6253:6258   */\n      dup2\n        /* \"#utility.yul\":6247:6259   */\n      mload\n        /* \"#utility.yul\":6237:6259   */\n      swap1\n      pop\n        /* \"#utility.yul\":6167:6266   */\n      swap2\n      swap1\n      pop\n      jump\t// out\n        /* \"#utility.yul\":6272:6411   */\n    tag_141:\n        /* \"#utility.yul\":6361:6367   */\n      dup3\n        /* \"#utility.yul\":6356:6359   */\n      dup2\n        /* \"#utility.yul\":6351:6354   */\n      dup4\n        /* \"#utility.yul\":6345:6368   */\n      mcopy\n        /* \"#utility.yul\":6402:6403   */\n      0x00\n        /* \"#utility.yul\":6393:6399   */\n      dup4\n        /* \"#utility.yul\":6388:6391   */\n      dup4\n        /* \"#utility.yul\":6384:6400   */\n      add\n        /* \"#utility.yul\":6377:6404   */\n      mstore\n        /* \"#utility.yul\":6272:6411   */\n      pop\n      pop\n      pop\n      jump\t// out\n        /* \"#utility.yul\":6417:6519   */\n    tag_142:\n        /* \"#utility.yul\":6458:6464   */\n      0x00\n        /* \"#utility.yul\":6509:6511   */\n      0x1f\n        /* \"#utility.yul\":6505:6512   */\n      not\n        /* \"#utility.yul\":6500:6502   */\n      0x1f\n        /* \"#utility.yul\":6493:6498   */\n      dup4\n        /* \"#utility.yul\":6489:6503   */\n      add\n        /* \"#utility.yul\":6485:6513   */\n      and\n        /* \"#utility.yul\":6475:6513   */\n      swap1\n      pop\n        /* \"#utility.yul\":6417:6519   */\n      swap2\n      swap1\n      pop\n      jump\t// out\n        /* \"#utility.yul\":6525:6902   */\n    tag_143:\n        /* \"#utility.yul\":6613:6616   */\n      0x00\n        /* \"#utility.yul\":6641:6680   */\n      tag_231\n        /* \"#utility.yul\":6674:6679   */\n      dup3\n        /* \"#utility.yul\":6641:6680   */\n      tag_140\n      jump\t// in\n    tag_231:\n        /* \"#utility.yul\":6696:6767   */\n      tag_232\n        /* \"#utility.yul\":6760:6766   */\n      dup2\n        /* \"#utility.yul\":6755:6758   */\n      dup6\n        /* \"#utility.yul\":6696:6767   */\n      tag_134\n      jump\t// in\n    tag_232:\n        /* \"#utility.yul\":6689:6767   */\n      swap4\n      pop\n        /* \"#utility.yul\":6776:6841   */\n      tag_233\n        /* \"#utility.yul\":6834:6840   */\n      dup2\n        /* \"#utility.yul\":6829:6832   */\n      dup6\n        /* \"#utility.yul\":6822:6826   */\n      0x20\n        /* \"#utility.yul\":6815:6820   */\n      dup7\n        /* \"#utility.yul\":6811:6827   */\n      add\n        /* \"#utility.yul\":6776:6841   */\n      tag_141\n      jump\t// in\n    tag_233:\n        /* \"#utility.yul\":6866:6895   */\n      tag_234\n        /* \"#utility.yul\":6888:6894   */\n      dup2\n        /* \"#utility.yul\":6866:6895   */\n      tag_142\n      jump\t// in\n    tag_234:\n        /* \"#utility.yul\":6861:6864   */\n      dup5\n        /* \"#utility.yul\":6857:6896   */\n      add\n        /* \"#utility.yul\":6850:6896   */\n      swap2\n      pop\n        /* \"#utility.yul\":6617:6902   */\n      pop\n        /* \"#utility.yul\":6525:6902   */\n      swap3\n      swap2\n      pop\n      pop\n      jump\t// out\n        /* \"#utility.yul\":6908:7331   */\n    tag_57:\n        /* \"#utility.yul\":7049:7053   */\n      0x00\n        /* \"#utility.yul\":7087:7089   */\n      0x40\n        /* \"#utility.yul\":7076:7085   */\n      dup3\n        /* \"#utility.yul\":7072:7090   */\n      add\n        /* \"#utility.yul\":7064:7090   */\n      swap1\n      pop\n        /* \"#utility.yul\":7100:7171   */\n      tag_236\n        /* \"#utility.yul\":7168:7169   */\n      0x00\n        /* \"#utility.yul\":7157:7166   */\n      dup4\n        /* \"#utility.yul\":7153:7170   */\n      add\n        /* \"#utility.yul\":7144:7150   */\n      dup6\n        /* \"#utility.yul\":7100:7171   */\n      tag_124\n      jump\t// in\n    tag_236:\n        /* \"#utility.yul\":7218:7227   */\n      dup2\n        /* \"#utility.yul\":7212:7216   */\n      dup2\n        /* \"#utility.yul\":7208:7228   */\n      sub\n        /* \"#utility.yul\":7203:7205   */\n      0x20\n        /* \"#utility.yul\":7192:7201   */\n      dup4\n        /* \"#utility.yul\":7188:7206   */\n      add\n        /* \"#utility.yul\":7181:7229   */\n      mstore\n        /* \"#utility.yul\":7246:7324   */\n      tag_237\n        /* \"#utility.yul\":7319:7323   */\n      dup2\n        /* \"#utility.yul\":7310:7316   */\n      dup5\n        /* \"#utility.yul\":7246:7324   */\n      tag_143\n      jump\t// in\n    tag_237:\n        /* \"#utility.yul\":7238:7324   */\n      swap1\n      pop\n        /* \"#utility.yul\":6908:7331   */\n      swap4\n      swap3\n      pop\n      pop\n      pop\n      jump\t// out\n        /* \"#utility.yul\":7337:7650   */\n    tag_59:\n        /* \"#utility.yul\":7450:7454   */\n      0x00\n        /* \"#utility.yul\":7488:7490   */\n      0x20\n        /* \"#utility.yul\":7477:7486   */\n      dup3\n        /* \"#utility.yul\":7473:7491   */\n      add\n        /* \"#utility.yul\":7465:7491   */\n      swap1\n      pop\n        /* \"#utility.yul\":7537:7546   */\n      dup2\n        /* \"#utility.yul\":7531:7535   */\n      dup2\n        /* \"#utility.yul\":7527:7547   */\n      sub\n        /* \"#utility.yul\":7523:7524   */\n      0x00\n        /* \"#utility.yul\":7512:7521   */\n      dup4\n        /* \"#utility.yul\":7508:7525   */\n      add\n        /* \"#utility.yul\":7501:7548   */\n      mstore\n        /* \"#utility.yul\":7565:7643   */\n      tag_239\n        /* \"#utility.yul\":7638:7642   */\n      dup2\n        /* \"#utility.yul\":7629:7635   */\n      dup5\n        /* \"#utility.yul\":7565:7643   */\n      tag_143\n      jump\t// in\n    tag_239:\n        /* \"#utility.yul\":7557:7643   */\n      swap1\n      pop\n        /* \"#utility.yul\":7337:7650   */\n      swap3\n      swap2\n      pop\n      pop\n      jump\t// out\n        /* \"#utility.yul\":7656:7836   */\n    tag_144:\n        /* \"#utility.yul\":7704:7781   */\n      0x4e487b7100000000000000000000000000000000000000000000000000000000\n        /* \"#utility.yul\":7701:7702   */\n      0x00\n        /* \"#utility.yul\":7694:7782   */\n      mstore\n        /* \"#utility.yul\":7801:7805   */\n      0x11\n        /* \"#utility.yul\":7798:7799   */\n      0x04\n        /* \"#utility.yul\":7791:7806   */\n      mstore\n        /* \"#utility.yul\":7825:7829   */\n      0x24\n        /* \"#utility.yul\":7822:7823   */\n      0x00\n        /* \"#utility.yul\":7815:7830   */\n      revert\n        /* \"#utility.yul\":7842:8036   */\n    tag_61:\n        /* \"#utility.yul\":7882:7886   */\n      0x00\n        /* \"#utility.yul\":7902:7922   */\n      tag_242\n        /* \"#utility.yul\":7920:7921   */\n      dup3\n        /* \"#utility.yul\":7902:7922   */\n      tag_123\n      jump\t// in\n    tag_242:\n        /* \"#utility.yul\":7897:7922   */\n      swap2\n      pop\n        /* \"#utility.yul\":7936:7956   */\n      tag_243\n        /* \"#utility.yul\":7954:7955   */\n      dup4\n        /* \"#utility.yul\":7936:7956   */\n      tag_123\n      jump\t// in\n    tag_243:\n        /* \"#utility.yul\":7931:7956   */\n      swap3\n      pop\n        /* \"#utility.yul\":7980:7981   */\n      dup3\n        /* \"#utility.yul\":7977:7978   */\n      dup3\n        /* \"#utility.yul\":7973:7982   */\n      sub\n        /* \"#utility.yul\":7965:7982   */\n      swap1\n      pop\n        /* \"#utility.yul\":8004:8005   */\n      dup2\n        /* \"#utility.yul\":7998:8002   */\n      dup2\n        /* \"#utility.yul\":7995:8006   */\n      gt\n        /* \"#utility.yul\":7992:8029   */\n      iszero\n      tag_244\n      jumpi\n        /* \"#utility.yul\":8009:8027   */\n      tag_245\n      tag_144\n      jump\t// in\n    tag_245:\n        /* \"#utility.yul\":7992:8029   */\n    tag_244:\n        /* \"#utility.yul\":7842:8036   */\n      swap3\n      swap2\n      pop\n      pop\n      jump\t// out\n        /* \"#utility.yul\":8042:8148   */\n    tag_145:\n        /* \"#utility.yul\":8086:8094   */\n      0x00\n        /* \"#utility.yul\":8135:8140   */\n      dup2\n        /* \"#utility.yul\":8130:8133   */\n      0xe0\n        /* \"#utility.yul\":8126:8141   */\n      shr\n        /* \"#utility.yul\":8105:8141   */\n      swap1\n      pop\n        /* \"#utility.yul\":8042:8148   */\n      swap2\n      swap1\n      pop\n      jump\t// out\n        /* \"#utility.yul\":8154:8337   */\n    tag_73:\n        /* \"#utility.yul\":8189:8192   */\n      0x00\n        /* \"#utility.yul\":8227:8228   */\n      0x03\n        /* \"#utility.yul\":8209:8225   */\n      returndatasize\n        /* \"#utility.yul\":8206:8229   */\n      gt\n        /* \"#utility.yul\":8203:8331   */\n      iszero\n      tag_248\n      jumpi\n        /* \"#utility.yul\":8265:8266   */\n      0x04\n        /* \"#utility.yul\":8262:8263   */\n      0x00\n        /* \"#utility.yul\":8259:8260   */\n      0x00\n        /* \"#utility.yul\":8244:8267   */\n      returndatacopy\n        /* \"#utility.yul\":8287:8321   */\n      tag_249\n        /* \"#utility.yul\":8318:8319   */\n      0x00\n        /* \"#utility.yul\":8312:8320   */\n      mload\n        /* \"#utility.yul\":8287:8321   */\n      tag_145\n      jump\t// in\n    tag_249:\n        /* \"#utility.yul\":8280:8321   */\n      swap1\n      pop\n        /* \"#utility.yul\":8203:8331   */\n    tag_248:\n        /* \"#utility.yul\":8154:8337   */\n      swap1\n      jump\t// out\n        /* \"#utility.yul\":8343:8523   */\n    tag_146:\n        /* \"#utility.yul\":8391:8468   */\n      0x4e487b7100000000000000000000000000000000000000000000000000000000\n        /* \"#utility.yul\":8388:8389   */\n      0x00\n        /* \"#utility.yul\":8381:8469   */\n      mstore\n        /* \"#utility.yul\":8488:8492   */\n      0x41\n        /* \"#utility.yul\":8485:8486   */\n      0x04\n        /* \"#utility.yul\":8478:8493   */\n      mstore\n        /* \"#utility.yul\":8512:8516   */\n      0x24\n        /* \"#utility.yul\":8509:8510   */\n      0x00\n        /* \"#utility.yul\":8502:8517   */\n      revert\n        /* \"#utility.yul\":8529:8810   */\n    tag_147:\n        /* \"#utility.yul\":8612:8639   */\n      tag_252\n        /* \"#utility.yul\":8634:8638   */\n      dup3\n        /* \"#utility.yul\":8612:8639   */\n      tag_142\n      jump\t// in\n    tag_252:\n        /* \"#utility.yul\":8604:8610   */\n      dup2\n        /* \"#utility.yul\":8600:8640   */\n      add\n        /* \"#utility.yul\":8742:8748   */\n      dup2\n        /* \"#utility.yul\":8730:8740   */\n      dup2\n        /* \"#utility.yul\":8727:8749   */\n      lt\n        /* \"#utility.yul\":8706:8724   */\n      0xffffffffffffffff\n        /* \"#utility.yul\":8694:8704   */\n      dup3\n        /* \"#utility.yul\":8691:8725   */\n      gt\n        /* \"#utility.yul\":8688:8750   */\n      or\n        /* \"#utility.yul\":8685:8773   */\n      iszero\n      tag_253\n      jumpi\n        /* \"#utility.yul\":8753:8771   */\n      tag_254\n      tag_146\n      jump\t// in\n    tag_254:\n        /* \"#utility.yul\":8685:8773   */\n    tag_253:\n        /* \"#utility.yul\":8793:8803   */\n      dup1\n        /* \"#utility.yul\":8789:8791   */\n      0x40\n        /* \"#utility.yul\":8782:8804   */\n      mstore\n        /* \"#utility.yul\":8572:8810   */\n      pop\n        /* \"#utility.yul\":8529:8810   */\n      pop\n      pop\n      jump\t// out\n        /* \"#utility.yul\":8816:9527   */\n    tag_75:\n        /* \"#utility.yul\":8855:8858   */\n      0x00\n        /* \"#utility.yul\":8893:8897   */\n      0x44\n        /* \"#utility.yul\":8875:8891   */\n      returndatasize\n        /* \"#utility.yul\":8872:8898   */\n      lt\n        /* \"#utility.yul\":8901:8906   */\n      tag_255\n        /* \"#utility.yul\":8869:8908   */\n      jumpi\n        /* \"#utility.yul\":8930:8950   */\n      tag_257\n      tag_116\n      jump\t// in\n    tag_257:\n        /* \"#utility.yul\":9005:9006   */\n      0x04\n        /* \"#utility.yul\":8987:9003   */\n      returndatasize\n        /* \"#utility.yul\":8983:9007   */\n      sub\n        /* \"#utility.yul\":8980:8981   */\n      0x04\n        /* \"#utility.yul\":8974:8978   */\n      dup3\n        /* \"#utility.yul\":8959:9008   */\n      returndatacopy\n        /* \"#utility.yul\":9038:9042   */\n      dup1\n        /* \"#utility.yul\":9032:9043   */\n      mload\n        /* \"#utility.yul\":9137:9153   */\n      returndatasize\n        /* \"#utility.yul\":9130:9134   */\n      0x24\n        /* \"#utility.yul\":9122:9128   */\n      dup3\n        /* \"#utility.yul\":9118:9135   */\n      add\n        /* \"#utility.yul\":9115:9154   */\n      gt\n        /* \"#utility.yul\":9082:9100   */\n      0xffffffffffffffff\n        /* \"#utility.yul\":9074:9080   */\n      dup3\n        /* \"#utility.yul\":9071:9101   */\n      gt\n        /* \"#utility.yul\":9055:9168   */\n      or\n        /* \"#utility.yul\":9052:9198   */\n      iszero\n      tag_258\n      jumpi\n        /* \"#utility.yul\":9183:9188   */\n      pop\n      pop\n      jump(tag_255)\n        /* \"#utility.yul\":9052:9198   */\n    tag_258:\n        /* \"#utility.yul\":9229:9235   */\n      dup1\n        /* \"#utility.yul\":9223:9227   */\n      dup3\n        /* \"#utility.yul\":9219:9236   */\n      add\n        /* \"#utility.yul\":9265:9268   */\n      dup1\n        /* \"#utility.yul\":9259:9269   */\n      mload\n        /* \"#utility.yul\":9292:9310   */\n      0xffffffffffffffff\n        /* \"#utility.yul\":9284:9290   */\n      dup2\n        /* \"#utility.yul\":9281:9311   */\n      gt\n        /* \"#utility.yul\":9278:9321   */\n      iszero\n      tag_259\n      jumpi\n        /* \"#utility.yul\":9314:9319   */\n      pop\n      pop\n      pop\n      pop\n      jump(tag_255)\n        /* \"#utility.yul\":9278:9321   */\n    tag_259:\n        /* \"#utility.yul\":9362:9368   */\n      dup1\n        /* \"#utility.yul\":9355:9359   */\n      0x20\n        /* \"#utility.yul\":9350:9353   */\n      dup4\n        /* \"#utility.yul\":9346:9360   */\n      add\n        /* \"#utility.yul\":9342:9369   */\n      add\n        /* \"#utility.yul\":9421:9422   */\n      0x04\n        /* \"#utility.yul\":9403:9419   */\n      returndatasize\n        /* \"#utility.yul\":9399:9423   */\n      sub\n        /* \"#utility.yul\":9393:9397   */\n      dup6\n        /* \"#utility.yul\":9389:9424   */\n      add\n        /* \"#utility.yul\":9384:9387   */\n      dup2\n        /* \"#utility.yul\":9381:9425   */\n      gt\n        /* \"#utility.yul\":9378:9435   */\n      iszero\n      tag_260\n      jumpi\n        /* \"#utility.yul\":9428:9433   */\n      pop\n      pop\n      pop\n      pop\n      pop\n      jump(tag_255)\n        /* \"#utility.yul\":9378:9435   */\n    tag_260:\n        /* \"#utility.yul\":9445:9502   */\n      tag_261\n        /* \"#utility.yul\":9493:9499   */\n      dup3\n        /* \"#utility.yul\":9487:9491   */\n      0x20\n        /* \"#utility.yul\":9483:9500   */\n      add\n        /* \"#utility.yul\":9475:9481   */\n      dup6\n        /* \"#utility.yul\":9471:9501   */\n      add\n        /* \"#utility.yul\":9465:9469   */\n      dup7\n        /* \"#utility.yul\":9445:9502   */\n      tag_147\n      jump\t// in\n    tag_261:\n        /* \"#utility.yul\":9518:9521   */\n      dup3\n        /* \"#utility.yul\":9511:9521   */\n      swap6\n      pop\n        /* \"#utility.yul\":8859:9527   */\n      pop\n      pop\n      pop\n      pop\n      pop\n        /* \"#utility.yul\":8816:9527   */\n    tag_255:\n      swap1\n      jump\t// out\n        /* \"#utility.yul\":9533:9698   */\n    tag_148:\n        /* \"#utility.yul\":9673:9690   */\n      0x556e6b6e6f776e206661696c7572650000000000000000000000000000000000\n        /* \"#utility.yul\":9669:9670   */\n      0x00\n        /* \"#utility.yul\":9661:9667   */\n      dup3\n        /* \"#utility.yul\":9657:9671   */\n      add\n        /* \"#utility.yul\":9650:9691   */\n      mstore\n        /* \"#utility.yul\":9533:9698   */\n      pop\n      jump\t// out\n        /* \"#utility.yul\":9704:10070   */\n    tag_149:\n        /* \"#utility.yul\":9846:9849   */\n      0x00\n        /* \"#utility.yul\":9867:9934   */\n      tag_264\n        /* \"#utility.yul\":9931:9933   */\n      0x0f\n        /* \"#utility.yul\":9926:9929   */\n      dup4\n        /* \"#utility.yul\":9867:9934   */\n      tag_134\n      jump\t// in\n    tag_264:\n        /* \"#utility.yul\":9860:9934   */\n      swap2\n      pop\n        /* \"#utility.yul\":9943:10036   */\n      tag_265\n        /* \"#utility.yul\":10032:10035   */\n      dup3\n        /* \"#utility.yul\":9943:10036   */\n      tag_148\n      jump\t// in\n    tag_265:\n        /* \"#utility.yul\":10061:10063   */\n      0x20\n        /* \"#utility.yul\":10056:10059   */\n      dup3\n        /* \"#utility.yul\":10052:10064   */\n      add\n        /* \"#utility.yul\":10045:10064   */\n      swap1\n      pop\n        /* \"#utility.yul\":9704:10070   */\n      swap2\n      swap1\n      pop\n      jump\t// out\n        /* \"#utility.yul\":10076:10495   */\n    tag_79:\n        /* \"#utility.yul\":10242:10246   */\n      0x00\n        /* \"#utility.yul\":10280:10282   */\n      0x20\n        /* \"#utility.yul\":10269:10278   */\n      dup3\n        /* \"#utility.yul\":10265:10283   */\n      add\n        /* \"#utility.yul\":10257:10283   */\n      swap1\n      pop\n        /* \"#utility.yul\":10329:10338   */\n      dup2\n        /* \"#utility.yul\":10323:10327   */\n      dup2\n        /* \"#utility.yul\":10319:10339   */\n      sub\n        /* \"#utility.yul\":10315:10316   */\n      0x00\n        /* \"#utility.yul\":10304:10313   */\n      dup4\n        /* \"#utility.yul\":10300:10317   */\n      add\n        /* \"#utility.yul\":10293:10340   */\n      mstore\n        /* \"#utility.yul\":10357:10488   */\n      tag_267\n        /* \"#utility.yul\":10483:10487   */\n      dup2\n        /* \"#utility.yul\":10357:10488   */\n      tag_149\n      jump\t// in\n    tag_267:\n        /* \"#utility.yul\":10349:10488   */\n      swap1\n      pop\n        /* \"#utility.yul\":10076:10495   */\n      swap2\n      swap1\n      pop\n      jump\t// out\n        /* \"#utility.yul\":10501:10619   */\n    tag_150:\n        /* \"#utility.yul\":10588:10612   */\n      tag_269\n        /* \"#utility.yul\":10606:10611   */\n      dup2\n        /* \"#utility.yul\":10588:10612   */\n      tag_120\n      jump\t// in\n    tag_269:\n        /* \"#utility.yul\":10583:10586   */\n      dup3\n        /* \"#utility.yul\":10576:10613   */\n      mstore\n        /* \"#utility.yul\":10501:10619   */\n      pop\n      pop\n      jump\t// out\n        /* \"#utility.yul\":10625:10847   */\n    tag_82:\n        /* \"#utility.yul\":10718:10722   */\n      0x00\n        /* \"#utility.yul\":10756:10758   */\n      0x20\n        /* \"#utility.yul\":10745:10754   */\n      dup3\n        /* \"#utility.yul\":10741:10759   */\n      add\n        /* \"#utility.yul\":10733:10759   */\n      swap1\n      pop\n        /* \"#utility.yul\":10769:10840   */\n      tag_271\n        /* \"#utility.yul\":10837:10838   */\n      0x00\n        /* \"#utility.yul\":10826:10835   */\n      dup4\n        /* \"#utility.yul\":10822:10839   */\n      add\n        /* \"#utility.yul\":10813:10819   */\n      dup5\n        /* \"#utility.yul\":10769:10840   */\n      tag_150\n      jump\t// in\n    tag_271:\n        /* \"#utility.yul\":10625:10847   */\n      swap3\n      swap2\n      pop\n      pop\n      jump\t// out\n        /* \"#utility.yul\":10853:11044   */\n    tag_99:\n        /* \"#utility.yul\":10893:10896   */\n      0x00\n        /* \"#utility.yul\":10912:10932   */\n      tag_273\n        /* \"#utility.yul\":10930:10931   */\n      dup3\n        /* \"#utility.yul\":10912:10932   */\n      tag_123\n      jump\t// in\n    tag_273:\n        /* \"#utility.yul\":10907:10932   */\n      swap2\n      pop\n        /* \"#utility.yul\":10946:10966   */\n      tag_274\n        /* \"#utility.yul\":10964:10965   */\n      dup4\n        /* \"#utility.yul\":10946:10966   */\n      tag_123\n      jump\t// in\n    tag_274:\n        /* \"#utility.yul\":10941:10966   */\n      swap3\n      pop\n        /* \"#utility.yul\":10989:10990   */\n      dup3\n        /* \"#utility.yul\":10986:10987   */\n      dup3\n        /* \"#utility.yul\":10982:10991   */\n      add\n        /* \"#utility.yul\":10975:10991   */\n      swap1\n      pop\n        /* \"#utility.yul\":11010:11013   */\n      dup1\n        /* \"#utility.yul\":11007:11008   */\n      dup3\n        /* \"#utility.yul\":11004:11014   */\n      gt\n        /* \"#utility.yul\":11001:11037   */\n      iszero\n      tag_275\n      jumpi\n        /* \"#utility.yul\":11017:11035   */\n      tag_276\n      tag_144\n      jump\t// in\n    tag_276:\n        /* \"#utility.yul\":11001:11037   */\n    tag_275:\n        /* \"#utility.yul\":10853:11044   */\n      swap3\n      swap2\n      pop\n      pop\n      jump\t// out\n        /* \"#utility.yul\":11050:11148   */\n    tag_151:\n        /* \"#utility.yul\":11101:11107   */\n      0x00\n        /* \"#utility.yul\":11135:11140   */\n      dup2\n        /* \"#utility.yul\":11129:11141   */\n      mload\n        /* \"#utility.yul\":11119:11141   */\n      swap1\n      pop\n        /* \"#utility.yul\":11050:11148   */\n      swap2\n      swap1\n      pop\n      jump\t// out\n        /* \"#utility.yul\":11154:11322   */\n    tag_152:\n        /* \"#utility.yul\":11237:11248   */\n      0x00\n        /* \"#utility.yul\":11271:11277   */\n      dup3\n        /* \"#utility.yul\":11266:11269   */\n      dup3\n        /* \"#utility.yul\":11259:11278   */\n      mstore\n        /* \"#utility.yul\":11311:11315   */\n      0x20\n        /* \"#utility.yul\":11306:11309   */\n      dup3\n        /* \"#utility.yul\":11302:11316   */\n      add\n        /* \"#utility.yul\":11287:11316   */\n      swap1\n      pop\n        /* \"#utility.yul\":11154:11322   */\n      swap3\n      swap2\n      pop\n      pop\n      jump\t// out\n        /* \"#utility.yul\":11328:11701   */\n    tag_153:\n        /* \"#utility.yul\":11414:11417   */\n      0x00\n        /* \"#utility.yul\":11442:11480   */\n      tag_280\n        /* \"#utility.yul\":11474:11479   */\n      dup3\n        /* \"#utility.yul\":11442:11480   */\n      tag_151\n      jump\t// in\n    tag_280:\n        /* \"#utility.yul\":11496:11566   */\n      tag_281\n        /* \"#utility.yul\":11559:11565   */\n      dup2\n        /* \"#utility.yul\":11554:11557   */\n      dup6\n        /* \"#utility.yul\":11496:11566   */\n      tag_152\n      jump\t// in\n    tag_281:\n        /* \"#utility.yul\":11489:11566   */\n      swap4\n      pop\n        /* \"#utility.yul\":11575:11640   */\n      tag_282\n        /* \"#utility.yul\":11633:11639   */\n      dup2\n        /* \"#utility.yul\":11628:11631   */\n      dup6\n        /* \"#utility.yul\":11621:11625   */\n      0x20\n        /* \"#utility.yul\":11614:11619   */\n      dup7\n        /* \"#utility.yul\":11610:11626   */\n      add\n        /* \"#utility.yul\":11575:11640   */\n      tag_141\n      jump\t// in\n    tag_282:\n        /* \"#utility.yul\":11665:11694   */\n      tag_283\n        /* \"#utility.yul\":11687:11693   */\n      dup2\n        /* \"#utility.yul\":11665:11694   */\n      tag_142\n      jump\t// in\n    tag_283:\n        /* \"#utility.yul\":11660:11663   */\n      dup5\n        /* \"#utility.yul\":11656:11695   */\n      add\n        /* \"#utility.yul\":11649:11695   */\n      swap2\n      pop\n        /* \"#utility.yul\":11418:11701   */\n      pop\n        /* \"#utility.yul\":11328:11701   */\n      swap3\n      swap2\n      pop\n      pop\n      jump\t// out\n        /* \"#utility.yul\":11707:12114   */\n    tag_111:\n        /* \"#utility.yul\":11840:11844   */\n      0x00\n        /* \"#utility.yul\":11878:11880   */\n      0x40\n        /* \"#utility.yul\":11867:11876   */\n      dup3\n        /* \"#utility.yul\":11863:11881   */\n      add\n        /* \"#utility.yul\":11855:11881   */\n      swap1\n      pop\n        /* \"#utility.yul\":11891:11956   */\n      tag_285\n        /* \"#utility.yul\":11953:11954   */\n      0x00\n        /* \"#utility.yul\":11942:11951   */\n      dup4\n        /* \"#utility.yul\":11938:11955   */\n      add\n        /* \"#utility.yul\":11929:11935   */\n      dup6\n        /* \"#utility.yul\":11891:11956   */\n      tag_131\n      jump\t// in\n    tag_285:\n        /* \"#utility.yul\":12003:12012   */\n      dup2\n        /* \"#utility.yul\":11997:12001   */\n      dup2\n        /* \"#utility.yul\":11993:12013   */\n      sub\n        /* \"#utility.yul\":11988:11990   */\n      0x20\n        /* \"#utility.yul\":11977:11986   */\n      dup4\n        /* \"#utility.yul\":11973:11991   */\n      add\n        /* \"#utility.yul\":11966:12014   */\n      mstore\n        /* \"#utility.yul\":12031:12107   */\n      tag_286\n        /* \"#utility.yul\":12102:12106   */\n      dup2\n        /* \"#utility.yul\":12093:12099   */\n      dup5\n        /* \"#utility.yul\":12031:12107   */\n      tag_153\n      jump\t// in\n    tag_286:\n        /* \"#utility.yul\":12023:12107   */\n      swap1\n      pop\n        /* \"#utility.yul\":11707:12114   */\n      swap4\n      swap3\n      pop\n      pop\n      pop\n      jump\t// out\n        /* \"#utility.yul\":12120:12237   */\n    tag_154:\n        /* \"#utility.yul\":12229:12230   */\n      0x00\n        /* \"#utility.yul\":12226:12227   */\n      0x00\n        /* \"#utility.yul\":12219:12231   */\n      revert\n        /* \"#utility.yul\":12243:12360   */\n    tag_155:\n        /* \"#utility.yul\":12352:12353   */\n      0x00\n        /* \"#utility.yul\":12349:12350   */\n      0x00\n        /* \"#utility.yul\":12342:12354   */\n      revert\n        /* \"#utility.yul\":12366:12495   */\n    tag_156:\n        /* \"#utility.yul\":12400:12406   */\n      0x00\n        /* \"#utility.yul\":12427:12447   */\n      tag_290\n      tag_116\n      jump\t// in\n    tag_290:\n        /* \"#utility.yul\":12417:12447   */\n      swap1\n      pop\n        /* \"#utility.yul\":12456:12489   */\n      tag_291\n        /* \"#utility.yul\":12484:12488   */\n      dup3\n        /* \"#utility.yul\":12476:12482   */\n      dup3\n        /* \"#utility.yul\":12456:12489   */\n      tag_147\n      jump\t// in\n    tag_291:\n        /* \"#utility.yul\":12366:12495   */\n      swap2\n      swap1\n      pop\n      jump\t// out\n        /* \"#utility.yul\":12501:12809   */\n    tag_157:\n        /* \"#utility.yul\":12563:12567   */\n      0x00\n        /* \"#utility.yul\":12653:12671   */\n      0xffffffffffffffff\n        /* \"#utility.yul\":12645:12651   */\n      dup3\n        /* \"#utility.yul\":12642:12672   */\n      gt\n        /* \"#utility.yul\":12639:12695   */\n      iszero\n      tag_293\n      jumpi\n        /* \"#utility.yul\":12675:12693   */\n      tag_294\n      tag_146\n      jump\t// in\n    tag_294:\n        /* \"#utility.yul\":12639:12695   */\n    tag_293:\n        /* \"#utility.yul\":12713:12742   */\n      tag_295\n        /* \"#utility.yul\":12735:12741   */\n      dup3\n        /* \"#utility.yul\":12713:12742   */\n      tag_142\n      jump\t// in\n    tag_295:\n        /* \"#utility.yul\":12705:12742   */\n      swap1\n      pop\n        /* \"#utility.yul\":12797:12801   */\n      0x20\n        /* \"#utility.yul\":12791:12795   */\n      dup2\n        /* \"#utility.yul\":12787:12802   */\n      add\n        /* \"#utility.yul\":12779:12802   */\n      swap1\n      pop\n        /* \"#utility.yul\":12501:12809   */\n      swap2\n      swap1\n      pop\n      jump\t// out\n        /* \"#utility.yul\":12815:13249   */\n    tag_158:\n        /* \"#utility.yul\":12904:12909   */\n      0x00\n        /* \"#utility.yul\":12929:12995   */\n      tag_297\n        /* \"#utility.yul\":12945:12994   */\n      tag_298\n        /* \"#utility.yul\":12987:12993   */\n      dup5\n        /* \"#utility.yul\":12945:12994   */\n      tag_157\n      jump\t// in\n    tag_298:\n        /* \"#utility.yul\":12929:12995   */\n      tag_156\n      jump\t// in\n    tag_297:\n        /* \"#utility.yul\":12920:12995   */\n      swap1\n      pop\n        /* \"#utility.yul\":13018:13024   */\n      dup3\n        /* \"#utility.yul\":13011:13016   */\n      dup2\n        /* \"#utility.yul\":13004:13025   */\n      mstore\n        /* \"#utility.yul\":13056:13060   */\n      0x20\n        /* \"#utility.yul\":13049:13054   */\n      dup2\n        /* \"#utility.yul\":13045:13061   */\n      add\n        /* \"#utility.yul\":13094:13097   */\n      dup5\n        /* \"#utility.yul\":13085:13091   */\n      dup5\n        /* \"#utility.yul\":13080:13083   */\n      dup5\n        /* \"#utility.yul\":13076:13092   */\n      add\n        /* \"#utility.yul\":13073:13098   */\n      gt\n        /* \"#utility.yul\":13070:13182   */\n      iszero\n      tag_299\n      jumpi\n        /* \"#utility.yul\":13101:13180   */\n      tag_300\n      tag_155\n      jump\t// in\n    tag_300:\n        /* \"#utility.yul\":13070:13182   */\n    tag_299:\n        /* \"#utility.yul\":13191:13243   */\n      tag_301\n        /* \"#utility.yul\":13236:13242   */\n      dup5\n        /* \"#utility.yul\":13231:13234   */\n      dup3\n        /* \"#utility.yul\":13226:13229   */\n      dup6\n        /* \"#utility.yul\":13191:13243   */\n      tag_141\n      jump\t// in\n    tag_301:\n        /* \"#utility.yul\":12910:13249   */\n      pop\n        /* \"#utility.yul\":12815:13249   */\n      swap4\n      swap3\n      pop\n      pop\n      pop\n      jump\t// out\n        /* \"#utility.yul\":13269:13624   */\n    tag_159:\n        /* \"#utility.yul\":13336:13341   */\n      0x00\n        /* \"#utility.yul\":13385:13388   */\n      dup3\n        /* \"#utility.yul\":13378:13382   */\n      0x1f\n        /* \"#utility.yul\":13370:13376   */\n      dup4\n        /* \"#utility.yul\":13366:13383   */\n      add\n        /* \"#utility.yul\":13362:13389   */\n      slt\n        /* \"#utility.yul\":13352:13474   */\n      tag_303\n      jumpi\n        /* \"#utility.yul\":13393:13472   */\n      tag_304\n      tag_154\n      jump\t// in\n    tag_304:\n        /* \"#utility.yul\":13352:13474   */\n    tag_303:\n        /* \"#utility.yul\":13503:13509   */\n      dup2\n        /* \"#utility.yul\":13497:13510   */\n      mload\n        /* \"#utility.yul\":13528:13618   */\n      tag_305\n        /* \"#utility.yul\":13614:13617   */\n      dup5\n        /* \"#utility.yul\":13606:13612   */\n      dup3\n        /* \"#utility.yul\":13599:13603   */\n      0x20\n        /* \"#utility.yul\":13591:13597   */\n      dup7\n        /* \"#utility.yul\":13587:13604   */\n      add\n        /* \"#utility.yul\":13528:13618   */\n      tag_158\n      jump\t// in\n    tag_305:\n        /* \"#utility.yul\":13519:13618   */\n      swap2\n      pop\n        /* \"#utility.yul\":13342:13624   */\n      pop\n        /* \"#utility.yul\":13269:13624   */\n      swap3\n      swap2\n      pop\n      pop\n      jump\t// out\n        /* \"#utility.yul\":13630:14154   */\n    tag_115:\n        /* \"#utility.yul\":13710:13716   */\n      0x00\n        /* \"#utility.yul\":13759:13761   */\n      0x20\n        /* \"#utility.yul\":13747:13756   */\n      dup3\n        /* \"#utility.yul\":13738:13745   */\n      dup5\n        /* \"#utility.yul\":13734:13757   */\n      sub\n        /* \"#utility.yul\":13730:13762   */\n      slt\n        /* \"#utility.yul\":13727:13846   */\n      iszero\n      tag_307\n      jumpi\n        /* \"#utility.yul\":13765:13844   */\n      tag_308\n      tag_117\n      jump\t// in\n    tag_308:\n        /* \"#utility.yul\":13727:13846   */\n    tag_307:\n        /* \"#utility.yul\":13906:13907   */\n      0x00\n        /* \"#utility.yul\":13895:13904   */\n      dup3\n        /* \"#utility.yul\":13891:13908   */\n      add\n        /* \"#utility.yul\":13885:13909   */\n      mload\n        /* \"#utility.yul\":13936:13954   */\n      0xffffffffffffffff\n        /* \"#utility.yul\":13928:13934   */\n      dup2\n        /* \"#utility.yul\":13925:13955   */\n      gt\n        /* \"#utility.yul\":13922:14039   */\n      iszero\n      tag_309\n      jumpi\n        /* \"#utility.yul\":13958:14037   */\n      tag_310\n      tag_118\n      jump\t// in\n    tag_310:\n        /* \"#utility.yul\":13922:14039   */\n    tag_309:\n        /* \"#utility.yul\":14063:14137   */\n      tag_311\n        /* \"#utility.yul\":14129:14136   */\n      dup5\n        /* \"#utility.yul\":14120:14126   */\n      dup3\n        /* \"#utility.yul\":14109:14118   */\n      dup6\n        /* \"#utility.yul\":14105:14127   */\n      add\n        /* \"#utility.yul\":14063:14137   */\n      tag_159\n      jump\t// in\n    tag_311:\n        /* \"#utility.yul\":14053:14137   */\n      swap2\n      pop\n        /* \"#utility.yul\":13856:14147   */\n      pop\n        /* \"#utility.yul\":13630:14154   */\n      swap3\n      swap2\n      pop\n      pop\n      jump\t// out\n\n    auxdata: 0xa26469706673582212209482877be01871319c6af66684c74ca6ac12c1e8e173c3f4c34bbbab33869eb364736f6c63430008220033\n}\n",
				"bytecode": {
					"linkReferences": {},
					"object": "6080604052348015600e575f5ffd5b506111fd8061001c5f395ff3fe60806040526004361061006f575f3560e01c80638b7afe2e1161004d5780638b7afe2e14610113578063a7b9b10b1461013d578063d0e30db014610165578063f90873151461016f5761006f565b806327e235e3146100735780635058c460146100af5780636ef61092146100d7575b5f5ffd5b34801561007e575f5ffd5b5061009960048036038101906100949190610b04565b610197565b6040516100a69190610b47565b60405180910390f35b3480156100ba575f5ffd5b506100d560048036038101906100d09190610bc5565b6101ab565b005b3480156100e2575f5ffd5b506100fd60048036038101906100f89190610b04565b6104bf565b60405161010a9190610c1d565b60405180910390f35b34801561011e575f5ffd5b506101276104dc565b6040516101349190610b47565b60405180910390f35b348015610148575f5ffd5b50610163600480360381019061015e9190610c60565b6104e3565b005b61016d610759565b005b34801561017a575f5ffd5b5061019560048036038101906101909190610bc5565b6107fb565b005b5f602052805f5260405f205f915090505481565b805f5f3373ffffffffffffffffffffffffffffffffffffffff1673ffffffffffffffffffffffffffffffffffffffff1681526020019081526020015f2054101561022a576040517f08c379a000000000000000000000000000000000000000000000000000000000815260040161022190610cf8565b60405180910390fd5b8173ffffffffffffffffffffffffffffffffffffffff163373ffffffffffffffffffffffffffffffffffffffff167fb82e8ec75b966e34b483311327fa5fa31c11c92095cd0a42e067394ece4e8a0f836040516102879190610b47565b60405180910390a35f5f8373ffffffffffffffffffffffffffffffffffffffff16836040516102b590610d43565b5f6040518083038185875af1925050503d805f81146102ef576040519150601f19603f3d011682016040523d82523d5f602084013e6102f4565b606091505b5091509150816103ae575f61030882610a2e565b90508473ffffffffffffffffffffffffffffffffffffffff163373ffffffffffffffffffffffffffffffffffffffff167fe7b4f1435cad7862bda8b9d202f8901c444dc265e6f57e263c202af99af72b268684604051610369929190610db7565b60405180910390a3806040517f08c379a00000000000000000000000000000000000000000000000000000000081526004016103a59190610de5565b60405180910390fd5b825f5f3373ffffffffffffffffffffffffffffffffffffffff1673ffffffffffffffffffffffffffffffffffffffff1681526020019081526020015f205f8282546103f99190610e32565b925050819055506001805f3373ffffffffffffffffffffffffffffffffffffffff1673ffffffffffffffffffffffffffffffffffffffff1681526020019081526020015f205f6101000a81548160ff0219169083151502179055508373ffffffffffffffffffffffffffffffffffffffff163373ffffffffffffffffffffffffffffffffffffffff167f13f6fde85ff279c84605d36a9e826fa288b03b0fe2c8df3be542eb045ace0483856040516104b19190610b47565b60405180910390a350505050565b6001602052805f5260405f205f915054906101000a900460ff1681565b5f47905090565b8015610621578173ffffffffffffffffffffffffffffffffffffffff1663ca463e196040518163ffffffff1660e01b81526004015f604051808303815f87803b15801561052e575f5ffd5b505af192505050801561053f575060015b6105e45761054b610e71565b806308c379a0036105a7575061055f610eee565b8061056a57506105a9565b7f2170a899eb3df99de3d6973d7f04a8981d877b84ca2055234d696ae04a5547f3816040516105999190610de5565b60405180910390a1506105df565b505b7f2170a899eb3df99de3d6973d7f04a8981d877b84ca2055234d696ae04a5547f36040516105d690610fc7565b60405180910390a15b61061c565b7fe8bacbd8bc730979c451f1de2057fd8a1e9d9f872abc22735c6ab976ca2ebe6f826040516106139190610ff4565b60405180910390a15b610755565b8173ffffffffffffffffffffffffffffffffffffffff1663671bd39d6040518163ffffffff1660e01b81526004015f604051808303815f87803b158015610666575f5ffd5b505af1925050508015610677575060015b61071c57610683610e71565b806308c379a0036106df5750610697610eee565b806106a257506106e1565b7f2170a899eb3df99de3d6973d7f04a8981d877b84ca2055234d696ae04a5547f3816040516106d19190610de5565b60405180910390a150610717565b505b7f2170a899eb3df99de3d6973d7f04a8981d877b84ca2055234d696ae04a5547f360405161070e90610fc7565b60405180910390a15b610754565b7fe8bacbd8bc730979c451f1de2057fd8a1e9d9f872abc22735c6ab976ca2ebe6f8260405161074b9190610ff4565b60405180910390a15b5b5050565b345f5f3373ffffffffffffffffffffffffffffffffffffffff1673ffffffffffffffffffffffffffffffffffffffff1681526020019081526020015f205f8282546107a4919061100d565b925050819055503373ffffffffffffffffffffffffffffffffffffffff167fe1fffcc4923d04b559f4d29a8bfc6cda04eb5b0d3c460751c2402c5c5cc9109c346040516107f19190610b47565b60405180910390a2565b805f5f3373ffffffffffffffffffffffffffffffffffffffff1673ffffffffffffffffffffffffffffffffffffffff1681526020019081526020015f2054101561087a576040517f08c379a000000000000000000000000000000000000000000000000000000000815260040161087190610cf8565b60405180910390fd5b805f5f3373ffffffffffffffffffffffffffffffffffffffff1673ffffffffffffffffffffffffffffffffffffffff1681526020019081526020015f205f8282546108c59190610e32565b925050819055506001805f3373ffffffffffffffffffffffffffffffffffffffff1673ffffffffffffffffffffffffffffffffffffffff1681526020019081526020015f205f6101000a81548160ff0219169083151502179055508173ffffffffffffffffffffffffffffffffffffffff163373ffffffffffffffffffffffffffffffffffffffff167fb82e8ec75b966e34b483311327fa5fa31c11c92095cd0a42e067394ece4e8a0f8360405161097d9190610b47565b60405180910390a35f5f8373ffffffffffffffffffffffffffffffffffffffff16836040516109ab90610d43565b5f6040518083038185875af1925050503d805f81146109e5576040519150601f19603f3d011682016040523d82523d5f602084013e6109ea565b606091505b50915091507f58ca563c963d38068899a617772b6ad1322e8201814b5a73f3e628f09a21e0c28282604051610a20929190611092565b60405180910390a150505050565b6060604482511015610a77576040518060400160405280601d81526020017f5472616e73616374696f6e2072657665727465642073696c656e746c790000008152509050610a94565b60048201915081806020019051810190610a919190611180565b90505b919050565b5f604051905090565b5f5ffd5b5f5ffd5b5f73ffffffffffffffffffffffffffffffffffffffff82169050919050565b5f610ad382610aaa565b9050919050565b610ae381610ac9565b8114610aed575f5ffd5b50565b5f81359050610afe81610ada565b92915050565b5f60208284031215610b1957610b18610aa2565b5b5f610b2684828501610af0565b91505092915050565b5f819050919050565b610b4181610b2f565b82525050565b5f602082019050610b5a5f830184610b38565b92915050565b5f610b6a82610aaa565b9050919050565b610b7a81610b60565b8114610b84575f5ffd5b50565b5f81359050610b9581610b71565b92915050565b610ba481610b2f565b8114610bae575f5ffd5b50565b5f81359050610bbf81610b9b565b92915050565b5f5f60408385031215610bdb57610bda610aa2565b5b5f610be885828601610b87565b9250506020610bf985828601610bb1565b9150509250929050565b5f8115159050919050565b610c1781610c03565b82525050565b5f602082019050610c305f830184610c0e565b92915050565b610c3f81610c03565b8114610c49575f5ffd5b50565b5f81359050610c5a81610c36565b92915050565b5f5f60408385031215610c7657610c75610aa2565b5b5f610c8385828601610af0565b9250506020610c9485828601610c4c565b9150509250929050565b5f82825260208201905092915050565b7f496e73756666696369656e742062616c616e63650000000000000000000000005f82015250565b5f610ce2601483610c9e565b9150610ced82610cae565b602082019050919050565b5f6020820190508181035f830152610d0f81610cd6565b9050919050565b5f81905092915050565b50565b5f610d2e5f83610d16565b9150610d3982610d20565b5f82019050919050565b5f610d4d82610d23565b9150819050919050565b5f81519050919050565b8281835e5f83830152505050565b5f601f19601f8301169050919050565b5f610d8982610d57565b610d938185610c9e565b9350610da3818560208601610d61565b610dac81610d6f565b840191505092915050565b5f604082019050610dca5f830185610b38565b8181036020830152610ddc8184610d7f565b90509392505050565b5f6020820190508181035f830152610dfd8184610d7f565b905092915050565b7f4e487b71000000000000000000000000000000000000000000000000000000005f52601160045260245ffd5b5f610e3c82610b2f565b9150610e4783610b2f565b9250828203905081811115610e5f57610e5e610e05565b5b92915050565b5f8160e01c9050919050565b5f60033d1115610e8d5760045f5f3e610e8a5f51610e65565b90505b90565b7f4e487b71000000000000000000000000000000000000000000000000000000005f52604160045260245ffd5b610ec682610d6f565b810181811067ffffffffffffffff82111715610ee557610ee4610e90565b5b80604052505050565b5f60443d10610f7a57610eff610a99565b60043d036004823e80513d602482011167ffffffffffffffff82111715610f27575050610f7a565b808201805167ffffffffffffffff811115610f455750505050610f7a565b80602083010160043d038501811115610f62575050505050610f7a565b610f7182602001850186610ebd565b82955050505050505b90565b7f556e6b6e6f776e206661696c75726500000000000000000000000000000000005f82015250565b5f610fb1600f83610c9e565b9150610fbc82610f7d565b602082019050919050565b5f6020820190508181035f830152610fde81610fa5565b9050919050565b610fee81610ac9565b82525050565b5f6020820190506110075f830184610fe5565b92915050565b5f61101782610b2f565b915061102283610b2f565b925082820190508082111561103a57611039610e05565b5b92915050565b5f81519050919050565b5f82825260208201905092915050565b5f61106482611040565b61106e818561104a565b935061107e818560208601610d61565b61108781610d6f565b840191505092915050565b5f6040820190506110a55f830185610c0e565b81810360208301526110b7818461105a565b90509392505050565b5f5ffd5b5f5ffd5b5f6110d1610a99565b90506110dd8282610ebd565b919050565b5f67ffffffffffffffff8211156110fc576110fb610e90565b5b61110582610d6f565b9050602081019050919050565b5f61112461111f846110e2565b6110c8565b9050828152602081018484840111156111405761113f6110c4565b5b61114b848285610d61565b509392505050565b5f82601f830112611167576111666110c0565b5b8151611177848260208601611112565b91505092915050565b5f6020828403121561119557611194610aa2565b5b5f82015167ffffffffffffffff8111156111b2576111b1610aa6565b5b6111be84828501611153565b9150509291505056fea26469706673582212209482877be01871319c6af66684c74ca6ac12c1e8e173c3f4c34bbbab33869eb364736f6c63430008220033",
					"opcodes": "PUSH1 0x80 PUSH1 0x40 MSTORE CALLVALUE DUP1 ISZERO PUSH1 0xE JUMPI PUSH0 PUSH0 REVERT JUMPDEST POP PUSH2 0x11FD DUP1 PUSH2 0x1C PUSH0 CODECOPY PUSH0 RETURN INVALID PUSH1 0x80 PUSH1 0x40 MSTORE PUSH1 0x4 CALLDATASIZE LT PUSH2 0x6F JUMPI PUSH0 CALLDATALOAD PUSH1 0xE0 SHR DUP1 PUSH4 0x8B7AFE2E GT PUSH2 0x4D JUMPI DUP1 PUSH4 0x8B7AFE2E EQ PUSH2 0x113 JUMPI DUP1 PUSH4 0xA7B9B10B EQ PUSH2 0x13D JUMPI DUP1 PUSH4 0xD0E30DB0 EQ PUSH2 0x165 JUMPI DUP1 PUSH4 0xF9087315 EQ PUSH2 0x16F JUMPI PUSH2 0x6F JUMP JUMPDEST DUP1 PUSH4 0x27E235E3 EQ PUSH2 0x73 JUMPI DUP1 PUSH4 0x5058C460 EQ PUSH2 0xAF JUMPI DUP1 PUSH4 0x6EF61092 EQ PUSH2 0xD7 JUMPI JUMPDEST PUSH0 PUSH0 REVERT JUMPDEST CALLVALUE DUP1 ISZERO PUSH2 0x7E JUMPI PUSH0 PUSH0 REVERT JUMPDEST POP PUSH2 0x99 PUSH1 0x4 DUP1 CALLDATASIZE SUB DUP2 ADD SWAP1 PUSH2 0x94 SWAP2 SWAP1 PUSH2 0xB04 JUMP JUMPDEST PUSH2 0x197 JUMP JUMPDEST PUSH1 0x40 MLOAD PUSH2 0xA6 SWAP2 SWAP1 PUSH2 0xB47 JUMP JUMPDEST PUSH1 0x40 MLOAD DUP1 SWAP2 SUB SWAP1 RETURN JUMPDEST CALLVALUE DUP1 ISZERO PUSH2 0xBA JUMPI PUSH0 PUSH0 REVERT JUMPDEST POP PUSH2 0xD5 PUSH1 0x4 DUP1 CALLDATASIZE SUB DUP2 ADD SWAP1 PUSH2 0xD0 SWAP2 SWAP1 PUSH2 0xBC5 JUMP JUMPDEST PUSH2 0x1AB JUMP JUMPDEST STOP JUMPDEST CALLVALUE DUP1 ISZERO PUSH2 0xE2 JUMPI PUSH0 PUSH0 REVERT JUMPDEST POP PUSH2 0xFD PUSH1 0x4 DUP1 CALLDATASIZE SUB DUP2 ADD SWAP1 PUSH2 0xF8 SWAP2 SWAP1 PUSH2 0xB04 JUMP JUMPDEST PUSH2 0x4BF JUMP JUMPDEST PUSH1 0x40 MLOAD PUSH2 0x10A SWAP2 SWAP1 PUSH2 0xC1D JUMP JUMPDEST PUSH1 0x40 MLOAD DUP1 SWAP2 SUB SWAP1 RETURN JUMPDEST CALLVALUE DUP1 ISZERO PUSH2 0x11E JUMPI PUSH0 PUSH0 REVERT JUMPDEST POP PUSH2 0x127 PUSH2 0x4DC JUMP JUMPDEST PUSH1 0x40 MLOAD PUSH2 0x134 SWAP2 SWAP1 PUSH2 0xB47 JUMP JUMPDEST PUSH1 0x40 MLOAD DUP1 SWAP2 SUB SWAP1 RETURN JUMPDEST CALLVALUE DUP1 ISZERO PUSH2 0x148 JUMPI PUSH0 PUSH0 REVERT JUMPDEST POP PUSH2 0x163 PUSH1 0x4 DUP1 CALLDATASIZE SUB DUP2 ADD SWAP1 PUSH2 0x15E SWAP2 SWAP1 PUSH2 0xC60 JUMP JUMPDEST PUSH2 0x4E3 JUMP JUMPDEST STOP JUMPDEST PUSH2 0x16D PUSH2 0x759 JUMP JUMPDEST STOP JUMPDEST CALLVALUE DUP1 ISZERO PUSH2 0x17A JUMPI PUSH0 PUSH0 REVERT JUMPDEST POP PUSH2 0x195 PUSH1 0x4 DUP1 CALLDATASIZE SUB DUP2 ADD SWAP1 PUSH2 0x190 SWAP2 SWAP1 PUSH2 0xBC5 JUMP JUMPDEST PUSH2 0x7FB JUMP JUMPDEST STOP JUMPDEST PUSH0 PUSH1 0x20 MSTORE DUP1 PUSH0 MSTORE PUSH1 0x40 PUSH0 KECCAK256 PUSH0 SWAP2 POP SWAP1 POP SLOAD DUP2 JUMP JUMPDEST DUP1 PUSH0 PUSH0 CALLER PUSH20 0xFFFFFFFFFFFFFFFFFFFFFFFFFFFFFFFFFFFFFFFF AND PUSH20 0xFFFFFFFFFFFFFFFFFFFFFFFFFFFFFFFFFFFFFFFF AND DUP2 MSTORE PUSH1 0x20 ADD SWAP1 DUP2 MSTORE PUSH1 0x20 ADD PUSH0 KECCAK256 SLOAD LT ISZERO PUSH2 0x22A JUMPI PUSH1 0x40 MLOAD PUSH32 0x8C379A000000000000000000000000000000000000000000000000000000000 DUP2 MSTORE PUSH1 0x4 ADD PUSH2 0x221 SWAP1 PUSH2 0xCF8 JUMP JUMPDEST PUSH1 0x40 MLOAD DUP1 SWAP2 SUB SWAP1 REVERT JUMPDEST DUP2 PUSH20 0xFFFFFFFFFFFFFFFFFFFFFFFFFFFFFFFFFFFFFFFF AND CALLER PUSH20 0xFFFFFFFFFFFFFFFFFFFFFFFFFFFFFFFFFFFFFFFF AND PUSH32 0xB82E8EC75B966E34B483311327FA5FA31C11C92095CD0A42E067394ECE4E8A0F DUP4 PUSH1 0x40 MLOAD PUSH2 0x287 SWAP2 SWAP1 PUSH2 0xB47 JUMP JUMPDEST PUSH1 0x40 MLOAD DUP1 SWAP2 SUB SWAP1 LOG3 PUSH0 PUSH0 DUP4 PUSH20 0xFFFFFFFFFFFFFFFFFFFFFFFFFFFFFFFFFFFFFFFF AND DUP4 PUSH1 0x40 MLOAD PUSH2 0x2B5 SWAP1 PUSH2 0xD43 JUMP JUMPDEST PUSH0 PUSH1 0x40 MLOAD DUP1 DUP4 SUB DUP2 DUP6 DUP8 GAS CALL SWAP3 POP POP POP RETURNDATASIZE DUP1 PUSH0 DUP2 EQ PUSH2 0x2EF JUMPI PUSH1 0x40 MLOAD SWAP2 POP PUSH1 0x1F NOT PUSH1 0x3F RETURNDATASIZE ADD AND DUP3 ADD PUSH1 0x40 MSTORE RETURNDATASIZE DUP3 MSTORE RETURNDATASIZE PUSH0 PUSH1 0x20 DUP5 ADD RETURNDATACOPY PUSH2 0x2F4 JUMP JUMPDEST PUSH1 0x60 SWAP2 POP JUMPDEST POP SWAP2 POP SWAP2 POP DUP2 PUSH2 0x3AE JUMPI PUSH0 PUSH2 0x308 DUP3 PUSH2 0xA2E JUMP JUMPDEST SWAP1 POP DUP5 PUSH20 0xFFFFFFFFFFFFFFFFFFFFFFFFFFFFFFFFFFFFFFFF AND CALLER PUSH20 0xFFFFFFFFFFFFFFFFFFFFFFFFFFFFFFFFFFFFFFFF AND PUSH32 0xE7B4F1435CAD7862BDA8B9D202F8901C444DC265E6F57E263C202AF99AF72B26 DUP7 DUP5 PUSH1 0x40 MLOAD PUSH2 0x369 SWAP3 SWAP2 SWAP1 PUSH2 0xDB7 JUMP JUMPDEST PUSH1 0x40 MLOAD DUP1 SWAP2 SUB SWAP1 LOG3 DUP1 PUSH1 0x40 MLOAD PUSH32 0x8C379A000000000000000000000000000000000000000000000000000000000 DUP2 MSTORE PUSH1 0x4 ADD PUSH2 0x3A5 SWAP2 SWAP1 PUSH2 0xDE5 JUMP JUMPDEST PUSH1 0x40 MLOAD DUP1 SWAP2 SUB SWAP1 REVERT JUMPDEST DUP3 PUSH0 PUSH0 CALLER PUSH20 0xFFFFFFFFFFFFFFFFFFFFFFFFFFFFFFFFFFFFFFFF AND PUSH20 0xFFFFFFFFFFFFFFFFFFFFFFFFFFFFFFFFFFFFFFFF AND DUP2 MSTORE PUSH1 0x20 ADD SWAP1 DUP2 MSTORE PUSH1 0x20 ADD PUSH0 KECCAK256 PUSH0 DUP3 DUP3 SLOAD PUSH2 0x3F9 SWAP2 SWAP1 PUSH2 0xE32 JUMP JUMPDEST SWAP3 POP POP DUP2 SWAP1 SSTORE POP PUSH1 0x1 DUP1 PUSH0 CALLER PUSH20 0xFFFFFFFFFFFFFFFFFFFFFFFFFFFFFFFFFFFFFFFF AND PUSH20 0xFFFFFFFFFFFFFFFFFFFFFFFFFFFFFFFFFFFFFFFF AND DUP2 MSTORE PUSH1 0x20 ADD SWAP1 DUP2 MSTORE PUSH1 0x20 ADD PUSH0 KECCAK256 PUSH0 PUSH2 0x100 EXP DUP2 SLOAD DUP2 PUSH1 0xFF MUL NOT AND SWAP1 DUP4 ISZERO ISZERO MUL OR SWAP1 SSTORE POP DUP4 PUSH20 0xFFFFFFFFFFFFFFFFFFFFFFFFFFFFFFFFFFFFFFFF AND CALLER PUSH20 0xFFFFFFFFFFFFFFFFFFFFFFFFFFFFFFFFFFFFFFFF AND PUSH32 0x13F6FDE85FF279C84605D36A9E826FA288B03B0FE2C8DF3BE542EB045ACE0483 DUP6 PUSH1 0x40 MLOAD PUSH2 0x4B1 SWAP2 SWAP1 PUSH2 0xB47 JUMP JUMPDEST PUSH1 0x40 MLOAD DUP1 SWAP2 SUB SWAP1 LOG3 POP POP POP POP JUMP JUMPDEST PUSH1 0x1 PUSH1 0x20 MSTORE DUP1 PUSH0 MSTORE PUSH1 0x40 PUSH0 KECCAK256 PUSH0 SWAP2 POP SLOAD SWAP1 PUSH2 0x100 EXP SWAP1 DIV PUSH1 0xFF AND DUP2 JUMP JUMPDEST PUSH0 SELFBALANCE SWAP1 POP SWAP1 JUMP JUMPDEST DUP1 ISZERO PUSH2 0x621 JUMPI DUP2 PUSH20 0xFFFFFFFFFFFFFFFFFFFFFFFFFFFFFFFFFFFFFFFF AND PUSH4 0xCA463E19 PUSH1 0x40 MLOAD DUP2 PUSH4 0xFFFFFFFF AND PUSH1 0xE0 SHL DUP2 MSTORE PUSH1 0x4 ADD PUSH0 PUSH1 0x40 MLOAD DUP1 DUP4 SUB DUP2 PUSH0 DUP8 DUP1 EXTCODESIZE ISZERO DUP1 ISZERO PUSH2 0x52E JUMPI PUSH0 PUSH0 REVERT JUMPDEST POP GAS CALL SWAP3 POP POP POP DUP1 ISZERO PUSH2 0x53F JUMPI POP PUSH1 0x1 JUMPDEST PUSH2 0x5E4 JUMPI PUSH2 0x54B PUSH2 0xE71 JUMP JUMPDEST DUP1 PUSH4 0x8C379A0 SUB PUSH2 0x5A7 JUMPI POP PUSH2 0x55F PUSH2 0xEEE JUMP JUMPDEST DUP1 PUSH2 0x56A JUMPI POP PUSH2 0x5A9 JUMP JUMPDEST PUSH32 0x2170A899EB3DF99DE3D6973D7F04A8981D877B84CA2055234D696AE04A5547F3 DUP2 PUSH1 0x40 MLOAD PUSH2 0x599 SWAP2 SWAP1 PUSH2 0xDE5 JUMP JUMPDEST PUSH1 0x40 MLOAD DUP1 SWAP2 SUB SWAP1 LOG1 POP PUSH2 0x5DF JUMP JUMPDEST POP JUMPDEST PUSH32 0x2170A899EB3DF99DE3D6973D7F04A8981D877B84CA2055234D696AE04A5547F3 PUSH1 0x40 MLOAD PUSH2 0x5D6 SWAP1 PUSH2 0xFC7 JUMP JUMPDEST PUSH1 0x40 MLOAD DUP1 SWAP2 SUB SWAP1 LOG1 JUMPDEST PUSH2 0x61C JUMP JUMPDEST PUSH32 0xE8BACBD8BC730979C451F1DE2057FD8A1E9D9F872ABC22735C6AB976CA2EBE6F DUP3 PUSH1 0x40 MLOAD PUSH2 0x613 SWAP2 SWAP1 PUSH2 0xFF4 JUMP JUMPDEST PUSH1 0x40 MLOAD DUP1 SWAP2 SUB SWAP1 LOG1 JUMPDEST PUSH2 0x755 JUMP JUMPDEST DUP2 PUSH20 0xFFFFFFFFFFFFFFFFFFFFFFFFFFFFFFFFFFFFFFFF AND PUSH4 0x671BD39D PUSH1 0x40 MLOAD DUP2 PUSH4 0xFFFFFFFF AND PUSH1 0xE0 SHL DUP2 MSTORE PUSH1 0x4 ADD PUSH0 PUSH1 0x40 MLOAD DUP1 DUP4 SUB DUP2 PUSH0 DUP8 DUP1 EXTCODESIZE ISZERO DUP1 ISZERO PUSH2 0x666 JUMPI PUSH0 PUSH0 REVERT JUMPDEST POP GAS CALL SWAP3 POP POP POP DUP1 ISZERO PUSH2 0x677 JUMPI POP PUSH1 0x1 JUMPDEST PUSH2 0x71C JUMPI PUSH2 0x683 PUSH2 0xE71 JUMP JUMPDEST DUP1 PUSH4 0x8C379A0 SUB PUSH2 0x6DF JUMPI POP PUSH2 0x697 PUSH2 0xEEE JUMP JUMPDEST DUP1 PUSH2 0x6A2 JUMPI POP PUSH2 0x6E1 JUMP JUMPDEST PUSH32 0x2170A899EB3DF99DE3D6973D7F04A8981D877B84CA2055234D696AE04A5547F3 DUP2 PUSH1 0x40 MLOAD PUSH2 0x6D1 SWAP2 SWAP1 PUSH2 0xDE5 JUMP JUMPDEST PUSH1 0x40 MLOAD DUP1 SWAP2 SUB SWAP1 LOG1 POP PUSH2 0x717 JUMP JUMPDEST POP JUMPDEST PUSH32 0x2170A899EB3DF99DE3D6973D7F04A8981D877B84CA2055234D696AE04A5547F3 PUSH1 0x40 MLOAD PUSH2 0x70E SWAP1 PUSH2 0xFC7 JUMP JUMPDEST PUSH1 0x40 MLOAD DUP1 SWAP2 SUB SWAP1 LOG1 JUMPDEST PUSH2 0x754 JUMP JUMPDEST PUSH32 0xE8BACBD8BC730979C451F1DE2057FD8A1E9D9F872ABC22735C6AB976CA2EBE6F DUP3 PUSH1 0x40 MLOAD PUSH2 0x74B SWAP2 SWAP1 PUSH2 0xFF4 JUMP JUMPDEST PUSH1 0x40 MLOAD DUP1 SWAP2 SUB SWAP1 LOG1 JUMPDEST JUMPDEST POP POP JUMP JUMPDEST CALLVALUE PUSH0 PUSH0 CALLER PUSH20 0xFFFFFFFFFFFFFFFFFFFFFFFFFFFFFFFFFFFFFFFF AND PUSH20 0xFFFFFFFFFFFFFFFFFFFFFFFFFFFFFFFFFFFFFFFF AND DUP2 MSTORE PUSH1 0x20 ADD SWAP1 DUP2 MSTORE PUSH1 0x20 ADD PUSH0 KECCAK256 PUSH0 DUP3 DUP3 SLOAD PUSH2 0x7A4 SWAP2 SWAP1 PUSH2 0x100D JUMP JUMPDEST SWAP3 POP POP DUP2 SWAP1 SSTORE POP CALLER PUSH20 0xFFFFFFFFFFFFFFFFFFFFFFFFFFFFFFFFFFFFFFFF AND PUSH32 0xE1FFFCC4923D04B559F4D29A8BFC6CDA04EB5B0D3C460751C2402C5C5CC9109C CALLVALUE PUSH1 0x40 MLOAD PUSH2 0x7F1 SWAP2 SWAP1 PUSH2 0xB47 JUMP JUMPDEST PUSH1 0x40 MLOAD DUP1 SWAP2 SUB SWAP1 LOG2 JUMP JUMPDEST DUP1 PUSH0 PUSH0 CALLER PUSH20 0xFFFFFFFFFFFFFFFFFFFFFFFFFFFFFFFFFFFFFFFF AND PUSH20 0xFFFFFFFFFFFFFFFFFFFFFFFFFFFFFFFFFFFFFFFF AND DUP2 MSTORE PUSH1 0x20 ADD SWAP1 DUP2 MSTORE PUSH1 0x20 ADD PUSH0 KECCAK256 SLOAD LT ISZERO PUSH2 0x87A JUMPI PUSH1 0x40 MLOAD PUSH32 0x8C379A000000000000000000000000000000000000000000000000000000000 DUP2 MSTORE PUSH1 0x4 ADD PUSH2 0x871 SWAP1 PUSH2 0xCF8 JUMP JUMPDEST PUSH1 0x40 MLOAD DUP1 SWAP2 SUB SWAP1 REVERT JUMPDEST DUP1 PUSH0 PUSH0 CALLER PUSH20 0xFFFFFFFFFFFFFFFFFFFFFFFFFFFFFFFFFFFFFFFF AND PUSH20 0xFFFFFFFFFFFFFFFFFFFFFFFFFFFFFFFFFFFFFFFF AND DUP2 MSTORE PUSH1 0x20 ADD SWAP1 DUP2 MSTORE PUSH1 0x20 ADD PUSH0 KECCAK256 PUSH0 DUP3 DUP3 SLOAD PUSH2 0x8C5 SWAP2 SWAP1 PUSH2 0xE32 JUMP JUMPDEST SWAP3 POP POP DUP2 SWAP1 SSTORE POP PUSH1 0x1 DUP1 PUSH0 CALLER PUSH20 0xFFFFFFFFFFFFFFFFFFFFFFFFFFFFFFFFFFFFFFFF AND PUSH20 0xFFFFFFFFFFFFFFFFFFFFFFFFFFFFFFFFFFFFFFFF AND DUP2 MSTORE PUSH1 0x20 ADD SWAP1 DUP2 MSTORE PUSH1 0x20 ADD PUSH0 KECCAK256 PUSH0 PUSH2 0x100 EXP DUP2 SLOAD DUP2 PUSH1 0xFF MUL NOT AND SWAP1 DUP4 ISZERO ISZERO MUL OR SWAP1 SSTORE POP DUP2 PUSH20 0xFFFFFFFFFFFFFFFFFFFFFFFFFFFFFFFFFFFFFFFF AND CALLER PUSH20 0xFFFFFFFFFFFFFFFFFFFFFFFFFFFFFFFFFFFFFFFF AND PUSH32 0xB82E8EC75B966E34B483311327FA5FA31C11C92095CD0A42E067394ECE4E8A0F DUP4 PUSH1 0x40 MLOAD PUSH2 0x97D SWAP2 SWAP1 PUSH2 0xB47 JUMP JUMPDEST PUSH1 0x40 MLOAD DUP1 SWAP2 SUB SWAP1 LOG3 PUSH0 PUSH0 DUP4 PUSH20 0xFFFFFFFFFFFFFFFFFFFFFFFFFFFFFFFFFFFFFFFF AND DUP4 PUSH1 0x40 MLOAD PUSH2 0x9AB SWAP1 PUSH2 0xD43 JUMP JUMPDEST PUSH0 PUSH1 0x40 MLOAD DUP1 DUP4 SUB DUP2 DUP6 DUP8 GAS CALL SWAP3 POP POP POP RETURNDATASIZE DUP1 PUSH0 DUP2 EQ PUSH2 0x9E5 JUMPI PUSH1 0x40 MLOAD SWAP2 POP PUSH1 0x1F NOT PUSH1 0x3F RETURNDATASIZE ADD AND DUP3 ADD PUSH1 0x40 MSTORE RETURNDATASIZE DUP3 MSTORE RETURNDATASIZE PUSH0 PUSH1 0x20 DUP5 ADD RETURNDATACOPY PUSH2 0x9EA JUMP JUMPDEST PUSH1 0x60 SWAP2 POP JUMPDEST POP SWAP2 POP SWAP2 POP PUSH32 0x58CA563C963D38068899A617772B6AD1322E8201814B5A73F3E628F09A21E0C2 DUP3 DUP3 PUSH1 0x40 MLOAD PUSH2 0xA20 SWAP3 SWAP2 SWAP1 PUSH2 0x1092 JUMP JUMPDEST PUSH1 0x40 MLOAD DUP1 SWAP2 SUB SWAP1 LOG1 POP POP POP POP JUMP JUMPDEST PUSH1 0x60 PUSH1 0x44 DUP3 MLOAD LT ISZERO PUSH2 0xA77 JUMPI PUSH1 0x40 MLOAD DUP1 PUSH1 0x40 ADD PUSH1 0x40 MSTORE DUP1 PUSH1 0x1D DUP2 MSTORE PUSH1 0x20 ADD PUSH32 0x5472616E73616374696F6E2072657665727465642073696C656E746C79000000 DUP2 MSTORE POP SWAP1 POP PUSH2 0xA94 JUMP JUMPDEST PUSH1 0x4 DUP3 ADD SWAP2 POP DUP2 DUP1 PUSH1 0x20 ADD SWAP1 MLOAD DUP2 ADD SWAP1 PUSH2 0xA91 SWAP2 SWAP1 PUSH2 0x1180 JUMP JUMPDEST SWAP1 POP JUMPDEST SWAP2 SWAP1 POP JUMP JUMPDEST PUSH0 PUSH1 0x40 MLOAD SWAP1 POP SWAP1 JUMP JUMPDEST PUSH0 PUSH0 REVERT JUMPDEST PUSH0 PUSH0 REVERT JUMPDEST PUSH0 PUSH20 0xFFFFFFFFFFFFFFFFFFFFFFFFFFFFFFFFFFFFFFFF DUP3 AND SWAP1 POP SWAP2 SWAP1 POP JUMP JUMPDEST PUSH0 PUSH2 0xAD3 DUP3 PUSH2 0xAAA JUMP JUMPDEST SWAP1 POP SWAP2 SWAP1 POP JUMP JUMPDEST PUSH2 0xAE3 DUP2 PUSH2 0xAC9 JUMP JUMPDEST DUP2 EQ PUSH2 0xAED JUMPI PUSH0 PUSH0 REVERT JUMPDEST POP JUMP JUMPDEST PUSH0 DUP2 CALLDATALOAD SWAP1 POP PUSH2 0xAFE DUP2 PUSH2 0xADA JUMP JUMPDEST SWAP3 SWAP2 POP POP JUMP JUMPDEST PUSH0 PUSH1 0x20 DUP3 DUP5 SUB SLT ISZERO PUSH2 0xB19 JUMPI PUSH2 0xB18 PUSH2 0xAA2 JUMP JUMPDEST JUMPDEST PUSH0 PUSH2 0xB26 DUP5 DUP3 DUP6 ADD PUSH2 0xAF0 JUMP JUMPDEST SWAP2 POP POP SWAP3 SWAP2 POP POP JUMP JUMPDEST PUSH0 DUP2 SWAP1 POP SWAP2 SWAP1 POP JUMP JUMPDEST PUSH2 0xB41 DUP2 PUSH2 0xB2F JUMP JUMPDEST DUP3 MSTORE POP POP JUMP JUMPDEST PUSH0 PUSH1 0x20 DUP3 ADD SWAP1 POP PUSH2 0xB5A PUSH0 DUP4 ADD DUP5 PUSH2 0xB38 JUMP JUMPDEST SWAP3 SWAP2 POP POP JUMP JUMPDEST PUSH0 PUSH2 0xB6A DUP3 PUSH2 0xAAA JUMP JUMPDEST SWAP1 POP SWAP2 SWAP1 POP JUMP JUMPDEST PUSH2 0xB7A DUP2 PUSH2 0xB60 JUMP JUMPDEST DUP2 EQ PUSH2 0xB84 JUMPI PUSH0 PUSH0 REVERT JUMPDEST POP JUMP JUMPDEST PUSH0 DUP2 CALLDATALOAD SWAP1 POP PUSH2 0xB95 DUP2 PUSH2 0xB71 JUMP JUMPDEST SWAP3 SWAP2 POP POP JUMP JUMPDEST PUSH2 0xBA4 DUP2 PUSH2 0xB2F JUMP JUMPDEST DUP2 EQ PUSH2 0xBAE JUMPI PUSH0 PUSH0 REVERT JUMPDEST POP JUMP JUMPDEST PUSH0 DUP2 CALLDATALOAD SWAP1 POP PUSH2 0xBBF DUP2 PUSH2 0xB9B JUMP JUMPDEST SWAP3 SWAP2 POP POP JUMP JUMPDEST PUSH0 PUSH0 PUSH1 0x40 DUP4 DUP6 SUB SLT ISZERO PUSH2 0xBDB JUMPI PUSH2 0xBDA PUSH2 0xAA2 JUMP JUMPDEST JUMPDEST PUSH0 PUSH2 0xBE8 DUP6 DUP3 DUP7 ADD PUSH2 0xB87 JUMP JUMPDEST SWAP3 POP POP PUSH1 0x20 PUSH2 0xBF9 DUP6 DUP3 DUP7 ADD PUSH2 0xBB1 JUMP JUMPDEST SWAP2 POP POP SWAP3 POP SWAP3 SWAP1 POP JUMP JUMPDEST PUSH0 DUP2 ISZERO ISZERO SWAP1 POP SWAP2 SWAP1 POP JUMP JUMPDEST PUSH2 0xC17 DUP2 PUSH2 0xC03 JUMP JUMPDEST DUP3 MSTORE POP POP JUMP JUMPDEST PUSH0 PUSH1 0x20 DUP3 ADD SWAP1 POP PUSH2 0xC30 PUSH0 DUP4 ADD DUP5 PUSH2 0xC0E JUMP JUMPDEST SWAP3 SWAP2 POP POP JUMP JUMPDEST PUSH2 0xC3F DUP2 PUSH2 0xC03 JUMP JUMPDEST DUP2 EQ PUSH2 0xC49 JUMPI PUSH0 PUSH0 REVERT JUMPDEST POP JUMP JUMPDEST PUSH0 DUP2 CALLDATALOAD SWAP1 POP PUSH2 0xC5A DUP2 PUSH2 0xC36 JUMP JUMPDEST SWAP3 SWAP2 POP POP JUMP JUMPDEST PUSH0 PUSH0 PUSH1 0x40 DUP4 DUP6 SUB SLT ISZERO PUSH2 0xC76 JUMPI PUSH2 0xC75 PUSH2 0xAA2 JUMP JUMPDEST JUMPDEST PUSH0 PUSH2 0xC83 DUP6 DUP3 DUP7 ADD PUSH2 0xAF0 JUMP JUMPDEST SWAP3 POP POP PUSH1 0x20 PUSH2 0xC94 DUP6 DUP3 DUP7 ADD PUSH2 0xC4C JUMP JUMPDEST SWAP2 POP POP SWAP3 POP SWAP3 SWAP1 POP JUMP JUMPDEST PUSH0 DUP3 DUP3 MSTORE PUSH1 0x20 DUP3 ADD SWAP1 POP SWAP3 SWAP2 POP POP JUMP JUMPDEST PUSH32 0x496E73756666696369656E742062616C616E6365000000000000000000000000 PUSH0 DUP3 ADD MSTORE POP JUMP JUMPDEST PUSH0 PUSH2 0xCE2 PUSH1 0x14 DUP4 PUSH2 0xC9E JUMP JUMPDEST SWAP2 POP PUSH2 0xCED DUP3 PUSH2 0xCAE JUMP JUMPDEST PUSH1 0x20 DUP3 ADD SWAP1 POP SWAP2 SWAP1 POP JUMP JUMPDEST PUSH0 PUSH1 0x20 DUP3 ADD SWAP1 POP DUP2 DUP2 SUB PUSH0 DUP4 ADD MSTORE PUSH2 0xD0F DUP2 PUSH2 0xCD6 JUMP JUMPDEST SWAP1 POP SWAP2 SWAP1 POP JUMP JUMPDEST PUSH0 DUP2 SWAP1 POP SWAP3 SWAP2 POP POP JUMP JUMPDEST POP JUMP JUMPDEST PUSH0 PUSH2 0xD2E PUSH0 DUP4 PUSH2 0xD16 JUMP JUMPDEST SWAP2 POP PUSH2 0xD39 DUP3 PUSH2 0xD20 JUMP JUMPDEST PUSH0 DUP3 ADD SWAP1 POP SWAP2 SWAP1 POP JUMP JUMPDEST PUSH0 PUSH2 0xD4D DUP3 PUSH2 0xD23 JUMP JUMPDEST SWAP2 POP DUP2 SWAP1 POP SWAP2 SWAP1 POP JUMP JUMPDEST PUSH0 DUP2 MLOAD SWAP1 POP SWAP2 SWAP1 POP JUMP JUMPDEST DUP3 DUP2 DUP4 MCOPY PUSH0 DUP4 DUP4 ADD MSTORE POP POP POP JUMP JUMPDEST PUSH0 PUSH1 0x1F NOT PUSH1 0x1F DUP4 ADD AND SWAP1 POP SWAP2 SWAP1 POP JUMP JUMPDEST PUSH0 PUSH2 0xD89 DUP3 PUSH2 0xD57 JUMP JUMPDEST PUSH2 0xD93 DUP2 DUP6 PUSH2 0xC9E JUMP JUMPDEST SWAP4 POP PUSH2 0xDA3 DUP2 DUP6 PUSH1 0x20 DUP7 ADD PUSH2 0xD61 JUMP JUMPDEST PUSH2 0xDAC DUP2 PUSH2 0xD6F JUMP JUMPDEST DUP5 ADD SWAP2 POP POP SWAP3 SWAP2 POP POP JUMP JUMPDEST PUSH0 PUSH1 0x40 DUP3 ADD SWAP1 POP PUSH2 0xDCA PUSH0 DUP4 ADD DUP6 PUSH2 0xB38 JUMP JUMPDEST DUP2 DUP2 SUB PUSH1 0x20 DUP4 ADD MSTORE PUSH2 0xDDC DUP2 DUP5 PUSH2 0xD7F JUMP JUMPDEST SWAP1 POP SWAP4 SWAP3 POP POP POP JUMP JUMPDEST PUSH0 PUSH1 0x20 DUP3 ADD SWAP1 POP DUP2 DUP2 SUB PUSH0 DUP4 ADD MSTORE PUSH2 0xDFD DUP2 DUP5 PUSH2 0xD7F JUMP JUMPDEST SWAP1 POP SWAP3 SWAP2 POP POP JUMP JUMPDEST PUSH32 0x4E487B7100000000000000000000000000000000000000000000000000000000 PUSH0 MSTORE PUSH1 0x11 PUSH1 0x4 MSTORE PUSH1 0x24 PUSH0 REVERT JUMPDEST PUSH0 PUSH2 0xE3C DUP3 PUSH2 0xB2F JUMP JUMPDEST SWAP2 POP PUSH2 0xE47 DUP4 PUSH2 0xB2F JUMP JUMPDEST SWAP3 POP DUP3 DUP3 SUB SWAP1 POP DUP2 DUP2 GT ISZERO PUSH2 0xE5F JUMPI PUSH2 0xE5E PUSH2 0xE05 JUMP JUMPDEST JUMPDEST SWAP3 SWAP2 POP POP JUMP JUMPDEST PUSH0 DUP2 PUSH1 0xE0 SHR SWAP1 POP SWAP2 SWAP1 POP JUMP JUMPDEST PUSH0 PUSH1 0x3 RETURNDATASIZE GT ISZERO PUSH2 0xE8D JUMPI PUSH1 0x4 PUSH0 PUSH0 RETURNDATACOPY PUSH2 0xE8A PUSH0 MLOAD PUSH2 0xE65 JUMP JUMPDEST SWAP1 POP JUMPDEST SWAP1 JUMP JUMPDEST PUSH32 0x4E487B7100000000000000000000000000000000000000000000000000000000 PUSH0 MSTORE PUSH1 0x41 PUSH1 0x4 MSTORE PUSH1 0x24 PUSH0 REVERT JUMPDEST PUSH2 0xEC6 DUP3 PUSH2 0xD6F JUMP JUMPDEST DUP2 ADD DUP2 DUP2 LT PUSH8 0xFFFFFFFFFFFFFFFF DUP3 GT OR ISZERO PUSH2 0xEE5 JUMPI PUSH2 0xEE4 PUSH2 0xE90 JUMP JUMPDEST JUMPDEST DUP1 PUSH1 0x40 MSTORE POP POP POP JUMP JUMPDEST PUSH0 PUSH1 0x44 RETURNDATASIZE LT PUSH2 0xF7A JUMPI PUSH2 0xEFF PUSH2 0xA99 JUMP JUMPDEST PUSH1 0x4 RETURNDATASIZE SUB PUSH1 0x4 DUP3 RETURNDATACOPY DUP1 MLOAD RETURNDATASIZE PUSH1 0x24 DUP3 ADD GT PUSH8 0xFFFFFFFFFFFFFFFF DUP3 GT OR ISZERO PUSH2 0xF27 JUMPI POP POP PUSH2 0xF7A JUMP JUMPDEST DUP1 DUP3 ADD DUP1 MLOAD PUSH8 0xFFFFFFFFFFFFFFFF DUP2 GT ISZERO PUSH2 0xF45 JUMPI POP POP POP POP PUSH2 0xF7A JUMP JUMPDEST DUP1 PUSH1 0x20 DUP4 ADD ADD PUSH1 0x4 RETURNDATASIZE SUB DUP6 ADD DUP2 GT ISZERO PUSH2 0xF62 JUMPI POP POP POP POP POP PUSH2 0xF7A JUMP JUMPDEST PUSH2 0xF71 DUP3 PUSH1 0x20 ADD DUP6 ADD DUP7 PUSH2 0xEBD JUMP JUMPDEST DUP3 SWAP6 POP POP POP POP POP POP JUMPDEST SWAP1 JUMP JUMPDEST PUSH32 0x556E6B6E6F776E206661696C7572650000000000000000000000000000000000 PUSH0 DUP3 ADD MSTORE POP JUMP JUMPDEST PUSH0 PUSH2 0xFB1 PUSH1 0xF DUP4 PUSH2 0xC9E JUMP JUMPDEST SWAP2 POP PUSH2 0xFBC DUP3 PUSH2 0xF7D JUMP JUMPDEST PUSH1 0x20 DUP3 ADD SWAP1 POP SWAP2 SWAP1 POP JUMP JUMPDEST PUSH0 PUSH1 0x20 DUP3 ADD SWAP1 POP DUP2 DUP2 SUB PUSH0 DUP4 ADD MSTORE PUSH2 0xFDE DUP2 PUSH2 0xFA5 JUMP JUMPDEST SWAP1 POP SWAP2 SWAP1 POP JUMP JUMPDEST PUSH2 0xFEE DUP2 PUSH2 0xAC9 JUMP JUMPDEST DUP3 MSTORE POP POP JUMP JUMPDEST PUSH0 PUSH1 0x20 DUP3 ADD SWAP1 POP PUSH2 0x1007 PUSH0 DUP4 ADD DUP5 PUSH2 0xFE5 JUMP JUMPDEST SWAP3 SWAP2 POP POP JUMP JUMPDEST PUSH0 PUSH2 0x1017 DUP3 PUSH2 0xB2F JUMP JUMPDEST SWAP2 POP PUSH2 0x1022 DUP4 PUSH2 0xB2F JUMP JUMPDEST SWAP3 POP DUP3 DUP3 ADD SWAP1 POP DUP1 DUP3 GT ISZERO PUSH2 0x103A JUMPI PUSH2 0x1039 PUSH2 0xE05 JUMP JUMPDEST JUMPDEST SWAP3 SWAP2 POP POP JUMP JUMPDEST PUSH0 DUP2 MLOAD SWAP1 POP SWAP2 SWAP1 POP JUMP JUMPDEST PUSH0 DUP3 DUP3 MSTORE PUSH1 0x20 DUP3 ADD SWAP1 POP SWAP3 SWAP2 POP POP JUMP JUMPDEST PUSH0 PUSH2 0x1064 DUP3 PUSH2 0x1040 JUMP JUMPDEST PUSH2 0x106E DUP2 DUP6 PUSH2 0x104A JUMP JUMPDEST SWAP4 POP PUSH2 0x107E DUP2 DUP6 PUSH1 0x20 DUP7 ADD PUSH2 0xD61 JUMP JUMPDEST PUSH2 0x1087 DUP2 PUSH2 0xD6F JUMP JUMPDEST DUP5 ADD SWAP2 POP POP SWAP3 SWAP2 POP POP JUMP JUMPDEST PUSH0 PUSH1 0x40 DUP3 ADD SWAP1 POP PUSH2 0x10A5 PUSH0 DUP4 ADD DUP6 PUSH2 0xC0E JUMP JUMPDEST DUP2 DUP2 SUB PUSH1 0x20 DUP4 ADD MSTORE PUSH2 0x10B7 DUP2 DUP5 PUSH2 0x105A JUMP JUMPDEST SWAP1 POP SWAP4 SWAP3 POP POP POP JUMP JUMPDEST PUSH0 PUSH0 REVERT JUMPDEST PUSH0 PUSH0 REVERT JUMPDEST PUSH0 PUSH2 0x10D1 PUSH2 0xA99 JUMP JUMPDEST SWAP1 POP PUSH2 0x10DD DUP3 DUP3 PUSH2 0xEBD JUMP JUMPDEST SWAP2 SWAP1 POP JUMP JUMPDEST PUSH0 PUSH8 0xFFFFFFFFFFFFFFFF DUP3 GT ISZERO PUSH2 0x10FC JUMPI PUSH2 0x10FB PUSH2 0xE90 JUMP JUMPDEST JUMPDEST PUSH2 0x1105 DUP3 PUSH2 0xD6F JUMP JUMPDEST SWAP1 POP PUSH1 0x20 DUP2 ADD SWAP1 POP SWAP2 SWAP1 POP JUMP JUMPDEST PUSH0 PUSH2 0x1124 PUSH2 0x111F DUP5 PUSH2 0x10E2 JUMP JUMPDEST PUSH2 0x10C8 JUMP JUMPDEST SWAP1 POP DUP3 DUP2 MSTORE PUSH1 0x20 DUP2 ADD DUP5 DUP5 DUP5 ADD GT ISZERO PUSH2 0x1140 JUMPI PUSH2 0x113F PUSH2 0x10C4 JUMP JUMPDEST JUMPDEST PUSH2 0x114B DUP5 DUP3 DUP6 PUSH2 0xD61 JUMP JUMPDEST POP SWAP4 SWAP3 POP POP POP JUMP JUMPDEST PUSH0 DUP3 PUSH1 0x1F DUP4 ADD SLT PUSH2 0x1167 JUMPI PUSH2 0x1166 PUSH2 0x10C0 JUMP JUMPDEST JUMPDEST DUP2 MLOAD PUSH2 0x1177 DUP5 DUP3 PUSH1 0x20 DUP7 ADD PUSH2 0x1112 JUMP JUMPDEST SWAP2 POP POP SWAP3 SWAP2 POP POP JUMP JUMPDEST PUSH0 PUSH1 0x20 DUP3 DUP5 SUB SLT ISZERO PUSH2 0x1195 JUMPI PUSH2 0x1194 PUSH2 0xAA2 JUMP JUMPDEST JUMPDEST PUSH0 DUP3 ADD MLOAD PUSH8 0xFFFFFFFFFFFFFFFF DUP2 GT ISZERO PUSH2 0x11B2 JUMPI PUSH2 0x11B1 PUSH2 0xAA6 JUMP JUMPDEST JUMPDEST PUSH2 0x11BE DUP5 DUP3 DUP6 ADD PUSH2 0x1153 JUMP JUMPDEST SWAP2 POP POP SWAP3 SWAP2 POP POP JUMP INVALID LOG2 PUSH5 0x6970667358 0x22 SLT KECCAK256 SWAP5 DUP3 DUP8 PUSH28 0xE01871319C6AF66684C74CA6AC12C1E8E173C3F4C34BBBAB33869EB3 PUSH5 0x736F6C6343 STOP ADDMOD 0x22 STOP CALLER "
				},
				"gasEstimates": {
					"creation": {
						"codeDepositCost": "921000",
						"executionCost": "953",
						"totalCost": "921953"
					},
					"external": {
						"balances(address)": "2802",
						"contractBalance()": "334",
						"dangerousWithdraw(address,uint256)": "infinite",
						"deposit()": "infinite",
						"safeWithdraw(address,uint256)": "infinite",
						"testTryCatch(address,bool)": "infinite",
						"withdrawn(address)": "2878"
					},
					"internal": {
						"_getRevertMsg(bytes memory)": "infinite"
					}
				},
				"methodIdentifiers": {
					"balances(address)": "27e235e3",
					"contractBalance()": "8b7afe2e",
					"dangerousWithdraw(address,uint256)": "f9087315",
					"deposit()": "d0e30db0",
					"safeWithdraw(address,uint256)": "5058c460",
					"testTryCatch(address,bool)": "a7b9b10b",
					"withdrawn(address)": "6ef61092"
				}
			},
			"storageLayout": {
				"storage": [
					{
						"astId": 57,
						"contract": "test60.sol:CheckedVsUnchecked",
						"label": "balances",
						"offset": 0,
						"slot": "0",
						"type": "t_mapping(t_address,t_uint256)"
					},
					{
						"astId": 61,
						"contract": "test60.sol:CheckedVsUnchecked",
						"label": "withdrawn",
						"offset": 0,
						"slot": "1",
						"type": "t_mapping(t_address,t_bool)"
					}
				],
				"types": {
					"t_address": {
						"encoding": "inplace",
						"label": "address",
						"numberOfBytes": "20"
					},
					"t_bool": {
						"encoding": "inplace",
						"label": "bool",
						"numberOfBytes": "1"
					},
					"t_mapping(t_address,t_bool)": {
						"encoding": "mapping",
						"key": "t_address",
						"label": "mapping(address => bool)",
						"numberOfBytes": "32",
						"value": "t_bool"
					},
					"t_mapping(t_address,t_uint256)": {
						"encoding": "mapping",
						"key": "t_address",
						"label": "mapping(address => uint256)",
						"numberOfBytes": "32",
						"value": "t_uint256"
					},
					"t_uint256": {
						"encoding": "inplace",
						"label": "uint256",
						"numberOfBytes": "32"
					}
				}
			},
			"userdoc": {
				"kind": "user",
				"methods": {},
				"version": 1
			}
		}
	}
}