{
	"contracts/test42.sol": {
		"PremiumVault": {
			"abi": [
				{
					"inputs": [],
					"name": "admin",
					"outputs": [
						{
							"internalType": "address",
							"name": "",
							"type": "address"
						}
					],
					"stateMutability": "view",
					"type": "function"
				},
				{
					"inputs": [
						{
							"internalType": "uint256",
							"name": "_amount",
							"type": "uint256"
						}
					],
					"name": "adminFeeAdjustment",
					"outputs": [],
					"stateMutability": "nonpayable",
					"type": "function"
				},
				{
					"inputs": [],
					"name": "adminResetDeposits",
					"outputs": [],
					"stateMutability": "nonpayable",
					"type": "function"
				},
				{
					"inputs": [
						{
							"internalType": "address",
							"name": "",
							"type": "address"
						}
					],
					"name": "balances",
					"outputs": [
						{
							"internalType": "uint256",
							"name": "",
							"type": "uint256"
						}
					],
					"stateMutability": "view",
					"type": "function"
				},
				{
					"inputs": [
						{
							"internalType": "uint256",
							"name": "_amount",
							"type": "uint256"
						}
					],
					"name": "deposit",
					"outputs": [],
					"stateMutability": "nonpayable",
					"type": "function"
				},
				{
					"inputs": [
						{
							"internalType": "uint256",
							"name": "_amount",
							"type": "uint256"
						}
					],
					"name": "depositWithBonus",
					"outputs": [],
					"stateMutability": "nonpayable",
					"type": "function"
				},
				{
					"inputs": [
						{
							"internalType": "uint256",
							"name": "_amount",
							"type": "uint256"
						}
					],
					"name": "premiumDeposit",
					"outputs": [],
					"stateMutability": "nonpayable",
					"type": "function"
				},
				{
					"inputs": [
						{
							"internalType": "uint256",
							"name": "_amount",
							"type": "uint256"
						}
					],
					"name": "premiumWithdraw",
					"outputs": [],
					"stateMutability": "nonpayable",
					"type": "function"
				},
				{
					"inputs": [],
					"name": "totalDeposits",
					"outputs": [
						{
							"internalType": "uint256",
							"name": "",
							"type": "uint256"
						}
					],
					"stateMutability": "view",
					"type": "function"
				},
				{
					"inputs": [
						{
							"internalType": "uint256",
							"name": "_amount",
							"type": "uint256"
						}
					],
					"name": "withdraw",
					"outputs": [],
					"stateMutability": "nonpayable",
					"type": "function"
				}
			],
			"devdoc": {
				"kind": "dev",
				"methods": {},
				"version": 1
			},
			"evm": {
				"assembly": "    /* \"contracts/test42.sol\":18615:19484  contract PremiumVault is InternalFunctionFlow {... */\n  mstore(0x40, 0x80)\n  callvalue\n  dup1\n  iszero\n  tag_1\n  jumpi\n  revert(0x00, 0x00)\ntag_1:\n  pop\n    /* \"contracts/test42.sol\":14485:14495  msg.sender */\n  caller\n    /* \"contracts/test42.sol\":14477:14482  admin */\n  0x02\n  0x00\n    /* \"contracts/test42.sol\":14477:14495  admin = msg.sender */\n  0x0100\n  exp\n  dup2\n  sload\n  dup2\n  0xffffffffffffffffffffffffffffffffffffffff\n  mul\n  not\n  and\n  swap1\n  dup4\n  0xffffffffffffffffffffffffffffffffffffffff\n  and\n  mul\n  or\n  swap1\n  sstore\n  pop\n    /* \"contracts/test42.sol\":18615:19484  contract PremiumVault is InternalFunctionFlow {... */\n  dataSize(sub_0)\n  dup1\n  dataOffset(sub_0)\n  0x00\n  codecopy\n  0x00\n  return\nstop\n\nsub_0: assembly {\n        /* \"contracts/test42.sol\":18615:19484  contract PremiumVault is InternalFunctionFlow {... */\n      mstore(0x40, 0x80)\n      callvalue\n      dup1\n      iszero\n      tag_1\n      jumpi\n      revert(0x00, 0x00)\n    tag_1:\n      pop\n      jumpi(tag_2, lt(calldatasize, 0x04))\n      shr(0xe0, calldataload(0x00))\n      dup1\n      0xb6b55f25\n      gt\n      tag_13\n      jumpi\n      dup1\n      0xb6b55f25\n      eq\n      tag_8\n      jumpi\n      dup1\n      0xcecb4a66\n      eq\n      tag_9\n      jumpi\n      dup1\n      0xdbf04703\n      eq\n      tag_10\n      jumpi\n      dup1\n      0xe8ad8ece\n      eq\n      tag_11\n      jumpi\n      dup1\n      0xf851a440\n      eq\n      tag_12\n      jumpi\n      jump(tag_2)\n    tag_13:\n      dup1\n      0x27e235e3\n      eq\n      tag_3\n      jumpi\n      dup1\n      0x2e1a7d4d\n      eq\n      tag_4\n      jumpi\n      dup1\n      0x2f7c9ed6\n      eq\n      tag_5\n      jumpi\n      dup1\n      0x68e42325\n      eq\n      tag_6\n      jumpi\n      dup1\n      0x7d882097\n      eq\n      tag_7\n      jumpi\n    tag_2:\n      revert(0x00, 0x00)\n        /* \"contracts/test42.sol\":14334:14377  mapping(address => uint256) public balances */\n    tag_3:\n      tag_14\n      0x04\n      dup1\n      calldatasize\n      sub\n      dup2\n      add\n      swap1\n      tag_15\n      swap2\n      swap1\n      tag_16\n      jump\t// in\n    tag_15:\n      tag_17\n      jump\t// in\n    tag_14:\n      mload(0x40)\n      tag_18\n      swap2\n      swap1\n      tag_19\n      jump\t// in\n    tag_18:\n      mload(0x40)\n      dup1\n      swap2\n      sub\n      swap1\n      return\n        /* \"contracts/test42.sol\":15425:15629  function withdraw(... */\n    tag_4:\n      tag_20\n      0x04\n      dup1\n      calldatasize\n      sub\n      dup2\n      add\n      swap1\n      tag_21\n      swap2\n      swap1\n      tag_22\n      jump\t// in\n    tag_21:\n      tag_23\n      jump\t// in\n    tag_20:\n      stop\n        /* \"contracts/test42.sol\":17707:18051  function depositWithBonus(... */\n    tag_5:\n      tag_24\n      0x04\n      dup1\n      calldatasize\n      sub\n      dup2\n      add\n      swap1\n      tag_25\n      swap2\n      swap1\n      tag_22\n      jump\t// in\n    tag_25:\n      tag_26\n      jump\t// in\n    tag_24:\n      stop\n        /* \"contracts/test42.sol\":19366:19481  function adminResetDeposits()... */\n    tag_6:\n      tag_27\n      tag_28\n      jump\t// in\n    tag_27:\n      stop\n        /* \"contracts/test42.sol\":14386:14414  uint256 public totalDeposits */\n    tag_7:\n      tag_29\n      tag_30\n      jump\t// in\n    tag_29:\n      mload(0x40)\n      tag_31\n      swap2\n      swap1\n      tag_19\n      jump\t// in\n    tag_31:\n      mload(0x40)\n      dup1\n      swap2\n      sub\n      swap1\n      return\n        /* \"contracts/test42.sol\":15011:15249  function deposit(... */\n    tag_8:\n      tag_32\n      0x04\n      dup1\n      calldatasize\n      sub\n      dup2\n      add\n      swap1\n      tag_33\n      swap2\n      swap1\n      tag_22\n      jump\t// in\n    tag_33:\n      tag_34\n      jump\t// in\n    tag_32:\n      stop\n        /* \"contracts/test42.sol\":18236:18447  function adminFeeAdjustment(... */\n    tag_9:\n      tag_35\n      0x04\n      dup1\n      calldatasize\n      sub\n      dup2\n      add\n      swap1\n      tag_36\n      swap2\n      swap1\n      tag_22\n      jump\t// in\n    tag_36:\n      tag_37\n      jump\t// in\n    tag_35:\n      stop\n        /* \"contracts/test42.sol\":19016:19358  function premiumWithdraw(... */\n    tag_10:\n      tag_38\n      0x04\n      dup1\n      calldatasize\n      sub\n      dup2\n      add\n      swap1\n      tag_39\n      swap2\n      swap1\n      tag_22\n      jump\t// in\n    tag_39:\n      tag_40\n      jump\t// in\n    tag_38:\n      stop\n        /* \"contracts/test42.sol\":18670:19008  function premiumDeposit(... */\n    tag_11:\n      tag_41\n      0x04\n      dup1\n      calldatasize\n      sub\n      dup2\n      add\n      swap1\n      tag_42\n      swap2\n      swap1\n      tag_22\n      jump\t// in\n    tag_42:\n      tag_43\n      jump\t// in\n    tag_41:\n      stop\n        /* \"contracts/test42.sol\":14423:14443  address public admin */\n    tag_12:\n      tag_44\n      tag_45\n      jump\t// in\n    tag_44:\n      mload(0x40)\n      tag_46\n      swap2\n      swap1\n      tag_47\n      jump\t// in\n    tag_46:\n      mload(0x40)\n      dup1\n      swap2\n      sub\n      swap1\n      return\n        /* \"contracts/test42.sol\":14334:14377  mapping(address => uint256) public balances */\n    tag_17:\n      mstore(0x20, 0x00)\n      dup1\n      0x00\n      mstore\n      keccak256(0x00, 0x40)\n      0x00\n      swap2\n      pop\n      swap1\n      pop\n      sload\n      dup2\n      jump\t// out\n        /* \"contracts/test42.sol\":15425:15629  function withdraw(... */\n    tag_23:\n        /* \"contracts/test42.sol\":15510:15584  _withdrawBalance(... */\n      tag_49\n        /* \"contracts/test42.sol\":15541:15551  msg.sender */\n      caller\n        /* \"contracts/test42.sol\":15566:15573  _amount */\n      dup3\n        /* \"contracts/test42.sol\":15510:15526  _withdrawBalance */\n      tag_50\n        /* \"contracts/test42.sol\":15510:15584  _withdrawBalance(... */\n      jump\t// in\n    tag_49:\n        /* \"contracts/test42.sol\":15614:15621  _amount */\n      dup1\n        /* \"contracts/test42.sol\":15597:15610  totalDeposits */\n      0x01\n      0x00\n        /* \"contracts/test42.sol\":15597:15621  totalDeposits -= _amount */\n      dup3\n      dup3\n      sload\n      tag_51\n      swap2\n      swap1\n      tag_52\n      jump\t// in\n    tag_51:\n      swap3\n      pop\n      pop\n      dup2\n      swap1\n      sstore\n      pop\n        /* \"contracts/test42.sol\":15425:15629  function withdraw(... */\n      pop\n      jump\t// out\n        /* \"contracts/test42.sol\":17707:18051  function depositWithBonus(... */\n    tag_26:\n        /* \"contracts/test42.sol\":17800:17824  _validateAmount(_amount) */\n      tag_54\n        /* \"contracts/test42.sol\":17816:17823  _amount */\n      dup2\n        /* \"contracts/test42.sol\":17800:17815  _validateAmount */\n      tag_55\n        /* \"contracts/test42.sol\":17800:17824  _validateAmount(_amount) */\n      jump\t// in\n    tag_54:\n        /* \"contracts/test42.sol\":17837:17850  uint256 bonus */\n      0x00\n        /* \"contracts/test42.sol\":17866:17890  _calculateBonus(_amount) */\n      tag_56\n        /* \"contracts/test42.sol\":17882:17889  _amount */\n      dup3\n        /* \"contracts/test42.sol\":17866:17881  _calculateBonus */\n      tag_57\n        /* \"contracts/test42.sol\":17866:17890  _calculateBonus(_amount) */\n      jump\t// in\n    tag_56:\n        /* \"contracts/test42.sol\":17837:17890  uint256 bonus =... */\n      swap1\n      pop\n        /* \"contracts/test42.sol\":17903:17983  _updateBalance(... */\n      tag_58\n        /* \"contracts/test42.sol\":17932:17942  msg.sender */\n      caller\n        /* \"contracts/test42.sol\":17967:17972  bonus */\n      dup3\n        /* \"contracts/test42.sol\":17957:17964  _amount */\n      dup5\n        /* \"contracts/test42.sol\":17957:17972  _amount + bonus */\n      tag_59\n      swap2\n      swap1\n      tag_60\n      jump\t// in\n    tag_59:\n        /* \"contracts/test42.sol\":17903:17917  _updateBalance */\n      tag_61\n        /* \"contracts/test42.sol\":17903:17983  _updateBalance(... */\n      jump\t// in\n    tag_58:\n        /* \"contracts/test42.sol\":18037:18042  bonus */\n      dup1\n        /* \"contracts/test42.sol\":18027:18034  _amount */\n      dup3\n        /* \"contracts/test42.sol\":18027:18042  _amount + bonus */\n      tag_62\n      swap2\n      swap1\n      tag_60\n      jump\t// in\n    tag_62:\n        /* \"contracts/test42.sol\":17996:18009  totalDeposits */\n      0x01\n      0x00\n        /* \"contracts/test42.sol\":17996:18043  totalDeposits +=... */\n      dup3\n      dup3\n      sload\n      tag_63\n      swap2\n      swap1\n      tag_60\n      jump\t// in\n    tag_63:\n      swap3\n      pop\n      pop\n      dup2\n      swap1\n      sstore\n      pop\n        /* \"contracts/test42.sol\":17789:18051  {... */\n      pop\n        /* \"contracts/test42.sol\":17707:18051  function depositWithBonus(... */\n      pop\n      jump\t// out\n        /* \"contracts/test42.sol\":19366:19481  function adminResetDeposits()... */\n    tag_28:\n        /* \"contracts/test42.sol\":19430:19443  _checkAdmin() */\n      tag_65\n        /* \"contracts/test42.sol\":19430:19441  _checkAdmin */\n      tag_66\n        /* \"contracts/test42.sol\":19430:19443  _checkAdmin() */\n      jump\t// in\n    tag_65:\n        /* \"contracts/test42.sol\":19472:19473  0 */\n      0x00\n        /* \"contracts/test42.sol\":19456:19469  totalDeposits */\n      0x01\n        /* \"contracts/test42.sol\":19456:19473  totalDeposits = 0 */\n      dup2\n      swap1\n      sstore\n      pop\n        /* \"contracts/test42.sol\":19366:19481  function adminResetDeposits()... */\n      jump\t// out\n        /* \"contracts/test42.sol\":14386:14414  uint256 public totalDeposits */\n    tag_30:\n      sload(0x01)\n      dup2\n      jump\t// out\n        /* \"contracts/test42.sol\":15011:15249  function deposit(... */\n    tag_34:\n        /* \"contracts/test42.sol\":15095:15119  _validateAmount(_amount) */\n      tag_68\n        /* \"contracts/test42.sol\":15111:15118  _amount */\n      dup2\n        /* \"contracts/test42.sol\":15095:15110  _validateAmount */\n      tag_55\n        /* \"contracts/test42.sol\":15095:15119  _validateAmount(_amount) */\n      jump\t// in\n    tag_68:\n        /* \"contracts/test42.sol\":15132:15204  _updateBalance(... */\n      tag_69\n        /* \"contracts/test42.sol\":15161:15171  msg.sender */\n      caller\n        /* \"contracts/test42.sol\":15186:15193  _amount */\n      dup3\n        /* \"contracts/test42.sol\":15132:15146  _updateBalance */\n      tag_61\n        /* \"contracts/test42.sol\":15132:15204  _updateBalance(... */\n      jump\t// in\n    tag_69:\n        /* \"contracts/test42.sol\":15234:15241  _amount */\n      dup1\n        /* \"contracts/test42.sol\":15217:15230  totalDeposits */\n      0x01\n      0x00\n        /* \"contracts/test42.sol\":15217:15241  totalDeposits += _amount */\n      dup3\n      dup3\n      sload\n      tag_70\n      swap2\n      swap1\n      tag_60\n      jump\t// in\n    tag_70:\n      swap3\n      pop\n      pop\n      dup2\n      swap1\n      sstore\n      pop\n        /* \"contracts/test42.sol\":15011:15249  function deposit(... */\n      pop\n      jump\t// out\n        /* \"contracts/test42.sol\":18236:18447  function adminFeeAdjustment(... */\n    tag_37:\n        /* \"contracts/test42.sol\":18331:18344  _checkAdmin() */\n      tag_72\n        /* \"contracts/test42.sol\":18331:18342  _checkAdmin */\n      tag_66\n        /* \"contracts/test42.sol\":18331:18344  _checkAdmin() */\n      jump\t// in\n    tag_72:\n        /* \"contracts/test42.sol\":18357:18368  uint256 fee */\n      0x00\n        /* \"contracts/test42.sol\":18384:18406  _calculateFee(_amount) */\n      tag_73\n        /* \"contracts/test42.sol\":18398:18405  _amount */\n      dup3\n        /* \"contracts/test42.sol\":18384:18397  _calculateFee */\n      tag_74\n        /* \"contracts/test42.sol\":18384:18406  _calculateFee(_amount) */\n      jump\t// in\n    tag_73:\n        /* \"contracts/test42.sol\":18357:18406  uint256 fee =... */\n      swap1\n      pop\n        /* \"contracts/test42.sol\":18436:18439  fee */\n      dup1\n        /* \"contracts/test42.sol\":18419:18432  totalDeposits */\n      0x01\n      0x00\n        /* \"contracts/test42.sol\":18419:18439  totalDeposits -= fee */\n      dup3\n      dup3\n      sload\n      tag_75\n      swap2\n      swap1\n      tag_52\n      jump\t// in\n    tag_75:\n      swap3\n      pop\n      pop\n      dup2\n      swap1\n      sstore\n      pop\n        /* \"contracts/test42.sol\":18320:18447  {... */\n      pop\n        /* \"contracts/test42.sol\":18236:18447  function adminFeeAdjustment(... */\n      pop\n      jump\t// out\n        /* \"contracts/test42.sol\":19016:19358  function premiumWithdraw(... */\n    tag_40:\n        /* \"contracts/test42.sol\":19108:19119  uint256 fee */\n      0x00\n        /* \"contracts/test42.sol\":19135:19157  _calculateFee(_amount) */\n      tag_77\n        /* \"contracts/test42.sol\":19149:19156  _amount */\n      dup3\n        /* \"contracts/test42.sol\":19135:19148  _calculateFee */\n      tag_74\n        /* \"contracts/test42.sol\":19135:19157  _calculateFee(_amount) */\n      jump\t// in\n    tag_77:\n        /* \"contracts/test42.sol\":19108:19157  uint256 fee =... */\n      swap1\n      pop\n        /* \"contracts/test42.sol\":19170:19189  uint256 totalAmount */\n      0x00\n        /* \"contracts/test42.sol\":19215:19218  fee */\n      dup2\n        /* \"contracts/test42.sol\":19205:19212  _amount */\n      dup4\n        /* \"contracts/test42.sol\":19205:19218  _amount + fee */\n      tag_78\n      swap2\n      swap1\n      tag_60\n      jump\t// in\n    tag_78:\n        /* \"contracts/test42.sol\":19170:19218  uint256 totalAmount =... */\n      swap1\n      pop\n        /* \"contracts/test42.sol\":19231:19309  _withdrawBalance(... */\n      tag_79\n        /* \"contracts/test42.sol\":19262:19272  msg.sender */\n      caller\n        /* \"contracts/test42.sol\":19287:19298  totalAmount */\n      dup3\n        /* \"contracts/test42.sol\":19231:19247  _withdrawBalance */\n      tag_50\n        /* \"contracts/test42.sol\":19231:19309  _withdrawBalance(... */\n      jump\t// in\n    tag_79:\n        /* \"contracts/test42.sol\":19339:19350  totalAmount */\n      dup1\n        /* \"contracts/test42.sol\":19322:19335  totalDeposits */\n      0x01\n      0x00\n        /* \"contracts/test42.sol\":19322:19350  totalDeposits -= totalAmount */\n      dup3\n      dup3\n      sload\n      tag_80\n      swap2\n      swap1\n      tag_52\n      jump\t// in\n    tag_80:\n      swap3\n      pop\n      pop\n      dup2\n      swap1\n      sstore\n      pop\n        /* \"contracts/test42.sol\":19097:19358  {... */\n      pop\n      pop\n        /* \"contracts/test42.sol\":19016:19358  function premiumWithdraw(... */\n      pop\n      jump\t// out\n        /* \"contracts/test42.sol\":18670:19008  function premiumDeposit(... */\n    tag_43:\n        /* \"contracts/test42.sol\":18761:18785  _validateAmount(_amount) */\n      tag_82\n        /* \"contracts/test42.sol\":18777:18784  _amount */\n      dup2\n        /* \"contracts/test42.sol\":18761:18776  _validateAmount */\n      tag_55\n        /* \"contracts/test42.sol\":18761:18785  _validateAmount(_amount) */\n      jump\t// in\n    tag_82:\n        /* \"contracts/test42.sol\":18798:18811  uint256 bonus */\n      0x00\n        /* \"contracts/test42.sol\":18844:18847  100 */\n      0x64\n        /* \"contracts/test42.sol\":18838:18840  20 */\n      0x14\n        /* \"contracts/test42.sol\":18828:18835  _amount */\n      dup4\n        /* \"contracts/test42.sol\":18828:18840  _amount * 20 */\n      tag_83\n      swap2\n      swap1\n      tag_84\n      jump\t// in\n    tag_83:\n        /* \"contracts/test42.sol\":18827:18847  (_amount * 20) / 100 */\n      tag_85\n      swap2\n      swap1\n      tag_86\n      jump\t// in\n    tag_85:\n        /* \"contracts/test42.sol\":18798:18847  uint256 bonus =... */\n      swap1\n      pop\n        /* \"contracts/test42.sol\":18860:18940  _updateBalance(... */\n      tag_87\n        /* \"contracts/test42.sol\":18889:18899  msg.sender */\n      caller\n        /* \"contracts/test42.sol\":18924:18929  bonus */\n      dup3\n        /* \"contracts/test42.sol\":18914:18921  _amount */\n      dup5\n        /* \"contracts/test42.sol\":18914:18929  _amount + bonus */\n      tag_88\n      swap2\n      swap1\n      tag_60\n      jump\t// in\n    tag_88:\n        /* \"contracts/test42.sol\":18860:18874  _updateBalance */\n      tag_61\n        /* \"contracts/test42.sol\":18860:18940  _updateBalance(... */\n      jump\t// in\n    tag_87:\n        /* \"contracts/test42.sol\":18994:18999  bonus */\n      dup1\n        /* \"contracts/test42.sol\":18984:18991  _amount */\n      dup3\n        /* \"contracts/test42.sol\":18984:18999  _amount + bonus */\n      tag_89\n      swap2\n      swap1\n      tag_60\n      jump\t// in\n    tag_89:\n        /* \"contracts/test42.sol\":18953:18966  totalDeposits */\n      0x01\n      0x00\n        /* \"contracts/test42.sol\":18953:19000  totalDeposits +=... */\n      dup3\n      dup3\n      sload\n      tag_90\n      swap2\n      swap1\n      tag_60\n      jump\t// in\n    tag_90:\n      swap3\n      pop\n      pop\n      dup2\n      swap1\n      sstore\n      pop\n        /* \"contracts/test42.sol\":18750:19008  {... */\n      pop\n        /* \"contracts/test42.sol\":18670:19008  function premiumDeposit(... */\n      pop\n      jump\t// out\n        /* \"contracts/test42.sol\":14423:14443  address public admin */\n    tag_45:\n      0x02\n      0x00\n      swap1\n      sload\n      swap1\n      0x0100\n      exp\n      swap1\n      div\n      0xffffffffffffffffffffffffffffffffffffffff\n      and\n      dup2\n      jump\t// out\n        /* \"contracts/test42.sol\":16596:16856  function _withdrawBalance(... */\n    tag_50:\n        /* \"contracts/test42.sol\":16754:16761  _amount */\n      dup1\n        /* \"contracts/test42.sol\":16735:16743  balances */\n      0x00\n        /* \"contracts/test42.sol\":16735:16750  balances[_user] */\n      0x00\n        /* \"contracts/test42.sol\":16744:16749  _user */\n      dup5\n        /* \"contracts/test42.sol\":16735:16750  balances[_user] */\n      0xffffffffffffffffffffffffffffffffffffffff\n      and\n      0xffffffffffffffffffffffffffffffffffffffff\n      and\n      dup2\n      mstore\n      0x20\n      add\n      swap1\n      dup2\n      mstore\n      0x20\n      add\n      0x00\n      keccak256\n      sload\n        /* \"contracts/test42.sol\":16735:16761  balances[_user] >= _amount */\n      lt\n      iszero\n        /* \"contracts/test42.sol\":16713:16809  require(... */\n      tag_92\n      jumpi\n      mload(0x40)\n      0x08c379a000000000000000000000000000000000000000000000000000000000\n      dup2\n      mstore\n      0x04\n      add\n      tag_93\n      swap1\n      tag_94\n      jump\t// in\n    tag_93:\n      mload(0x40)\n      dup1\n      swap2\n      sub\n      swap1\n      revert\n    tag_92:\n        /* \"contracts/test42.sol\":16841:16848  _amount */\n      dup1\n        /* \"contracts/test42.sol\":16822:16830  balances */\n      0x00\n        /* \"contracts/test42.sol\":16822:16837  balances[_user] */\n      0x00\n        /* \"contracts/test42.sol\":16831:16836  _user */\n      dup5\n        /* \"contracts/test42.sol\":16822:16837  balances[_user] */\n      0xffffffffffffffffffffffffffffffffffffffff\n      and\n      0xffffffffffffffffffffffffffffffffffffffff\n      and\n      dup2\n      mstore\n      0x20\n      add\n      swap1\n      dup2\n      mstore\n      0x20\n      add\n      0x00\n      keccak256\n      0x00\n        /* \"contracts/test42.sol\":16822:16848  balances[_user] -= _amount */\n      dup3\n      dup3\n      sload\n      tag_95\n      swap2\n      swap1\n      tag_52\n      jump\t// in\n    tag_95:\n      swap3\n      pop\n      pop\n      dup2\n      swap1\n      sstore\n      pop\n        /* \"contracts/test42.sol\":16596:16856  function _withdrawBalance(... */\n      pop\n      pop\n      jump\t// out\n        /* \"contracts/test42.sol\":15807:16093  function _validateAmount(... */\n    tag_55:\n        /* \"contracts/test42.sol\":15945:15946  0 */\n      0x00\n        /* \"contracts/test42.sol\":15935:15942  _amount */\n      dup2\n        /* \"contracts/test42.sol\":15935:15946  _amount > 0 */\n      gt\n        /* \"contracts/test42.sol\":15913:15992  require(... */\n      tag_97\n      jumpi\n      mload(0x40)\n      0x08c379a000000000000000000000000000000000000000000000000000000000\n      dup2\n      mstore\n      0x04\n      add\n      tag_98\n      swap1\n      tag_99\n      jump\t// in\n    tag_98:\n      mload(0x40)\n      dup1\n      swap2\n      sub\n      swap1\n      revert\n    tag_97:\n        /* \"contracts/test42.sol\":16038:16041  100 */\n      0x64\n        /* \"contracts/test42.sol\":16027:16034  _amount */\n      dup2\n        /* \"contracts/test42.sol\":16027:16041  _amount <= 100 */\n      gt\n      iszero\n        /* \"contracts/test42.sol\":16005:16085  require(... */\n      tag_100\n      jumpi\n      mload(0x40)\n      0x08c379a000000000000000000000000000000000000000000000000000000000\n      dup2\n      mstore\n      0x04\n      add\n      tag_101\n      swap1\n      tag_102\n      jump\t// in\n    tag_101:\n      mload(0x40)\n      dup1\n      swap2\n      sub\n      swap1\n      revert\n    tag_100:\n        /* \"contracts/test42.sol\":15807:16093  function _validateAmount(... */\n      pop\n      jump\t// out\n        /* \"contracts/test42.sol\":17032:17200  function _calculateBonus(... */\n    tag_57:\n        /* \"contracts/test42.sol\":17140:17147  uint256 */\n      0x00\n        /* \"contracts/test42.sol\":17189:17192  100 */\n      0x64\n        /* \"contracts/test42.sol\":17183:17185  10 */\n      0x0a\n        /* \"contracts/test42.sol\":17173:17180  _amount */\n      dup4\n        /* \"contracts/test42.sol\":17173:17185  _amount * 10 */\n      tag_104\n      swap2\n      swap1\n      tag_84\n      jump\t// in\n    tag_104:\n        /* \"contracts/test42.sol\":17172:17192  (_amount * 10) / 100 */\n      tag_105\n      swap2\n      swap1\n      tag_86\n      jump\t// in\n    tag_105:\n        /* \"contracts/test42.sol\":17165:17192  return (_amount * 10) / 100 */\n      swap1\n      pop\n        /* \"contracts/test42.sol\":17032:17200  function _calculateBonus(... */\n      swap2\n      swap1\n      pop\n      jump\t// out\n        /* \"contracts/test42.sol\":16273:16422  function _updateBalance(... */\n    tag_61:\n        /* \"contracts/test42.sol\":16407:16414  _amount */\n      dup1\n        /* \"contracts/test42.sol\":16388:16396  balances */\n      0x00\n        /* \"contracts/test42.sol\":16388:16403  balances[_user] */\n      0x00\n        /* \"contracts/test42.sol\":16397:16402  _user */\n      dup5\n        /* \"contracts/test42.sol\":16388:16403  balances[_user] */\n      0xffffffffffffffffffffffffffffffffffffffff\n      and\n      0xffffffffffffffffffffffffffffffffffffffff\n      and\n      dup2\n      mstore\n      0x20\n      add\n      swap1\n      dup2\n      mstore\n      0x20\n      add\n      0x00\n      keccak256\n      0x00\n        /* \"contracts/test42.sol\":16388:16414  balances[_user] += _amount */\n      dup3\n      dup3\n      sload\n      tag_107\n      swap2\n      swap1\n      tag_60\n      jump\t// in\n    tag_107:\n      swap3\n      pop\n      pop\n      dup2\n      swap1\n      sstore\n      pop\n        /* \"contracts/test42.sol\":16273:16422  function _updateBalance(... */\n      pop\n      pop\n      jump\t// out\n        /* \"contracts/test42.sol\":14681:14838  function _checkAdmin()... */\n    tag_66:\n        /* \"contracts/test42.sol\":14788:14793  admin */\n      0x02\n      0x00\n      swap1\n      sload\n      swap1\n      0x0100\n      exp\n      swap1\n      div\n      0xffffffffffffffffffffffffffffffffffffffff\n      and\n        /* \"contracts/test42.sol\":14774:14793  msg.sender == admin */\n      0xffffffffffffffffffffffffffffffffffffffff\n      and\n        /* \"contracts/test42.sol\":14774:14784  msg.sender */\n      caller\n        /* \"contracts/test42.sol\":14774:14793  msg.sender == admin */\n      0xffffffffffffffffffffffffffffffffffffffff\n      and\n      eq\n        /* \"contracts/test42.sol\":14752:14830  require(... */\n      tag_109\n      jumpi\n      mload(0x40)\n      0x08c379a000000000000000000000000000000000000000000000000000000000\n      dup2\n      mstore\n      0x04\n      add\n      tag_110\n      swap1\n      tag_111\n      jump\t// in\n    tag_110:\n      mload(0x40)\n      dup1\n      swap2\n      sub\n      swap1\n      revert\n    tag_109:\n        /* \"contracts/test42.sol\":14681:14838  function _checkAdmin()... */\n      jump\t// out\n        /* \"contracts/test42.sol\":17374:17539  function _calculateFee(... */\n    tag_74:\n        /* \"contracts/test42.sol\":17480:17487  uint256 */\n      0x00\n        /* \"contracts/test42.sol\":17528:17531  100 */\n      0x64\n        /* \"contracts/test42.sol\":17523:17524  2 */\n      0x02\n        /* \"contracts/test42.sol\":17513:17520  _amount */\n      dup4\n        /* \"contracts/test42.sol\":17513:17524  _amount * 2 */\n      tag_113\n      swap2\n      swap1\n      tag_84\n      jump\t// in\n    tag_113:\n        /* \"contracts/test42.sol\":17512:17531  (_amount * 2) / 100 */\n      tag_114\n      swap2\n      swap1\n      tag_86\n      jump\t// in\n    tag_114:\n        /* \"contracts/test42.sol\":17505:17531  return (_amount * 2) / 100 */\n      swap1\n      pop\n        /* \"contracts/test42.sol\":17374:17539  function _calculateFee(... */\n      swap2\n      swap1\n      pop\n      jump\t// out\n        /* \"#utility.yul\":88:205   */\n    tag_116:\n        /* \"#utility.yul\":197:198   */\n      0x00\n        /* \"#utility.yul\":194:195   */\n      0x00\n        /* \"#utility.yul\":187:199   */\n      revert\n        /* \"#utility.yul\":334:460   */\n    tag_118:\n        /* \"#utility.yul\":371:378   */\n      0x00\n        /* \"#utility.yul\":411:453   */\n      0xffffffffffffffffffffffffffffffffffffffff\n        /* \"#utility.yul\":404:409   */\n      dup3\n        /* \"#utility.yul\":400:454   */\n      and\n        /* \"#utility.yul\":389:454   */\n      swap1\n      pop\n        /* \"#utility.yul\":334:460   */\n      swap2\n      swap1\n      pop\n      jump\t// out\n        /* \"#utility.yul\":466:562   */\n    tag_119:\n        /* \"#utility.yul\":503:510   */\n      0x00\n        /* \"#utility.yul\":532:556   */\n      tag_144\n        /* \"#utility.yul\":550:555   */\n      dup3\n        /* \"#utility.yul\":532:556   */\n      tag_118\n      jump\t// in\n    tag_144:\n        /* \"#utility.yul\":521:556   */\n      swap1\n      pop\n        /* \"#utility.yul\":466:562   */\n      swap2\n      swap1\n      pop\n      jump\t// out\n        /* \"#utility.yul\":568:690   */\n    tag_120:\n        /* \"#utility.yul\":641:665   */\n      tag_146\n        /* \"#utility.yul\":659:664   */\n      dup2\n        /* \"#utility.yul\":641:665   */\n      tag_119\n      jump\t// in\n    tag_146:\n        /* \"#utility.yul\":634:639   */\n      dup2\n        /* \"#utility.yul\":631:666   */\n      eq\n        /* \"#utility.yul\":621:684   */\n      tag_147\n      jumpi\n        /* \"#utility.yul\":680:681   */\n      0x00\n        /* \"#utility.yul\":677:678   */\n      0x00\n        /* \"#utility.yul\":670:682   */\n      revert\n        /* \"#utility.yul\":621:684   */\n    tag_147:\n        /* \"#utility.yul\":568:690   */\n      pop\n      jump\t// out\n        /* \"#utility.yul\":696:835   */\n    tag_121:\n        /* \"#utility.yul\":742:747   */\n      0x00\n        /* \"#utility.yul\":780:786   */\n      dup2\n        /* \"#utility.yul\":767:787   */\n      calldataload\n        /* \"#utility.yul\":758:787   */\n      swap1\n      pop\n        /* \"#utility.yul\":796:829   */\n      tag_149\n        /* \"#utility.yul\":823:828   */\n      dup2\n        /* \"#utility.yul\":796:829   */\n      tag_120\n      jump\t// in\n    tag_149:\n        /* \"#utility.yul\":696:835   */\n      swap3\n      swap2\n      pop\n      pop\n      jump\t// out\n        /* \"#utility.yul\":841:1170   */\n    tag_16:\n        /* \"#utility.yul\":900:906   */\n      0x00\n        /* \"#utility.yul\":949:951   */\n      0x20\n        /* \"#utility.yul\":937:946   */\n      dup3\n        /* \"#utility.yul\":928:935   */\n      dup5\n        /* \"#utility.yul\":924:947   */\n      sub\n        /* \"#utility.yul\":920:952   */\n      slt\n        /* \"#utility.yul\":917:1036   */\n      iszero\n      tag_151\n      jumpi\n        /* \"#utility.yul\":955:1034   */\n      tag_152\n      tag_116\n      jump\t// in\n    tag_152:\n        /* \"#utility.yul\":917:1036   */\n    tag_151:\n        /* \"#utility.yul\":1075:1076   */\n      0x00\n        /* \"#utility.yul\":1100:1153   */\n      tag_153\n        /* \"#utility.yul\":1145:1152   */\n      dup5\n        /* \"#utility.yul\":1136:1142   */\n      dup3\n        /* \"#utility.yul\":1125:1134   */\n      dup6\n        /* \"#utility.yul\":1121:1143   */\n      add\n        /* \"#utility.yul\":1100:1153   */\n      tag_121\n      jump\t// in\n    tag_153:\n        /* \"#utility.yul\":1090:1153   */\n      swap2\n      pop\n        /* \"#utility.yul\":1046:1163   */\n      pop\n        /* \"#utility.yul\":841:1170   */\n      swap3\n      swap2\n      pop\n      pop\n      jump\t// out\n        /* \"#utility.yul\":1176:1253   */\n    tag_122:\n        /* \"#utility.yul\":1213:1220   */\n      0x00\n        /* \"#utility.yul\":1242:1247   */\n      dup2\n        /* \"#utility.yul\":1231:1247   */\n      swap1\n      pop\n        /* \"#utility.yul\":1176:1253   */\n      swap2\n      swap1\n      pop\n      jump\t// out\n        /* \"#utility.yul\":1259:1377   */\n    tag_123:\n        /* \"#utility.yul\":1346:1370   */\n      tag_156\n        /* \"#utility.yul\":1364:1369   */\n      dup2\n        /* \"#utility.yul\":1346:1370   */\n      tag_122\n      jump\t// in\n    tag_156:\n        /* \"#utility.yul\":1341:1344   */\n      dup3\n        /* \"#utility.yul\":1334:1371   */\n      mstore\n        /* \"#utility.yul\":1259:1377   */\n      pop\n      pop\n      jump\t// out\n        /* \"#utility.yul\":1383:1605   */\n    tag_19:\n        /* \"#utility.yul\":1476:1480   */\n      0x00\n        /* \"#utility.yul\":1514:1516   */\n      0x20\n        /* \"#utility.yul\":1503:1512   */\n      dup3\n        /* \"#utility.yul\":1499:1517   */\n      add\n        /* \"#utility.yul\":1491:1517   */\n      swap1\n      pop\n        /* \"#utility.yul\":1527:1598   */\n      tag_158\n        /* \"#utility.yul\":1595:1596   */\n      0x00\n        /* \"#utility.yul\":1584:1593   */\n      dup4\n        /* \"#utility.yul\":1580:1597   */\n      add\n        /* \"#utility.yul\":1571:1577   */\n      dup5\n        /* \"#utility.yul\":1527:1598   */\n      tag_123\n      jump\t// in\n    tag_158:\n        /* \"#utility.yul\":1383:1605   */\n      swap3\n      swap2\n      pop\n      pop\n      jump\t// out\n        /* \"#utility.yul\":1611:1733   */\n    tag_124:\n        /* \"#utility.yul\":1684:1708   */\n      tag_160\n        /* \"#utility.yul\":1702:1707   */\n      dup2\n        /* \"#utility.yul\":1684:1708   */\n      tag_122\n      jump\t// in\n    tag_160:\n        /* \"#utility.yul\":1677:1682   */\n      dup2\n        /* \"#utility.yul\":1674:1709   */\n      eq\n        /* \"#utility.yul\":1664:1727   */\n      tag_161\n      jumpi\n        /* \"#utility.yul\":1723:1724   */\n      0x00\n        /* \"#utility.yul\":1720:1721   */\n      0x00\n        /* \"#utility.yul\":1713:1725   */\n      revert\n        /* \"#utility.yul\":1664:1727   */\n    tag_161:\n        /* \"#utility.yul\":1611:1733   */\n      pop\n      jump\t// out\n        /* \"#utility.yul\":1739:1878   */\n    tag_125:\n        /* \"#utility.yul\":1785:1790   */\n      0x00\n        /* \"#utility.yul\":1823:1829   */\n      dup2\n        /* \"#utility.yul\":1810:1830   */\n      calldataload\n        /* \"#utility.yul\":1801:1830   */\n      swap1\n      pop\n        /* \"#utility.yul\":1839:1872   */\n      tag_163\n        /* \"#utility.yul\":1866:1871   */\n      dup2\n        /* \"#utility.yul\":1839:1872   */\n      tag_124\n      jump\t// in\n    tag_163:\n        /* \"#utility.yul\":1739:1878   */\n      swap3\n      swap2\n      pop\n      pop\n      jump\t// out\n        /* \"#utility.yul\":1884:2213   */\n    tag_22:\n        /* \"#utility.yul\":1943:1949   */\n      0x00\n        /* \"#utility.yul\":1992:1994   */\n      0x20\n        /* \"#utility.yul\":1980:1989   */\n      dup3\n        /* \"#utility.yul\":1971:1978   */\n      dup5\n        /* \"#utility.yul\":1967:1990   */\n      sub\n        /* \"#utility.yul\":1963:1995   */\n      slt\n        /* \"#utility.yul\":1960:2079   */\n      iszero\n      tag_165\n      jumpi\n        /* \"#utility.yul\":1998:2077   */\n      tag_166\n      tag_116\n      jump\t// in\n    tag_166:\n        /* \"#utility.yul\":1960:2079   */\n    tag_165:\n        /* \"#utility.yul\":2118:2119   */\n      0x00\n        /* \"#utility.yul\":2143:2196   */\n      tag_167\n        /* \"#utility.yul\":2188:2195   */\n      dup5\n        /* \"#utility.yul\":2179:2185   */\n      dup3\n        /* \"#utility.yul\":2168:2177   */\n      dup6\n        /* \"#utility.yul\":2164:2186   */\n      add\n        /* \"#utility.yul\":2143:2196   */\n      tag_125\n      jump\t// in\n    tag_167:\n        /* \"#utility.yul\":2133:2196   */\n      swap2\n      pop\n        /* \"#utility.yul\":2089:2206   */\n      pop\n        /* \"#utility.yul\":1884:2213   */\n      swap3\n      swap2\n      pop\n      pop\n      jump\t// out\n        /* \"#utility.yul\":2219:2337   */\n    tag_126:\n        /* \"#utility.yul\":2306:2330   */\n      tag_169\n        /* \"#utility.yul\":2324:2329   */\n      dup2\n        /* \"#utility.yul\":2306:2330   */\n      tag_119\n      jump\t// in\n    tag_169:\n        /* \"#utility.yul\":2301:2304   */\n      dup3\n        /* \"#utility.yul\":2294:2331   */\n      mstore\n        /* \"#utility.yul\":2219:2337   */\n      pop\n      pop\n      jump\t// out\n        /* \"#utility.yul\":2343:2565   */\n    tag_47:\n        /* \"#utility.yul\":2436:2440   */\n      0x00\n        /* \"#utility.yul\":2474:2476   */\n      0x20\n        /* \"#utility.yul\":2463:2472   */\n      dup3\n        /* \"#utility.yul\":2459:2477   */\n      add\n        /* \"#utility.yul\":2451:2477   */\n      swap1\n      pop\n        /* \"#utility.yul\":2487:2558   */\n      tag_171\n        /* \"#utility.yul\":2555:2556   */\n      0x00\n        /* \"#utility.yul\":2544:2553   */\n      dup4\n        /* \"#utility.yul\":2540:2557   */\n      add\n        /* \"#utility.yul\":2531:2537   */\n      dup5\n        /* \"#utility.yul\":2487:2558   */\n      tag_126\n      jump\t// in\n    tag_171:\n        /* \"#utility.yul\":2343:2565   */\n      swap3\n      swap2\n      pop\n      pop\n      jump\t// out\n        /* \"#utility.yul\":2571:2751   */\n    tag_127:\n        /* \"#utility.yul\":2619:2696   */\n      0x4e487b7100000000000000000000000000000000000000000000000000000000\n        /* \"#utility.yul\":2616:2617   */\n      0x00\n        /* \"#utility.yul\":2609:2697   */\n      mstore\n        /* \"#utility.yul\":2716:2720   */\n      0x11\n        /* \"#utility.yul\":2713:2714   */\n      0x04\n        /* \"#utility.yul\":2706:2721   */\n      mstore\n        /* \"#utility.yul\":2740:2744   */\n      0x24\n        /* \"#utility.yul\":2737:2738   */\n      0x00\n        /* \"#utility.yul\":2730:2745   */\n      revert\n        /* \"#utility.yul\":2757:2951   */\n    tag_52:\n        /* \"#utility.yul\":2797:2801   */\n      0x00\n        /* \"#utility.yul\":2817:2837   */\n      tag_174\n        /* \"#utility.yul\":2835:2836   */\n      dup3\n        /* \"#utility.yul\":2817:2837   */\n      tag_122\n      jump\t// in\n    tag_174:\n        /* \"#utility.yul\":2812:2837   */\n      swap2\n      pop\n        /* \"#utility.yul\":2851:2871   */\n      tag_175\n        /* \"#utility.yul\":2869:2870   */\n      dup4\n        /* \"#utility.yul\":2851:2871   */\n      tag_122\n      jump\t// in\n    tag_175:\n        /* \"#utility.yul\":2846:2871   */\n      swap3\n      pop\n        /* \"#utility.yul\":2895:2896   */\n      dup3\n        /* \"#utility.yul\":2892:2893   */\n      dup3\n        /* \"#utility.yul\":2888:2897   */\n      sub\n        /* \"#utility.yul\":2880:2897   */\n      swap1\n      pop\n        /* \"#utility.yul\":2919:2920   */\n      dup2\n        /* \"#utility.yul\":2913:2917   */\n      dup2\n        /* \"#utility.yul\":2910:2921   */\n      gt\n        /* \"#utility.yul\":2907:2944   */\n      iszero\n      tag_176\n      jumpi\n        /* \"#utility.yul\":2924:2942   */\n      tag_177\n      tag_127\n      jump\t// in\n    tag_177:\n        /* \"#utility.yul\":2907:2944   */\n    tag_176:\n        /* \"#utility.yul\":2757:2951   */\n      swap3\n      swap2\n      pop\n      pop\n      jump\t// out\n        /* \"#utility.yul\":2957:3148   */\n    tag_60:\n        /* \"#utility.yul\":2997:3000   */\n      0x00\n        /* \"#utility.yul\":3016:3036   */\n      tag_179\n        /* \"#utility.yul\":3034:3035   */\n      dup3\n        /* \"#utility.yul\":3016:3036   */\n      tag_122\n      jump\t// in\n    tag_179:\n        /* \"#utility.yul\":3011:3036   */\n      swap2\n      pop\n        /* \"#utility.yul\":3050:3070   */\n      tag_180\n        /* \"#utility.yul\":3068:3069   */\n      dup4\n        /* \"#utility.yul\":3050:3070   */\n      tag_122\n      jump\t// in\n    tag_180:\n        /* \"#utility.yul\":3045:3070   */\n      swap3\n      pop\n        /* \"#utility.yul\":3093:3094   */\n      dup3\n        /* \"#utility.yul\":3090:3091   */\n      dup3\n        /* \"#utility.yul\":3086:3095   */\n      add\n        /* \"#utility.yul\":3079:3095   */\n      swap1\n      pop\n        /* \"#utility.yul\":3114:3117   */\n      dup1\n        /* \"#utility.yul\":3111:3112   */\n      dup3\n        /* \"#utility.yul\":3108:3118   */\n      gt\n        /* \"#utility.yul\":3105:3141   */\n      iszero\n      tag_181\n      jumpi\n        /* \"#utility.yul\":3121:3139   */\n      tag_182\n      tag_127\n      jump\t// in\n    tag_182:\n        /* \"#utility.yul\":3105:3141   */\n    tag_181:\n        /* \"#utility.yul\":2957:3148   */\n      swap3\n      swap2\n      pop\n      pop\n      jump\t// out\n        /* \"#utility.yul\":3154:3564   */\n    tag_84:\n        /* \"#utility.yul\":3194:3201   */\n      0x00\n        /* \"#utility.yul\":3217:3237   */\n      tag_184\n        /* \"#utility.yul\":3235:3236   */\n      dup3\n        /* \"#utility.yul\":3217:3237   */\n      tag_122\n      jump\t// in\n    tag_184:\n        /* \"#utility.yul\":3212:3237   */\n      swap2\n      pop\n        /* \"#utility.yul\":3251:3271   */\n      tag_185\n        /* \"#utility.yul\":3269:3270   */\n      dup4\n        /* \"#utility.yul\":3251:3271   */\n      tag_122\n      jump\t// in\n    tag_185:\n        /* \"#utility.yul\":3246:3271   */\n      swap3\n      pop\n        /* \"#utility.yul\":3306:3307   */\n      dup3\n        /* \"#utility.yul\":3303:3304   */\n      dup3\n        /* \"#utility.yul\":3299:3308   */\n      mul\n        /* \"#utility.yul\":3328:3358   */\n      tag_186\n        /* \"#utility.yul\":3346:3357   */\n      dup2\n        /* \"#utility.yul\":3328:3358   */\n      tag_122\n      jump\t// in\n    tag_186:\n        /* \"#utility.yul\":3317:3358   */\n      swap2\n      pop\n        /* \"#utility.yul\":3507:3508   */\n      dup3\n        /* \"#utility.yul\":3498:3505   */\n      dup3\n        /* \"#utility.yul\":3494:3509   */\n      div\n        /* \"#utility.yul\":3491:3492   */\n      dup5\n        /* \"#utility.yul\":3488:3510   */\n      eq\n        /* \"#utility.yul\":3468:3469   */\n      dup4\n        /* \"#utility.yul\":3461:3470   */\n      iszero\n        /* \"#utility.yul\":3441:3524   */\n      or\n        /* \"#utility.yul\":3418:3557   */\n      tag_187\n      jumpi\n        /* \"#utility.yul\":3537:3555   */\n      tag_188\n      tag_127\n      jump\t// in\n    tag_188:\n        /* \"#utility.yul\":3418:3557   */\n    tag_187:\n        /* \"#utility.yul\":3202:3564   */\n      pop\n        /* \"#utility.yul\":3154:3564   */\n      swap3\n      swap2\n      pop\n      pop\n      jump\t// out\n        /* \"#utility.yul\":3570:3750   */\n    tag_128:\n        /* \"#utility.yul\":3618:3695   */\n      0x4e487b7100000000000000000000000000000000000000000000000000000000\n        /* \"#utility.yul\":3615:3616   */\n      0x00\n        /* \"#utility.yul\":3608:3696   */\n      mstore\n        /* \"#utility.yul\":3715:3719   */\n      0x12\n        /* \"#utility.yul\":3712:3713   */\n      0x04\n        /* \"#utility.yul\":3705:3720   */\n      mstore\n        /* \"#utility.yul\":3739:3743   */\n      0x24\n        /* \"#utility.yul\":3736:3737   */\n      0x00\n        /* \"#utility.yul\":3729:3744   */\n      revert\n        /* \"#utility.yul\":3756:3941   */\n    tag_86:\n        /* \"#utility.yul\":3796:3797   */\n      0x00\n        /* \"#utility.yul\":3813:3833   */\n      tag_191\n        /* \"#utility.yul\":3831:3832   */\n      dup3\n        /* \"#utility.yul\":3813:3833   */\n      tag_122\n      jump\t// in\n    tag_191:\n        /* \"#utility.yul\":3808:3833   */\n      swap2\n      pop\n        /* \"#utility.yul\":3847:3867   */\n      tag_192\n        /* \"#utility.yul\":3865:3866   */\n      dup4\n        /* \"#utility.yul\":3847:3867   */\n      tag_122\n      jump\t// in\n    tag_192:\n        /* \"#utility.yul\":3842:3867   */\n      swap3\n      pop\n        /* \"#utility.yul\":3886:3887   */\n      dup3\n        /* \"#utility.yul\":3876:3911   */\n      tag_193\n      jumpi\n        /* \"#utility.yul\":3891:3909   */\n      tag_194\n      tag_128\n      jump\t// in\n    tag_194:\n        /* \"#utility.yul\":3876:3911   */\n    tag_193:\n        /* \"#utility.yul\":3933:3934   */\n      dup3\n        /* \"#utility.yul\":3930:3931   */\n      dup3\n        /* \"#utility.yul\":3926:3935   */\n      div\n        /* \"#utility.yul\":3921:3935   */\n      swap1\n      pop\n        /* \"#utility.yul\":3756:3941   */\n      swap3\n      swap2\n      pop\n      pop\n      jump\t// out\n        /* \"#utility.yul\":3947:4116   */\n    tag_129:\n        /* \"#utility.yul\":4031:4042   */\n      0x00\n        /* \"#utility.yul\":4065:4071   */\n      dup3\n        /* \"#utility.yul\":4060:4063   */\n      dup3\n        /* \"#utility.yul\":4053:4072   */\n      mstore\n        /* \"#utility.yul\":4105:4109   */\n      0x20\n        /* \"#utility.yul\":4100:4103   */\n      dup3\n        /* \"#utility.yul\":4096:4110   */\n      add\n        /* \"#utility.yul\":4081:4110   */\n      swap1\n      pop\n        /* \"#utility.yul\":3947:4116   */\n      swap3\n      swap2\n      pop\n      pop\n      jump\t// out\n        /* \"#utility.yul\":4122:4292   */\n    tag_130:\n        /* \"#utility.yul\":4262:4284   */\n      0x496e73756666696369656e742062616c616e6365000000000000000000000000\n        /* \"#utility.yul\":4258:4259   */\n      0x00\n        /* \"#utility.yul\":4250:4256   */\n      dup3\n        /* \"#utility.yul\":4246:4260   */\n      add\n        /* \"#utility.yul\":4239:4285   */\n      mstore\n        /* \"#utility.yul\":4122:4292   */\n      pop\n      jump\t// out\n        /* \"#utility.yul\":4298:4664   */\n    tag_131:\n        /* \"#utility.yul\":4440:4443   */\n      0x00\n        /* \"#utility.yul\":4461:4528   */\n      tag_198\n        /* \"#utility.yul\":4525:4527   */\n      0x14\n        /* \"#utility.yul\":4520:4523   */\n      dup4\n        /* \"#utility.yul\":4461:4528   */\n      tag_129\n      jump\t// in\n    tag_198:\n        /* \"#utility.yul\":4454:4528   */\n      swap2\n      pop\n        /* \"#utility.yul\":4537:4630   */\n      tag_199\n        /* \"#utility.yul\":4626:4629   */\n      dup3\n        /* \"#utility.yul\":4537:4630   */\n      tag_130\n      jump\t// in\n    tag_199:\n        /* \"#utility.yul\":4655:4657   */\n      0x20\n        /* \"#utility.yul\":4650:4653   */\n      dup3\n        /* \"#utility.yul\":4646:4658   */\n      add\n        /* \"#utility.yul\":4639:4658   */\n      swap1\n      pop\n        /* \"#utility.yul\":4298:4664   */\n      swap2\n      swap1\n      pop\n      jump\t// out\n        /* \"#utility.yul\":4670:5089   */\n    tag_94:\n        /* \"#utility.yul\":4836:4840   */\n      0x00\n        /* \"#utility.yul\":4874:4876   */\n      0x20\n        /* \"#utility.yul\":4863:4872   */\n      dup3\n        /* \"#utility.yul\":4859:4877   */\n      add\n        /* \"#utility.yul\":4851:4877   */\n      swap1\n      pop\n        /* \"#utility.yul\":4923:4932   */\n      dup2\n        /* \"#utility.yul\":4917:4921   */\n      dup2\n        /* \"#utility.yul\":4913:4933   */\n      sub\n        /* \"#utility.yul\":4909:4910   */\n      0x00\n        /* \"#utility.yul\":4898:4907   */\n      dup4\n        /* \"#utility.yul\":4894:4911   */\n      add\n        /* \"#utility.yul\":4887:4934   */\n      mstore\n        /* \"#utility.yul\":4951:5082   */\n      tag_201\n        /* \"#utility.yul\":5077:5081   */\n      dup2\n        /* \"#utility.yul\":4951:5082   */\n      tag_131\n      jump\t// in\n    tag_201:\n        /* \"#utility.yul\":4943:5082   */\n      swap1\n      pop\n        /* \"#utility.yul\":4670:5089   */\n      swap2\n      swap1\n      pop\n      jump\t// out\n        /* \"#utility.yul\":5095:5263   */\n    tag_132:\n        /* \"#utility.yul\":5235:5255   */\n      0x416d6f756e74206d757374206265203e20300000000000000000000000000000\n        /* \"#utility.yul\":5231:5232   */\n      0x00\n        /* \"#utility.yul\":5223:5229   */\n      dup3\n        /* \"#utility.yul\":5219:5233   */\n      add\n        /* \"#utility.yul\":5212:5256   */\n      mstore\n        /* \"#utility.yul\":5095:5263   */\n      pop\n      jump\t// out\n        /* \"#utility.yul\":5269:5635   */\n    tag_133:\n        /* \"#utility.yul\":5411:5414   */\n      0x00\n        /* \"#utility.yul\":5432:5499   */\n      tag_204\n        /* \"#utility.yul\":5496:5498   */\n      0x12\n        /* \"#utility.yul\":5491:5494   */\n      dup4\n        /* \"#utility.yul\":5432:5499   */\n      tag_129\n      jump\t// in\n    tag_204:\n        /* \"#utility.yul\":5425:5499   */\n      swap2\n      pop\n        /* \"#utility.yul\":5508:5601   */\n      tag_205\n        /* \"#utility.yul\":5597:5600   */\n      dup3\n        /* \"#utility.yul\":5508:5601   */\n      tag_132\n      jump\t// in\n    tag_205:\n        /* \"#utility.yul\":5626:5628   */\n      0x20\n        /* \"#utility.yul\":5621:5624   */\n      dup3\n        /* \"#utility.yul\":5617:5629   */\n      add\n        /* \"#utility.yul\":5610:5629   */\n      swap1\n      pop\n        /* \"#utility.yul\":5269:5635   */\n      swap2\n      swap1\n      pop\n      jump\t// out\n        /* \"#utility.yul\":5641:6060   */\n    tag_99:\n        /* \"#utility.yul\":5807:5811   */\n      0x00\n        /* \"#utility.yul\":5845:5847   */\n      0x20\n        /* \"#utility.yul\":5834:5843   */\n      dup3\n        /* \"#utility.yul\":5830:5848   */\n      add\n        /* \"#utility.yul\":5822:5848   */\n      swap1\n      pop\n        /* \"#utility.yul\":5894:5903   */\n      dup2\n        /* \"#utility.yul\":5888:5892   */\n      dup2\n        /* \"#utility.yul\":5884:5904   */\n      sub\n        /* \"#utility.yul\":5880:5881   */\n      0x00\n        /* \"#utility.yul\":5869:5878   */\n      dup4\n        /* \"#utility.yul\":5865:5882   */\n      add\n        /* \"#utility.yul\":5858:5905   */\n      mstore\n        /* \"#utility.yul\":5922:6053   */\n      tag_207\n        /* \"#utility.yul\":6048:6052   */\n      dup2\n        /* \"#utility.yul\":5922:6053   */\n      tag_133\n      jump\t// in\n    tag_207:\n        /* \"#utility.yul\":5914:6053   */\n      swap1\n      pop\n        /* \"#utility.yul\":5641:6060   */\n      swap2\n      swap1\n      pop\n      jump\t// out\n        /* \"#utility.yul\":6066:6232   */\n    tag_134:\n        /* \"#utility.yul\":6206:6224   */\n      0x416d6f756e7420746f6f206c6172676500000000000000000000000000000000\n        /* \"#utility.yul\":6202:6203   */\n      0x00\n        /* \"#utility.yul\":6194:6200   */\n      dup3\n        /* \"#utility.yul\":6190:6204   */\n      add\n        /* \"#utility.yul\":6183:6225   */\n      mstore\n        /* \"#utility.yul\":6066:6232   */\n      pop\n      jump\t// out\n        /* \"#utility.yul\":6238:6604   */\n    tag_135:\n        /* \"#utility.yul\":6380:6383   */\n      0x00\n        /* \"#utility.yul\":6401:6468   */\n      tag_210\n        /* \"#utility.yul\":6465:6467   */\n      0x10\n        /* \"#utility.yul\":6460:6463   */\n      dup4\n        /* \"#utility.yul\":6401:6468   */\n      tag_129\n      jump\t// in\n    tag_210:\n        /* \"#utility.yul\":6394:6468   */\n      swap2\n      pop\n        /* \"#utility.yul\":6477:6570   */\n      tag_211\n        /* \"#utility.yul\":6566:6569   */\n      dup3\n        /* \"#utility.yul\":6477:6570   */\n      tag_134\n      jump\t// in\n    tag_211:\n        /* \"#utility.yul\":6595:6597   */\n      0x20\n        /* \"#utility.yul\":6590:6593   */\n      dup3\n        /* \"#utility.yul\":6586:6598   */\n      add\n        /* \"#utility.yul\":6579:6598   */\n      swap1\n      pop\n        /* \"#utility.yul\":6238:6604   */\n      swap2\n      swap1\n      pop\n      jump\t// out\n        /* \"#utility.yul\":6610:7029   */\n    tag_102:\n        /* \"#utility.yul\":6776:6780   */\n      0x00\n        /* \"#utility.yul\":6814:6816   */\n      0x20\n        /* \"#utility.yul\":6803:6812   */\n      dup3\n        /* \"#utility.yul\":6799:6817   */\n      add\n        /* \"#utility.yul\":6791:6817   */\n      swap1\n      pop\n        /* \"#utility.yul\":6863:6872   */\n      dup2\n        /* \"#utility.yul\":6857:6861   */\n      dup2\n        /* \"#utility.yul\":6853:6873   */\n      sub\n        /* \"#utility.yul\":6849:6850   */\n      0x00\n        /* \"#utility.yul\":6838:6847   */\n      dup4\n        /* \"#utility.yul\":6834:6851   */\n      add\n        /* \"#utility.yul\":6827:6874   */\n      mstore\n        /* \"#utility.yul\":6891:7022   */\n      tag_213\n        /* \"#utility.yul\":7017:7021   */\n      dup2\n        /* \"#utility.yul\":6891:7022   */\n      tag_135\n      jump\t// in\n    tag_213:\n        /* \"#utility.yul\":6883:7022   */\n      swap1\n      pop\n        /* \"#utility.yul\":6610:7029   */\n      swap2\n      swap1\n      pop\n      jump\t// out\n        /* \"#utility.yul\":7035:7194   */\n    tag_136:\n        /* \"#utility.yul\":7175:7186   */\n      0x4e6f742061646d696e0000000000000000000000000000000000000000000000\n        /* \"#utility.yul\":7171:7172   */\n      0x00\n        /* \"#utility.yul\":7163:7169   */\n      dup3\n        /* \"#utility.yul\":7159:7173   */\n      add\n        /* \"#utility.yul\":7152:7187   */\n      mstore\n        /* \"#utility.yul\":7035:7194   */\n      pop\n      jump\t// out\n        /* \"#utility.yul\":7200:7565   */\n    tag_137:\n        /* \"#utility.yul\":7342:7345   */\n      0x00\n        /* \"#utility.yul\":7363:7429   */\n      tag_216\n        /* \"#utility.yul\":7427:7428   */\n      0x09\n        /* \"#utility.yul\":7422:7425   */\n      dup4\n        /* \"#utility.yul\":7363:7429   */\n      tag_129\n      jump\t// in\n    tag_216:\n        /* \"#utility.yul\":7356:7429   */\n      swap2\n      pop\n        /* \"#utility.yul\":7438:7531   */\n      tag_217\n        /* \"#utility.yul\":7527:7530   */\n      dup3\n        /* \"#utility.yul\":7438:7531   */\n      tag_136\n      jump\t// in\n    tag_217:\n        /* \"#utility.yul\":7556:7558   */\n      0x20\n        /* \"#utility.yul\":7551:7554   */\n      dup3\n        /* \"#utility.yul\":7547:7559   */\n      add\n        /* \"#utility.yul\":7540:7559   */\n      swap1\n      pop\n        /* \"#utility.yul\":7200:7565   */\n      swap2\n      swap1\n      pop\n      jump\t// out\n        /* \"#utility.yul\":7571:7990   */\n    tag_111:\n        /* \"#utility.yul\":7737:7741   */\n      0x00\n        /* \"#utility.yul\":7775:7777   */\n      0x20\n        /* \"#utility.yul\":7764:7773   */\n      dup3\n        /* \"#utility.yul\":7760:7778   */\n      add\n        /* \"#utility.yul\":7752:7778   */\n      swap1\n      pop\n        /* \"#utility.yul\":7824:7833   */\n      dup2\n        /* \"#utility.yul\":7818:7822   */\n      dup2\n        /* \"#utility.yul\":7814:7834   */\n      sub\n        /* \"#utility.yul\":7810:7811   */\n      0x00\n        /* \"#utility.yul\":7799:7808   */\n      dup4\n        /* \"#utility.yul\":7795:7812   */\n      add\n        /* \"#utility.yul\":7788:7835   */\n      mstore\n        /* \"#utility.yul\":7852:7983   */\n      tag_219\n        /* \"#utility.yul\":7978:7982   */\n      dup2\n        /* \"#utility.yul\":7852:7983   */\n      tag_137\n      jump\t// in\n    tag_219:\n        /* \"#utility.yul\":7844:7983   */\n      swap1\n      pop\n        /* \"#utility.yul\":7571:7990   */\n      swap2\n      swap1\n      pop\n      jump\t// out\n\n    auxdata: 0xa26469706673582212209e923ec1822786b165d110a0fc4974767844e65ed925ef6fcb7aa6638fca1ec864736f6c63430008220033\n}\n",
				"bytecode": {
					"linkReferences": {},
					"object": "6080604052348015600e575f5ffd5b503360025f6101000a81548173ffffffffffffffffffffffffffffffffffffffff021916908373ffffffffffffffffffffffffffffffffffffffff160217905550610a5a8061005c5f395ff3fe608060405234801561000f575f5ffd5b506004361061009c575f3560e01c8063b6b55f2511610064578063b6b55f2514610130578063cecb4a661461014c578063dbf0470314610168578063e8ad8ece14610184578063f851a440146101a05761009c565b806327e235e3146100a05780632e1a7d4d146100d05780632f7c9ed6146100ec57806368e42325146101085780637d88209714610112575b5f5ffd5b6100ba60048036038101906100b5919061066a565b6101be565b6040516100c791906106ad565b60405180910390f35b6100ea60048036038101906100e591906106f0565b6101d2565b005b610106600480360381019061010191906106f0565b6101f7565b005b610110610248565b005b61011a610259565b60405161012791906106ad565b60405180910390f35b61014a600480360381019061014591906106f0565b61025f565b005b610166600480360381019061016191906106f0565b61028d565b005b610182600480360381019061017d91906106f0565b6102bd565b005b61019e600480360381019061019991906106f0565b6102ff565b005b6101a8610360565b6040516101b5919061072a565b60405180910390f35b5f602052805f5260405f205f915090505481565b6101dc3382610385565b8060015f8282546101ed9190610770565b9250508190555050565b6102008161045a565b5f61020a826104e3565b905061022133828461021c91906107a3565b610504565b808261022d91906107a3565b60015f82825461023d91906107a3565b925050819055505050565b61025061055a565b5f600181905550565b60015481565b6102688161045a565b6102723382610504565b8060015f82825461028391906107a3565b9250508190555050565b61029561055a565b5f61029f826105eb565b90508060015f8282546102b29190610770565b925050819055505050565b5f6102c7826105eb565b90505f81836102d691906107a3565b90506102e23382610385565b8060015f8282546102f39190610770565b92505081905550505050565b6103088161045a565b5f606460148361031891906107d6565b6103229190610844565b905061033933828461033491906107a3565b610504565b808261034591906107a3565b60015f82825461035591906107a3565b925050819055505050565b60025f9054906101000a900473ffffffffffffffffffffffffffffffffffffffff1681565b805f5f8473ffffffffffffffffffffffffffffffffffffffff1673ffffffffffffffffffffffffffffffffffffffff1681526020019081526020015f20541015610404576040517f08c379a00000000000000000000000000000000000000000000000000000000081526004016103fb906108ce565b60405180910390fd5b805f5f8473ffffffffffffffffffffffffffffffffffffffff1673ffffffffffffffffffffffffffffffffffffffff1681526020019081526020015f205f82825461044f9190610770565b925050819055505050565b5f811161049c576040517f08c379a000000000000000000000000000000000000000000000000000000000815260040161049390610936565b60405180910390fd5b60648111156104e0576040517f08c379a00000000000000000000000000000000000000000000000000000000081526004016104d79061099e565b60405180910390fd5b50565b5f6064600a836104f391906107d6565b6104fd9190610844565b9050919050565b805f5f8473ffffffffffffffffffffffffffffffffffffffff1673ffffffffffffffffffffffffffffffffffffffff1681526020019081526020015f205f82825461054f91906107a3565b925050819055505050565b60025f9054906101000a900473ffffffffffffffffffffffffffffffffffffffff1673ffffffffffffffffffffffffffffffffffffffff163373ffffffffffffffffffffffffffffffffffffffff16146105e9576040517f08c379a00000000000000000000000000000000000000000000000000000000081526004016105e090610a06565b60405180910390fd5b565b5f60646002836105fb91906107d6565b6106059190610844565b9050919050565b5f5ffd5b5f73ffffffffffffffffffffffffffffffffffffffff82169050919050565b5f61063982610610565b9050919050565b6106498161062f565b8114610653575f5ffd5b50565b5f8135905061066481610640565b92915050565b5f6020828403121561067f5761067e61060c565b5b5f61068c84828501610656565b91505092915050565b5f819050919050565b6106a781610695565b82525050565b5f6020820190506106c05f83018461069e565b92915050565b6106cf81610695565b81146106d9575f5ffd5b50565b5f813590506106ea816106c6565b92915050565b5f602082840312156107055761070461060c565b5b5f610712848285016106dc565b91505092915050565b6107248161062f565b82525050565b5f60208201905061073d5f83018461071b565b92915050565b7f4e487b71000000000000000000000000000000000000000000000000000000005f52601160045260245ffd5b5f61077a82610695565b915061078583610695565b925082820390508181111561079d5761079c610743565b5b92915050565b5f6107ad82610695565b91506107b883610695565b92508282019050808211156107d0576107cf610743565b5b92915050565b5f6107e082610695565b91506107eb83610695565b92508282026107f981610695565b915082820484148315176108105761080f610743565b5b5092915050565b7f4e487b71000000000000000000000000000000000000000000000000000000005f52601260045260245ffd5b5f61084e82610695565b915061085983610695565b92508261086957610868610817565b5b828204905092915050565b5f82825260208201905092915050565b7f496e73756666696369656e742062616c616e63650000000000000000000000005f82015250565b5f6108b8601483610874565b91506108c382610884565b602082019050919050565b5f6020820190508181035f8301526108e5816108ac565b9050919050565b7f416d6f756e74206d757374206265203e203000000000000000000000000000005f82015250565b5f610920601283610874565b915061092b826108ec565b602082019050919050565b5f6020820190508181035f83015261094d81610914565b9050919050565b7f416d6f756e7420746f6f206c61726765000000000000000000000000000000005f82015250565b5f610988601083610874565b915061099382610954565b602082019050919050565b5f6020820190508181035f8301526109b58161097c565b9050919050565b7f4e6f742061646d696e00000000000000000000000000000000000000000000005f82015250565b5f6109f0600983610874565b91506109fb826109bc565b602082019050919050565b5f6020820190508181035f830152610a1d816109e4565b905091905056fea26469706673582212209e923ec1822786b165d110a0fc4974767844e65ed925ef6fcb7aa6638fca1ec864736f6c63430008220033",
					"opcodes": "PUSH1 0x80 PUSH1 0x40 MSTORE CALLVALUE DUP1 ISZERO PUSH1 0xE JUMPI PUSH0 PUSH0 REVERT JUMPDEST POP CALLER PUSH1 0x2 PUSH0 PUSH2 0x100 EXP DUP2 SLOAD DUP2 PUSH20 0xFFFFFFFFFFFFFFFFFFFFFFFFFFFFFFFFFFFFFFFF MUL NOT AND SWAP1 DUP4 PUSH20 0xFFFFFFFFFFFFFFFFFFFFFFFFFFFFFFFFFFFFFFFF AND MUL OR SWAP1 SSTORE POP PUSH2 0xA5A DUP1 PUSH2 0x5C PUSH0 CODECOPY PUSH0 RETURN INVALID PUSH1 0x80 PUSH1 0x40 MSTORE CALLVALUE DUP1 ISZERO PUSH2 0xF JUMPI PUSH0 PUSH0 REVERT JUMPDEST POP PUSH1 0x4 CALLDATASIZE LT PUSH2 0x9C JUMPI PUSH0 CALLDATALOAD PUSH1 0xE0 SHR DUP1 PUSH4 0xB6B55F25 GT PUSH2 0x64 JUMPI DUP1 PUSH4 0xB6B55F25 EQ PUSH2 0x130 JUMPI DUP1 PUSH4 0xCECB4A66 EQ PUSH2 0x14C JUMPI DUP1 PUSH4 0xDBF04703 EQ PUSH2 0x168 JUMPI DUP1 PUSH4 0xE8AD8ECE EQ PUSH2 0x184 JUMPI DUP1 PUSH4 0xF851A440 EQ PUSH2 0x1A0 JUMPI PUSH2 0x9C JUMP JUMPDEST DUP1 PUSH4 0x27E235E3 EQ PUSH2 0xA0 JUMPI DUP1 PUSH4 0x2E1A7D4D EQ PUSH2 0xD0 JUMPI DUP1 PUSH4 0x2F7C9ED6 EQ PUSH2 0xEC JUMPI DUP1 PUSH4 0x68E42325 EQ PUSH2 0x108 JUMPI DUP1 PUSH4 0x7D882097 EQ PUSH2 0x112 JUMPI JUMPDEST PUSH0 PUSH0 REVERT JUMPDEST PUSH2 0xBA PUSH1 0x4 DUP1 CALLDATASIZE SUB DUP2 ADD SWAP1 PUSH2 0xB5 SWAP2 SWAP1 PUSH2 0x66A JUMP JUMPDEST PUSH2 0x1BE JUMP JUMPDEST PUSH1 0x40 MLOAD PUSH2 0xC7 SWAP2 SWAP1 PUSH2 0x6AD JUMP JUMPDEST PUSH1 0x40 MLOAD DUP1 SWAP2 SUB SWAP1 RETURN JUMPDEST PUSH2 0xEA PUSH1 0x4 DUP1 CALLDATASIZE SUB DUP2 ADD SWAP1 PUSH2 0xE5 SWAP2 SWAP1 PUSH2 0x6F0 JUMP JUMPDEST PUSH2 0x1D2 JUMP JUMPDEST STOP JUMPDEST PUSH2 0x106 PUSH1 0x4 DUP1 CALLDATASIZE SUB DUP2 ADD SWAP1 PUSH2 0x101 SWAP2 SWAP1 PUSH2 0x6F0 JUMP JUMPDEST PUSH2 0x1F7 JUMP JUMPDEST STOP JUMPDEST PUSH2 0x110 PUSH2 0x248 JUMP JUMPDEST STOP JUMPDEST PUSH2 0x11A PUSH2 0x259 JUMP JUMPDEST PUSH1 0x40 MLOAD PUSH2 0x127 SWAP2 SWAP1 PUSH2 0x6AD JUMP JUMPDEST PUSH1 0x40 MLOAD DUP1 SWAP2 SUB SWAP1 RETURN JUMPDEST PUSH2 0x14A PUSH1 0x4 DUP1 CALLDATASIZE SUB DUP2 ADD SWAP1 PUSH2 0x145 SWAP2 SWAP1 PUSH2 0x6F0 JUMP JUMPDEST PUSH2 0x25F JUMP JUMPDEST STOP JUMPDEST PUSH2 0x166 PUSH1 0x4 DUP1 CALLDATASIZE SUB DUP2 ADD SWAP1 PUSH2 0x161 SWAP2 SWAP1 PUSH2 0x6F0 JUMP JUMPDEST PUSH2 0x28D JUMP JUMPDEST STOP JUMPDEST PUSH2 0x182 PUSH1 0x4 DUP1 CALLDATASIZE SUB DUP2 ADD SWAP1 PUSH2 0x17D SWAP2 SWAP1 PUSH2 0x6F0 JUMP JUMPDEST PUSH2 0x2BD JUMP JUMPDEST STOP JUMPDEST PUSH2 0x19E PUSH1 0x4 DUP1 CALLDATASIZE SUB DUP2 ADD SWAP1 PUSH2 0x199 SWAP2 SWAP1 PUSH2 0x6F0 JUMP JUMPDEST PUSH2 0x2FF JUMP JUMPDEST STOP JUMPDEST PUSH2 0x1A8 PUSH2 0x360 JUMP JUMPDEST PUSH1 0x40 MLOAD PUSH2 0x1B5 SWAP2 SWAP1 PUSH2 0x72A JUMP JUMPDEST PUSH1 0x40 MLOAD DUP1 SWAP2 SUB SWAP1 RETURN JUMPDEST PUSH0 PUSH1 0x20 MSTORE DUP1 PUSH0 MSTORE PUSH1 0x40 PUSH0 KECCAK256 PUSH0 SWAP2 POP SWAP1 POP SLOAD DUP2 JUMP JUMPDEST PUSH2 0x1DC CALLER DUP3 PUSH2 0x385 JUMP JUMPDEST DUP1 PUSH1 0x1 PUSH0 DUP3 DUP3 SLOAD PUSH2 0x1ED SWAP2 SWAP1 PUSH2 0x770 JUMP JUMPDEST SWAP3 POP POP DUP2 SWAP1 SSTORE POP POP JUMP JUMPDEST PUSH2 0x200 DUP2 PUSH2 0x45A JUMP JUMPDEST PUSH0 PUSH2 0x20A DUP3 PUSH2 0x4E3 JUMP JUMPDEST SWAP1 POP PUSH2 0x221 CALLER DUP3 DUP5 PUSH2 0x21C SWAP2 SWAP1 PUSH2 0x7A3 JUMP JUMPDEST PUSH2 0x504 JUMP JUMPDEST DUP1 DUP3 PUSH2 0x22D SWAP2 SWAP1 PUSH2 0x7A3 JUMP JUMPDEST PUSH1 0x1 PUSH0 DUP3 DUP3 SLOAD PUSH2 0x23D SWAP2 SWAP1 PUSH2 0x7A3 JUMP JUMPDEST SWAP3 POP POP DUP2 SWAP1 SSTORE POP POP POP JUMP JUMPDEST PUSH2 0x250 PUSH2 0x55A JUMP JUMPDEST PUSH0 PUSH1 0x1 DUP2 SWAP1 SSTORE POP JUMP JUMPDEST PUSH1 0x1 SLOAD DUP2 JUMP JUMPDEST PUSH2 0x268 DUP2 PUSH2 0x45A JUMP JUMPDEST PUSH2 0x272 CALLER DUP3 PUSH2 0x504 JUMP JUMPDEST DUP1 PUSH1 0x1 PUSH0 DUP3 DUP3 SLOAD PUSH2 0x283 SWAP2 SWAP1 PUSH2 0x7A3 JUMP JUMPDEST SWAP3 POP POP DUP2 SWAP1 SSTORE POP POP JUMP JUMPDEST PUSH2 0x295 PUSH2 0x55A JUMP JUMPDEST PUSH0 PUSH2 0x29F DUP3 PUSH2 0x5EB JUMP JUMPDEST SWAP1 POP DUP1 PUSH1 0x1 PUSH0 DUP3 DUP3 SLOAD PUSH2 0x2B2 SWAP2 SWAP1 PUSH2 0x770 JUMP JUMPDEST SWAP3 POP POP DUP2 SWAP1 SSTORE POP POP POP JUMP JUMPDEST PUSH0 PUSH2 0x2C7 DUP3 PUSH2 0x5EB JUMP JUMPDEST SWAP1 POP PUSH0 DUP2 DUP4 PUSH2 0x2D6 SWAP2 SWAP1 PUSH2 0x7A3 JUMP JUMPDEST SWAP1 POP PUSH2 0x2E2 CALLER DUP3 PUSH2 0x385 JUMP JUMPDEST DUP1 PUSH1 0x1 PUSH0 DUP3 DUP3 SLOAD PUSH2 0x2F3 SWAP2 SWAP1 PUSH2 0x770 JUMP JUMPDEST SWAP3 POP POP DUP2 SWAP1 SSTORE POP POP POP POP JUMP JUMPDEST PUSH2 0x308 DUP2 PUSH2 0x45A JUMP JUMPDEST PUSH0 PUSH1 0x64 PUSH1 0x14 DUP4 PUSH2 0x318 SWAP2 SWAP1 PUSH2 0x7D6 JUMP JUMPDEST PUSH2 0x322 SWAP2 SWAP1 PUSH2 0x844 JUMP JUMPDEST SWAP1 POP PUSH2 0x339 CALLER DUP3 DUP5 PUSH2 0x334 SWAP2 SWAP1 PUSH2 0x7A3 JUMP JUMPDEST PUSH2 0x504 JUMP JUMPDEST DUP1 DUP3 PUSH2 0x345 SWAP2 SWAP1 PUSH2 0x7A3 JUMP JUMPDEST PUSH1 0x1 PUSH0 DUP3 DUP3 SLOAD PUSH2 0x355 SWAP2 SWAP1 PUSH2 0x7A3 JUMP JUMPDEST SWAP3 POP POP DUP2 SWAP1 SSTORE POP POP POP JUMP JUMPDEST PUSH1 0x2 PUSH0 SWAP1 SLOAD SWAP1 PUSH2 0x100 EXP SWAP1 DIV PUSH20 0xFFFFFFFFFFFFFFFFFFFFFFFFFFFFFFFFFFFFFFFF AND DUP2 JUMP JUMPDEST DUP1 PUSH0 PUSH0 DUP5 PUSH20 0xFFFFFFFFFFFFFFFFFFFFFFFFFFFFFFFFFFFFFFFF AND PUSH20 0xFFFFFFFFFFFFFFFFFFFFFFFFFFFFFFFFFFFFFFFF AND DUP2 MSTORE PUSH1 0x20 ADD SWAP1 DUP2 MSTORE PUSH1 0x20 ADD PUSH0 KECCAK256 SLOAD LT ISZERO PUSH2 0x404 JUMPI PUSH1 0x40 MLOAD PUSH32 0x8C379A000000000000000000000000000000000000000000000000000000000 DUP2 MSTORE PUSH1 0x4 ADD PUSH2 0x3FB SWAP1 PUSH2 0x8CE JUMP JUMPDEST PUSH1 0x40 MLOAD DUP1 SWAP2 SUB SWAP1 REVERT JUMPDEST DUP1 PUSH0 PUSH0 DUP5 PUSH20 0xFFFFFFFFFFFFFFFFFFFFFFFFFFFFFFFFFFFFFFFF AND PUSH20 0xFFFFFFFFFFFFFFFFFFFFFFFFFFFFFFFFFFFFFFFF AND DUP2 MSTORE PUSH1 0x20 ADD SWAP1 DUP2 MSTORE PUSH1 0x20 ADD PUSH0 KECCAK256 PUSH0 DUP3 DUP3 SLOAD PUSH2 0x44F SWAP2 SWAP1 PUSH2 0x770 JUMP JUMPDEST SWAP3 POP POP DUP2 SWAP1 SSTORE POP POP POP JUMP JUMPDEST PUSH0 DUP2 GT PUSH2 0x49C JUMPI PUSH1 0x40 MLOAD PUSH32 0x8C379A000000000000000000000000000000000000000000000000000000000 DUP2 MSTORE PUSH1 0x4 ADD PUSH2 0x493 SWAP1 PUSH2 0x936 JUMP JUMPDEST PUSH1 0x40 MLOAD DUP1 SWAP2 SUB SWAP1 REVERT JUMPDEST PUSH1 0x64 DUP2 GT ISZERO PUSH2 0x4E0 JUMPI PUSH1 0x40 MLOAD PUSH32 0x8C379A000000000000000000000000000000000000000000000000000000000 DUP2 MSTORE PUSH1 0x4 ADD PUSH2 0x4D7 SWAP1 PUSH2 0x99E JUMP JUMPDEST PUSH1 0x40 MLOAD DUP1 SWAP2 SUB SWAP1 REVERT JUMPDEST POP JUMP JUMPDEST PUSH0 PUSH1 0x64 PUSH1 0xA DUP4 PUSH2 0x4F3 SWAP2 SWAP1 PUSH2 0x7D6 JUMP JUMPDEST PUSH2 0x4FD SWAP2 SWAP1 PUSH2 0x844 JUMP JUMPDEST SWAP1 POP SWAP2 SWAP1 POP JUMP JUMPDEST DUP1 PUSH0 PUSH0 DUP5 PUSH20 0xFFFFFFFFFFFFFFFFFFFFFFFFFFFFFFFFFFFFFFFF AND PUSH20 0xFFFFFFFFFFFFFFFFFFFFFFFFFFFFFFFFFFFFFFFF AND DUP2 MSTORE PUSH1 0x20 ADD SWAP1 DUP2 MSTORE PUSH1 0x20 ADD PUSH0 KECCAK256 PUSH0 DUP3 DUP3 SLOAD PUSH2 0x54F SWAP2 SWAP1 PUSH2 0x7A3 JUMP JUMPDEST SWAP3 POP POP DUP2 SWAP1 SSTORE POP POP POP JUMP JUMPDEST PUSH1 0x2 PUSH0 SWAP1 SLOAD SWAP1 PUSH2 0x100 EXP SWAP1 DIV PUSH20 0xFFFFFFFFFFFFFFFFFFFFFFFFFFFFFFFFFFFFFFFF AND PUSH20 0xFFFFFFFFFFFFFFFFFFFFFFFFFFFFFFFFFFFFFFFF AND CALLER PUSH20 0xFFFFFFFFFFFFFFFFFFFFFFFFFFFFFFFFFFFFFFFF AND EQ PUSH2 0x5E9 JUMPI PUSH1 0x40 MLOAD PUSH32 0x8C379A000000000000000000000000000000000000000000000000000000000 DUP2 MSTORE PUSH1 0x4 ADD PUSH2 0x5E0 SWAP1 PUSH2 0xA06 JUMP JUMPDEST PUSH1 0x40 MLOAD DUP1 SWAP2 SUB SWAP1 REVERT JUMPDEST JUMP JUMPDEST PUSH0 PUSH1 0x64 PUSH1 0x2 DUP4 PUSH2 0x5FB SWAP2 SWAP1 PUSH2 0x7D6 JUMP JUMPDEST PUSH2 0x605 SWAP2 SWAP1 PUSH2 0x844 JUMP JUMPDEST SWAP1 POP SWAP2 SWAP1 POP JUMP JUMPDEST PUSH0 PUSH0 REVERT JUMPDEST PUSH0 PUSH20 0xFFFFFFFFFFFFFFFFFFFFFFFFFFFFFFFFFFFFFFFF DUP3 AND SWAP1 POP SWAP2 SWAP1 POP JUMP JUMPDEST PUSH0 PUSH2 0x639 DUP3 PUSH2 0x610 JUMP JUMPDEST SWAP1 POP SWAP2 SWAP1 POP JUMP JUMPDEST PUSH2 0x649 DUP2 PUSH2 0x62F JUMP JUMPDEST DUP2 EQ PUSH2 0x653 JUMPI PUSH0 PUSH0 REVERT JUMPDEST POP JUMP JUMPDEST PUSH0 DUP2 CALLDATALOAD SWAP1 POP PUSH2 0x664 DUP2 PUSH2 0x640 JUMP JUMPDEST SWAP3 SWAP2 POP POP JUMP JUMPDEST PUSH0 PUSH1 0x20 DUP3 DUP5 SUB SLT ISZERO PUSH2 0x67F JUMPI PUSH2 0x67E PUSH2 0x60C JUMP JUMPDEST JUMPDEST PUSH0 PUSH2 0x68C DUP5 DUP3 DUP6 ADD PUSH2 0x656 JUMP JUMPDEST SWAP2 POP POP SWAP3 SWAP2 POP POP JUMP JUMPDEST PUSH0 DUP2 SWAP1 POP SWAP2 SWAP1 POP JUMP JUMPDEST PUSH2 0x6A7 DUP2 PUSH2 0x695 JUMP JUMPDEST DUP3 MSTORE POP POP JUMP JUMPDEST PUSH0 PUSH1 0x20 DUP3 ADD SWAP1 POP PUSH2 0x6C0 PUSH0 DUP4 ADD DUP5 PUSH2 0x69E JUMP JUMPDEST SWAP3 SWAP2 POP POP JUMP JUMPDEST PUSH2 0x6CF DUP2 PUSH2 0x695 JUMP JUMPDEST DUP2 EQ PUSH2 0x6D9 JUMPI PUSH0 PUSH0 REVERT JUMPDEST POP JUMP JUMPDEST PUSH0 DUP2 CALLDATALOAD SWAP1 POP PUSH2 0x6EA DUP2 PUSH2 0x6C6 JUMP JUMPDEST SWAP3 SWAP2 POP POP JUMP JUMPDEST PUSH0 PUSH1 0x20 DUP3 DUP5 SUB SLT ISZERO PUSH2 0x705 JUMPI PUSH2 0x704 PUSH2 0x60C JUMP JUMPDEST JUMPDEST PUSH0 PUSH2 0x712 DUP5 DUP3 DUP6 ADD PUSH2 0x6DC JUMP JUMPDEST SWAP2 POP POP SWAP3 SWAP2 POP POP JUMP JUMPDEST PUSH2 0x724 DUP2 PUSH2 0x62F JUMP JUMPDEST DUP3 MSTORE POP POP JUMP JUMPDEST PUSH0 PUSH1 0x20 DUP3 ADD SWAP1 POP PUSH2 0x73D PUSH0 DUP4 ADD DUP5 PUSH2 0x71B JUMP JUMPDEST SWAP3 SWAP2 POP POP JUMP JUMPDEST PUSH32 0x4E487B7100000000000000000000000000000000000000000000000000000000 PUSH0 MSTORE PUSH1 0x11 PUSH1 0x4 MSTORE PUSH1 0x24 PUSH0 REVERT JUMPDEST PUSH0 PUSH2 0x77A DUP3 PUSH2 0x695 JUMP JUMPDEST SWAP2 POP PUSH2 0x785 DUP4 PUSH2 0x695 JUMP JUMPDEST SWAP3 POP DUP3 DUP3 SUB SWAP1 POP DUP2 DUP2 GT ISZERO PUSH2 0x79D JUMPI PUSH2 0x79C PUSH2 0x743 JUMP JUMPDEST JUMPDEST SWAP3 SWAP2 POP POP JUMP JUMPDEST PUSH0 PUSH2 0x7AD DUP3 PUSH2 0x695 JUMP JUMPDEST SWAP2 POP PUSH2 0x7B8 DUP4 PUSH2 0x695 JUMP JUMPDEST SWAP3 POP DUP3 DUP3 ADD SWAP1 POP DUP1 DUP3 GT ISZERO PUSH2 0x7D0 JUMPI PUSH2 0x7CF PUSH2 0x743 JUMP JUMPDEST JUMPDEST SWAP3 SWAP2 POP POP JUMP JUMPDEST PUSH0 PUSH2 0x7E0 DUP3 PUSH2 0x695 JUMP JUMPDEST SWAP2 POP PUSH2 0x7EB DUP4 PUSH2 0x695 JUMP JUMPDEST SWAP3 POP DUP3 DUP3 MUL PUSH2 0x7F9 DUP2 PUSH2 0x695 JUMP JUMPDEST SWAP2 POP DUP3 DUP3 DIV DUP5 EQ DUP4 ISZERO OR PUSH2 0x810 JUMPI PUSH2 0x80F PUSH2 0x743 JUMP JUMPDEST JUMPDEST POP SWAP3 SWAP2 POP POP JUMP JUMPDEST PUSH32 0x4E487B7100000000000000000000000000000000000000000000000000000000 PUSH0 MSTORE PUSH1 0x12 PUSH1 0x4 MSTORE PUSH1 0x24 PUSH0 REVERT JUMPDEST PUSH0 PUSH2 0x84E DUP3 PUSH2 0x695 JUMP JUMPDEST SWAP2 POP PUSH2 0x859 DUP4 PUSH2 0x695 JUMP JUMPDEST SWAP3 POP DUP3 PUSH2 0x869 JUMPI PUSH2 0x868 PUSH2 0x817 JUMP JUMPDEST JUMPDEST DUP3 DUP3 DIV SWAP1 POP SWAP3 SWAP2 POP POP JUMP JUMPDEST PUSH0 DUP3 DUP3 MSTORE PUSH1 0x20 DUP3 ADD SWAP1 POP SWAP3 SWAP2 POP POP JUMP JUMPDEST PUSH32 0x496E73756666696369656E742062616C616E6365000000000000000000000000 PUSH0 DUP3 ADD MSTORE POP JUMP JUMPDEST PUSH0 PUSH2 0x8B8 PUSH1 0x14 DUP4 PUSH2 0x874 JUMP JUMPDEST SWAP2 POP PUSH2 0x8C3 DUP3 PUSH2 0x884 JUMP JUMPDEST PUSH1 0x20 DUP3 ADD SWAP1 POP SWAP2 SWAP1 POP JUMP JUMPDEST PUSH0 PUSH1 0x20 DUP3 ADD SWAP1 POP DUP2 DUP2 SUB PUSH0 DUP4 ADD MSTORE PUSH2 0x8E5 DUP2 PUSH2 0x8AC JUMP JUMPDEST SWAP1 POP SWAP2 SWAP1 POP JUMP JUMPDEST PUSH32 0x416D6F756E74206D757374206265203E20300000000000000000000000000000 PUSH0 DUP3 ADD MSTORE POP JUMP JUMPDEST PUSH0 PUSH2 0x920 PUSH1 0x12 DUP4 PUSH2 0x874 JUMP JUMPDEST SWAP2 POP PUSH2 0x92B DUP3 PUSH2 0x8EC JUMP JUMPDEST PUSH1 0x20 DUP3 ADD SWAP1 POP SWAP2 SWAP1 POP JUMP JUMPDEST PUSH0 PUSH1 0x20 DUP3 ADD SWAP1 POP DUP2 DUP2 SUB PUSH0 DUP4 ADD MSTORE PUSH2 0x94D DUP2 PUSH2 0x914 JUMP JUMPDEST SWAP1 POP SWAP2 SWAP1 POP JUMP JUMPDEST PUSH32 0x416D6F756E7420746F6F206C6172676500000000000000000000000000000000 PUSH0 DUP3 ADD MSTORE POP JUMP JUMPDEST PUSH0 PUSH2 0x988 PUSH1 0x10 DUP4 PUSH2 0x874 JUMP JUMPDEST SWAP2 POP PUSH2 0x993 DUP3 PUSH2 0x954 JUMP JUMPDEST PUSH1 0x20 DUP3 ADD SWAP1 POP SWAP2 SWAP1 POP JUMP JUMPDEST PUSH0 PUSH1 0x20 DUP3 ADD SWAP1 POP DUP2 DUP2 SUB PUSH0 DUP4 ADD MSTORE PUSH2 0x9B5 DUP2 PUSH2 0x97C JUMP JUMPDEST SWAP1 POP SWAP2 SWAP1 POP JUMP JUMPDEST PUSH32 0x4E6F742061646D696E0000000000000000000000000000000000000000000000 PUSH0 DUP3 ADD MSTORE POP JUMP JUMPDEST PUSH0 PUSH2 0x9F0 PUSH1 0x9 DUP4 PUSH2 0x874 JUMP JUMPDEST SWAP2 POP PUSH2 0x9FB DUP3 PUSH2 0x9BC JUMP JUMPDEST PUSH1 0x20 DUP3 ADD SWAP1 POP SWAP2 SWAP1 POP JUMP JUMPDEST PUSH0 PUSH1 0x20 DUP3 ADD SWAP1 POP DUP2 DUP2 SUB PUSH0 DUP4 ADD MSTORE PUSH2 0xA1D DUP2 PUSH2 0x9E4 JUMP JUMPDEST SWAP1 POP SWAP2 SWAP1 POP JUMP INVALID LOG2 PUSH5 0x6970667358 0x22 SLT KECCAK256 SWAP15 SWAP3 RETURNDATACOPY 0xC1 DUP3 0x27 DUP7 0xB1 PUSH6 0xD110A0FC4974 PUSH23 0x7844E65ED925EF6FCB7AA6638FCA1EC864736F6C634300 ADDMOD 0x22 STOP CALLER "
				},
				"gasEstimates": {
					"creation": {
						"codeDepositCost": "530000",
						"executionCost": "24825",
						"totalCost": "554825"
					},
					"external": {
						"admin()": "2596",
						"adminFeeAdjustment(uint256)": "infinite",
						"adminResetDeposits()": "7416",
						"balances(address)": "2802",
						"deposit(uint256)": "infinite",
						"depositWithBonus(uint256)": "infinite",
						"premiumDeposit(uint256)": "infinite",
						"premiumWithdraw(uint256)": "infinite",
						"totalDeposits()": "2514",
						"withdraw(uint256)": "infinite"
					}
				},
				"methodIdentifiers": {
					"admin()": "f851a440",
					"adminFeeAdjustment(uint256)": "cecb4a66",
					"adminResetDeposits()": "68e42325",
					"balances(address)": "27e235e3",
					"deposit(uint256)": "b6b55f25",
					"depositWithBonus(uint256)": "2f7c9ed6",
					"premiumDeposit(uint256)": "e8ad8ece",
					"premiumWithdraw(uint256)": "dbf04703",
					"totalDeposits()": "7d882097",
					"withdraw(uint256)": "2e1a7d4d"
				}
			},
			"storageLayout": {
				"storage": [
					{
						"astId": 5,
						"contract": "contracts/test42.sol:PremiumVault",
						"label": "balances",
						"offset": 0,
						"slot": "0",
						"type": "t_mapping(t_address,t_uint256)"
					},
					{
						"astId": 7,
						"contract": "contracts/test42.sol:PremiumVault",
						"label": "totalDeposits",
						"offset": 0,
						"slot": "1",
						"type": "t_uint256"
					},
					{
						"astId": 9,
						"contract": "contracts/test42.sol:PremiumVault",
						"label": "admin",
						"offset": 0,
						"slot": "2",
						"type": "t_address"
					}
				],
				"types": {
					"t_address": {
						"encoding": "inplace",
						"label": "address",
						"numberOfBytes": "20"
					},
					"t_mapping(t_address,t_uint256)": {
						"encoding": "mapping",
						"key": "t_address",
						"label": "mapping(address => uint256)",
						"numberOfBytes": "32",
						"value": "t_uint256"
					},
					"t_uint256": {
						"encoding": "inplace",
						"label": "uint256",
						"numberOfBytes": "32"
					}
				}
			},
			"userdoc": {
				"kind": "user",
				"methods": {},
				"version": 1
			}
		}
	}
}