{
	"contracts/test42.sol": {
		"InternalFunctionFlow": {
			"abi": [
				{
					"inputs": [],
					"stateMutability": "nonpayable",
					"type": "constructor"
				},
				{
					"inputs": [],
					"name": "admin",
					"outputs": [
						{
							"internalType": "address",
							"name": "",
							"type": "address"
						}
					],
					"stateMutability": "view",
					"type": "function"
				},
				{
					"inputs": [
						{
							"internalType": "uint256",
							"name": "_amount",
							"type": "uint256"
						}
					],
					"name": "adminFeeAdjustment",
					"outputs": [],
					"stateMutability": "nonpayable",
					"type": "function"
				},
				{
					"inputs": [
						{
							"internalType": "address",
							"name": "",
							"type": "address"
						}
					],
					"name": "balances",
					"outputs": [
						{
							"internalType": "uint256",
							"name": "",
							"type": "uint256"
						}
					],
					"stateMutability": "view",
					"type": "function"
				},
				{
					"inputs": [
						{
							"internalType": "uint256",
							"name": "_amount",
							"type": "uint256"
						}
					],
					"name": "deposit",
					"outputs": [],
					"stateMutability": "nonpayable",
					"type": "function"
				},
				{
					"inputs": [
						{
							"internalType": "uint256",
							"name": "_amount",
							"type": "uint256"
						}
					],
					"name": "depositWithBonus",
					"outputs": [],
					"stateMutability": "nonpayable",
					"type": "function"
				},
				{
					"inputs": [],
					"name": "totalDeposits",
					"outputs": [
						{
							"internalType": "uint256",
							"name": "",
							"type": "uint256"
						}
					],
					"stateMutability": "view",
					"type": "function"
				},
				{
					"inputs": [
						{
							"internalType": "uint256",
							"name": "_amount",
							"type": "uint256"
						}
					],
					"name": "withdraw",
					"outputs": [],
					"stateMutability": "nonpayable",
					"type": "function"
				}
			],
			"devdoc": {
				"kind": "dev",
				"methods": {},
				"version": 1
			},
			"evm": {
				"assembly": "    /* \"contracts/test42.sol\":14252:18450  contract InternalFunctionFlow {... */\n  mstore(0x40, 0x80)\n    /* \"contracts/test42.sol\":14452:14503  constructor() {... */\n  callvalue\n  dup1\n  iszero\n  tag_1\n  jumpi\n  revert(0x00, 0x00)\ntag_1:\n  pop\n    /* \"contracts/test42.sol\":14485:14495  msg.sender */\n  caller\n    /* \"contracts/test42.sol\":14477:14482  admin */\n  0x02\n  0x00\n    /* \"contracts/test42.sol\":14477:14495  admin = msg.sender */\n  0x0100\n  exp\n  dup2\n  sload\n  dup2\n  0xffffffffffffffffffffffffffffffffffffffff\n  mul\n  not\n  and\n  swap1\n  dup4\n  0xffffffffffffffffffffffffffffffffffffffff\n  and\n  mul\n  or\n  swap1\n  sstore\n  pop\n    /* \"contracts/test42.sol\":14252:18450  contract InternalFunctionFlow {... */\n  dataSize(sub_0)\n  dup1\n  dataOffset(sub_0)\n  0x00\n  codecopy\n  0x00\n  return\nstop\n\nsub_0: assembly {\n        /* \"contracts/test42.sol\":14252:18450  contract InternalFunctionFlow {... */\n      mstore(0x40, 0x80)\n      callvalue\n      dup1\n      iszero\n      tag_1\n      jumpi\n      revert(0x00, 0x00)\n    tag_1:\n      pop\n      jumpi(tag_2, lt(calldatasize, 0x04))\n      shr(0xe0, calldataload(0x00))\n      dup1\n      0x7d882097\n      gt\n      tag_10\n      jumpi\n      dup1\n      0x7d882097\n      eq\n      tag_6\n      jumpi\n      dup1\n      0xb6b55f25\n      eq\n      tag_7\n      jumpi\n      dup1\n      0xcecb4a66\n      eq\n      tag_8\n      jumpi\n      dup1\n      0xf851a440\n      eq\n      tag_9\n      jumpi\n      jump(tag_2)\n    tag_10:\n      dup1\n      0x27e235e3\n      eq\n      tag_3\n      jumpi\n      dup1\n      0x2e1a7d4d\n      eq\n      tag_4\n      jumpi\n      dup1\n      0x2f7c9ed6\n      eq\n      tag_5\n      jumpi\n    tag_2:\n      revert(0x00, 0x00)\n        /* \"contracts/test42.sol\":14334:14377  mapping(address => uint256) public balances */\n    tag_3:\n      tag_11\n      0x04\n      dup1\n      calldatasize\n      sub\n      dup2\n      add\n      swap1\n      tag_12\n      swap2\n      swap1\n      tag_13\n      jump\t// in\n    tag_12:\n      tag_14\n      jump\t// in\n    tag_11:\n      mload(0x40)\n      tag_15\n      swap2\n      swap1\n      tag_16\n      jump\t// in\n    tag_15:\n      mload(0x40)\n      dup1\n      swap2\n      sub\n      swap1\n      return\n        /* \"contracts/test42.sol\":15425:15629  function withdraw(... */\n    tag_4:\n      tag_17\n      0x04\n      dup1\n      calldatasize\n      sub\n      dup2\n      add\n      swap1\n      tag_18\n      swap2\n      swap1\n      tag_19\n      jump\t// in\n    tag_18:\n      tag_20\n      jump\t// in\n    tag_17:\n      stop\n        /* \"contracts/test42.sol\":17707:18051  function depositWithBonus(... */\n    tag_5:\n      tag_21\n      0x04\n      dup1\n      calldatasize\n      sub\n      dup2\n      add\n      swap1\n      tag_22\n      swap2\n      swap1\n      tag_19\n      jump\t// in\n    tag_22:\n      tag_23\n      jump\t// in\n    tag_21:\n      stop\n        /* \"contracts/test42.sol\":14386:14414  uint256 public totalDeposits */\n    tag_6:\n      tag_24\n      tag_25\n      jump\t// in\n    tag_24:\n      mload(0x40)\n      tag_26\n      swap2\n      swap1\n      tag_16\n      jump\t// in\n    tag_26:\n      mload(0x40)\n      dup1\n      swap2\n      sub\n      swap1\n      return\n        /* \"contracts/test42.sol\":15011:15249  function deposit(... */\n    tag_7:\n      tag_27\n      0x04\n      dup1\n      calldatasize\n      sub\n      dup2\n      add\n      swap1\n      tag_28\n      swap2\n      swap1\n      tag_19\n      jump\t// in\n    tag_28:\n      tag_29\n      jump\t// in\n    tag_27:\n      stop\n        /* \"contracts/test42.sol\":18236:18447  function adminFeeAdjustment(... */\n    tag_8:\n      tag_30\n      0x04\n      dup1\n      calldatasize\n      sub\n      dup2\n      add\n      swap1\n      tag_31\n      swap2\n      swap1\n      tag_19\n      jump\t// in\n    tag_31:\n      tag_32\n      jump\t// in\n    tag_30:\n      stop\n        /* \"contracts/test42.sol\":14423:14443  address public admin */\n    tag_9:\n      tag_33\n      tag_34\n      jump\t// in\n    tag_33:\n      mload(0x40)\n      tag_35\n      swap2\n      swap1\n      tag_36\n      jump\t// in\n    tag_35:\n      mload(0x40)\n      dup1\n      swap2\n      sub\n      swap1\n      return\n        /* \"contracts/test42.sol\":14334:14377  mapping(address => uint256) public balances */\n    tag_14:\n      mstore(0x20, 0x00)\n      dup1\n      0x00\n      mstore\n      keccak256(0x00, 0x40)\n      0x00\n      swap2\n      pop\n      swap1\n      pop\n      sload\n      dup2\n      jump\t// out\n        /* \"contracts/test42.sol\":15425:15629  function withdraw(... */\n    tag_20:\n        /* \"contracts/test42.sol\":15510:15584  _withdrawBalance(... */\n      tag_38\n        /* \"contracts/test42.sol\":15541:15551  msg.sender */\n      caller\n        /* \"contracts/test42.sol\":15566:15573  _amount */\n      dup3\n        /* \"contracts/test42.sol\":15510:15526  _withdrawBalance */\n      tag_39\n        /* \"contracts/test42.sol\":15510:15584  _withdrawBalance(... */\n      jump\t// in\n    tag_38:\n        /* \"contracts/test42.sol\":15614:15621  _amount */\n      dup1\n        /* \"contracts/test42.sol\":15597:15610  totalDeposits */\n      0x01\n      0x00\n        /* \"contracts/test42.sol\":15597:15621  totalDeposits -= _amount */\n      dup3\n      dup3\n      sload\n      tag_40\n      swap2\n      swap1\n      tag_41\n      jump\t// in\n    tag_40:\n      swap3\n      pop\n      pop\n      dup2\n      swap1\n      sstore\n      pop\n        /* \"contracts/test42.sol\":15425:15629  function withdraw(... */\n      pop\n      jump\t// out\n        /* \"contracts/test42.sol\":17707:18051  function depositWithBonus(... */\n    tag_23:\n        /* \"contracts/test42.sol\":17800:17824  _validateAmount(_amount) */\n      tag_43\n        /* \"contracts/test42.sol\":17816:17823  _amount */\n      dup2\n        /* \"contracts/test42.sol\":17800:17815  _validateAmount */\n      tag_44\n        /* \"contracts/test42.sol\":17800:17824  _validateAmount(_amount) */\n      jump\t// in\n    tag_43:\n        /* \"contracts/test42.sol\":17837:17850  uint256 bonus */\n      0x00\n        /* \"contracts/test42.sol\":17866:17890  _calculateBonus(_amount) */\n      tag_45\n        /* \"contracts/test42.sol\":17882:17889  _amount */\n      dup3\n        /* \"contracts/test42.sol\":17866:17881  _calculateBonus */\n      tag_46\n        /* \"contracts/test42.sol\":17866:17890  _calculateBonus(_amount) */\n      jump\t// in\n    tag_45:\n        /* \"contracts/test42.sol\":17837:17890  uint256 bonus =... */\n      swap1\n      pop\n        /* \"contracts/test42.sol\":17903:17983  _updateBalance(... */\n      tag_47\n        /* \"contracts/test42.sol\":17932:17942  msg.sender */\n      caller\n        /* \"contracts/test42.sol\":17967:17972  bonus */\n      dup3\n        /* \"contracts/test42.sol\":17957:17964  _amount */\n      dup5\n        /* \"contracts/test42.sol\":17957:17972  _amount + bonus */\n      tag_48\n      swap2\n      swap1\n      tag_49\n      jump\t// in\n    tag_48:\n        /* \"contracts/test42.sol\":17903:17917  _updateBalance */\n      tag_50\n        /* \"contracts/test42.sol\":17903:17983  _updateBalance(... */\n      jump\t// in\n    tag_47:\n        /* \"contracts/test42.sol\":18037:18042  bonus */\n      dup1\n        /* \"contracts/test42.sol\":18027:18034  _amount */\n      dup3\n        /* \"contracts/test42.sol\":18027:18042  _amount + bonus */\n      tag_51\n      swap2\n      swap1\n      tag_49\n      jump\t// in\n    tag_51:\n        /* \"contracts/test42.sol\":17996:18009  totalDeposits */\n      0x01\n      0x00\n        /* \"contracts/test42.sol\":17996:18043  totalDeposits +=... */\n      dup3\n      dup3\n      sload\n      tag_52\n      swap2\n      swap1\n      tag_49\n      jump\t// in\n    tag_52:\n      swap3\n      pop\n      pop\n      dup2\n      swap1\n      sstore\n      pop\n        /* \"contracts/test42.sol\":17789:18051  {... */\n      pop\n        /* \"contracts/test42.sol\":17707:18051  function depositWithBonus(... */\n      pop\n      jump\t// out\n        /* \"contracts/test42.sol\":14386:14414  uint256 public totalDeposits */\n    tag_25:\n      sload(0x01)\n      dup2\n      jump\t// out\n        /* \"contracts/test42.sol\":15011:15249  function deposit(... */\n    tag_29:\n        /* \"contracts/test42.sol\":15095:15119  _validateAmount(_amount) */\n      tag_54\n        /* \"contracts/test42.sol\":15111:15118  _amount */\n      dup2\n        /* \"contracts/test42.sol\":15095:15110  _validateAmount */\n      tag_44\n        /* \"contracts/test42.sol\":15095:15119  _validateAmount(_amount) */\n      jump\t// in\n    tag_54:\n        /* \"contracts/test42.sol\":15132:15204  _updateBalance(... */\n      tag_55\n        /* \"contracts/test42.sol\":15161:15171  msg.sender */\n      caller\n        /* \"contracts/test42.sol\":15186:15193  _amount */\n      dup3\n        /* \"contracts/test42.sol\":15132:15146  _updateBalance */\n      tag_50\n        /* \"contracts/test42.sol\":15132:15204  _updateBalance(... */\n      jump\t// in\n    tag_55:\n        /* \"contracts/test42.sol\":15234:15241  _amount */\n      dup1\n        /* \"contracts/test42.sol\":15217:15230  totalDeposits */\n      0x01\n      0x00\n        /* \"contracts/test42.sol\":15217:15241  totalDeposits += _amount */\n      dup3\n      dup3\n      sload\n      tag_56\n      swap2\n      swap1\n      tag_49\n      jump\t// in\n    tag_56:\n      swap3\n      pop\n      pop\n      dup2\n      swap1\n      sstore\n      pop\n        /* \"contracts/test42.sol\":15011:15249  function deposit(... */\n      pop\n      jump\t// out\n        /* \"contracts/test42.sol\":18236:18447  function adminFeeAdjustment(... */\n    tag_32:\n        /* \"contracts/test42.sol\":18331:18344  _checkAdmin() */\n      tag_58\n        /* \"contracts/test42.sol\":18331:18342  _checkAdmin */\n      tag_59\n        /* \"contracts/test42.sol\":18331:18344  _checkAdmin() */\n      jump\t// in\n    tag_58:\n        /* \"contracts/test42.sol\":18357:18368  uint256 fee */\n      0x00\n        /* \"contracts/test42.sol\":18384:18406  _calculateFee(_amount) */\n      tag_60\n        /* \"contracts/test42.sol\":18398:18405  _amount */\n      dup3\n        /* \"contracts/test42.sol\":18384:18397  _calculateFee */\n      tag_61\n        /* \"contracts/test42.sol\":18384:18406  _calculateFee(_amount) */\n      jump\t// in\n    tag_60:\n        /* \"contracts/test42.sol\":18357:18406  uint256 fee =... */\n      swap1\n      pop\n        /* \"contracts/test42.sol\":18436:18439  fee */\n      dup1\n        /* \"contracts/test42.sol\":18419:18432  totalDeposits */\n      0x01\n      0x00\n        /* \"contracts/test42.sol\":18419:18439  totalDeposits -= fee */\n      dup3\n      dup3\n      sload\n      tag_62\n      swap2\n      swap1\n      tag_41\n      jump\t// in\n    tag_62:\n      swap3\n      pop\n      pop\n      dup2\n      swap1\n      sstore\n      pop\n        /* \"contracts/test42.sol\":18320:18447  {... */\n      pop\n        /* \"contracts/test42.sol\":18236:18447  function adminFeeAdjustment(... */\n      pop\n      jump\t// out\n        /* \"contracts/test42.sol\":14423:14443  address public admin */\n    tag_34:\n      0x02\n      0x00\n      swap1\n      sload\n      swap1\n      0x0100\n      exp\n      swap1\n      div\n      0xffffffffffffffffffffffffffffffffffffffff\n      and\n      dup2\n      jump\t// out\n        /* \"contracts/test42.sol\":16596:16856  function _withdrawBalance(... */\n    tag_39:\n        /* \"contracts/test42.sol\":16754:16761  _amount */\n      dup1\n        /* \"contracts/test42.sol\":16735:16743  balances */\n      0x00\n        /* \"contracts/test42.sol\":16735:16750  balances[_user] */\n      0x00\n        /* \"contracts/test42.sol\":16744:16749  _user */\n      dup5\n        /* \"contracts/test42.sol\":16735:16750  balances[_user] */\n      0xffffffffffffffffffffffffffffffffffffffff\n      and\n      0xffffffffffffffffffffffffffffffffffffffff\n      and\n      dup2\n      mstore\n      0x20\n      add\n      swap1\n      dup2\n      mstore\n      0x20\n      add\n      0x00\n      keccak256\n      sload\n        /* \"contracts/test42.sol\":16735:16761  balances[_user] >= _amount */\n      lt\n      iszero\n        /* \"contracts/test42.sol\":16713:16809  require(... */\n      tag_64\n      jumpi\n      mload(0x40)\n      0x08c379a000000000000000000000000000000000000000000000000000000000\n      dup2\n      mstore\n      0x04\n      add\n      tag_65\n      swap1\n      tag_66\n      jump\t// in\n    tag_65:\n      mload(0x40)\n      dup1\n      swap2\n      sub\n      swap1\n      revert\n    tag_64:\n        /* \"contracts/test42.sol\":16841:16848  _amount */\n      dup1\n        /* \"contracts/test42.sol\":16822:16830  balances */\n      0x00\n        /* \"contracts/test42.sol\":16822:16837  balances[_user] */\n      0x00\n        /* \"contracts/test42.sol\":16831:16836  _user */\n      dup5\n        /* \"contracts/test42.sol\":16822:16837  balances[_user] */\n      0xffffffffffffffffffffffffffffffffffffffff\n      and\n      0xffffffffffffffffffffffffffffffffffffffff\n      and\n      dup2\n      mstore\n      0x20\n      add\n      swap1\n      dup2\n      mstore\n      0x20\n      add\n      0x00\n      keccak256\n      0x00\n        /* \"contracts/test42.sol\":16822:16848  balances[_user] -= _amount */\n      dup3\n      dup3\n      sload\n      tag_67\n      swap2\n      swap1\n      tag_41\n      jump\t// in\n    tag_67:\n      swap3\n      pop\n      pop\n      dup2\n      swap1\n      sstore\n      pop\n        /* \"contracts/test42.sol\":16596:16856  function _withdrawBalance(... */\n      pop\n      pop\n      jump\t// out\n        /* \"contracts/test42.sol\":15807:16093  function _validateAmount(... */\n    tag_44:\n        /* \"contracts/test42.sol\":15945:15946  0 */\n      0x00\n        /* \"contracts/test42.sol\":15935:15942  _amount */\n      dup2\n        /* \"contracts/test42.sol\":15935:15946  _amount > 0 */\n      gt\n        /* \"contracts/test42.sol\":15913:15992  require(... */\n      tag_69\n      jumpi\n      mload(0x40)\n      0x08c379a000000000000000000000000000000000000000000000000000000000\n      dup2\n      mstore\n      0x04\n      add\n      tag_70\n      swap1\n      tag_71\n      jump\t// in\n    tag_70:\n      mload(0x40)\n      dup1\n      swap2\n      sub\n      swap1\n      revert\n    tag_69:\n        /* \"contracts/test42.sol\":16038:16041  100 */\n      0x64\n        /* \"contracts/test42.sol\":16027:16034  _amount */\n      dup2\n        /* \"contracts/test42.sol\":16027:16041  _amount <= 100 */\n      gt\n      iszero\n        /* \"contracts/test42.sol\":16005:16085  require(... */\n      tag_72\n      jumpi\n      mload(0x40)\n      0x08c379a000000000000000000000000000000000000000000000000000000000\n      dup2\n      mstore\n      0x04\n      add\n      tag_73\n      swap1\n      tag_74\n      jump\t// in\n    tag_73:\n      mload(0x40)\n      dup1\n      swap2\n      sub\n      swap1\n      revert\n    tag_72:\n        /* \"contracts/test42.sol\":15807:16093  function _validateAmount(... */\n      pop\n      jump\t// out\n        /* \"contracts/test42.sol\":17032:17200  function _calculateBonus(... */\n    tag_46:\n        /* \"contracts/test42.sol\":17140:17147  uint256 */\n      0x00\n        /* \"contracts/test42.sol\":17189:17192  100 */\n      0x64\n        /* \"contracts/test42.sol\":17183:17185  10 */\n      0x0a\n        /* \"contracts/test42.sol\":17173:17180  _amount */\n      dup4\n        /* \"contracts/test42.sol\":17173:17185  _amount * 10 */\n      tag_76\n      swap2\n      swap1\n      tag_77\n      jump\t// in\n    tag_76:\n        /* \"contracts/test42.sol\":17172:17192  (_amount * 10) / 100 */\n      tag_78\n      swap2\n      swap1\n      tag_79\n      jump\t// in\n    tag_78:\n        /* \"contracts/test42.sol\":17165:17192  return (_amount * 10) / 100 */\n      swap1\n      pop\n        /* \"contracts/test42.sol\":17032:17200  function _calculateBonus(... */\n      swap2\n      swap1\n      pop\n      jump\t// out\n        /* \"contracts/test42.sol\":16273:16422  function _updateBalance(... */\n    tag_50:\n        /* \"contracts/test42.sol\":16407:16414  _amount */\n      dup1\n        /* \"contracts/test42.sol\":16388:16396  balances */\n      0x00\n        /* \"contracts/test42.sol\":16388:16403  balances[_user] */\n      0x00\n        /* \"contracts/test42.sol\":16397:16402  _user */\n      dup5\n        /* \"contracts/test42.sol\":16388:16403  balances[_user] */\n      0xffffffffffffffffffffffffffffffffffffffff\n      and\n      0xffffffffffffffffffffffffffffffffffffffff\n      and\n      dup2\n      mstore\n      0x20\n      add\n      swap1\n      dup2\n      mstore\n      0x20\n      add\n      0x00\n      keccak256\n      0x00\n        /* \"contracts/test42.sol\":16388:16414  balances[_user] += _amount */\n      dup3\n      dup3\n      sload\n      tag_81\n      swap2\n      swap1\n      tag_49\n      jump\t// in\n    tag_81:\n      swap3\n      pop\n      pop\n      dup2\n      swap1\n      sstore\n      pop\n        /* \"contracts/test42.sol\":16273:16422  function _updateBalance(... */\n      pop\n      pop\n      jump\t// out\n        /* \"contracts/test42.sol\":14681:14838  function _checkAdmin()... */\n    tag_59:\n        /* \"contracts/test42.sol\":14788:14793  admin */\n      0x02\n      0x00\n      swap1\n      sload\n      swap1\n      0x0100\n      exp\n      swap1\n      div\n      0xffffffffffffffffffffffffffffffffffffffff\n      and\n        /* \"contracts/test42.sol\":14774:14793  msg.sender == admin */\n      0xffffffffffffffffffffffffffffffffffffffff\n      and\n        /* \"contracts/test42.sol\":14774:14784  msg.sender */\n      caller\n        /* \"contracts/test42.sol\":14774:14793  msg.sender == admin */\n      0xffffffffffffffffffffffffffffffffffffffff\n      and\n      eq\n        /* \"contracts/test42.sol\":14752:14830  require(... */\n      tag_83\n      jumpi\n      mload(0x40)\n      0x08c379a000000000000000000000000000000000000000000000000000000000\n      dup2\n      mstore\n      0x04\n      add\n      tag_84\n      swap1\n      tag_85\n      jump\t// in\n    tag_84:\n      mload(0x40)\n      dup1\n      swap2\n      sub\n      swap1\n      revert\n    tag_83:\n        /* \"contracts/test42.sol\":14681:14838  function _checkAdmin()... */\n      jump\t// out\n        /* \"contracts/test42.sol\":17374:17539  function _calculateFee(... */\n    tag_61:\n        /* \"contracts/test42.sol\":17480:17487  uint256 */\n      0x00\n        /* \"contracts/test42.sol\":17528:17531  100 */\n      0x64\n        /* \"contracts/test42.sol\":17523:17524  2 */\n      0x02\n        /* \"contracts/test42.sol\":17513:17520  _amount */\n      dup4\n        /* \"contracts/test42.sol\":17513:17524  _amount * 2 */\n      tag_87\n      swap2\n      swap1\n      tag_77\n      jump\t// in\n    tag_87:\n        /* \"contracts/test42.sol\":17512:17531  (_amount * 2) / 100 */\n      tag_88\n      swap2\n      swap1\n      tag_79\n      jump\t// in\n    tag_88:\n        /* \"contracts/test42.sol\":17505:17531  return (_amount * 2) / 100 */\n      swap1\n      pop\n        /* \"contracts/test42.sol\":17374:17539  function _calculateFee(... */\n      swap2\n      swap1\n      pop\n      jump\t// out\n        /* \"#utility.yul\":88:205   */\n    tag_90:\n        /* \"#utility.yul\":197:198   */\n      0x00\n        /* \"#utility.yul\":194:195   */\n      0x00\n        /* \"#utility.yul\":187:199   */\n      revert\n        /* \"#utility.yul\":334:460   */\n    tag_92:\n        /* \"#utility.yul\":371:378   */\n      0x00\n        /* \"#utility.yul\":411:453   */\n      0xffffffffffffffffffffffffffffffffffffffff\n        /* \"#utility.yul\":404:409   */\n      dup3\n        /* \"#utility.yul\":400:454   */\n      and\n        /* \"#utility.yul\":389:454   */\n      swap1\n      pop\n        /* \"#utility.yul\":334:460   */\n      swap2\n      swap1\n      pop\n      jump\t// out\n        /* \"#utility.yul\":466:562   */\n    tag_93:\n        /* \"#utility.yul\":503:510   */\n      0x00\n        /* \"#utility.yul\":532:556   */\n      tag_118\n        /* \"#utility.yul\":550:555   */\n      dup3\n        /* \"#utility.yul\":532:556   */\n      tag_92\n      jump\t// in\n    tag_118:\n        /* \"#utility.yul\":521:556   */\n      swap1\n      pop\n        /* \"#utility.yul\":466:562   */\n      swap2\n      swap1\n      pop\n      jump\t// out\n        /* \"#utility.yul\":568:690   */\n    tag_94:\n        /* \"#utility.yul\":641:665   */\n      tag_120\n        /* \"#utility.yul\":659:664   */\n      dup2\n        /* \"#utility.yul\":641:665   */\n      tag_93\n      jump\t// in\n    tag_120:\n        /* \"#utility.yul\":634:639   */\n      dup2\n        /* \"#utility.yul\":631:666   */\n      eq\n        /* \"#utility.yul\":621:684   */\n      tag_121\n      jumpi\n        /* \"#utility.yul\":680:681   */\n      0x00\n        /* \"#utility.yul\":677:678   */\n      0x00\n        /* \"#utility.yul\":670:682   */\n      revert\n        /* \"#utility.yul\":621:684   */\n    tag_121:\n        /* \"#utility.yul\":568:690   */\n      pop\n      jump\t// out\n        /* \"#utility.yul\":696:835   */\n    tag_95:\n        /* \"#utility.yul\":742:747   */\n      0x00\n        /* \"#utility.yul\":780:786   */\n      dup2\n        /* \"#utility.yul\":767:787   */\n      calldataload\n        /* \"#utility.yul\":758:787   */\n      swap1\n      pop\n        /* \"#utility.yul\":796:829   */\n      tag_123\n        /* \"#utility.yul\":823:828   */\n      dup2\n        /* \"#utility.yul\":796:829   */\n      tag_94\n      jump\t// in\n    tag_123:\n        /* \"#utility.yul\":696:835   */\n      swap3\n      swap2\n      pop\n      pop\n      jump\t// out\n        /* \"#utility.yul\":841:1170   */\n    tag_13:\n        /* \"#utility.yul\":900:906   */\n      0x00\n        /* \"#utility.yul\":949:951   */\n      0x20\n        /* \"#utility.yul\":937:946   */\n      dup3\n        /* \"#utility.yul\":928:935   */\n      dup5\n        /* \"#utility.yul\":924:947   */\n      sub\n        /* \"#utility.yul\":920:952   */\n      slt\n        /* \"#utility.yul\":917:1036   */\n      iszero\n      tag_125\n      jumpi\n        /* \"#utility.yul\":955:1034   */\n      tag_126\n      tag_90\n      jump\t// in\n    tag_126:\n        /* \"#utility.yul\":917:1036   */\n    tag_125:\n        /* \"#utility.yul\":1075:1076   */\n      0x00\n        /* \"#utility.yul\":1100:1153   */\n      tag_127\n        /* \"#utility.yul\":1145:1152   */\n      dup5\n        /* \"#utility.yul\":1136:1142   */\n      dup3\n        /* \"#utility.yul\":1125:1134   */\n      dup6\n        /* \"#utility.yul\":1121:1143   */\n      add\n        /* \"#utility.yul\":1100:1153   */\n      tag_95\n      jump\t// in\n    tag_127:\n        /* \"#utility.yul\":1090:1153   */\n      swap2\n      pop\n        /* \"#utility.yul\":1046:1163   */\n      pop\n        /* \"#utility.yul\":841:1170   */\n      swap3\n      swap2\n      pop\n      pop\n      jump\t// out\n        /* \"#utility.yul\":1176:1253   */\n    tag_96:\n        /* \"#utility.yul\":1213:1220   */\n      0x00\n        /* \"#utility.yul\":1242:1247   */\n      dup2\n        /* \"#utility.yul\":1231:1247   */\n      swap1\n      pop\n        /* \"#utility.yul\":1176:1253   */\n      swap2\n      swap1\n      pop\n      jump\t// out\n        /* \"#utility.yul\":1259:1377   */\n    tag_97:\n        /* \"#utility.yul\":1346:1370   */\n      tag_130\n        /* \"#utility.yul\":1364:1369   */\n      dup2\n        /* \"#utility.yul\":1346:1370   */\n      tag_96\n      jump\t// in\n    tag_130:\n        /* \"#utility.yul\":1341:1344   */\n      dup3\n        /* \"#utility.yul\":1334:1371   */\n      mstore\n        /* \"#utility.yul\":1259:1377   */\n      pop\n      pop\n      jump\t// out\n        /* \"#utility.yul\":1383:1605   */\n    tag_16:\n        /* \"#utility.yul\":1476:1480   */\n      0x00\n        /* \"#utility.yul\":1514:1516   */\n      0x20\n        /* \"#utility.yul\":1503:1512   */\n      dup3\n        /* \"#utility.yul\":1499:1517   */\n      add\n        /* \"#utility.yul\":1491:1517   */\n      swap1\n      pop\n        /* \"#utility.yul\":1527:1598   */\n      tag_132\n        /* \"#utility.yul\":1595:1596   */\n      0x00\n        /* \"#utility.yul\":1584:1593   */\n      dup4\n        /* \"#utility.yul\":1580:1597   */\n      add\n        /* \"#utility.yul\":1571:1577   */\n      dup5\n        /* \"#utility.yul\":1527:1598   */\n      tag_97\n      jump\t// in\n    tag_132:\n        /* \"#utility.yul\":1383:1605   */\n      swap3\n      swap2\n      pop\n      pop\n      jump\t// out\n        /* \"#utility.yul\":1611:1733   */\n    tag_98:\n        /* \"#utility.yul\":1684:1708   */\n      tag_134\n        /* \"#utility.yul\":1702:1707   */\n      dup2\n        /* \"#utility.yul\":1684:1708   */\n      tag_96\n      jump\t// in\n    tag_134:\n        /* \"#utility.yul\":1677:1682   */\n      dup2\n        /* \"#utility.yul\":1674:1709   */\n      eq\n        /* \"#utility.yul\":1664:1727   */\n      tag_135\n      jumpi\n        /* \"#utility.yul\":1723:1724   */\n      0x00\n        /* \"#utility.yul\":1720:1721   */\n      0x00\n        /* \"#utility.yul\":1713:1725   */\n      revert\n        /* \"#utility.yul\":1664:1727   */\n    tag_135:\n        /* \"#utility.yul\":1611:1733   */\n      pop\n      jump\t// out\n        /* \"#utility.yul\":1739:1878   */\n    tag_99:\n        /* \"#utility.yul\":1785:1790   */\n      0x00\n        /* \"#utility.yul\":1823:1829   */\n      dup2\n        /* \"#utility.yul\":1810:1830   */\n      calldataload\n        /* \"#utility.yul\":1801:1830   */\n      swap1\n      pop\n        /* \"#utility.yul\":1839:1872   */\n      tag_137\n        /* \"#utility.yul\":1866:1871   */\n      dup2\n        /* \"#utility.yul\":1839:1872   */\n      tag_98\n      jump\t// in\n    tag_137:\n        /* \"#utility.yul\":1739:1878   */\n      swap3\n      swap2\n      pop\n      pop\n      jump\t// out\n        /* \"#utility.yul\":1884:2213   */\n    tag_19:\n        /* \"#utility.yul\":1943:1949   */\n      0x00\n        /* \"#utility.yul\":1992:1994   */\n      0x20\n        /* \"#utility.yul\":1980:1989   */\n      dup3\n        /* \"#utility.yul\":1971:1978   */\n      dup5\n        /* \"#utility.yul\":1967:1990   */\n      sub\n        /* \"#utility.yul\":1963:1995   */\n      slt\n        /* \"#utility.yul\":1960:2079   */\n      iszero\n      tag_139\n      jumpi\n        /* \"#utility.yul\":1998:2077   */\n      tag_140\n      tag_90\n      jump\t// in\n    tag_140:\n        /* \"#utility.yul\":1960:2079   */\n    tag_139:\n        /* \"#utility.yul\":2118:2119   */\n      0x00\n        /* \"#utility.yul\":2143:2196   */\n      tag_141\n        /* \"#utility.yul\":2188:2195   */\n      dup5\n        /* \"#utility.yul\":2179:2185   */\n      dup3\n        /* \"#utility.yul\":2168:2177   */\n      dup6\n        /* \"#utility.yul\":2164:2186   */\n      add\n        /* \"#utility.yul\":2143:2196   */\n      tag_99\n      jump\t// in\n    tag_141:\n        /* \"#utility.yul\":2133:2196   */\n      swap2\n      pop\n        /* \"#utility.yul\":2089:2206   */\n      pop\n        /* \"#utility.yul\":1884:2213   */\n      swap3\n      swap2\n      pop\n      pop\n      jump\t// out\n        /* \"#utility.yul\":2219:2337   */\n    tag_100:\n        /* \"#utility.yul\":2306:2330   */\n      tag_143\n        /* \"#utility.yul\":2324:2329   */\n      dup2\n        /* \"#utility.yul\":2306:2330   */\n      tag_93\n      jump\t// in\n    tag_143:\n        /* \"#utility.yul\":2301:2304   */\n      dup3\n        /* \"#utility.yul\":2294:2331   */\n      mstore\n        /* \"#utility.yul\":2219:2337   */\n      pop\n      pop\n      jump\t// out\n        /* \"#utility.yul\":2343:2565   */\n    tag_36:\n        /* \"#utility.yul\":2436:2440   */\n      0x00\n        /* \"#utility.yul\":2474:2476   */\n      0x20\n        /* \"#utility.yul\":2463:2472   */\n      dup3\n        /* \"#utility.yul\":2459:2477   */\n      add\n        /* \"#utility.yul\":2451:2477   */\n      swap1\n      pop\n        /* \"#utility.yul\":2487:2558   */\n      tag_145\n        /* \"#utility.yul\":2555:2556   */\n      0x00\n        /* \"#utility.yul\":2544:2553   */\n      dup4\n        /* \"#utility.yul\":2540:2557   */\n      add\n        /* \"#utility.yul\":2531:2537   */\n      dup5\n        /* \"#utility.yul\":2487:2558   */\n      tag_100\n      jump\t// in\n    tag_145:\n        /* \"#utility.yul\":2343:2565   */\n      swap3\n      swap2\n      pop\n      pop\n      jump\t// out\n        /* \"#utility.yul\":2571:2751   */\n    tag_101:\n        /* \"#utility.yul\":2619:2696   */\n      0x4e487b7100000000000000000000000000000000000000000000000000000000\n        /* \"#utility.yul\":2616:2617   */\n      0x00\n        /* \"#utility.yul\":2609:2697   */\n      mstore\n        /* \"#utility.yul\":2716:2720   */\n      0x11\n        /* \"#utility.yul\":2713:2714   */\n      0x04\n        /* \"#utility.yul\":2706:2721   */\n      mstore\n        /* \"#utility.yul\":2740:2744   */\n      0x24\n        /* \"#utility.yul\":2737:2738   */\n      0x00\n        /* \"#utility.yul\":2730:2745   */\n      revert\n        /* \"#utility.yul\":2757:2951   */\n    tag_41:\n        /* \"#utility.yul\":2797:2801   */\n      0x00\n        /* \"#utility.yul\":2817:2837   */\n      tag_148\n        /* \"#utility.yul\":2835:2836   */\n      dup3\n        /* \"#utility.yul\":2817:2837   */\n      tag_96\n      jump\t// in\n    tag_148:\n        /* \"#utility.yul\":2812:2837   */\n      swap2\n      pop\n        /* \"#utility.yul\":2851:2871   */\n      tag_149\n        /* \"#utility.yul\":2869:2870   */\n      dup4\n        /* \"#utility.yul\":2851:2871   */\n      tag_96\n      jump\t// in\n    tag_149:\n        /* \"#utility.yul\":2846:2871   */\n      swap3\n      pop\n        /* \"#utility.yul\":2895:2896   */\n      dup3\n        /* \"#utility.yul\":2892:2893   */\n      dup3\n        /* \"#utility.yul\":2888:2897   */\n      sub\n        /* \"#utility.yul\":2880:2897   */\n      swap1\n      pop\n        /* \"#utility.yul\":2919:2920   */\n      dup2\n        /* \"#utility.yul\":2913:2917   */\n      dup2\n        /* \"#utility.yul\":2910:2921   */\n      gt\n        /* \"#utility.yul\":2907:2944   */\n      iszero\n      tag_150\n      jumpi\n        /* \"#utility.yul\":2924:2942   */\n      tag_151\n      tag_101\n      jump\t// in\n    tag_151:\n        /* \"#utility.yul\":2907:2944   */\n    tag_150:\n        /* \"#utility.yul\":2757:2951   */\n      swap3\n      swap2\n      pop\n      pop\n      jump\t// out\n        /* \"#utility.yul\":2957:3148   */\n    tag_49:\n        /* \"#utility.yul\":2997:3000   */\n      0x00\n        /* \"#utility.yul\":3016:3036   */\n      tag_153\n        /* \"#utility.yul\":3034:3035   */\n      dup3\n        /* \"#utility.yul\":3016:3036   */\n      tag_96\n      jump\t// in\n    tag_153:\n        /* \"#utility.yul\":3011:3036   */\n      swap2\n      pop\n        /* \"#utility.yul\":3050:3070   */\n      tag_154\n        /* \"#utility.yul\":3068:3069   */\n      dup4\n        /* \"#utility.yul\":3050:3070   */\n      tag_96\n      jump\t// in\n    tag_154:\n        /* \"#utility.yul\":3045:3070   */\n      swap3\n      pop\n        /* \"#utility.yul\":3093:3094   */\n      dup3\n        /* \"#utility.yul\":3090:3091   */\n      dup3\n        /* \"#utility.yul\":3086:3095   */\n      add\n        /* \"#utility.yul\":3079:3095   */\n      swap1\n      pop\n        /* \"#utility.yul\":3114:3117   */\n      dup1\n        /* \"#utility.yul\":3111:3112   */\n      dup3\n        /* \"#utility.yul\":3108:3118   */\n      gt\n        /* \"#utility.yul\":3105:3141   */\n      iszero\n      tag_155\n      jumpi\n        /* \"#utility.yul\":3121:3139   */\n      tag_156\n      tag_101\n      jump\t// in\n    tag_156:\n        /* \"#utility.yul\":3105:3141   */\n    tag_155:\n        /* \"#utility.yul\":2957:3148   */\n      swap3\n      swap2\n      pop\n      pop\n      jump\t// out\n        /* \"#utility.yul\":3154:3323   */\n    tag_102:\n        /* \"#utility.yul\":3238:3249   */\n      0x00\n        /* \"#utility.yul\":3272:3278   */\n      dup3\n        /* \"#utility.yul\":3267:3270   */\n      dup3\n        /* \"#utility.yul\":3260:3279   */\n      mstore\n        /* \"#utility.yul\":3312:3316   */\n      0x20\n        /* \"#utility.yul\":3307:3310   */\n      dup3\n        /* \"#utility.yul\":3303:3317   */\n      add\n        /* \"#utility.yul\":3288:3317   */\n      swap1\n      pop\n        /* \"#utility.yul\":3154:3323   */\n      swap3\n      swap2\n      pop\n      pop\n      jump\t// out\n        /* \"#utility.yul\":3329:3499   */\n    tag_103:\n        /* \"#utility.yul\":3469:3491   */\n      0x496e73756666696369656e742062616c616e6365000000000000000000000000\n        /* \"#utility.yul\":3465:3466   */\n      0x00\n        /* \"#utility.yul\":3457:3463   */\n      dup3\n        /* \"#utility.yul\":3453:3467   */\n      add\n        /* \"#utility.yul\":3446:3492   */\n      mstore\n        /* \"#utility.yul\":3329:3499   */\n      pop\n      jump\t// out\n        /* \"#utility.yul\":3505:3871   */\n    tag_104:\n        /* \"#utility.yul\":3647:3650   */\n      0x00\n        /* \"#utility.yul\":3668:3735   */\n      tag_160\n        /* \"#utility.yul\":3732:3734   */\n      0x14\n        /* \"#utility.yul\":3727:3730   */\n      dup4\n        /* \"#utility.yul\":3668:3735   */\n      tag_102\n      jump\t// in\n    tag_160:\n        /* \"#utility.yul\":3661:3735   */\n      swap2\n      pop\n        /* \"#utility.yul\":3744:3837   */\n      tag_161\n        /* \"#utility.yul\":3833:3836   */\n      dup3\n        /* \"#utility.yul\":3744:3837   */\n      tag_103\n      jump\t// in\n    tag_161:\n        /* \"#utility.yul\":3862:3864   */\n      0x20\n        /* \"#utility.yul\":3857:3860   */\n      dup3\n        /* \"#utility.yul\":3853:3865   */\n      add\n        /* \"#utility.yul\":3846:3865   */\n      swap1\n      pop\n        /* \"#utility.yul\":3505:3871   */\n      swap2\n      swap1\n      pop\n      jump\t// out\n        /* \"#utility.yul\":3877:4296   */\n    tag_66:\n        /* \"#utility.yul\":4043:4047   */\n      0x00\n        /* \"#utility.yul\":4081:4083   */\n      0x20\n        /* \"#utility.yul\":4070:4079   */\n      dup3\n        /* \"#utility.yul\":4066:4084   */\n      add\n        /* \"#utility.yul\":4058:4084   */\n      swap1\n      pop\n        /* \"#utility.yul\":4130:4139   */\n      dup2\n        /* \"#utility.yul\":4124:4128   */\n      dup2\n        /* \"#utility.yul\":4120:4140   */\n      sub\n        /* \"#utility.yul\":4116:4117   */\n      0x00\n        /* \"#utility.yul\":4105:4114   */\n      dup4\n        /* \"#utility.yul\":4101:4118   */\n      add\n        /* \"#utility.yul\":4094:4141   */\n      mstore\n        /* \"#utility.yul\":4158:4289   */\n      tag_163\n        /* \"#utility.yul\":4284:4288   */\n      dup2\n        /* \"#utility.yul\":4158:4289   */\n      tag_104\n      jump\t// in\n    tag_163:\n        /* \"#utility.yul\":4150:4289   */\n      swap1\n      pop\n        /* \"#utility.yul\":3877:4296   */\n      swap2\n      swap1\n      pop\n      jump\t// out\n        /* \"#utility.yul\":4302:4470   */\n    tag_105:\n        /* \"#utility.yul\":4442:4462   */\n      0x416d6f756e74206d757374206265203e20300000000000000000000000000000\n        /* \"#utility.yul\":4438:4439   */\n      0x00\n        /* \"#utility.yul\":4430:4436   */\n      dup3\n        /* \"#utility.yul\":4426:4440   */\n      add\n        /* \"#utility.yul\":4419:4463   */\n      mstore\n        /* \"#utility.yul\":4302:4470   */\n      pop\n      jump\t// out\n        /* \"#utility.yul\":4476:4842   */\n    tag_106:\n        /* \"#utility.yul\":4618:4621   */\n      0x00\n        /* \"#utility.yul\":4639:4706   */\n      tag_166\n        /* \"#utility.yul\":4703:4705   */\n      0x12\n        /* \"#utility.yul\":4698:4701   */\n      dup4\n        /* \"#utility.yul\":4639:4706   */\n      tag_102\n      jump\t// in\n    tag_166:\n        /* \"#utility.yul\":4632:4706   */\n      swap2\n      pop\n        /* \"#utility.yul\":4715:4808   */\n      tag_167\n        /* \"#utility.yul\":4804:4807   */\n      dup3\n        /* \"#utility.yul\":4715:4808   */\n      tag_105\n      jump\t// in\n    tag_167:\n        /* \"#utility.yul\":4833:4835   */\n      0x20\n        /* \"#utility.yul\":4828:4831   */\n      dup3\n        /* \"#utility.yul\":4824:4836   */\n      add\n        /* \"#utility.yul\":4817:4836   */\n      swap1\n      pop\n        /* \"#utility.yul\":4476:4842   */\n      swap2\n      swap1\n      pop\n      jump\t// out\n        /* \"#utility.yul\":4848:5267   */\n    tag_71:\n        /* \"#utility.yul\":5014:5018   */\n      0x00\n        /* \"#utility.yul\":5052:5054   */\n      0x20\n        /* \"#utility.yul\":5041:5050   */\n      dup3\n        /* \"#utility.yul\":5037:5055   */\n      add\n        /* \"#utility.yul\":5029:5055   */\n      swap1\n      pop\n        /* \"#utility.yul\":5101:5110   */\n      dup2\n        /* \"#utility.yul\":5095:5099   */\n      dup2\n        /* \"#utility.yul\":5091:5111   */\n      sub\n        /* \"#utility.yul\":5087:5088   */\n      0x00\n        /* \"#utility.yul\":5076:5085   */\n      dup4\n        /* \"#utility.yul\":5072:5089   */\n      add\n        /* \"#utility.yul\":5065:5112   */\n      mstore\n        /* \"#utility.yul\":5129:5260   */\n      tag_169\n        /* \"#utility.yul\":5255:5259   */\n      dup2\n        /* \"#utility.yul\":5129:5260   */\n      tag_106\n      jump\t// in\n    tag_169:\n        /* \"#utility.yul\":5121:5260   */\n      swap1\n      pop\n        /* \"#utility.yul\":4848:5267   */\n      swap2\n      swap1\n      pop\n      jump\t// out\n        /* \"#utility.yul\":5273:5439   */\n    tag_107:\n        /* \"#utility.yul\":5413:5431   */\n      0x416d6f756e7420746f6f206c6172676500000000000000000000000000000000\n        /* \"#utility.yul\":5409:5410   */\n      0x00\n        /* \"#utility.yul\":5401:5407   */\n      dup3\n        /* \"#utility.yul\":5397:5411   */\n      add\n        /* \"#utility.yul\":5390:5432   */\n      mstore\n        /* \"#utility.yul\":5273:5439   */\n      pop\n      jump\t// out\n        /* \"#utility.yul\":5445:5811   */\n    tag_108:\n        /* \"#utility.yul\":5587:5590   */\n      0x00\n        /* \"#utility.yul\":5608:5675   */\n      tag_172\n        /* \"#utility.yul\":5672:5674   */\n      0x10\n        /* \"#utility.yul\":5667:5670   */\n      dup4\n        /* \"#utility.yul\":5608:5675   */\n      tag_102\n      jump\t// in\n    tag_172:\n        /* \"#utility.yul\":5601:5675   */\n      swap2\n      pop\n        /* \"#utility.yul\":5684:5777   */\n      tag_173\n        /* \"#utility.yul\":5773:5776   */\n      dup3\n        /* \"#utility.yul\":5684:5777   */\n      tag_107\n      jump\t// in\n    tag_173:\n        /* \"#utility.yul\":5802:5804   */\n      0x20\n        /* \"#utility.yul\":5797:5800   */\n      dup3\n        /* \"#utility.yul\":5793:5805   */\n      add\n        /* \"#utility.yul\":5786:5805   */\n      swap1\n      pop\n        /* \"#utility.yul\":5445:5811   */\n      swap2\n      swap1\n      pop\n      jump\t// out\n        /* \"#utility.yul\":5817:6236   */\n    tag_74:\n        /* \"#utility.yul\":5983:5987   */\n      0x00\n        /* \"#utility.yul\":6021:6023   */\n      0x20\n        /* \"#utility.yul\":6010:6019   */\n      dup3\n        /* \"#utility.yul\":6006:6024   */\n      add\n        /* \"#utility.yul\":5998:6024   */\n      swap1\n      pop\n        /* \"#utility.yul\":6070:6079   */\n      dup2\n        /* \"#utility.yul\":6064:6068   */\n      dup2\n        /* \"#utility.yul\":6060:6080   */\n      sub\n        /* \"#utility.yul\":6056:6057   */\n      0x00\n        /* \"#utility.yul\":6045:6054   */\n      dup4\n        /* \"#utility.yul\":6041:6058   */\n      add\n        /* \"#utility.yul\":6034:6081   */\n      mstore\n        /* \"#utility.yul\":6098:6229   */\n      tag_175\n        /* \"#utility.yul\":6224:6228   */\n      dup2\n        /* \"#utility.yul\":6098:6229   */\n      tag_108\n      jump\t// in\n    tag_175:\n        /* \"#utility.yul\":6090:6229   */\n      swap1\n      pop\n        /* \"#utility.yul\":5817:6236   */\n      swap2\n      swap1\n      pop\n      jump\t// out\n        /* \"#utility.yul\":6242:6652   */\n    tag_77:\n        /* \"#utility.yul\":6282:6289   */\n      0x00\n        /* \"#utility.yul\":6305:6325   */\n      tag_177\n        /* \"#utility.yul\":6323:6324   */\n      dup3\n        /* \"#utility.yul\":6305:6325   */\n      tag_96\n      jump\t// in\n    tag_177:\n        /* \"#utility.yul\":6300:6325   */\n      swap2\n      pop\n        /* \"#utility.yul\":6339:6359   */\n      tag_178\n        /* \"#utility.yul\":6357:6358   */\n      dup4\n        /* \"#utility.yul\":6339:6359   */\n      tag_96\n      jump\t// in\n    tag_178:\n        /* \"#utility.yul\":6334:6359   */\n      swap3\n      pop\n        /* \"#utility.yul\":6394:6395   */\n      dup3\n        /* \"#utility.yul\":6391:6392   */\n      dup3\n        /* \"#utility.yul\":6387:6396   */\n      mul\n        /* \"#utility.yul\":6416:6446   */\n      tag_179\n        /* \"#utility.yul\":6434:6445   */\n      dup2\n        /* \"#utility.yul\":6416:6446   */\n      tag_96\n      jump\t// in\n    tag_179:\n        /* \"#utility.yul\":6405:6446   */\n      swap2\n      pop\n        /* \"#utility.yul\":6595:6596   */\n      dup3\n        /* \"#utility.yul\":6586:6593   */\n      dup3\n        /* \"#utility.yul\":6582:6597   */\n      div\n        /* \"#utility.yul\":6579:6580   */\n      dup5\n        /* \"#utility.yul\":6576:6598   */\n      eq\n        /* \"#utility.yul\":6556:6557   */\n      dup4\n        /* \"#utility.yul\":6549:6558   */\n      iszero\n        /* \"#utility.yul\":6529:6612   */\n      or\n        /* \"#utility.yul\":6506:6645   */\n      tag_180\n      jumpi\n        /* \"#utility.yul\":6625:6643   */\n      tag_181\n      tag_101\n      jump\t// in\n    tag_181:\n        /* \"#utility.yul\":6506:6645   */\n    tag_180:\n        /* \"#utility.yul\":6290:6652   */\n      pop\n        /* \"#utility.yul\":6242:6652   */\n      swap3\n      swap2\n      pop\n      pop\n      jump\t// out\n        /* \"#utility.yul\":6658:6838   */\n    tag_109:\n        /* \"#utility.yul\":6706:6783   */\n      0x4e487b7100000000000000000000000000000000000000000000000000000000\n        /* \"#utility.yul\":6703:6704   */\n      0x00\n        /* \"#utility.yul\":6696:6784   */\n      mstore\n        /* \"#utility.yul\":6803:6807   */\n      0x12\n        /* \"#utility.yul\":6800:6801   */\n      0x04\n        /* \"#utility.yul\":6793:6808   */\n      mstore\n        /* \"#utility.yul\":6827:6831   */\n      0x24\n        /* \"#utility.yul\":6824:6825   */\n      0x00\n        /* \"#utility.yul\":6817:6832   */\n      revert\n        /* \"#utility.yul\":6844:7029   */\n    tag_79:\n        /* \"#utility.yul\":6884:6885   */\n      0x00\n        /* \"#utility.yul\":6901:6921   */\n      tag_184\n        /* \"#utility.yul\":6919:6920   */\n      dup3\n        /* \"#utility.yul\":6901:6921   */\n      tag_96\n      jump\t// in\n    tag_184:\n        /* \"#utility.yul\":6896:6921   */\n      swap2\n      pop\n        /* \"#utility.yul\":6935:6955   */\n      tag_185\n        /* \"#utility.yul\":6953:6954   */\n      dup4\n        /* \"#utility.yul\":6935:6955   */\n      tag_96\n      jump\t// in\n    tag_185:\n        /* \"#utility.yul\":6930:6955   */\n      swap3\n      pop\n        /* \"#utility.yul\":6974:6975   */\n      dup3\n        /* \"#utility.yul\":6964:6999   */\n      tag_186\n      jumpi\n        /* \"#utility.yul\":6979:6997   */\n      tag_187\n      tag_109\n      jump\t// in\n    tag_187:\n        /* \"#utility.yul\":6964:6999   */\n    tag_186:\n        /* \"#utility.yul\":7021:7022   */\n      dup3\n        /* \"#utility.yul\":7018:7019   */\n      dup3\n        /* \"#utility.yul\":7014:7023   */\n      div\n        /* \"#utility.yul\":7009:7023   */\n      swap1\n      pop\n        /* \"#utility.yul\":6844:7029   */\n      swap3\n      swap2\n      pop\n      pop\n      jump\t// out\n        /* \"#utility.yul\":7035:7194   */\n    tag_110:\n        /* \"#utility.yul\":7175:7186   */\n      0x4e6f742061646d696e0000000000000000000000000000000000000000000000\n        /* \"#utility.yul\":7171:7172   */\n      0x00\n        /* \"#utility.yul\":7163:7169   */\n      dup3\n        /* \"#utility.yul\":7159:7173   */\n      add\n        /* \"#utility.yul\":7152:7187   */\n      mstore\n        /* \"#utility.yul\":7035:7194   */\n      pop\n      jump\t// out\n        /* \"#utility.yul\":7200:7565   */\n    tag_111:\n        /* \"#utility.yul\":7342:7345   */\n      0x00\n        /* \"#utility.yul\":7363:7429   */\n      tag_190\n        /* \"#utility.yul\":7427:7428   */\n      0x09\n        /* \"#utility.yul\":7422:7425   */\n      dup4\n        /* \"#utility.yul\":7363:7429   */\n      tag_102\n      jump\t// in\n    tag_190:\n        /* \"#utility.yul\":7356:7429   */\n      swap2\n      pop\n        /* \"#utility.yul\":7438:7531   */\n      tag_191\n        /* \"#utility.yul\":7527:7530   */\n      dup3\n        /* \"#utility.yul\":7438:7531   */\n      tag_110\n      jump\t// in\n    tag_191:\n        /* \"#utility.yul\":7556:7558   */\n      0x20\n        /* \"#utility.yul\":7551:7554   */\n      dup3\n        /* \"#utility.yul\":7547:7559   */\n      add\n        /* \"#utility.yul\":7540:7559   */\n      swap1\n      pop\n        /* \"#utility.yul\":7200:7565   */\n      swap2\n      swap1\n      pop\n      jump\t// out\n        /* \"#utility.yul\":7571:7990   */\n    tag_85:\n        /* \"#utility.yul\":7737:7741   */\n      0x00\n        /* \"#utility.yul\":7775:7777   */\n      0x20\n        /* \"#utility.yul\":7764:7773   */\n      dup3\n        /* \"#utility.yul\":7760:7778   */\n      add\n        /* \"#utility.yul\":7752:7778   */\n      swap1\n      pop\n        /* \"#utility.yul\":7824:7833   */\n      dup2\n        /* \"#utility.yul\":7818:7822   */\n      dup2\n        /* \"#utility.yul\":7814:7834   */\n      sub\n        /* \"#utility.yul\":7810:7811   */\n      0x00\n        /* \"#utility.yul\":7799:7808   */\n      dup4\n        /* \"#utility.yul\":7795:7812   */\n      add\n        /* \"#utility.yul\":7788:7835   */\n      mstore\n        /* \"#utility.yul\":7852:7983   */\n      tag_193\n        /* \"#utility.yul\":7978:7982   */\n      dup2\n        /* \"#utility.yul\":7852:7983   */\n      tag_111\n      jump\t// in\n    tag_193:\n        /* \"#utility.yul\":7844:7983   */\n      swap1\n      pop\n        /* \"#utility.yul\":7571:7990   */\n      swap2\n      swap1\n      pop\n      jump\t// out\n\n    auxdata: 0xa264697066735822122039824cd2e04827d1773ee251fec10962a1498579da478ce45a6eeeaaf123423764736f6c63430008220033\n}\n",
				"bytecode": {
					"linkReferences": {},
					"object": "6080604052348015600e575f5ffd5b503360025f6101000a81548173ffffffffffffffffffffffffffffffffffffffff021916908373ffffffffffffffffffffffffffffffffffffffff1602179055506109438061005c5f395ff3fe608060405234801561000f575f5ffd5b506004361061007b575f3560e01c80637d882097116100595780637d882097146100e7578063b6b55f2514610105578063cecb4a6614610121578063f851a4401461013d5761007b565b806327e235e31461007f5780632e1a7d4d146100af5780632f7c9ed6146100cb575b5f5ffd5b61009960048036038101906100949190610553565b61015b565b6040516100a69190610596565b60405180910390f35b6100c960048036038101906100c491906105d9565b61016f565b005b6100e560048036038101906100e091906105d9565b610194565b005b6100ef6101e5565b6040516100fc9190610596565b60405180910390f35b61011f600480360381019061011a91906105d9565b6101eb565b005b61013b600480360381019061013691906105d9565b610219565b005b610145610249565b6040516101529190610613565b60405180910390f35b5f602052805f5260405f205f915090505481565b610179338261026e565b8060015f82825461018a9190610659565b9250508190555050565b61019d81610343565b5f6101a7826103cc565b90506101be3382846101b9919061068c565b6103ed565b80826101ca919061068c565b60015f8282546101da919061068c565b925050819055505050565b60015481565b6101f481610343565b6101fe33826103ed565b8060015f82825461020f919061068c565b9250508190555050565b610221610443565b5f61022b826104d4565b90508060015f82825461023e9190610659565b925050819055505050565b60025f9054906101000a900473ffffffffffffffffffffffffffffffffffffffff1681565b805f5f8473ffffffffffffffffffffffffffffffffffffffff1673ffffffffffffffffffffffffffffffffffffffff1681526020019081526020015f205410156102ed576040517f08c379a00000000000000000000000000000000000000000000000000000000081526004016102e490610719565b60405180910390fd5b805f5f8473ffffffffffffffffffffffffffffffffffffffff1673ffffffffffffffffffffffffffffffffffffffff1681526020019081526020015f205f8282546103389190610659565b925050819055505050565b5f8111610385576040517f08c379a000000000000000000000000000000000000000000000000000000000815260040161037c90610781565b60405180910390fd5b60648111156103c9576040517f08c379a00000000000000000000000000000000000000000000000000000000081526004016103c0906107e9565b60405180910390fd5b50565b5f6064600a836103dc9190610807565b6103e69190610875565b9050919050565b805f5f8473ffffffffffffffffffffffffffffffffffffffff1673ffffffffffffffffffffffffffffffffffffffff1681526020019081526020015f205f828254610438919061068c565b925050819055505050565b60025f9054906101000a900473ffffffffffffffffffffffffffffffffffffffff1673ffffffffffffffffffffffffffffffffffffffff163373ffffffffffffffffffffffffffffffffffffffff16146104d2576040517f08c379a00000000000000000000000000000000000000000000000000000000081526004016104c9906108ef565b60405180910390fd5b565b5f60646002836104e49190610807565b6104ee9190610875565b9050919050565b5f5ffd5b5f73ffffffffffffffffffffffffffffffffffffffff82169050919050565b5f610522826104f9565b9050919050565b61053281610518565b811461053c575f5ffd5b50565b5f8135905061054d81610529565b92915050565b5f60208284031215610568576105676104f5565b5b5f6105758482850161053f565b91505092915050565b5f819050919050565b6105908161057e565b82525050565b5f6020820190506105a95f830184610587565b92915050565b6105b88161057e565b81146105c2575f5ffd5b50565b5f813590506105d3816105af565b92915050565b5f602082840312156105ee576105ed6104f5565b5b5f6105fb848285016105c5565b91505092915050565b61060d81610518565b82525050565b5f6020820190506106265f830184610604565b92915050565b7f4e487b71000000000000000000000000000000000000000000000000000000005f52601160045260245ffd5b5f6106638261057e565b915061066e8361057e565b92508282039050818111156106865761068561062c565b5b92915050565b5f6106968261057e565b91506106a18361057e565b92508282019050808211156106b9576106b861062c565b5b92915050565b5f82825260208201905092915050565b7f496e73756666696369656e742062616c616e63650000000000000000000000005f82015250565b5f6107036014836106bf565b915061070e826106cf565b602082019050919050565b5f6020820190508181035f830152610730816106f7565b9050919050565b7f416d6f756e74206d757374206265203e203000000000000000000000000000005f82015250565b5f61076b6012836106bf565b915061077682610737565b602082019050919050565b5f6020820190508181035f8301526107988161075f565b9050919050565b7f416d6f756e7420746f6f206c61726765000000000000000000000000000000005f82015250565b5f6107d36010836106bf565b91506107de8261079f565b602082019050919050565b5f6020820190508181035f830152610800816107c7565b9050919050565b5f6108118261057e565b915061081c8361057e565b925082820261082a8161057e565b915082820484148315176108415761084061062c565b5b5092915050565b7f4e487b71000000000000000000000000000000000000000000000000000000005f52601260045260245ffd5b5f61087f8261057e565b915061088a8361057e565b92508261089a57610899610848565b5b828204905092915050565b7f4e6f742061646d696e00000000000000000000000000000000000000000000005f82015250565b5f6108d96009836106bf565b91506108e4826108a5565b602082019050919050565b5f6020820190508181035f830152610906816108cd565b905091905056fea264697066735822122039824cd2e04827d1773ee251fec10962a1498579da478ce45a6eeeaaf123423764736f6c63430008220033",
					"opcodes": "PUSH1 0x80 PUSH1 0x40 MSTORE CALLVALUE DUP1 ISZERO PUSH1 0xE JUMPI PUSH0 PUSH0 REVERT JUMPDEST POP CALLER PUSH1 0x2 PUSH0 PUSH2 0x100 EXP DUP2 SLOAD DUP2 PUSH20 0xFFFFFFFFFFFFFFFFFFFFFFFFFFFFFFFFFFFFFFFF MUL NOT AND SWAP1 DUP4 PUSH20 0xFFFFFFFFFFFFFFFFFFFFFFFFFFFFFFFFFFFFFFFF AND MUL OR SWAP1 SSTORE POP PUSH2 0x943 DUP1 PUSH2 0x5C PUSH0 CODECOPY PUSH0 RETURN INVALID PUSH1 0x80 PUSH1 0x40 MSTORE CALLVALUE DUP1 ISZERO PUSH2 0xF JUMPI PUSH0 PUSH0 REVERT JUMPDEST POP PUSH1 0x4 CALLDATASIZE LT PUSH2 0x7B JUMPI PUSH0 CALLDATALOAD PUSH1 0xE0 SHR DUP1 PUSH4 0x7D882097 GT PUSH2 0x59 JUMPI DUP1 PUSH4 0x7D882097 EQ PUSH2 0xE7 JUMPI DUP1 PUSH4 0xB6B55F25 EQ PUSH2 0x105 JUMPI DUP1 PUSH4 0xCECB4A66 EQ PUSH2 0x121 JUMPI DUP1 PUSH4 0xF851A440 EQ PUSH2 0x13D JUMPI PUSH2 0x7B JUMP JUMPDEST DUP1 PUSH4 0x27E235E3 EQ PUSH2 0x7F JUMPI DUP1 PUSH4 0x2E1A7D4D EQ PUSH2 0xAF JUMPI DUP1 PUSH4 0x2F7C9ED6 EQ PUSH2 0xCB JUMPI JUMPDEST PUSH0 PUSH0 REVERT JUMPDEST PUSH2 0x99 PUSH1 0x4 DUP1 CALLDATASIZE SUB DUP2 ADD SWAP1 PUSH2 0x94 SWAP2 SWAP1 PUSH2 0x553 JUMP JUMPDEST PUSH2 0x15B JUMP JUMPDEST PUSH1 0x40 MLOAD PUSH2 0xA6 SWAP2 SWAP1 PUSH2 0x596 JUMP JUMPDEST PUSH1 0x40 MLOAD DUP1 SWAP2 SUB SWAP1 RETURN JUMPDEST PUSH2 0xC9 PUSH1 0x4 DUP1 CALLDATASIZE SUB DUP2 ADD SWAP1 PUSH2 0xC4 SWAP2 SWAP1 PUSH2 0x5D9 JUMP JUMPDEST PUSH2 0x16F JUMP JUMPDEST STOP JUMPDEST PUSH2 0xE5 PUSH1 0x4 DUP1 CALLDATASIZE SUB DUP2 ADD SWAP1 PUSH2 0xE0 SWAP2 SWAP1 PUSH2 0x5D9 JUMP JUMPDEST PUSH2 0x194 JUMP JUMPDEST STOP JUMPDEST PUSH2 0xEF PUSH2 0x1E5 JUMP JUMPDEST PUSH1 0x40 MLOAD PUSH2 0xFC SWAP2 SWAP1 PUSH2 0x596 JUMP JUMPDEST PUSH1 0x40 MLOAD DUP1 SWAP2 SUB SWAP1 RETURN JUMPDEST PUSH2 0x11F PUSH1 0x4 DUP1 CALLDATASIZE SUB DUP2 ADD SWAP1 PUSH2 0x11A SWAP2 SWAP1 PUSH2 0x5D9 JUMP JUMPDEST PUSH2 0x1EB JUMP JUMPDEST STOP JUMPDEST PUSH2 0x13B PUSH1 0x4 DUP1 CALLDATASIZE SUB DUP2 ADD SWAP1 PUSH2 0x136 SWAP2 SWAP1 PUSH2 0x5D9 JUMP JUMPDEST PUSH2 0x219 JUMP JUMPDEST STOP JUMPDEST PUSH2 0x145 PUSH2 0x249 JUMP JUMPDEST PUSH1 0x40 MLOAD PUSH2 0x152 SWAP2 SWAP1 PUSH2 0x613 JUMP JUMPDEST PUSH1 0x40 MLOAD DUP1 SWAP2 SUB SWAP1 RETURN JUMPDEST PUSH0 PUSH1 0x20 MSTORE DUP1 PUSH0 MSTORE PUSH1 0x40 PUSH0 KECCAK256 PUSH0 SWAP2 POP SWAP1 POP SLOAD DUP2 JUMP JUMPDEST PUSH2 0x179 CALLER DUP3 PUSH2 0x26E JUMP JUMPDEST DUP1 PUSH1 0x1 PUSH0 DUP3 DUP3 SLOAD PUSH2 0x18A SWAP2 SWAP1 PUSH2 0x659 JUMP JUMPDEST SWAP3 POP POP DUP2 SWAP1 SSTORE POP POP JUMP JUMPDEST PUSH2 0x19D DUP2 PUSH2 0x343 JUMP JUMPDEST PUSH0 PUSH2 0x1A7 DUP3 PUSH2 0x3CC JUMP JUMPDEST SWAP1 POP PUSH2 0x1BE CALLER DUP3 DUP5 PUSH2 0x1B9 SWAP2 SWAP1 PUSH2 0x68C JUMP JUMPDEST PUSH2 0x3ED JUMP JUMPDEST DUP1 DUP3 PUSH2 0x1CA SWAP2 SWAP1 PUSH2 0x68C JUMP JUMPDEST PUSH1 0x1 PUSH0 DUP3 DUP3 SLOAD PUSH2 0x1DA SWAP2 SWAP1 PUSH2 0x68C JUMP JUMPDEST SWAP3 POP POP DUP2 SWAP1 SSTORE POP POP POP JUMP JUMPDEST PUSH1 0x1 SLOAD DUP2 JUMP JUMPDEST PUSH2 0x1F4 DUP2 PUSH2 0x343 JUMP JUMPDEST PUSH2 0x1FE CALLER DUP3 PUSH2 0x3ED JUMP JUMPDEST DUP1 PUSH1 0x1 PUSH0 DUP3 DUP3 SLOAD PUSH2 0x20F SWAP2 SWAP1 PUSH2 0x68C JUMP JUMPDEST SWAP3 POP POP DUP2 SWAP1 SSTORE POP POP JUMP JUMPDEST PUSH2 0x221 PUSH2 0x443 JUMP JUMPDEST PUSH0 PUSH2 0x22B DUP3 PUSH2 0x4D4 JUMP JUMPDEST SWAP1 POP DUP1 PUSH1 0x1 PUSH0 DUP3 DUP3 SLOAD PUSH2 0x23E SWAP2 SWAP1 PUSH2 0x659 JUMP JUMPDEST SWAP3 POP POP DUP2 SWAP1 SSTORE POP POP POP JUMP JUMPDEST PUSH1 0x2 PUSH0 SWAP1 SLOAD SWAP1 PUSH2 0x100 EXP SWAP1 DIV PUSH20 0xFFFFFFFFFFFFFFFFFFFFFFFFFFFFFFFFFFFFFFFF AND DUP2 JUMP JUMPDEST DUP1 PUSH0 PUSH0 DUP5 PUSH20 0xFFFFFFFFFFFFFFFFFFFFFFFFFFFFFFFFFFFFFFFF AND PUSH20 0xFFFFFFFFFFFFFFFFFFFFFFFFFFFFFFFFFFFFFFFF AND DUP2 MSTORE PUSH1 0x20 ADD SWAP1 DUP2 MSTORE PUSH1 0x20 ADD PUSH0 KECCAK256 SLOAD LT ISZERO PUSH2 0x2ED JUMPI PUSH1 0x40 MLOAD PUSH32 0x8C379A000000000000000000000000000000000000000000000000000000000 DUP2 MSTORE PUSH1 0x4 ADD PUSH2 0x2E4 SWAP1 PUSH2 0x719 JUMP JUMPDEST PUSH1 0x40 MLOAD DUP1 SWAP2 SUB SWAP1 REVERT JUMPDEST DUP1 PUSH0 PUSH0 DUP5 PUSH20 0xFFFFFFFFFFFFFFFFFFFFFFFFFFFFFFFFFFFFFFFF AND PUSH20 0xFFFFFFFFFFFFFFFFFFFFFFFFFFFFFFFFFFFFFFFF AND DUP2 MSTORE PUSH1 0x20 ADD SWAP1 DUP2 MSTORE PUSH1 0x20 ADD PUSH0 KECCAK256 PUSH0 DUP3 DUP3 SLOAD PUSH2 0x338 SWAP2 SWAP1 PUSH2 0x659 JUMP JUMPDEST SWAP3 POP POP DUP2 SWAP1 SSTORE POP POP POP JUMP JUMPDEST PUSH0 DUP2 GT PUSH2 0x385 JUMPI PUSH1 0x40 MLOAD PUSH32 0x8C379A000000000000000000000000000000000000000000000000000000000 DUP2 MSTORE PUSH1 0x4 ADD PUSH2 0x37C SWAP1 PUSH2 0x781 JUMP JUMPDEST PUSH1 0x40 MLOAD DUP1 SWAP2 SUB SWAP1 REVERT JUMPDEST PUSH1 0x64 DUP2 GT ISZERO PUSH2 0x3C9 JUMPI PUSH1 0x40 MLOAD PUSH32 0x8C379A000000000000000000000000000000000000000000000000000000000 DUP2 MSTORE PUSH1 0x4 ADD PUSH2 0x3C0 SWAP1 PUSH2 0x7E9 JUMP JUMPDEST PUSH1 0x40 MLOAD DUP1 SWAP2 SUB SWAP1 REVERT JUMPDEST POP JUMP JUMPDEST PUSH0 PUSH1 0x64 PUSH1 0xA DUP4 PUSH2 0x3DC SWAP2 SWAP1 PUSH2 0x807 JUMP JUMPDEST PUSH2 0x3E6 SWAP2 SWAP1 PUSH2 0x875 JUMP JUMPDEST SWAP1 POP SWAP2 SWAP1 POP JUMP JUMPDEST DUP1 PUSH0 PUSH0 DUP5 PUSH20 0xFFFFFFFFFFFFFFFFFFFFFFFFFFFFFFFFFFFFFFFF AND PUSH20 0xFFFFFFFFFFFFFFFFFFFFFFFFFFFFFFFFFFFFFFFF AND DUP2 MSTORE PUSH1 0x20 ADD SWAP1 DUP2 MSTORE PUSH1 0x20 ADD PUSH0 KECCAK256 PUSH0 DUP3 DUP3 SLOAD PUSH2 0x438 SWAP2 SWAP1 PUSH2 0x68C JUMP JUMPDEST SWAP3 POP POP DUP2 SWAP1 SSTORE POP POP POP JUMP JUMPDEST PUSH1 0x2 PUSH0 SWAP1 SLOAD SWAP1 PUSH2 0x100 EXP SWAP1 DIV PUSH20 0xFFFFFFFFFFFFFFFFFFFFFFFFFFFFFFFFFFFFFFFF AND PUSH20 0xFFFFFFFFFFFFFFFFFFFFFFFFFFFFFFFFFFFFFFFF AND CALLER PUSH20 0xFFFFFFFFFFFFFFFFFFFFFFFFFFFFFFFFFFFFFFFF AND EQ PUSH2 0x4D2 JUMPI PUSH1 0x40 MLOAD PUSH32 0x8C379A000000000000000000000000000000000000000000000000000000000 DUP2 MSTORE PUSH1 0x4 ADD PUSH2 0x4C9 SWAP1 PUSH2 0x8EF JUMP JUMPDEST PUSH1 0x40 MLOAD DUP1 SWAP2 SUB SWAP1 REVERT JUMPDEST JUMP JUMPDEST PUSH0 PUSH1 0x64 PUSH1 0x2 DUP4 PUSH2 0x4E4 SWAP2 SWAP1 PUSH2 0x807 JUMP JUMPDEST PUSH2 0x4EE SWAP2 SWAP1 PUSH2 0x875 JUMP JUMPDEST SWAP1 POP SWAP2 SWAP1 POP JUMP JUMPDEST PUSH0 PUSH0 REVERT JUMPDEST PUSH0 PUSH20 0xFFFFFFFFFFFFFFFFFFFFFFFFFFFFFFFFFFFFFFFF DUP3 AND SWAP1 POP SWAP2 SWAP1 POP JUMP JUMPDEST PUSH0 PUSH2 0x522 DUP3 PUSH2 0x4F9 JUMP JUMPDEST SWAP1 POP SWAP2 SWAP1 POP JUMP JUMPDEST PUSH2 0x532 DUP2 PUSH2 0x518 JUMP JUMPDEST DUP2 EQ PUSH2 0x53C JUMPI PUSH0 PUSH0 REVERT JUMPDEST POP JUMP JUMPDEST PUSH0 DUP2 CALLDATALOAD SWAP1 POP PUSH2 0x54D DUP2 PUSH2 0x529 JUMP JUMPDEST SWAP3 SWAP2 POP POP JUMP JUMPDEST PUSH0 PUSH1 0x20 DUP3 DUP5 SUB SLT ISZERO PUSH2 0x568 JUMPI PUSH2 0x567 PUSH2 0x4F5 JUMP JUMPDEST JUMPDEST PUSH0 PUSH2 0x575 DUP5 DUP3 DUP6 ADD PUSH2 0x53F JUMP JUMPDEST SWAP2 POP POP SWAP3 SWAP2 POP POP JUMP JUMPDEST PUSH0 DUP2 SWAP1 POP SWAP2 SWAP1 POP JUMP JUMPDEST PUSH2 0x590 DUP2 PUSH2 0x57E JUMP JUMPDEST DUP3 MSTORE POP POP JUMP JUMPDEST PUSH0 PUSH1 0x20 DUP3 ADD SWAP1 POP PUSH2 0x5A9 PUSH0 DUP4 ADD DUP5 PUSH2 0x587 JUMP JUMPDEST SWAP3 SWAP2 POP POP JUMP JUMPDEST PUSH2 0x5B8 DUP2 PUSH2 0x57E JUMP JUMPDEST DUP2 EQ PUSH2 0x5C2 JUMPI PUSH0 PUSH0 REVERT JUMPDEST POP JUMP JUMPDEST PUSH0 DUP2 CALLDATALOAD SWAP1 POP PUSH2 0x5D3 DUP2 PUSH2 0x5AF JUMP JUMPDEST SWAP3 SWAP2 POP POP JUMP JUMPDEST PUSH0 PUSH1 0x20 DUP3 DUP5 SUB SLT ISZERO PUSH2 0x5EE JUMPI PUSH2 0x5ED PUSH2 0x4F5 JUMP JUMPDEST JUMPDEST PUSH0 PUSH2 0x5FB DUP5 DUP3 DUP6 ADD PUSH2 0x5C5 JUMP JUMPDEST SWAP2 POP POP SWAP3 SWAP2 POP POP JUMP JUMPDEST PUSH2 0x60D DUP2 PUSH2 0x518 JUMP JUMPDEST DUP3 MSTORE POP POP JUMP JUMPDEST PUSH0 PUSH1 0x20 DUP3 ADD SWAP1 POP PUSH2 0x626 PUSH0 DUP4 ADD DUP5 PUSH2 0x604 JUMP JUMPDEST SWAP3 SWAP2 POP POP JUMP JUMPDEST PUSH32 0x4E487B7100000000000000000000000000000000000000000000000000000000 PUSH0 MSTORE PUSH1 0x11 PUSH1 0x4 MSTORE PUSH1 0x24 PUSH0 REVERT JUMPDEST PUSH0 PUSH2 0x663 DUP3 PUSH2 0x57E JUMP JUMPDEST SWAP2 POP PUSH2 0x66E DUP4 PUSH2 0x57E JUMP JUMPDEST SWAP3 POP DUP3 DUP3 SUB SWAP1 POP DUP2 DUP2 GT ISZERO PUSH2 0x686 JUMPI PUSH2 0x685 PUSH2 0x62C JUMP JUMPDEST JUMPDEST SWAP3 SWAP2 POP POP JUMP JUMPDEST PUSH0 PUSH2 0x696 DUP3 PUSH2 0x57E JUMP JUMPDEST SWAP2 POP PUSH2 0x6A1 DUP4 PUSH2 0x57E JUMP JUMPDEST SWAP3 POP DUP3 DUP3 ADD SWAP1 POP DUP1 DUP3 GT ISZERO PUSH2 0x6B9 JUMPI PUSH2 0x6B8 PUSH2 0x62C JUMP JUMPDEST JUMPDEST SWAP3 SWAP2 POP POP JUMP JUMPDEST PUSH0 DUP3 DUP3 MSTORE PUSH1 0x20 DUP3 ADD SWAP1 POP SWAP3 SWAP2 POP POP JUMP JUMPDEST PUSH32 0x496E73756666696369656E742062616C616E6365000000000000000000000000 PUSH0 DUP3 ADD MSTORE POP JUMP JUMPDEST PUSH0 PUSH2 0x703 PUSH1 0x14 DUP4 PUSH2 0x6BF JUMP JUMPDEST SWAP2 POP PUSH2 0x70E DUP3 PUSH2 0x6CF JUMP JUMPDEST PUSH1 0x20 DUP3 ADD SWAP1 POP SWAP2 SWAP1 POP JUMP JUMPDEST PUSH0 PUSH1 0x20 DUP3 ADD SWAP1 POP DUP2 DUP2 SUB PUSH0 DUP4 ADD MSTORE PUSH2 0x730 DUP2 PUSH2 0x6F7 JUMP JUMPDEST SWAP1 POP SWAP2 SWAP1 POP JUMP JUMPDEST PUSH32 0x416D6F756E74206D757374206265203E20300000000000000000000000000000 PUSH0 DUP3 ADD MSTORE POP JUMP JUMPDEST PUSH0 PUSH2 0x76B PUSH1 0x12 DUP4 PUSH2 0x6BF JUMP JUMPDEST SWAP2 POP PUSH2 0x776 DUP3 PUSH2 0x737 JUMP JUMPDEST PUSH1 0x20 DUP3 ADD SWAP1 POP SWAP2 SWAP1 POP JUMP JUMPDEST PUSH0 PUSH1 0x20 DUP3 ADD SWAP1 POP DUP2 DUP2 SUB PUSH0 DUP4 ADD MSTORE PUSH2 0x798 DUP2 PUSH2 0x75F JUMP JUMPDEST SWAP1 POP SWAP2 SWAP1 POP JUMP JUMPDEST PUSH32 0x416D6F756E7420746F6F206C6172676500000000000000000000000000000000 PUSH0 DUP3 ADD MSTORE POP JUMP JUMPDEST PUSH0 PUSH2 0x7D3 PUSH1 0x10 DUP4 PUSH2 0x6BF JUMP JUMPDEST SWAP2 POP PUSH2 0x7DE DUP3 PUSH2 0x79F JUMP JUMPDEST PUSH1 0x20 DUP3 ADD SWAP1 POP SWAP2 SWAP1 POP JUMP JUMPDEST PUSH0 PUSH1 0x20 DUP3 ADD SWAP1 POP DUP2 DUP2 SUB PUSH0 DUP4 ADD MSTORE PUSH2 0x800 DUP2 PUSH2 0x7C7 JUMP JUMPDEST SWAP1 POP SWAP2 SWAP1 POP JUMP JUMPDEST PUSH0 PUSH2 0x811 DUP3 PUSH2 0x57E JUMP JUMPDEST SWAP2 POP PUSH2 0x81C DUP4 PUSH2 0x57E JUMP JUMPDEST SWAP3 POP DUP3 DUP3 MUL PUSH2 0x82A DUP2 PUSH2 0x57E JUMP JUMPDEST SWAP2 POP DUP3 DUP3 DIV DUP5 EQ DUP4 ISZERO OR PUSH2 0x841 JUMPI PUSH2 0x840 PUSH2 0x62C JUMP JUMPDEST JUMPDEST POP SWAP3 SWAP2 POP POP JUMP JUMPDEST PUSH32 0x4E487B7100000000000000000000000000000000000000000000000000000000 PUSH0 MSTORE PUSH1 0x12 PUSH1 0x4 MSTORE PUSH1 0x24 PUSH0 REVERT JUMPDEST PUSH0 PUSH2 0x87F DUP3 PUSH2 0x57E JUMP JUMPDEST SWAP2 POP PUSH2 0x88A DUP4 PUSH2 0x57E JUMP JUMPDEST SWAP3 POP DUP3 PUSH2 0x89A JUMPI PUSH2 0x899 PUSH2 0x848 JUMP JUMPDEST JUMPDEST DUP3 DUP3 DIV SWAP1 POP SWAP3 SWAP2 POP POP JUMP JUMPDEST PUSH32 0x4E6F742061646D696E0000000000000000000000000000000000000000000000 PUSH0 DUP3 ADD MSTORE POP JUMP JUMPDEST PUSH0 PUSH2 0x8D9 PUSH1 0x9 DUP4 PUSH2 0x6BF JUMP JUMPDEST SWAP2 POP PUSH2 0x8E4 DUP3 PUSH2 0x8A5 JUMP JUMPDEST PUSH1 0x20 DUP3 ADD SWAP1 POP SWAP2 SWAP1 POP JUMP JUMPDEST PUSH0 PUSH1 0x20 DUP3 ADD SWAP1 POP DUP2 DUP2 SUB PUSH0 DUP4 ADD MSTORE PUSH2 0x906 DUP2 PUSH2 0x8CD JUMP JUMPDEST SWAP1 POP SWAP2 SWAP1 POP JUMP INVALID LOG2 PUSH5 0x6970667358 0x22 SLT KECCAK256 CODECOPY DUP3 0x4C 0xD2 RJUMP 0x4827 DATALOADN 0x773E 0xE2 MLOAD INVALID 0xC1 MULMOD PUSH3 0xA14985 PUSH26 0xDA478CE45A6EEEAAF123423764736F6C63430008220033000000 "
				},
				"gasEstimates": {
					"creation": {
						"codeDepositCost": "474200",
						"executionCost": "24774",
						"totalCost": "498974"
					},
					"external": {
						"admin()": "2574",
						"adminFeeAdjustment(uint256)": "infinite",
						"balances(address)": "2802",
						"deposit(uint256)": "infinite",
						"depositWithBonus(uint256)": "infinite",
						"totalDeposits()": "2425",
						"withdraw(uint256)": "infinite"
					},
					"internal": {
						"_calculateBonus(uint256)": "infinite",
						"_calculateFee(uint256)": "infinite",
						"_checkAdmin()": "infinite",
						"_updateBalance(address,uint256)": "infinite",
						"_validateAmount(uint256)": "infinite",
						"_withdrawBalance(address,uint256)": "infinite"
					}
				},
				"methodIdentifiers": {
					"admin()": "f851a440",
					"adminFeeAdjustment(uint256)": "cecb4a66",
					"balances(address)": "27e235e3",
					"deposit(uint256)": "b6b55f25",
					"depositWithBonus(uint256)": "2f7c9ed6",
					"totalDeposits()": "7d882097",
					"withdraw(uint256)": "2e1a7d4d"
				}
			},
			"storageLayout": {
				"storage": [
					{
						"astId": 5,
						"contract": "contracts/test42.sol:InternalFunctionFlow",
						"label": "balances",
						"offset": 0,
						"slot": "0",
						"type": "t_mapping(t_address,t_uint256)"
					},
					{
						"astId": 7,
						"contract": "contracts/test42.sol:InternalFunctionFlow",
						"label": "totalDeposits",
						"offset": 0,
						"slot": "1",
						"type": "t_uint256"
					},
					{
						"astId": 9,
						"contract": "contracts/test42.sol:InternalFunctionFlow",
						"label": "admin",
						"offset": 0,
						"slot": "2",
						"type": "t_address"
					}
				],
				"types": {
					"t_address": {
						"encoding": "inplace",
						"label": "address",
						"numberOfBytes": "20"
					},
					"t_mapping(t_address,t_uint256)": {
						"encoding": "mapping",
						"key": "t_address",
						"label": "mapping(address => uint256)",
						"numberOfBytes": "32",
						"value": "t_uint256"
					},
					"t_uint256": {
						"encoding": "inplace",
						"label": "uint256",
						"numberOfBytes": "32"
					}
				}
			},
			"userdoc": {
				"kind": "user",
				"methods": {},
				"version": 1
			}
		}
	}
}