{
	"test43.sol": {
		"FunctionExecutionChaining": {
			"abi": [
				{
					"inputs": [
						{
							"internalType": "address",
							"name": "",
							"type": "address"
						}
					],
					"name": "balances",
					"outputs": [
						{
							"internalType": "uint256",
							"name": "",
							"type": "uint256"
						}
					],
					"stateMutability": "view",
					"type": "function"
				},
				{
					"inputs": [
						{
							"internalType": "address",
							"name": "",
							"type": "address"
						}
					],
					"name": "blacklisted",
					"outputs": [
						{
							"internalType": "bool",
							"name": "",
							"type": "bool"
						}
					],
					"stateMutability": "view",
					"type": "function"
				},
				{
					"inputs": [
						{
							"internalType": "uint256",
							"name": "_amount",
							"type": "uint256"
						}
					],
					"name": "deposit",
					"outputs": [],
					"stateMutability": "nonpayable",
					"type": "function"
				},
				{
					"inputs": [
						{
							"internalType": "uint256",
							"name": "_amount",
							"type": "uint256"
						}
					],
					"name": "depositWithBonus",
					"outputs": [],
					"stateMutability": "nonpayable",
					"type": "function"
				},
				{
					"inputs": [
						{
							"internalType": "uint256",
							"name": "_n",
							"type": "uint256"
						}
					],
					"name": "recursiveCount",
					"outputs": [
						{
							"internalType": "uint256",
							"name": "",
							"type": "uint256"
						}
					],
					"stateMutability": "pure",
					"type": "function"
				},
				{
					"inputs": [],
					"name": "totalDeposits",
					"outputs": [
						{
							"internalType": "uint256",
							"name": "",
							"type": "uint256"
						}
					],
					"stateMutability": "view",
					"type": "function"
				},
				{
					"inputs": [
						{
							"internalType": "uint256",
							"name": "_amount",
							"type": "uint256"
						}
					],
					"name": "withdraw",
					"outputs": [],
					"stateMutability": "nonpayable",
					"type": "function"
				}
			],
			"devdoc": {
				"kind": "dev",
				"methods": {},
				"version": 1
			},
			"evm": {
				"assembly": "    /* \"test43.sol\":13954:19312  contract FunctionExecutionChaining {... */\n  mstore(0x40, 0x80)\n  callvalue\n  dup1\n  iszero\n  tag_1\n  jumpi\n  revert(0x00, 0x00)\ntag_1:\n  pop\n  dataSize(sub_0)\n  dup1\n  dataOffset(sub_0)\n  0x00\n  codecopy\n  0x00\n  return\nstop\n\nsub_0: assembly {\n        /* \"test43.sol\":13954:19312  contract FunctionExecutionChaining {... */\n      mstore(0x40, 0x80)\n      callvalue\n      dup1\n      iszero\n      tag_1\n      jumpi\n      revert(0x00, 0x00)\n    tag_1:\n      pop\n      jumpi(tag_2, lt(calldatasize, 0x04))\n      shr(0xe0, calldataload(0x00))\n      dup1\n      0x452fe9c9\n      gt\n      tag_10\n      jumpi\n      dup1\n      0x452fe9c9\n      eq\n      tag_6\n      jumpi\n      dup1\n      0x7d882097\n      eq\n      tag_7\n      jumpi\n      dup1\n      0xb6b55f25\n      eq\n      tag_8\n      jumpi\n      dup1\n      0xdbac26e9\n      eq\n      tag_9\n      jumpi\n      jump(tag_2)\n    tag_10:\n      dup1\n      0x27e235e3\n      eq\n      tag_3\n      jumpi\n      dup1\n      0x2e1a7d4d\n      eq\n      tag_4\n      jumpi\n      dup1\n      0x2f7c9ed6\n      eq\n      tag_5\n      jumpi\n    tag_2:\n      revert(0x00, 0x00)\n        /* \"test43.sol\":14043:14086  mapping(address => uint256) public balances */\n    tag_3:\n      tag_11\n      0x04\n      dup1\n      calldatasize\n      sub\n      dup2\n      add\n      swap1\n      tag_12\n      swap2\n      swap1\n      tag_13\n      jump\t// in\n    tag_12:\n      tag_14\n      jump\t// in\n    tag_11:\n      mload(0x40)\n      tag_15\n      swap2\n      swap1\n      tag_16\n      jump\t// in\n    tag_15:\n      mload(0x40)\n      dup1\n      swap2\n      sub\n      swap1\n      return\n        /* \"test43.sol\":14813:14955  function withdraw(... */\n    tag_4:\n      tag_17\n      0x04\n      dup1\n      calldatasize\n      sub\n      dup2\n      add\n      swap1\n      tag_18\n      swap2\n      swap1\n      tag_19\n      jump\t// in\n    tag_18:\n      tag_20\n      jump\t// in\n    tag_17:\n      stop\n        /* \"test43.sol\":17619:17844  function depositWithBonus(... */\n    tag_5:\n      tag_21\n      0x04\n      dup1\n      calldatasize\n      sub\n      dup2\n      add\n      swap1\n      tag_22\n      swap2\n      swap1\n      tag_19\n      jump\t// in\n    tag_22:\n      tag_23\n      jump\t// in\n    tag_21:\n      stop\n        /* \"test43.sol\":19025:19309  function recursiveCount(... */\n    tag_6:\n      tag_24\n      0x04\n      dup1\n      calldatasize\n      sub\n      dup2\n      add\n      swap1\n      tag_25\n      swap2\n      swap1\n      tag_19\n      jump\t// in\n    tag_25:\n      tag_26\n      jump\t// in\n    tag_24:\n      mload(0x40)\n      tag_27\n      swap2\n      swap1\n      tag_16\n      jump\t// in\n    tag_27:\n      mload(0x40)\n      dup1\n      swap2\n      sub\n      swap1\n      return\n        /* \"test43.sol\":14147:14175  uint256 public totalDeposits */\n    tag_7:\n      tag_28\n      tag_29\n      jump\t// in\n    tag_28:\n      mload(0x40)\n      tag_30\n      swap2\n      swap1\n      tag_16\n      jump\t// in\n    tag_30:\n      mload(0x40)\n      dup1\n      swap2\n      sub\n      swap1\n      return\n        /* \"test43.sol\":14345:14640  function deposit(... */\n    tag_8:\n      tag_31\n      0x04\n      dup1\n      calldatasize\n      sub\n      dup2\n      add\n      swap1\n      tag_32\n      swap2\n      swap1\n      tag_19\n      jump\t// in\n    tag_32:\n      tag_33\n      jump\t// in\n    tag_31:\n      stop\n        /* \"test43.sol\":14095:14138  mapping(address => bool) public blacklisted */\n    tag_9:\n      tag_34\n      0x04\n      dup1\n      calldatasize\n      sub\n      dup2\n      add\n      swap1\n      tag_35\n      swap2\n      swap1\n      tag_13\n      jump\t// in\n    tag_35:\n      tag_36\n      jump\t// in\n    tag_34:\n      mload(0x40)\n      tag_37\n      swap2\n      swap1\n      tag_38\n      jump\t// in\n    tag_37:\n      mload(0x40)\n      dup1\n      swap2\n      sub\n      swap1\n      return\n        /* \"test43.sol\":14043:14086  mapping(address => uint256) public balances */\n    tag_14:\n      mstore(0x20, 0x00)\n      dup1\n      0x00\n      mstore\n      keccak256(0x00, 0x40)\n      0x00\n      swap2\n      pop\n      swap1\n      pop\n      sload\n      dup2\n      jump\t// out\n        /* \"test43.sol\":14813:14955  function withdraw(... */\n    tag_20:\n        /* \"test43.sol\":14898:14947  withdrawInternal(... */\n      tag_40\n        /* \"test43.sol\":14929:14936  _amount */\n      dup2\n        /* \"test43.sol\":14898:14914  withdrawInternal */\n      tag_41\n        /* \"test43.sol\":14898:14947  withdrawInternal(... */\n      jump\t// in\n    tag_40:\n        /* \"test43.sol\":14813:14955  function withdraw(... */\n      pop\n      jump\t// out\n        /* \"test43.sol\":17619:17844  function depositWithBonus(... */\n    tag_23:\n        /* \"test43.sol\":17712:17760  depositInternal(... */\n      tag_43\n        /* \"test43.sol\":17742:17749  _amount */\n      dup2\n        /* \"test43.sol\":17712:17727  depositInternal */\n      tag_44\n        /* \"test43.sol\":17712:17760  depositInternal(... */\n      jump\t// in\n    tag_43:\n        /* \"test43.sol\":17773:17836  addBalance(... */\n      tag_45\n        /* \"test43.sol\":17798:17808  msg.sender */\n      caller\n        /* \"test43.sol\":17823:17825  10 */\n      0x0a\n        /* \"test43.sol\":17773:17783  addBalance */\n      tag_46\n        /* \"test43.sol\":17773:17836  addBalance(... */\n      jump\t// in\n    tag_45:\n        /* \"test43.sol\":17619:17844  function depositWithBonus(... */\n      pop\n      jump\t// out\n        /* \"test43.sol\":19025:19309  function recursiveCount(... */\n    tag_26:\n        /* \"test43.sol\":19125:19132  uint256 */\n      0x00\n        /* \"test43.sol\":19160:19161  0 */\n      0x00\n        /* \"test43.sol\":19154:19156  _n */\n      dup3\n        /* \"test43.sol\":19154:19161  _n == 0 */\n      sub\n        /* \"test43.sol\":19150:19198  if (_n == 0) {... */\n      tag_48\n      jumpi\n        /* \"test43.sol\":19185:19186  0 */\n      0x00\n        /* \"test43.sol\":19178:19186  return 0 */\n      swap1\n      pop\n      jump(tag_47)\n        /* \"test43.sol\":19150:19198  if (_n == 0) {... */\n    tag_48:\n        /* \"test43.sol\":19247:19301  recursiveCount(... */\n      tag_49\n        /* \"test43.sol\":19285:19286  1 */\n      0x01\n        /* \"test43.sol\":19280:19282  _n */\n      dup4\n        /* \"test43.sol\":19280:19286  _n - 1 */\n      tag_50\n      swap2\n      swap1\n      tag_51\n      jump\t// in\n    tag_50:\n        /* \"test43.sol\":19247:19261  recursiveCount */\n      tag_26\n        /* \"test43.sol\":19247:19301  recursiveCount(... */\n      jump\t// in\n    tag_49:\n        /* \"test43.sol\":19230:19231  1 */\n      0x01\n        /* \"test43.sol\":19230:19301  1 +... */\n      tag_52\n      swap2\n      swap1\n      tag_53\n      jump\t// in\n    tag_52:\n        /* \"test43.sol\":19210:19301  return... */\n      swap1\n      pop\n        /* \"test43.sol\":19025:19309  function recursiveCount(... */\n    tag_47:\n      swap2\n      swap1\n      pop\n      jump\t// out\n        /* \"test43.sol\":14147:14175  uint256 public totalDeposits */\n    tag_29:\n      sload(0x02)\n      dup2\n      jump\t// out\n        /* \"test43.sol\":14345:14640  function deposit(... */\n    tag_33:\n        /* \"test43.sol\":14429:14482  validateBlacklist(... */\n      tag_55\n        /* \"test43.sol\":14461:14471  msg.sender */\n      caller\n        /* \"test43.sol\":14429:14446  validateBlacklist */\n      tag_56\n        /* \"test43.sol\":14429:14482  validateBlacklist(... */\n      jump\t// in\n    tag_55:\n        /* \"test43.sol\":14495:14518  validateAmount(_amount) */\n      tag_57\n        /* \"test43.sol\":14510:14517  _amount */\n      dup2\n        /* \"test43.sol\":14495:14509  validateAmount */\n      tag_58\n        /* \"test43.sol\":14495:14518  validateAmount(_amount) */\n      jump\t// in\n    tag_57:\n        /* \"test43.sol\":14531:14599  addBalance(... */\n      tag_59\n        /* \"test43.sol\":14556:14566  msg.sender */\n      caller\n        /* \"test43.sol\":14581:14588  _amount */\n      dup3\n        /* \"test43.sol\":14531:14541  addBalance */\n      tag_46\n        /* \"test43.sol\":14531:14599  addBalance(... */\n      jump\t// in\n    tag_59:\n        /* \"test43.sol\":14612:14632  updateTotal(_amount) */\n      tag_60\n        /* \"test43.sol\":14624:14631  _amount */\n      dup2\n        /* \"test43.sol\":14612:14623  updateTotal */\n      tag_61\n        /* \"test43.sol\":14612:14632  updateTotal(_amount) */\n      jump\t// in\n    tag_60:\n        /* \"test43.sol\":14345:14640  function deposit(... */\n      pop\n      jump\t// out\n        /* \"test43.sol\":14095:14138  mapping(address => bool) public blacklisted */\n    tag_36:\n      mstore(0x20, 0x01)\n      dup1\n      0x00\n      mstore\n      keccak256(0x00, 0x40)\n      0x00\n      swap2\n      pop\n      sload\n      swap1\n      0x0100\n      exp\n      swap1\n      div\n      0xff\n      and\n      dup2\n      jump\t// out\n        /* \"test43.sol\":18490:18857  function withdrawInternal(... */\n    tag_41:\n        /* \"test43.sol\":18583:18636  validateBlacklist(... */\n      tag_63\n        /* \"test43.sol\":18615:18625  msg.sender */\n      caller\n        /* \"test43.sol\":18583:18600  validateBlacklist */\n      tag_56\n        /* \"test43.sol\":18583:18636  validateBlacklist(... */\n      jump\t// in\n    tag_63:\n        /* \"test43.sol\":18649:18668  uint256 finalAmount */\n      0x00\n        /* \"test43.sol\":18684:18702  deductFee(_amount) */\n      tag_64\n        /* \"test43.sol\":18694:18701  _amount */\n      dup3\n        /* \"test43.sol\":18684:18693  deductFee */\n      tag_65\n        /* \"test43.sol\":18684:18702  deductFee(_amount) */\n      jump\t// in\n    tag_64:\n        /* \"test43.sol\":18649:18702  uint256 finalAmount =... */\n      swap1\n      pop\n        /* \"test43.sol\":18715:18788  subtractBalance(... */\n      tag_66\n        /* \"test43.sol\":18745:18755  msg.sender */\n      caller\n        /* \"test43.sol\":18770:18777  _amount */\n      dup4\n        /* \"test43.sol\":18715:18730  subtractBalance */\n      tag_67\n        /* \"test43.sol\":18715:18788  subtractBalance(... */\n      jump\t// in\n    tag_66:\n        /* \"test43.sol\":18801:18849  reduceTotal(... */\n      tag_68\n        /* \"test43.sol\":18827:18838  finalAmount */\n      dup2\n        /* \"test43.sol\":18801:18812  reduceTotal */\n      tag_69\n        /* \"test43.sol\":18801:18849  reduceTotal(... */\n      jump\t// in\n    tag_68:\n        /* \"test43.sol\":18572:18857  {... */\n      pop\n        /* \"test43.sol\":18490:18857  function withdrawInternal(... */\n      pop\n      jump\t// out\n        /* \"test43.sol\":18015:18318  function depositInternal(... */\n    tag_44:\n        /* \"test43.sol\":18107:18160  validateBlacklist(... */\n      tag_71\n        /* \"test43.sol\":18139:18149  msg.sender */\n      caller\n        /* \"test43.sol\":18107:18124  validateBlacklist */\n      tag_56\n        /* \"test43.sol\":18107:18160  validateBlacklist(... */\n      jump\t// in\n    tag_71:\n        /* \"test43.sol\":18173:18196  validateAmount(_amount) */\n      tag_72\n        /* \"test43.sol\":18188:18195  _amount */\n      dup2\n        /* \"test43.sol\":18173:18187  validateAmount */\n      tag_58\n        /* \"test43.sol\":18173:18196  validateAmount(_amount) */\n      jump\t// in\n    tag_72:\n        /* \"test43.sol\":18209:18277  addBalance(... */\n      tag_73\n        /* \"test43.sol\":18234:18244  msg.sender */\n      caller\n        /* \"test43.sol\":18259:18266  _amount */\n      dup3\n        /* \"test43.sol\":18209:18219  addBalance */\n      tag_46\n        /* \"test43.sol\":18209:18277  addBalance(... */\n      jump\t// in\n    tag_73:\n        /* \"test43.sol\":18290:18310  updateTotal(_amount) */\n      tag_74\n        /* \"test43.sol\":18302:18309  _amount */\n      dup2\n        /* \"test43.sol\":18290:18301  updateTotal */\n      tag_61\n        /* \"test43.sol\":18290:18310  updateTotal(_amount) */\n      jump\t// in\n    tag_74:\n        /* \"test43.sol\":18015:18318  function depositInternal(... */\n      pop\n      jump\t// out\n        /* \"test43.sol\":15942:16087  function addBalance(... */\n    tag_46:\n        /* \"test43.sol\":16072:16079  _amount */\n      dup1\n        /* \"test43.sol\":16053:16061  balances */\n      0x00\n        /* \"test43.sol\":16053:16068  balances[_user] */\n      0x00\n        /* \"test43.sol\":16062:16067  _user */\n      dup5\n        /* \"test43.sol\":16053:16068  balances[_user] */\n      0xffffffffffffffffffffffffffffffffffffffff\n      and\n      0xffffffffffffffffffffffffffffffffffffffff\n      and\n      dup2\n      mstore\n      0x20\n      add\n      swap1\n      dup2\n      mstore\n      0x20\n      add\n      0x00\n      keccak256\n      0x00\n        /* \"test43.sol\":16053:16079  balances[_user] += _amount */\n      dup3\n      dup3\n      sload\n      tag_76\n      swap2\n      swap1\n      tag_53\n      jump\t// in\n    tag_76:\n      swap3\n      pop\n      pop\n      dup2\n      swap1\n      sstore\n      pop\n        /* \"test43.sol\":15942:16087  function addBalance(... */\n      pop\n      pop\n      jump\t// out\n        /* \"test43.sol\":15125:15324  function validateBlacklist(... */\n    tag_56:\n        /* \"test43.sol\":15254:15265  blacklisted */\n      0x01\n        /* \"test43.sol\":15254:15272  blacklisted[_user] */\n      0x00\n        /* \"test43.sol\":15266:15271  _user */\n      dup3\n        /* \"test43.sol\":15254:15272  blacklisted[_user] */\n      0xffffffffffffffffffffffffffffffffffffffff\n      and\n      0xffffffffffffffffffffffffffffffffffffffff\n      and\n      dup2\n      mstore\n      0x20\n      add\n      swap1\n      dup2\n      mstore\n      0x20\n      add\n      0x00\n      keccak256\n      0x00\n      swap1\n      sload\n      swap1\n      0x0100\n      exp\n      swap1\n      div\n      0xff\n      and\n        /* \"test43.sol\":15253:15272  !blacklisted[_user] */\n      iszero\n        /* \"test43.sol\":15231:15316  require(... */\n      tag_78\n      jumpi\n      mload(0x40)\n      0x08c379a000000000000000000000000000000000000000000000000000000000\n      dup2\n      mstore\n      0x04\n      add\n      tag_79\n      swap1\n      tag_80\n      jump\t// in\n    tag_79:\n      mload(0x40)\n      dup1\n      swap2\n      sub\n      swap1\n      revert\n    tag_78:\n        /* \"test43.sol\":15125:15324  function validateBlacklist(... */\n      pop\n      jump\t// out\n        /* \"test43.sol\":15491:15776  function validateAmount(... */\n    tag_58:\n        /* \"test43.sol\":15628:15629  0 */\n      0x00\n        /* \"test43.sol\":15618:15625  _amount */\n      dup2\n        /* \"test43.sol\":15618:15629  _amount > 0 */\n      gt\n        /* \"test43.sol\":15596:15675  require(... */\n      tag_82\n      jumpi\n      mload(0x40)\n      0x08c379a000000000000000000000000000000000000000000000000000000000\n      dup2\n      mstore\n      0x04\n      add\n      tag_83\n      swap1\n      tag_84\n      jump\t// in\n    tag_83:\n      mload(0x40)\n      dup1\n      swap2\n      sub\n      swap1\n      revert\n    tag_82:\n        /* \"test43.sol\":15721:15724  100 */\n      0x64\n        /* \"test43.sol\":15710:15717  _amount */\n      dup2\n        /* \"test43.sol\":15710:15724  _amount <= 100 */\n      gt\n      iszero\n        /* \"test43.sol\":15688:15768  require(... */\n      tag_85\n      jumpi\n      mload(0x40)\n      0x08c379a000000000000000000000000000000000000000000000000000000000\n      dup2\n      mstore\n      0x04\n      add\n      tag_86\n      swap1\n      tag_87\n      jump\t// in\n    tag_86:\n      mload(0x40)\n      dup1\n      swap2\n      sub\n      swap1\n      revert\n    tag_85:\n        /* \"test43.sol\":15491:15776  function validateAmount(... */\n      pop\n      jump\t// out\n        /* \"test43.sol\":16677:16797  function updateTotal(... */\n    tag_61:\n        /* \"test43.sol\":16782:16789  _amount */\n      dup1\n        /* \"test43.sol\":16765:16778  totalDeposits */\n      0x02\n      0x00\n        /* \"test43.sol\":16765:16789  totalDeposits += _amount */\n      dup3\n      dup3\n      sload\n      tag_89\n      swap2\n      swap1\n      tag_53\n      jump\t// in\n    tag_89:\n      swap3\n      pop\n      pop\n      dup2\n      swap1\n      sstore\n      pop\n        /* \"test43.sol\":16677:16797  function updateTotal(... */\n      pop\n      jump\t// out\n        /* \"test43.sol\":17245:17459  function deductFee(... */\n    tag_65:\n        /* \"test43.sol\":17347:17354  uint256 */\n      0x00\n        /* \"test43.sol\":17372:17383  uint256 fee */\n      0x00\n        /* \"test43.sol\":17415:17418  100 */\n      0x64\n        /* \"test43.sol\":17410:17411  2 */\n      0x02\n        /* \"test43.sol\":17400:17407  _amount */\n      dup5\n        /* \"test43.sol\":17400:17411  _amount * 2 */\n      tag_91\n      swap2\n      swap1\n      tag_92\n      jump\t// in\n    tag_91:\n        /* \"test43.sol\":17399:17418  (_amount * 2) / 100 */\n      tag_93\n      swap2\n      swap1\n      tag_94\n      jump\t// in\n    tag_93:\n        /* \"test43.sol\":17372:17418  uint256 fee =... */\n      swap1\n      pop\n        /* \"test43.sol\":17448:17451  fee */\n      dup1\n        /* \"test43.sol\":17438:17445  _amount */\n      dup4\n        /* \"test43.sol\":17438:17451  _amount - fee */\n      tag_95\n      swap2\n      swap1\n      tag_51\n      jump\t// in\n    tag_95:\n        /* \"test43.sol\":17431:17451  return _amount - fee */\n      swap2\n      pop\n      pop\n        /* \"test43.sol\":17245:17459  function deductFee(... */\n      swap2\n      swap1\n      pop\n      jump\t// out\n        /* \"test43.sol\":16256:16515  function subtractBalance(... */\n    tag_67:\n        /* \"test43.sol\":16413:16420  _amount */\n      dup1\n        /* \"test43.sol\":16394:16402  balances */\n      0x00\n        /* \"test43.sol\":16394:16409  balances[_user] */\n      0x00\n        /* \"test43.sol\":16403:16408  _user */\n      dup5\n        /* \"test43.sol\":16394:16409  balances[_user] */\n      0xffffffffffffffffffffffffffffffffffffffff\n      and\n      0xffffffffffffffffffffffffffffffffffffffff\n      and\n      dup2\n      mstore\n      0x20\n      add\n      swap1\n      dup2\n      mstore\n      0x20\n      add\n      0x00\n      keccak256\n      sload\n        /* \"test43.sol\":16394:16420  balances[_user] >= _amount */\n      lt\n      iszero\n        /* \"test43.sol\":16372:16468  require(... */\n      tag_97\n      jumpi\n      mload(0x40)\n      0x08c379a000000000000000000000000000000000000000000000000000000000\n      dup2\n      mstore\n      0x04\n      add\n      tag_98\n      swap1\n      tag_99\n      jump\t// in\n    tag_98:\n      mload(0x40)\n      dup1\n      swap2\n      sub\n      swap1\n      revert\n    tag_97:\n        /* \"test43.sol\":16500:16507  _amount */\n      dup1\n        /* \"test43.sol\":16481:16489  balances */\n      0x00\n        /* \"test43.sol\":16481:16496  balances[_user] */\n      0x00\n        /* \"test43.sol\":16490:16495  _user */\n      dup5\n        /* \"test43.sol\":16481:16496  balances[_user] */\n      0xffffffffffffffffffffffffffffffffffffffff\n      and\n      0xffffffffffffffffffffffffffffffffffffffff\n      and\n      dup2\n      mstore\n      0x20\n      add\n      swap1\n      dup2\n      mstore\n      0x20\n      add\n      0x00\n      keccak256\n      0x00\n        /* \"test43.sol\":16481:16507  balances[_user] -= _amount */\n      dup3\n      dup3\n      sload\n      tag_100\n      swap2\n      swap1\n      tag_51\n      jump\t// in\n    tag_100:\n      swap3\n      pop\n      pop\n      dup2\n      swap1\n      sstore\n      pop\n        /* \"test43.sol\":16256:16515  function subtractBalance(... */\n      pop\n      pop\n      jump\t// out\n        /* \"test43.sol\":16962:17082  function reduceTotal(... */\n    tag_69:\n        /* \"test43.sol\":17067:17074  _amount */\n      dup1\n        /* \"test43.sol\":17050:17063  totalDeposits */\n      0x02\n      0x00\n        /* \"test43.sol\":17050:17074  totalDeposits -= _amount */\n      dup3\n      dup3\n      sload\n      tag_102\n      swap2\n      swap1\n      tag_51\n      jump\t// in\n    tag_102:\n      swap3\n      pop\n      pop\n      dup2\n      swap1\n      sstore\n      pop\n        /* \"test43.sol\":16962:17082  function reduceTotal(... */\n      pop\n      jump\t// out\n        /* \"#utility.yul\":88:205   */\n    tag_104:\n        /* \"#utility.yul\":197:198   */\n      0x00\n        /* \"#utility.yul\":194:195   */\n      0x00\n        /* \"#utility.yul\":187:199   */\n      revert\n        /* \"#utility.yul\":334:460   */\n    tag_106:\n        /* \"#utility.yul\":371:378   */\n      0x00\n        /* \"#utility.yul\":411:453   */\n      0xffffffffffffffffffffffffffffffffffffffff\n        /* \"#utility.yul\":404:409   */\n      dup3\n        /* \"#utility.yul\":400:454   */\n      and\n        /* \"#utility.yul\":389:454   */\n      swap1\n      pop\n        /* \"#utility.yul\":334:460   */\n      swap2\n      swap1\n      pop\n      jump\t// out\n        /* \"#utility.yul\":466:562   */\n    tag_107:\n        /* \"#utility.yul\":503:510   */\n      0x00\n        /* \"#utility.yul\":532:556   */\n      tag_133\n        /* \"#utility.yul\":550:555   */\n      dup3\n        /* \"#utility.yul\":532:556   */\n      tag_106\n      jump\t// in\n    tag_133:\n        /* \"#utility.yul\":521:556   */\n      swap1\n      pop\n        /* \"#utility.yul\":466:562   */\n      swap2\n      swap1\n      pop\n      jump\t// out\n        /* \"#utility.yul\":568:690   */\n    tag_108:\n        /* \"#utility.yul\":641:665   */\n      tag_135\n        /* \"#utility.yul\":659:664   */\n      dup2\n        /* \"#utility.yul\":641:665   */\n      tag_107\n      jump\t// in\n    tag_135:\n        /* \"#utility.yul\":634:639   */\n      dup2\n        /* \"#utility.yul\":631:666   */\n      eq\n        /* \"#utility.yul\":621:684   */\n      tag_136\n      jumpi\n        /* \"#utility.yul\":680:681   */\n      0x00\n        /* \"#utility.yul\":677:678   */\n      0x00\n        /* \"#utility.yul\":670:682   */\n      revert\n        /* \"#utility.yul\":621:684   */\n    tag_136:\n        /* \"#utility.yul\":568:690   */\n      pop\n      jump\t// out\n        /* \"#utility.yul\":696:835   */\n    tag_109:\n        /* \"#utility.yul\":742:747   */\n      0x00\n        /* \"#utility.yul\":780:786   */\n      dup2\n        /* \"#utility.yul\":767:787   */\n      calldataload\n        /* \"#utility.yul\":758:787   */\n      swap1\n      pop\n        /* \"#utility.yul\":796:829   */\n      tag_138\n        /* \"#utility.yul\":823:828   */\n      dup2\n        /* \"#utility.yul\":796:829   */\n      tag_108\n      jump\t// in\n    tag_138:\n        /* \"#utility.yul\":696:835   */\n      swap3\n      swap2\n      pop\n      pop\n      jump\t// out\n        /* \"#utility.yul\":841:1170   */\n    tag_13:\n        /* \"#utility.yul\":900:906   */\n      0x00\n        /* \"#utility.yul\":949:951   */\n      0x20\n        /* \"#utility.yul\":937:946   */\n      dup3\n        /* \"#utility.yul\":928:935   */\n      dup5\n        /* \"#utility.yul\":924:947   */\n      sub\n        /* \"#utility.yul\":920:952   */\n      slt\n        /* \"#utility.yul\":917:1036   */\n      iszero\n      tag_140\n      jumpi\n        /* \"#utility.yul\":955:1034   */\n      tag_141\n      tag_104\n      jump\t// in\n    tag_141:\n        /* \"#utility.yul\":917:1036   */\n    tag_140:\n        /* \"#utility.yul\":1075:1076   */\n      0x00\n        /* \"#utility.yul\":1100:1153   */\n      tag_142\n        /* \"#utility.yul\":1145:1152   */\n      dup5\n        /* \"#utility.yul\":1136:1142   */\n      dup3\n        /* \"#utility.yul\":1125:1134   */\n      dup6\n        /* \"#utility.yul\":1121:1143   */\n      add\n        /* \"#utility.yul\":1100:1153   */\n      tag_109\n      jump\t// in\n    tag_142:\n        /* \"#utility.yul\":1090:1153   */\n      swap2\n      pop\n        /* \"#utility.yul\":1046:1163   */\n      pop\n        /* \"#utility.yul\":841:1170   */\n      swap3\n      swap2\n      pop\n      pop\n      jump\t// out\n        /* \"#utility.yul\":1176:1253   */\n    tag_110:\n        /* \"#utility.yul\":1213:1220   */\n      0x00\n        /* \"#utility.yul\":1242:1247   */\n      dup2\n        /* \"#utility.yul\":1231:1247   */\n      swap1\n      pop\n        /* \"#utility.yul\":1176:1253   */\n      swap2\n      swap1\n      pop\n      jump\t// out\n        /* \"#utility.yul\":1259:1377   */\n    tag_111:\n        /* \"#utility.yul\":1346:1370   */\n      tag_145\n        /* \"#utility.yul\":1364:1369   */\n      dup2\n        /* \"#utility.yul\":1346:1370   */\n      tag_110\n      jump\t// in\n    tag_145:\n        /* \"#utility.yul\":1341:1344   */\n      dup3\n        /* \"#utility.yul\":1334:1371   */\n      mstore\n        /* \"#utility.yul\":1259:1377   */\n      pop\n      pop\n      jump\t// out\n        /* \"#utility.yul\":1383:1605   */\n    tag_16:\n        /* \"#utility.yul\":1476:1480   */\n      0x00\n        /* \"#utility.yul\":1514:1516   */\n      0x20\n        /* \"#utility.yul\":1503:1512   */\n      dup3\n        /* \"#utility.yul\":1499:1517   */\n      add\n        /* \"#utility.yul\":1491:1517   */\n      swap1\n      pop\n        /* \"#utility.yul\":1527:1598   */\n      tag_147\n        /* \"#utility.yul\":1595:1596   */\n      0x00\n        /* \"#utility.yul\":1584:1593   */\n      dup4\n        /* \"#utility.yul\":1580:1597   */\n      add\n        /* \"#utility.yul\":1571:1577   */\n      dup5\n        /* \"#utility.yul\":1527:1598   */\n      tag_111\n      jump\t// in\n    tag_147:\n        /* \"#utility.yul\":1383:1605   */\n      swap3\n      swap2\n      pop\n      pop\n      jump\t// out\n        /* \"#utility.yul\":1611:1733   */\n    tag_112:\n        /* \"#utility.yul\":1684:1708   */\n      tag_149\n        /* \"#utility.yul\":1702:1707   */\n      dup2\n        /* \"#utility.yul\":1684:1708   */\n      tag_110\n      jump\t// in\n    tag_149:\n        /* \"#utility.yul\":1677:1682   */\n      dup2\n        /* \"#utility.yul\":1674:1709   */\n      eq\n        /* \"#utility.yul\":1664:1727   */\n      tag_150\n      jumpi\n        /* \"#utility.yul\":1723:1724   */\n      0x00\n        /* \"#utility.yul\":1720:1721   */\n      0x00\n        /* \"#utility.yul\":1713:1725   */\n      revert\n        /* \"#utility.yul\":1664:1727   */\n    tag_150:\n        /* \"#utility.yul\":1611:1733   */\n      pop\n      jump\t// out\n        /* \"#utility.yul\":1739:1878   */\n    tag_113:\n        /* \"#utility.yul\":1785:1790   */\n      0x00\n        /* \"#utility.yul\":1823:1829   */\n      dup2\n        /* \"#utility.yul\":1810:1830   */\n      calldataload\n        /* \"#utility.yul\":1801:1830   */\n      swap1\n      pop\n        /* \"#utility.yul\":1839:1872   */\n      tag_152\n        /* \"#utility.yul\":1866:1871   */\n      dup2\n        /* \"#utility.yul\":1839:1872   */\n      tag_112\n      jump\t// in\n    tag_152:\n        /* \"#utility.yul\":1739:1878   */\n      swap3\n      swap2\n      pop\n      pop\n      jump\t// out\n        /* \"#utility.yul\":1884:2213   */\n    tag_19:\n        /* \"#utility.yul\":1943:1949   */\n      0x00\n        /* \"#utility.yul\":1992:1994   */\n      0x20\n        /* \"#utility.yul\":1980:1989   */\n      dup3\n        /* \"#utility.yul\":1971:1978   */\n      dup5\n        /* \"#utility.yul\":1967:1990   */\n      sub\n        /* \"#utility.yul\":1963:1995   */\n      slt\n        /* \"#utility.yul\":1960:2079   */\n      iszero\n      tag_154\n      jumpi\n        /* \"#utility.yul\":1998:2077   */\n      tag_155\n      tag_104\n      jump\t// in\n    tag_155:\n        /* \"#utility.yul\":1960:2079   */\n    tag_154:\n        /* \"#utility.yul\":2118:2119   */\n      0x00\n        /* \"#utility.yul\":2143:2196   */\n      tag_156\n        /* \"#utility.yul\":2188:2195   */\n      dup5\n        /* \"#utility.yul\":2179:2185   */\n      dup3\n        /* \"#utility.yul\":2168:2177   */\n      dup6\n        /* \"#utility.yul\":2164:2186   */\n      add\n        /* \"#utility.yul\":2143:2196   */\n      tag_113\n      jump\t// in\n    tag_156:\n        /* \"#utility.yul\":2133:2196   */\n      swap2\n      pop\n        /* \"#utility.yul\":2089:2206   */\n      pop\n        /* \"#utility.yul\":1884:2213   */\n      swap3\n      swap2\n      pop\n      pop\n      jump\t// out\n        /* \"#utility.yul\":2219:2309   */\n    tag_114:\n        /* \"#utility.yul\":2253:2260   */\n      0x00\n        /* \"#utility.yul\":2296:2301   */\n      dup2\n        /* \"#utility.yul\":2289:2302   */\n      iszero\n        /* \"#utility.yul\":2282:2303   */\n      iszero\n        /* \"#utility.yul\":2271:2303   */\n      swap1\n      pop\n        /* \"#utility.yul\":2219:2309   */\n      swap2\n      swap1\n      pop\n      jump\t// out\n        /* \"#utility.yul\":2315:2424   */\n    tag_115:\n        /* \"#utility.yul\":2396:2417   */\n      tag_159\n        /* \"#utility.yul\":2411:2416   */\n      dup2\n        /* \"#utility.yul\":2396:2417   */\n      tag_114\n      jump\t// in\n    tag_159:\n        /* \"#utility.yul\":2391:2394   */\n      dup3\n        /* \"#utility.yul\":2384:2418   */\n      mstore\n        /* \"#utility.yul\":2315:2424   */\n      pop\n      pop\n      jump\t// out\n        /* \"#utility.yul\":2430:2640   */\n    tag_38:\n        /* \"#utility.yul\":2517:2521   */\n      0x00\n        /* \"#utility.yul\":2555:2557   */\n      0x20\n        /* \"#utility.yul\":2544:2553   */\n      dup3\n        /* \"#utility.yul\":2540:2558   */\n      add\n        /* \"#utility.yul\":2532:2558   */\n      swap1\n      pop\n        /* \"#utility.yul\":2568:2633   */\n      tag_161\n        /* \"#utility.yul\":2630:2631   */\n      0x00\n        /* \"#utility.yul\":2619:2628   */\n      dup4\n        /* \"#utility.yul\":2615:2632   */\n      add\n        /* \"#utility.yul\":2606:2612   */\n      dup5\n        /* \"#utility.yul\":2568:2633   */\n      tag_115\n      jump\t// in\n    tag_161:\n        /* \"#utility.yul\":2430:2640   */\n      swap3\n      swap2\n      pop\n      pop\n      jump\t// out\n        /* \"#utility.yul\":2646:2826   */\n    tag_116:\n        /* \"#utility.yul\":2694:2771   */\n      0x4e487b7100000000000000000000000000000000000000000000000000000000\n        /* \"#utility.yul\":2691:2692   */\n      0x00\n        /* \"#utility.yul\":2684:2772   */\n      mstore\n        /* \"#utility.yul\":2791:2795   */\n      0x11\n        /* \"#utility.yul\":2788:2789   */\n      0x04\n        /* \"#utility.yul\":2781:2796   */\n      mstore\n        /* \"#utility.yul\":2815:2819   */\n      0x24\n        /* \"#utility.yul\":2812:2813   */\n      0x00\n        /* \"#utility.yul\":2805:2820   */\n      revert\n        /* \"#utility.yul\":2832:3026   */\n    tag_51:\n        /* \"#utility.yul\":2872:2876   */\n      0x00\n        /* \"#utility.yul\":2892:2912   */\n      tag_164\n        /* \"#utility.yul\":2910:2911   */\n      dup3\n        /* \"#utility.yul\":2892:2912   */\n      tag_110\n      jump\t// in\n    tag_164:\n        /* \"#utility.yul\":2887:2912   */\n      swap2\n      pop\n        /* \"#utility.yul\":2926:2946   */\n      tag_165\n        /* \"#utility.yul\":2944:2945   */\n      dup4\n        /* \"#utility.yul\":2926:2946   */\n      tag_110\n      jump\t// in\n    tag_165:\n        /* \"#utility.yul\":2921:2946   */\n      swap3\n      pop\n        /* \"#utility.yul\":2970:2971   */\n      dup3\n        /* \"#utility.yul\":2967:2968   */\n      dup3\n        /* \"#utility.yul\":2963:2972   */\n      sub\n        /* \"#utility.yul\":2955:2972   */\n      swap1\n      pop\n        /* \"#utility.yul\":2994:2995   */\n      dup2\n        /* \"#utility.yul\":2988:2992   */\n      dup2\n        /* \"#utility.yul\":2985:2996   */\n      gt\n        /* \"#utility.yul\":2982:3019   */\n      iszero\n      tag_166\n      jumpi\n        /* \"#utility.yul\":2999:3017   */\n      tag_167\n      tag_116\n      jump\t// in\n    tag_167:\n        /* \"#utility.yul\":2982:3019   */\n    tag_166:\n        /* \"#utility.yul\":2832:3026   */\n      swap3\n      swap2\n      pop\n      pop\n      jump\t// out\n        /* \"#utility.yul\":3032:3223   */\n    tag_53:\n        /* \"#utility.yul\":3072:3075   */\n      0x00\n        /* \"#utility.yul\":3091:3111   */\n      tag_169\n        /* \"#utility.yul\":3109:3110   */\n      dup3\n        /* \"#utility.yul\":3091:3111   */\n      tag_110\n      jump\t// in\n    tag_169:\n        /* \"#utility.yul\":3086:3111   */\n      swap2\n      pop\n        /* \"#utility.yul\":3125:3145   */\n      tag_170\n        /* \"#utility.yul\":3143:3144   */\n      dup4\n        /* \"#utility.yul\":3125:3145   */\n      tag_110\n      jump\t// in\n    tag_170:\n        /* \"#utility.yul\":3120:3145   */\n      swap3\n      pop\n        /* \"#utility.yul\":3168:3169   */\n      dup3\n        /* \"#utility.yul\":3165:3166   */\n      dup3\n        /* \"#utility.yul\":3161:3170   */\n      add\n        /* \"#utility.yul\":3154:3170   */\n      swap1\n      pop\n        /* \"#utility.yul\":3189:3192   */\n      dup1\n        /* \"#utility.yul\":3186:3187   */\n      dup3\n        /* \"#utility.yul\":3183:3193   */\n      gt\n        /* \"#utility.yul\":3180:3216   */\n      iszero\n      tag_171\n      jumpi\n        /* \"#utility.yul\":3196:3214   */\n      tag_172\n      tag_116\n      jump\t// in\n    tag_172:\n        /* \"#utility.yul\":3180:3216   */\n    tag_171:\n        /* \"#utility.yul\":3032:3223   */\n      swap3\n      swap2\n      pop\n      pop\n      jump\t// out\n        /* \"#utility.yul\":3229:3398   */\n    tag_117:\n        /* \"#utility.yul\":3313:3324   */\n      0x00\n        /* \"#utility.yul\":3347:3353   */\n      dup3\n        /* \"#utility.yul\":3342:3345   */\n      dup3\n        /* \"#utility.yul\":3335:3354   */\n      mstore\n        /* \"#utility.yul\":3387:3391   */\n      0x20\n        /* \"#utility.yul\":3382:3385   */\n      dup3\n        /* \"#utility.yul\":3378:3392   */\n      add\n        /* \"#utility.yul\":3363:3392   */\n      swap1\n      pop\n        /* \"#utility.yul\":3229:3398   */\n      swap3\n      swap2\n      pop\n      pop\n      jump\t// out\n        /* \"#utility.yul\":3404:3570   */\n    tag_118:\n        /* \"#utility.yul\":3544:3562   */\n      0x5573657220626c61636b6c697374656400000000000000000000000000000000\n        /* \"#utility.yul\":3540:3541   */\n      0x00\n        /* \"#utility.yul\":3532:3538   */\n      dup3\n        /* \"#utility.yul\":3528:3542   */\n      add\n        /* \"#utility.yul\":3521:3563   */\n      mstore\n        /* \"#utility.yul\":3404:3570   */\n      pop\n      jump\t// out\n        /* \"#utility.yul\":3576:3942   */\n    tag_119:\n        /* \"#utility.yul\":3718:3721   */\n      0x00\n        /* \"#utility.yul\":3739:3806   */\n      tag_176\n        /* \"#utility.yul\":3803:3805   */\n      0x10\n        /* \"#utility.yul\":3798:3801   */\n      dup4\n        /* \"#utility.yul\":3739:3806   */\n      tag_117\n      jump\t// in\n    tag_176:\n        /* \"#utility.yul\":3732:3806   */\n      swap2\n      pop\n        /* \"#utility.yul\":3815:3908   */\n      tag_177\n        /* \"#utility.yul\":3904:3907   */\n      dup3\n        /* \"#utility.yul\":3815:3908   */\n      tag_118\n      jump\t// in\n    tag_177:\n        /* \"#utility.yul\":3933:3935   */\n      0x20\n        /* \"#utility.yul\":3928:3931   */\n      dup3\n        /* \"#utility.yul\":3924:3936   */\n      add\n        /* \"#utility.yul\":3917:3936   */\n      swap1\n      pop\n        /* \"#utility.yul\":3576:3942   */\n      swap2\n      swap1\n      pop\n      jump\t// out\n        /* \"#utility.yul\":3948:4367   */\n    tag_80:\n        /* \"#utility.yul\":4114:4118   */\n      0x00\n        /* \"#utility.yul\":4152:4154   */\n      0x20\n        /* \"#utility.yul\":4141:4150   */\n      dup3\n        /* \"#utility.yul\":4137:4155   */\n      add\n        /* \"#utility.yul\":4129:4155   */\n      swap1\n      pop\n        /* \"#utility.yul\":4201:4210   */\n      dup2\n        /* \"#utility.yul\":4195:4199   */\n      dup2\n        /* \"#utility.yul\":4191:4211   */\n      sub\n        /* \"#utility.yul\":4187:4188   */\n      0x00\n        /* \"#utility.yul\":4176:4185   */\n      dup4\n        /* \"#utility.yul\":4172:4189   */\n      add\n        /* \"#utility.yul\":4165:4212   */\n      mstore\n        /* \"#utility.yul\":4229:4360   */\n      tag_179\n        /* \"#utility.yul\":4355:4359   */\n      dup2\n        /* \"#utility.yul\":4229:4360   */\n      tag_119\n      jump\t// in\n    tag_179:\n        /* \"#utility.yul\":4221:4360   */\n      swap1\n      pop\n        /* \"#utility.yul\":3948:4367   */\n      swap2\n      swap1\n      pop\n      jump\t// out\n        /* \"#utility.yul\":4373:4541   */\n    tag_120:\n        /* \"#utility.yul\":4513:4533   */\n      0x416d6f756e74206d757374206265203e20300000000000000000000000000000\n        /* \"#utility.yul\":4509:4510   */\n      0x00\n        /* \"#utility.yul\":4501:4507   */\n      dup3\n        /* \"#utility.yul\":4497:4511   */\n      add\n        /* \"#utility.yul\":4490:4534   */\n      mstore\n        /* \"#utility.yul\":4373:4541   */\n      pop\n      jump\t// out\n        /* \"#utility.yul\":4547:4913   */\n    tag_121:\n        /* \"#utility.yul\":4689:4692   */\n      0x00\n        /* \"#utility.yul\":4710:4777   */\n      tag_182\n        /* \"#utility.yul\":4774:4776   */\n      0x12\n        /* \"#utility.yul\":4769:4772   */\n      dup4\n        /* \"#utility.yul\":4710:4777   */\n      tag_117\n      jump\t// in\n    tag_182:\n        /* \"#utility.yul\":4703:4777   */\n      swap2\n      pop\n        /* \"#utility.yul\":4786:4879   */\n      tag_183\n        /* \"#utility.yul\":4875:4878   */\n      dup3\n        /* \"#utility.yul\":4786:4879   */\n      tag_120\n      jump\t// in\n    tag_183:\n        /* \"#utility.yul\":4904:4906   */\n      0x20\n        /* \"#utility.yul\":4899:4902   */\n      dup3\n        /* \"#utility.yul\":4895:4907   */\n      add\n        /* \"#utility.yul\":4888:4907   */\n      swap1\n      pop\n        /* \"#utility.yul\":4547:4913   */\n      swap2\n      swap1\n      pop\n      jump\t// out\n        /* \"#utility.yul\":4919:5338   */\n    tag_84:\n        /* \"#utility.yul\":5085:5089   */\n      0x00\n        /* \"#utility.yul\":5123:5125   */\n      0x20\n        /* \"#utility.yul\":5112:5121   */\n      dup3\n        /* \"#utility.yul\":5108:5126   */\n      add\n        /* \"#utility.yul\":5100:5126   */\n      swap1\n      pop\n        /* \"#utility.yul\":5172:5181   */\n      dup2\n        /* \"#utility.yul\":5166:5170   */\n      dup2\n        /* \"#utility.yul\":5162:5182   */\n      sub\n        /* \"#utility.yul\":5158:5159   */\n      0x00\n        /* \"#utility.yul\":5147:5156   */\n      dup4\n        /* \"#utility.yul\":5143:5160   */\n      add\n        /* \"#utility.yul\":5136:5183   */\n      mstore\n        /* \"#utility.yul\":5200:5331   */\n      tag_185\n        /* \"#utility.yul\":5326:5330   */\n      dup2\n        /* \"#utility.yul\":5200:5331   */\n      tag_121\n      jump\t// in\n    tag_185:\n        /* \"#utility.yul\":5192:5331   */\n      swap1\n      pop\n        /* \"#utility.yul\":4919:5338   */\n      swap2\n      swap1\n      pop\n      jump\t// out\n        /* \"#utility.yul\":5344:5510   */\n    tag_122:\n        /* \"#utility.yul\":5484:5502   */\n      0x416d6f756e7420746f6f206c6172676500000000000000000000000000000000\n        /* \"#utility.yul\":5480:5481   */\n      0x00\n        /* \"#utility.yul\":5472:5478   */\n      dup3\n        /* \"#utility.yul\":5468:5482   */\n      add\n        /* \"#utility.yul\":5461:5503   */\n      mstore\n        /* \"#utility.yul\":5344:5510   */\n      pop\n      jump\t// out\n        /* \"#utility.yul\":5516:5882   */\n    tag_123:\n        /* \"#utility.yul\":5658:5661   */\n      0x00\n        /* \"#utility.yul\":5679:5746   */\n      tag_188\n        /* \"#utility.yul\":5743:5745   */\n      0x10\n        /* \"#utility.yul\":5738:5741   */\n      dup4\n        /* \"#utility.yul\":5679:5746   */\n      tag_117\n      jump\t// in\n    tag_188:\n        /* \"#utility.yul\":5672:5746   */\n      swap2\n      pop\n        /* \"#utility.yul\":5755:5848   */\n      tag_189\n        /* \"#utility.yul\":5844:5847   */\n      dup3\n        /* \"#utility.yul\":5755:5848   */\n      tag_122\n      jump\t// in\n    tag_189:\n        /* \"#utility.yul\":5873:5875   */\n      0x20\n        /* \"#utility.yul\":5868:5871   */\n      dup3\n        /* \"#utility.yul\":5864:5876   */\n      add\n        /* \"#utility.yul\":5857:5876   */\n      swap1\n      pop\n        /* \"#utility.yul\":5516:5882   */\n      swap2\n      swap1\n      pop\n      jump\t// out\n        /* \"#utility.yul\":5888:6307   */\n    tag_87:\n        /* \"#utility.yul\":6054:6058   */\n      0x00\n        /* \"#utility.yul\":6092:6094   */\n      0x20\n        /* \"#utility.yul\":6081:6090   */\n      dup3\n        /* \"#utility.yul\":6077:6095   */\n      add\n        /* \"#utility.yul\":6069:6095   */\n      swap1\n      pop\n        /* \"#utility.yul\":6141:6150   */\n      dup2\n        /* \"#utility.yul\":6135:6139   */\n      dup2\n        /* \"#utility.yul\":6131:6151   */\n      sub\n        /* \"#utility.yul\":6127:6128   */\n      0x00\n        /* \"#utility.yul\":6116:6125   */\n      dup4\n        /* \"#utility.yul\":6112:6129   */\n      add\n        /* \"#utility.yul\":6105:6152   */\n      mstore\n        /* \"#utility.yul\":6169:6300   */\n      tag_191\n        /* \"#utility.yul\":6295:6299   */\n      dup2\n        /* \"#utility.yul\":6169:6300   */\n      tag_123\n      jump\t// in\n    tag_191:\n        /* \"#utility.yul\":6161:6300   */\n      swap1\n      pop\n        /* \"#utility.yul\":5888:6307   */\n      swap2\n      swap1\n      pop\n      jump\t// out\n        /* \"#utility.yul\":6313:6723   */\n    tag_92:\n        /* \"#utility.yul\":6353:6360   */\n      0x00\n        /* \"#utility.yul\":6376:6396   */\n      tag_193\n        /* \"#utility.yul\":6394:6395   */\n      dup3\n        /* \"#utility.yul\":6376:6396   */\n      tag_110\n      jump\t// in\n    tag_193:\n        /* \"#utility.yul\":6371:6396   */\n      swap2\n      pop\n        /* \"#utility.yul\":6410:6430   */\n      tag_194\n        /* \"#utility.yul\":6428:6429   */\n      dup4\n        /* \"#utility.yul\":6410:6430   */\n      tag_110\n      jump\t// in\n    tag_194:\n        /* \"#utility.yul\":6405:6430   */\n      swap3\n      pop\n        /* \"#utility.yul\":6465:6466   */\n      dup3\n        /* \"#utility.yul\":6462:6463   */\n      dup3\n        /* \"#utility.yul\":6458:6467   */\n      mul\n        /* \"#utility.yul\":6487:6517   */\n      tag_195\n        /* \"#utility.yul\":6505:6516   */\n      dup2\n        /* \"#utility.yul\":6487:6517   */\n      tag_110\n      jump\t// in\n    tag_195:\n        /* \"#utility.yul\":6476:6517   */\n      swap2\n      pop\n        /* \"#utility.yul\":6666:6667   */\n      dup3\n        /* \"#utility.yul\":6657:6664   */\n      dup3\n        /* \"#utility.yul\":6653:6668   */\n      div\n        /* \"#utility.yul\":6650:6651   */\n      dup5\n        /* \"#utility.yul\":6647:6669   */\n      eq\n        /* \"#utility.yul\":6627:6628   */\n      dup4\n        /* \"#utility.yul\":6620:6629   */\n      iszero\n        /* \"#utility.yul\":6600:6683   */\n      or\n        /* \"#utility.yul\":6577:6716   */\n      tag_196\n      jumpi\n        /* \"#utility.yul\":6696:6714   */\n      tag_197\n      tag_116\n      jump\t// in\n    tag_197:\n        /* \"#utility.yul\":6577:6716   */\n    tag_196:\n        /* \"#utility.yul\":6361:6723   */\n      pop\n        /* \"#utility.yul\":6313:6723   */\n      swap3\n      swap2\n      pop\n      pop\n      jump\t// out\n        /* \"#utility.yul\":6729:6909   */\n    tag_124:\n        /* \"#utility.yul\":6777:6854   */\n      0x4e487b7100000000000000000000000000000000000000000000000000000000\n        /* \"#utility.yul\":6774:6775   */\n      0x00\n        /* \"#utility.yul\":6767:6855   */\n      mstore\n        /* \"#utility.yul\":6874:6878   */\n      0x12\n        /* \"#utility.yul\":6871:6872   */\n      0x04\n        /* \"#utility.yul\":6864:6879   */\n      mstore\n        /* \"#utility.yul\":6898:6902   */\n      0x24\n        /* \"#utility.yul\":6895:6896   */\n      0x00\n        /* \"#utility.yul\":6888:6903   */\n      revert\n        /* \"#utility.yul\":6915:7100   */\n    tag_94:\n        /* \"#utility.yul\":6955:6956   */\n      0x00\n        /* \"#utility.yul\":6972:6992   */\n      tag_200\n        /* \"#utility.yul\":6990:6991   */\n      dup3\n        /* \"#utility.yul\":6972:6992   */\n      tag_110\n      jump\t// in\n    tag_200:\n        /* \"#utility.yul\":6967:6992   */\n      swap2\n      pop\n        /* \"#utility.yul\":7006:7026   */\n      tag_201\n        /* \"#utility.yul\":7024:7025   */\n      dup4\n        /* \"#utility.yul\":7006:7026   */\n      tag_110\n      jump\t// in\n    tag_201:\n        /* \"#utility.yul\":7001:7026   */\n      swap3\n      pop\n        /* \"#utility.yul\":7045:7046   */\n      dup3\n        /* \"#utility.yul\":7035:7070   */\n      tag_202\n      jumpi\n        /* \"#utility.yul\":7050:7068   */\n      tag_203\n      tag_124\n      jump\t// in\n    tag_203:\n        /* \"#utility.yul\":7035:7070   */\n    tag_202:\n        /* \"#utility.yul\":7092:7093   */\n      dup3\n        /* \"#utility.yul\":7089:7090   */\n      dup3\n        /* \"#utility.yul\":7085:7094   */\n      div\n        /* \"#utility.yul\":7080:7094   */\n      swap1\n      pop\n        /* \"#utility.yul\":6915:7100   */\n      swap3\n      swap2\n      pop\n      pop\n      jump\t// out\n        /* \"#utility.yul\":7106:7276   */\n    tag_125:\n        /* \"#utility.yul\":7246:7268   */\n      0x496e73756666696369656e742062616c616e6365000000000000000000000000\n        /* \"#utility.yul\":7242:7243   */\n      0x00\n        /* \"#utility.yul\":7234:7240   */\n      dup3\n        /* \"#utility.yul\":7230:7244   */\n      add\n        /* \"#utility.yul\":7223:7269   */\n      mstore\n        /* \"#utility.yul\":7106:7276   */\n      pop\n      jump\t// out\n        /* \"#utility.yul\":7282:7648   */\n    tag_126:\n        /* \"#utility.yul\":7424:7427   */\n      0x00\n        /* \"#utility.yul\":7445:7512   */\n      tag_206\n        /* \"#utility.yul\":7509:7511   */\n      0x14\n        /* \"#utility.yul\":7504:7507   */\n      dup4\n        /* \"#utility.yul\":7445:7512   */\n      tag_117\n      jump\t// in\n    tag_206:\n        /* \"#utility.yul\":7438:7512   */\n      swap2\n      pop\n        /* \"#utility.yul\":7521:7614   */\n      tag_207\n        /* \"#utility.yul\":7610:7613   */\n      dup3\n        /* \"#utility.yul\":7521:7614   */\n      tag_125\n      jump\t// in\n    tag_207:\n        /* \"#utility.yul\":7639:7641   */\n      0x20\n        /* \"#utility.yul\":7634:7637   */\n      dup3\n        /* \"#utility.yul\":7630:7642   */\n      add\n        /* \"#utility.yul\":7623:7642   */\n      swap1\n      pop\n        /* \"#utility.yul\":7282:7648   */\n      swap2\n      swap1\n      pop\n      jump\t// out\n        /* \"#utility.yul\":7654:8073   */\n    tag_99:\n        /* \"#utility.yul\":7820:7824   */\n      0x00\n        /* \"#utility.yul\":7858:7860   */\n      0x20\n        /* \"#utility.yul\":7847:7856   */\n      dup3\n        /* \"#utility.yul\":7843:7861   */\n      add\n        /* \"#utility.yul\":7835:7861   */\n      swap1\n      pop\n        /* \"#utility.yul\":7907:7916   */\n      dup2\n        /* \"#utility.yul\":7901:7905   */\n      dup2\n        /* \"#utility.yul\":7897:7917   */\n      sub\n        /* \"#utility.yul\":7893:7894   */\n      0x00\n        /* \"#utility.yul\":7882:7891   */\n      dup4\n        /* \"#utility.yul\":7878:7895   */\n      add\n        /* \"#utility.yul\":7871:7918   */\n      mstore\n        /* \"#utility.yul\":7935:8066   */\n      tag_209\n        /* \"#utility.yul\":8061:8065   */\n      dup2\n        /* \"#utility.yul\":7935:8066   */\n      tag_126\n      jump\t// in\n    tag_209:\n        /* \"#utility.yul\":7927:8066   */\n      swap1\n      pop\n        /* \"#utility.yul\":7654:8073   */\n      swap2\n      swap1\n      pop\n      jump\t// out\n\n    auxdata: 0xa264697066735822122019922b1c92e1bb9f5ee769f8ac89984d4e7fdc4a0d17aa1c5817a42740ab328c64736f6c63430008220033\n}\n",
				"bytecode": {
					"linkReferences": {},
					"object": "6080604052348015600e575f5ffd5b506109918061001c5f395ff3fe608060405234801561000f575f5ffd5b506004361061007b575f3560e01c8063452fe9c911610059578063452fe9c9146100e75780637d88209714610117578063b6b55f2514610135578063dbac26e9146101515761007b565b806327e235e31461007f5780632e1a7d4d146100af5780632f7c9ed6146100cb575b5f5ffd5b61009960048036038101906100949190610596565b610181565b6040516100a691906105d9565b60405180910390f35b6100c960048036038101906100c4919061061c565b610195565b005b6100e560048036038101906100e0919061061c565b6101a1565b005b61010160048036038101906100fc919061061c565b6101b8565b60405161010e91906105d9565b60405180910390f35b61011f6101f1565b60405161012c91906105d9565b60405180910390f35b61014f600480360381019061014a919061061c565b6101f7565b005b61016b60048036038101906101669190610596565b61021f565b6040516101789190610661565b60405180910390f35b5f602052805f5260405f205f915090505481565b61019e8161023c565b50565b6101aa81610268565b6101b533600a610290565b50565b5f5f82036101c8575f90506101ec565b6101dd6001836101d891906106a7565b6101b8565b60016101e991906106da565b90505b919050565b60025481565b610200336102e6565b61020981610373565b6102133382610290565b61021c816103fc565b50565b6001602052805f5260405f205f915054906101000a900460ff1681565b610245336102e6565b5f61024f82610417565b905061025b3383610448565b6102648161051d565b5050565b610271336102e6565b61027a81610373565b6102843382610290565b61028d816103fc565b50565b805f5f8473ffffffffffffffffffffffffffffffffffffffff1673ffffffffffffffffffffffffffffffffffffffff1681526020019081526020015f205f8282546102db91906106da565b925050819055505050565b60015f8273ffffffffffffffffffffffffffffffffffffffff1673ffffffffffffffffffffffffffffffffffffffff1681526020019081526020015f205f9054906101000a900460ff1615610370576040517f08c379a000000000000000000000000000000000000000000000000000000000815260040161036790610767565b60405180910390fd5b50565b5f81116103b5576040517f08c379a00000000000000000000000000000000000000000000000000000000081526004016103ac906107cf565b60405180910390fd5b60648111156103f9576040517f08c379a00000000000000000000000000000000000000000000000000000000081526004016103f090610837565b60405180910390fd5b50565b8060025f82825461040d91906106da565b9250508190555050565b5f5f60646002846104289190610855565b61043291906108c3565b9050808361044091906106a7565b915050919050565b805f5f8473ffffffffffffffffffffffffffffffffffffffff1673ffffffffffffffffffffffffffffffffffffffff1681526020019081526020015f205410156104c7576040517f08c379a00000000000000000000000000000000000000000000000000000000081526004016104be9061093d565b60405180910390fd5b805f5f8473ffffffffffffffffffffffffffffffffffffffff1673ffffffffffffffffffffffffffffffffffffffff1681526020019081526020015f205f82825461051291906106a7565b925050819055505050565b8060025f82825461052e91906106a7565b9250508190555050565b5f5ffd5b5f73ffffffffffffffffffffffffffffffffffffffff82169050919050565b5f6105658261053c565b9050919050565b6105758161055b565b811461057f575f5ffd5b50565b5f813590506105908161056c565b92915050565b5f602082840312156105ab576105aa610538565b5b5f6105b884828501610582565b91505092915050565b5f819050919050565b6105d3816105c1565b82525050565b5f6020820190506105ec5f8301846105ca565b92915050565b6105fb816105c1565b8114610605575f5ffd5b50565b5f81359050610616816105f2565b92915050565b5f6020828403121561063157610630610538565b5b5f61063e84828501610608565b91505092915050565b5f8115159050919050565b61065b81610647565b82525050565b5f6020820190506106745f830184610652565b92915050565b7f4e487b71000000000000000000000000000000000000000000000000000000005f52601160045260245ffd5b5f6106b1826105c1565b91506106bc836105c1565b92508282039050818111156106d4576106d361067a565b5b92915050565b5f6106e4826105c1565b91506106ef836105c1565b92508282019050808211156107075761070661067a565b5b92915050565b5f82825260208201905092915050565b7f5573657220626c61636b6c6973746564000000000000000000000000000000005f82015250565b5f61075160108361070d565b915061075c8261071d565b602082019050919050565b5f6020820190508181035f83015261077e81610745565b9050919050565b7f416d6f756e74206d757374206265203e203000000000000000000000000000005f82015250565b5f6107b960128361070d565b91506107c482610785565b602082019050919050565b5f6020820190508181035f8301526107e6816107ad565b9050919050565b7f416d6f756e7420746f6f206c61726765000000000000000000000000000000005f82015250565b5f61082160108361070d565b915061082c826107ed565b602082019050919050565b5f6020820190508181035f83015261084e81610815565b9050919050565b5f61085f826105c1565b915061086a836105c1565b9250828202610878816105c1565b9150828204841483151761088f5761088e61067a565b5b5092915050565b7f4e487b71000000000000000000000000000000000000000000000000000000005f52601260045260245ffd5b5f6108cd826105c1565b91506108d8836105c1565b9250826108e8576108e7610896565b5b828204905092915050565b7f496e73756666696369656e742062616c616e63650000000000000000000000005f82015250565b5f61092760148361070d565b9150610932826108f3565b602082019050919050565b5f6020820190508181035f8301526109548161091b565b905091905056fea264697066735822122019922b1c92e1bb9f5ee769f8ac89984d4e7fdc4a0d17aa1c5817a42740ab328c64736f6c63430008220033",
					"opcodes": "PUSH1 0x80 PUSH1 0x40 MSTORE CALLVALUE DUP1 ISZERO PUSH1 0xE JUMPI PUSH0 PUSH0 REVERT JUMPDEST POP PUSH2 0x991 DUP1 PUSH2 0x1C PUSH0 CODECOPY PUSH0 RETURN INVALID PUSH1 0x80 PUSH1 0x40 MSTORE CALLVALUE DUP1 ISZERO PUSH2 0xF JUMPI PUSH0 PUSH0 REVERT JUMPDEST POP PUSH1 0x4 CALLDATASIZE LT PUSH2 0x7B JUMPI PUSH0 CALLDATALOAD PUSH1 0xE0 SHR DUP1 PUSH4 0x452FE9C9 GT PUSH2 0x59 JUMPI DUP1 PUSH4 0x452FE9C9 EQ PUSH2 0xE7 JUMPI DUP1 PUSH4 0x7D882097 EQ PUSH2 0x117 JUMPI DUP1 PUSH4 0xB6B55F25 EQ PUSH2 0x135 JUMPI DUP1 PUSH4 0xDBAC26E9 EQ PUSH2 0x151 JUMPI PUSH2 0x7B JUMP JUMPDEST DUP1 PUSH4 0x27E235E3 EQ PUSH2 0x7F JUMPI DUP1 PUSH4 0x2E1A7D4D EQ PUSH2 0xAF JUMPI DUP1 PUSH4 0x2F7C9ED6 EQ PUSH2 0xCB JUMPI JUMPDEST PUSH0 PUSH0 REVERT JUMPDEST PUSH2 0x99 PUSH1 0x4 DUP1 CALLDATASIZE SUB DUP2 ADD SWAP1 PUSH2 0x94 SWAP2 SWAP1 PUSH2 0x596 JUMP JUMPDEST PUSH2 0x181 JUMP JUMPDEST PUSH1 0x40 MLOAD PUSH2 0xA6 SWAP2 SWAP1 PUSH2 0x5D9 JUMP JUMPDEST PUSH1 0x40 MLOAD DUP1 SWAP2 SUB SWAP1 RETURN JUMPDEST PUSH2 0xC9 PUSH1 0x4 DUP1 CALLDATASIZE SUB DUP2 ADD SWAP1 PUSH2 0xC4 SWAP2 SWAP1 PUSH2 0x61C JUMP JUMPDEST PUSH2 0x195 JUMP JUMPDEST STOP JUMPDEST PUSH2 0xE5 PUSH1 0x4 DUP1 CALLDATASIZE SUB DUP2 ADD SWAP1 PUSH2 0xE0 SWAP2 SWAP1 PUSH2 0x61C JUMP JUMPDEST PUSH2 0x1A1 JUMP JUMPDEST STOP JUMPDEST PUSH2 0x101 PUSH1 0x4 DUP1 CALLDATASIZE SUB DUP2 ADD SWAP1 PUSH2 0xFC SWAP2 SWAP1 PUSH2 0x61C JUMP JUMPDEST PUSH2 0x1B8 JUMP JUMPDEST PUSH1 0x40 MLOAD PUSH2 0x10E SWAP2 SWAP1 PUSH2 0x5D9 JUMP JUMPDEST PUSH1 0x40 MLOAD DUP1 SWAP2 SUB SWAP1 RETURN JUMPDEST PUSH2 0x11F PUSH2 0x1F1 JUMP JUMPDEST PUSH1 0x40 MLOAD PUSH2 0x12C SWAP2 SWAP1 PUSH2 0x5D9 JUMP JUMPDEST PUSH1 0x40 MLOAD DUP1 SWAP2 SUB SWAP1 RETURN JUMPDEST PUSH2 0x14F PUSH1 0x4 DUP1 CALLDATASIZE SUB DUP2 ADD SWAP1 PUSH2 0x14A SWAP2 SWAP1 PUSH2 0x61C JUMP JUMPDEST PUSH2 0x1F7 JUMP JUMPDEST STOP JUMPDEST PUSH2 0x16B PUSH1 0x4 DUP1 CALLDATASIZE SUB DUP2 ADD SWAP1 PUSH2 0x166 SWAP2 SWAP1 PUSH2 0x596 JUMP JUMPDEST PUSH2 0x21F JUMP JUMPDEST PUSH1 0x40 MLOAD PUSH2 0x178 SWAP2 SWAP1 PUSH2 0x661 JUMP JUMPDEST PUSH1 0x40 MLOAD DUP1 SWAP2 SUB SWAP1 RETURN JUMPDEST PUSH0 PUSH1 0x20 MSTORE DUP1 PUSH0 MSTORE PUSH1 0x40 PUSH0 KECCAK256 PUSH0 SWAP2 POP SWAP1 POP SLOAD DUP2 JUMP JUMPDEST PUSH2 0x19E DUP2 PUSH2 0x23C JUMP JUMPDEST POP JUMP JUMPDEST PUSH2 0x1AA DUP2 PUSH2 0x268 JUMP JUMPDEST PUSH2 0x1B5 CALLER PUSH1 0xA PUSH2 0x290 JUMP JUMPDEST POP JUMP JUMPDEST PUSH0 PUSH0 DUP3 SUB PUSH2 0x1C8 JUMPI PUSH0 SWAP1 POP PUSH2 0x1EC JUMP JUMPDEST PUSH2 0x1DD PUSH1 0x1 DUP4 PUSH2 0x1D8 SWAP2 SWAP1 PUSH2 0x6A7 JUMP JUMPDEST PUSH2 0x1B8 JUMP JUMPDEST PUSH1 0x1 PUSH2 0x1E9 SWAP2 SWAP1 PUSH2 0x6DA JUMP JUMPDEST SWAP1 POP JUMPDEST SWAP2 SWAP1 POP JUMP JUMPDEST PUSH1 0x2 SLOAD DUP2 JUMP JUMPDEST PUSH2 0x200 CALLER PUSH2 0x2E6 JUMP JUMPDEST PUSH2 0x209 DUP2 PUSH2 0x373 JUMP JUMPDEST PUSH2 0x213 CALLER DUP3 PUSH2 0x290 JUMP JUMPDEST PUSH2 0x21C DUP2 PUSH2 0x3FC JUMP JUMPDEST POP JUMP JUMPDEST PUSH1 0x1 PUSH1 0x20 MSTORE DUP1 PUSH0 MSTORE PUSH1 0x40 PUSH0 KECCAK256 PUSH0 SWAP2 POP SLOAD SWAP1 PUSH2 0x100 EXP SWAP1 DIV PUSH1 0xFF AND DUP2 JUMP JUMPDEST PUSH2 0x245 CALLER PUSH2 0x2E6 JUMP JUMPDEST PUSH0 PUSH2 0x24F DUP3 PUSH2 0x417 JUMP JUMPDEST SWAP1 POP PUSH2 0x25B CALLER DUP4 PUSH2 0x448 JUMP JUMPDEST PUSH2 0x264 DUP2 PUSH2 0x51D JUMP JUMPDEST POP POP JUMP JUMPDEST PUSH2 0x271 CALLER PUSH2 0x2E6 JUMP JUMPDEST PUSH2 0x27A DUP2 PUSH2 0x373 JUMP JUMPDEST PUSH2 0x284 CALLER DUP3 PUSH2 0x290 JUMP JUMPDEST PUSH2 0x28D DUP2 PUSH2 0x3FC JUMP JUMPDEST POP JUMP JUMPDEST DUP1 PUSH0 PUSH0 DUP5 PUSH20 0xFFFFFFFFFFFFFFFFFFFFFFFFFFFFFFFFFFFFFFFF AND PUSH20 0xFFFFFFFFFFFFFFFFFFFFFFFFFFFFFFFFFFFFFFFF AND DUP2 MSTORE PUSH1 0x20 ADD SWAP1 DUP2 MSTORE PUSH1 0x20 ADD PUSH0 KECCAK256 PUSH0 DUP3 DUP3 SLOAD PUSH2 0x2DB SWAP2 SWAP1 PUSH2 0x6DA JUMP JUMPDEST SWAP3 POP POP DUP2 SWAP1 SSTORE POP POP POP JUMP JUMPDEST PUSH1 0x1 PUSH0 DUP3 PUSH20 0xFFFFFFFFFFFFFFFFFFFFFFFFFFFFFFFFFFFFFFFF AND PUSH20 0xFFFFFFFFFFFFFFFFFFFFFFFFFFFFFFFFFFFFFFFF AND DUP2 MSTORE PUSH1 0x20 ADD SWAP1 DUP2 MSTORE PUSH1 0x20 ADD PUSH0 KECCAK256 PUSH0 SWAP1 SLOAD SWAP1 PUSH2 0x100 EXP SWAP1 DIV PUSH1 0xFF AND ISZERO PUSH2 0x370 JUMPI PUSH1 0x40 MLOAD PUSH32 0x8C379A000000000000000000000000000000000000000000000000000000000 DUP2 MSTORE PUSH1 0x4 ADD PUSH2 0x367 SWAP1 PUSH2 0x767 JUMP JUMPDEST PUSH1 0x40 MLOAD DUP1 SWAP2 SUB SWAP1 REVERT JUMPDEST POP JUMP JUMPDEST PUSH0 DUP2 GT PUSH2 0x3B5 JUMPI PUSH1 0x40 MLOAD PUSH32 0x8C379A000000000000000000000000000000000000000000000000000000000 DUP2 MSTORE PUSH1 0x4 ADD PUSH2 0x3AC SWAP1 PUSH2 0x7CF JUMP JUMPDEST PUSH1 0x40 MLOAD DUP1 SWAP2 SUB SWAP1 REVERT JUMPDEST PUSH1 0x64 DUP2 GT ISZERO PUSH2 0x3F9 JUMPI PUSH1 0x40 MLOAD PUSH32 0x8C379A000000000000000000000000000000000000000000000000000000000 DUP2 MSTORE PUSH1 0x4 ADD PUSH2 0x3F0 SWAP1 PUSH2 0x837 JUMP JUMPDEST PUSH1 0x40 MLOAD DUP1 SWAP2 SUB SWAP1 REVERT JUMPDEST POP JUMP JUMPDEST DUP1 PUSH1 0x2 PUSH0 DUP3 DUP3 SLOAD PUSH2 0x40D SWAP2 SWAP1 PUSH2 0x6DA JUMP JUMPDEST SWAP3 POP POP DUP2 SWAP1 SSTORE POP POP JUMP JUMPDEST PUSH0 PUSH0 PUSH1 0x64 PUSH1 0x2 DUP5 PUSH2 0x428 SWAP2 SWAP1 PUSH2 0x855 JUMP JUMPDEST PUSH2 0x432 SWAP2 SWAP1 PUSH2 0x8C3 JUMP JUMPDEST SWAP1 POP DUP1 DUP4 PUSH2 0x440 SWAP2 SWAP1 PUSH2 0x6A7 JUMP JUMPDEST SWAP2 POP POP SWAP2 SWAP1 POP JUMP JUMPDEST DUP1 PUSH0 PUSH0 DUP5 PUSH20 0xFFFFFFFFFFFFFFFFFFFFFFFFFFFFFFFFFFFFFFFF AND PUSH20 0xFFFFFFFFFFFFFFFFFFFFFFFFFFFFFFFFFFFFFFFF AND DUP2 MSTORE PUSH1 0x20 ADD SWAP1 DUP2 MSTORE PUSH1 0x20 ADD PUSH0 KECCAK256 SLOAD LT ISZERO PUSH2 0x4C7 JUMPI PUSH1 0x40 MLOAD PUSH32 0x8C379A000000000000000000000000000000000000000000000000000000000 DUP2 MSTORE PUSH1 0x4 ADD PUSH2 0x4BE SWAP1 PUSH2 0x93D JUMP JUMPDEST PUSH1 0x40 MLOAD DUP1 SWAP2 SUB SWAP1 REVERT JUMPDEST DUP1 PUSH0 PUSH0 DUP5 PUSH20 0xFFFFFFFFFFFFFFFFFFFFFFFFFFFFFFFFFFFFFFFF AND PUSH20 0xFFFFFFFFFFFFFFFFFFFFFFFFFFFFFFFFFFFFFFFF AND DUP2 MSTORE PUSH1 0x20 ADD SWAP1 DUP2 MSTORE PUSH1 0x20 ADD PUSH0 KECCAK256 PUSH0 DUP3 DUP3 SLOAD PUSH2 0x512 SWAP2 SWAP1 PUSH2 0x6A7 JUMP JUMPDEST SWAP3 POP POP DUP2 SWAP1 SSTORE POP POP POP JUMP JUMPDEST DUP1 PUSH1 0x2 PUSH0 DUP3 DUP3 SLOAD PUSH2 0x52E SWAP2 SWAP1 PUSH2 0x6A7 JUMP JUMPDEST SWAP3 POP POP DUP2 SWAP1 SSTORE POP POP JUMP JUMPDEST PUSH0 PUSH0 REVERT JUMPDEST PUSH0 PUSH20 0xFFFFFFFFFFFFFFFFFFFFFFFFFFFFFFFFFFFFFFFF DUP3 AND SWAP1 POP SWAP2 SWAP1 POP JUMP JUMPDEST PUSH0 PUSH2 0x565 DUP3 PUSH2 0x53C JUMP JUMPDEST SWAP1 POP SWAP2 SWAP1 POP JUMP JUMPDEST PUSH2 0x575 DUP2 PUSH2 0x55B JUMP JUMPDEST DUP2 EQ PUSH2 0x57F JUMPI PUSH0 PUSH0 REVERT JUMPDEST POP JUMP JUMPDEST PUSH0 DUP2 CALLDATALOAD SWAP1 POP PUSH2 0x590 DUP2 PUSH2 0x56C JUMP JUMPDEST SWAP3 SWAP2 POP POP JUMP JUMPDEST PUSH0 PUSH1 0x20 DUP3 DUP5 SUB SLT ISZERO PUSH2 0x5AB JUMPI PUSH2 0x5AA PUSH2 0x538 JUMP JUMPDEST JUMPDEST PUSH0 PUSH2 0x5B8 DUP5 DUP3 DUP6 ADD PUSH2 0x582 JUMP JUMPDEST SWAP2 POP POP SWAP3 SWAP2 POP POP JUMP JUMPDEST PUSH0 DUP2 SWAP1 POP SWAP2 SWAP1 POP JUMP JUMPDEST PUSH2 0x5D3 DUP2 PUSH2 0x5C1 JUMP JUMPDEST DUP3 MSTORE POP POP JUMP JUMPDEST PUSH0 PUSH1 0x20 DUP3 ADD SWAP1 POP PUSH2 0x5EC PUSH0 DUP4 ADD DUP5 PUSH2 0x5CA JUMP JUMPDEST SWAP3 SWAP2 POP POP JUMP JUMPDEST PUSH2 0x5FB DUP2 PUSH2 0x5C1 JUMP JUMPDEST DUP2 EQ PUSH2 0x605 JUMPI PUSH0 PUSH0 REVERT JUMPDEST POP JUMP JUMPDEST PUSH0 DUP2 CALLDATALOAD SWAP1 POP PUSH2 0x616 DUP2 PUSH2 0x5F2 JUMP JUMPDEST SWAP3 SWAP2 POP POP JUMP JUMPDEST PUSH0 PUSH1 0x20 DUP3 DUP5 SUB SLT ISZERO PUSH2 0x631 JUMPI PUSH2 0x630 PUSH2 0x538 JUMP JUMPDEST JUMPDEST PUSH0 PUSH2 0x63E DUP5 DUP3 DUP6 ADD PUSH2 0x608 JUMP JUMPDEST SWAP2 POP POP SWAP3 SWAP2 POP POP JUMP JUMPDEST PUSH0 DUP2 ISZERO ISZERO SWAP1 POP SWAP2 SWAP1 POP JUMP JUMPDEST PUSH2 0x65B DUP2 PUSH2 0x647 JUMP JUMPDEST DUP3 MSTORE POP POP JUMP JUMPDEST PUSH0 PUSH1 0x20 DUP3 ADD SWAP1 POP PUSH2 0x674 PUSH0 DUP4 ADD DUP5 PUSH2 0x652 JUMP JUMPDEST SWAP3 SWAP2 POP POP JUMP JUMPDEST PUSH32 0x4E487B7100000000000000000000000000000000000000000000000000000000 PUSH0 MSTORE PUSH1 0x11 PUSH1 0x4 MSTORE PUSH1 0x24 PUSH0 REVERT JUMPDEST PUSH0 PUSH2 0x6B1 DUP3 PUSH2 0x5C1 JUMP JUMPDEST SWAP2 POP PUSH2 0x6BC DUP4 PUSH2 0x5C1 JUMP JUMPDEST SWAP3 POP DUP3 DUP3 SUB SWAP1 POP DUP2 DUP2 GT ISZERO PUSH2 0x6D4 JUMPI PUSH2 0x6D3 PUSH2 0x67A JUMP JUMPDEST JUMPDEST SWAP3 SWAP2 POP POP JUMP JUMPDEST PUSH0 PUSH2 0x6E4 DUP3 PUSH2 0x5C1 JUMP JUMPDEST SWAP2 POP PUSH2 0x6EF DUP4 PUSH2 0x5C1 JUMP JUMPDEST SWAP3 POP DUP3 DUP3 ADD SWAP1 POP DUP1 DUP3 GT ISZERO PUSH2 0x707 JUMPI PUSH2 0x706 PUSH2 0x67A JUMP JUMPDEST JUMPDEST SWAP3 SWAP2 POP POP JUMP JUMPDEST PUSH0 DUP3 DUP3 MSTORE PUSH1 0x20 DUP3 ADD SWAP1 POP SWAP3 SWAP2 POP POP JUMP JUMPDEST PUSH32 0x5573657220626C61636B6C697374656400000000000000000000000000000000 PUSH0 DUP3 ADD MSTORE POP JUMP JUMPDEST PUSH0 PUSH2 0x751 PUSH1 0x10 DUP4 PUSH2 0x70D JUMP JUMPDEST SWAP2 POP PUSH2 0x75C DUP3 PUSH2 0x71D JUMP JUMPDEST PUSH1 0x20 DUP3 ADD SWAP1 POP SWAP2 SWAP1 POP JUMP JUMPDEST PUSH0 PUSH1 0x20 DUP3 ADD SWAP1 POP DUP2 DUP2 SUB PUSH0 DUP4 ADD MSTORE PUSH2 0x77E DUP2 PUSH2 0x745 JUMP JUMPDEST SWAP1 POP SWAP2 SWAP1 POP JUMP JUMPDEST PUSH32 0x416D6F756E74206D757374206265203E20300000000000000000000000000000 PUSH0 DUP3 ADD MSTORE POP JUMP JUMPDEST PUSH0 PUSH2 0x7B9 PUSH1 0x12 DUP4 PUSH2 0x70D JUMP JUMPDEST SWAP2 POP PUSH2 0x7C4 DUP3 PUSH2 0x785 JUMP JUMPDEST PUSH1 0x20 DUP3 ADD SWAP1 POP SWAP2 SWAP1 POP JUMP JUMPDEST PUSH0 PUSH1 0x20 DUP3 ADD SWAP1 POP DUP2 DUP2 SUB PUSH0 DUP4 ADD MSTORE PUSH2 0x7E6 DUP2 PUSH2 0x7AD JUMP JUMPDEST SWAP1 POP SWAP2 SWAP1 POP JUMP JUMPDEST PUSH32 0x416D6F756E7420746F6F206C6172676500000000000000000000000000000000 PUSH0 DUP3 ADD MSTORE POP JUMP JUMPDEST PUSH0 PUSH2 0x821 PUSH1 0x10 DUP4 PUSH2 0x70D JUMP JUMPDEST SWAP2 POP PUSH2 0x82C DUP3 PUSH2 0x7ED JUMP JUMPDEST PUSH1 0x20 DUP3 ADD SWAP1 POP SWAP2 SWAP1 POP JUMP JUMPDEST PUSH0 PUSH1 0x20 DUP3 ADD SWAP1 POP DUP2 DUP2 SUB PUSH0 DUP4 ADD MSTORE PUSH2 0x84E DUP2 PUSH2 0x815 JUMP JUMPDEST SWAP1 POP SWAP2 SWAP1 POP JUMP JUMPDEST PUSH0 PUSH2 0x85F DUP3 PUSH2 0x5C1 JUMP JUMPDEST SWAP2 POP PUSH2 0x86A DUP4 PUSH2 0x5C1 JUMP JUMPDEST SWAP3 POP DUP3 DUP3 MUL PUSH2 0x878 DUP2 PUSH2 0x5C1 JUMP JUMPDEST SWAP2 POP DUP3 DUP3 DIV DUP5 EQ DUP4 ISZERO OR PUSH2 0x88F JUMPI PUSH2 0x88E PUSH2 0x67A JUMP JUMPDEST JUMPDEST POP SWAP3 SWAP2 POP POP JUMP JUMPDEST PUSH32 0x4E487B7100000000000000000000000000000000000000000000000000000000 PUSH0 MSTORE PUSH1 0x12 PUSH1 0x4 MSTORE PUSH1 0x24 PUSH0 REVERT JUMPDEST PUSH0 PUSH2 0x8CD DUP3 PUSH2 0x5C1 JUMP JUMPDEST SWAP2 POP PUSH2 0x8D8 DUP4 PUSH2 0x5C1 JUMP JUMPDEST SWAP3 POP DUP3 PUSH2 0x8E8 JUMPI PUSH2 0x8E7 PUSH2 0x896 JUMP JUMPDEST JUMPDEST DUP3 DUP3 DIV SWAP1 POP SWAP3 SWAP2 POP POP JUMP JUMPDEST PUSH32 0x496E73756666696369656E742062616C616E6365000000000000000000000000 PUSH0 DUP3 ADD MSTORE POP JUMP JUMPDEST PUSH0 PUSH2 0x927 PUSH1 0x14 DUP4 PUSH2 0x70D JUMP JUMPDEST SWAP2 POP PUSH2 0x932 DUP3 PUSH2 0x8F3 JUMP JUMPDEST PUSH1 0x20 DUP3 ADD SWAP1 POP SWAP2 SWAP1 POP JUMP JUMPDEST PUSH0 PUSH1 0x20 DUP3 ADD SWAP1 POP DUP2 DUP2 SUB PUSH0 DUP4 ADD MSTORE PUSH2 0x954 DUP2 PUSH2 0x91B JUMP JUMPDEST SWAP1 POP SWAP2 SWAP1 POP JUMP INVALID LOG2 PUSH5 0x6970667358 0x22 SLT KECCAK256 NOT SWAP3 0x2B SHR SWAP3 RJUMPI 0xBB9F MCOPY SWAPN 0x69 EXTCALL 0xAC DUP10 SWAP9 0x4D 0x4E PUSH32 0xDC4A0D17AA1C5817A42740AB328C64736F6C6343000822003300000000000000 "
				},
				"gasEstimates": {
					"creation": {
						"codeDepositCost": "489800",
						"executionCost": "522",
						"totalCost": "490322"
					},
					"external": {
						"balances(address)": "2802",
						"blacklisted(address)": "2899",
						"deposit(uint256)": "infinite",
						"depositWithBonus(uint256)": "infinite",
						"recursiveCount(uint256)": "infinite",
						"totalDeposits()": "2447",
						"withdraw(uint256)": "infinite"
					},
					"internal": {
						"addBalance(address,uint256)": "infinite",
						"deductFee(uint256)": "infinite",
						"depositInternal(uint256)": "infinite",
						"reduceTotal(uint256)": "infinite",
						"subtractBalance(address,uint256)": "infinite",
						"updateTotal(uint256)": "infinite",
						"validateAmount(uint256)": "infinite",
						"validateBlacklist(address)": "infinite",
						"withdrawInternal(uint256)": "infinite"
					}
				},
				"methodIdentifiers": {
					"balances(address)": "27e235e3",
					"blacklisted(address)": "dbac26e9",
					"deposit(uint256)": "b6b55f25",
					"depositWithBonus(uint256)": "2f7c9ed6",
					"recursiveCount(uint256)": "452fe9c9",
					"totalDeposits()": "7d882097",
					"withdraw(uint256)": "2e1a7d4d"
				}
			},
			"storageLayout": {
				"storage": [
					{
						"astId": 5,
						"contract": "test43.sol:FunctionExecutionChaining",
						"label": "balances",
						"offset": 0,
						"slot": "0",
						"type": "t_mapping(t_address,t_uint256)"
					},
					{
						"astId": 9,
						"contract": "test43.sol:FunctionExecutionChaining",
						"label": "blacklisted",
						"offset": 0,
						"slot": "1",
						"type": "t_mapping(t_address,t_bool)"
					},
					{
						"astId": 11,
						"contract": "test43.sol:FunctionExecutionChaining",
						"label": "totalDeposits",
						"offset": 0,
						"slot": "2",
						"type": "t_uint256"
					}
				],
				"types": {
					"t_address": {
						"encoding": "inplace",
						"label": "address",
						"numberOfBytes": "20"
					},
					"t_bool": {
						"encoding": "inplace",
						"label": "bool",
						"numberOfBytes": "1"
					},
					"t_mapping(t_address,t_bool)": {
						"encoding": "mapping",
						"key": "t_address",
						"label": "mapping(address => bool)",
						"numberOfBytes": "32",
						"value": "t_bool"
					},
					"t_mapping(t_address,t_uint256)": {
						"encoding": "mapping",
						"key": "t_address",
						"label": "mapping(address => uint256)",
						"numberOfBytes": "32",
						"value": "t_uint256"
					},
					"t_uint256": {
						"encoding": "inplace",
						"label": "uint256",
						"numberOfBytes": "32"
					}
				}
			},
			"userdoc": {
				"kind": "user",
				"methods": {},
				"version": 1
			}
		}
	}
}