{
	"test65.sol": {
		"ChainB": {
			"abi": [
				{
					"inputs": [],
					"name": "chainCall",
					"outputs": [],
					"stateMutability": "nonpayable",
					"type": "function"
				},
				{
					"inputs": [],
					"name": "chainCounter",
					"outputs": [
						{
							"internalType": "uint256",
							"name": "",
							"type": "uint256"
						}
					],
					"stateMutability": "view",
					"type": "function"
				}
			],
			"devdoc": {
				"kind": "dev",
				"methods": {},
				"version": 1
			},
			"evm": {
				"assembly": "    /* \"test65.sol\":16919:17060  contract ChainB {... */\n  mstore(0x40, 0x80)\n  callvalue\n  dup1\n  iszero\n  tag_1\n  jumpi\n  revert(0x00, 0x00)\ntag_1:\n  pop\n  dataSize(sub_0)\n  dup1\n  dataOffset(sub_0)\n  0x00\n  codecopy\n  0x00\n  return\nstop\n\nsub_0: assembly {\n        /* \"test65.sol\":16919:17060  contract ChainB {... */\n      mstore(0x40, 0x80)\n      callvalue\n      dup1\n      iszero\n      tag_1\n      jumpi\n      revert(0x00, 0x00)\n    tag_1:\n      pop\n      jumpi(tag_2, lt(calldatasize, 0x04))\n      shr(0xe0, calldataload(0x00))\n      dup1\n      0x61686abd\n      eq\n      tag_3\n      jumpi\n      dup1\n      0x9e300ed8\n      eq\n      tag_4\n      jumpi\n    tag_2:\n      revert(0x00, 0x00)\n        /* \"test65.sol\":16944:16971  uint256 public chainCounter */\n    tag_3:\n      tag_5\n      tag_6\n      jump\t// in\n    tag_5:\n      mload(0x40)\n      tag_7\n      swap2\n      swap1\n      tag_8\n      jump\t// in\n    tag_7:\n      mload(0x40)\n      dup1\n      swap2\n      sub\n      swap1\n      return\n        /* \"test65.sol\":16980:17057  function chainCall()... */\n    tag_4:\n      tag_9\n      tag_10\n      jump\t// in\n    tag_9:\n      stop\n        /* \"test65.sol\":16944:16971  uint256 public chainCounter */\n    tag_6:\n      sload(0x00)\n      dup2\n      jump\t// out\n        /* \"test65.sol\":16980:17057  function chainCall()... */\n    tag_10:\n        /* \"test65.sol\":17035:17047  chainCounter */\n      0x00\n      0x00\n        /* \"test65.sol\":17035:17049  chainCounter++ */\n      dup2\n      sload\n      dup1\n      swap3\n      swap2\n      swap1\n      tag_12\n      swap1\n      tag_13\n      jump\t// in\n    tag_12:\n      swap2\n      swap1\n      pop\n      sstore\n      pop\n        /* \"test65.sol\":16980:17057  function chainCall()... */\n      jump\t// out\n        /* \"#utility.yul\":7:84   */\n    tag_14:\n        /* \"#utility.yul\":44:51   */\n      0x00\n        /* \"#utility.yul\":73:78   */\n      dup2\n        /* \"#utility.yul\":62:78   */\n      swap1\n      pop\n        /* \"#utility.yul\":7:84   */\n      swap2\n      swap1\n      pop\n      jump\t// out\n        /* \"#utility.yul\":90:208   */\n    tag_15:\n        /* \"#utility.yul\":177:201   */\n      tag_20\n        /* \"#utility.yul\":195:200   */\n      dup2\n        /* \"#utility.yul\":177:201   */\n      tag_14\n      jump\t// in\n    tag_20:\n        /* \"#utility.yul\":172:175   */\n      dup3\n        /* \"#utility.yul\":165:202   */\n      mstore\n        /* \"#utility.yul\":90:208   */\n      pop\n      pop\n      jump\t// out\n        /* \"#utility.yul\":214:436   */\n    tag_8:\n        /* \"#utility.yul\":307:311   */\n      0x00\n        /* \"#utility.yul\":345:347   */\n      0x20\n        /* \"#utility.yul\":334:343   */\n      dup3\n        /* \"#utility.yul\":330:348   */\n      add\n        /* \"#utility.yul\":322:348   */\n      swap1\n      pop\n        /* \"#utility.yul\":358:429   */\n      tag_22\n        /* \"#utility.yul\":426:427   */\n      0x00\n        /* \"#utility.yul\":415:424   */\n      dup4\n        /* \"#utility.yul\":411:428   */\n      add\n        /* \"#utility.yul\":402:408   */\n      dup5\n        /* \"#utility.yul\":358:429   */\n      tag_15\n      jump\t// in\n    tag_22:\n        /* \"#utility.yul\":214:436   */\n      swap3\n      swap2\n      pop\n      pop\n      jump\t// out\n        /* \"#utility.yul\":442:622   */\n    tag_16:\n        /* \"#utility.yul\":490:567   */\n      0x4e487b7100000000000000000000000000000000000000000000000000000000\n        /* \"#utility.yul\":487:488   */\n      0x00\n        /* \"#utility.yul\":480:568   */\n      mstore\n        /* \"#utility.yul\":587:591   */\n      0x11\n        /* \"#utility.yul\":584:585   */\n      0x04\n        /* \"#utility.yul\":577:592   */\n      mstore\n        /* \"#utility.yul\":611:615   */\n      0x24\n        /* \"#utility.yul\":608:609   */\n      0x00\n        /* \"#utility.yul\":601:616   */\n      revert\n        /* \"#utility.yul\":628:861   */\n    tag_13:\n        /* \"#utility.yul\":667:670   */\n      0x00\n        /* \"#utility.yul\":690:714   */\n      tag_25\n        /* \"#utility.yul\":708:713   */\n      dup3\n        /* \"#utility.yul\":690:714   */\n      tag_14\n      jump\t// in\n    tag_25:\n        /* \"#utility.yul\":681:714   */\n      swap2\n      pop\n        /* \"#utility.yul\":736:802   */\n      0xffffffffffffffffffffffffffffffffffffffffffffffffffffffffffffffff\n        /* \"#utility.yul\":729:734   */\n      dup3\n        /* \"#utility.yul\":726:803   */\n      sub\n        /* \"#utility.yul\":723:826   */\n      tag_26\n      jumpi\n        /* \"#utility.yul\":806:824   */\n      tag_27\n      tag_16\n      jump\t// in\n    tag_27:\n        /* \"#utility.yul\":723:826   */\n    tag_26:\n        /* \"#utility.yul\":853:854   */\n      0x01\n        /* \"#utility.yul\":846:851   */\n      dup3\n        /* \"#utility.yul\":842:855   */\n      add\n        /* \"#utility.yul\":835:855   */\n      swap1\n      pop\n        /* \"#utility.yul\":628:861   */\n      swap2\n      swap1\n      pop\n      jump\t// out\n\n    auxdata: 0xa26469706673582212201c269e0b3b530a429b814f2a54e5892e99c899d94aa7788de68235f53260b1ab64736f6c63430008220033\n}\n",
				"bytecode": {
					"linkReferences": {},
					"object": "6080604052348015600e575f5ffd5b506101588061001c5f395ff3fe608060405234801561000f575f5ffd5b5060043610610034575f3560e01c806361686abd146100385780639e300ed814610056575b5f5ffd5b610040610060565b60405161004d9190610095565b60405180910390f35b61005e610065565b005b5f5481565b5f5f815480929190610076906100db565b9190505550565b5f819050919050565b61008f8161007d565b82525050565b5f6020820190506100a85f830184610086565b92915050565b7f4e487b71000000000000000000000000000000000000000000000000000000005f52601160045260245ffd5b5f6100e58261007d565b91507fffffffffffffffffffffffffffffffffffffffffffffffffffffffffffffffff8203610117576101166100ae565b5b60018201905091905056fea26469706673582212201c269e0b3b530a429b814f2a54e5892e99c899d94aa7788de68235f53260b1ab64736f6c63430008220033",
					"opcodes": "PUSH1 0x80 PUSH1 0x40 MSTORE CALLVALUE DUP1 ISZERO PUSH1 0xE JUMPI PUSH0 PUSH0 REVERT JUMPDEST POP PUSH2 0x158 DUP1 PUSH2 0x1C PUSH0 CODECOPY PUSH0 RETURN INVALID PUSH1 0x80 PUSH1 0x40 MSTORE CALLVALUE DUP1 ISZERO PUSH2 0xF JUMPI PUSH0 PUSH0 REVERT JUMPDEST POP PUSH1 0x4 CALLDATASIZE LT PUSH2 0x34 JUMPI PUSH0 CALLDATALOAD PUSH1 0xE0 SHR DUP1 PUSH4 0x61686ABD EQ PUSH2 0x38 JUMPI DUP1 PUSH4 0x9E300ED8 EQ PUSH2 0x56 JUMPI JUMPDEST PUSH0 PUSH0 REVERT JUMPDEST PUSH2 0x40 PUSH2 0x60 JUMP JUMPDEST PUSH1 0x40 MLOAD PUSH2 0x4D SWAP2 SWAP1 PUSH2 0x95 JUMP JUMPDEST PUSH1 0x40 MLOAD DUP1 SWAP2 SUB SWAP1 RETURN JUMPDEST PUSH2 0x5E PUSH2 0x65 JUMP JUMPDEST STOP JUMPDEST PUSH0 SLOAD DUP2 JUMP JUMPDEST PUSH0 PUSH0 DUP2 SLOAD DUP1 SWAP3 SWAP2 SWAP1 PUSH2 0x76 SWAP1 PUSH2 0xDB JUMP JUMPDEST SWAP2 SWAP1 POP SSTORE POP JUMP JUMPDEST PUSH0 DUP2 SWAP1 POP SWAP2 SWAP1 POP JUMP JUMPDEST PUSH2 0x8F DUP2 PUSH2 0x7D JUMP JUMPDEST DUP3 MSTORE POP POP JUMP JUMPDEST PUSH0 PUSH1 0x20 DUP3 ADD SWAP1 POP PUSH2 0xA8 PUSH0 DUP4 ADD DUP5 PUSH2 0x86 JUMP JUMPDEST SWAP3 SWAP2 POP POP JUMP JUMPDEST PUSH32 0x4E487B7100000000000000000000000000000000000000000000000000000000 PUSH0 MSTORE PUSH1 0x11 PUSH1 0x4 MSTORE PUSH1 0x24 PUSH0 REVERT JUMPDEST PUSH0 PUSH2 0xE5 DUP3 PUSH2 0x7D JUMP JUMPDEST SWAP2 POP PUSH32 0xFFFFFFFFFFFFFFFFFFFFFFFFFFFFFFFFFFFFFFFFFFFFFFFFFFFFFFFFFFFFFFFF DUP3 SUB PUSH2 0x117 JUMPI PUSH2 0x116 PUSH2 0xAE JUMP JUMPDEST JUMPDEST PUSH1 0x1 DUP3 ADD SWAP1 POP SWAP2 SWAP1 POP JUMP INVALID LOG2 PUSH5 0x6970667358 0x22 SLT KECCAK256 SHR 0x26 SWAP15 SIGNEXTEND EXTCODESIZE MSTORE8 EXP TIMESTAMP SWAP12 DUP2 0x4F 0x2A SLOAD JUMPF 0x892E SWAP10 0xC8 SWAP10 0xD9 BLOBBASEFEE 0xA7 PUSH25 0x8DE68235F53260B1AB64736F6C634300082200330000000000 "
				},
				"gasEstimates": {
					"creation": {
						"codeDepositCost": "68800",
						"executionCost": "115",
						"totalCost": "68915"
					},
					"external": {
						"chainCall()": "24496",
						"chainCounter()": "2402"
					}
				},
				"methodIdentifiers": {
					"chainCall()": "9e300ed8",
					"chainCounter()": "61686abd"
				}
			},
			"storageLayout": {
				"storage": [
					{
						"astId": 20,
						"contract": "test65.sol:ChainB",
						"label": "chainCounter",
						"offset": 0,
						"slot": "0",
						"type": "t_uint256"
					}
				],
				"types": {
					"t_uint256": {
						"encoding": "inplace",
						"label": "uint256",
						"numberOfBytes": "32"
					}
				}
			},
			"userdoc": {
				"kind": "user",
				"methods": {},
				"version": 1
			}
		}
	}
}