{
	"test39.sol": {
		"MultipleRequireChecks": {
			"abi": [
				{
					"inputs": [],
					"stateMutability": "nonpayable",
					"type": "constructor"
				},
				{
					"inputs": [],
					"name": "BalanceLimitExceeded",
					"type": "error"
				},
				{
					"inputs": [],
					"name": "Blacklisted",
					"type": "error"
				},
				{
					"inputs": [],
					"name": "ContractPaused",
					"type": "error"
				},
				{
					"inputs": [],
					"name": "DepositTooLarge",
					"type": "error"
				},
				{
					"inputs": [],
					"name": "InsufficientBalance",
					"type": "error"
				},
				{
					"inputs": [],
					"name": "InvalidAddress",
					"type": "error"
				},
				{
					"inputs": [],
					"name": "InvalidAmount",
					"type": "error"
				},
				{
					"inputs": [],
					"name": "NoBalance",
					"type": "error"
				},
				{
					"inputs": [],
					"name": "NotOwner",
					"type": "error"
				},
				{
					"inputs": [],
					"name": "MAX_DEPOSIT",
					"outputs": [
						{
							"internalType": "uint256",
							"name": "",
							"type": "uint256"
						}
					],
					"stateMutability": "view",
					"type": "function"
				},
				{
					"inputs": [
						{
							"internalType": "address",
							"name": "",
							"type": "address"
						}
					],
					"name": "balances",
					"outputs": [
						{
							"internalType": "uint256",
							"name": "",
							"type": "uint256"
						}
					],
					"stateMutability": "view",
					"type": "function"
				},
				{
					"inputs": [
						{
							"internalType": "address",
							"name": "",
							"type": "address"
						}
					],
					"name": "blacklist",
					"outputs": [
						{
							"internalType": "bool",
							"name": "",
							"type": "bool"
						}
					],
					"stateMutability": "view",
					"type": "function"
				},
				{
					"inputs": [
						{
							"internalType": "uint256",
							"name": "_amount",
							"type": "uint256"
						}
					],
					"name": "deposit",
					"outputs": [],
					"stateMutability": "nonpayable",
					"type": "function"
				},
				{
					"inputs": [],
					"name": "owner",
					"outputs": [
						{
							"internalType": "address",
							"name": "",
							"type": "address"
						}
					],
					"stateMutability": "view",
					"type": "function"
				},
				{
					"inputs": [],
					"name": "paused",
					"outputs": [
						{
							"internalType": "bool",
							"name": "",
							"type": "bool"
						}
					],
					"stateMutability": "view",
					"type": "function"
				},
				{
					"inputs": [
						{
							"internalType": "address",
							"name": "_user",
							"type": "address"
						}
					],
					"name": "resetBalance",
					"outputs": [],
					"stateMutability": "nonpayable",
					"type": "function"
				},
				{
					"inputs": [
						{
							"internalType": "address",
							"name": "_user",
							"type": "address"
						},
						{
							"internalType": "bool",
							"name": "_status",
							"type": "bool"
						}
					],
					"name": "setBlacklist",
					"outputs": [],
					"stateMutability": "nonpayable",
					"type": "function"
				},
				{
					"inputs": [
						{
							"internalType": "bool",
							"name": "_paused",
							"type": "bool"
						}
					],
					"name": "setPaused",
					"outputs": [],
					"stateMutability": "nonpayable",
					"type": "function"
				},
				{
					"inputs": [
						{
							"internalType": "uint256",
							"name": "_amount",
							"type": "uint256"
						}
					],
					"name": "withdraw",
					"outputs": [],
					"stateMutability": "nonpayable",
					"type": "function"
				}
			],
			"devdoc": {
				"kind": "dev",
				"methods": {},
				"version": 1
			},
			"evm": {
				"assembly": "    /* \"test39.sol\":10830:14736  contract MultipleRequireChecks {... */\n  mstore(0x40, 0x80)\n    /* \"test39.sol\":11894:11945  constructor() {... */\n  callvalue\n  dup1\n  iszero\n  tag_1\n  jumpi\n  revert(0x00, 0x00)\ntag_1:\n  pop\n    /* \"test39.sol\":11927:11937  msg.sender */\n  caller\n    /* \"test39.sol\":11919:11924  owner */\n  0x00\n  0x00\n    /* \"test39.sol\":11919:11937  owner = msg.sender */\n  0x0100\n  exp\n  dup2\n  sload\n  dup2\n  0xffffffffffffffffffffffffffffffffffffffff\n  mul\n  not\n  and\n  swap1\n  dup4\n  0xffffffffffffffffffffffffffffffffffffffff\n  and\n  mul\n  or\n  swap1\n  sstore\n  pop\n    /* \"test39.sol\":10830:14736  contract MultipleRequireChecks {... */\n  dataSize(sub_0)\n  dup1\n  dataOffset(sub_0)\n  0x00\n  codecopy\n  0x00\n  return\nstop\n\nsub_0: assembly {\n        /* \"test39.sol\":10830:14736  contract MultipleRequireChecks {... */\n      mstore(0x40, 0x80)\n      callvalue\n      dup1\n      iszero\n      tag_1\n      jumpi\n      revert(0x00, 0x00)\n    tag_1:\n      pop\n      jumpi(tag_2, lt(calldatasize, 0x04))\n      shr(0xe0, calldataload(0x00))\n      dup1\n      0x8da5cb5b\n      gt\n      tag_13\n      jumpi\n      dup1\n      0x8da5cb5b\n      eq\n      tag_8\n      jumpi\n      dup1\n      0xb6b55f25\n      eq\n      tag_9\n      jumpi\n      dup1\n      0xbd051844\n      eq\n      tag_10\n      jumpi\n      dup1\n      0xdd5967c3\n      eq\n      tag_11\n      jumpi\n      dup1\n      0xf9f92be4\n      eq\n      tag_12\n      jumpi\n      jump(tag_2)\n    tag_13:\n      dup1\n      0x153b0d1e\n      eq\n      tag_3\n      jumpi\n      dup1\n      0x16c38b3c\n      eq\n      tag_4\n      jumpi\n      dup1\n      0x27e235e3\n      eq\n      tag_5\n      jumpi\n      dup1\n      0x2e1a7d4d\n      eq\n      tag_6\n      jumpi\n      dup1\n      0x5c975abb\n      eq\n      tag_7\n      jumpi\n    tag_2:\n      revert(0x00, 0x00)\n        /* \"test39.sol\":14496:14733  function setBlacklist(... */\n    tag_3:\n      tag_14\n      0x04\n      dup1\n      calldatasize\n      sub\n      dup2\n      add\n      swap1\n      tag_15\n      swap2\n      swap1\n      tag_16\n      jump\t// in\n    tag_15:\n      tag_17\n      jump\t// in\n    tag_14:\n      stop\n        /* \"test39.sol\":14362:14488  function setPaused(... */\n    tag_4:\n      tag_18\n      0x04\n      dup1\n      calldatasize\n      sub\n      dup2\n      add\n      swap1\n      tag_19\n      swap2\n      swap1\n      tag_20\n      jump\t// in\n    tag_19:\n      tag_21\n      jump\t// in\n    tag_18:\n      stop\n        /* \"test39.sol\":11524:11567  mapping(address => uint256) public balances */\n    tag_5:\n      tag_22\n      0x04\n      dup1\n      calldatasize\n      sub\n      dup2\n      add\n      swap1\n      tag_23\n      swap2\n      swap1\n      tag_24\n      jump\t// in\n    tag_23:\n      tag_25\n      jump\t// in\n    tag_22:\n      mload(0x40)\n      tag_26\n      swap2\n      swap1\n      tag_27\n      jump\t// in\n    tag_26:\n      mload(0x40)\n      dup1\n      swap2\n      sub\n      swap1\n      return\n        /* \"test39.sol\":13262:13696  function withdraw(uint256 _amount)... */\n    tag_6:\n      tag_28\n      0x04\n      dup1\n      calldatasize\n      sub\n      dup2\n      add\n      swap1\n      tag_29\n      swap2\n      swap1\n      tag_30\n      jump\t// in\n    tag_29:\n      tag_31\n      jump\t// in\n    tag_28:\n      stop\n        /* \"test39.sol\":11626:11644  bool public paused */\n    tag_7:\n      tag_32\n      tag_33\n      jump\t// in\n    tag_32:\n      mload(0x40)\n      tag_34\n      swap2\n      swap1\n      tag_35\n      jump\t// in\n    tag_34:\n      mload(0x40)\n      dup1\n      swap2\n      sub\n      swap1\n      return\n        /* \"test39.sol\":11495:11515  address public owner */\n    tag_8:\n      tag_36\n      tag_37\n      jump\t// in\n    tag_36:\n      mload(0x40)\n      tag_38\n      swap2\n      swap1\n      tag_39\n      jump\t// in\n    tag_38:\n      mload(0x40)\n      dup1\n      swap2\n      sub\n      swap1\n      return\n        /* \"test39.sol\":12633:13071  function deposit(uint256 _amount)... */\n    tag_9:\n      tag_40\n      0x04\n      dup1\n      calldatasize\n      sub\n      dup2\n      add\n      swap1\n      tag_41\n      swap2\n      swap1\n      tag_30\n      jump\t// in\n    tag_41:\n      tag_42\n      jump\t// in\n    tag_40:\n      stop\n        /* \"test39.sol\":13889:14166  function resetBalance(... */\n    tag_10:\n      tag_43\n      0x04\n      dup1\n      calldatasize\n      sub\n      dup2\n      add\n      swap1\n      tag_44\n      swap2\n      swap1\n      tag_24\n      jump\t// in\n    tag_44:\n      tag_45\n      jump\t// in\n    tag_43:\n      stop\n        /* \"test39.sol\":11653:11700  uint256 public constant MAX_DEPOSIT = 100 ether */\n    tag_11:\n      tag_46\n      tag_47\n      jump\t// in\n    tag_46:\n      mload(0x40)\n      tag_48\n      swap2\n      swap1\n      tag_27\n      jump\t// in\n    tag_48:\n      mload(0x40)\n      dup1\n      swap2\n      sub\n      swap1\n      return\n        /* \"test39.sol\":11576:11617  mapping(address => bool) public blacklist */\n    tag_12:\n      tag_49\n      0x04\n      dup1\n      calldatasize\n      sub\n      dup2\n      add\n      swap1\n      tag_50\n      swap2\n      swap1\n      tag_24\n      jump\t// in\n    tag_50:\n      tag_51\n      jump\t// in\n    tag_49:\n      mload(0x40)\n      tag_52\n      swap2\n      swap1\n      tag_35\n      jump\t// in\n    tag_52:\n      mload(0x40)\n      dup1\n      swap2\n      sub\n      swap1\n      return\n        /* \"test39.sol\":14496:14733  function setBlacklist(... */\n    tag_17:\n        /* \"test39.sol\":12187:12192  owner */\n      0x00\n      0x00\n      swap1\n      sload\n      swap1\n      0x0100\n      exp\n      swap1\n      div\n      0xffffffffffffffffffffffffffffffffffffffff\n      and\n        /* \"test39.sol\":12173:12192  msg.sender != owner */\n      0xffffffffffffffffffffffffffffffffffffffff\n      and\n        /* \"test39.sol\":12173:12183  msg.sender */\n      caller\n        /* \"test39.sol\":12173:12192  msg.sender != owner */\n      0xffffffffffffffffffffffffffffffffffffffff\n      and\n      eq\n        /* \"test39.sol\":12169:12211  if (msg.sender != owner) revert NotOwner() */\n      tag_54\n      jumpi\n        /* \"test39.sol\":12201:12211  NotOwner() */\n      mload(0x40)\n      0x30cd747100000000000000000000000000000000000000000000000000000000\n      dup2\n      mstore\n      0x04\n      add\n      mload(0x40)\n      dup1\n      swap2\n      sub\n      swap1\n      revert\n        /* \"test39.sol\":12169:12211  if (msg.sender != owner) revert NotOwner() */\n    tag_54:\n        /* \"test39.sol\":14646:14647  0 */\n      0x00\n        /* \"test39.sol\":14629:14648  _user == address(0) */\n      0xffffffffffffffffffffffffffffffffffffffff\n      and\n        /* \"test39.sol\":14629:14634  _user */\n      dup3\n        /* \"test39.sol\":14629:14648  _user == address(0) */\n      0xffffffffffffffffffffffffffffffffffffffff\n      and\n      sub\n        /* \"test39.sol\":14625:14686  if (_user == address(0))... */\n      tag_56\n      jumpi\n        /* \"test39.sol\":14670:14686  InvalidAddress() */\n      mload(0x40)\n      0xe6c4247b00000000000000000000000000000000000000000000000000000000\n      dup2\n      mstore\n      0x04\n      add\n      mload(0x40)\n      dup1\n      swap2\n      sub\n      swap1\n      revert\n        /* \"test39.sol\":14625:14686  if (_user == address(0))... */\n    tag_56:\n        /* \"test39.sol\":14718:14725  _status */\n      dup1\n        /* \"test39.sol\":14699:14708  blacklist */\n      0x02\n        /* \"test39.sol\":14699:14715  blacklist[_user] */\n      0x00\n        /* \"test39.sol\":14709:14714  _user */\n      dup5\n        /* \"test39.sol\":14699:14715  blacklist[_user] */\n      0xffffffffffffffffffffffffffffffffffffffff\n      and\n      0xffffffffffffffffffffffffffffffffffffffff\n      and\n      dup2\n      mstore\n      0x20\n      add\n      swap1\n      dup2\n      mstore\n      0x20\n      add\n      0x00\n      keccak256\n      0x00\n        /* \"test39.sol\":14699:14725  blacklist[_user] = _status */\n      0x0100\n      exp\n      dup2\n      sload\n      dup2\n      0xff\n      mul\n      not\n      and\n      swap1\n      dup4\n      iszero\n      iszero\n      mul\n      or\n      swap1\n      sstore\n      pop\n        /* \"test39.sol\":14496:14733  function setBlacklist(... */\n      pop\n      pop\n      jump\t// out\n        /* \"test39.sol\":14362:14488  function setPaused(... */\n    tag_21:\n        /* \"test39.sol\":12187:12192  owner */\n      0x00\n      0x00\n      swap1\n      sload\n      swap1\n      0x0100\n      exp\n      swap1\n      div\n      0xffffffffffffffffffffffffffffffffffffffff\n      and\n        /* \"test39.sol\":12173:12192  msg.sender != owner */\n      0xffffffffffffffffffffffffffffffffffffffff\n      and\n        /* \"test39.sol\":12173:12183  msg.sender */\n      caller\n        /* \"test39.sol\":12173:12192  msg.sender != owner */\n      0xffffffffffffffffffffffffffffffffffffffff\n      and\n      eq\n        /* \"test39.sol\":12169:12211  if (msg.sender != owner) revert NotOwner() */\n      tag_58\n      jumpi\n        /* \"test39.sol\":12201:12211  NotOwner() */\n      mload(0x40)\n      0x30cd747100000000000000000000000000000000000000000000000000000000\n      dup2\n      mstore\n      0x04\n      add\n      mload(0x40)\n      dup1\n      swap2\n      sub\n      swap1\n      revert\n        /* \"test39.sol\":12169:12211  if (msg.sender != owner) revert NotOwner() */\n    tag_58:\n        /* \"test39.sol\":14473:14480  _paused */\n      dup1\n        /* \"test39.sol\":14464:14470  paused */\n      0x03\n      0x00\n        /* \"test39.sol\":14464:14480  paused = _paused */\n      0x0100\n      exp\n      dup2\n      sload\n      dup2\n      0xff\n      mul\n      not\n      and\n      swap1\n      dup4\n      iszero\n      iszero\n      mul\n      or\n      swap1\n      sstore\n      pop\n        /* \"test39.sol\":14362:14488  function setPaused(... */\n      pop\n      jump\t// out\n        /* \"test39.sol\":11524:11567  mapping(address => uint256) public balances */\n    tag_25:\n      mstore(0x20, 0x01)\n      dup1\n      0x00\n      mstore\n      keccak256(0x00, 0x40)\n      0x00\n      swap2\n      pop\n      swap1\n      pop\n      sload\n      dup2\n      jump\t// out\n        /* \"test39.sol\":13262:13696  function withdraw(uint256 _amount)... */\n    tag_31:\n        /* \"test39.sol\":12279:12285  paused */\n      0x03\n      0x00\n      swap1\n      sload\n      swap1\n      0x0100\n      exp\n      swap1\n      div\n      0xff\n      and\n        /* \"test39.sol\":12275:12310  if (paused) revert ContractPaused() */\n      iszero\n      tag_61\n      jumpi\n        /* \"test39.sol\":12294:12310  ContractPaused() */\n      mload(0x40)\n      0xab35696f00000000000000000000000000000000000000000000000000000000\n      dup2\n      mstore\n      0x04\n      add\n      mload(0x40)\n      dup1\n      swap2\n      sub\n      swap1\n      revert\n        /* \"test39.sol\":12275:12310  if (paused) revert ContractPaused() */\n    tag_61:\n        /* \"test39.sol\":12379:12388  blacklist */\n      0x02\n        /* \"test39.sol\":12379:12400  blacklist[msg.sender] */\n      0x00\n        /* \"test39.sol\":12389:12399  msg.sender */\n      caller\n        /* \"test39.sol\":12379:12400  blacklist[msg.sender] */\n      0xffffffffffffffffffffffffffffffffffffffff\n      and\n      0xffffffffffffffffffffffffffffffffffffffff\n      and\n      dup2\n      mstore\n      0x20\n      add\n      swap1\n      dup2\n      mstore\n      0x20\n      add\n      0x00\n      keccak256\n      0x00\n      swap1\n      sload\n      swap1\n      0x0100\n      exp\n      swap1\n      div\n      0xff\n      and\n        /* \"test39.sol\":12375:12422  if (blacklist[msg.sender]) revert Blacklisted() */\n      iszero\n      tag_63\n      jumpi\n        /* \"test39.sol\":12409:12422  Blacklisted() */\n      mload(0x40)\n      0x09550c7700000000000000000000000000000000000000000000000000000000\n      dup2\n      mstore\n      0x04\n      add\n      mload(0x40)\n      dup1\n      swap2\n      sub\n      swap1\n      revert\n        /* \"test39.sol\":12375:12422  if (blacklist[msg.sender]) revert Blacklisted() */\n    tag_63:\n        /* \"test39.sol\":13393:13394  0 */\n      0x00\n        /* \"test39.sol\":13382:13389  _amount */\n      dup2\n        /* \"test39.sol\":13382:13394  _amount == 0 */\n      sub\n        /* \"test39.sol\":13378:13418  if (_amount == 0) revert InvalidAmount() */\n      tag_65\n      jumpi\n        /* \"test39.sol\":13403:13418  InvalidAmount() */\n      mload(0x40)\n      0x2c5211c600000000000000000000000000000000000000000000000000000000\n      dup2\n      mstore\n      0x04\n      add\n      mload(0x40)\n      dup1\n      swap2\n      sub\n      swap1\n      revert\n        /* \"test39.sol\":13378:13418  if (_amount == 0) revert InvalidAmount() */\n    tag_65:\n        /* \"test39.sol\":13472:13479  _amount */\n      dup1\n        /* \"test39.sol\":13449:13457  balances */\n      0x01\n        /* \"test39.sol\":13449:13469  balances[msg.sender] */\n      0x00\n        /* \"test39.sol\":13458:13468  msg.sender */\n      caller\n        /* \"test39.sol\":13449:13469  balances[msg.sender] */\n      0xffffffffffffffffffffffffffffffffffffffff\n      and\n      0xffffffffffffffffffffffffffffffffffffffff\n      and\n      dup2\n      mstore\n      0x20\n      add\n      swap1\n      dup2\n      mstore\n      0x20\n      add\n      0x00\n      keccak256\n      sload\n        /* \"test39.sol\":13449:13479  balances[msg.sender] < _amount */\n      lt\n        /* \"test39.sol\":13431:13546  if (... */\n      iszero\n      tag_66\n      jumpi\n        /* \"test39.sol\":13513:13534  InsufficientBalance() */\n      mload(0x40)\n      0xf4d678b800000000000000000000000000000000000000000000000000000000\n      dup2\n      mstore\n      0x04\n      add\n      mload(0x40)\n      dup1\n      swap2\n      sub\n      swap1\n      revert\n        /* \"test39.sol\":13431:13546  if (... */\n    tag_66:\n        /* \"test39.sol\":13582:13589  _amount */\n      dup1\n        /* \"test39.sol\":13558:13566  balances */\n      0x01\n        /* \"test39.sol\":13558:13578  balances[msg.sender] */\n      0x00\n        /* \"test39.sol\":13567:13577  msg.sender */\n      caller\n        /* \"test39.sol\":13558:13578  balances[msg.sender] */\n      0xffffffffffffffffffffffffffffffffffffffff\n      and\n      0xffffffffffffffffffffffffffffffffffffffff\n      and\n      dup2\n      mstore\n      0x20\n      add\n      swap1\n      dup2\n      mstore\n      0x20\n      add\n      0x00\n      keccak256\n      0x00\n        /* \"test39.sol\":13558:13589  balances[msg.sender] -= _amount */\n      dup3\n      dup3\n      sload\n      tag_67\n      swap2\n      swap1\n      tag_68\n      jump\t// in\n    tag_67:\n      swap3\n      pop\n      pop\n      dup2\n      swap1\n      sstore\n      pop\n        /* \"test39.sol\":13262:13696  function withdraw(uint256 _amount)... */\n      pop\n      jump\t// out\n        /* \"test39.sol\":11626:11644  bool public paused */\n    tag_33:\n      0x03\n      0x00\n      swap1\n      sload\n      swap1\n      0x0100\n      exp\n      swap1\n      div\n      0xff\n      and\n      dup2\n      jump\t// out\n        /* \"test39.sol\":11495:11515  address public owner */\n    tag_37:\n      0x00\n      0x00\n      swap1\n      sload\n      swap1\n      0x0100\n      exp\n      swap1\n      div\n      0xffffffffffffffffffffffffffffffffffffffff\n      and\n      dup2\n      jump\t// out\n        /* \"test39.sol\":12633:13071  function deposit(uint256 _amount)... */\n    tag_42:\n        /* \"test39.sol\":12279:12285  paused */\n      0x03\n      0x00\n      swap1\n      sload\n      swap1\n      0x0100\n      exp\n      swap1\n      div\n      0xff\n      and\n        /* \"test39.sol\":12275:12310  if (paused) revert ContractPaused() */\n      iszero\n      tag_70\n      jumpi\n        /* \"test39.sol\":12294:12310  ContractPaused() */\n      mload(0x40)\n      0xab35696f00000000000000000000000000000000000000000000000000000000\n      dup2\n      mstore\n      0x04\n      add\n      mload(0x40)\n      dup1\n      swap2\n      sub\n      swap1\n      revert\n        /* \"test39.sol\":12275:12310  if (paused) revert ContractPaused() */\n    tag_70:\n        /* \"test39.sol\":12379:12388  blacklist */\n      0x02\n        /* \"test39.sol\":12379:12400  blacklist[msg.sender] */\n      0x00\n        /* \"test39.sol\":12389:12399  msg.sender */\n      caller\n        /* \"test39.sol\":12379:12400  blacklist[msg.sender] */\n      0xffffffffffffffffffffffffffffffffffffffff\n      and\n      0xffffffffffffffffffffffffffffffffffffffff\n      and\n      dup2\n      mstore\n      0x20\n      add\n      swap1\n      dup2\n      mstore\n      0x20\n      add\n      0x00\n      keccak256\n      0x00\n      swap1\n      sload\n      swap1\n      0x0100\n      exp\n      swap1\n      div\n      0xff\n      and\n        /* \"test39.sol\":12375:12422  if (blacklist[msg.sender]) revert Blacklisted() */\n      iszero\n      tag_72\n      jumpi\n        /* \"test39.sol\":12409:12422  Blacklisted() */\n      mload(0x40)\n      0x09550c7700000000000000000000000000000000000000000000000000000000\n      dup2\n      mstore\n      0x04\n      add\n      mload(0x40)\n      dup1\n      swap2\n      sub\n      swap1\n      revert\n        /* \"test39.sol\":12375:12422  if (blacklist[msg.sender]) revert Blacklisted() */\n    tag_72:\n        /* \"test39.sol\":12763:12764  0 */\n      0x00\n        /* \"test39.sol\":12752:12759  _amount */\n      dup2\n        /* \"test39.sol\":12752:12764  _amount == 0 */\n      sub\n        /* \"test39.sol\":12748:12788  if (_amount == 0) revert InvalidAmount() */\n      tag_74\n      jumpi\n        /* \"test39.sol\":12773:12788  InvalidAmount() */\n      mload(0x40)\n      0x2c5211c600000000000000000000000000000000000000000000000000000000\n      dup2\n      mstore\n      0x04\n      add\n      mload(0x40)\n      dup1\n      swap2\n      sub\n      swap1\n      revert\n        /* \"test39.sol\":12748:12788  if (_amount == 0) revert InvalidAmount() */\n    tag_74:\n        /* \"test39.sol\":11691:11700  100 ether */\n      0x056bc75e2d63100000\n        /* \"test39.sol\":12805:12812  _amount */\n      dup2\n        /* \"test39.sol\":12805:12826  _amount > MAX_DEPOSIT */\n      gt\n        /* \"test39.sol\":12801:12865  if (_amount > MAX_DEPOSIT)... */\n      iszero\n      tag_75\n      jumpi\n        /* \"test39.sol\":12848:12865  DepositTooLarge() */\n      mload(0x40)\n      0xc56d46d300000000000000000000000000000000000000000000000000000000\n      dup2\n      mstore\n      0x04\n      add\n      mload(0x40)\n      dup1\n      swap2\n      sub\n      swap1\n      revert\n        /* \"test39.sol\":12801:12865  if (_amount > MAX_DEPOSIT)... */\n    tag_75:\n        /* \"test39.sol\":12942:12952  1000 ether */\n      0x3635c9adc5dea00000\n        /* \"test39.sol\":12919:12926  _amount */\n      dup2\n        /* \"test39.sol\":12896:12904  balances */\n      0x01\n        /* \"test39.sol\":12896:12916  balances[msg.sender] */\n      0x00\n        /* \"test39.sol\":12905:12915  msg.sender */\n      caller\n        /* \"test39.sol\":12896:12916  balances[msg.sender] */\n      0xffffffffffffffffffffffffffffffffffffffff\n      and\n      0xffffffffffffffffffffffffffffffffffffffff\n      and\n      dup2\n      mstore\n      0x20\n      add\n      swap1\n      dup2\n      mstore\n      0x20\n      add\n      0x00\n      keccak256\n      sload\n        /* \"test39.sol\":12896:12926  balances[msg.sender] + _amount */\n      tag_76\n      swap2\n      swap1\n      tag_77\n      jump\t// in\n    tag_76:\n        /* \"test39.sol\":12896:12952  balances[msg.sender] + _amount >... */\n      gt\n        /* \"test39.sol\":12878:13020  if (... */\n      iszero\n      tag_78\n      jumpi\n        /* \"test39.sol\":12986:13008  BalanceLimitExceeded() */\n      mload(0x40)\n      0xdf6ffda700000000000000000000000000000000000000000000000000000000\n      dup2\n      mstore\n      0x04\n      add\n      mload(0x40)\n      dup1\n      swap2\n      sub\n      swap1\n      revert\n        /* \"test39.sol\":12878:13020  if (... */\n    tag_78:\n        /* \"test39.sol\":13056:13063  _amount */\n      dup1\n        /* \"test39.sol\":13032:13040  balances */\n      0x01\n        /* \"test39.sol\":13032:13052  balances[msg.sender] */\n      0x00\n        /* \"test39.sol\":13041:13051  msg.sender */\n      caller\n        /* \"test39.sol\":13032:13052  balances[msg.sender] */\n      0xffffffffffffffffffffffffffffffffffffffff\n      and\n      0xffffffffffffffffffffffffffffffffffffffff\n      and\n      dup2\n      mstore\n      0x20\n      add\n      swap1\n      dup2\n      mstore\n      0x20\n      add\n      0x00\n      keccak256\n      0x00\n        /* \"test39.sol\":13032:13063  balances[msg.sender] += _amount */\n      dup3\n      dup3\n      sload\n      tag_79\n      swap2\n      swap1\n      tag_77\n      jump\t// in\n    tag_79:\n      swap3\n      pop\n      pop\n      dup2\n      swap1\n      sstore\n      pop\n        /* \"test39.sol\":12633:13071  function deposit(uint256 _amount)... */\n      pop\n      jump\t// out\n        /* \"test39.sol\":13889:14166  function resetBalance(... */\n    tag_45:\n        /* \"test39.sol\":12187:12192  owner */\n      0x00\n      0x00\n      swap1\n      sload\n      swap1\n      0x0100\n      exp\n      swap1\n      div\n      0xffffffffffffffffffffffffffffffffffffffff\n      and\n        /* \"test39.sol\":12173:12192  msg.sender != owner */\n      0xffffffffffffffffffffffffffffffffffffffff\n      and\n        /* \"test39.sol\":12173:12183  msg.sender */\n      caller\n        /* \"test39.sol\":12173:12192  msg.sender != owner */\n      0xffffffffffffffffffffffffffffffffffffffff\n      and\n      eq\n        /* \"test39.sol\":12169:12211  if (msg.sender != owner) revert NotOwner() */\n      tag_81\n      jumpi\n        /* \"test39.sol\":12201:12211  NotOwner() */\n      mload(0x40)\n      0x30cd747100000000000000000000000000000000000000000000000000000000\n      dup2\n      mstore\n      0x04\n      add\n      mload(0x40)\n      dup1\n      swap2\n      sub\n      swap1\n      revert\n        /* \"test39.sol\":12169:12211  if (msg.sender != owner) revert NotOwner() */\n    tag_81:\n        /* \"test39.sol\":14016:14017  0 */\n      0x00\n        /* \"test39.sol\":13999:14018  _user == address(0) */\n      0xffffffffffffffffffffffffffffffffffffffff\n      and\n        /* \"test39.sol\":13999:14004  _user */\n      dup2\n        /* \"test39.sol\":13999:14018  _user == address(0) */\n      0xffffffffffffffffffffffffffffffffffffffff\n      and\n      sub\n        /* \"test39.sol\":13995:14056  if (_user == address(0))... */\n      tag_83\n      jumpi\n        /* \"test39.sol\":14040:14056  InvalidAddress() */\n      mload(0x40)\n      0xe6c4247b00000000000000000000000000000000000000000000000000000000\n      dup2\n      mstore\n      0x04\n      add\n      mload(0x40)\n      dup1\n      swap2\n      sub\n      swap1\n      revert\n        /* \"test39.sol\":13995:14056  if (_user == address(0))... */\n    tag_83:\n        /* \"test39.sol\":14092:14093  0 */\n      0x00\n        /* \"test39.sol\":14073:14081  balances */\n      0x01\n        /* \"test39.sol\":14073:14088  balances[_user] */\n      0x00\n        /* \"test39.sol\":14082:14087  _user */\n      dup4\n        /* \"test39.sol\":14073:14088  balances[_user] */\n      0xffffffffffffffffffffffffffffffffffffffff\n      and\n      0xffffffffffffffffffffffffffffffffffffffff\n      and\n      dup2\n      mstore\n      0x20\n      add\n      swap1\n      dup2\n      mstore\n      0x20\n      add\n      0x00\n      keccak256\n      sload\n        /* \"test39.sol\":14073:14093  balances[_user] == 0 */\n      sub\n        /* \"test39.sol\":14069:14126  if (balances[_user] == 0)... */\n      tag_84\n      jumpi\n        /* \"test39.sol\":14115:14126  NoBalance() */\n      mload(0x40)\n      0xc2caa2a600000000000000000000000000000000000000000000000000000000\n      dup2\n      mstore\n      0x04\n      add\n      mload(0x40)\n      dup1\n      swap2\n      sub\n      swap1\n      revert\n        /* \"test39.sol\":14069:14126  if (balances[_user] == 0)... */\n    tag_84:\n        /* \"test39.sol\":14157:14158  0 */\n      0x00\n        /* \"test39.sol\":14139:14147  balances */\n      0x01\n        /* \"test39.sol\":14139:14154  balances[_user] */\n      0x00\n        /* \"test39.sol\":14148:14153  _user */\n      dup4\n        /* \"test39.sol\":14139:14154  balances[_user] */\n      0xffffffffffffffffffffffffffffffffffffffff\n      and\n      0xffffffffffffffffffffffffffffffffffffffff\n      and\n      dup2\n      mstore\n      0x20\n      add\n      swap1\n      dup2\n      mstore\n      0x20\n      add\n      0x00\n      keccak256\n        /* \"test39.sol\":14139:14158  balances[_user] = 0 */\n      dup2\n      swap1\n      sstore\n      pop\n        /* \"test39.sol\":13889:14166  function resetBalance(... */\n      pop\n      jump\t// out\n        /* \"test39.sol\":11653:11700  uint256 public constant MAX_DEPOSIT = 100 ether */\n    tag_47:\n        /* \"test39.sol\":11691:11700  100 ether */\n      0x056bc75e2d63100000\n        /* \"test39.sol\":11653:11700  uint256 public constant MAX_DEPOSIT = 100 ether */\n      dup2\n      jump\t// out\n        /* \"test39.sol\":11576:11617  mapping(address => bool) public blacklist */\n    tag_51:\n      mstore(0x20, 0x02)\n      dup1\n      0x00\n      mstore\n      keccak256(0x00, 0x40)\n      0x00\n      swap2\n      pop\n      sload\n      swap1\n      0x0100\n      exp\n      swap1\n      div\n      0xff\n      and\n      dup2\n      jump\t// out\n        /* \"#utility.yul\":88:205   */\n    tag_86:\n        /* \"#utility.yul\":197:198   */\n      0x00\n        /* \"#utility.yul\":194:195   */\n      0x00\n        /* \"#utility.yul\":187:199   */\n      revert\n        /* \"#utility.yul\":334:460   */\n    tag_88:\n        /* \"#utility.yul\":371:378   */\n      0x00\n        /* \"#utility.yul\":411:453   */\n      0xffffffffffffffffffffffffffffffffffffffff\n        /* \"#utility.yul\":404:409   */\n      dup3\n        /* \"#utility.yul\":400:454   */\n      and\n        /* \"#utility.yul\":389:454   */\n      swap1\n      pop\n        /* \"#utility.yul\":334:460   */\n      swap2\n      swap1\n      pop\n      jump\t// out\n        /* \"#utility.yul\":466:562   */\n    tag_89:\n        /* \"#utility.yul\":503:510   */\n      0x00\n        /* \"#utility.yul\":532:556   */\n      tag_108\n        /* \"#utility.yul\":550:555   */\n      dup3\n        /* \"#utility.yul\":532:556   */\n      tag_88\n      jump\t// in\n    tag_108:\n        /* \"#utility.yul\":521:556   */\n      swap1\n      pop\n        /* \"#utility.yul\":466:562   */\n      swap2\n      swap1\n      pop\n      jump\t// out\n        /* \"#utility.yul\":568:690   */\n    tag_90:\n        /* \"#utility.yul\":641:665   */\n      tag_110\n        /* \"#utility.yul\":659:664   */\n      dup2\n        /* \"#utility.yul\":641:665   */\n      tag_89\n      jump\t// in\n    tag_110:\n        /* \"#utility.yul\":634:639   */\n      dup2\n        /* \"#utility.yul\":631:666   */\n      eq\n        /* \"#utility.yul\":621:684   */\n      tag_111\n      jumpi\n        /* \"#utility.yul\":680:681   */\n      0x00\n        /* \"#utility.yul\":677:678   */\n      0x00\n        /* \"#utility.yul\":670:682   */\n      revert\n        /* \"#utility.yul\":621:684   */\n    tag_111:\n        /* \"#utility.yul\":568:690   */\n      pop\n      jump\t// out\n        /* \"#utility.yul\":696:835   */\n    tag_91:\n        /* \"#utility.yul\":742:747   */\n      0x00\n        /* \"#utility.yul\":780:786   */\n      dup2\n        /* \"#utility.yul\":767:787   */\n      calldataload\n        /* \"#utility.yul\":758:787   */\n      swap1\n      pop\n        /* \"#utility.yul\":796:829   */\n      tag_113\n        /* \"#utility.yul\":823:828   */\n      dup2\n        /* \"#utility.yul\":796:829   */\n      tag_90\n      jump\t// in\n    tag_113:\n        /* \"#utility.yul\":696:835   */\n      swap3\n      swap2\n      pop\n      pop\n      jump\t// out\n        /* \"#utility.yul\":841:931   */\n    tag_92:\n        /* \"#utility.yul\":875:882   */\n      0x00\n        /* \"#utility.yul\":918:923   */\n      dup2\n        /* \"#utility.yul\":911:924   */\n      iszero\n        /* \"#utility.yul\":904:925   */\n      iszero\n        /* \"#utility.yul\":893:925   */\n      swap1\n      pop\n        /* \"#utility.yul\":841:931   */\n      swap2\n      swap1\n      pop\n      jump\t// out\n        /* \"#utility.yul\":937:1053   */\n    tag_93:\n        /* \"#utility.yul\":1007:1028   */\n      tag_116\n        /* \"#utility.yul\":1022:1027   */\n      dup2\n        /* \"#utility.yul\":1007:1028   */\n      tag_92\n      jump\t// in\n    tag_116:\n        /* \"#utility.yul\":1000:1005   */\n      dup2\n        /* \"#utility.yul\":997:1029   */\n      eq\n        /* \"#utility.yul\":987:1047   */\n      tag_117\n      jumpi\n        /* \"#utility.yul\":1043:1044   */\n      0x00\n        /* \"#utility.yul\":1040:1041   */\n      0x00\n        /* \"#utility.yul\":1033:1045   */\n      revert\n        /* \"#utility.yul\":987:1047   */\n    tag_117:\n        /* \"#utility.yul\":937:1053   */\n      pop\n      jump\t// out\n        /* \"#utility.yul\":1059:1192   */\n    tag_94:\n        /* \"#utility.yul\":1102:1107   */\n      0x00\n        /* \"#utility.yul\":1140:1146   */\n      dup2\n        /* \"#utility.yul\":1127:1147   */\n      calldataload\n        /* \"#utility.yul\":1118:1147   */\n      swap1\n      pop\n        /* \"#utility.yul\":1156:1186   */\n      tag_119\n        /* \"#utility.yul\":1180:1185   */\n      dup2\n        /* \"#utility.yul\":1156:1186   */\n      tag_93\n      jump\t// in\n    tag_119:\n        /* \"#utility.yul\":1059:1192   */\n      swap3\n      swap2\n      pop\n      pop\n      jump\t// out\n        /* \"#utility.yul\":1198:1666   */\n    tag_16:\n        /* \"#utility.yul\":1263:1269   */\n      0x00\n        /* \"#utility.yul\":1271:1277   */\n      0x00\n        /* \"#utility.yul\":1320:1322   */\n      0x40\n        /* \"#utility.yul\":1308:1317   */\n      dup4\n        /* \"#utility.yul\":1299:1306   */\n      dup6\n        /* \"#utility.yul\":1295:1318   */\n      sub\n        /* \"#utility.yul\":1291:1323   */\n      slt\n        /* \"#utility.yul\":1288:1407   */\n      iszero\n      tag_121\n      jumpi\n        /* \"#utility.yul\":1326:1405   */\n      tag_122\n      tag_86\n      jump\t// in\n    tag_122:\n        /* \"#utility.yul\":1288:1407   */\n    tag_121:\n        /* \"#utility.yul\":1446:1447   */\n      0x00\n        /* \"#utility.yul\":1471:1524   */\n      tag_123\n        /* \"#utility.yul\":1516:1523   */\n      dup6\n        /* \"#utility.yul\":1507:1513   */\n      dup3\n        /* \"#utility.yul\":1496:1505   */\n      dup7\n        /* \"#utility.yul\":1492:1514   */\n      add\n        /* \"#utility.yul\":1471:1524   */\n      tag_91\n      jump\t// in\n    tag_123:\n        /* \"#utility.yul\":1461:1524   */\n      swap3\n      pop\n        /* \"#utility.yul\":1417:1534   */\n      pop\n        /* \"#utility.yul\":1573:1575   */\n      0x20\n        /* \"#utility.yul\":1599:1649   */\n      tag_124\n        /* \"#utility.yul\":1641:1648   */\n      dup6\n        /* \"#utility.yul\":1632:1638   */\n      dup3\n        /* \"#utility.yul\":1621:1630   */\n      dup7\n        /* \"#utility.yul\":1617:1639   */\n      add\n        /* \"#utility.yul\":1599:1649   */\n      tag_94\n      jump\t// in\n    tag_124:\n        /* \"#utility.yul\":1589:1649   */\n      swap2\n      pop\n        /* \"#utility.yul\":1544:1659   */\n      pop\n        /* \"#utility.yul\":1198:1666   */\n      swap3\n      pop\n      swap3\n      swap1\n      pop\n      jump\t// out\n        /* \"#utility.yul\":1672:1995   */\n    tag_20:\n        /* \"#utility.yul\":1728:1734   */\n      0x00\n        /* \"#utility.yul\":1777:1779   */\n      0x20\n        /* \"#utility.yul\":1765:1774   */\n      dup3\n        /* \"#utility.yul\":1756:1763   */\n      dup5\n        /* \"#utility.yul\":1752:1775   */\n      sub\n        /* \"#utility.yul\":1748:1780   */\n      slt\n        /* \"#utility.yul\":1745:1864   */\n      iszero\n      tag_126\n      jumpi\n        /* \"#utility.yul\":1783:1862   */\n      tag_127\n      tag_86\n      jump\t// in\n    tag_127:\n        /* \"#utility.yul\":1745:1864   */\n    tag_126:\n        /* \"#utility.yul\":1903:1904   */\n      0x00\n        /* \"#utility.yul\":1928:1978   */\n      tag_128\n        /* \"#utility.yul\":1970:1977   */\n      dup5\n        /* \"#utility.yul\":1961:1967   */\n      dup3\n        /* \"#utility.yul\":1950:1959   */\n      dup6\n        /* \"#utility.yul\":1946:1968   */\n      add\n        /* \"#utility.yul\":1928:1978   */\n      tag_94\n      jump\t// in\n    tag_128:\n        /* \"#utility.yul\":1918:1978   */\n      swap2\n      pop\n        /* \"#utility.yul\":1874:1988   */\n      pop\n        /* \"#utility.yul\":1672:1995   */\n      swap3\n      swap2\n      pop\n      pop\n      jump\t// out\n        /* \"#utility.yul\":2001:2330   */\n    tag_24:\n        /* \"#utility.yul\":2060:2066   */\n      0x00\n        /* \"#utility.yul\":2109:2111   */\n      0x20\n        /* \"#utility.yul\":2097:2106   */\n      dup3\n        /* \"#utility.yul\":2088:2095   */\n      dup5\n        /* \"#utility.yul\":2084:2107   */\n      sub\n        /* \"#utility.yul\":2080:2112   */\n      slt\n        /* \"#utility.yul\":2077:2196   */\n      iszero\n      tag_130\n      jumpi\n        /* \"#utility.yul\":2115:2194   */\n      tag_131\n      tag_86\n      jump\t// in\n    tag_131:\n        /* \"#utility.yul\":2077:2196   */\n    tag_130:\n        /* \"#utility.yul\":2235:2236   */\n      0x00\n        /* \"#utility.yul\":2260:2313   */\n      tag_132\n        /* \"#utility.yul\":2305:2312   */\n      dup5\n        /* \"#utility.yul\":2296:2302   */\n      dup3\n        /* \"#utility.yul\":2285:2294   */\n      dup6\n        /* \"#utility.yul\":2281:2303   */\n      add\n        /* \"#utility.yul\":2260:2313   */\n      tag_91\n      jump\t// in\n    tag_132:\n        /* \"#utility.yul\":2250:2313   */\n      swap2\n      pop\n        /* \"#utility.yul\":2206:2323   */\n      pop\n        /* \"#utility.yul\":2001:2330   */\n      swap3\n      swap2\n      pop\n      pop\n      jump\t// out\n        /* \"#utility.yul\":2336:2413   */\n    tag_95:\n        /* \"#utility.yul\":2373:2380   */\n      0x00\n        /* \"#utility.yul\":2402:2407   */\n      dup2\n        /* \"#utility.yul\":2391:2407   */\n      swap1\n      pop\n        /* \"#utility.yul\":2336:2413   */\n      swap2\n      swap1\n      pop\n      jump\t// out\n        /* \"#utility.yul\":2419:2537   */\n    tag_96:\n        /* \"#utility.yul\":2506:2530   */\n      tag_135\n        /* \"#utility.yul\":2524:2529   */\n      dup2\n        /* \"#utility.yul\":2506:2530   */\n      tag_95\n      jump\t// in\n    tag_135:\n        /* \"#utility.yul\":2501:2504   */\n      dup3\n        /* \"#utility.yul\":2494:2531   */\n      mstore\n        /* \"#utility.yul\":2419:2537   */\n      pop\n      pop\n      jump\t// out\n        /* \"#utility.yul\":2543:2765   */\n    tag_27:\n        /* \"#utility.yul\":2636:2640   */\n      0x00\n        /* \"#utility.yul\":2674:2676   */\n      0x20\n        /* \"#utility.yul\":2663:2672   */\n      dup3\n        /* \"#utility.yul\":2659:2677   */\n      add\n        /* \"#utility.yul\":2651:2677   */\n      swap1\n      pop\n        /* \"#utility.yul\":2687:2758   */\n      tag_137\n        /* \"#utility.yul\":2755:2756   */\n      0x00\n        /* \"#utility.yul\":2744:2753   */\n      dup4\n        /* \"#utility.yul\":2740:2757   */\n      add\n        /* \"#utility.yul\":2731:2737   */\n      dup5\n        /* \"#utility.yul\":2687:2758   */\n      tag_96\n      jump\t// in\n    tag_137:\n        /* \"#utility.yul\":2543:2765   */\n      swap3\n      swap2\n      pop\n      pop\n      jump\t// out\n        /* \"#utility.yul\":2771:2893   */\n    tag_97:\n        /* \"#utility.yul\":2844:2868   */\n      tag_139\n        /* \"#utility.yul\":2862:2867   */\n      dup2\n        /* \"#utility.yul\":2844:2868   */\n      tag_95\n      jump\t// in\n    tag_139:\n        /* \"#utility.yul\":2837:2842   */\n      dup2\n        /* \"#utility.yul\":2834:2869   */\n      eq\n        /* \"#utility.yul\":2824:2887   */\n      tag_140\n      jumpi\n        /* \"#utility.yul\":2883:2884   */\n      0x00\n        /* \"#utility.yul\":2880:2881   */\n      0x00\n        /* \"#utility.yul\":2873:2885   */\n      revert\n        /* \"#utility.yul\":2824:2887   */\n    tag_140:\n        /* \"#utility.yul\":2771:2893   */\n      pop\n      jump\t// out\n        /* \"#utility.yul\":2899:3038   */\n    tag_98:\n        /* \"#utility.yul\":2945:2950   */\n      0x00\n        /* \"#utility.yul\":2983:2989   */\n      dup2\n        /* \"#utility.yul\":2970:2990   */\n      calldataload\n        /* \"#utility.yul\":2961:2990   */\n      swap1\n      pop\n        /* \"#utility.yul\":2999:3032   */\n      tag_142\n        /* \"#utility.yul\":3026:3031   */\n      dup2\n        /* \"#utility.yul\":2999:3032   */\n      tag_97\n      jump\t// in\n    tag_142:\n        /* \"#utility.yul\":2899:3038   */\n      swap3\n      swap2\n      pop\n      pop\n      jump\t// out\n        /* \"#utility.yul\":3044:3373   */\n    tag_30:\n        /* \"#utility.yul\":3103:3109   */\n      0x00\n        /* \"#utility.yul\":3152:3154   */\n      0x20\n        /* \"#utility.yul\":3140:3149   */\n      dup3\n        /* \"#utility.yul\":3131:3138   */\n      dup5\n        /* \"#utility.yul\":3127:3150   */\n      sub\n        /* \"#utility.yul\":3123:3155   */\n      slt\n        /* \"#utility.yul\":3120:3239   */\n      iszero\n      tag_144\n      jumpi\n        /* \"#utility.yul\":3158:3237   */\n      tag_145\n      tag_86\n      jump\t// in\n    tag_145:\n        /* \"#utility.yul\":3120:3239   */\n    tag_144:\n        /* \"#utility.yul\":3278:3279   */\n      0x00\n        /* \"#utility.yul\":3303:3356   */\n      tag_146\n        /* \"#utility.yul\":3348:3355   */\n      dup5\n        /* \"#utility.yul\":3339:3345   */\n      dup3\n        /* \"#utility.yul\":3328:3337   */\n      dup6\n        /* \"#utility.yul\":3324:3346   */\n      add\n        /* \"#utility.yul\":3303:3356   */\n      tag_98\n      jump\t// in\n    tag_146:\n        /* \"#utility.yul\":3293:3356   */\n      swap2\n      pop\n        /* \"#utility.yul\":3249:3366   */\n      pop\n        /* \"#utility.yul\":3044:3373   */\n      swap3\n      swap2\n      pop\n      pop\n      jump\t// out\n        /* \"#utility.yul\":3379:3488   */\n    tag_99:\n        /* \"#utility.yul\":3460:3481   */\n      tag_148\n        /* \"#utility.yul\":3475:3480   */\n      dup2\n        /* \"#utility.yul\":3460:3481   */\n      tag_92\n      jump\t// in\n    tag_148:\n        /* \"#utility.yul\":3455:3458   */\n      dup3\n        /* \"#utility.yul\":3448:3482   */\n      mstore\n        /* \"#utility.yul\":3379:3488   */\n      pop\n      pop\n      jump\t// out\n        /* \"#utility.yul\":3494:3704   */\n    tag_35:\n        /* \"#utility.yul\":3581:3585   */\n      0x00\n        /* \"#utility.yul\":3619:3621   */\n      0x20\n        /* \"#utility.yul\":3608:3617   */\n      dup3\n        /* \"#utility.yul\":3604:3622   */\n      add\n        /* \"#utility.yul\":3596:3622   */\n      swap1\n      pop\n        /* \"#utility.yul\":3632:3697   */\n      tag_150\n        /* \"#utility.yul\":3694:3695   */\n      0x00\n        /* \"#utility.yul\":3683:3692   */\n      dup4\n        /* \"#utility.yul\":3679:3696   */\n      add\n        /* \"#utility.yul\":3670:3676   */\n      dup5\n        /* \"#utility.yul\":3632:3697   */\n      tag_99\n      jump\t// in\n    tag_150:\n        /* \"#utility.yul\":3494:3704   */\n      swap3\n      swap2\n      pop\n      pop\n      jump\t// out\n        /* \"#utility.yul\":3710:3828   */\n    tag_100:\n        /* \"#utility.yul\":3797:3821   */\n      tag_152\n        /* \"#utility.yul\":3815:3820   */\n      dup2\n        /* \"#utility.yul\":3797:3821   */\n      tag_89\n      jump\t// in\n    tag_152:\n        /* \"#utility.yul\":3792:3795   */\n      dup3\n        /* \"#utility.yul\":3785:3822   */\n      mstore\n        /* \"#utility.yul\":3710:3828   */\n      pop\n      pop\n      jump\t// out\n        /* \"#utility.yul\":3834:4056   */\n    tag_39:\n        /* \"#utility.yul\":3927:3931   */\n      0x00\n        /* \"#utility.yul\":3965:3967   */\n      0x20\n        /* \"#utility.yul\":3954:3963   */\n      dup3\n        /* \"#utility.yul\":3950:3968   */\n      add\n        /* \"#utility.yul\":3942:3968   */\n      swap1\n      pop\n        /* \"#utility.yul\":3978:4049   */\n      tag_154\n        /* \"#utility.yul\":4046:4047   */\n      0x00\n        /* \"#utility.yul\":4035:4044   */\n      dup4\n        /* \"#utility.yul\":4031:4048   */\n      add\n        /* \"#utility.yul\":4022:4028   */\n      dup5\n        /* \"#utility.yul\":3978:4049   */\n      tag_100\n      jump\t// in\n    tag_154:\n        /* \"#utility.yul\":3834:4056   */\n      swap3\n      swap2\n      pop\n      pop\n      jump\t// out\n        /* \"#utility.yul\":4062:4242   */\n    tag_101:\n        /* \"#utility.yul\":4110:4187   */\n      0x4e487b7100000000000000000000000000000000000000000000000000000000\n        /* \"#utility.yul\":4107:4108   */\n      0x00\n        /* \"#utility.yul\":4100:4188   */\n      mstore\n        /* \"#utility.yul\":4207:4211   */\n      0x11\n        /* \"#utility.yul\":4204:4205   */\n      0x04\n        /* \"#utility.yul\":4197:4212   */\n      mstore\n        /* \"#utility.yul\":4231:4235   */\n      0x24\n        /* \"#utility.yul\":4228:4229   */\n      0x00\n        /* \"#utility.yul\":4221:4236   */\n      revert\n        /* \"#utility.yul\":4248:4442   */\n    tag_68:\n        /* \"#utility.yul\":4288:4292   */\n      0x00\n        /* \"#utility.yul\":4308:4328   */\n      tag_157\n        /* \"#utility.yul\":4326:4327   */\n      dup3\n        /* \"#utility.yul\":4308:4328   */\n      tag_95\n      jump\t// in\n    tag_157:\n        /* \"#utility.yul\":4303:4328   */\n      swap2\n      pop\n        /* \"#utility.yul\":4342:4362   */\n      tag_158\n        /* \"#utility.yul\":4360:4361   */\n      dup4\n        /* \"#utility.yul\":4342:4362   */\n      tag_95\n      jump\t// in\n    tag_158:\n        /* \"#utility.yul\":4337:4362   */\n      swap3\n      pop\n        /* \"#utility.yul\":4386:4387   */\n      dup3\n        /* \"#utility.yul\":4383:4384   */\n      dup3\n        /* \"#utility.yul\":4379:4388   */\n      sub\n        /* \"#utility.yul\":4371:4388   */\n      swap1\n      pop\n        /* \"#utility.yul\":4410:4411   */\n      dup2\n        /* \"#utility.yul\":4404:4408   */\n      dup2\n        /* \"#utility.yul\":4401:4412   */\n      gt\n        /* \"#utility.yul\":4398:4435   */\n      iszero\n      tag_159\n      jumpi\n        /* \"#utility.yul\":4415:4433   */\n      tag_160\n      tag_101\n      jump\t// in\n    tag_160:\n        /* \"#utility.yul\":4398:4435   */\n    tag_159:\n        /* \"#utility.yul\":4248:4442   */\n      swap3\n      swap2\n      pop\n      pop\n      jump\t// out\n        /* \"#utility.yul\":4448:4639   */\n    tag_77:\n        /* \"#utility.yul\":4488:4491   */\n      0x00\n        /* \"#utility.yul\":4507:4527   */\n      tag_162\n        /* \"#utility.yul\":4525:4526   */\n      dup3\n        /* \"#utility.yul\":4507:4527   */\n      tag_95\n      jump\t// in\n    tag_162:\n        /* \"#utility.yul\":4502:4527   */\n      swap2\n      pop\n        /* \"#utility.yul\":4541:4561   */\n      tag_163\n        /* \"#utility.yul\":4559:4560   */\n      dup4\n        /* \"#utility.yul\":4541:4561   */\n      tag_95\n      jump\t// in\n    tag_163:\n        /* \"#utility.yul\":4536:4561   */\n      swap3\n      pop\n        /* \"#utility.yul\":4584:4585   */\n      dup3\n        /* \"#utility.yul\":4581:4582   */\n      dup3\n        /* \"#utility.yul\":4577:4586   */\n      add\n        /* \"#utility.yul\":4570:4586   */\n      swap1\n      pop\n        /* \"#utility.yul\":4605:4608   */\n      dup1\n        /* \"#utility.yul\":4602:4603   */\n      dup3\n        /* \"#utility.yul\":4599:4609   */\n      gt\n        /* \"#utility.yul\":4596:4632   */\n      iszero\n      tag_164\n      jumpi\n        /* \"#utility.yul\":4612:4630   */\n      tag_165\n      tag_101\n      jump\t// in\n    tag_165:\n        /* \"#utility.yul\":4596:4632   */\n    tag_164:\n        /* \"#utility.yul\":4448:4639   */\n      swap3\n      swap2\n      pop\n      pop\n      jump\t// out\n\n    auxdata: 0xa2646970667358221220c0bb615b89205163bd0d7dddda30e21679f42b7df73a7eb3badca07f89507b7f64736f6c63430008220033\n}\n",
				"bytecode": {
					"linkReferences": {},
					"object": "6080604052348015600e575f5ffd5b50335f5f6101000a81548173ffffffffffffffffffffffffffffffffffffffff021916908373ffffffffffffffffffffffffffffffffffffffff160217905550610c9a8061005b5f395ff3fe608060405234801561000f575f5ffd5b506004361061009c575f3560e01c80638da5cb5b116100645780638da5cb5b14610142578063b6b55f2514610160578063bd0518441461017c578063dd5967c314610198578063f9f92be4146101b65761009c565b8063153b0d1e146100a057806316c38b3c146100bc57806327e235e3146100d85780632e1a7d4d146101085780635c975abb14610124575b5f5ffd5b6100ba60048036038101906100b59190610a67565b6101e6565b005b6100d660048036038101906100d19190610aa5565b610328565b005b6100f260048036038101906100ed9190610ad0565b6103c9565b6040516100ff9190610b13565b60405180910390f35b610122600480360381019061011d9190610b56565b6103de565b005b61012c6105ab565b6040516101399190610b90565b60405180910390f35b61014a6105bd565b6040516101579190610bb8565b60405180910390f35b61017a60048036038101906101759190610b56565b6105e1565b005b61019660048036038101906101919190610ad0565b610805565b005b6101a06109aa565b6040516101ad9190610b13565b60405180910390f35b6101d060048036038101906101cb9190610ad0565b6109b7565b6040516101dd9190610b90565b60405180910390f35b5f5f9054906101000a900473ffffffffffffffffffffffffffffffffffffffff1673ffffffffffffffffffffffffffffffffffffffff163373ffffffffffffffffffffffffffffffffffffffff161461026b576040517f30cd747100000000000000000000000000000000000000000000000000000000815260040160405180910390fd5b5f73ffffffffffffffffffffffffffffffffffffffff168273ffffffffffffffffffffffffffffffffffffffff16036102d0576040517fe6c4247b00000000000000000000000000000000000000000000000000000000815260040160405180910390fd5b8060025f8473ffffffffffffffffffffffffffffffffffffffff1673ffffffffffffffffffffffffffffffffffffffff1681526020019081526020015f205f6101000a81548160ff0219169083151502179055505050565b5f5f9054906101000a900473ffffffffffffffffffffffffffffffffffffffff1673ffffffffffffffffffffffffffffffffffffffff163373ffffffffffffffffffffffffffffffffffffffff16146103ad576040517f30cd747100000000000000000000000000000000000000000000000000000000815260040160405180910390fd5b8060035f6101000a81548160ff02191690831515021790555050565b6001602052805f5260405f205f915090505481565b60035f9054906101000a900460ff1615610424576040517fab35696f00000000000000000000000000000000000000000000000000000000815260040160405180910390fd5b60025f3373ffffffffffffffffffffffffffffffffffffffff1673ffffffffffffffffffffffffffffffffffffffff1681526020019081526020015f205f9054906101000a900460ff16156104a5576040517f09550c7700000000000000000000000000000000000000000000000000000000815260040160405180910390fd5b5f81036104de576040517f2c5211c600000000000000000000000000000000000000000000000000000000815260040160405180910390fd5b8060015f3373ffffffffffffffffffffffffffffffffffffffff1673ffffffffffffffffffffffffffffffffffffffff1681526020019081526020015f20541015610555576040517ff4d678b800000000000000000000000000000000000000000000000000000000815260040160405180910390fd5b8060015f3373ffffffffffffffffffffffffffffffffffffffff1673ffffffffffffffffffffffffffffffffffffffff1681526020019081526020015f205f8282546105a19190610bfe565b9250508190555050565b60035f9054906101000a900460ff1681565b5f5f9054906101000a900473ffffffffffffffffffffffffffffffffffffffff1681565b60035f9054906101000a900460ff1615610627576040517fab35696f00000000000000000000000000000000000000000000000000000000815260040160405180910390fd5b60025f3373ffffffffffffffffffffffffffffffffffffffff1673ffffffffffffffffffffffffffffffffffffffff1681526020019081526020015f205f9054906101000a900460ff16156106a8576040517f09550c7700000000000000000000000000000000000000000000000000000000815260040160405180910390fd5b5f81036106e1576040517f2c5211c600000000000000000000000000000000000000000000000000000000815260040160405180910390fd5b68056bc75e2d63100000811115610724576040517fc56d46d300000000000000000000000000000000000000000000000000000000815260040160405180910390fd5b683635c9adc5dea000008160015f3373ffffffffffffffffffffffffffffffffffffffff1673ffffffffffffffffffffffffffffffffffffffff1681526020019081526020015f20546107779190610c31565b11156107af576040517fdf6ffda700000000000000000000000000000000000000000000000000000000815260040160405180910390fd5b8060015f3373ffffffffffffffffffffffffffffffffffffffff1673ffffffffffffffffffffffffffffffffffffffff1681526020019081526020015f205f8282546107fb9190610c31565b9250508190555050565b5f5f9054906101000a900473ffffffffffffffffffffffffffffffffffffffff1673ffffffffffffffffffffffffffffffffffffffff163373ffffffffffffffffffffffffffffffffffffffff161461088a576040517f30cd747100000000000000000000000000000000000000000000000000000000815260040160405180910390fd5b5f73ffffffffffffffffffffffffffffffffffffffff168173ffffffffffffffffffffffffffffffffffffffff16036108ef576040517fe6c4247b00000000000000000000000000000000000000000000000000000000815260040160405180910390fd5b5f60015f8373ffffffffffffffffffffffffffffffffffffffff1673ffffffffffffffffffffffffffffffffffffffff1681526020019081526020015f205403610965576040517fc2caa2a600000000000000000000000000000000000000000000000000000000815260040160405180910390fd5b5f60015f8373ffffffffffffffffffffffffffffffffffffffff1673ffffffffffffffffffffffffffffffffffffffff1681526020019081526020015f208190555050565b68056bc75e2d6310000081565b6002602052805f5260405f205f915054906101000a900460ff1681565b5f5ffd5b5f73ffffffffffffffffffffffffffffffffffffffff82169050919050565b5f610a01826109d8565b9050919050565b610a11816109f7565b8114610a1b575f5ffd5b50565b5f81359050610a2c81610a08565b92915050565b5f8115159050919050565b610a4681610a32565b8114610a50575f5ffd5b50565b5f81359050610a6181610a3d565b92915050565b5f5f60408385031215610a7d57610a7c6109d4565b5b5f610a8a85828601610a1e565b9250506020610a9b85828601610a53565b9150509250929050565b5f60208284031215610aba57610ab96109d4565b5b5f610ac784828501610a53565b91505092915050565b5f60208284031215610ae557610ae46109d4565b5b5f610af284828501610a1e565b91505092915050565b5f819050919050565b610b0d81610afb565b82525050565b5f602082019050610b265f830184610b04565b92915050565b610b3581610afb565b8114610b3f575f5ffd5b50565b5f81359050610b5081610b2c565b92915050565b5f60208284031215610b6b57610b6a6109d4565b5b5f610b7884828501610b42565b91505092915050565b610b8a81610a32565b82525050565b5f602082019050610ba35f830184610b81565b92915050565b610bb2816109f7565b82525050565b5f602082019050610bcb5f830184610ba9565b92915050565b7f4e487b71000000000000000000000000000000000000000000000000000000005f52601160045260245ffd5b5f610c0882610afb565b9150610c1383610afb565b9250828203905081811115610c2b57610c2a610bd1565b5b92915050565b5f610c3b82610afb565b9150610c4683610afb565b9250828201905080821115610c5e57610c5d610bd1565b5b9291505056fea2646970667358221220c0bb615b89205163bd0d7dddda30e21679f42b7df73a7eb3badca07f89507b7f64736f6c63430008220033",
					"opcodes": "PUSH1 0x80 PUSH1 0x40 MSTORE CALLVALUE DUP1 ISZERO PUSH1 0xE JUMPI PUSH0 PUSH0 REVERT JUMPDEST POP CALLER PUSH0 PUSH0 PUSH2 0x100 EXP DUP2 SLOAD DUP2 PUSH20 0xFFFFFFFFFFFFFFFFFFFFFFFFFFFFFFFFFFFFFFFF MUL NOT AND SWAP1 DUP4 PUSH20 0xFFFFFFFFFFFFFFFFFFFFFFFFFFFFFFFFFFFFFFFF AND MUL OR SWAP1 SSTORE POP PUSH2 0xC9A DUP1 PUSH2 0x5B PUSH0 CODECOPY PUSH0 RETURN INVALID PUSH1 0x80 PUSH1 0x40 MSTORE CALLVALUE DUP1 ISZERO PUSH2 0xF JUMPI PUSH0 PUSH0 REVERT JUMPDEST POP PUSH1 0x4 CALLDATASIZE LT PUSH2 0x9C JUMPI PUSH0 CALLDATALOAD PUSH1 0xE0 SHR DUP1 PUSH4 0x8DA5CB5B GT PUSH2 0x64 JUMPI DUP1 PUSH4 0x8DA5CB5B EQ PUSH2 0x142 JUMPI DUP1 PUSH4 0xB6B55F25 EQ PUSH2 0x160 JUMPI DUP1 PUSH4 0xBD051844 EQ PUSH2 0x17C JUMPI DUP1 PUSH4 0xDD5967C3 EQ PUSH2 0x198 JUMPI DUP1 PUSH4 0xF9F92BE4 EQ PUSH2 0x1B6 JUMPI PUSH2 0x9C JUMP JUMPDEST DUP1 PUSH4 0x153B0D1E EQ PUSH2 0xA0 JUMPI DUP1 PUSH4 0x16C38B3C EQ PUSH2 0xBC JUMPI DUP1 PUSH4 0x27E235E3 EQ PUSH2 0xD8 JUMPI DUP1 PUSH4 0x2E1A7D4D EQ PUSH2 0x108 JUMPI DUP1 PUSH4 0x5C975ABB EQ PUSH2 0x124 JUMPI JUMPDEST PUSH0 PUSH0 REVERT JUMPDEST PUSH2 0xBA PUSH1 0x4 DUP1 CALLDATASIZE SUB DUP2 ADD SWAP1 PUSH2 0xB5 SWAP2 SWAP1 PUSH2 0xA67 JUMP JUMPDEST PUSH2 0x1E6 JUMP JUMPDEST STOP JUMPDEST PUSH2 0xD6 PUSH1 0x4 DUP1 CALLDATASIZE SUB DUP2 ADD SWAP1 PUSH2 0xD1 SWAP2 SWAP1 PUSH2 0xAA5 JUMP JUMPDEST PUSH2 0x328 JUMP JUMPDEST STOP JUMPDEST PUSH2 0xF2 PUSH1 0x4 DUP1 CALLDATASIZE SUB DUP2 ADD SWAP1 PUSH2 0xED SWAP2 SWAP1 PUSH2 0xAD0 JUMP JUMPDEST PUSH2 0x3C9 JUMP JUMPDEST PUSH1 0x40 MLOAD PUSH2 0xFF SWAP2 SWAP1 PUSH2 0xB13 JUMP JUMPDEST PUSH1 0x40 MLOAD DUP1 SWAP2 SUB SWAP1 RETURN JUMPDEST PUSH2 0x122 PUSH1 0x4 DUP1 CALLDATASIZE SUB DUP2 ADD SWAP1 PUSH2 0x11D SWAP2 SWAP1 PUSH2 0xB56 JUMP JUMPDEST PUSH2 0x3DE JUMP JUMPDEST STOP JUMPDEST PUSH2 0x12C PUSH2 0x5AB JUMP JUMPDEST PUSH1 0x40 MLOAD PUSH2 0x139 SWAP2 SWAP1 PUSH2 0xB90 JUMP JUMPDEST PUSH1 0x40 MLOAD DUP1 SWAP2 SUB SWAP1 RETURN JUMPDEST PUSH2 0x14A PUSH2 0x5BD JUMP JUMPDEST PUSH1 0x40 MLOAD PUSH2 0x157 SWAP2 SWAP1 PUSH2 0xBB8 JUMP JUMPDEST PUSH1 0x40 MLOAD DUP1 SWAP2 SUB SWAP1 RETURN JUMPDEST PUSH2 0x17A PUSH1 0x4 DUP1 CALLDATASIZE SUB DUP2 ADD SWAP1 PUSH2 0x175 SWAP2 SWAP1 PUSH2 0xB56 JUMP JUMPDEST PUSH2 0x5E1 JUMP JUMPDEST STOP JUMPDEST PUSH2 0x196 PUSH1 0x4 DUP1 CALLDATASIZE SUB DUP2 ADD SWAP1 PUSH2 0x191 SWAP2 SWAP1 PUSH2 0xAD0 JUMP JUMPDEST PUSH2 0x805 JUMP JUMPDEST STOP JUMPDEST PUSH2 0x1A0 PUSH2 0x9AA JUMP JUMPDEST PUSH1 0x40 MLOAD PUSH2 0x1AD SWAP2 SWAP1 PUSH2 0xB13 JUMP JUMPDEST PUSH1 0x40 MLOAD DUP1 SWAP2 SUB SWAP1 RETURN JUMPDEST PUSH2 0x1D0 PUSH1 0x4 DUP1 CALLDATASIZE SUB DUP2 ADD SWAP1 PUSH2 0x1CB SWAP2 SWAP1 PUSH2 0xAD0 JUMP JUMPDEST PUSH2 0x9B7 JUMP JUMPDEST PUSH1 0x40 MLOAD PUSH2 0x1DD SWAP2 SWAP1 PUSH2 0xB90 JUMP JUMPDEST PUSH1 0x40 MLOAD DUP1 SWAP2 SUB SWAP1 RETURN JUMPDEST PUSH0 PUSH0 SWAP1 SLOAD SWAP1 PUSH2 0x100 EXP SWAP1 DIV PUSH20 0xFFFFFFFFFFFFFFFFFFFFFFFFFFFFFFFFFFFFFFFF AND PUSH20 0xFFFFFFFFFFFFFFFFFFFFFFFFFFFFFFFFFFFFFFFF AND CALLER PUSH20 0xFFFFFFFFFFFFFFFFFFFFFFFFFFFFFFFFFFFFFFFF AND EQ PUSH2 0x26B JUMPI PUSH1 0x40 MLOAD PUSH32 0x30CD747100000000000000000000000000000000000000000000000000000000 DUP2 MSTORE PUSH1 0x4 ADD PUSH1 0x40 MLOAD DUP1 SWAP2 SUB SWAP1 REVERT JUMPDEST PUSH0 PUSH20 0xFFFFFFFFFFFFFFFFFFFFFFFFFFFFFFFFFFFFFFFF AND DUP3 PUSH20 0xFFFFFFFFFFFFFFFFFFFFFFFFFFFFFFFFFFFFFFFF AND SUB PUSH2 0x2D0 JUMPI PUSH1 0x40 MLOAD PUSH32 0xE6C4247B00000000000000000000000000000000000000000000000000000000 DUP2 MSTORE PUSH1 0x4 ADD PUSH1 0x40 MLOAD DUP1 SWAP2 SUB SWAP1 REVERT JUMPDEST DUP1 PUSH1 0x2 PUSH0 DUP5 PUSH20 0xFFFFFFFFFFFFFFFFFFFFFFFFFFFFFFFFFFFFFFFF AND PUSH20 0xFFFFFFFFFFFFFFFFFFFFFFFFFFFFFFFFFFFFFFFF AND DUP2 MSTORE PUSH1 0x20 ADD SWAP1 DUP2 MSTORE PUSH1 0x20 ADD PUSH0 KECCAK256 PUSH0 PUSH2 0x100 EXP DUP2 SLOAD DUP2 PUSH1 0xFF MUL NOT AND SWAP1 DUP4 ISZERO ISZERO MUL OR SWAP1 SSTORE POP POP POP JUMP JUMPDEST PUSH0 PUSH0 SWAP1 SLOAD SWAP1 PUSH2 0x100 EXP SWAP1 DIV PUSH20 0xFFFFFFFFFFFFFFFFFFFFFFFFFFFFFFFFFFFFFFFF AND PUSH20 0xFFFFFFFFFFFFFFFFFFFFFFFFFFFFFFFFFFFFFFFF AND CALLER PUSH20 0xFFFFFFFFFFFFFFFFFFFFFFFFFFFFFFFFFFFFFFFF AND EQ PUSH2 0x3AD JUMPI PUSH1 0x40 MLOAD PUSH32 0x30CD747100000000000000000000000000000000000000000000000000000000 DUP2 MSTORE PUSH1 0x4 ADD PUSH1 0x40 MLOAD DUP1 SWAP2 SUB SWAP1 REVERT JUMPDEST DUP1 PUSH1 0x3 PUSH0 PUSH2 0x100 EXP DUP2 SLOAD DUP2 PUSH1 0xFF MUL NOT AND SWAP1 DUP4 ISZERO ISZERO MUL OR SWAP1 SSTORE POP POP JUMP JUMPDEST PUSH1 0x1 PUSH1 0x20 MSTORE DUP1 PUSH0 MSTORE PUSH1 0x40 PUSH0 KECCAK256 PUSH0 SWAP2 POP SWAP1 POP SLOAD DUP2 JUMP JUMPDEST PUSH1 0x3 PUSH0 SWAP1 SLOAD SWAP1 PUSH2 0x100 EXP SWAP1 DIV PUSH1 0xFF AND ISZERO PUSH2 0x424 JUMPI PUSH1 0x40 MLOAD PUSH32 0xAB35696F00000000000000000000000000000000000000000000000000000000 DUP2 MSTORE PUSH1 0x4 ADD PUSH1 0x40 MLOAD DUP1 SWAP2 SUB SWAP1 REVERT JUMPDEST PUSH1 0x2 PUSH0 CALLER PUSH20 0xFFFFFFFFFFFFFFFFFFFFFFFFFFFFFFFFFFFFFFFF AND PUSH20 0xFFFFFFFFFFFFFFFFFFFFFFFFFFFFFFFFFFFFFFFF AND DUP2 MSTORE PUSH1 0x20 ADD SWAP1 DUP2 MSTORE PUSH1 0x20 ADD PUSH0 KECCAK256 PUSH0 SWAP1 SLOAD SWAP1 PUSH2 0x100 EXP SWAP1 DIV PUSH1 0xFF AND ISZERO PUSH2 0x4A5 JUMPI PUSH1 0x40 MLOAD PUSH32 0x9550C7700000000000000000000000000000000000000000000000000000000 DUP2 MSTORE PUSH1 0x4 ADD PUSH1 0x40 MLOAD DUP1 SWAP2 SUB SWAP1 REVERT JUMPDEST PUSH0 DUP2 SUB PUSH2 0x4DE JUMPI PUSH1 0x40 MLOAD PUSH32 0x2C5211C600000000000000000000000000000000000000000000000000000000 DUP2 MSTORE PUSH1 0x4 ADD PUSH1 0x40 MLOAD DUP1 SWAP2 SUB SWAP1 REVERT JUMPDEST DUP1 PUSH1 0x1 PUSH0 CALLER PUSH20 0xFFFFFFFFFFFFFFFFFFFFFFFFFFFFFFFFFFFFFFFF AND PUSH20 0xFFFFFFFFFFFFFFFFFFFFFFFFFFFFFFFFFFFFFFFF AND DUP2 MSTORE PUSH1 0x20 ADD SWAP1 DUP2 MSTORE PUSH1 0x20 ADD PUSH0 KECCAK256 SLOAD LT ISZERO PUSH2 0x555 JUMPI PUSH1 0x40 MLOAD PUSH32 0xF4D678B800000000000000000000000000000000000000000000000000000000 DUP2 MSTORE PUSH1 0x4 ADD PUSH1 0x40 MLOAD DUP1 SWAP2 SUB SWAP1 REVERT JUMPDEST DUP1 PUSH1 0x1 PUSH0 CALLER PUSH20 0xFFFFFFFFFFFFFFFFFFFFFFFFFFFFFFFFFFFFFFFF AND PUSH20 0xFFFFFFFFFFFFFFFFFFFFFFFFFFFFFFFFFFFFFFFF AND DUP2 MSTORE PUSH1 0x20 ADD SWAP1 DUP2 MSTORE PUSH1 0x20 ADD PUSH0 KECCAK256 PUSH0 DUP3 DUP3 SLOAD PUSH2 0x5A1 SWAP2 SWAP1 PUSH2 0xBFE JUMP JUMPDEST SWAP3 POP POP DUP2 SWAP1 SSTORE POP POP JUMP JUMPDEST PUSH1 0x3 PUSH0 SWAP1 SLOAD SWAP1 PUSH2 0x100 EXP SWAP1 DIV PUSH1 0xFF AND DUP2 JUMP JUMPDEST PUSH0 PUSH0 SWAP1 SLOAD SWAP1 PUSH2 0x100 EXP SWAP1 DIV PUSH20 0xFFFFFFFFFFFFFFFFFFFFFFFFFFFFFFFFFFFFFFFF AND DUP2 JUMP JUMPDEST PUSH1 0x3 PUSH0 SWAP1 SLOAD SWAP1 PUSH2 0x100 EXP SWAP1 DIV PUSH1 0xFF AND ISZERO PUSH2 0x627 JUMPI PUSH1 0x40 MLOAD PUSH32 0xAB35696F00000000000000000000000000000000000000000000000000000000 DUP2 MSTORE PUSH1 0x4 ADD PUSH1 0x40 MLOAD DUP1 SWAP2 SUB SWAP1 REVERT JUMPDEST PUSH1 0x2 PUSH0 CALLER PUSH20 0xFFFFFFFFFFFFFFFFFFFFFFFFFFFFFFFFFFFFFFFF AND PUSH20 0xFFFFFFFFFFFFFFFFFFFFFFFFFFFFFFFFFFFFFFFF AND DUP2 MSTORE PUSH1 0x20 ADD SWAP1 DUP2 MSTORE PUSH1 0x20 ADD PUSH0 KECCAK256 PUSH0 SWAP1 SLOAD SWAP1 PUSH2 0x100 EXP SWAP1 DIV PUSH1 0xFF AND ISZERO PUSH2 0x6A8 JUMPI PUSH1 0x40 MLOAD PUSH32 0x9550C7700000000000000000000000000000000000000000000000000000000 DUP2 MSTORE PUSH1 0x4 ADD PUSH1 0x40 MLOAD DUP1 SWAP2 SUB SWAP1 REVERT JUMPDEST PUSH0 DUP2 SUB PUSH2 0x6E1 JUMPI PUSH1 0x40 MLOAD PUSH32 0x2C5211C600000000000000000000000000000000000000000000000000000000 DUP2 MSTORE PUSH1 0x4 ADD PUSH1 0x40 MLOAD DUP1 SWAP2 SUB SWAP1 REVERT JUMPDEST PUSH9 0x56BC75E2D63100000 DUP2 GT ISZERO PUSH2 0x724 JUMPI PUSH1 0x40 MLOAD PUSH32 0xC56D46D300000000000000000000000000000000000000000000000000000000 DUP2 MSTORE PUSH1 0x4 ADD PUSH1 0x40 MLOAD DUP1 SWAP2 SUB SWAP1 REVERT JUMPDEST PUSH9 0x3635C9ADC5DEA00000 DUP2 PUSH1 0x1 PUSH0 CALLER PUSH20 0xFFFFFFFFFFFFFFFFFFFFFFFFFFFFFFFFFFFFFFFF AND PUSH20 0xFFFFFFFFFFFFFFFFFFFFFFFFFFFFFFFFFFFFFFFF AND DUP2 MSTORE PUSH1 0x20 ADD SWAP1 DUP2 MSTORE PUSH1 0x20 ADD PUSH0 KECCAK256 SLOAD PUSH2 0x777 SWAP2 SWAP1 PUSH2 0xC31 JUMP JUMPDEST GT ISZERO PUSH2 0x7AF JUMPI PUSH1 0x40 MLOAD PUSH32 0xDF6FFDA700000000000000000000000000000000000000000000000000000000 DUP2 MSTORE PUSH1 0x4 ADD PUSH1 0x40 MLOAD DUP1 SWAP2 SUB SWAP1 REVERT JUMPDEST DUP1 PUSH1 0x1 PUSH0 CALLER PUSH20 0xFFFFFFFFFFFFFFFFFFFFFFFFFFFFFFFFFFFFFFFF AND PUSH20 0xFFFFFFFFFFFFFFFFFFFFFFFFFFFFFFFFFFFFFFFF AND DUP2 MSTORE PUSH1 0x20 ADD SWAP1 DUP2 MSTORE PUSH1 0x20 ADD PUSH0 KECCAK256 PUSH0 DUP3 DUP3 SLOAD PUSH2 0x7FB SWAP2 SWAP1 PUSH2 0xC31 JUMP JUMPDEST SWAP3 POP POP DUP2 SWAP1 SSTORE POP POP JUMP JUMPDEST PUSH0 PUSH0 SWAP1 SLOAD SWAP1 PUSH2 0x100 EXP SWAP1 DIV PUSH20 0xFFFFFFFFFFFFFFFFFFFFFFFFFFFFFFFFFFFFFFFF AND PUSH20 0xFFFFFFFFFFFFFFFFFFFFFFFFFFFFFFFFFFFFFFFF AND CALLER PUSH20 0xFFFFFFFFFFFFFFFFFFFFFFFFFFFFFFFFFFFFFFFF AND EQ PUSH2 0x88A JUMPI PUSH1 0x40 MLOAD PUSH32 0x30CD747100000000000000000000000000000000000000000000000000000000 DUP2 MSTORE PUSH1 0x4 ADD PUSH1 0x40 MLOAD DUP1 SWAP2 SUB SWAP1 REVERT JUMPDEST PUSH0 PUSH20 0xFFFFFFFFFFFFFFFFFFFFFFFFFFFFFFFFFFFFFFFF AND DUP2 PUSH20 0xFFFFFFFFFFFFFFFFFFFFFFFFFFFFFFFFFFFFFFFF AND SUB PUSH2 0x8EF JUMPI PUSH1 0x40 MLOAD PUSH32 0xE6C4247B00000000000000000000000000000000000000000000000000000000 DUP2 MSTORE PUSH1 0x4 ADD PUSH1 0x40 MLOAD DUP1 SWAP2 SUB SWAP1 REVERT JUMPDEST PUSH0 PUSH1 0x1 PUSH0 DUP4 PUSH20 0xFFFFFFFFFFFFFFFFFFFFFFFFFFFFFFFFFFFFFFFF AND PUSH20 0xFFFFFFFFFFFFFFFFFFFFFFFFFFFFFFFFFFFFFFFF AND DUP2 MSTORE PUSH1 0x20 ADD SWAP1 DUP2 MSTORE PUSH1 0x20 ADD PUSH0 KECCAK256 SLOAD SUB PUSH2 0x965 JUMPI PUSH1 0x40 MLOAD PUSH32 0xC2CAA2A600000000000000000000000000000000000000000000000000000000 DUP2 MSTORE PUSH1 0x4 ADD PUSH1 0x40 MLOAD DUP1 SWAP2 SUB SWAP1 REVERT JUMPDEST PUSH0 PUSH1 0x1 PUSH0 DUP4 PUSH20 0xFFFFFFFFFFFFFFFFFFFFFFFFFFFFFFFFFFFFFFFF AND PUSH20 0xFFFFFFFFFFFFFFFFFFFFFFFFFFFFFFFFFFFFFFFF AND DUP2 MSTORE PUSH1 0x20 ADD SWAP1 DUP2 MSTORE PUSH1 0x20 ADD PUSH0 KECCAK256 DUP2 SWAP1 SSTORE POP POP JUMP JUMPDEST PUSH9 0x56BC75E2D63100000 DUP2 JUMP JUMPDEST PUSH1 0x2 PUSH1 0x20 MSTORE DUP1 PUSH0 MSTORE PUSH1 0x40 PUSH0 KECCAK256 PUSH0 SWAP2 POP SLOAD SWAP1 PUSH2 0x100 EXP SWAP1 DIV PUSH1 0xFF AND DUP2 JUMP JUMPDEST PUSH0 PUSH0 REVERT JUMPDEST PUSH0 PUSH20 0xFFFFFFFFFFFFFFFFFFFFFFFFFFFFFFFFFFFFFFFF DUP3 AND SWAP1 POP SWAP2 SWAP1 POP JUMP JUMPDEST PUSH0 PUSH2 0xA01 DUP3 PUSH2 0x9D8 JUMP JUMPDEST SWAP1 POP SWAP2 SWAP1 POP JUMP JUMPDEST PUSH2 0xA11 DUP2 PUSH2 0x9F7 JUMP JUMPDEST DUP2 EQ PUSH2 0xA1B JUMPI PUSH0 PUSH0 REVERT JUMPDEST POP JUMP JUMPDEST PUSH0 DUP2 CALLDATALOAD SWAP1 POP PUSH2 0xA2C DUP2 PUSH2 0xA08 JUMP JUMPDEST SWAP3 SWAP2 POP POP JUMP JUMPDEST PUSH0 DUP2 ISZERO ISZERO SWAP1 POP SWAP2 SWAP1 POP JUMP JUMPDEST PUSH2 0xA46 DUP2 PUSH2 0xA32 JUMP JUMPDEST DUP2 EQ PUSH2 0xA50 JUMPI PUSH0 PUSH0 REVERT JUMPDEST POP JUMP JUMPDEST PUSH0 DUP2 CALLDATALOAD SWAP1 POP PUSH2 0xA61 DUP2 PUSH2 0xA3D JUMP JUMPDEST SWAP3 SWAP2 POP POP JUMP JUMPDEST PUSH0 PUSH0 PUSH1 0x40 DUP4 DUP6 SUB SLT ISZERO PUSH2 0xA7D JUMPI PUSH2 0xA7C PUSH2 0x9D4 JUMP JUMPDEST JUMPDEST PUSH0 PUSH2 0xA8A DUP6 DUP3 DUP7 ADD PUSH2 0xA1E JUMP JUMPDEST SWAP3 POP POP PUSH1 0x20 PUSH2 0xA9B DUP6 DUP3 DUP7 ADD PUSH2 0xA53 JUMP JUMPDEST SWAP2 POP POP SWAP3 POP SWAP3 SWAP1 POP JUMP JUMPDEST PUSH0 PUSH1 0x20 DUP3 DUP5 SUB SLT ISZERO PUSH2 0xABA JUMPI PUSH2 0xAB9 PUSH2 0x9D4 JUMP JUMPDEST JUMPDEST PUSH0 PUSH2 0xAC7 DUP5 DUP3 DUP6 ADD PUSH2 0xA53 JUMP JUMPDEST SWAP2 POP POP SWAP3 SWAP2 POP POP JUMP JUMPDEST PUSH0 PUSH1 0x20 DUP3 DUP5 SUB SLT ISZERO PUSH2 0xAE5 JUMPI PUSH2 0xAE4 PUSH2 0x9D4 JUMP JUMPDEST JUMPDEST PUSH0 PUSH2 0xAF2 DUP5 DUP3 DUP6 ADD PUSH2 0xA1E JUMP JUMPDEST SWAP2 POP POP SWAP3 SWAP2 POP POP JUMP JUMPDEST PUSH0 DUP2 SWAP1 POP SWAP2 SWAP1 POP JUMP JUMPDEST PUSH2 0xB0D DUP2 PUSH2 0xAFB JUMP JUMPDEST DUP3 MSTORE POP POP JUMP JUMPDEST PUSH0 PUSH1 0x20 DUP3 ADD SWAP1 POP PUSH2 0xB26 PUSH0 DUP4 ADD DUP5 PUSH2 0xB04 JUMP JUMPDEST SWAP3 SWAP2 POP POP JUMP JUMPDEST PUSH2 0xB35 DUP2 PUSH2 0xAFB JUMP JUMPDEST DUP2 EQ PUSH2 0xB3F JUMPI PUSH0 PUSH0 REVERT JUMPDEST POP JUMP JUMPDEST PUSH0 DUP2 CALLDATALOAD SWAP1 POP PUSH2 0xB50 DUP2 PUSH2 0xB2C JUMP JUMPDEST SWAP3 SWAP2 POP POP JUMP JUMPDEST PUSH0 PUSH1 0x20 DUP3 DUP5 SUB SLT ISZERO PUSH2 0xB6B JUMPI PUSH2 0xB6A PUSH2 0x9D4 JUMP JUMPDEST JUMPDEST PUSH0 PUSH2 0xB78 DUP5 DUP3 DUP6 ADD PUSH2 0xB42 JUMP JUMPDEST SWAP2 POP POP SWAP3 SWAP2 POP POP JUMP JUMPDEST PUSH2 0xB8A DUP2 PUSH2 0xA32 JUMP JUMPDEST DUP3 MSTORE POP POP JUMP JUMPDEST PUSH0 PUSH1 0x20 DUP3 ADD SWAP1 POP PUSH2 0xBA3 PUSH0 DUP4 ADD DUP5 PUSH2 0xB81 JUMP JUMPDEST SWAP3 SWAP2 POP POP JUMP JUMPDEST PUSH2 0xBB2 DUP2 PUSH2 0x9F7 JUMP JUMPDEST DUP3 MSTORE POP POP JUMP JUMPDEST PUSH0 PUSH1 0x20 DUP3 ADD SWAP1 POP PUSH2 0xBCB PUSH0 DUP4 ADD DUP5 PUSH2 0xBA9 JUMP JUMPDEST SWAP3 SWAP2 POP POP JUMP JUMPDEST PUSH32 0x4E487B7100000000000000000000000000000000000000000000000000000000 PUSH0 MSTORE PUSH1 0x11 PUSH1 0x4 MSTORE PUSH1 0x24 PUSH0 REVERT JUMPDEST PUSH0 PUSH2 0xC08 DUP3 PUSH2 0xAFB JUMP JUMPDEST SWAP2 POP PUSH2 0xC13 DUP4 PUSH2 0xAFB JUMP JUMPDEST SWAP3 POP DUP3 DUP3 SUB SWAP1 POP DUP2 DUP2 GT ISZERO PUSH2 0xC2B JUMPI PUSH2 0xC2A PUSH2 0xBD1 JUMP JUMPDEST JUMPDEST SWAP3 SWAP2 POP POP JUMP JUMPDEST PUSH0 PUSH2 0xC3B DUP3 PUSH2 0xAFB JUMP JUMPDEST SWAP2 POP PUSH2 0xC46 DUP4 PUSH2 0xAFB JUMP JUMPDEST SWAP3 POP DUP3 DUP3 ADD SWAP1 POP DUP1 DUP3 GT ISZERO PUSH2 0xC5E JUMPI PUSH2 0xC5D PUSH2 0xBD1 JUMP JUMPDEST JUMPDEST SWAP3 SWAP2 POP POP JUMP INVALID LOG2 PUSH5 0x6970667358 0x22 SLT KECCAK256 0xC0 0xBB PUSH2 0x5B89 KECCAK256 MLOAD PUSH4 0xBD0D7DDD 0xDA ADDRESS 0xE2 AND PUSH26 0xF42B7DF73A7EB3BADCA07F89507B7F64736F6C63430008220033 "
				},
				"gasEstimates": {
					"creation": {
						"codeDepositCost": "645200",
						"executionCost": "24938",
						"totalCost": "670138"
					},
					"external": {
						"MAX_DEPOSIT()": "391",
						"balances(address)": "2847",
						"blacklist(address)": "2921",
						"deposit(uint256)": "infinite",
						"owner()": "2507",
						"paused()": "2555",
						"resetBalance(address)": "10006",
						"setBlacklist(address,bool)": "27182",
						"setPaused(bool)": "26864",
						"withdraw(uint256)": "infinite"
					}
				},
				"methodIdentifiers": {
					"MAX_DEPOSIT()": "dd5967c3",
					"balances(address)": "27e235e3",
					"blacklist(address)": "f9f92be4",
					"deposit(uint256)": "b6b55f25",
					"owner()": "8da5cb5b",
					"paused()": "5c975abb",
					"resetBalance(address)": "bd051844",
					"setBlacklist(address,bool)": "153b0d1e",
					"setPaused(bool)": "16c38b3c",
					"withdraw(uint256)": "2e1a7d4d"
				}
			},
			"storageLayout": {
				"storage": [
					{
						"astId": 21,
						"contract": "test39.sol:MultipleRequireChecks",
						"label": "owner",
						"offset": 0,
						"slot": "0",
						"type": "t_address"
					},
					{
						"astId": 25,
						"contract": "test39.sol:MultipleRequireChecks",
						"label": "balances",
						"offset": 0,
						"slot": "1",
						"type": "t_mapping(t_address,t_uint256)"
					},
					{
						"astId": 29,
						"contract": "test39.sol:MultipleRequireChecks",
						"label": "blacklist",
						"offset": 0,
						"slot": "2",
						"type": "t_mapping(t_address,t_bool)"
					},
					{
						"astId": 31,
						"contract": "test39.sol:MultipleRequireChecks",
						"label": "paused",
						"offset": 0,
						"slot": "3",
						"type": "t_bool"
					}
				],
				"types": {
					"t_address": {
						"encoding": "inplace",
						"label": "address",
						"numberOfBytes": "20"
					},
					"t_bool": {
						"encoding": "inplace",
						"label": "bool",
						"numberOfBytes": "1"
					},
					"t_mapping(t_address,t_bool)": {
						"encoding": "mapping",
						"key": "t_address",
						"label": "mapping(address => bool)",
						"numberOfBytes": "32",
						"value": "t_bool"
					},
					"t_mapping(t_address,t_uint256)": {
						"encoding": "mapping",
						"key": "t_address",
						"label": "mapping(address => uint256)",
						"numberOfBytes": "32",
						"value": "t_uint256"
					},
					"t_uint256": {
						"encoding": "inplace",
						"label": "uint256",
						"numberOfBytes": "32"
					}
				}
			},
			"userdoc": {
				"kind": "user",
				"methods": {},
				"version": 1
			}
		}
	}
}