{
	"test49.sol": {
		"SafeTokenWithdraw": {
			"abi": [
				{
					"inputs": [
						{
							"internalType": "address",
							"name": "_token",
							"type": "address"
						}
					],
					"stateMutability": "nonpayable",
					"type": "constructor"
				},
				{
					"inputs": [
						{
							"internalType": "address",
							"name": "",
							"type": "address"
						}
					],
					"name": "balances",
					"outputs": [
						{
							"internalType": "uint256",
							"name": "",
							"type": "uint256"
						}
					],
					"stateMutability": "view",
					"type": "function"
				},
				{
					"inputs": [
						{
							"internalType": "uint256",
							"name": "_amount",
							"type": "uint256"
						}
					],
					"name": "safeTokenWithdraw",
					"outputs": [],
					"stateMutability": "nonpayable",
					"type": "function"
				},
				{
					"inputs": [],
					"name": "token",
					"outputs": [
						{
							"internalType": "contract IERC20",
							"name": "",
							"type": "address"
						}
					],
					"stateMutability": "view",
					"type": "function"
				},
				{
					"inputs": [],
					"name": "totalBalance",
					"outputs": [
						{
							"internalType": "uint256",
							"name": "",
							"type": "uint256"
						}
					],
					"stateMutability": "view",
					"type": "function"
				}
			],
			"devdoc": {
				"kind": "dev",
				"methods": {},
				"version": 1
			},
			"evm": {
				"assembly": "    /* \"test49.sol\":15746:17985  contract SafeTokenWithdraw { ... */\n  mstore(0x40, 0x80)\n    /* \"test49.sol\":15988:16071  constructor(address _token) { ... */\n  callvalue\n  dup1\n  iszero\n  tag_1\n  jumpi\n  revert(0x00, 0x00)\ntag_1:\n  pop\n  mload(0x40)\n  sub(codesize, bytecodeSize)\n  dup1\n  bytecodeSize\n  dup4\n  codecopy\n  dup2\n  dup2\n  add\n  0x40\n  mstore\n  dup2\n  add\n  swap1\n  tag_2\n  swap2\n  swap1\n  tag_3\n  jump\t// in\ntag_2:\n    /* \"test49.sol\":16047:16053  _token */\n  dup1\n    /* \"test49.sol\":16032:16037  token */\n  0x00\n  0x00\n    /* \"test49.sol\":16032:16054  token = IERC20(_token) */\n  0x0100\n  exp\n  dup2\n  sload\n  dup2\n  0xffffffffffffffffffffffffffffffffffffffff\n  mul\n  not\n  and\n  swap1\n  dup4\n  0xffffffffffffffffffffffffffffffffffffffff\n  and\n  mul\n  or\n  swap1\n  sstore\n  pop\n    /* \"test49.sol\":15988:16071  constructor(address _token) { ... */\n  pop\n    /* \"test49.sol\":15746:17985  contract SafeTokenWithdraw { ... */\n  jump(tag_6)\n    /* \"#utility.yul\":88:205   */\ntag_8:\n    /* \"#utility.yul\":197:198   */\n  0x00\n    /* \"#utility.yul\":194:195   */\n  0x00\n    /* \"#utility.yul\":187:199   */\n  revert\n    /* \"#utility.yul\":334:460   */\ntag_10:\n    /* \"#utility.yul\":371:378   */\n  0x00\n    /* \"#utility.yul\":411:453   */\n  0xffffffffffffffffffffffffffffffffffffffff\n    /* \"#utility.yul\":404:409   */\n  dup3\n    /* \"#utility.yul\":400:454   */\n  and\n    /* \"#utility.yul\":389:454   */\n  swap1\n  pop\n    /* \"#utility.yul\":334:460   */\n  swap2\n  swap1\n  pop\n  jump\t// out\n    /* \"#utility.yul\":466:562   */\ntag_11:\n    /* \"#utility.yul\":503:510   */\n  0x00\n    /* \"#utility.yul\":532:556   */\n  tag_20\n    /* \"#utility.yul\":550:555   */\n  dup3\n    /* \"#utility.yul\":532:556   */\n  tag_10\n  jump\t// in\ntag_20:\n    /* \"#utility.yul\":521:556   */\n  swap1\n  pop\n    /* \"#utility.yul\":466:562   */\n  swap2\n  swap1\n  pop\n  jump\t// out\n    /* \"#utility.yul\":568:690   */\ntag_12:\n    /* \"#utility.yul\":641:665   */\n  tag_22\n    /* \"#utility.yul\":659:664   */\n  dup2\n    /* \"#utility.yul\":641:665   */\n  tag_11\n  jump\t// in\ntag_22:\n    /* \"#utility.yul\":634:639   */\n  dup2\n    /* \"#utility.yul\":631:666   */\n  eq\n    /* \"#utility.yul\":621:684   */\n  tag_23\n  jumpi\n    /* \"#utility.yul\":680:681   */\n  0x00\n    /* \"#utility.yul\":677:678   */\n  0x00\n    /* \"#utility.yul\":670:682   */\n  revert\n    /* \"#utility.yul\":621:684   */\ntag_23:\n    /* \"#utility.yul\":568:690   */\n  pop\n  jump\t// out\n    /* \"#utility.yul\":696:839   */\ntag_13:\n    /* \"#utility.yul\":753:758   */\n  0x00\n    /* \"#utility.yul\":784:790   */\n  dup2\n    /* \"#utility.yul\":778:791   */\n  mload\n    /* \"#utility.yul\":769:791   */\n  swap1\n  pop\n    /* \"#utility.yul\":800:833   */\n  tag_25\n    /* \"#utility.yul\":827:832   */\n  dup2\n    /* \"#utility.yul\":800:833   */\n  tag_12\n  jump\t// in\ntag_25:\n    /* \"#utility.yul\":696:839   */\n  swap3\n  swap2\n  pop\n  pop\n  jump\t// out\n    /* \"#utility.yul\":845:1196   */\ntag_3:\n    /* \"#utility.yul\":915:921   */\n  0x00\n    /* \"#utility.yul\":964:966   */\n  0x20\n    /* \"#utility.yul\":952:961   */\n  dup3\n    /* \"#utility.yul\":943:950   */\n  dup5\n    /* \"#utility.yul\":939:962   */\n  sub\n    /* \"#utility.yul\":935:967   */\n  slt\n    /* \"#utility.yul\":932:1051   */\n  iszero\n  tag_27\n  jumpi\n    /* \"#utility.yul\":970:1049   */\n  tag_28\n  tag_8\n  jump\t// in\ntag_28:\n    /* \"#utility.yul\":932:1051   */\ntag_27:\n    /* \"#utility.yul\":1090:1091   */\n  0x00\n    /* \"#utility.yul\":1115:1179   */\n  tag_29\n    /* \"#utility.yul\":1171:1178   */\n  dup5\n    /* \"#utility.yul\":1162:1168   */\n  dup3\n    /* \"#utility.yul\":1151:1160   */\n  dup6\n    /* \"#utility.yul\":1147:1169   */\n  add\n    /* \"#utility.yul\":1115:1179   */\n  tag_13\n  jump\t// in\ntag_29:\n    /* \"#utility.yul\":1105:1179   */\n  swap2\n  pop\n    /* \"#utility.yul\":1061:1189   */\n  pop\n    /* \"#utility.yul\":845:1196   */\n  swap3\n  swap2\n  pop\n  pop\n  jump\t// out\n    /* \"test49.sol\":15746:17985  contract SafeTokenWithdraw { ... */\ntag_6:\n  dataSize(sub_0)\n  dup1\n  dataOffset(sub_0)\n  0x00\n  codecopy\n  0x00\n  return\nstop\n\nsub_0: assembly {\n        /* \"test49.sol\":15746:17985  contract SafeTokenWithdraw { ... */\n      mstore(0x40, 0x80)\n      callvalue\n      dup1\n      iszero\n      tag_1\n      jumpi\n      revert(0x00, 0x00)\n    tag_1:\n      pop\n      jumpi(tag_2, lt(calldatasize, 0x04))\n      shr(0xe0, calldataload(0x00))\n      dup1\n      0x06fbef84\n      eq\n      tag_3\n      jumpi\n      dup1\n      0x27e235e3\n      eq\n      tag_4\n      jumpi\n      dup1\n      0xad7a672f\n      eq\n      tag_5\n      jumpi\n      dup1\n      0xfc0c546a\n      eq\n      tag_6\n      jumpi\n    tag_2:\n      revert(0x00, 0x00)\n        /* \"test49.sol\":16934:17981  function safeTokenWithdraw( ... */\n    tag_3:\n      tag_7\n      0x04\n      dup1\n      calldatasize\n      sub\n      dup2\n      add\n      swap1\n      tag_8\n      swap2\n      swap1\n      tag_9\n      jump\t// in\n    tag_8:\n      tag_10\n      jump\t// in\n    tag_7:\n      stop\n        /* \"test49.sol\":15808:15860  mapping(address => uint256) ... */\n    tag_4:\n      tag_11\n      0x04\n      dup1\n      calldatasize\n      sub\n      dup2\n      add\n      swap1\n      tag_12\n      swap2\n      swap1\n      tag_13\n      jump\t// in\n    tag_12:\n      tag_14\n      jump\t// in\n    tag_11:\n      mload(0x40)\n      tag_15\n      swap2\n      swap1\n      tag_16\n      jump\t// in\n    tag_15:\n      mload(0x40)\n      dup1\n      swap2\n      sub\n      swap1\n      return\n        /* \"test49.sol\":15871:15898  uint256 public totalBalance */\n    tag_5:\n      tag_17\n      tag_18\n      jump\t// in\n    tag_17:\n      mload(0x40)\n      tag_19\n      swap2\n      swap1\n      tag_16\n      jump\t// in\n    tag_19:\n      mload(0x40)\n      dup1\n      swap2\n      sub\n      swap1\n      return\n        /* \"test49.sol\":15781:15800  IERC20 public token */\n    tag_6:\n      tag_20\n      tag_21\n      jump\t// in\n    tag_20:\n      mload(0x40)\n      tag_22\n      swap2\n      swap1\n      tag_23\n      jump\t// in\n    tag_22:\n      mload(0x40)\n      dup1\n      swap2\n      sub\n      swap1\n      return\n        /* \"test49.sol\":16934:17981  function safeTokenWithdraw( ... */\n    tag_10:\n        /* \"test49.sol\":16373:16379  locked */\n      0x03\n      0x00\n      swap1\n      sload\n      swap1\n      0x0100\n      exp\n      swap1\n      div\n      0xff\n      and\n        /* \"test49.sol\":16372:16379  !locked */\n      iszero\n        /* \"test49.sol\":16341:16447  require( ... */\n      tag_25\n      jumpi\n      mload(0x40)\n      0x08c379a000000000000000000000000000000000000000000000000000000000\n      dup2\n      mstore\n      0x04\n      add\n      tag_26\n      swap1\n      tag_27\n      jump\t// in\n    tag_26:\n      mload(0x40)\n      dup1\n      swap2\n      sub\n      swap1\n      revert\n    tag_25:\n        /* \"test49.sol\":16481:16485  true */\n      0x01\n        /* \"test49.sol\":16472:16478  locked */\n      0x03\n      0x00\n        /* \"test49.sol\":16472:16485  locked = true */\n      0x0100\n      exp\n      dup2\n      sload\n      dup2\n      0xff\n      mul\n      not\n      and\n      swap1\n      dup4\n      iszero\n      iszero\n      mul\n      or\n      swap1\n      sstore\n      pop\n        /* \"test49.sol\":17298:17305  _amount */\n      dup1\n        /* \"test49.sol\":17274:17282  balances */\n      0x01\n        /* \"test49.sol\":17274:17294  balances[msg.sender] */\n      0x00\n        /* \"test49.sol\":17283:17293  msg.sender */\n      caller\n        /* \"test49.sol\":17274:17294  balances[msg.sender] */\n      0xffffffffffffffffffffffffffffffffffffffff\n      and\n      0xffffffffffffffffffffffffffffffffffffffff\n      and\n      dup2\n      mstore\n      0x20\n      add\n      swap1\n      dup2\n      mstore\n      0x20\n      add\n      0x00\n      keccak256\n      sload\n        /* \"test49.sol\":17274:17305  balances[msg.sender] >= _amount */\n      lt\n      iszero\n        /* \"test49.sol\":17235:17391  require( ... */\n      tag_29\n      jumpi\n      mload(0x40)\n      0x08c379a000000000000000000000000000000000000000000000000000000000\n      dup2\n      mstore\n      0x04\n      add\n      tag_30\n      swap1\n      tag_31\n      jump\t// in\n    tag_30:\n      mload(0x40)\n      dup1\n      swap2\n      sub\n      swap1\n      revert\n    tag_29:\n        /* \"test49.sol\":17554:17561  _amount */\n      dup1\n        /* \"test49.sol\":17530:17538  balances */\n      0x01\n        /* \"test49.sol\":17530:17550  balances[msg.sender] */\n      0x00\n        /* \"test49.sol\":17539:17549  msg.sender */\n      caller\n        /* \"test49.sol\":17530:17550  balances[msg.sender] */\n      0xffffffffffffffffffffffffffffffffffffffff\n      and\n      0xffffffffffffffffffffffffffffffffffffffff\n      and\n      dup2\n      mstore\n      0x20\n      add\n      swap1\n      dup2\n      mstore\n      0x20\n      add\n      0x00\n      keccak256\n      0x00\n        /* \"test49.sol\":17530:17561  balances[msg.sender] -= _amount */\n      dup3\n      dup3\n      sload\n      tag_32\n      swap2\n      swap1\n      tag_33\n      jump\t// in\n    tag_32:\n      swap3\n      pop\n      pop\n      dup2\n      swap1\n      sstore\n      pop\n        /* \"test49.sol\":17611:17618  _amount */\n      dup1\n        /* \"test49.sol\":17595:17607  totalBalance */\n      0x02\n      0x00\n        /* \"test49.sol\":17595:17618  totalBalance -= _amount */\n      dup3\n      dup3\n      sload\n      tag_34\n      swap2\n      swap1\n      tag_33\n      jump\t// in\n    tag_34:\n      swap3\n      pop\n      pop\n      dup2\n      swap1\n      sstore\n      pop\n        /* \"test49.sol\":17766:17778  bool success */\n      0x00\n        /* \"test49.sol\":17794:17799  token */\n      0x00\n      0x00\n      swap1\n      sload\n      swap1\n      0x0100\n      exp\n      swap1\n      div\n      0xffffffffffffffffffffffffffffffffffffffff\n      and\n        /* \"test49.sol\":17794:17808  token.transfer */\n      0xffffffffffffffffffffffffffffffffffffffff\n      and\n      0xa9059cbb\n        /* \"test49.sol\":17828:17838  msg.sender */\n      caller\n        /* \"test49.sol\":17858:17865  _amount */\n      dup5\n        /* \"test49.sol\":17794:17882  token.transfer( ... */\n      mload(0x40)\n      dup4\n      0xffffffff\n      and\n      0xe0\n      shl\n      dup2\n      mstore\n      0x04\n      add\n      tag_35\n      swap3\n      swap2\n      swap1\n      tag_36\n      jump\t// in\n    tag_35:\n      0x20\n      mload(0x40)\n      dup1\n      dup4\n      sub\n      dup2\n      0x00\n      dup8\n      gas\n      call\n      iszero\n      dup1\n      iszero\n      tag_38\n      jumpi\n      returndatacopy(0x00, 0x00, returndatasize)\n      revert(0x00, returndatasize)\n    tag_38:\n      pop\n      pop\n      pop\n      pop\n      mload(0x40)\n      returndatasize\n      not(0x1f)\n      0x1f\n      dup3\n      add\n      and\n      dup3\n      add\n      dup1\n      0x40\n      mstore\n      pop\n      dup2\n      add\n      swap1\n      tag_39\n      swap2\n      swap1\n      tag_40\n      jump\t// in\n    tag_39:\n        /* \"test49.sol\":17766:17882  bool success =... */\n      swap1\n      pop\n        /* \"test49.sol\":17919:17926  success */\n      dup1\n        /* \"test49.sol\":17895:17972  require( ... */\n      tag_41\n      jumpi\n      mload(0x40)\n      0x08c379a000000000000000000000000000000000000000000000000000000000\n      dup2\n      mstore\n      0x04\n      add\n      tag_42\n      swap1\n      tag_43\n      jump\t// in\n    tag_42:\n      mload(0x40)\n      dup1\n      swap2\n      sub\n      swap1\n      revert\n    tag_41:\n        /* \"test49.sol\":17116:17981  { ... */\n      pop\n        /* \"test49.sol\":16546:16551  false */\n      0x00\n        /* \"test49.sol\":16537:16543  locked */\n      0x03\n      0x00\n        /* \"test49.sol\":16537:16551  locked = false */\n      0x0100\n      exp\n      dup2\n      sload\n      dup2\n      0xff\n      mul\n      not\n      and\n      swap1\n      dup4\n      iszero\n      iszero\n      mul\n      or\n      swap1\n      sstore\n      pop\n        /* \"test49.sol\":16934:17981  function safeTokenWithdraw( ... */\n      pop\n      jump\t// out\n        /* \"test49.sol\":15808:15860  mapping(address => uint256) ... */\n    tag_14:\n      mstore(0x20, 0x01)\n      dup1\n      0x00\n      mstore\n      keccak256(0x00, 0x40)\n      0x00\n      swap2\n      pop\n      swap1\n      pop\n      sload\n      dup2\n      jump\t// out\n        /* \"test49.sol\":15871:15898  uint256 public totalBalance */\n    tag_18:\n      sload(0x02)\n      dup2\n      jump\t// out\n        /* \"test49.sol\":15781:15800  IERC20 public token */\n    tag_21:\n      0x00\n      0x00\n      swap1\n      sload\n      swap1\n      0x0100\n      exp\n      swap1\n      div\n      0xffffffffffffffffffffffffffffffffffffffff\n      and\n      dup2\n      jump\t// out\n        /* \"#utility.yul\":88:205   */\n    tag_45:\n        /* \"#utility.yul\":197:198   */\n      0x00\n        /* \"#utility.yul\":194:195   */\n      0x00\n        /* \"#utility.yul\":187:199   */\n      revert\n        /* \"#utility.yul\":334:411   */\n    tag_47:\n        /* \"#utility.yul\":371:378   */\n      0x00\n        /* \"#utility.yul\":400:405   */\n      dup2\n        /* \"#utility.yul\":389:405   */\n      swap1\n      pop\n        /* \"#utility.yul\":334:411   */\n      swap2\n      swap1\n      pop\n      jump\t// out\n        /* \"#utility.yul\":417:539   */\n    tag_48:\n        /* \"#utility.yul\":490:514   */\n      tag_78\n        /* \"#utility.yul\":508:513   */\n      dup2\n        /* \"#utility.yul\":490:514   */\n      tag_47\n      jump\t// in\n    tag_78:\n        /* \"#utility.yul\":483:488   */\n      dup2\n        /* \"#utility.yul\":480:515   */\n      eq\n        /* \"#utility.yul\":470:533   */\n      tag_79\n      jumpi\n        /* \"#utility.yul\":529:530   */\n      0x00\n        /* \"#utility.yul\":526:527   */\n      0x00\n        /* \"#utility.yul\":519:531   */\n      revert\n        /* \"#utility.yul\":470:533   */\n    tag_79:\n        /* \"#utility.yul\":417:539   */\n      pop\n      jump\t// out\n        /* \"#utility.yul\":545:684   */\n    tag_49:\n        /* \"#utility.yul\":591:596   */\n      0x00\n        /* \"#utility.yul\":629:635   */\n      dup2\n        /* \"#utility.yul\":616:636   */\n      calldataload\n        /* \"#utility.yul\":607:636   */\n      swap1\n      pop\n        /* \"#utility.yul\":645:678   */\n      tag_81\n        /* \"#utility.yul\":672:677   */\n      dup2\n        /* \"#utility.yul\":645:678   */\n      tag_48\n      jump\t// in\n    tag_81:\n        /* \"#utility.yul\":545:684   */\n      swap3\n      swap2\n      pop\n      pop\n      jump\t// out\n        /* \"#utility.yul\":690:1019   */\n    tag_9:\n        /* \"#utility.yul\":749:755   */\n      0x00\n        /* \"#utility.yul\":798:800   */\n      0x20\n        /* \"#utility.yul\":786:795   */\n      dup3\n        /* \"#utility.yul\":777:784   */\n      dup5\n        /* \"#utility.yul\":773:796   */\n      sub\n        /* \"#utility.yul\":769:801   */\n      slt\n        /* \"#utility.yul\":766:885   */\n      iszero\n      tag_83\n      jumpi\n        /* \"#utility.yul\":804:883   */\n      tag_84\n      tag_45\n      jump\t// in\n    tag_84:\n        /* \"#utility.yul\":766:885   */\n    tag_83:\n        /* \"#utility.yul\":924:925   */\n      0x00\n        /* \"#utility.yul\":949:1002   */\n      tag_85\n        /* \"#utility.yul\":994:1001   */\n      dup5\n        /* \"#utility.yul\":985:991   */\n      dup3\n        /* \"#utility.yul\":974:983   */\n      dup6\n        /* \"#utility.yul\":970:992   */\n      add\n        /* \"#utility.yul\":949:1002   */\n      tag_49\n      jump\t// in\n    tag_85:\n        /* \"#utility.yul\":939:1002   */\n      swap2\n      pop\n        /* \"#utility.yul\":895:1012   */\n      pop\n        /* \"#utility.yul\":690:1019   */\n      swap3\n      swap2\n      pop\n      pop\n      jump\t// out\n        /* \"#utility.yul\":1025:1151   */\n    tag_50:\n        /* \"#utility.yul\":1062:1069   */\n      0x00\n        /* \"#utility.yul\":1102:1144   */\n      0xffffffffffffffffffffffffffffffffffffffff\n        /* \"#utility.yul\":1095:1100   */\n      dup3\n        /* \"#utility.yul\":1091:1145   */\n      and\n        /* \"#utility.yul\":1080:1145   */\n      swap1\n      pop\n        /* \"#utility.yul\":1025:1151   */\n      swap2\n      swap1\n      pop\n      jump\t// out\n        /* \"#utility.yul\":1157:1253   */\n    tag_51:\n        /* \"#utility.yul\":1194:1201   */\n      0x00\n        /* \"#utility.yul\":1223:1247   */\n      tag_88\n        /* \"#utility.yul\":1241:1246   */\n      dup3\n        /* \"#utility.yul\":1223:1247   */\n      tag_50\n      jump\t// in\n    tag_88:\n        /* \"#utility.yul\":1212:1247   */\n      swap1\n      pop\n        /* \"#utility.yul\":1157:1253   */\n      swap2\n      swap1\n      pop\n      jump\t// out\n        /* \"#utility.yul\":1259:1381   */\n    tag_52:\n        /* \"#utility.yul\":1332:1356   */\n      tag_90\n        /* \"#utility.yul\":1350:1355   */\n      dup2\n        /* \"#utility.yul\":1332:1356   */\n      tag_51\n      jump\t// in\n    tag_90:\n        /* \"#utility.yul\":1325:1330   */\n      dup2\n        /* \"#utility.yul\":1322:1357   */\n      eq\n        /* \"#utility.yul\":1312:1375   */\n      tag_91\n      jumpi\n        /* \"#utility.yul\":1371:1372   */\n      0x00\n        /* \"#utility.yul\":1368:1369   */\n      0x00\n        /* \"#utility.yul\":1361:1373   */\n      revert\n        /* \"#utility.yul\":1312:1375   */\n    tag_91:\n        /* \"#utility.yul\":1259:1381   */\n      pop\n      jump\t// out\n        /* \"#utility.yul\":1387:1526   */\n    tag_53:\n        /* \"#utility.yul\":1433:1438   */\n      0x00\n        /* \"#utility.yul\":1471:1477   */\n      dup2\n        /* \"#utility.yul\":1458:1478   */\n      calldataload\n        /* \"#utility.yul\":1449:1478   */\n      swap1\n      pop\n        /* \"#utility.yul\":1487:1520   */\n      tag_93\n        /* \"#utility.yul\":1514:1519   */\n      dup2\n        /* \"#utility.yul\":1487:1520   */\n      tag_52\n      jump\t// in\n    tag_93:\n        /* \"#utility.yul\":1387:1526   */\n      swap3\n      swap2\n      pop\n      pop\n      jump\t// out\n        /* \"#utility.yul\":1532:1861   */\n    tag_13:\n        /* \"#utility.yul\":1591:1597   */\n      0x00\n        /* \"#utility.yul\":1640:1642   */\n      0x20\n        /* \"#utility.yul\":1628:1637   */\n      dup3\n        /* \"#utility.yul\":1619:1626   */\n      dup5\n        /* \"#utility.yul\":1615:1638   */\n      sub\n        /* \"#utility.yul\":1611:1643   */\n      slt\n        /* \"#utility.yul\":1608:1727   */\n      iszero\n      tag_95\n      jumpi\n        /* \"#utility.yul\":1646:1725   */\n      tag_96\n      tag_45\n      jump\t// in\n    tag_96:\n        /* \"#utility.yul\":1608:1727   */\n    tag_95:\n        /* \"#utility.yul\":1766:1767   */\n      0x00\n        /* \"#utility.yul\":1791:1844   */\n      tag_97\n        /* \"#utility.yul\":1836:1843   */\n      dup5\n        /* \"#utility.yul\":1827:1833   */\n      dup3\n        /* \"#utility.yul\":1816:1825   */\n      dup6\n        /* \"#utility.yul\":1812:1834   */\n      add\n        /* \"#utility.yul\":1791:1844   */\n      tag_53\n      jump\t// in\n    tag_97:\n        /* \"#utility.yul\":1781:1844   */\n      swap2\n      pop\n        /* \"#utility.yul\":1737:1854   */\n      pop\n        /* \"#utility.yul\":1532:1861   */\n      swap3\n      swap2\n      pop\n      pop\n      jump\t// out\n        /* \"#utility.yul\":1867:1985   */\n    tag_54:\n        /* \"#utility.yul\":1954:1978   */\n      tag_99\n        /* \"#utility.yul\":1972:1977   */\n      dup2\n        /* \"#utility.yul\":1954:1978   */\n      tag_47\n      jump\t// in\n    tag_99:\n        /* \"#utility.yul\":1949:1952   */\n      dup3\n        /* \"#utility.yul\":1942:1979   */\n      mstore\n        /* \"#utility.yul\":1867:1985   */\n      pop\n      pop\n      jump\t// out\n        /* \"#utility.yul\":1991:2213   */\n    tag_16:\n        /* \"#utility.yul\":2084:2088   */\n      0x00\n        /* \"#utility.yul\":2122:2124   */\n      0x20\n        /* \"#utility.yul\":2111:2120   */\n      dup3\n        /* \"#utility.yul\":2107:2125   */\n      add\n        /* \"#utility.yul\":2099:2125   */\n      swap1\n      pop\n        /* \"#utility.yul\":2135:2206   */\n      tag_101\n        /* \"#utility.yul\":2203:2204   */\n      0x00\n        /* \"#utility.yul\":2192:2201   */\n      dup4\n        /* \"#utility.yul\":2188:2205   */\n      add\n        /* \"#utility.yul\":2179:2185   */\n      dup5\n        /* \"#utility.yul\":2135:2206   */\n      tag_54\n      jump\t// in\n    tag_101:\n        /* \"#utility.yul\":1991:2213   */\n      swap3\n      swap2\n      pop\n      pop\n      jump\t// out\n        /* \"#utility.yul\":2219:2279   */\n    tag_55:\n        /* \"#utility.yul\":2247:2250   */\n      0x00\n        /* \"#utility.yul\":2268:2273   */\n      dup2\n        /* \"#utility.yul\":2261:2273   */\n      swap1\n      pop\n        /* \"#utility.yul\":2219:2279   */\n      swap2\n      swap1\n      pop\n      jump\t// out\n        /* \"#utility.yul\":2285:2427   */\n    tag_56:\n        /* \"#utility.yul\":2335:2344   */\n      0x00\n        /* \"#utility.yul\":2368:2421   */\n      tag_104\n        /* \"#utility.yul\":2386:2420   */\n      tag_105\n        /* \"#utility.yul\":2395:2419   */\n      tag_106\n        /* \"#utility.yul\":2413:2418   */\n      dup5\n        /* \"#utility.yul\":2395:2419   */\n      tag_50\n      jump\t// in\n    tag_106:\n        /* \"#utility.yul\":2386:2420   */\n      tag_55\n      jump\t// in\n    tag_105:\n        /* \"#utility.yul\":2368:2421   */\n      tag_50\n      jump\t// in\n    tag_104:\n        /* \"#utility.yul\":2355:2421   */\n      swap1\n      pop\n        /* \"#utility.yul\":2285:2427   */\n      swap2\n      swap1\n      pop\n      jump\t// out\n        /* \"#utility.yul\":2433:2559   */\n    tag_57:\n        /* \"#utility.yul\":2483:2492   */\n      0x00\n        /* \"#utility.yul\":2516:2553   */\n      tag_108\n        /* \"#utility.yul\":2547:2552   */\n      dup3\n        /* \"#utility.yul\":2516:2553   */\n      tag_56\n      jump\t// in\n    tag_108:\n        /* \"#utility.yul\":2503:2553   */\n      swap1\n      pop\n        /* \"#utility.yul\":2433:2559   */\n      swap2\n      swap1\n      pop\n      jump\t// out\n        /* \"#utility.yul\":2565:2704   */\n    tag_58:\n        /* \"#utility.yul\":2628:2637   */\n      0x00\n        /* \"#utility.yul\":2661:2698   */\n      tag_110\n        /* \"#utility.yul\":2692:2697   */\n      dup3\n        /* \"#utility.yul\":2661:2698   */\n      tag_57\n      jump\t// in\n    tag_110:\n        /* \"#utility.yul\":2648:2698   */\n      swap1\n      pop\n        /* \"#utility.yul\":2565:2704   */\n      swap2\n      swap1\n      pop\n      jump\t// out\n        /* \"#utility.yul\":2710:2867   */\n    tag_59:\n        /* \"#utility.yul\":2810:2860   */\n      tag_112\n        /* \"#utility.yul\":2854:2859   */\n      dup2\n        /* \"#utility.yul\":2810:2860   */\n      tag_58\n      jump\t// in\n    tag_112:\n        /* \"#utility.yul\":2805:2808   */\n      dup3\n        /* \"#utility.yul\":2798:2861   */\n      mstore\n        /* \"#utility.yul\":2710:2867   */\n      pop\n      pop\n      jump\t// out\n        /* \"#utility.yul\":2873:3121   */\n    tag_23:\n        /* \"#utility.yul\":2979:2983   */\n      0x00\n        /* \"#utility.yul\":3017:3019   */\n      0x20\n        /* \"#utility.yul\":3006:3015   */\n      dup3\n        /* \"#utility.yul\":3002:3020   */\n      add\n        /* \"#utility.yul\":2994:3020   */\n      swap1\n      pop\n        /* \"#utility.yul\":3030:3114   */\n      tag_114\n        /* \"#utility.yul\":3111:3112   */\n      0x00\n        /* \"#utility.yul\":3100:3109   */\n      dup4\n        /* \"#utility.yul\":3096:3113   */\n      add\n        /* \"#utility.yul\":3087:3093   */\n      dup5\n        /* \"#utility.yul\":3030:3114   */\n      tag_59\n      jump\t// in\n    tag_114:\n        /* \"#utility.yul\":2873:3121   */\n      swap3\n      swap2\n      pop\n      pop\n      jump\t// out\n        /* \"#utility.yul\":3127:3296   */\n    tag_60:\n        /* \"#utility.yul\":3211:3222   */\n      0x00\n        /* \"#utility.yul\":3245:3251   */\n      dup3\n        /* \"#utility.yul\":3240:3243   */\n      dup3\n        /* \"#utility.yul\":3233:3252   */\n      mstore\n        /* \"#utility.yul\":3285:3289   */\n      0x20\n        /* \"#utility.yul\":3280:3283   */\n      dup3\n        /* \"#utility.yul\":3276:3290   */\n      add\n        /* \"#utility.yul\":3261:3290   */\n      swap1\n      pop\n        /* \"#utility.yul\":3127:3296   */\n      swap3\n      swap2\n      pop\n      pop\n      jump\t// out\n        /* \"#utility.yul\":3302:3470   */\n    tag_61:\n        /* \"#utility.yul\":3442:3462   */\n      0x5265656e7472616e637920626c6f636b65640000000000000000000000000000\n        /* \"#utility.yul\":3438:3439   */\n      0x00\n        /* \"#utility.yul\":3430:3436   */\n      dup3\n        /* \"#utility.yul\":3426:3440   */\n      add\n        /* \"#utility.yul\":3419:3463   */\n      mstore\n        /* \"#utility.yul\":3302:3470   */\n      pop\n      jump\t// out\n        /* \"#utility.yul\":3476:3842   */\n    tag_62:\n        /* \"#utility.yul\":3618:3621   */\n      0x00\n        /* \"#utility.yul\":3639:3706   */\n      tag_118\n        /* \"#utility.yul\":3703:3705   */\n      0x12\n        /* \"#utility.yul\":3698:3701   */\n      dup4\n        /* \"#utility.yul\":3639:3706   */\n      tag_60\n      jump\t// in\n    tag_118:\n        /* \"#utility.yul\":3632:3706   */\n      swap2\n      pop\n        /* \"#utility.yul\":3715:3808   */\n      tag_119\n        /* \"#utility.yul\":3804:3807   */\n      dup3\n        /* \"#utility.yul\":3715:3808   */\n      tag_61\n      jump\t// in\n    tag_119:\n        /* \"#utility.yul\":3833:3835   */\n      0x20\n        /* \"#utility.yul\":3828:3831   */\n      dup3\n        /* \"#utility.yul\":3824:3836   */\n      add\n        /* \"#utility.yul\":3817:3836   */\n      swap1\n      pop\n        /* \"#utility.yul\":3476:3842   */\n      swap2\n      swap1\n      pop\n      jump\t// out\n        /* \"#utility.yul\":3848:4267   */\n    tag_27:\n        /* \"#utility.yul\":4014:4018   */\n      0x00\n        /* \"#utility.yul\":4052:4054   */\n      0x20\n        /* \"#utility.yul\":4041:4050   */\n      dup3\n        /* \"#utility.yul\":4037:4055   */\n      add\n        /* \"#utility.yul\":4029:4055   */\n      swap1\n      pop\n        /* \"#utility.yul\":4101:4110   */\n      dup2\n        /* \"#utility.yul\":4095:4099   */\n      dup2\n        /* \"#utility.yul\":4091:4111   */\n      sub\n        /* \"#utility.yul\":4087:4088   */\n      0x00\n        /* \"#utility.yul\":4076:4085   */\n      dup4\n        /* \"#utility.yul\":4072:4089   */\n      add\n        /* \"#utility.yul\":4065:4112   */\n      mstore\n        /* \"#utility.yul\":4129:4260   */\n      tag_121\n        /* \"#utility.yul\":4255:4259   */\n      dup2\n        /* \"#utility.yul\":4129:4260   */\n      tag_62\n      jump\t// in\n    tag_121:\n        /* \"#utility.yul\":4121:4260   */\n      swap1\n      pop\n        /* \"#utility.yul\":3848:4267   */\n      swap2\n      swap1\n      pop\n      jump\t// out\n        /* \"#utility.yul\":4273:4443   */\n    tag_63:\n        /* \"#utility.yul\":4413:4435   */\n      0x496e73756666696369656e742062616c616e6365000000000000000000000000\n        /* \"#utility.yul\":4409:4410   */\n      0x00\n        /* \"#utility.yul\":4401:4407   */\n      dup3\n        /* \"#utility.yul\":4397:4411   */\n      add\n        /* \"#utility.yul\":4390:4436   */\n      mstore\n        /* \"#utility.yul\":4273:4443   */\n      pop\n      jump\t// out\n        /* \"#utility.yul\":4449:4815   */\n    tag_64:\n        /* \"#utility.yul\":4591:4594   */\n      0x00\n        /* \"#utility.yul\":4612:4679   */\n      tag_124\n        /* \"#utility.yul\":4676:4678   */\n      0x14\n        /* \"#utility.yul\":4671:4674   */\n      dup4\n        /* \"#utility.yul\":4612:4679   */\n      tag_60\n      jump\t// in\n    tag_124:\n        /* \"#utility.yul\":4605:4679   */\n      swap2\n      pop\n        /* \"#utility.yul\":4688:4781   */\n      tag_125\n        /* \"#utility.yul\":4777:4780   */\n      dup3\n        /* \"#utility.yul\":4688:4781   */\n      tag_63\n      jump\t// in\n    tag_125:\n        /* \"#utility.yul\":4806:4808   */\n      0x20\n        /* \"#utility.yul\":4801:4804   */\n      dup3\n        /* \"#utility.yul\":4797:4809   */\n      add\n        /* \"#utility.yul\":4790:4809   */\n      swap1\n      pop\n        /* \"#utility.yul\":4449:4815   */\n      swap2\n      swap1\n      pop\n      jump\t// out\n        /* \"#utility.yul\":4821:5240   */\n    tag_31:\n        /* \"#utility.yul\":4987:4991   */\n      0x00\n        /* \"#utility.yul\":5025:5027   */\n      0x20\n        /* \"#utility.yul\":5014:5023   */\n      dup3\n        /* \"#utility.yul\":5010:5028   */\n      add\n        /* \"#utility.yul\":5002:5028   */\n      swap1\n      pop\n        /* \"#utility.yul\":5074:5083   */\n      dup2\n        /* \"#utility.yul\":5068:5072   */\n      dup2\n        /* \"#utility.yul\":5064:5084   */\n      sub\n        /* \"#utility.yul\":5060:5061   */\n      0x00\n        /* \"#utility.yul\":5049:5058   */\n      dup4\n        /* \"#utility.yul\":5045:5062   */\n      add\n        /* \"#utility.yul\":5038:5085   */\n      mstore\n        /* \"#utility.yul\":5102:5233   */\n      tag_127\n        /* \"#utility.yul\":5228:5232   */\n      dup2\n        /* \"#utility.yul\":5102:5233   */\n      tag_64\n      jump\t// in\n    tag_127:\n        /* \"#utility.yul\":5094:5233   */\n      swap1\n      pop\n        /* \"#utility.yul\":4821:5240   */\n      swap2\n      swap1\n      pop\n      jump\t// out\n        /* \"#utility.yul\":5246:5426   */\n    tag_65:\n        /* \"#utility.yul\":5294:5371   */\n      0x4e487b7100000000000000000000000000000000000000000000000000000000\n        /* \"#utility.yul\":5291:5292   */\n      0x00\n        /* \"#utility.yul\":5284:5372   */\n      mstore\n        /* \"#utility.yul\":5391:5395   */\n      0x11\n        /* \"#utility.yul\":5388:5389   */\n      0x04\n        /* \"#utility.yul\":5381:5396   */\n      mstore\n        /* \"#utility.yul\":5415:5419   */\n      0x24\n        /* \"#utility.yul\":5412:5413   */\n      0x00\n        /* \"#utility.yul\":5405:5420   */\n      revert\n        /* \"#utility.yul\":5432:5626   */\n    tag_33:\n        /* \"#utility.yul\":5472:5476   */\n      0x00\n        /* \"#utility.yul\":5492:5512   */\n      tag_130\n        /* \"#utility.yul\":5510:5511   */\n      dup3\n        /* \"#utility.yul\":5492:5512   */\n      tag_47\n      jump\t// in\n    tag_130:\n        /* \"#utility.yul\":5487:5512   */\n      swap2\n      pop\n        /* \"#utility.yul\":5526:5546   */\n      tag_131\n        /* \"#utility.yul\":5544:5545   */\n      dup4\n        /* \"#utility.yul\":5526:5546   */\n      tag_47\n      jump\t// in\n    tag_131:\n        /* \"#utility.yul\":5521:5546   */\n      swap3\n      pop\n        /* \"#utility.yul\":5570:5571   */\n      dup3\n        /* \"#utility.yul\":5567:5568   */\n      dup3\n        /* \"#utility.yul\":5563:5572   */\n      sub\n        /* \"#utility.yul\":5555:5572   */\n      swap1\n      pop\n        /* \"#utility.yul\":5594:5595   */\n      dup2\n        /* \"#utility.yul\":5588:5592   */\n      dup2\n        /* \"#utility.yul\":5585:5596   */\n      gt\n        /* \"#utility.yul\":5582:5619   */\n      iszero\n      tag_132\n      jumpi\n        /* \"#utility.yul\":5599:5617   */\n      tag_133\n      tag_65\n      jump\t// in\n    tag_133:\n        /* \"#utility.yul\":5582:5619   */\n    tag_132:\n        /* \"#utility.yul\":5432:5626   */\n      swap3\n      swap2\n      pop\n      pop\n      jump\t// out\n        /* \"#utility.yul\":5632:5750   */\n    tag_66:\n        /* \"#utility.yul\":5719:5743   */\n      tag_135\n        /* \"#utility.yul\":5737:5742   */\n      dup2\n        /* \"#utility.yul\":5719:5743   */\n      tag_51\n      jump\t// in\n    tag_135:\n        /* \"#utility.yul\":5714:5717   */\n      dup3\n        /* \"#utility.yul\":5707:5744   */\n      mstore\n        /* \"#utility.yul\":5632:5750   */\n      pop\n      pop\n      jump\t// out\n        /* \"#utility.yul\":5756:6088   */\n    tag_36:\n        /* \"#utility.yul\":5877:5881   */\n      0x00\n        /* \"#utility.yul\":5915:5917   */\n      0x40\n        /* \"#utility.yul\":5904:5913   */\n      dup3\n        /* \"#utility.yul\":5900:5918   */\n      add\n        /* \"#utility.yul\":5892:5918   */\n      swap1\n      pop\n        /* \"#utility.yul\":5928:5999   */\n      tag_137\n        /* \"#utility.yul\":5996:5997   */\n      0x00\n        /* \"#utility.yul\":5985:5994   */\n      dup4\n        /* \"#utility.yul\":5981:5998   */\n      add\n        /* \"#utility.yul\":5972:5978   */\n      dup6\n        /* \"#utility.yul\":5928:5999   */\n      tag_66\n      jump\t// in\n    tag_137:\n        /* \"#utility.yul\":6009:6081   */\n      tag_138\n        /* \"#utility.yul\":6077:6079   */\n      0x20\n        /* \"#utility.yul\":6066:6075   */\n      dup4\n        /* \"#utility.yul\":6062:6080   */\n      add\n        /* \"#utility.yul\":6053:6059   */\n      dup5\n        /* \"#utility.yul\":6009:6081   */\n      tag_54\n      jump\t// in\n    tag_138:\n        /* \"#utility.yul\":5756:6088   */\n      swap4\n      swap3\n      pop\n      pop\n      pop\n      jump\t// out\n        /* \"#utility.yul\":6094:6184   */\n    tag_67:\n        /* \"#utility.yul\":6128:6135   */\n      0x00\n        /* \"#utility.yul\":6171:6176   */\n      dup2\n        /* \"#utility.yul\":6164:6177   */\n      iszero\n        /* \"#utility.yul\":6157:6178   */\n      iszero\n        /* \"#utility.yul\":6146:6178   */\n      swap1\n      pop\n        /* \"#utility.yul\":6094:6184   */\n      swap2\n      swap1\n      pop\n      jump\t// out\n        /* \"#utility.yul\":6190:6306   */\n    tag_68:\n        /* \"#utility.yul\":6260:6281   */\n      tag_141\n        /* \"#utility.yul\":6275:6280   */\n      dup2\n        /* \"#utility.yul\":6260:6281   */\n      tag_67\n      jump\t// in\n    tag_141:\n        /* \"#utility.yul\":6253:6258   */\n      dup2\n        /* \"#utility.yul\":6250:6282   */\n      eq\n        /* \"#utility.yul\":6240:6300   */\n      tag_142\n      jumpi\n        /* \"#utility.yul\":6296:6297   */\n      0x00\n        /* \"#utility.yul\":6293:6294   */\n      0x00\n        /* \"#utility.yul\":6286:6298   */\n      revert\n        /* \"#utility.yul\":6240:6300   */\n    tag_142:\n        /* \"#utility.yul\":6190:6306   */\n      pop\n      jump\t// out\n        /* \"#utility.yul\":6312:6449   */\n    tag_69:\n        /* \"#utility.yul\":6366:6371   */\n      0x00\n        /* \"#utility.yul\":6397:6403   */\n      dup2\n        /* \"#utility.yul\":6391:6404   */\n      mload\n        /* \"#utility.yul\":6382:6404   */\n      swap1\n      pop\n        /* \"#utility.yul\":6413:6443   */\n      tag_144\n        /* \"#utility.yul\":6437:6442   */\n      dup2\n        /* \"#utility.yul\":6413:6443   */\n      tag_68\n      jump\t// in\n    tag_144:\n        /* \"#utility.yul\":6312:6449   */\n      swap3\n      swap2\n      pop\n      pop\n      jump\t// out\n        /* \"#utility.yul\":6455:6800   */\n    tag_40:\n        /* \"#utility.yul\":6522:6528   */\n      0x00\n        /* \"#utility.yul\":6571:6573   */\n      0x20\n        /* \"#utility.yul\":6559:6568   */\n      dup3\n        /* \"#utility.yul\":6550:6557   */\n      dup5\n        /* \"#utility.yul\":6546:6569   */\n      sub\n        /* \"#utility.yul\":6542:6574   */\n      slt\n        /* \"#utility.yul\":6539:6658   */\n      iszero\n      tag_146\n      jumpi\n        /* \"#utility.yul\":6577:6656   */\n      tag_147\n      tag_45\n      jump\t// in\n    tag_147:\n        /* \"#utility.yul\":6539:6658   */\n    tag_146:\n        /* \"#utility.yul\":6697:6698   */\n      0x00\n        /* \"#utility.yul\":6722:6783   */\n      tag_148\n        /* \"#utility.yul\":6775:6782   */\n      dup5\n        /* \"#utility.yul\":6766:6772   */\n      dup3\n        /* \"#utility.yul\":6755:6764   */\n      dup6\n        /* \"#utility.yul\":6751:6773   */\n      add\n        /* \"#utility.yul\":6722:6783   */\n      tag_69\n      jump\t// in\n    tag_148:\n        /* \"#utility.yul\":6712:6783   */\n      swap2\n      pop\n        /* \"#utility.yul\":6668:6793   */\n      pop\n        /* \"#utility.yul\":6455:6800   */\n      swap3\n      swap2\n      pop\n      pop\n      jump\t// out\n        /* \"#utility.yul\":6806:6971   */\n    tag_70:\n        /* \"#utility.yul\":6946:6963   */\n      0x5472616e73666572206661696c65640000000000000000000000000000000000\n        /* \"#utility.yul\":6942:6943   */\n      0x00\n        /* \"#utility.yul\":6934:6940   */\n      dup3\n        /* \"#utility.yul\":6930:6944   */\n      add\n        /* \"#utility.yul\":6923:6964   */\n      mstore\n        /* \"#utility.yul\":6806:6971   */\n      pop\n      jump\t// out\n        /* \"#utility.yul\":6977:7343   */\n    tag_71:\n        /* \"#utility.yul\":7119:7122   */\n      0x00\n        /* \"#utility.yul\":7140:7207   */\n      tag_151\n        /* \"#utility.yul\":7204:7206   */\n      0x0f\n        /* \"#utility.yul\":7199:7202   */\n      dup4\n        /* \"#utility.yul\":7140:7207   */\n      tag_60\n      jump\t// in\n    tag_151:\n        /* \"#utility.yul\":7133:7207   */\n      swap2\n      pop\n        /* \"#utility.yul\":7216:7309   */\n      tag_152\n        /* \"#utility.yul\":7305:7308   */\n      dup3\n        /* \"#utility.yul\":7216:7309   */\n      tag_70\n      jump\t// in\n    tag_152:\n        /* \"#utility.yul\":7334:7336   */\n      0x20\n        /* \"#utility.yul\":7329:7332   */\n      dup3\n        /* \"#utility.yul\":7325:7337   */\n      add\n        /* \"#utility.yul\":7318:7337   */\n      swap1\n      pop\n        /* \"#utility.yul\":6977:7343   */\n      swap2\n      swap1\n      pop\n      jump\t// out\n        /* \"#utility.yul\":7349:7768   */\n    tag_43:\n        /* \"#utility.yul\":7515:7519   */\n      0x00\n        /* \"#utility.yul\":7553:7555   */\n      0x20\n        /* \"#utility.yul\":7542:7551   */\n      dup3\n        /* \"#utility.yul\":7538:7556   */\n      add\n        /* \"#utility.yul\":7530:7556   */\n      swap1\n      pop\n        /* \"#utility.yul\":7602:7611   */\n      dup2\n        /* \"#utility.yul\":7596:7600   */\n      dup2\n        /* \"#utility.yul\":7592:7612   */\n      sub\n        /* \"#utility.yul\":7588:7589   */\n      0x00\n        /* \"#utility.yul\":7577:7586   */\n      dup4\n        /* \"#utility.yul\":7573:7590   */\n      add\n        /* \"#utility.yul\":7566:7613   */\n      mstore\n        /* \"#utility.yul\":7630:7761   */\n      tag_154\n        /* \"#utility.yul\":7756:7760   */\n      dup2\n        /* \"#utility.yul\":7630:7761   */\n      tag_71\n      jump\t// in\n    tag_154:\n        /* \"#utility.yul\":7622:7761   */\n      swap1\n      pop\n        /* \"#utility.yul\":7349:7768   */\n      swap2\n      swap1\n      pop\n      jump\t// out\n\n    auxdata: 0xa26469706673582212201a7ce5ae15dc6945a31012f24e1727979213bce765139402016f0091dcf06afa64736f6c63430008220033\n}\n",
				"bytecode": {
					"linkReferences": {},
					"object": "608060405234801561000f575f5ffd5b50604051610867380380610867833981810160405281019061003191906100d4565b805f5f6101000a81548173ffffffffffffffffffffffffffffffffffffffff021916908373ffffffffffffffffffffffffffffffffffffffff160217905550506100ff565b5f5ffd5b5f73ffffffffffffffffffffffffffffffffffffffff82169050919050565b5f6100a38261007a565b9050919050565b6100b381610099565b81146100bd575f5ffd5b50565b5f815190506100ce816100aa565b92915050565b5f602082840312156100e9576100e8610076565b5b5f6100f6848285016100c0565b91505092915050565b61075b8061010c5f395ff3fe608060405234801561000f575f5ffd5b506004361061004a575f3560e01c806306fbef841461004e57806327e235e31461006a578063ad7a672f1461009a578063fc0c546a146100b8575b5f5ffd5b6100686004803603810190610063919061039b565b6100d6565b005b610084600480360381019061007f9190610420565b610325565b604051610091919061045a565b60405180910390f35b6100a261033a565b6040516100af919061045a565b60405180910390f35b6100c0610340565b6040516100cd91906104ce565b60405180910390f35b60035f9054906101000a900460ff1615610125576040517f08c379a000000000000000000000000000000000000000000000000000000000815260040161011c90610541565b60405180910390fd5b600160035f6101000a81548160ff0219169083151502179055508060015f3373ffffffffffffffffffffffffffffffffffffffff1673ffffffffffffffffffffffffffffffffffffffff1681526020019081526020015f205410156101bf576040517f08c379a00000000000000000000000000000000000000000000000000000000081526004016101b6906105a9565b60405180910390fd5b8060015f3373ffffffffffffffffffffffffffffffffffffffff1673ffffffffffffffffffffffffffffffffffffffff1681526020019081526020015f205f82825461020b91906105f4565b925050819055508060025f82825461022391906105f4565b925050819055505f5f5f9054906101000a900473ffffffffffffffffffffffffffffffffffffffff1673ffffffffffffffffffffffffffffffffffffffff1663a9059cbb33846040518363ffffffff1660e01b8152600401610286929190610636565b6020604051808303815f875af11580156102a2573d5f5f3e3d5ffd5b505050506040513d601f19601f820116820180604052508101906102c69190610692565b905080610308576040517f08c379a00000000000000000000000000000000000000000000000000000000081526004016102ff90610707565b60405180910390fd5b505f60035f6101000a81548160ff02191690831515021790555050565b6001602052805f5260405f205f915090505481565b60025481565b5f5f9054906101000a900473ffffffffffffffffffffffffffffffffffffffff1681565b5f5ffd5b5f819050919050565b61037a81610368565b8114610384575f5ffd5b50565b5f8135905061039581610371565b92915050565b5f602082840312156103b0576103af610364565b5b5f6103bd84828501610387565b91505092915050565b5f73ffffffffffffffffffffffffffffffffffffffff82169050919050565b5f6103ef826103c6565b9050919050565b6103ff816103e5565b8114610409575f5ffd5b50565b5f8135905061041a816103f6565b92915050565b5f6020828403121561043557610434610364565b5b5f6104428482850161040c565b91505092915050565b61045481610368565b82525050565b5f60208201905061046d5f83018461044b565b92915050565b5f819050919050565b5f61049661049161048c846103c6565b610473565b6103c6565b9050919050565b5f6104a78261047c565b9050919050565b5f6104b88261049d565b9050919050565b6104c8816104ae565b82525050565b5f6020820190506104e15f8301846104bf565b92915050565b5f82825260208201905092915050565b7f5265656e7472616e637920626c6f636b656400000000000000000000000000005f82015250565b5f61052b6012836104e7565b9150610536826104f7565b602082019050919050565b5f6020820190508181035f8301526105588161051f565b9050919050565b7f496e73756666696369656e742062616c616e63650000000000000000000000005f82015250565b5f6105936014836104e7565b915061059e8261055f565b602082019050919050565b5f6020820190508181035f8301526105c081610587565b9050919050565b7f4e487b71000000000000000000000000000000000000000000000000000000005f52601160045260245ffd5b5f6105fe82610368565b915061060983610368565b9250828203905081811115610621576106206105c7565b5b92915050565b610630816103e5565b82525050565b5f6040820190506106495f830185610627565b610656602083018461044b565b9392505050565b5f8115159050919050565b6106718161065d565b811461067b575f5ffd5b50565b5f8151905061068c81610668565b92915050565b5f602082840312156106a7576106a6610364565b5b5f6106b48482850161067e565b91505092915050565b7f5472616e73666572206661696c656400000000000000000000000000000000005f82015250565b5f6106f1600f836104e7565b91506106fc826106bd565b602082019050919050565b5f6020820190508181035f83015261071e816106e5565b905091905056fea26469706673582212201a7ce5ae15dc6945a31012f24e1727979213bce765139402016f0091dcf06afa64736f6c63430008220033",
					"opcodes": "PUSH1 0x80 PUSH1 0x40 MSTORE CALLVALUE DUP1 ISZERO PUSH2 0xF JUMPI PUSH0 PUSH0 REVERT JUMPDEST POP PUSH1 0x40 MLOAD PUSH2 0x867 CODESIZE SUB DUP1 PUSH2 0x867 DUP4 CODECOPY DUP2 DUP2 ADD PUSH1 0x40 MSTORE DUP2 ADD SWAP1 PUSH2 0x31 SWAP2 SWAP1 PUSH2 0xD4 JUMP JUMPDEST DUP1 PUSH0 PUSH0 PUSH2 0x100 EXP DUP2 SLOAD DUP2 PUSH20 0xFFFFFFFFFFFFFFFFFFFFFFFFFFFFFFFFFFFFFFFF MUL NOT AND SWAP1 DUP4 PUSH20 0xFFFFFFFFFFFFFFFFFFFFFFFFFFFFFFFFFFFFFFFF AND MUL OR SWAP1 SSTORE POP POP PUSH2 0xFF JUMP JUMPDEST PUSH0 PUSH0 REVERT JUMPDEST PUSH0 PUSH20 0xFFFFFFFFFFFFFFFFFFFFFFFFFFFFFFFFFFFFFFFF DUP3 AND SWAP1 POP SWAP2 SWAP1 POP JUMP JUMPDEST PUSH0 PUSH2 0xA3 DUP3 PUSH2 0x7A JUMP JUMPDEST SWAP1 POP SWAP2 SWAP1 POP JUMP JUMPDEST PUSH2 0xB3 DUP2 PUSH2 0x99 JUMP JUMPDEST DUP2 EQ PUSH2 0xBD JUMPI PUSH0 PUSH0 REVERT JUMPDEST POP JUMP JUMPDEST PUSH0 DUP2 MLOAD SWAP1 POP PUSH2 0xCE DUP2 PUSH2 0xAA JUMP JUMPDEST SWAP3 SWAP2 POP POP JUMP JUMPDEST PUSH0 PUSH1 0x20 DUP3 DUP5 SUB SLT ISZERO PUSH2 0xE9 JUMPI PUSH2 0xE8 PUSH2 0x76 JUMP JUMPDEST JUMPDEST PUSH0 PUSH2 0xF6 DUP5 DUP3 DUP6 ADD PUSH2 0xC0 JUMP JUMPDEST SWAP2 POP POP SWAP3 SWAP2 POP POP JUMP JUMPDEST PUSH2 0x75B DUP1 PUSH2 0x10C PUSH0 CODECOPY PUSH0 RETURN INVALID PUSH1 0x80 PUSH1 0x40 MSTORE CALLVALUE DUP1 ISZERO PUSH2 0xF JUMPI PUSH0 PUSH0 REVERT JUMPDEST POP PUSH1 0x4 CALLDATASIZE LT PUSH2 0x4A JUMPI PUSH0 CALLDATALOAD PUSH1 0xE0 SHR DUP1 PUSH4 0x6FBEF84 EQ PUSH2 0x4E JUMPI DUP1 PUSH4 0x27E235E3 EQ PUSH2 0x6A JUMPI DUP1 PUSH4 0xAD7A672F EQ PUSH2 0x9A JUMPI DUP1 PUSH4 0xFC0C546A EQ PUSH2 0xB8 JUMPI JUMPDEST PUSH0 PUSH0 REVERT JUMPDEST PUSH2 0x68 PUSH1 0x4 DUP1 CALLDATASIZE SUB DUP2 ADD SWAP1 PUSH2 0x63 SWAP2 SWAP1 PUSH2 0x39B JUMP JUMPDEST PUSH2 0xD6 JUMP JUMPDEST STOP JUMPDEST PUSH2 0x84 PUSH1 0x4 DUP1 CALLDATASIZE SUB DUP2 ADD SWAP1 PUSH2 0x7F SWAP2 SWAP1 PUSH2 0x420 JUMP JUMPDEST PUSH2 0x325 JUMP JUMPDEST PUSH1 0x40 MLOAD PUSH2 0x91 SWAP2 SWAP1 PUSH2 0x45A JUMP JUMPDEST PUSH1 0x40 MLOAD DUP1 SWAP2 SUB SWAP1 RETURN JUMPDEST PUSH2 0xA2 PUSH2 0x33A JUMP JUMPDEST PUSH1 0x40 MLOAD PUSH2 0xAF SWAP2 SWAP1 PUSH2 0x45A JUMP JUMPDEST PUSH1 0x40 MLOAD DUP1 SWAP2 SUB SWAP1 RETURN JUMPDEST PUSH2 0xC0 PUSH2 0x340 JUMP JUMPDEST PUSH1 0x40 MLOAD PUSH2 0xCD SWAP2 SWAP1 PUSH2 0x4CE JUMP JUMPDEST PUSH1 0x40 MLOAD DUP1 SWAP2 SUB SWAP1 RETURN JUMPDEST PUSH1 0x3 PUSH0 SWAP1 SLOAD SWAP1 PUSH2 0x100 EXP SWAP1 DIV PUSH1 0xFF AND ISZERO PUSH2 0x125 JUMPI PUSH1 0x40 MLOAD PUSH32 0x8C379A000000000000000000000000000000000000000000000000000000000 DUP2 MSTORE PUSH1 0x4 ADD PUSH2 0x11C SWAP1 PUSH2 0x541 JUMP JUMPDEST PUSH1 0x40 MLOAD DUP1 SWAP2 SUB SWAP1 REVERT JUMPDEST PUSH1 0x1 PUSH1 0x3 PUSH0 PUSH2 0x100 EXP DUP2 SLOAD DUP2 PUSH1 0xFF MUL NOT AND SWAP1 DUP4 ISZERO ISZERO MUL OR SWAP1 SSTORE POP DUP1 PUSH1 0x1 PUSH0 CALLER PUSH20 0xFFFFFFFFFFFFFFFFFFFFFFFFFFFFFFFFFFFFFFFF AND PUSH20 0xFFFFFFFFFFFFFFFFFFFFFFFFFFFFFFFFFFFFFFFF AND DUP2 MSTORE PUSH1 0x20 ADD SWAP1 DUP2 MSTORE PUSH1 0x20 ADD PUSH0 KECCAK256 SLOAD LT ISZERO PUSH2 0x1BF JUMPI PUSH1 0x40 MLOAD PUSH32 0x8C379A000000000000000000000000000000000000000000000000000000000 DUP2 MSTORE PUSH1 0x4 ADD PUSH2 0x1B6 SWAP1 PUSH2 0x5A9 JUMP JUMPDEST PUSH1 0x40 MLOAD DUP1 SWAP2 SUB SWAP1 REVERT JUMPDEST DUP1 PUSH1 0x1 PUSH0 CALLER PUSH20 0xFFFFFFFFFFFFFFFFFFFFFFFFFFFFFFFFFFFFFFFF AND PUSH20 0xFFFFFFFFFFFFFFFFFFFFFFFFFFFFFFFFFFFFFFFF AND DUP2 MSTORE PUSH1 0x20 ADD SWAP1 DUP2 MSTORE PUSH1 0x20 ADD PUSH0 KECCAK256 PUSH0 DUP3 DUP3 SLOAD PUSH2 0x20B SWAP2 SWAP1 PUSH2 0x5F4 JUMP JUMPDEST SWAP3 POP POP DUP2 SWAP1 SSTORE POP DUP1 PUSH1 0x2 PUSH0 DUP3 DUP3 SLOAD PUSH2 0x223 SWAP2 SWAP1 PUSH2 0x5F4 JUMP JUMPDEST SWAP3 POP POP DUP2 SWAP1 SSTORE POP PUSH0 PUSH0 PUSH0 SWAP1 SLOAD SWAP1 PUSH2 0x100 EXP SWAP1 DIV PUSH20 0xFFFFFFFFFFFFFFFFFFFFFFFFFFFFFFFFFFFFFFFF AND PUSH20 0xFFFFFFFFFFFFFFFFFFFFFFFFFFFFFFFFFFFFFFFF AND PUSH4 0xA9059CBB CALLER DUP5 PUSH1 0x40 MLOAD DUP4 PUSH4 0xFFFFFFFF AND PUSH1 0xE0 SHL DUP2 MSTORE PUSH1 0x4 ADD PUSH2 0x286 SWAP3 SWAP2 SWAP1 PUSH2 0x636 JUMP JUMPDEST PUSH1 0x20 PUSH1 0x40 MLOAD DUP1 DUP4 SUB DUP2 PUSH0 DUP8 GAS CALL ISZERO DUP1 ISZERO PUSH2 0x2A2 JUMPI RETURNDATASIZE PUSH0 PUSH0 RETURNDATACOPY RETURNDATASIZE PUSH0 REVERT JUMPDEST POP POP POP POP PUSH1 0x40 MLOAD RETURNDATASIZE PUSH1 0x1F NOT PUSH1 0x1F DUP3 ADD AND DUP3 ADD DUP1 PUSH1 0x40 MSTORE POP DUP2 ADD SWAP1 PUSH2 0x2C6 SWAP2 SWAP1 PUSH2 0x692 JUMP JUMPDEST SWAP1 POP DUP1 PUSH2 0x308 JUMPI PUSH1 0x40 MLOAD PUSH32 0x8C379A000000000000000000000000000000000000000000000000000000000 DUP2 MSTORE PUSH1 0x4 ADD PUSH2 0x2FF SWAP1 PUSH2 0x707 JUMP JUMPDEST PUSH1 0x40 MLOAD DUP1 SWAP2 SUB SWAP1 REVERT JUMPDEST POP PUSH0 PUSH1 0x3 PUSH0 PUSH2 0x100 EXP DUP2 SLOAD DUP2 PUSH1 0xFF MUL NOT AND SWAP1 DUP4 ISZERO ISZERO MUL OR SWAP1 SSTORE POP POP JUMP JUMPDEST PUSH1 0x1 PUSH1 0x20 MSTORE DUP1 PUSH0 MSTORE PUSH1 0x40 PUSH0 KECCAK256 PUSH0 SWAP2 POP SWAP1 POP SLOAD DUP2 JUMP JUMPDEST PUSH1 0x2 SLOAD DUP2 JUMP JUMPDEST PUSH0 PUSH0 SWAP1 SLOAD SWAP1 PUSH2 0x100 EXP SWAP1 DIV PUSH20 0xFFFFFFFFFFFFFFFFFFFFFFFFFFFFFFFFFFFFFFFF AND DUP2 JUMP JUMPDEST PUSH0 PUSH0 REVERT JUMPDEST PUSH0 DUP2 SWAP1 POP SWAP2 SWAP1 POP JUMP JUMPDEST PUSH2 0x37A DUP2 PUSH2 0x368 JUMP JUMPDEST DUP2 EQ PUSH2 0x384 JUMPI PUSH0 PUSH0 REVERT JUMPDEST POP JUMP JUMPDEST PUSH0 DUP2 CALLDATALOAD SWAP1 POP PUSH2 0x395 DUP2 PUSH2 0x371 JUMP JUMPDEST SWAP3 SWAP2 POP POP JUMP JUMPDEST PUSH0 PUSH1 0x20 DUP3 DUP5 SUB SLT ISZERO PUSH2 0x3B0 JUMPI PUSH2 0x3AF PUSH2 0x364 JUMP JUMPDEST JUMPDEST PUSH0 PUSH2 0x3BD DUP5 DUP3 DUP6 ADD PUSH2 0x387 JUMP JUMPDEST SWAP2 POP POP SWAP3 SWAP2 POP POP JUMP JUMPDEST PUSH0 PUSH20 0xFFFFFFFFFFFFFFFFFFFFFFFFFFFFFFFFFFFFFFFF DUP3 AND SWAP1 POP SWAP2 SWAP1 POP JUMP JUMPDEST PUSH0 PUSH2 0x3EF DUP3 PUSH2 0x3C6 JUMP JUMPDEST SWAP1 POP SWAP2 SWAP1 POP JUMP JUMPDEST PUSH2 0x3FF DUP2 PUSH2 0x3E5 JUMP JUMPDEST DUP2 EQ PUSH2 0x409 JUMPI PUSH0 PUSH0 REVERT JUMPDEST POP JUMP JUMPDEST PUSH0 DUP2 CALLDATALOAD SWAP1 POP PUSH2 0x41A DUP2 PUSH2 0x3F6 JUMP JUMPDEST SWAP3 SWAP2 POP POP JUMP JUMPDEST PUSH0 PUSH1 0x20 DUP3 DUP5 SUB SLT ISZERO PUSH2 0x435 JUMPI PUSH2 0x434 PUSH2 0x364 JUMP JUMPDEST JUMPDEST PUSH0 PUSH2 0x442 DUP5 DUP3 DUP6 ADD PUSH2 0x40C JUMP JUMPDEST SWAP2 POP POP SWAP3 SWAP2 POP POP JUMP JUMPDEST PUSH2 0x454 DUP2 PUSH2 0x368 JUMP JUMPDEST DUP3 MSTORE POP POP JUMP JUMPDEST PUSH0 PUSH1 0x20 DUP3 ADD SWAP1 POP PUSH2 0x46D PUSH0 DUP4 ADD DUP5 PUSH2 0x44B JUMP JUMPDEST SWAP3 SWAP2 POP POP JUMP JUMPDEST PUSH0 DUP2 SWAP1 POP SWAP2 SWAP1 POP JUMP JUMPDEST PUSH0 PUSH2 0x496 PUSH2 0x491 PUSH2 0x48C DUP5 PUSH2 0x3C6 JUMP JUMPDEST PUSH2 0x473 JUMP JUMPDEST PUSH2 0x3C6 JUMP JUMPDEST SWAP1 POP SWAP2 SWAP1 POP JUMP JUMPDEST PUSH0 PUSH2 0x4A7 DUP3 PUSH2 0x47C JUMP JUMPDEST SWAP1 POP SWAP2 SWAP1 POP JUMP JUMPDEST PUSH0 PUSH2 0x4B8 DUP3 PUSH2 0x49D JUMP JUMPDEST SWAP1 POP SWAP2 SWAP1 POP JUMP JUMPDEST PUSH2 0x4C8 DUP2 PUSH2 0x4AE JUMP JUMPDEST DUP3 MSTORE POP POP JUMP JUMPDEST PUSH0 PUSH1 0x20 DUP3 ADD SWAP1 POP PUSH2 0x4E1 PUSH0 DUP4 ADD DUP5 PUSH2 0x4BF JUMP JUMPDEST SWAP3 SWAP2 POP POP JUMP JUMPDEST PUSH0 DUP3 DUP3 MSTORE PUSH1 0x20 DUP3 ADD SWAP1 POP SWAP3 SWAP2 POP POP JUMP JUMPDEST PUSH32 0x5265656E7472616E637920626C6F636B65640000000000000000000000000000 PUSH0 DUP3 ADD MSTORE POP JUMP JUMPDEST PUSH0 PUSH2 0x52B PUSH1 0x12 DUP4 PUSH2 0x4E7 JUMP JUMPDEST SWAP2 POP PUSH2 0x536 DUP3 PUSH2 0x4F7 JUMP JUMPDEST PUSH1 0x20 DUP3 ADD SWAP1 POP SWAP2 SWAP1 POP JUMP JUMPDEST PUSH0 PUSH1 0x20 DUP3 ADD SWAP1 POP DUP2 DUP2 SUB PUSH0 DUP4 ADD MSTORE PUSH2 0x558 DUP2 PUSH2 0x51F JUMP JUMPDEST SWAP1 POP SWAP2 SWAP1 POP JUMP JUMPDEST PUSH32 0x496E73756666696369656E742062616C616E6365000000000000000000000000 PUSH0 DUP3 ADD MSTORE POP JUMP JUMPDEST PUSH0 PUSH2 0x593 PUSH1 0x14 DUP4 PUSH2 0x4E7 JUMP JUMPDEST SWAP2 POP PUSH2 0x59E DUP3 PUSH2 0x55F JUMP JUMPDEST PUSH1 0x20 DUP3 ADD SWAP1 POP SWAP2 SWAP1 POP JUMP JUMPDEST PUSH0 PUSH1 0x20 DUP3 ADD SWAP1 POP DUP2 DUP2 SUB PUSH0 DUP4 ADD MSTORE PUSH2 0x5C0 DUP2 PUSH2 0x587 JUMP JUMPDEST SWAP1 POP SWAP2 SWAP1 POP JUMP JUMPDEST PUSH32 0x4E487B7100000000000000000000000000000000000000000000000000000000 PUSH0 MSTORE PUSH1 0x11 PUSH1 0x4 MSTORE PUSH1 0x24 PUSH0 REVERT JUMPDEST PUSH0 PUSH2 0x5FE DUP3 PUSH2 0x368 JUMP JUMPDEST SWAP2 POP PUSH2 0x609 DUP4 PUSH2 0x368 JUMP JUMPDEST SWAP3 POP DUP3 DUP3 SUB SWAP1 POP DUP2 DUP2 GT ISZERO PUSH2 0x621 JUMPI PUSH2 0x620 PUSH2 0x5C7 JUMP JUMPDEST JUMPDEST SWAP3 SWAP2 POP POP JUMP JUMPDEST PUSH2 0x630 DUP2 PUSH2 0x3E5 JUMP JUMPDEST DUP3 MSTORE POP POP JUMP JUMPDEST PUSH0 PUSH1 0x40 DUP3 ADD SWAP1 POP PUSH2 0x649 PUSH0 DUP4 ADD DUP6 PUSH2 0x627 JUMP JUMPDEST PUSH2 0x656 PUSH1 0x20 DUP4 ADD DUP5 PUSH2 0x44B JUMP JUMPDEST SWAP4 SWAP3 POP POP POP JUMP JUMPDEST PUSH0 DUP2 ISZERO ISZERO SWAP1 POP SWAP2 SWAP1 POP JUMP JUMPDEST PUSH2 0x671 DUP2 PUSH2 0x65D JUMP JUMPDEST DUP2 EQ PUSH2 0x67B JUMPI PUSH0 PUSH0 REVERT JUMPDEST POP JUMP JUMPDEST PUSH0 DUP2 MLOAD SWAP1 POP PUSH2 0x68C DUP2 PUSH2 0x668 JUMP JUMPDEST SWAP3 SWAP2 POP POP JUMP JUMPDEST PUSH0 PUSH1 0x20 DUP3 DUP5 SUB SLT ISZERO PUSH2 0x6A7 JUMPI PUSH2 0x6A6 PUSH2 0x364 JUMP JUMPDEST JUMPDEST PUSH0 PUSH2 0x6B4 DUP5 DUP3 DUP6 ADD PUSH2 0x67E JUMP JUMPDEST SWAP2 POP POP SWAP3 SWAP2 POP POP JUMP JUMPDEST PUSH32 0x5472616E73666572206661696C65640000000000000000000000000000000000 PUSH0 DUP3 ADD MSTORE POP JUMP JUMPDEST PUSH0 PUSH2 0x6F1 PUSH1 0xF DUP4 PUSH2 0x4E7 JUMP JUMPDEST SWAP2 POP PUSH2 0x6FC DUP3 PUSH2 0x6BD JUMP JUMPDEST PUSH1 0x20 DUP3 ADD SWAP1 POP SWAP2 SWAP1 POP JUMP JUMPDEST PUSH0 PUSH1 0x20 DUP3 ADD SWAP1 POP DUP2 DUP2 SUB PUSH0 DUP4 ADD MSTORE PUSH2 0x71E DUP2 PUSH2 0x6E5 JUMP JUMPDEST SWAP1 POP SWAP2 SWAP1 POP JUMP INVALID LOG2 PUSH5 0x6970667358 0x22 SLT KECCAK256 BYTE PUSH29 0xE5AE15DC6945A31012F24E1727979213BCE765139402016F0091DCF06A STATICCALL PUSH5 0x736F6C6343 STOP ADDMOD 0x22 STOP CALLER "
				},
				"gasEstimates": {
					"creation": {
						"codeDepositCost": "376600",
						"executionCost": "infinite",
						"totalCost": "infinite"
					},
					"external": {
						"balances(address)": "2802",
						"safeTokenWithdraw(uint256)": "infinite",
						"token()": "infinite",
						"totalBalance()": "2447"
					}
				},
				"methodIdentifiers": {
					"balances(address)": "27e235e3",
					"safeTokenWithdraw(uint256)": "06fbef84",
					"token()": "fc0c546a",
					"totalBalance()": "ad7a672f"
				}
			},
			"storageLayout": {
				"storage": [
					{
						"astId": 14,
						"contract": "test49.sol:SafeTokenWithdraw",
						"label": "token",
						"offset": 0,
						"slot": "0",
						"type": "t_contract(IERC20)11"
					},
					{
						"astId": 18,
						"contract": "test49.sol:SafeTokenWithdraw",
						"label": "balances",
						"offset": 0,
						"slot": "1",
						"type": "t_mapping(t_address,t_uint256)"
					},
					{
						"astId": 20,
						"contract": "test49.sol:SafeTokenWithdraw",
						"label": "totalBalance",
						"offset": 0,
						"slot": "2",
						"type": "t_uint256"
					},
					{
						"astId": 22,
						"contract": "test49.sol:SafeTokenWithdraw",
						"label": "locked",
						"offset": 0,
						"slot": "3",
						"type": "t_bool"
					}
				],
				"types": {
					"t_address": {
						"encoding": "inplace",
						"label": "address",
						"numberOfBytes": "20"
					},
					"t_bool": {
						"encoding": "inplace",
						"label": "bool",
						"numberOfBytes": "1"
					},
					"t_contract(IERC20)11": {
						"encoding": "inplace",
						"label": "contract IERC20",
						"numberOfBytes": "20"
					},
					"t_mapping(t_address,t_uint256)": {
						"encoding": "mapping",
						"key": "t_address",
						"label": "mapping(address => uint256)",
						"numberOfBytes": "32",
						"value": "t_uint256"
					},
					"t_uint256": {
						"encoding": "inplace",
						"label": "uint256",
						"numberOfBytes": "32"
					}
				}
			},
			"userdoc": {
				"kind": "user",
				"methods": {},
				"version": 1
			}
		}
	}
}