{
	"test76.sol": {
		"SecureBank": {
			"abi": [
				{
					"inputs": [
						{
							"internalType": "address",
							"name": "",
							"type": "address"
						}
					],
					"name": "balance",
					"outputs": [
						{
							"internalType": "uint256",
							"name": "",
							"type": "uint256"
						}
					],
					"stateMutability": "view",
					"type": "function"
				},
				{
					"inputs": [],
					"name": "deposit",
					"outputs": [],
					"stateMutability": "payable",
					"type": "function"
				},
				{
					"inputs": [
						{
							"internalType": "address",
							"name": "user",
							"type": "address"
						}
					],
					"name": "getBalance",
					"outputs": [
						{
							"internalType": "uint256",
							"name": "",
							"type": "uint256"
						}
					],
					"stateMutability": "view",
					"type": "function"
				},
				{
					"inputs": [
						{
							"internalType": "uint256",
							"name": "amount",
							"type": "uint256"
						}
					],
					"name": "withdraw",
					"outputs": [],
					"stateMutability": "nonpayable",
					"type": "function"
				}
			],
			"devdoc": {
				"kind": "dev",
				"methods": {},
				"version": 1
			},
			"evm": {
				"assembly": "    /* \"test76.sol\":3917:4761  contract SecureBank {... */\n  mstore(0x40, 0x80)\n  callvalue\n  dup1\n  iszero\n  tag_1\n  jumpi\n  revert(0x00, 0x00)\ntag_1:\n  pop\n  dataSize(sub_0)\n  dup1\n  dataOffset(sub_0)\n  0x00\n  codecopy\n  0x00\n  return\nstop\n\nsub_0: assembly {\n        /* \"test76.sol\":3917:4761  contract SecureBank {... */\n      mstore(0x40, 0x80)\n      jumpi(tag_1, lt(calldatasize, 0x04))\n      shr(0xe0, calldataload(0x00))\n      dup1\n      0x2e1a7d4d\n      eq\n      tag_2\n      jumpi\n      dup1\n      0xd0e30db0\n      eq\n      tag_3\n      jumpi\n      dup1\n      0xe3d670d7\n      eq\n      tag_4\n      jumpi\n      dup1\n      0xf8b2cb4f\n      eq\n      tag_5\n      jumpi\n    tag_1:\n      revert(0x00, 0x00)\n        /* \"test76.sol\":4115:4597  function withdraw(... */\n    tag_2:\n      callvalue\n      dup1\n      iszero\n      tag_6\n      jumpi\n      revert(0x00, 0x00)\n    tag_6:\n      pop\n      tag_7\n      0x04\n      dup1\n      calldatasize\n      sub\n      dup2\n      add\n      swap1\n      tag_8\n      swap2\n      swap1\n      tag_9\n      jump\t// in\n    tag_8:\n      tag_10\n      jump\t// in\n    tag_7:\n      stop\n        /* \"test76.sol\":3997:4107  function deposit()... */\n    tag_3:\n      tag_11\n      tag_12\n      jump\t// in\n    tag_11:\n      stop\n        /* \"test76.sol\":3946:3988  mapping(address => uint256) public balance */\n    tag_4:\n      callvalue\n      dup1\n      iszero\n      tag_13\n      jumpi\n      revert(0x00, 0x00)\n    tag_13:\n      pop\n      tag_14\n      0x04\n      dup1\n      calldatasize\n      sub\n      dup2\n      add\n      swap1\n      tag_15\n      swap2\n      swap1\n      tag_16\n      jump\t// in\n    tag_15:\n      tag_17\n      jump\t// in\n    tag_14:\n      mload(0x40)\n      tag_18\n      swap2\n      swap1\n      tag_19\n      jump\t// in\n    tag_18:\n      mload(0x40)\n      dup1\n      swap2\n      sub\n      swap1\n      return\n        /* \"test76.sol\":4605:4758  function getBalance(... */\n    tag_5:\n      callvalue\n      dup1\n      iszero\n      tag_20\n      jumpi\n      revert(0x00, 0x00)\n    tag_20:\n      pop\n      tag_21\n      0x04\n      dup1\n      calldatasize\n      sub\n      dup2\n      add\n      swap1\n      tag_22\n      swap2\n      swap1\n      tag_16\n      jump\t// in\n    tag_22:\n      tag_23\n      jump\t// in\n    tag_21:\n      mload(0x40)\n      tag_24\n      swap2\n      swap1\n      tag_19\n      jump\t// in\n    tag_24:\n      mload(0x40)\n      dup1\n      swap2\n      sub\n      swap1\n      return\n        /* \"test76.sol\":4115:4597  function withdraw(... */\n    tag_10:\n        /* \"test76.sol\":4244:4250  amount */\n      dup1\n        /* \"test76.sol\":4221:4228  balance */\n      0x00\n        /* \"test76.sol\":4221:4240  balance[msg.sender] */\n      0x00\n        /* \"test76.sol\":4229:4239  msg.sender */\n      caller\n        /* \"test76.sol\":4221:4240  balance[msg.sender] */\n      0xffffffffffffffffffffffffffffffffffffffff\n      and\n      0xffffffffffffffffffffffffffffffffffffffff\n      and\n      dup2\n      mstore\n      0x20\n      add\n      swap1\n      dup2\n      mstore\n      0x20\n      add\n      0x00\n      keccak256\n      sload\n        /* \"test76.sol\":4221:4250  balance[msg.sender] >= amount */\n      lt\n      iszero\n        /* \"test76.sol\":4199:4296  require(... */\n      tag_26\n      jumpi\n      mload(0x40)\n      0x08c379a000000000000000000000000000000000000000000000000000000000\n      dup2\n      mstore\n      0x04\n      add\n      tag_27\n      swap1\n      tag_28\n      jump\t// in\n    tag_27:\n      mload(0x40)\n      dup1\n      swap2\n      sub\n      swap1\n      revert\n    tag_26:\n        /* \"test76.sol\":4358:4364  amount */\n      dup1\n        /* \"test76.sol\":4335:4342  balance */\n      0x00\n        /* \"test76.sol\":4335:4354  balance[msg.sender] */\n      0x00\n        /* \"test76.sol\":4343:4353  msg.sender */\n      caller\n        /* \"test76.sol\":4335:4354  balance[msg.sender] */\n      0xffffffffffffffffffffffffffffffffffffffff\n      and\n      0xffffffffffffffffffffffffffffffffffffffff\n      and\n      dup2\n      mstore\n      0x20\n      add\n      swap1\n      dup2\n      mstore\n      0x20\n      add\n      0x00\n      keccak256\n      0x00\n        /* \"test76.sol\":4335:4364  balance[msg.sender] -= amount */\n      dup3\n      dup3\n      sload\n      tag_29\n      swap2\n      swap1\n      tag_30\n      jump\t// in\n    tag_29:\n      swap3\n      pop\n      pop\n      dup2\n      swap1\n      sstore\n      pop\n        /* \"test76.sol\":4407:4419  bool success */\n      0x00\n        /* \"test76.sol\":4438:4448  msg.sender */\n      caller\n        /* \"test76.sol\":4438:4453  msg.sender.call */\n      0xffffffffffffffffffffffffffffffffffffffff\n      and\n        /* \"test76.sol\":4479:4485  amount */\n      dup3\n        /* \"test76.sol\":4438:4504  msg.sender.call{... */\n      mload(0x40)\n      tag_31\n      swap1\n      tag_32\n      jump\t// in\n    tag_31:\n      0x00\n      mload(0x40)\n      dup1\n      dup4\n      sub\n      dup2\n      dup6\n      dup8\n      gas\n      call\n      swap3\n      pop\n      pop\n      pop\n      returndatasize\n      dup1\n      0x00\n      dup2\n      eq\n      tag_35\n      jumpi\n      mload(0x40)\n      swap2\n      pop\n      and(add(returndatasize, 0x3f), not(0x1f))\n      dup3\n      add\n      0x40\n      mstore\n      returndatasize\n      dup3\n      mstore\n      returndatasize\n      0x00\n      0x20\n      dup5\n      add\n      returndatacopy\n      jump(tag_34)\n    tag_35:\n      0x60\n      swap2\n      pop\n    tag_34:\n      pop\n        /* \"test76.sol\":4406:4504  (bool success, ) =... */\n      pop\n      swap1\n      pop\n        /* \"test76.sol\":4539:4546  success */\n      dup1\n        /* \"test76.sol\":4517:4589  require(... */\n      tag_36\n      jumpi\n      mload(0x40)\n      0x08c379a000000000000000000000000000000000000000000000000000000000\n      dup2\n      mstore\n      0x04\n      add\n      tag_37\n      swap1\n      tag_38\n      jump\t// in\n    tag_37:\n      mload(0x40)\n      dup1\n      swap2\n      sub\n      swap1\n      revert\n    tag_36:\n        /* \"test76.sol\":4188:4597  {... */\n      pop\n        /* \"test76.sol\":4115:4597  function withdraw(... */\n      pop\n      jump\t// out\n        /* \"test76.sol\":3997:4107  function deposit()... */\n    tag_12:\n        /* \"test76.sol\":4090:4099  msg.value */\n      callvalue\n        /* \"test76.sol\":4067:4074  balance */\n      0x00\n        /* \"test76.sol\":4067:4086  balance[msg.sender] */\n      0x00\n        /* \"test76.sol\":4075:4085  msg.sender */\n      caller\n        /* \"test76.sol\":4067:4086  balance[msg.sender] */\n      0xffffffffffffffffffffffffffffffffffffffff\n      and\n      0xffffffffffffffffffffffffffffffffffffffff\n      and\n      dup2\n      mstore\n      0x20\n      add\n      swap1\n      dup2\n      mstore\n      0x20\n      add\n      0x00\n      keccak256\n      0x00\n        /* \"test76.sol\":4067:4099  balance[msg.sender] += msg.value */\n      dup3\n      dup3\n      sload\n      tag_40\n      swap2\n      swap1\n      tag_41\n      jump\t// in\n    tag_40:\n      swap3\n      pop\n      pop\n      dup2\n      swap1\n      sstore\n      pop\n        /* \"test76.sol\":3997:4107  function deposit()... */\n      jump\t// out\n        /* \"test76.sol\":3946:3988  mapping(address => uint256) public balance */\n    tag_17:\n      mstore(0x20, 0x00)\n      dup1\n      0x00\n      mstore\n      keccak256(0x00, 0x40)\n      0x00\n      swap2\n      pop\n      swap1\n      pop\n      sload\n      dup2\n      jump\t// out\n        /* \"test76.sol\":4605:4758  function getBalance(... */\n    tag_23:\n        /* \"test76.sol\":4705:4712  uint256 */\n      0x00\n        /* \"test76.sol\":4737:4744  balance */\n      0x00\n        /* \"test76.sol\":4737:4750  balance[user] */\n      0x00\n        /* \"test76.sol\":4745:4749  user */\n      dup4\n        /* \"test76.sol\":4737:4750  balance[user] */\n      0xffffffffffffffffffffffffffffffffffffffff\n      and\n      0xffffffffffffffffffffffffffffffffffffffff\n      and\n      dup2\n      mstore\n      0x20\n      add\n      swap1\n      dup2\n      mstore\n      0x20\n      add\n      0x00\n      keccak256\n      sload\n        /* \"test76.sol\":4730:4750  return balance[user] */\n      swap1\n      pop\n        /* \"test76.sol\":4605:4758  function getBalance(... */\n      swap2\n      swap1\n      pop\n      jump\t// out\n        /* \"#utility.yul\":88:205   */\n    tag_44:\n        /* \"#utility.yul\":197:198   */\n      0x00\n        /* \"#utility.yul\":194:195   */\n      0x00\n        /* \"#utility.yul\":187:199   */\n      revert\n        /* \"#utility.yul\":334:411   */\n    tag_46:\n        /* \"#utility.yul\":371:378   */\n      0x00\n        /* \"#utility.yul\":400:405   */\n      dup2\n        /* \"#utility.yul\":389:405   */\n      swap1\n      pop\n        /* \"#utility.yul\":334:411   */\n      swap2\n      swap1\n      pop\n      jump\t// out\n        /* \"#utility.yul\":417:539   */\n    tag_47:\n        /* \"#utility.yul\":490:514   */\n      tag_69\n        /* \"#utility.yul\":508:513   */\n      dup2\n        /* \"#utility.yul\":490:514   */\n      tag_46\n      jump\t// in\n    tag_69:\n        /* \"#utility.yul\":483:488   */\n      dup2\n        /* \"#utility.yul\":480:515   */\n      eq\n        /* \"#utility.yul\":470:533   */\n      tag_70\n      jumpi\n        /* \"#utility.yul\":529:530   */\n      0x00\n        /* \"#utility.yul\":526:527   */\n      0x00\n        /* \"#utility.yul\":519:531   */\n      revert\n        /* \"#utility.yul\":470:533   */\n    tag_70:\n        /* \"#utility.yul\":417:539   */\n      pop\n      jump\t// out\n        /* \"#utility.yul\":545:684   */\n    tag_48:\n        /* \"#utility.yul\":591:596   */\n      0x00\n        /* \"#utility.yul\":629:635   */\n      dup2\n        /* \"#utility.yul\":616:636   */\n      calldataload\n        /* \"#utility.yul\":607:636   */\n      swap1\n      pop\n        /* \"#utility.yul\":645:678   */\n      tag_72\n        /* \"#utility.yul\":672:677   */\n      dup2\n        /* \"#utility.yul\":645:678   */\n      tag_47\n      jump\t// in\n    tag_72:\n        /* \"#utility.yul\":545:684   */\n      swap3\n      swap2\n      pop\n      pop\n      jump\t// out\n        /* \"#utility.yul\":690:1019   */\n    tag_9:\n        /* \"#utility.yul\":749:755   */\n      0x00\n        /* \"#utility.yul\":798:800   */\n      0x20\n        /* \"#utility.yul\":786:795   */\n      dup3\n        /* \"#utility.yul\":777:784   */\n      dup5\n        /* \"#utility.yul\":773:796   */\n      sub\n        /* \"#utility.yul\":769:801   */\n      slt\n        /* \"#utility.yul\":766:885   */\n      iszero\n      tag_74\n      jumpi\n        /* \"#utility.yul\":804:883   */\n      tag_75\n      tag_44\n      jump\t// in\n    tag_75:\n        /* \"#utility.yul\":766:885   */\n    tag_74:\n        /* \"#utility.yul\":924:925   */\n      0x00\n        /* \"#utility.yul\":949:1002   */\n      tag_76\n        /* \"#utility.yul\":994:1001   */\n      dup5\n        /* \"#utility.yul\":985:991   */\n      dup3\n        /* \"#utility.yul\":974:983   */\n      dup6\n        /* \"#utility.yul\":970:992   */\n      add\n        /* \"#utility.yul\":949:1002   */\n      tag_48\n      jump\t// in\n    tag_76:\n        /* \"#utility.yul\":939:1002   */\n      swap2\n      pop\n        /* \"#utility.yul\":895:1012   */\n      pop\n        /* \"#utility.yul\":690:1019   */\n      swap3\n      swap2\n      pop\n      pop\n      jump\t// out\n        /* \"#utility.yul\":1025:1151   */\n    tag_49:\n        /* \"#utility.yul\":1062:1069   */\n      0x00\n        /* \"#utility.yul\":1102:1144   */\n      0xffffffffffffffffffffffffffffffffffffffff\n        /* \"#utility.yul\":1095:1100   */\n      dup3\n        /* \"#utility.yul\":1091:1145   */\n      and\n        /* \"#utility.yul\":1080:1145   */\n      swap1\n      pop\n        /* \"#utility.yul\":1025:1151   */\n      swap2\n      swap1\n      pop\n      jump\t// out\n        /* \"#utility.yul\":1157:1253   */\n    tag_50:\n        /* \"#utility.yul\":1194:1201   */\n      0x00\n        /* \"#utility.yul\":1223:1247   */\n      tag_79\n        /* \"#utility.yul\":1241:1246   */\n      dup3\n        /* \"#utility.yul\":1223:1247   */\n      tag_49\n      jump\t// in\n    tag_79:\n        /* \"#utility.yul\":1212:1247   */\n      swap1\n      pop\n        /* \"#utility.yul\":1157:1253   */\n      swap2\n      swap1\n      pop\n      jump\t// out\n        /* \"#utility.yul\":1259:1381   */\n    tag_51:\n        /* \"#utility.yul\":1332:1356   */\n      tag_81\n        /* \"#utility.yul\":1350:1355   */\n      dup2\n        /* \"#utility.yul\":1332:1356   */\n      tag_50\n      jump\t// in\n    tag_81:\n        /* \"#utility.yul\":1325:1330   */\n      dup2\n        /* \"#utility.yul\":1322:1357   */\n      eq\n        /* \"#utility.yul\":1312:1375   */\n      tag_82\n      jumpi\n        /* \"#utility.yul\":1371:1372   */\n      0x00\n        /* \"#utility.yul\":1368:1369   */\n      0x00\n        /* \"#utility.yul\":1361:1373   */\n      revert\n        /* \"#utility.yul\":1312:1375   */\n    tag_82:\n        /* \"#utility.yul\":1259:1381   */\n      pop\n      jump\t// out\n        /* \"#utility.yul\":1387:1526   */\n    tag_52:\n        /* \"#utility.yul\":1433:1438   */\n      0x00\n        /* \"#utility.yul\":1471:1477   */\n      dup2\n        /* \"#utility.yul\":1458:1478   */\n      calldataload\n        /* \"#utility.yul\":1449:1478   */\n      swap1\n      pop\n        /* \"#utility.yul\":1487:1520   */\n      tag_84\n        /* \"#utility.yul\":1514:1519   */\n      dup2\n        /* \"#utility.yul\":1487:1520   */\n      tag_51\n      jump\t// in\n    tag_84:\n        /* \"#utility.yul\":1387:1526   */\n      swap3\n      swap2\n      pop\n      pop\n      jump\t// out\n        /* \"#utility.yul\":1532:1861   */\n    tag_16:\n        /* \"#utility.yul\":1591:1597   */\n      0x00\n        /* \"#utility.yul\":1640:1642   */\n      0x20\n        /* \"#utility.yul\":1628:1637   */\n      dup3\n        /* \"#utility.yul\":1619:1626   */\n      dup5\n        /* \"#utility.yul\":1615:1638   */\n      sub\n        /* \"#utility.yul\":1611:1643   */\n      slt\n        /* \"#utility.yul\":1608:1727   */\n      iszero\n      tag_86\n      jumpi\n        /* \"#utility.yul\":1646:1725   */\n      tag_87\n      tag_44\n      jump\t// in\n    tag_87:\n        /* \"#utility.yul\":1608:1727   */\n    tag_86:\n        /* \"#utility.yul\":1766:1767   */\n      0x00\n        /* \"#utility.yul\":1791:1844   */\n      tag_88\n        /* \"#utility.yul\":1836:1843   */\n      dup5\n        /* \"#utility.yul\":1827:1833   */\n      dup3\n        /* \"#utility.yul\":1816:1825   */\n      dup6\n        /* \"#utility.yul\":1812:1834   */\n      add\n        /* \"#utility.yul\":1791:1844   */\n      tag_52\n      jump\t// in\n    tag_88:\n        /* \"#utility.yul\":1781:1844   */\n      swap2\n      pop\n        /* \"#utility.yul\":1737:1854   */\n      pop\n        /* \"#utility.yul\":1532:1861   */\n      swap3\n      swap2\n      pop\n      pop\n      jump\t// out\n        /* \"#utility.yul\":1867:1985   */\n    tag_53:\n        /* \"#utility.yul\":1954:1978   */\n      tag_90\n        /* \"#utility.yul\":1972:1977   */\n      dup2\n        /* \"#utility.yul\":1954:1978   */\n      tag_46\n      jump\t// in\n    tag_90:\n        /* \"#utility.yul\":1949:1952   */\n      dup3\n        /* \"#utility.yul\":1942:1979   */\n      mstore\n        /* \"#utility.yul\":1867:1985   */\n      pop\n      pop\n      jump\t// out\n        /* \"#utility.yul\":1991:2213   */\n    tag_19:\n        /* \"#utility.yul\":2084:2088   */\n      0x00\n        /* \"#utility.yul\":2122:2124   */\n      0x20\n        /* \"#utility.yul\":2111:2120   */\n      dup3\n        /* \"#utility.yul\":2107:2125   */\n      add\n        /* \"#utility.yul\":2099:2125   */\n      swap1\n      pop\n        /* \"#utility.yul\":2135:2206   */\n      tag_92\n        /* \"#utility.yul\":2203:2204   */\n      0x00\n        /* \"#utility.yul\":2192:2201   */\n      dup4\n        /* \"#utility.yul\":2188:2205   */\n      add\n        /* \"#utility.yul\":2179:2185   */\n      dup5\n        /* \"#utility.yul\":2135:2206   */\n      tag_53\n      jump\t// in\n    tag_92:\n        /* \"#utility.yul\":1991:2213   */\n      swap3\n      swap2\n      pop\n      pop\n      jump\t// out\n        /* \"#utility.yul\":2219:2388   */\n    tag_54:\n        /* \"#utility.yul\":2303:2314   */\n      0x00\n        /* \"#utility.yul\":2337:2343   */\n      dup3\n        /* \"#utility.yul\":2332:2335   */\n      dup3\n        /* \"#utility.yul\":2325:2344   */\n      mstore\n        /* \"#utility.yul\":2377:2381   */\n      0x20\n        /* \"#utility.yul\":2372:2375   */\n      dup3\n        /* \"#utility.yul\":2368:2382   */\n      add\n        /* \"#utility.yul\":2353:2382   */\n      swap1\n      pop\n        /* \"#utility.yul\":2219:2388   */\n      swap3\n      swap2\n      pop\n      pop\n      jump\t// out\n        /* \"#utility.yul\":2394:2562   */\n    tag_55:\n        /* \"#utility.yul\":2534:2554   */\n      0x4e6f7420656e6f7567682062616c616e63650000000000000000000000000000\n        /* \"#utility.yul\":2530:2531   */\n      0x00\n        /* \"#utility.yul\":2522:2528   */\n      dup3\n        /* \"#utility.yul\":2518:2532   */\n      add\n        /* \"#utility.yul\":2511:2555   */\n      mstore\n        /* \"#utility.yul\":2394:2562   */\n      pop\n      jump\t// out\n        /* \"#utility.yul\":2568:2934   */\n    tag_56:\n        /* \"#utility.yul\":2710:2713   */\n      0x00\n        /* \"#utility.yul\":2731:2798   */\n      tag_96\n        /* \"#utility.yul\":2795:2797   */\n      0x12\n        /* \"#utility.yul\":2790:2793   */\n      dup4\n        /* \"#utility.yul\":2731:2798   */\n      tag_54\n      jump\t// in\n    tag_96:\n        /* \"#utility.yul\":2724:2798   */\n      swap2\n      pop\n        /* \"#utility.yul\":2807:2900   */\n      tag_97\n        /* \"#utility.yul\":2896:2899   */\n      dup3\n        /* \"#utility.yul\":2807:2900   */\n      tag_55\n      jump\t// in\n    tag_97:\n        /* \"#utility.yul\":2925:2927   */\n      0x20\n        /* \"#utility.yul\":2920:2923   */\n      dup3\n        /* \"#utility.yul\":2916:2928   */\n      add\n        /* \"#utility.yul\":2909:2928   */\n      swap1\n      pop\n        /* \"#utility.yul\":2568:2934   */\n      swap2\n      swap1\n      pop\n      jump\t// out\n        /* \"#utility.yul\":2940:3359   */\n    tag_28:\n        /* \"#utility.yul\":3106:3110   */\n      0x00\n        /* \"#utility.yul\":3144:3146   */\n      0x20\n        /* \"#utility.yul\":3133:3142   */\n      dup3\n        /* \"#utility.yul\":3129:3147   */\n      add\n        /* \"#utility.yul\":3121:3147   */\n      swap1\n      pop\n        /* \"#utility.yul\":3193:3202   */\n      dup2\n        /* \"#utility.yul\":3187:3191   */\n      dup2\n        /* \"#utility.yul\":3183:3203   */\n      sub\n        /* \"#utility.yul\":3179:3180   */\n      0x00\n        /* \"#utility.yul\":3168:3177   */\n      dup4\n        /* \"#utility.yul\":3164:3181   */\n      add\n        /* \"#utility.yul\":3157:3204   */\n      mstore\n        /* \"#utility.yul\":3221:3352   */\n      tag_99\n        /* \"#utility.yul\":3347:3351   */\n      dup2\n        /* \"#utility.yul\":3221:3352   */\n      tag_56\n      jump\t// in\n    tag_99:\n        /* \"#utility.yul\":3213:3352   */\n      swap1\n      pop\n        /* \"#utility.yul\":2940:3359   */\n      swap2\n      swap1\n      pop\n      jump\t// out\n        /* \"#utility.yul\":3365:3545   */\n    tag_57:\n        /* \"#utility.yul\":3413:3490   */\n      0x4e487b7100000000000000000000000000000000000000000000000000000000\n        /* \"#utility.yul\":3410:3411   */\n      0x00\n        /* \"#utility.yul\":3403:3491   */\n      mstore\n        /* \"#utility.yul\":3510:3514   */\n      0x11\n        /* \"#utility.yul\":3507:3508   */\n      0x04\n        /* \"#utility.yul\":3500:3515   */\n      mstore\n        /* \"#utility.yul\":3534:3538   */\n      0x24\n        /* \"#utility.yul\":3531:3532   */\n      0x00\n        /* \"#utility.yul\":3524:3539   */\n      revert\n        /* \"#utility.yul\":3551:3745   */\n    tag_30:\n        /* \"#utility.yul\":3591:3595   */\n      0x00\n        /* \"#utility.yul\":3611:3631   */\n      tag_102\n        /* \"#utility.yul\":3629:3630   */\n      dup3\n        /* \"#utility.yul\":3611:3631   */\n      tag_46\n      jump\t// in\n    tag_102:\n        /* \"#utility.yul\":3606:3631   */\n      swap2\n      pop\n        /* \"#utility.yul\":3645:3665   */\n      tag_103\n        /* \"#utility.yul\":3663:3664   */\n      dup4\n        /* \"#utility.yul\":3645:3665   */\n      tag_46\n      jump\t// in\n    tag_103:\n        /* \"#utility.yul\":3640:3665   */\n      swap3\n      pop\n        /* \"#utility.yul\":3689:3690   */\n      dup3\n        /* \"#utility.yul\":3686:3687   */\n      dup3\n        /* \"#utility.yul\":3682:3691   */\n      sub\n        /* \"#utility.yul\":3674:3691   */\n      swap1\n      pop\n        /* \"#utility.yul\":3713:3714   */\n      dup2\n        /* \"#utility.yul\":3707:3711   */\n      dup2\n        /* \"#utility.yul\":3704:3715   */\n      gt\n        /* \"#utility.yul\":3701:3738   */\n      iszero\n      tag_104\n      jumpi\n        /* \"#utility.yul\":3718:3736   */\n      tag_105\n      tag_57\n      jump\t// in\n    tag_105:\n        /* \"#utility.yul\":3701:3738   */\n    tag_104:\n        /* \"#utility.yul\":3551:3745   */\n      swap3\n      swap2\n      pop\n      pop\n      jump\t// out\n        /* \"#utility.yul\":3751:3898   */\n    tag_58:\n        /* \"#utility.yul\":3852:3863   */\n      0x00\n        /* \"#utility.yul\":3889:3892   */\n      dup2\n        /* \"#utility.yul\":3874:3892   */\n      swap1\n      pop\n        /* \"#utility.yul\":3751:3898   */\n      swap3\n      swap2\n      pop\n      pop\n      jump\t// out\n        /* \"#utility.yul\":3904:4018   */\n    tag_59:\n      pop\n      jump\t// out\n        /* \"#utility.yul\":4024:4422   */\n    tag_60:\n        /* \"#utility.yul\":4183:4186   */\n      0x00\n        /* \"#utility.yul\":4204:4287   */\n      tag_109\n        /* \"#utility.yul\":4285:4286   */\n      0x00\n        /* \"#utility.yul\":4280:4283   */\n      dup4\n        /* \"#utility.yul\":4204:4287   */\n      tag_58\n      jump\t// in\n    tag_109:\n        /* \"#utility.yul\":4197:4287   */\n      swap2\n      pop\n        /* \"#utility.yul\":4296:4389   */\n      tag_110\n        /* \"#utility.yul\":4385:4388   */\n      dup3\n        /* \"#utility.yul\":4296:4389   */\n      tag_59\n      jump\t// in\n    tag_110:\n        /* \"#utility.yul\":4414:4415   */\n      0x00\n        /* \"#utility.yul\":4409:4412   */\n      dup3\n        /* \"#utility.yul\":4405:4416   */\n      add\n        /* \"#utility.yul\":4398:4416   */\n      swap1\n      pop\n        /* \"#utility.yul\":4024:4422   */\n      swap2\n      swap1\n      pop\n      jump\t// out\n        /* \"#utility.yul\":4428:4807   */\n    tag_32:\n        /* \"#utility.yul\":4612:4615   */\n      0x00\n        /* \"#utility.yul\":4634:4781   */\n      tag_112\n        /* \"#utility.yul\":4777:4780   */\n      dup3\n        /* \"#utility.yul\":4634:4781   */\n      tag_60\n      jump\t// in\n    tag_112:\n        /* \"#utility.yul\":4627:4781   */\n      swap2\n      pop\n        /* \"#utility.yul\":4798:4801   */\n      dup2\n        /* \"#utility.yul\":4791:4801   */\n      swap1\n      pop\n        /* \"#utility.yul\":4428:4807   */\n      swap2\n      swap1\n      pop\n      jump\t// out\n        /* \"#utility.yul\":4813:4978   */\n    tag_61:\n        /* \"#utility.yul\":4953:4970   */\n      0x5472616e73666572206661696c65640000000000000000000000000000000000\n        /* \"#utility.yul\":4949:4950   */\n      0x00\n        /* \"#utility.yul\":4941:4947   */\n      dup3\n        /* \"#utility.yul\":4937:4951   */\n      add\n        /* \"#utility.yul\":4930:4971   */\n      mstore\n        /* \"#utility.yul\":4813:4978   */\n      pop\n      jump\t// out\n        /* \"#utility.yul\":4984:5350   */\n    tag_62:\n        /* \"#utility.yul\":5126:5129   */\n      0x00\n        /* \"#utility.yul\":5147:5214   */\n      tag_115\n        /* \"#utility.yul\":5211:5213   */\n      0x0f\n        /* \"#utility.yul\":5206:5209   */\n      dup4\n        /* \"#utility.yul\":5147:5214   */\n      tag_54\n      jump\t// in\n    tag_115:\n        /* \"#utility.yul\":5140:5214   */\n      swap2\n      pop\n        /* \"#utility.yul\":5223:5316   */\n      tag_116\n        /* \"#utility.yul\":5312:5315   */\n      dup3\n        /* \"#utility.yul\":5223:5316   */\n      tag_61\n      jump\t// in\n    tag_116:\n        /* \"#utility.yul\":5341:5343   */\n      0x20\n        /* \"#utility.yul\":5336:5339   */\n      dup3\n        /* \"#utility.yul\":5332:5344   */\n      add\n        /* \"#utility.yul\":5325:5344   */\n      swap1\n      pop\n        /* \"#utility.yul\":4984:5350   */\n      swap2\n      swap1\n      pop\n      jump\t// out\n        /* \"#utility.yul\":5356:5775   */\n    tag_38:\n        /* \"#utility.yul\":5522:5526   */\n      0x00\n        /* \"#utility.yul\":5560:5562   */\n      0x20\n        /* \"#utility.yul\":5549:5558   */\n      dup3\n        /* \"#utility.yul\":5545:5563   */\n      add\n        /* \"#utility.yul\":5537:5563   */\n      swap1\n      pop\n        /* \"#utility.yul\":5609:5618   */\n      dup2\n        /* \"#utility.yul\":5603:5607   */\n      dup2\n        /* \"#utility.yul\":5599:5619   */\n      sub\n        /* \"#utility.yul\":5595:5596   */\n      0x00\n        /* \"#utility.yul\":5584:5593   */\n      dup4\n        /* \"#utility.yul\":5580:5597   */\n      add\n        /* \"#utility.yul\":5573:5620   */\n      mstore\n        /* \"#utility.yul\":5637:5768   */\n      tag_118\n        /* \"#utility.yul\":5763:5767   */\n      dup2\n        /* \"#utility.yul\":5637:5768   */\n      tag_62\n      jump\t// in\n    tag_118:\n        /* \"#utility.yul\":5629:5768   */\n      swap1\n      pop\n        /* \"#utility.yul\":5356:5775   */\n      swap2\n      swap1\n      pop\n      jump\t// out\n        /* \"#utility.yul\":5781:5972   */\n    tag_41:\n        /* \"#utility.yul\":5821:5824   */\n      0x00\n        /* \"#utility.yul\":5840:5860   */\n      tag_120\n        /* \"#utility.yul\":5858:5859   */\n      dup3\n        /* \"#utility.yul\":5840:5860   */\n      tag_46\n      jump\t// in\n    tag_120:\n        /* \"#utility.yul\":5835:5860   */\n      swap2\n      pop\n        /* \"#utility.yul\":5874:5894   */\n      tag_121\n        /* \"#utility.yul\":5892:5893   */\n      dup4\n        /* \"#utility.yul\":5874:5894   */\n      tag_46\n      jump\t// in\n    tag_121:\n        /* \"#utility.yul\":5869:5894   */\n      swap3\n      pop\n        /* \"#utility.yul\":5917:5918   */\n      dup3\n        /* \"#utility.yul\":5914:5915   */\n      dup3\n        /* \"#utility.yul\":5910:5919   */\n      add\n        /* \"#utility.yul\":5903:5919   */\n      swap1\n      pop\n        /* \"#utility.yul\":5938:5941   */\n      dup1\n        /* \"#utility.yul\":5935:5936   */\n      dup3\n        /* \"#utility.yul\":5932:5942   */\n      gt\n        /* \"#utility.yul\":5929:5965   */\n      iszero\n      tag_122\n      jumpi\n        /* \"#utility.yul\":5945:5963   */\n      tag_123\n      tag_57\n      jump\t// in\n    tag_123:\n        /* \"#utility.yul\":5929:5965   */\n    tag_122:\n        /* \"#utility.yul\":5781:5972   */\n      swap3\n      swap2\n      pop\n      pop\n      jump\t// out\n\n    auxdata: 0xa2646970667358221220b22c9692bc6ce7c6eecaa5c4add6dd072d1a72a188519f38c33dfe1b5097687a64736f6c63430008220033\n}\n",
				"bytecode": {
					"linkReferences": {},
					"object": "6080604052348015600e575f5ffd5b5061060f8061001c5f395ff3fe60806040526004361061003e575f3560e01c80632e1a7d4d14610042578063d0e30db01461006a578063e3d670d714610074578063f8b2cb4f146100b0575b5f5ffd5b34801561004d575f5ffd5b506100686004803603810190610063919061034d565b6100ec565b005b610072610269565b005b34801561007f575f5ffd5b5061009a600480360381019061009591906103d2565b6102bd565b6040516100a7919061040c565b60405180910390f35b3480156100bb575f5ffd5b506100d660048036038101906100d191906103d2565b6102d1565b6040516100e3919061040c565b60405180910390f35b805f5f3373ffffffffffffffffffffffffffffffffffffffff1673ffffffffffffffffffffffffffffffffffffffff1681526020019081526020015f2054101561016b576040517f08c379a00000000000000000000000000000000000000000000000000000000081526004016101629061047f565b60405180910390fd5b805f5f3373ffffffffffffffffffffffffffffffffffffffff1673ffffffffffffffffffffffffffffffffffffffff1681526020019081526020015f205f8282546101b691906104ca565b925050819055505f3373ffffffffffffffffffffffffffffffffffffffff16826040516101e29061052a565b5f6040518083038185875af1925050503d805f811461021c576040519150601f19603f3d011682016040523d82523d5f602084013e610221565b606091505b5050905080610265576040517f08c379a000000000000000000000000000000000000000000000000000000000815260040161025c90610588565b60405180910390fd5b5050565b345f5f3373ffffffffffffffffffffffffffffffffffffffff1673ffffffffffffffffffffffffffffffffffffffff1681526020019081526020015f205f8282546102b491906105a6565b92505081905550565b5f602052805f5260405f205f915090505481565b5f5f5f8373ffffffffffffffffffffffffffffffffffffffff1673ffffffffffffffffffffffffffffffffffffffff1681526020019081526020015f20549050919050565b5f5ffd5b5f819050919050565b61032c8161031a565b8114610336575f5ffd5b50565b5f8135905061034781610323565b92915050565b5f6020828403121561036257610361610316565b5b5f61036f84828501610339565b91505092915050565b5f73ffffffffffffffffffffffffffffffffffffffff82169050919050565b5f6103a182610378565b9050919050565b6103b181610397565b81146103bb575f5ffd5b50565b5f813590506103cc816103a8565b92915050565b5f602082840312156103e7576103e6610316565b5b5f6103f4848285016103be565b91505092915050565b6104068161031a565b82525050565b5f60208201905061041f5f8301846103fd565b92915050565b5f82825260208201905092915050565b7f4e6f7420656e6f7567682062616c616e636500000000000000000000000000005f82015250565b5f610469601283610425565b915061047482610435565b602082019050919050565b5f6020820190508181035f8301526104968161045d565b9050919050565b7f4e487b71000000000000000000000000000000000000000000000000000000005f52601160045260245ffd5b5f6104d48261031a565b91506104df8361031a565b92508282039050818111156104f7576104f661049d565b5b92915050565b5f81905092915050565b50565b5f6105155f836104fd565b915061052082610507565b5f82019050919050565b5f6105348261050a565b9150819050919050565b7f5472616e73666572206661696c656400000000000000000000000000000000005f82015250565b5f610572600f83610425565b915061057d8261053e565b602082019050919050565b5f6020820190508181035f83015261059f81610566565b9050919050565b5f6105b08261031a565b91506105bb8361031a565b92508282019050808211156105d3576105d261049d565b5b9291505056fea2646970667358221220b22c9692bc6ce7c6eecaa5c4add6dd072d1a72a188519f38c33dfe1b5097687a64736f6c63430008220033",
					"opcodes": "PUSH1 0x80 PUSH1 0x40 MSTORE CALLVALUE DUP1 ISZERO PUSH1 0xE JUMPI PUSH0 PUSH0 REVERT JUMPDEST POP PUSH2 0x60F DUP1 PUSH2 0x1C PUSH0 CODECOPY PUSH0 RETURN INVALID PUSH1 0x80 PUSH1 0x40 MSTORE PUSH1 0x4 CALLDATASIZE LT PUSH2 0x3E JUMPI PUSH0 CALLDATALOAD PUSH1 0xE0 SHR DUP1 PUSH4 0x2E1A7D4D EQ PUSH2 0x42 JUMPI DUP1 PUSH4 0xD0E30DB0 EQ PUSH2 0x6A JUMPI DUP1 PUSH4 0xE3D670D7 EQ PUSH2 0x74 JUMPI DUP1 PUSH4 0xF8B2CB4F EQ PUSH2 0xB0 JUMPI JUMPDEST PUSH0 PUSH0 REVERT JUMPDEST CALLVALUE DUP1 ISZERO PUSH2 0x4D JUMPI PUSH0 PUSH0 REVERT JUMPDEST POP PUSH2 0x68 PUSH1 0x4 DUP1 CALLDATASIZE SUB DUP2 ADD SWAP1 PUSH2 0x63 SWAP2 SWAP1 PUSH2 0x34D JUMP JUMPDEST PUSH2 0xEC JUMP JUMPDEST STOP JUMPDEST PUSH2 0x72 PUSH2 0x269 JUMP JUMPDEST STOP JUMPDEST CALLVALUE DUP1 ISZERO PUSH2 0x7F JUMPI PUSH0 PUSH0 REVERT JUMPDEST POP PUSH2 0x9A PUSH1 0x4 DUP1 CALLDATASIZE SUB DUP2 ADD SWAP1 PUSH2 0x95 SWAP2 SWAP1 PUSH2 0x3D2 JUMP JUMPDEST PUSH2 0x2BD JUMP JUMPDEST PUSH1 0x40 MLOAD PUSH2 0xA7 SWAP2 SWAP1 PUSH2 0x40C JUMP JUMPDEST PUSH1 0x40 MLOAD DUP1 SWAP2 SUB SWAP1 RETURN JUMPDEST CALLVALUE DUP1 ISZERO PUSH2 0xBB JUMPI PUSH0 PUSH0 REVERT JUMPDEST POP PUSH2 0xD6 PUSH1 0x4 DUP1 CALLDATASIZE SUB DUP2 ADD SWAP1 PUSH2 0xD1 SWAP2 SWAP1 PUSH2 0x3D2 JUMP JUMPDEST PUSH2 0x2D1 JUMP JUMPDEST PUSH1 0x40 MLOAD PUSH2 0xE3 SWAP2 SWAP1 PUSH2 0x40C JUMP JUMPDEST PUSH1 0x40 MLOAD DUP1 SWAP2 SUB SWAP1 RETURN JUMPDEST DUP1 PUSH0 PUSH0 CALLER PUSH20 0xFFFFFFFFFFFFFFFFFFFFFFFFFFFFFFFFFFFFFFFF AND PUSH20 0xFFFFFFFFFFFFFFFFFFFFFFFFFFFFFFFFFFFFFFFF AND DUP2 MSTORE PUSH1 0x20 ADD SWAP1 DUP2 MSTORE PUSH1 0x20 ADD PUSH0 KECCAK256 SLOAD LT ISZERO PUSH2 0x16B JUMPI PUSH1 0x40 MLOAD PUSH32 0x8C379A000000000000000000000000000000000000000000000000000000000 DUP2 MSTORE PUSH1 0x4 ADD PUSH2 0x162 SWAP1 PUSH2 0x47F JUMP JUMPDEST PUSH1 0x40 MLOAD DUP1 SWAP2 SUB SWAP1 REVERT JUMPDEST DUP1 PUSH0 PUSH0 CALLER PUSH20 0xFFFFFFFFFFFFFFFFFFFFFFFFFFFFFFFFFFFFFFFF AND PUSH20 0xFFFFFFFFFFFFFFFFFFFFFFFFFFFFFFFFFFFFFFFF AND DUP2 MSTORE PUSH1 0x20 ADD SWAP1 DUP2 MSTORE PUSH1 0x20 ADD PUSH0 KECCAK256 PUSH0 DUP3 DUP3 SLOAD PUSH2 0x1B6 SWAP2 SWAP1 PUSH2 0x4CA JUMP JUMPDEST SWAP3 POP POP DUP2 SWAP1 SSTORE POP PUSH0 CALLER PUSH20 0xFFFFFFFFFFFFFFFFFFFFFFFFFFFFFFFFFFFFFFFF AND DUP3 PUSH1 0x40 MLOAD PUSH2 0x1E2 SWAP1 PUSH2 0x52A JUMP JUMPDEST PUSH0 PUSH1 0x40 MLOAD DUP1 DUP4 SUB DUP2 DUP6 DUP8 GAS CALL SWAP3 POP POP POP RETURNDATASIZE DUP1 PUSH0 DUP2 EQ PUSH2 0x21C JUMPI PUSH1 0x40 MLOAD SWAP2 POP PUSH1 0x1F NOT PUSH1 0x3F RETURNDATASIZE ADD AND DUP3 ADD PUSH1 0x40 MSTORE RETURNDATASIZE DUP3 MSTORE RETURNDATASIZE PUSH0 PUSH1 0x20 DUP5 ADD RETURNDATACOPY PUSH2 0x221 JUMP JUMPDEST PUSH1 0x60 SWAP2 POP JUMPDEST POP POP SWAP1 POP DUP1 PUSH2 0x265 JUMPI PUSH1 0x40 MLOAD PUSH32 0x8C379A000000000000000000000000000000000000000000000000000000000 DUP2 MSTORE PUSH1 0x4 ADD PUSH2 0x25C SWAP1 PUSH2 0x588 JUMP JUMPDEST PUSH1 0x40 MLOAD DUP1 SWAP2 SUB SWAP1 REVERT JUMPDEST POP POP JUMP JUMPDEST CALLVALUE PUSH0 PUSH0 CALLER PUSH20 0xFFFFFFFFFFFFFFFFFFFFFFFFFFFFFFFFFFFFFFFF AND PUSH20 0xFFFFFFFFFFFFFFFFFFFFFFFFFFFFFFFFFFFFFFFF AND DUP2 MSTORE PUSH1 0x20 ADD SWAP1 DUP2 MSTORE PUSH1 0x20 ADD PUSH0 KECCAK256 PUSH0 DUP3 DUP3 SLOAD PUSH2 0x2B4 SWAP2 SWAP1 PUSH2 0x5A6 JUMP JUMPDEST SWAP3 POP POP DUP2 SWAP1 SSTORE POP JUMP JUMPDEST PUSH0 PUSH1 0x20 MSTORE DUP1 PUSH0 MSTORE PUSH1 0x40 PUSH0 KECCAK256 PUSH0 SWAP2 POP SWAP1 POP SLOAD DUP2 JUMP JUMPDEST PUSH0 PUSH0 PUSH0 DUP4 PUSH20 0xFFFFFFFFFFFFFFFFFFFFFFFFFFFFFFFFFFFFFFFF AND PUSH20 0xFFFFFFFFFFFFFFFFFFFFFFFFFFFFFFFFFFFFFFFF AND DUP2 MSTORE PUSH1 0x20 ADD SWAP1 DUP2 MSTORE PUSH1 0x20 ADD PUSH0 KECCAK256 SLOAD SWAP1 POP SWAP2 SWAP1 POP JUMP JUMPDEST PUSH0 PUSH0 REVERT JUMPDEST PUSH0 DUP2 SWAP1 POP SWAP2 SWAP1 POP JUMP JUMPDEST PUSH2 0x32C DUP2 PUSH2 0x31A JUMP JUMPDEST DUP2 EQ PUSH2 0x336 JUMPI PUSH0 PUSH0 REVERT JUMPDEST POP JUMP JUMPDEST PUSH0 DUP2 CALLDATALOAD SWAP1 POP PUSH2 0x347 DUP2 PUSH2 0x323 JUMP JUMPDEST SWAP3 SWAP2 POP POP JUMP JUMPDEST PUSH0 PUSH1 0x20 DUP3 DUP5 SUB SLT ISZERO PUSH2 0x362 JUMPI PUSH2 0x361 PUSH2 0x316 JUMP JUMPDEST JUMPDEST PUSH0 PUSH2 0x36F DUP5 DUP3 DUP6 ADD PUSH2 0x339 JUMP JUMPDEST SWAP2 POP POP SWAP3 SWAP2 POP POP JUMP JUMPDEST PUSH0 PUSH20 0xFFFFFFFFFFFFFFFFFFFFFFFFFFFFFFFFFFFFFFFF DUP3 AND SWAP1 POP SWAP2 SWAP1 POP JUMP JUMPDEST PUSH0 PUSH2 0x3A1 DUP3 PUSH2 0x378 JUMP JUMPDEST SWAP1 POP SWAP2 SWAP1 POP JUMP JUMPDEST PUSH2 0x3B1 DUP2 PUSH2 0x397 JUMP JUMPDEST DUP2 EQ PUSH2 0x3BB JUMPI PUSH0 PUSH0 REVERT JUMPDEST POP JUMP JUMPDEST PUSH0 DUP2 CALLDATALOAD SWAP1 POP PUSH2 0x3CC DUP2 PUSH2 0x3A8 JUMP JUMPDEST SWAP3 SWAP2 POP POP JUMP JUMPDEST PUSH0 PUSH1 0x20 DUP3 DUP5 SUB SLT ISZERO PUSH2 0x3E7 JUMPI PUSH2 0x3E6 PUSH2 0x316 JUMP JUMPDEST JUMPDEST PUSH0 PUSH2 0x3F4 DUP5 DUP3 DUP6 ADD PUSH2 0x3BE JUMP JUMPDEST SWAP2 POP POP SWAP3 SWAP2 POP POP JUMP JUMPDEST PUSH2 0x406 DUP2 PUSH2 0x31A JUMP JUMPDEST DUP3 MSTORE POP POP JUMP JUMPDEST PUSH0 PUSH1 0x20 DUP3 ADD SWAP1 POP PUSH2 0x41F PUSH0 DUP4 ADD DUP5 PUSH2 0x3FD JUMP JUMPDEST SWAP3 SWAP2 POP POP JUMP JUMPDEST PUSH0 DUP3 DUP3 MSTORE PUSH1 0x20 DUP3 ADD SWAP1 POP SWAP3 SWAP2 POP POP JUMP JUMPDEST PUSH32 0x4E6F7420656E6F7567682062616C616E63650000000000000000000000000000 PUSH0 DUP3 ADD MSTORE POP JUMP JUMPDEST PUSH0 PUSH2 0x469 PUSH1 0x12 DUP4 PUSH2 0x425 JUMP JUMPDEST SWAP2 POP PUSH2 0x474 DUP3 PUSH2 0x435 JUMP JUMPDEST PUSH1 0x20 DUP3 ADD SWAP1 POP SWAP2 SWAP1 POP JUMP JUMPDEST PUSH0 PUSH1 0x20 DUP3 ADD SWAP1 POP DUP2 DUP2 SUB PUSH0 DUP4 ADD MSTORE PUSH2 0x496 DUP2 PUSH2 0x45D JUMP JUMPDEST SWAP1 POP SWAP2 SWAP1 POP JUMP JUMPDEST PUSH32 0x4E487B7100000000000000000000000000000000000000000000000000000000 PUSH0 MSTORE PUSH1 0x11 PUSH1 0x4 MSTORE PUSH1 0x24 PUSH0 REVERT JUMPDEST PUSH0 PUSH2 0x4D4 DUP3 PUSH2 0x31A JUMP JUMPDEST SWAP2 POP PUSH2 0x4DF DUP4 PUSH2 0x31A JUMP JUMPDEST SWAP3 POP DUP3 DUP3 SUB SWAP1 POP DUP2 DUP2 GT ISZERO PUSH2 0x4F7 JUMPI PUSH2 0x4F6 PUSH2 0x49D JUMP JUMPDEST JUMPDEST SWAP3 SWAP2 POP POP JUMP JUMPDEST PUSH0 DUP2 SWAP1 POP SWAP3 SWAP2 POP POP JUMP JUMPDEST POP JUMP JUMPDEST PUSH0 PUSH2 0x515 PUSH0 DUP4 PUSH2 0x4FD JUMP JUMPDEST SWAP2 POP PUSH2 0x520 DUP3 PUSH2 0x507 JUMP JUMPDEST PUSH0 DUP3 ADD SWAP1 POP SWAP2 SWAP1 POP JUMP JUMPDEST PUSH0 PUSH2 0x534 DUP3 PUSH2 0x50A JUMP JUMPDEST SWAP2 POP DUP2 SWAP1 POP SWAP2 SWAP1 POP JUMP JUMPDEST PUSH32 0x5472616E73666572206661696C65640000000000000000000000000000000000 PUSH0 DUP3 ADD MSTORE POP JUMP JUMPDEST PUSH0 PUSH2 0x572 PUSH1 0xF DUP4 PUSH2 0x425 JUMP JUMPDEST SWAP2 POP PUSH2 0x57D DUP3 PUSH2 0x53E JUMP JUMPDEST PUSH1 0x20 DUP3 ADD SWAP1 POP SWAP2 SWAP1 POP JUMP JUMPDEST PUSH0 PUSH1 0x20 DUP3 ADD SWAP1 POP DUP2 DUP2 SUB PUSH0 DUP4 ADD MSTORE PUSH2 0x59F DUP2 PUSH2 0x566 JUMP JUMPDEST SWAP1 POP SWAP2 SWAP1 POP JUMP JUMPDEST PUSH0 PUSH2 0x5B0 DUP3 PUSH2 0x31A JUMP JUMPDEST SWAP2 POP PUSH2 0x5BB DUP4 PUSH2 0x31A JUMP JUMPDEST SWAP3 POP DUP3 DUP3 ADD SWAP1 POP DUP1 DUP3 GT ISZERO PUSH2 0x5D3 JUMPI PUSH2 0x5D2 PUSH2 0x49D JUMP JUMPDEST JUMPDEST SWAP3 SWAP2 POP POP JUMP INVALID LOG2 PUSH5 0x6970667358 0x22 SLT KECCAK256 0xB2 0x2C SWAP7 SWAP3 0xBC PUSH13 0xE7C6EECAA5C4ADD6DD072D1A72 LOG1 DUP9 MLOAD SWAP16 CODESIZE 0xC3 RETURNDATASIZE INVALID SHL POP SWAP8 PUSH9 0x7A64736F6C63430008 0x22 STOP CALLER "
				},
				"gasEstimates": {
					"creation": {
						"codeDepositCost": "310200",
						"executionCost": "347",
						"totalCost": "310547"
					},
					"external": {
						"balance(address)": "2823",
						"deposit()": "infinite",
						"getBalance(address)": "2872",
						"withdraw(uint256)": "infinite"
					}
				},
				"methodIdentifiers": {
					"balance(address)": "e3d670d7",
					"deposit()": "d0e30db0",
					"getBalance(address)": "f8b2cb4f",
					"withdraw(uint256)": "2e1a7d4d"
				}
			},
			"storageLayout": {
				"storage": [
					{
						"astId": 5,
						"contract": "test76.sol:SecureBank",
						"label": "balance",
						"offset": 0,
						"slot": "0",
						"type": "t_mapping(t_address,t_uint256)"
					}
				],
				"types": {
					"t_address": {
						"encoding": "inplace",
						"label": "address",
						"numberOfBytes": "20"
					},
					"t_mapping(t_address,t_uint256)": {
						"encoding": "mapping",
						"key": "t_address",
						"label": "mapping(address => uint256)",
						"numberOfBytes": "32",
						"value": "t_uint256"
					},
					"t_uint256": {
						"encoding": "inplace",
						"label": "uint256",
						"numberOfBytes": "32"
					}
				}
			},
			"userdoc": {
				"kind": "user",
				"methods": {},
				"version": 1
			}
		}
	}
}