{
	"test47.sol": {
		"ManualRevertExample": {
			"abi": [
				{
					"inputs": [
						{
							"internalType": "uint256",
							"name": "amount",
							"type": "uint256"
						}
					],
					"name": "AmountExceedsLimit",
					"type": "error"
				},
				{
					"inputs": [],
					"name": "CorruptedState",
					"type": "error"
				},
				{
					"inputs": [
						{
							"internalType": "uint256",
							"name": "requested",
							"type": "uint256"
						},
						{
							"internalType": "uint256",
							"name": "available",
							"type": "uint256"
						}
					],
					"name": "InsufficientBalance",
					"type": "error"
				},
				{
					"inputs": [
						{
							"internalType": "uint256",
							"name": "number",
							"type": "uint256"
						}
					],
					"name": "OddNumberRejected",
					"type": "error"
				},
				{
					"inputs": [
						{
							"internalType": "address",
							"name": "",
							"type": "address"
						}
					],
					"name": "balances",
					"outputs": [
						{
							"internalType": "uint256",
							"name": "",
							"type": "uint256"
						}
					],
					"stateMutability": "view",
					"type": "function"
				},
				{
					"inputs": [
						{
							"internalType": "uint256",
							"name": "_amount",
							"type": "uint256"
						}
					],
					"name": "dangerousDeposit",
					"outputs": [],
					"stateMutability": "nonpayable",
					"type": "function"
				},
				{
					"inputs": [
						{
							"internalType": "uint256",
							"name": "_number",
							"type": "uint256"
						}
					],
					"name": "onlyEven",
					"outputs": [
						{
							"internalType": "string",
							"name": "",
							"type": "string"
						}
					],
					"stateMutability": "pure",
					"type": "function"
				},
				{
					"inputs": [
						{
							"internalType": "uint256",
							"name": "_number",
							"type": "uint256"
						}
					],
					"name": "onlyEvenRequire",
					"outputs": [
						{
							"internalType": "string",
							"name": "",
							"type": "string"
						}
					],
					"stateMutability": "pure",
					"type": "function"
				},
				{
					"inputs": [],
					"name": "totalCounter",
					"outputs": [
						{
							"internalType": "uint256",
							"name": "",
							"type": "uint256"
						}
					],
					"stateMutability": "view",
					"type": "function"
				},
				{
					"inputs": [
						{
							"internalType": "uint256",
							"name": "_amount",
							"type": "uint256"
						}
					],
					"name": "withdraw",
					"outputs": [],
					"stateMutability": "nonpayable",
					"type": "function"
				}
			],
			"devdoc": {
				"kind": "dev",
				"methods": {},
				"version": 1
			},
			"evm": {
				"assembly": "    /* \"test47.sol\":13717:16589  contract ManualRevertExample {... */\n  mstore(0x40, 0x80)\n  callvalue\n  dup1\n  iszero\n  tag_1\n  jumpi\n  revert(0x00, 0x00)\ntag_1:\n  pop\n  dataSize(sub_0)\n  dup1\n  dataOffset(sub_0)\n  0x00\n  codecopy\n  0x00\n  return\nstop\n\nsub_0: assembly {\n        /* \"test47.sol\":13717:16589  contract ManualRevertExample {... */\n      mstore(0x40, 0x80)\n      callvalue\n      dup1\n      iszero\n      tag_1\n      jumpi\n      revert(0x00, 0x00)\n    tag_1:\n      pop\n      jumpi(tag_2, lt(calldatasize, 0x04))\n      shr(0xe0, calldataload(0x00))\n      dup1\n      0x27e235e3\n      eq\n      tag_3\n      jumpi\n      dup1\n      0x2e1a7d4d\n      eq\n      tag_4\n      jumpi\n      dup1\n      0x97feba9d\n      eq\n      tag_5\n      jumpi\n      dup1\n      0xa05beee8\n      eq\n      tag_6\n      jumpi\n      dup1\n      0xbfc169e7\n      eq\n      tag_7\n      jumpi\n      dup1\n      0xce0b4213\n      eq\n      tag_8\n      jumpi\n    tag_2:\n      revert(0x00, 0x00)\n        /* \"test47.sol\":13834:13877  mapping(address => uint256) public balances */\n    tag_3:\n      tag_9\n      0x04\n      dup1\n      calldatasize\n      sub\n      dup2\n      add\n      swap1\n      tag_10\n      swap2\n      swap1\n      tag_11\n      jump\t// in\n    tag_10:\n      tag_12\n      jump\t// in\n    tag_9:\n      mload(0x40)\n      tag_13\n      swap2\n      swap1\n      tag_14\n      jump\t// in\n    tag_13:\n      mload(0x40)\n      dup1\n      swap2\n      sub\n      swap1\n      return\n        /* \"test47.sol\":14860:15307  function withdraw(... */\n    tag_4:\n      tag_15\n      0x04\n      dup1\n      calldatasize\n      sub\n      dup2\n      add\n      swap1\n      tag_16\n      swap2\n      swap1\n      tag_17\n      jump\t// in\n    tag_16:\n      tag_18\n      jump\t// in\n    tag_15:\n      stop\n        /* \"test47.sol\":13798:13825  uint256 public totalCounter */\n    tag_5:\n      tag_19\n      tag_20\n      jump\t// in\n    tag_19:\n      mload(0x40)\n      tag_21\n      swap2\n      swap1\n      tag_14\n      jump\t// in\n    tag_21:\n      mload(0x40)\n      dup1\n      swap2\n      sub\n      swap1\n      return\n        /* \"test47.sol\":14415:14702  function dangerousDeposit(... */\n    tag_6:\n      tag_22\n      0x04\n      dup1\n      calldatasize\n      sub\n      dup2\n      add\n      swap1\n      tag_23\n      swap2\n      swap1\n      tag_17\n      jump\t// in\n    tag_23:\n      tag_24\n      jump\t// in\n    tag_22:\n      stop\n        /* \"test47.sol\":15937:16211  function onlyEvenRequire(... */\n    tag_7:\n      tag_25\n      0x04\n      dup1\n      calldatasize\n      sub\n      dup2\n      add\n      swap1\n      tag_26\n      swap2\n      swap1\n      tag_17\n      jump\t// in\n    tag_26:\n      tag_27\n      jump\t// in\n    tag_25:\n      mload(0x40)\n      tag_28\n      swap2\n      swap1\n      tag_29\n      jump\t// in\n    tag_28:\n      mload(0x40)\n      dup1\n      swap2\n      sub\n      swap1\n      return\n        /* \"test47.sol\":15477:15772  function onlyEven(... */\n    tag_8:\n      tag_30\n      0x04\n      dup1\n      calldatasize\n      sub\n      dup2\n      add\n      swap1\n      tag_31\n      swap2\n      swap1\n      tag_17\n      jump\t// in\n    tag_31:\n      tag_32\n      jump\t// in\n    tag_30:\n      mload(0x40)\n      tag_33\n      swap2\n      swap1\n      tag_29\n      jump\t// in\n    tag_33:\n      mload(0x40)\n      dup1\n      swap2\n      sub\n      swap1\n      return\n        /* \"test47.sol\":13834:13877  mapping(address => uint256) public balances */\n    tag_12:\n      mstore(0x20, 0x01)\n      dup1\n      0x00\n      mstore\n      keccak256(0x00, 0x40)\n      0x00\n      swap2\n      pop\n      swap1\n      pop\n      sload\n      dup2\n      jump\t// out\n        /* \"test47.sol\":14860:15307  function withdraw(... */\n    tag_18:\n        /* \"test47.sol\":14945:14964  uint256 userBalance */\n      0x00\n        /* \"test47.sol\":14980:14988  balances */\n      0x01\n        /* \"test47.sol\":14980:15000  balances[msg.sender] */\n      0x00\n        /* \"test47.sol\":14989:14999  msg.sender */\n      caller\n        /* \"test47.sol\":14980:15000  balances[msg.sender] */\n      0xffffffffffffffffffffffffffffffffffffffff\n      and\n      0xffffffffffffffffffffffffffffffffffffffff\n      and\n      dup2\n      mstore\n      0x20\n      add\n      swap1\n      dup2\n      mstore\n      0x20\n      add\n      0x00\n      keccak256\n      sload\n        /* \"test47.sol\":14945:15000  uint256 userBalance =... */\n      swap1\n      pop\n        /* \"test47.sol\":15031:15038  _amount */\n      dup2\n        /* \"test47.sol\":15017:15028  userBalance */\n      dup2\n        /* \"test47.sol\":15017:15038  userBalance < _amount */\n      lt\n        /* \"test47.sol\":15013:15164  if (userBalance < _amount) {... */\n      iszero\n      tag_35\n      jumpi\n        /* \"test47.sol\":15100:15107  _amount */\n      dup2\n        /* \"test47.sol\":15126:15137  userBalance */\n      dup2\n        /* \"test47.sol\":15062:15152  InsufficientBalance(... */\n      mload(0x40)\n      0xcf47918100000000000000000000000000000000000000000000000000000000\n      dup2\n      mstore\n      0x04\n      add\n      tag_36\n      swap3\n      swap2\n      swap1\n      tag_37\n      jump\t// in\n    tag_36:\n      mload(0x40)\n      dup1\n      swap2\n      sub\n      swap1\n      revert\n        /* \"test47.sol\":15013:15164  if (userBalance < _amount) {... */\n    tag_35:\n        /* \"test47.sol\":15226:15233  _amount */\n      dup2\n        /* \"test47.sol\":15212:15223  userBalance */\n      dup2\n        /* \"test47.sol\":15212:15233  userBalance - _amount */\n      tag_38\n      swap2\n      swap1\n      tag_39\n      jump\t// in\n    tag_38:\n        /* \"test47.sol\":15176:15184  balances */\n      0x01\n        /* \"test47.sol\":15176:15196  balances[msg.sender] */\n      0x00\n        /* \"test47.sol\":15185:15195  msg.sender */\n      caller\n        /* \"test47.sol\":15176:15196  balances[msg.sender] */\n      0xffffffffffffffffffffffffffffffffffffffff\n      and\n      0xffffffffffffffffffffffffffffffffffffffff\n      and\n      dup2\n      mstore\n      0x20\n      add\n      swap1\n      dup2\n      mstore\n      0x20\n      add\n      0x00\n      keccak256\n        /* \"test47.sol\":15176:15233  balances[msg.sender] =... */\n      dup2\n      swap1\n      sstore\n      pop\n        /* \"test47.sol\":15262:15269  _amount */\n      dup2\n        /* \"test47.sol\":15246:15258  totalCounter */\n      0x00\n      0x00\n        /* \"test47.sol\":15246:15269  totalCounter -= _amount */\n      dup3\n      dup3\n      sload\n      tag_40\n      swap2\n      swap1\n      tag_39\n      jump\t// in\n    tag_40:\n      swap3\n      pop\n      pop\n      dup2\n      swap1\n      sstore\n      pop\n        /* \"test47.sol\":15282:15299  _checkInvariant() */\n      tag_41\n        /* \"test47.sol\":15282:15297  _checkInvariant */\n      tag_42\n        /* \"test47.sol\":15282:15299  _checkInvariant() */\n      jump\t// in\n    tag_41:\n        /* \"test47.sol\":14934:15307  {... */\n      pop\n        /* \"test47.sol\":14860:15307  function withdraw(... */\n      pop\n      jump\t// out\n        /* \"test47.sol\":13798:13825  uint256 public totalCounter */\n    tag_20:\n      sload(0x00)\n      dup2\n      jump\t// out\n        /* \"test47.sol\":14415:14702  function dangerousDeposit(... */\n    tag_24:\n        /* \"test47.sol\":14532:14539  _amount */\n      dup1\n        /* \"test47.sol\":14508:14516  balances */\n      0x01\n        /* \"test47.sol\":14508:14528  balances[msg.sender] */\n      0x00\n        /* \"test47.sol\":14517:14527  msg.sender */\n      caller\n        /* \"test47.sol\":14508:14528  balances[msg.sender] */\n      0xffffffffffffffffffffffffffffffffffffffff\n      and\n      0xffffffffffffffffffffffffffffffffffffffff\n      and\n      dup2\n      mstore\n      0x20\n      add\n      swap1\n      dup2\n      mstore\n      0x20\n      add\n      0x00\n      keccak256\n      0x00\n        /* \"test47.sol\":14508:14539  balances[msg.sender] += _amount */\n      dup3\n      dup3\n      sload\n      tag_44\n      swap2\n      swap1\n      tag_45\n      jump\t// in\n    tag_44:\n      swap3\n      pop\n      pop\n      dup2\n      swap1\n      sstore\n      pop\n        /* \"test47.sol\":14566:14573  _amount */\n      dup1\n        /* \"test47.sol\":14550:14562  totalCounter */\n      0x00\n      0x00\n        /* \"test47.sol\":14550:14573  totalCounter += _amount */\n      dup3\n      dup3\n      sload\n      tag_46\n      swap2\n      swap1\n      tag_45\n      jump\t// in\n    tag_46:\n      swap3\n      pop\n      pop\n      dup2\n      swap1\n      sstore\n      pop\n        /* \"test47.sol\":14600:14602  10 */\n      0x0a\n        /* \"test47.sol\":14590:14597  _amount */\n      dup2\n        /* \"test47.sol\":14590:14602  _amount > 10 */\n      gt\n        /* \"test47.sol\":14586:14665  if (_amount > 10) {... */\n      iszero\n      tag_47\n      jumpi\n        /* \"test47.sol\":14645:14652  _amount */\n      dup1\n        /* \"test47.sol\":14626:14653  AmountExceedsLimit(_amount) */\n      mload(0x40)\n      0x5724f90200000000000000000000000000000000000000000000000000000000\n      dup2\n      mstore\n      0x04\n      add\n      tag_48\n      swap2\n      swap1\n      tag_14\n      jump\t// in\n    tag_48:\n      mload(0x40)\n      dup1\n      swap2\n      sub\n      swap1\n      revert\n        /* \"test47.sol\":14586:14665  if (_amount > 10) {... */\n    tag_47:\n        /* \"test47.sol\":14677:14694  _checkInvariant() */\n      tag_49\n        /* \"test47.sol\":14677:14692  _checkInvariant */\n      tag_42\n        /* \"test47.sol\":14677:14694  _checkInvariant() */\n      jump\t// in\n    tag_49:\n        /* \"test47.sol\":14415:14702  function dangerousDeposit(... */\n      pop\n      jump\t// out\n        /* \"test47.sol\":15937:16211  function onlyEvenRequire(... */\n    tag_27:\n        /* \"test47.sol\":16045:16058  string memory */\n      0x60\n        /* \"test47.sol\":16113:16114  0 */\n      0x00\n        /* \"test47.sol\":16108:16109  2 */\n      0x02\n        /* \"test47.sol\":16098:16105  _number */\n      dup4\n        /* \"test47.sol\":16098:16109  _number % 2 */\n      tag_51\n      swap2\n      swap1\n      tag_52\n      jump\t// in\n    tag_51:\n        /* \"test47.sol\":16098:16114  _number % 2 == 0 */\n      eq\n        /* \"test47.sol\":16076:16161  require(... */\n      tag_53\n      jumpi\n      mload(0x40)\n      0x08c379a000000000000000000000000000000000000000000000000000000000\n      dup2\n      mstore\n      0x04\n      add\n      tag_54\n      swap1\n      tag_55\n      jump\t// in\n    tag_54:\n      mload(0x40)\n      dup1\n      swap2\n      sub\n      swap1\n      revert\n    tag_53:\n        /* \"test47.sol\":16174:16203  return \"Even number accepted\" */\n      mload(0x40)\n      dup1\n      0x40\n      add\n      0x40\n      mstore\n      dup1\n      0x14\n      dup2\n      mstore\n      0x20\n      add\n      0x4576656e206e756d626572206163636570746564000000000000000000000000\n      dup2\n      mstore\n      pop\n      swap1\n      pop\n        /* \"test47.sol\":15937:16211  function onlyEvenRequire(... */\n      swap2\n      swap1\n      pop\n      jump\t// out\n        /* \"test47.sol\":15477:15772  function onlyEven(... */\n    tag_32:\n        /* \"test47.sol\":15578:15591  string memory */\n      0x60\n        /* \"test47.sol\":15628:15629  0 */\n      0x00\n        /* \"test47.sol\":15623:15624  2 */\n      0x02\n        /* \"test47.sol\":15613:15620  _number */\n      dup4\n        /* \"test47.sol\":15613:15624  _number % 2 */\n      tag_57\n      swap2\n      swap1\n      tag_52\n      jump\t// in\n    tag_57:\n        /* \"test47.sol\":15613:15629  _number % 2 != 0 */\n      eq\n        /* \"test47.sol\":15609:15723  if (_number % 2 != 0) {... */\n      tag_58\n      jumpi\n        /* \"test47.sol\":15689:15696  _number */\n      dup2\n        /* \"test47.sol\":15653:15711  OddNumberRejected(... */\n      mload(0x40)\n      0xfe2424b900000000000000000000000000000000000000000000000000000000\n      dup2\n      mstore\n      0x04\n      add\n      tag_59\n      swap2\n      swap1\n      tag_14\n      jump\t// in\n    tag_59:\n      mload(0x40)\n      dup1\n      swap2\n      sub\n      swap1\n      revert\n        /* \"test47.sol\":15609:15723  if (_number % 2 != 0) {... */\n    tag_58:\n        /* \"test47.sol\":15735:15764  return \"Even number accepted\" */\n      mload(0x40)\n      dup1\n      0x40\n      add\n      0x40\n      mstore\n      dup1\n      0x14\n      dup2\n      mstore\n      0x20\n      add\n      0x4576656e206e756d626572206163636570746564000000000000000000000000\n      dup2\n      mstore\n      pop\n      swap1\n      pop\n        /* \"test47.sol\":15477:15772  function onlyEven(... */\n      swap2\n      swap1\n      pop\n      jump\t// out\n        /* \"test47.sol\":16376:16586  function _checkInvariant()... */\n    tag_42:\n        /* \"test47.sol\":16505:16517  totalCounter */\n      sload(0x00)\n        /* \"test47.sol\":16469:16477  balances */\n      0x01\n        /* \"test47.sol\":16469:16489  balances[msg.sender] */\n      0x00\n        /* \"test47.sol\":16478:16488  msg.sender */\n      caller\n        /* \"test47.sol\":16469:16489  balances[msg.sender] */\n      0xffffffffffffffffffffffffffffffffffffffff\n      and\n      0xffffffffffffffffffffffffffffffffffffffff\n      and\n      dup2\n      mstore\n      0x20\n      add\n      swap1\n      dup2\n      mstore\n      0x20\n      add\n      0x00\n      keccak256\n      sload\n        /* \"test47.sol\":16469:16517  balances[msg.sender] >... */\n      gt\n        /* \"test47.sol\":16451:16579  if (... */\n      iszero\n      tag_61\n      jumpi\n        /* \"test47.sol\":16551:16567  CorruptedState() */\n      mload(0x40)\n      0x6fb71c5900000000000000000000000000000000000000000000000000000000\n      dup2\n      mstore\n      0x04\n      add\n      mload(0x40)\n      dup1\n      swap2\n      sub\n      swap1\n      revert\n        /* \"test47.sol\":16451:16579  if (... */\n    tag_61:\n        /* \"test47.sol\":16376:16586  function _checkInvariant()... */\n      jump\t// out\n        /* \"#utility.yul\":88:205   */\n    tag_63:\n        /* \"#utility.yul\":197:198   */\n      0x00\n        /* \"#utility.yul\":194:195   */\n      0x00\n        /* \"#utility.yul\":187:199   */\n      revert\n        /* \"#utility.yul\":334:460   */\n    tag_65:\n        /* \"#utility.yul\":371:378   */\n      0x00\n        /* \"#utility.yul\":411:453   */\n      0xffffffffffffffffffffffffffffffffffffffff\n        /* \"#utility.yul\":404:409   */\n      dup3\n        /* \"#utility.yul\":400:454   */\n      and\n        /* \"#utility.yul\":389:454   */\n      swap1\n      pop\n        /* \"#utility.yul\":334:460   */\n      swap2\n      swap1\n      pop\n      jump\t// out\n        /* \"#utility.yul\":466:562   */\n    tag_66:\n        /* \"#utility.yul\":503:510   */\n      0x00\n        /* \"#utility.yul\":532:556   */\n      tag_88\n        /* \"#utility.yul\":550:555   */\n      dup3\n        /* \"#utility.yul\":532:556   */\n      tag_65\n      jump\t// in\n    tag_88:\n        /* \"#utility.yul\":521:556   */\n      swap1\n      pop\n        /* \"#utility.yul\":466:562   */\n      swap2\n      swap1\n      pop\n      jump\t// out\n        /* \"#utility.yul\":568:690   */\n    tag_67:\n        /* \"#utility.yul\":641:665   */\n      tag_90\n        /* \"#utility.yul\":659:664   */\n      dup2\n        /* \"#utility.yul\":641:665   */\n      tag_66\n      jump\t// in\n    tag_90:\n        /* \"#utility.yul\":634:639   */\n      dup2\n        /* \"#utility.yul\":631:666   */\n      eq\n        /* \"#utility.yul\":621:684   */\n      tag_91\n      jumpi\n        /* \"#utility.yul\":680:681   */\n      0x00\n        /* \"#utility.yul\":677:678   */\n      0x00\n        /* \"#utility.yul\":670:682   */\n      revert\n        /* \"#utility.yul\":621:684   */\n    tag_91:\n        /* \"#utility.yul\":568:690   */\n      pop\n      jump\t// out\n        /* \"#utility.yul\":696:835   */\n    tag_68:\n        /* \"#utility.yul\":742:747   */\n      0x00\n        /* \"#utility.yul\":780:786   */\n      dup2\n        /* \"#utility.yul\":767:787   */\n      calldataload\n        /* \"#utility.yul\":758:787   */\n      swap1\n      pop\n        /* \"#utility.yul\":796:829   */\n      tag_93\n        /* \"#utility.yul\":823:828   */\n      dup2\n        /* \"#utility.yul\":796:829   */\n      tag_67\n      jump\t// in\n    tag_93:\n        /* \"#utility.yul\":696:835   */\n      swap3\n      swap2\n      pop\n      pop\n      jump\t// out\n        /* \"#utility.yul\":841:1170   */\n    tag_11:\n        /* \"#utility.yul\":900:906   */\n      0x00\n        /* \"#utility.yul\":949:951   */\n      0x20\n        /* \"#utility.yul\":937:946   */\n      dup3\n        /* \"#utility.yul\":928:935   */\n      dup5\n        /* \"#utility.yul\":924:947   */\n      sub\n        /* \"#utility.yul\":920:952   */\n      slt\n        /* \"#utility.yul\":917:1036   */\n      iszero\n      tag_95\n      jumpi\n        /* \"#utility.yul\":955:1034   */\n      tag_96\n      tag_63\n      jump\t// in\n    tag_96:\n        /* \"#utility.yul\":917:1036   */\n    tag_95:\n        /* \"#utility.yul\":1075:1076   */\n      0x00\n        /* \"#utility.yul\":1100:1153   */\n      tag_97\n        /* \"#utility.yul\":1145:1152   */\n      dup5\n        /* \"#utility.yul\":1136:1142   */\n      dup3\n        /* \"#utility.yul\":1125:1134   */\n      dup6\n        /* \"#utility.yul\":1121:1143   */\n      add\n        /* \"#utility.yul\":1100:1153   */\n      tag_68\n      jump\t// in\n    tag_97:\n        /* \"#utility.yul\":1090:1153   */\n      swap2\n      pop\n        /* \"#utility.yul\":1046:1163   */\n      pop\n        /* \"#utility.yul\":841:1170   */\n      swap3\n      swap2\n      pop\n      pop\n      jump\t// out\n        /* \"#utility.yul\":1176:1253   */\n    tag_69:\n        /* \"#utility.yul\":1213:1220   */\n      0x00\n        /* \"#utility.yul\":1242:1247   */\n      dup2\n        /* \"#utility.yul\":1231:1247   */\n      swap1\n      pop\n        /* \"#utility.yul\":1176:1253   */\n      swap2\n      swap1\n      pop\n      jump\t// out\n        /* \"#utility.yul\":1259:1377   */\n    tag_70:\n        /* \"#utility.yul\":1346:1370   */\n      tag_100\n        /* \"#utility.yul\":1364:1369   */\n      dup2\n        /* \"#utility.yul\":1346:1370   */\n      tag_69\n      jump\t// in\n    tag_100:\n        /* \"#utility.yul\":1341:1344   */\n      dup3\n        /* \"#utility.yul\":1334:1371   */\n      mstore\n        /* \"#utility.yul\":1259:1377   */\n      pop\n      pop\n      jump\t// out\n        /* \"#utility.yul\":1383:1605   */\n    tag_14:\n        /* \"#utility.yul\":1476:1480   */\n      0x00\n        /* \"#utility.yul\":1514:1516   */\n      0x20\n        /* \"#utility.yul\":1503:1512   */\n      dup3\n        /* \"#utility.yul\":1499:1517   */\n      add\n        /* \"#utility.yul\":1491:1517   */\n      swap1\n      pop\n        /* \"#utility.yul\":1527:1598   */\n      tag_102\n        /* \"#utility.yul\":1595:1596   */\n      0x00\n        /* \"#utility.yul\":1584:1593   */\n      dup4\n        /* \"#utility.yul\":1580:1597   */\n      add\n        /* \"#utility.yul\":1571:1577   */\n      dup5\n        /* \"#utility.yul\":1527:1598   */\n      tag_70\n      jump\t// in\n    tag_102:\n        /* \"#utility.yul\":1383:1605   */\n      swap3\n      swap2\n      pop\n      pop\n      jump\t// out\n        /* \"#utility.yul\":1611:1733   */\n    tag_71:\n        /* \"#utility.yul\":1684:1708   */\n      tag_104\n        /* \"#utility.yul\":1702:1707   */\n      dup2\n        /* \"#utility.yul\":1684:1708   */\n      tag_69\n      jump\t// in\n    tag_104:\n        /* \"#utility.yul\":1677:1682   */\n      dup2\n        /* \"#utility.yul\":1674:1709   */\n      eq\n        /* \"#utility.yul\":1664:1727   */\n      tag_105\n      jumpi\n        /* \"#utility.yul\":1723:1724   */\n      0x00\n        /* \"#utility.yul\":1720:1721   */\n      0x00\n        /* \"#utility.yul\":1713:1725   */\n      revert\n        /* \"#utility.yul\":1664:1727   */\n    tag_105:\n        /* \"#utility.yul\":1611:1733   */\n      pop\n      jump\t// out\n        /* \"#utility.yul\":1739:1878   */\n    tag_72:\n        /* \"#utility.yul\":1785:1790   */\n      0x00\n        /* \"#utility.yul\":1823:1829   */\n      dup2\n        /* \"#utility.yul\":1810:1830   */\n      calldataload\n        /* \"#utility.yul\":1801:1830   */\n      swap1\n      pop\n        /* \"#utility.yul\":1839:1872   */\n      tag_107\n        /* \"#utility.yul\":1866:1871   */\n      dup2\n        /* \"#utility.yul\":1839:1872   */\n      tag_71\n      jump\t// in\n    tag_107:\n        /* \"#utility.yul\":1739:1878   */\n      swap3\n      swap2\n      pop\n      pop\n      jump\t// out\n        /* \"#utility.yul\":1884:2213   */\n    tag_17:\n        /* \"#utility.yul\":1943:1949   */\n      0x00\n        /* \"#utility.yul\":1992:1994   */\n      0x20\n        /* \"#utility.yul\":1980:1989   */\n      dup3\n        /* \"#utility.yul\":1971:1978   */\n      dup5\n        /* \"#utility.yul\":1967:1990   */\n      sub\n        /* \"#utility.yul\":1963:1995   */\n      slt\n        /* \"#utility.yul\":1960:2079   */\n      iszero\n      tag_109\n      jumpi\n        /* \"#utility.yul\":1998:2077   */\n      tag_110\n      tag_63\n      jump\t// in\n    tag_110:\n        /* \"#utility.yul\":1960:2079   */\n    tag_109:\n        /* \"#utility.yul\":2118:2119   */\n      0x00\n        /* \"#utility.yul\":2143:2196   */\n      tag_111\n        /* \"#utility.yul\":2188:2195   */\n      dup5\n        /* \"#utility.yul\":2179:2185   */\n      dup3\n        /* \"#utility.yul\":2168:2177   */\n      dup6\n        /* \"#utility.yul\":2164:2186   */\n      add\n        /* \"#utility.yul\":2143:2196   */\n      tag_72\n      jump\t// in\n    tag_111:\n        /* \"#utility.yul\":2133:2196   */\n      swap2\n      pop\n        /* \"#utility.yul\":2089:2206   */\n      pop\n        /* \"#utility.yul\":1884:2213   */\n      swap3\n      swap2\n      pop\n      pop\n      jump\t// out\n        /* \"#utility.yul\":2219:2318   */\n    tag_73:\n        /* \"#utility.yul\":2271:2277   */\n      0x00\n        /* \"#utility.yul\":2305:2310   */\n      dup2\n        /* \"#utility.yul\":2299:2311   */\n      mload\n        /* \"#utility.yul\":2289:2311   */\n      swap1\n      pop\n        /* \"#utility.yul\":2219:2318   */\n      swap2\n      swap1\n      pop\n      jump\t// out\n        /* \"#utility.yul\":2324:2493   */\n    tag_74:\n        /* \"#utility.yul\":2408:2419   */\n      0x00\n        /* \"#utility.yul\":2442:2448   */\n      dup3\n        /* \"#utility.yul\":2437:2440   */\n      dup3\n        /* \"#utility.yul\":2430:2449   */\n      mstore\n        /* \"#utility.yul\":2482:2486   */\n      0x20\n        /* \"#utility.yul\":2477:2480   */\n      dup3\n        /* \"#utility.yul\":2473:2487   */\n      add\n        /* \"#utility.yul\":2458:2487   */\n      swap1\n      pop\n        /* \"#utility.yul\":2324:2493   */\n      swap3\n      swap2\n      pop\n      pop\n      jump\t// out\n        /* \"#utility.yul\":2499:2638   */\n    tag_75:\n        /* \"#utility.yul\":2588:2594   */\n      dup3\n        /* \"#utility.yul\":2583:2586   */\n      dup2\n        /* \"#utility.yul\":2578:2581   */\n      dup4\n        /* \"#utility.yul\":2572:2595   */\n      mcopy\n        /* \"#utility.yul\":2629:2630   */\n      0x00\n        /* \"#utility.yul\":2620:2626   */\n      dup4\n        /* \"#utility.yul\":2615:2618   */\n      dup4\n        /* \"#utility.yul\":2611:2627   */\n      add\n        /* \"#utility.yul\":2604:2631   */\n      mstore\n        /* \"#utility.yul\":2499:2638   */\n      pop\n      pop\n      pop\n      jump\t// out\n        /* \"#utility.yul\":2644:2746   */\n    tag_76:\n        /* \"#utility.yul\":2685:2691   */\n      0x00\n        /* \"#utility.yul\":2736:2738   */\n      0x1f\n        /* \"#utility.yul\":2732:2739   */\n      not\n        /* \"#utility.yul\":2727:2729   */\n      0x1f\n        /* \"#utility.yul\":2720:2725   */\n      dup4\n        /* \"#utility.yul\":2716:2730   */\n      add\n        /* \"#utility.yul\":2712:2740   */\n      and\n        /* \"#utility.yul\":2702:2740   */\n      swap1\n      pop\n        /* \"#utility.yul\":2644:2746   */\n      swap2\n      swap1\n      pop\n      jump\t// out\n        /* \"#utility.yul\":2752:3129   */\n    tag_77:\n        /* \"#utility.yul\":2840:2843   */\n      0x00\n        /* \"#utility.yul\":2868:2907   */\n      tag_117\n        /* \"#utility.yul\":2901:2906   */\n      dup3\n        /* \"#utility.yul\":2868:2907   */\n      tag_73\n      jump\t// in\n    tag_117:\n        /* \"#utility.yul\":2923:2994   */\n      tag_118\n        /* \"#utility.yul\":2987:2993   */\n      dup2\n        /* \"#utility.yul\":2982:2985   */\n      dup6\n        /* \"#utility.yul\":2923:2994   */\n      tag_74\n      jump\t// in\n    tag_118:\n        /* \"#utility.yul\":2916:2994   */\n      swap4\n      pop\n        /* \"#utility.yul\":3003:3068   */\n      tag_119\n        /* \"#utility.yul\":3061:3067   */\n      dup2\n        /* \"#utility.yul\":3056:3059   */\n      dup6\n        /* \"#utility.yul\":3049:3053   */\n      0x20\n        /* \"#utility.yul\":3042:3047   */\n      dup7\n        /* \"#utility.yul\":3038:3054   */\n      add\n        /* \"#utility.yul\":3003:3068   */\n      tag_75\n      jump\t// in\n    tag_119:\n        /* \"#utility.yul\":3093:3122   */\n      tag_120\n        /* \"#utility.yul\":3115:3121   */\n      dup2\n        /* \"#utility.yul\":3093:3122   */\n      tag_76\n      jump\t// in\n    tag_120:\n        /* \"#utility.yul\":3088:3091   */\n      dup5\n        /* \"#utility.yul\":3084:3123   */\n      add\n        /* \"#utility.yul\":3077:3123   */\n      swap2\n      pop\n        /* \"#utility.yul\":2844:3129   */\n      pop\n        /* \"#utility.yul\":2752:3129   */\n      swap3\n      swap2\n      pop\n      pop\n      jump\t// out\n        /* \"#utility.yul\":3135:3448   */\n    tag_29:\n        /* \"#utility.yul\":3248:3252   */\n      0x00\n        /* \"#utility.yul\":3286:3288   */\n      0x20\n        /* \"#utility.yul\":3275:3284   */\n      dup3\n        /* \"#utility.yul\":3271:3289   */\n      add\n        /* \"#utility.yul\":3263:3289   */\n      swap1\n      pop\n        /* \"#utility.yul\":3335:3344   */\n      dup2\n        /* \"#utility.yul\":3329:3333   */\n      dup2\n        /* \"#utility.yul\":3325:3345   */\n      sub\n        /* \"#utility.yul\":3321:3322   */\n      0x00\n        /* \"#utility.yul\":3310:3319   */\n      dup4\n        /* \"#utility.yul\":3306:3323   */\n      add\n        /* \"#utility.yul\":3299:3346   */\n      mstore\n        /* \"#utility.yul\":3363:3441   */\n      tag_122\n        /* \"#utility.yul\":3436:3440   */\n      dup2\n        /* \"#utility.yul\":3427:3433   */\n      dup5\n        /* \"#utility.yul\":3363:3441   */\n      tag_77\n      jump\t// in\n    tag_122:\n        /* \"#utility.yul\":3355:3441   */\n      swap1\n      pop\n        /* \"#utility.yul\":3135:3448   */\n      swap3\n      swap2\n      pop\n      pop\n      jump\t// out\n        /* \"#utility.yul\":3454:3786   */\n    tag_37:\n        /* \"#utility.yul\":3575:3579   */\n      0x00\n        /* \"#utility.yul\":3613:3615   */\n      0x40\n        /* \"#utility.yul\":3602:3611   */\n      dup3\n        /* \"#utility.yul\":3598:3616   */\n      add\n        /* \"#utility.yul\":3590:3616   */\n      swap1\n      pop\n        /* \"#utility.yul\":3626:3697   */\n      tag_124\n        /* \"#utility.yul\":3694:3695   */\n      0x00\n        /* \"#utility.yul\":3683:3692   */\n      dup4\n        /* \"#utility.yul\":3679:3696   */\n      add\n        /* \"#utility.yul\":3670:3676   */\n      dup6\n        /* \"#utility.yul\":3626:3697   */\n      tag_70\n      jump\t// in\n    tag_124:\n        /* \"#utility.yul\":3707:3779   */\n      tag_125\n        /* \"#utility.yul\":3775:3777   */\n      0x20\n        /* \"#utility.yul\":3764:3773   */\n      dup4\n        /* \"#utility.yul\":3760:3778   */\n      add\n        /* \"#utility.yul\":3751:3757   */\n      dup5\n        /* \"#utility.yul\":3707:3779   */\n      tag_70\n      jump\t// in\n    tag_125:\n        /* \"#utility.yul\":3454:3786   */\n      swap4\n      swap3\n      pop\n      pop\n      pop\n      jump\t// out\n        /* \"#utility.yul\":3792:3972   */\n    tag_78:\n        /* \"#utility.yul\":3840:3917   */\n      0x4e487b7100000000000000000000000000000000000000000000000000000000\n        /* \"#utility.yul\":3837:3838   */\n      0x00\n        /* \"#utility.yul\":3830:3918   */\n      mstore\n        /* \"#utility.yul\":3937:3941   */\n      0x11\n        /* \"#utility.yul\":3934:3935   */\n      0x04\n        /* \"#utility.yul\":3927:3942   */\n      mstore\n        /* \"#utility.yul\":3961:3965   */\n      0x24\n        /* \"#utility.yul\":3958:3959   */\n      0x00\n        /* \"#utility.yul\":3951:3966   */\n      revert\n        /* \"#utility.yul\":3978:4172   */\n    tag_39:\n        /* \"#utility.yul\":4018:4022   */\n      0x00\n        /* \"#utility.yul\":4038:4058   */\n      tag_128\n        /* \"#utility.yul\":4056:4057   */\n      dup3\n        /* \"#utility.yul\":4038:4058   */\n      tag_69\n      jump\t// in\n    tag_128:\n        /* \"#utility.yul\":4033:4058   */\n      swap2\n      pop\n        /* \"#utility.yul\":4072:4092   */\n      tag_129\n        /* \"#utility.yul\":4090:4091   */\n      dup4\n        /* \"#utility.yul\":4072:4092   */\n      tag_69\n      jump\t// in\n    tag_129:\n        /* \"#utility.yul\":4067:4092   */\n      swap3\n      pop\n        /* \"#utility.yul\":4116:4117   */\n      dup3\n        /* \"#utility.yul\":4113:4114   */\n      dup3\n        /* \"#utility.yul\":4109:4118   */\n      sub\n        /* \"#utility.yul\":4101:4118   */\n      swap1\n      pop\n        /* \"#utility.yul\":4140:4141   */\n      dup2\n        /* \"#utility.yul\":4134:4138   */\n      dup2\n        /* \"#utility.yul\":4131:4142   */\n      gt\n        /* \"#utility.yul\":4128:4165   */\n      iszero\n      tag_130\n      jumpi\n        /* \"#utility.yul\":4145:4163   */\n      tag_131\n      tag_78\n      jump\t// in\n    tag_131:\n        /* \"#utility.yul\":4128:4165   */\n    tag_130:\n        /* \"#utility.yul\":3978:4172   */\n      swap3\n      swap2\n      pop\n      pop\n      jump\t// out\n        /* \"#utility.yul\":4178:4369   */\n    tag_45:\n        /* \"#utility.yul\":4218:4221   */\n      0x00\n        /* \"#utility.yul\":4237:4257   */\n      tag_133\n        /* \"#utility.yul\":4255:4256   */\n      dup3\n        /* \"#utility.yul\":4237:4257   */\n      tag_69\n      jump\t// in\n    tag_133:\n        /* \"#utility.yul\":4232:4257   */\n      swap2\n      pop\n        /* \"#utility.yul\":4271:4291   */\n      tag_134\n        /* \"#utility.yul\":4289:4290   */\n      dup4\n        /* \"#utility.yul\":4271:4291   */\n      tag_69\n      jump\t// in\n    tag_134:\n        /* \"#utility.yul\":4266:4291   */\n      swap3\n      pop\n        /* \"#utility.yul\":4314:4315   */\n      dup3\n        /* \"#utility.yul\":4311:4312   */\n      dup3\n        /* \"#utility.yul\":4307:4316   */\n      add\n        /* \"#utility.yul\":4300:4316   */\n      swap1\n      pop\n        /* \"#utility.yul\":4335:4338   */\n      dup1\n        /* \"#utility.yul\":4332:4333   */\n      dup3\n        /* \"#utility.yul\":4329:4339   */\n      gt\n        /* \"#utility.yul\":4326:4362   */\n      iszero\n      tag_135\n      jumpi\n        /* \"#utility.yul\":4342:4360   */\n      tag_136\n      tag_78\n      jump\t// in\n    tag_136:\n        /* \"#utility.yul\":4326:4362   */\n    tag_135:\n        /* \"#utility.yul\":4178:4369   */\n      swap3\n      swap2\n      pop\n      pop\n      jump\t// out\n        /* \"#utility.yul\":4375:4555   */\n    tag_79:\n        /* \"#utility.yul\":4423:4500   */\n      0x4e487b7100000000000000000000000000000000000000000000000000000000\n        /* \"#utility.yul\":4420:4421   */\n      0x00\n        /* \"#utility.yul\":4413:4501   */\n      mstore\n        /* \"#utility.yul\":4520:4524   */\n      0x12\n        /* \"#utility.yul\":4517:4518   */\n      0x04\n        /* \"#utility.yul\":4510:4525   */\n      mstore\n        /* \"#utility.yul\":4544:4548   */\n      0x24\n        /* \"#utility.yul\":4541:4542   */\n      0x00\n        /* \"#utility.yul\":4534:4549   */\n      revert\n        /* \"#utility.yul\":4561:4737   */\n    tag_52:\n        /* \"#utility.yul\":4593:4594   */\n      0x00\n        /* \"#utility.yul\":4610:4630   */\n      tag_139\n        /* \"#utility.yul\":4628:4629   */\n      dup3\n        /* \"#utility.yul\":4610:4630   */\n      tag_69\n      jump\t// in\n    tag_139:\n        /* \"#utility.yul\":4605:4630   */\n      swap2\n      pop\n        /* \"#utility.yul\":4644:4664   */\n      tag_140\n        /* \"#utility.yul\":4662:4663   */\n      dup4\n        /* \"#utility.yul\":4644:4664   */\n      tag_69\n      jump\t// in\n    tag_140:\n        /* \"#utility.yul\":4639:4664   */\n      swap3\n      pop\n        /* \"#utility.yul\":4683:4684   */\n      dup3\n        /* \"#utility.yul\":4673:4708   */\n      tag_141\n      jumpi\n        /* \"#utility.yul\":4688:4706   */\n      tag_142\n      tag_79\n      jump\t// in\n    tag_142:\n        /* \"#utility.yul\":4673:4708   */\n    tag_141:\n        /* \"#utility.yul\":4729:4730   */\n      dup3\n        /* \"#utility.yul\":4726:4727   */\n      dup3\n        /* \"#utility.yul\":4722:4731   */\n      mod\n        /* \"#utility.yul\":4717:4731   */\n      swap1\n      pop\n        /* \"#utility.yul\":4561:4737   */\n      swap3\n      swap2\n      pop\n      pop\n      jump\t// out\n        /* \"#utility.yul\":4743:4912   */\n    tag_80:\n        /* \"#utility.yul\":4883:4904   */\n      0x4f6464206e756d6265722072656a656374656400000000000000000000000000\n        /* \"#utility.yul\":4879:4880   */\n      0x00\n        /* \"#utility.yul\":4871:4877   */\n      dup3\n        /* \"#utility.yul\":4867:4881   */\n      add\n        /* \"#utility.yul\":4860:4905   */\n      mstore\n        /* \"#utility.yul\":4743:4912   */\n      pop\n      jump\t// out\n        /* \"#utility.yul\":4918:5284   */\n    tag_81:\n        /* \"#utility.yul\":5060:5063   */\n      0x00\n        /* \"#utility.yul\":5081:5148   */\n      tag_145\n        /* \"#utility.yul\":5145:5147   */\n      0x13\n        /* \"#utility.yul\":5140:5143   */\n      dup4\n        /* \"#utility.yul\":5081:5148   */\n      tag_74\n      jump\t// in\n    tag_145:\n        /* \"#utility.yul\":5074:5148   */\n      swap2\n      pop\n        /* \"#utility.yul\":5157:5250   */\n      tag_146\n        /* \"#utility.yul\":5246:5249   */\n      dup3\n        /* \"#utility.yul\":5157:5250   */\n      tag_80\n      jump\t// in\n    tag_146:\n        /* \"#utility.yul\":5275:5277   */\n      0x20\n        /* \"#utility.yul\":5270:5273   */\n      dup3\n        /* \"#utility.yul\":5266:5278   */\n      add\n        /* \"#utility.yul\":5259:5278   */\n      swap1\n      pop\n        /* \"#utility.yul\":4918:5284   */\n      swap2\n      swap1\n      pop\n      jump\t// out\n        /* \"#utility.yul\":5290:5709   */\n    tag_55:\n        /* \"#utility.yul\":5456:5460   */\n      0x00\n        /* \"#utility.yul\":5494:5496   */\n      0x20\n        /* \"#utility.yul\":5483:5492   */\n      dup3\n        /* \"#utility.yul\":5479:5497   */\n      add\n        /* \"#utility.yul\":5471:5497   */\n      swap1\n      pop\n        /* \"#utility.yul\":5543:5552   */\n      dup2\n        /* \"#utility.yul\":5537:5541   */\n      dup2\n        /* \"#utility.yul\":5533:5553   */\n      sub\n        /* \"#utility.yul\":5529:5530   */\n      0x00\n        /* \"#utility.yul\":5518:5527   */\n      dup4\n        /* \"#utility.yul\":5514:5531   */\n      add\n        /* \"#utility.yul\":5507:5554   */\n      mstore\n        /* \"#utility.yul\":5571:5702   */\n      tag_148\n        /* \"#utility.yul\":5697:5701   */\n      dup2\n        /* \"#utility.yul\":5571:5702   */\n      tag_81\n      jump\t// in\n    tag_148:\n        /* \"#utility.yul\":5563:5702   */\n      swap1\n      pop\n        /* \"#utility.yul\":5290:5709   */\n      swap2\n      swap1\n      pop\n      jump\t// out\n\n    auxdata: 0xa26469706673582212206d674079b1231df7f3a20930ebd3a48a2acf2c031a1f9772cad49f728c9246d064736f6c63430008220033\n}\n",
				"bytecode": {
					"linkReferences": {},
					"object": "6080604052348015600e575f5ffd5b506108018061001c5f395ff3fe608060405234801561000f575f5ffd5b5060043610610060575f3560e01c806327e235e3146100645780632e1a7d4d1461009457806397feba9d146100b0578063a05beee8146100ce578063bfc169e7146100ea578063ce0b42131461011a575b5f5ffd5b61007e6004803603810190610079919061050b565b61014a565b60405161008b919061054e565b60405180910390f35b6100ae60048036038101906100a99190610591565b61015f565b005b6100b8610257565b6040516100c5919061054e565b60405180910390f35b6100e860048036038101906100e39190610591565b61025c565b005b61010460048036038101906100ff9190610591565b610317565b604051610111919061062c565b60405180910390f35b610134600480360381019061012f9190610591565b6103a4565b604051610141919061062c565b60405180910390f35b6001602052805f5260405f205f915090505481565b5f60015f3373ffffffffffffffffffffffffffffffffffffffff1673ffffffffffffffffffffffffffffffffffffffff1681526020019081526020015f20549050818110156101e75781816040517fcf4791810000000000000000000000000000000000000000000000000000000081526004016101de92919061064c565b60405180910390fd5b81816101f391906106a0565b60015f3373ffffffffffffffffffffffffffffffffffffffff1673ffffffffffffffffffffffffffffffffffffffff1681526020019081526020015f2081905550815f5f82825461024491906106a0565b92505081905550610253610433565b5050565b5f5481565b8060015f3373ffffffffffffffffffffffffffffffffffffffff1673ffffffffffffffffffffffffffffffffffffffff1681526020019081526020015f205f8282546102a891906106d3565b92505081905550805f5f8282546102bf91906106d3565b92505081905550600a81111561030c57806040517f5724f902000000000000000000000000000000000000000000000000000000008152600401610303919061054e565b60405180910390fd5b610314610433565b50565b60605f6002836103279190610733565b14610367576040517f08c379a000000000000000000000000000000000000000000000000000000000815260040161035e906107ad565b60405180910390fd5b6040518060400160405280601481526020017f4576656e206e756d6265722061636365707465640000000000000000000000008152509050919050565b60605f6002836103b49190610733565b146103f657816040517ffe2424b90000000000000000000000000000000000000000000000000000000081526004016103ed919061054e565b60405180910390fd5b6040518060400160405280601481526020017f4576656e206e756d6265722061636365707465640000000000000000000000008152509050919050565b5f5460015f3373ffffffffffffffffffffffffffffffffffffffff1673ffffffffffffffffffffffffffffffffffffffff1681526020019081526020015f205411156104ab576040517f6fb71c5900000000000000000000000000000000000000000000000000000000815260040160405180910390fd5b565b5f5ffd5b5f73ffffffffffffffffffffffffffffffffffffffff82169050919050565b5f6104da826104b1565b9050919050565b6104ea816104d0565b81146104f4575f5ffd5b50565b5f81359050610505816104e1565b92915050565b5f602082840312156105205761051f6104ad565b5b5f61052d848285016104f7565b91505092915050565b5f819050919050565b61054881610536565b82525050565b5f6020820190506105615f83018461053f565b92915050565b61057081610536565b811461057a575f5ffd5b50565b5f8135905061058b81610567565b92915050565b5f602082840312156105a6576105a56104ad565b5b5f6105b38482850161057d565b91505092915050565b5f81519050919050565b5f82825260208201905092915050565b8281835e5f83830152505050565b5f601f19601f8301169050919050565b5f6105fe826105bc565b61060881856105c6565b93506106188185602086016105d6565b610621816105e4565b840191505092915050565b5f6020820190508181035f83015261064481846105f4565b905092915050565b5f60408201905061065f5f83018561053f565b61066c602083018461053f565b9392505050565b7f4e487b71000000000000000000000000000000000000000000000000000000005f52601160045260245ffd5b5f6106aa82610536565b91506106b583610536565b92508282039050818111156106cd576106cc610673565b5b92915050565b5f6106dd82610536565b91506106e883610536565b9250828201905080821115610700576106ff610673565b5b92915050565b7f4e487b71000000000000000000000000000000000000000000000000000000005f52601260045260245ffd5b5f61073d82610536565b915061074883610536565b92508261075857610757610706565b5b828206905092915050565b7f4f6464206e756d6265722072656a6563746564000000000000000000000000005f82015250565b5f6107976013836105c6565b91506107a282610763565b602082019050919050565b5f6020820190508181035f8301526107c48161078b565b905091905056fea26469706673582212206d674079b1231df7f3a20930ebd3a48a2acf2c031a1f9772cad49f728c9246d064736f6c63430008220033",
					"opcodes": "PUSH1 0x80 PUSH1 0x40 MSTORE CALLVALUE DUP1 ISZERO PUSH1 0xE JUMPI PUSH0 PUSH0 REVERT JUMPDEST POP PUSH2 0x801 DUP1 PUSH2 0x1C PUSH0 CODECOPY PUSH0 RETURN INVALID PUSH1 0x80 PUSH1 0x40 MSTORE CALLVALUE DUP1 ISZERO PUSH2 0xF JUMPI PUSH0 PUSH0 REVERT JUMPDEST POP PUSH1 0x4 CALLDATASIZE LT PUSH2 0x60 JUMPI PUSH0 CALLDATALOAD PUSH1 0xE0 SHR DUP1 PUSH4 0x27E235E3 EQ PUSH2 0x64 JUMPI DUP1 PUSH4 0x2E1A7D4D EQ PUSH2 0x94 JUMPI DUP1 PUSH4 0x97FEBA9D EQ PUSH2 0xB0 JUMPI DUP1 PUSH4 0xA05BEEE8 EQ PUSH2 0xCE JUMPI DUP1 PUSH4 0xBFC169E7 EQ PUSH2 0xEA JUMPI DUP1 PUSH4 0xCE0B4213 EQ PUSH2 0x11A JUMPI JUMPDEST PUSH0 PUSH0 REVERT JUMPDEST PUSH2 0x7E PUSH1 0x4 DUP1 CALLDATASIZE SUB DUP2 ADD SWAP1 PUSH2 0x79 SWAP2 SWAP1 PUSH2 0x50B JUMP JUMPDEST PUSH2 0x14A JUMP JUMPDEST PUSH1 0x40 MLOAD PUSH2 0x8B SWAP2 SWAP1 PUSH2 0x54E JUMP JUMPDEST PUSH1 0x40 MLOAD DUP1 SWAP2 SUB SWAP1 RETURN JUMPDEST PUSH2 0xAE PUSH1 0x4 DUP1 CALLDATASIZE SUB DUP2 ADD SWAP1 PUSH2 0xA9 SWAP2 SWAP1 PUSH2 0x591 JUMP JUMPDEST PUSH2 0x15F JUMP JUMPDEST STOP JUMPDEST PUSH2 0xB8 PUSH2 0x257 JUMP JUMPDEST PUSH1 0x40 MLOAD PUSH2 0xC5 SWAP2 SWAP1 PUSH2 0x54E JUMP JUMPDEST PUSH1 0x40 MLOAD DUP1 SWAP2 SUB SWAP1 RETURN JUMPDEST PUSH2 0xE8 PUSH1 0x4 DUP1 CALLDATASIZE SUB DUP2 ADD SWAP1 PUSH2 0xE3 SWAP2 SWAP1 PUSH2 0x591 JUMP JUMPDEST PUSH2 0x25C JUMP JUMPDEST STOP JUMPDEST PUSH2 0x104 PUSH1 0x4 DUP1 CALLDATASIZE SUB DUP2 ADD SWAP1 PUSH2 0xFF SWAP2 SWAP1 PUSH2 0x591 JUMP JUMPDEST PUSH2 0x317 JUMP JUMPDEST PUSH1 0x40 MLOAD PUSH2 0x111 SWAP2 SWAP1 PUSH2 0x62C JUMP JUMPDEST PUSH1 0x40 MLOAD DUP1 SWAP2 SUB SWAP1 RETURN JUMPDEST PUSH2 0x134 PUSH1 0x4 DUP1 CALLDATASIZE SUB DUP2 ADD SWAP1 PUSH2 0x12F SWAP2 SWAP1 PUSH2 0x591 JUMP JUMPDEST PUSH2 0x3A4 JUMP JUMPDEST PUSH1 0x40 MLOAD PUSH2 0x141 SWAP2 SWAP1 PUSH2 0x62C JUMP JUMPDEST PUSH1 0x40 MLOAD DUP1 SWAP2 SUB SWAP1 RETURN JUMPDEST PUSH1 0x1 PUSH1 0x20 MSTORE DUP1 PUSH0 MSTORE PUSH1 0x40 PUSH0 KECCAK256 PUSH0 SWAP2 POP SWAP1 POP SLOAD DUP2 JUMP JUMPDEST PUSH0 PUSH1 0x1 PUSH0 CALLER PUSH20 0xFFFFFFFFFFFFFFFFFFFFFFFFFFFFFFFFFFFFFFFF AND PUSH20 0xFFFFFFFFFFFFFFFFFFFFFFFFFFFFFFFFFFFFFFFF AND DUP2 MSTORE PUSH1 0x20 ADD SWAP1 DUP2 MSTORE PUSH1 0x20 ADD PUSH0 KECCAK256 SLOAD SWAP1 POP DUP2 DUP2 LT ISZERO PUSH2 0x1E7 JUMPI DUP2 DUP2 PUSH1 0x40 MLOAD PUSH32 0xCF47918100000000000000000000000000000000000000000000000000000000 DUP2 MSTORE PUSH1 0x4 ADD PUSH2 0x1DE SWAP3 SWAP2 SWAP1 PUSH2 0x64C JUMP JUMPDEST PUSH1 0x40 MLOAD DUP1 SWAP2 SUB SWAP1 REVERT JUMPDEST DUP2 DUP2 PUSH2 0x1F3 SWAP2 SWAP1 PUSH2 0x6A0 JUMP JUMPDEST PUSH1 0x1 PUSH0 CALLER PUSH20 0xFFFFFFFFFFFFFFFFFFFFFFFFFFFFFFFFFFFFFFFF AND PUSH20 0xFFFFFFFFFFFFFFFFFFFFFFFFFFFFFFFFFFFFFFFF AND DUP2 MSTORE PUSH1 0x20 ADD SWAP1 DUP2 MSTORE PUSH1 0x20 ADD PUSH0 KECCAK256 DUP2 SWAP1 SSTORE POP DUP2 PUSH0 PUSH0 DUP3 DUP3 SLOAD PUSH2 0x244 SWAP2 SWAP1 PUSH2 0x6A0 JUMP JUMPDEST SWAP3 POP POP DUP2 SWAP1 SSTORE POP PUSH2 0x253 PUSH2 0x433 JUMP JUMPDEST POP POP JUMP JUMPDEST PUSH0 SLOAD DUP2 JUMP JUMPDEST DUP1 PUSH1 0x1 PUSH0 CALLER PUSH20 0xFFFFFFFFFFFFFFFFFFFFFFFFFFFFFFFFFFFFFFFF AND PUSH20 0xFFFFFFFFFFFFFFFFFFFFFFFFFFFFFFFFFFFFFFFF AND DUP2 MSTORE PUSH1 0x20 ADD SWAP1 DUP2 MSTORE PUSH1 0x20 ADD PUSH0 KECCAK256 PUSH0 DUP3 DUP3 SLOAD PUSH2 0x2A8 SWAP2 SWAP1 PUSH2 0x6D3 JUMP JUMPDEST SWAP3 POP POP DUP2 SWAP1 SSTORE POP DUP1 PUSH0 PUSH0 DUP3 DUP3 SLOAD PUSH2 0x2BF SWAP2 SWAP1 PUSH2 0x6D3 JUMP JUMPDEST SWAP3 POP POP DUP2 SWAP1 SSTORE POP PUSH1 0xA DUP2 GT ISZERO PUSH2 0x30C JUMPI DUP1 PUSH1 0x40 MLOAD PUSH32 0x5724F90200000000000000000000000000000000000000000000000000000000 DUP2 MSTORE PUSH1 0x4 ADD PUSH2 0x303 SWAP2 SWAP1 PUSH2 0x54E JUMP JUMPDEST PUSH1 0x40 MLOAD DUP1 SWAP2 SUB SWAP1 REVERT JUMPDEST PUSH2 0x314 PUSH2 0x433 JUMP JUMPDEST POP JUMP JUMPDEST PUSH1 0x60 PUSH0 PUSH1 0x2 DUP4 PUSH2 0x327 SWAP2 SWAP1 PUSH2 0x733 JUMP JUMPDEST EQ PUSH2 0x367 JUMPI PUSH1 0x40 MLOAD PUSH32 0x8C379A000000000000000000000000000000000000000000000000000000000 DUP2 MSTORE PUSH1 0x4 ADD PUSH2 0x35E SWAP1 PUSH2 0x7AD JUMP JUMPDEST PUSH1 0x40 MLOAD DUP1 SWAP2 SUB SWAP1 REVERT JUMPDEST PUSH1 0x40 MLOAD DUP1 PUSH1 0x40 ADD PUSH1 0x40 MSTORE DUP1 PUSH1 0x14 DUP2 MSTORE PUSH1 0x20 ADD PUSH32 0x4576656E206E756D626572206163636570746564000000000000000000000000 DUP2 MSTORE POP SWAP1 POP SWAP2 SWAP1 POP JUMP JUMPDEST PUSH1 0x60 PUSH0 PUSH1 0x2 DUP4 PUSH2 0x3B4 SWAP2 SWAP1 PUSH2 0x733 JUMP JUMPDEST EQ PUSH2 0x3F6 JUMPI DUP2 PUSH1 0x40 MLOAD PUSH32 0xFE2424B900000000000000000000000000000000000000000000000000000000 DUP2 MSTORE PUSH1 0x4 ADD PUSH2 0x3ED SWAP2 SWAP1 PUSH2 0x54E JUMP JUMPDEST PUSH1 0x40 MLOAD DUP1 SWAP2 SUB SWAP1 REVERT JUMPDEST PUSH1 0x40 MLOAD DUP1 PUSH1 0x40 ADD PUSH1 0x40 MSTORE DUP1 PUSH1 0x14 DUP2 MSTORE PUSH1 0x20 ADD PUSH32 0x4576656E206E756D626572206163636570746564000000000000000000000000 DUP2 MSTORE POP SWAP1 POP SWAP2 SWAP1 POP JUMP JUMPDEST PUSH0 SLOAD PUSH1 0x1 PUSH0 CALLER PUSH20 0xFFFFFFFFFFFFFFFFFFFFFFFFFFFFFFFFFFFFFFFF AND PUSH20 0xFFFFFFFFFFFFFFFFFFFFFFFFFFFFFFFFFFFFFFFF AND DUP2 MSTORE PUSH1 0x20 ADD SWAP1 DUP2 MSTORE PUSH1 0x20 ADD PUSH0 KECCAK256 SLOAD GT ISZERO PUSH2 0x4AB JUMPI PUSH1 0x40 MLOAD PUSH32 0x6FB71C5900000000000000000000000000000000000000000000000000000000 DUP2 MSTORE PUSH1 0x4 ADD PUSH1 0x40 MLOAD DUP1 SWAP2 SUB SWAP1 REVERT JUMPDEST JUMP JUMPDEST PUSH0 PUSH0 REVERT JUMPDEST PUSH0 PUSH20 0xFFFFFFFFFFFFFFFFFFFFFFFFFFFFFFFFFFFFFFFF DUP3 AND SWAP1 POP SWAP2 SWAP1 POP JUMP JUMPDEST PUSH0 PUSH2 0x4DA DUP3 PUSH2 0x4B1 JUMP JUMPDEST SWAP1 POP SWAP2 SWAP1 POP JUMP JUMPDEST PUSH2 0x4EA DUP2 PUSH2 0x4D0 JUMP JUMPDEST DUP2 EQ PUSH2 0x4F4 JUMPI PUSH0 PUSH0 REVERT JUMPDEST POP JUMP JUMPDEST PUSH0 DUP2 CALLDATALOAD SWAP1 POP PUSH2 0x505 DUP2 PUSH2 0x4E1 JUMP JUMPDEST SWAP3 SWAP2 POP POP JUMP JUMPDEST PUSH0 PUSH1 0x20 DUP3 DUP5 SUB SLT ISZERO PUSH2 0x520 JUMPI PUSH2 0x51F PUSH2 0x4AD JUMP JUMPDEST JUMPDEST PUSH0 PUSH2 0x52D DUP5 DUP3 DUP6 ADD PUSH2 0x4F7 JUMP JUMPDEST SWAP2 POP POP SWAP3 SWAP2 POP POP JUMP JUMPDEST PUSH0 DUP2 SWAP1 POP SWAP2 SWAP1 POP JUMP JUMPDEST PUSH2 0x548 DUP2 PUSH2 0x536 JUMP JUMPDEST DUP3 MSTORE POP POP JUMP JUMPDEST PUSH0 PUSH1 0x20 DUP3 ADD SWAP1 POP PUSH2 0x561 PUSH0 DUP4 ADD DUP5 PUSH2 0x53F JUMP JUMPDEST SWAP3 SWAP2 POP POP JUMP JUMPDEST PUSH2 0x570 DUP2 PUSH2 0x536 JUMP JUMPDEST DUP2 EQ PUSH2 0x57A JUMPI PUSH0 PUSH0 REVERT JUMPDEST POP JUMP JUMPDEST PUSH0 DUP2 CALLDATALOAD SWAP1 POP PUSH2 0x58B DUP2 PUSH2 0x567 JUMP JUMPDEST SWAP3 SWAP2 POP POP JUMP JUMPDEST PUSH0 PUSH1 0x20 DUP3 DUP5 SUB SLT ISZERO PUSH2 0x5A6 JUMPI PUSH2 0x5A5 PUSH2 0x4AD JUMP JUMPDEST JUMPDEST PUSH0 PUSH2 0x5B3 DUP5 DUP3 DUP6 ADD PUSH2 0x57D JUMP JUMPDEST SWAP2 POP POP SWAP3 SWAP2 POP POP JUMP JUMPDEST PUSH0 DUP2 MLOAD SWAP1 POP SWAP2 SWAP1 POP JUMP JUMPDEST PUSH0 DUP3 DUP3 MSTORE PUSH1 0x20 DUP3 ADD SWAP1 POP SWAP3 SWAP2 POP POP JUMP JUMPDEST DUP3 DUP2 DUP4 MCOPY PUSH0 DUP4 DUP4 ADD MSTORE POP POP POP JUMP JUMPDEST PUSH0 PUSH1 0x1F NOT PUSH1 0x1F DUP4 ADD AND SWAP1 POP SWAP2 SWAP1 POP JUMP JUMPDEST PUSH0 PUSH2 0x5FE DUP3 PUSH2 0x5BC JUMP JUMPDEST PUSH2 0x608 DUP2 DUP6 PUSH2 0x5C6 JUMP JUMPDEST SWAP4 POP PUSH2 0x618 DUP2 DUP6 PUSH1 0x20 DUP7 ADD PUSH2 0x5D6 JUMP JUMPDEST PUSH2 0x621 DUP2 PUSH2 0x5E4 JUMP JUMPDEST DUP5 ADD SWAP2 POP POP SWAP3 SWAP2 POP POP JUMP JUMPDEST PUSH0 PUSH1 0x20 DUP3 ADD SWAP1 POP DUP2 DUP2 SUB PUSH0 DUP4 ADD MSTORE PUSH2 0x644 DUP2 DUP5 PUSH2 0x5F4 JUMP JUMPDEST SWAP1 POP SWAP3 SWAP2 POP POP JUMP JUMPDEST PUSH0 PUSH1 0x40 DUP3 ADD SWAP1 POP PUSH2 0x65F PUSH0 DUP4 ADD DUP6 PUSH2 0x53F JUMP JUMPDEST PUSH2 0x66C PUSH1 0x20 DUP4 ADD DUP5 PUSH2 0x53F JUMP JUMPDEST SWAP4 SWAP3 POP POP POP JUMP JUMPDEST PUSH32 0x4E487B7100000000000000000000000000000000000000000000000000000000 PUSH0 MSTORE PUSH1 0x11 PUSH1 0x4 MSTORE PUSH1 0x24 PUSH0 REVERT JUMPDEST PUSH0 PUSH2 0x6AA DUP3 PUSH2 0x536 JUMP JUMPDEST SWAP2 POP PUSH2 0x6B5 DUP4 PUSH2 0x536 JUMP JUMPDEST SWAP3 POP DUP3 DUP3 SUB SWAP1 POP DUP2 DUP2 GT ISZERO PUSH2 0x6CD JUMPI PUSH2 0x6CC PUSH2 0x673 JUMP JUMPDEST JUMPDEST SWAP3 SWAP2 POP POP JUMP JUMPDEST PUSH0 PUSH2 0x6DD DUP3 PUSH2 0x536 JUMP JUMPDEST SWAP2 POP PUSH2 0x6E8 DUP4 PUSH2 0x536 JUMP JUMPDEST SWAP3 POP DUP3 DUP3 ADD SWAP1 POP DUP1 DUP3 GT ISZERO PUSH2 0x700 JUMPI PUSH2 0x6FF PUSH2 0x673 JUMP JUMPDEST JUMPDEST SWAP3 SWAP2 POP POP JUMP JUMPDEST PUSH32 0x4E487B7100000000000000000000000000000000000000000000000000000000 PUSH0 MSTORE PUSH1 0x12 PUSH1 0x4 MSTORE PUSH1 0x24 PUSH0 REVERT JUMPDEST PUSH0 PUSH2 0x73D DUP3 PUSH2 0x536 JUMP JUMPDEST SWAP2 POP PUSH2 0x748 DUP4 PUSH2 0x536 JUMP JUMPDEST SWAP3 POP DUP3 PUSH2 0x758 JUMPI PUSH2 0x757 PUSH2 0x706 JUMP JUMPDEST JUMPDEST DUP3 DUP3 MOD SWAP1 POP SWAP3 SWAP2 POP POP JUMP JUMPDEST PUSH32 0x4F6464206E756D6265722072656A656374656400000000000000000000000000 PUSH0 DUP3 ADD MSTORE POP JUMP JUMPDEST PUSH0 PUSH2 0x797 PUSH1 0x13 DUP4 PUSH2 0x5C6 JUMP JUMPDEST SWAP2 POP PUSH2 0x7A2 DUP3 PUSH2 0x763 JUMP JUMPDEST PUSH1 0x20 DUP3 ADD SWAP1 POP SWAP2 SWAP1 POP JUMP JUMPDEST PUSH0 PUSH1 0x20 DUP3 ADD SWAP1 POP DUP2 DUP2 SUB PUSH0 DUP4 ADD MSTORE PUSH2 0x7C4 DUP2 PUSH2 0x78B JUMP JUMPDEST SWAP1 POP SWAP2 SWAP1 POP JUMP INVALID LOG2 PUSH5 0x6970667358 0x22 SLT KECCAK256 PUSH14 0x674079B1231DF7F3A20930EBD3A4 DUP11 0x2A 0xCF 0x2C SUB BYTE 0x1F SWAP8 PUSH19 0xCAD49F728C9246D064736F6C63430008220033 "
				},
				"gasEstimates": {
					"creation": {
						"codeDepositCost": "409800",
						"executionCost": "447",
						"totalCost": "410247"
					},
					"external": {
						"balances(address)": "2780",
						"dangerousDeposit(uint256)": "infinite",
						"onlyEven(uint256)": "infinite",
						"onlyEvenRequire(uint256)": "infinite",
						"totalCounter()": "2446",
						"withdraw(uint256)": "infinite"
					},
					"internal": {
						"_checkInvariant()": "infinite"
					}
				},
				"methodIdentifiers": {
					"balances(address)": "27e235e3",
					"dangerousDeposit(uint256)": "a05beee8",
					"onlyEven(uint256)": "ce0b4213",
					"onlyEvenRequire(uint256)": "bfc169e7",
					"totalCounter()": "97feba9d",
					"withdraw(uint256)": "2e1a7d4d"
				}
			},
			"storageLayout": {
				"storage": [
					{
						"astId": 3,
						"contract": "test47.sol:ManualRevertExample",
						"label": "totalCounter",
						"offset": 0,
						"slot": "0",
						"type": "t_uint256"
					},
					{
						"astId": 7,
						"contract": "test47.sol:ManualRevertExample",
						"label": "balances",
						"offset": 0,
						"slot": "1",
						"type": "t_mapping(t_address,t_uint256)"
					}
				],
				"types": {
					"t_address": {
						"encoding": "inplace",
						"label": "address",
						"numberOfBytes": "20"
					},
					"t_mapping(t_address,t_uint256)": {
						"encoding": "mapping",
						"key": "t_address",
						"label": "mapping(address => uint256)",
						"numberOfBytes": "32",
						"value": "t_uint256"
					},
					"t_uint256": {
						"encoding": "inplace",
						"label": "uint256",
						"numberOfBytes": "32"
					}
				}
			},
			"userdoc": {
				"kind": "user",
				"methods": {},
				"version": 1
			}
		}
	}
}