{
	"test66.sol": {
		"LoopGasUsage": {
			"abi": [
				{
					"inputs": [
						{
							"internalType": "address",
							"name": "_worker",
							"type": "address"
						}
					],
					"stateMutability": "nonpayable",
					"type": "constructor"
				},
				{
					"inputs": [],
					"name": "finalSum",
					"outputs": [
						{
							"internalType": "uint256",
							"name": "",
							"type": "uint256"
						}
					],
					"stateMutability": "view",
					"type": "function"
				},
				{
					"inputs": [],
					"name": "runLoop",
					"outputs": [],
					"stateMutability": "nonpayable",
					"type": "function"
				},
				{
					"inputs": [],
					"name": "totalIterations",
					"outputs": [
						{
							"internalType": "uint256",
							"name": "",
							"type": "uint256"
						}
					],
					"stateMutability": "view",
					"type": "function"
				},
				{
					"inputs": [],
					"name": "worker",
					"outputs": [
						{
							"internalType": "contract ExternalWorker",
							"name": "",
							"type": "address"
						}
					],
					"stateMutability": "view",
					"type": "function"
				}
			],
			"devdoc": {
				"kind": "dev",
				"methods": {},
				"version": 1
			},
			"evm": {
				"assembly": "    /* \"test66.sol\":16760:17293  contract LoopGasUsage {... */\n  mstore(0x40, 0x80)\n    /* \"test66.sol\":16897:16982  constructor(address _worker)... */\n  callvalue\n  dup1\n  iszero\n  tag_1\n  jumpi\n  revert(0x00, 0x00)\ntag_1:\n  pop\n  mload(0x40)\n  sub(codesize, bytecodeSize)\n  dup1\n  bytecodeSize\n  dup4\n  codecopy\n  dup2\n  dup2\n  add\n  0x40\n  mstore\n  dup2\n  add\n  swap1\n  tag_2\n  swap2\n  swap1\n  tag_3\n  jump\t// in\ntag_2:\n    /* \"test66.sol\":16966:16973  _worker */\n  dup1\n    /* \"test66.sol\":16942:16948  worker */\n  0x02\n  0x00\n    /* \"test66.sol\":16942:16974  worker = ExternalWorker(_worker) */\n  0x0100\n  exp\n  dup2\n  sload\n  dup2\n  0xffffffffffffffffffffffffffffffffffffffff\n  mul\n  not\n  and\n  swap1\n  dup4\n  0xffffffffffffffffffffffffffffffffffffffff\n  and\n  mul\n  or\n  swap1\n  sstore\n  pop\n    /* \"test66.sol\":16897:16982  constructor(address _worker)... */\n  pop\n    /* \"test66.sol\":16760:17293  contract LoopGasUsage {... */\n  jump(tag_6)\n    /* \"#utility.yul\":88:205   */\ntag_8:\n    /* \"#utility.yul\":197:198   */\n  0x00\n    /* \"#utility.yul\":194:195   */\n  0x00\n    /* \"#utility.yul\":187:199   */\n  revert\n    /* \"#utility.yul\":334:460   */\ntag_10:\n    /* \"#utility.yul\":371:378   */\n  0x00\n    /* \"#utility.yul\":411:453   */\n  0xffffffffffffffffffffffffffffffffffffffff\n    /* \"#utility.yul\":404:409   */\n  dup3\n    /* \"#utility.yul\":400:454   */\n  and\n    /* \"#utility.yul\":389:454   */\n  swap1\n  pop\n    /* \"#utility.yul\":334:460   */\n  swap2\n  swap1\n  pop\n  jump\t// out\n    /* \"#utility.yul\":466:562   */\ntag_11:\n    /* \"#utility.yul\":503:510   */\n  0x00\n    /* \"#utility.yul\":532:556   */\n  tag_20\n    /* \"#utility.yul\":550:555   */\n  dup3\n    /* \"#utility.yul\":532:556   */\n  tag_10\n  jump\t// in\ntag_20:\n    /* \"#utility.yul\":521:556   */\n  swap1\n  pop\n    /* \"#utility.yul\":466:562   */\n  swap2\n  swap1\n  pop\n  jump\t// out\n    /* \"#utility.yul\":568:690   */\ntag_12:\n    /* \"#utility.yul\":641:665   */\n  tag_22\n    /* \"#utility.yul\":659:664   */\n  dup2\n    /* \"#utility.yul\":641:665   */\n  tag_11\n  jump\t// in\ntag_22:\n    /* \"#utility.yul\":634:639   */\n  dup2\n    /* \"#utility.yul\":631:666   */\n  eq\n    /* \"#utility.yul\":621:684   */\n  tag_23\n  jumpi\n    /* \"#utility.yul\":680:681   */\n  0x00\n    /* \"#utility.yul\":677:678   */\n  0x00\n    /* \"#utility.yul\":670:682   */\n  revert\n    /* \"#utility.yul\":621:684   */\ntag_23:\n    /* \"#utility.yul\":568:690   */\n  pop\n  jump\t// out\n    /* \"#utility.yul\":696:839   */\ntag_13:\n    /* \"#utility.yul\":753:758   */\n  0x00\n    /* \"#utility.yul\":784:790   */\n  dup2\n    /* \"#utility.yul\":778:791   */\n  mload\n    /* \"#utility.yul\":769:791   */\n  swap1\n  pop\n    /* \"#utility.yul\":800:833   */\n  tag_25\n    /* \"#utility.yul\":827:832   */\n  dup2\n    /* \"#utility.yul\":800:833   */\n  tag_12\n  jump\t// in\ntag_25:\n    /* \"#utility.yul\":696:839   */\n  swap3\n  swap2\n  pop\n  pop\n  jump\t// out\n    /* \"#utility.yul\":845:1196   */\ntag_3:\n    /* \"#utility.yul\":915:921   */\n  0x00\n    /* \"#utility.yul\":964:966   */\n  0x20\n    /* \"#utility.yul\":952:961   */\n  dup3\n    /* \"#utility.yul\":943:950   */\n  dup5\n    /* \"#utility.yul\":939:962   */\n  sub\n    /* \"#utility.yul\":935:967   */\n  slt\n    /* \"#utility.yul\":932:1051   */\n  iszero\n  tag_27\n  jumpi\n    /* \"#utility.yul\":970:1049   */\n  tag_28\n  tag_8\n  jump\t// in\ntag_28:\n    /* \"#utility.yul\":932:1051   */\ntag_27:\n    /* \"#utility.yul\":1090:1091   */\n  0x00\n    /* \"#utility.yul\":1115:1179   */\n  tag_29\n    /* \"#utility.yul\":1171:1178   */\n  dup5\n    /* \"#utility.yul\":1162:1168   */\n  dup3\n    /* \"#utility.yul\":1151:1160   */\n  dup6\n    /* \"#utility.yul\":1147:1169   */\n  add\n    /* \"#utility.yul\":1115:1179   */\n  tag_13\n  jump\t// in\ntag_29:\n    /* \"#utility.yul\":1105:1179   */\n  swap2\n  pop\n    /* \"#utility.yul\":1061:1189   */\n  pop\n    /* \"#utility.yul\":845:1196   */\n  swap3\n  swap2\n  pop\n  pop\n  jump\t// out\n    /* \"test66.sol\":16760:17293  contract LoopGasUsage {... */\ntag_6:\n  dataSize(sub_0)\n  dup1\n  dataOffset(sub_0)\n  0x00\n  codecopy\n  0x00\n  return\nstop\n\nsub_0: assembly {\n        /* \"test66.sol\":16760:17293  contract LoopGasUsage {... */\n      mstore(0x40, 0x80)\n      callvalue\n      dup1\n      iszero\n      tag_1\n      jumpi\n      revert(0x00, 0x00)\n    tag_1:\n      pop\n      jumpi(tag_2, lt(calldatasize, 0x04))\n      shr(0xe0, calldataload(0x00))\n      dup1\n      0x25609bee\n      eq\n      tag_3\n      jumpi\n      dup1\n      0x283c91f4\n      eq\n      tag_4\n      jumpi\n      dup1\n      0x4d547ada\n      eq\n      tag_5\n      jumpi\n      dup1\n      0xc87fde32\n      eq\n      tag_6\n      jumpi\n    tag_2:\n      revert(0x00, 0x00)\n        /* \"test66.sol\":16990:17290  function runLoop()... */\n    tag_3:\n      tag_7\n      tag_8\n      jump\t// in\n    tag_7:\n      stop\n        /* \"test66.sol\":16791:16821  uint256 public totalIterations */\n    tag_4:\n      tag_9\n      tag_10\n      jump\t// in\n    tag_9:\n      mload(0x40)\n      tag_11\n      swap2\n      swap1\n      tag_12\n      jump\t// in\n    tag_11:\n      mload(0x40)\n      dup1\n      swap2\n      sub\n      swap1\n      return\n        /* \"test66.sol\":16860:16888  ExternalWorker public worker */\n    tag_5:\n      tag_13\n      tag_14\n      jump\t// in\n    tag_13:\n      mload(0x40)\n      tag_15\n      swap2\n      swap1\n      tag_16\n      jump\t// in\n    tag_15:\n      mload(0x40)\n      dup1\n      swap2\n      sub\n      swap1\n      return\n        /* \"test66.sol\":16828:16851  uint256 public finalSum */\n    tag_6:\n      tag_17\n      tag_18\n      jump\t// in\n    tag_17:\n      mload(0x40)\n      tag_19\n      swap2\n      swap1\n      tag_12\n      jump\t// in\n    tag_19:\n      mload(0x40)\n      dup1\n      swap2\n      sub\n      swap1\n      return\n        /* \"test66.sol\":16990:17290  function runLoop()... */\n    tag_8:\n        /* \"test66.sol\":17043:17054  uint256 sum */\n      0x00\n        /* \"test66.sol\":17057:17058  0 */\n      0x00\n        /* \"test66.sol\":17043:17058  uint256 sum = 0 */\n      swap1\n      pop\n        /* \"test66.sol\":17090:17099  uint256 i */\n      0x00\n        /* \"test66.sol\":17102:17103  0 */\n      0x00\n        /* \"test66.sol\":17090:17103  uint256 i = 0 */\n      swap1\n      pop\n        /* \"test66.sol\":17071:17256  for (... */\n    tag_21:\n        /* \"test66.sol\":17122:17125  100 */\n      0x64\n        /* \"test66.sol\":17118:17119  i */\n      dup2\n        /* \"test66.sol\":17118:17125  i < 100 */\n      lt\n        /* \"test66.sol\":17071:17256  for (... */\n      iszero\n      tag_22\n      jumpi\n        /* \"test66.sol\":17177:17178  i */\n      dup1\n        /* \"test66.sol\":17170:17178  sum += i */\n      dup3\n      tag_24\n      swap2\n      swap1\n      tag_25\n      jump\t// in\n    tag_24:\n      swap2\n      pop\n        /* \"test66.sol\":17195:17201  worker */\n      0x02\n      0x00\n      swap1\n      sload\n      swap1\n      0x0100\n      exp\n      swap1\n      div\n      0xffffffffffffffffffffffffffffffffffffffff\n      and\n        /* \"test66.sol\":17195:17208  worker.doWork */\n      0xffffffffffffffffffffffffffffffffffffffff\n      and\n      0x2630dd3a\n        /* \"test66.sol\":17195:17210  worker.doWork() */\n      mload(0x40)\n      dup2\n      0xffffffff\n      and\n      0xe0\n      shl\n      dup2\n      mstore\n      0x04\n      add\n      0x00\n      mload(0x40)\n      dup1\n      dup4\n      sub\n      dup2\n      0x00\n      dup8\n      dup1\n      extcodesize\n      iszero\n      dup1\n      iszero\n      tag_26\n      jumpi\n      revert(0x00, 0x00)\n    tag_26:\n      pop\n      gas\n      call\n      iszero\n      dup1\n      iszero\n      tag_28\n      jumpi\n      returndatacopy(0x00, 0x00, returndatasize)\n      revert(0x00, returndatasize)\n    tag_28:\n      pop\n      pop\n      pop\n      pop\n        /* \"test66.sol\":17227:17242  totalIterations */\n      0x00\n      0x00\n        /* \"test66.sol\":17227:17244  totalIterations++ */\n      dup2\n      sload\n      dup1\n      swap3\n      swap2\n      swap1\n      tag_29\n      swap1\n      tag_30\n      jump\t// in\n    tag_29:\n      swap2\n      swap1\n      pop\n      sstore\n      pop\n        /* \"test66.sol\":17140:17143  i++ */\n      dup1\n      dup1\n      0x01\n      add\n      swap2\n      pop\n      pop\n        /* \"test66.sol\":17071:17256  for (... */\n      jump(tag_21)\n    tag_22:\n      pop\n        /* \"test66.sol\":17279:17282  sum */\n      dup1\n        /* \"test66.sol\":17268:17276  finalSum */\n      0x01\n        /* \"test66.sol\":17268:17282  finalSum = sum */\n      dup2\n      swap1\n      sstore\n      pop\n        /* \"test66.sol\":17032:17290  {... */\n      pop\n        /* \"test66.sol\":16990:17290  function runLoop()... */\n      jump\t// out\n        /* \"test66.sol\":16791:16821  uint256 public totalIterations */\n    tag_10:\n      sload(0x00)\n      dup2\n      jump\t// out\n        /* \"test66.sol\":16860:16888  ExternalWorker public worker */\n    tag_14:\n      0x02\n      0x00\n      swap1\n      sload\n      swap1\n      0x0100\n      exp\n      swap1\n      div\n      0xffffffffffffffffffffffffffffffffffffffff\n      and\n      dup2\n      jump\t// out\n        /* \"test66.sol\":16828:16851  uint256 public finalSum */\n    tag_18:\n      sload(0x01)\n      dup2\n      jump\t// out\n        /* \"#utility.yul\":7:84   */\n    tag_31:\n        /* \"#utility.yul\":44:51   */\n      0x00\n        /* \"#utility.yul\":73:78   */\n      dup2\n        /* \"#utility.yul\":62:78   */\n      swap1\n      pop\n        /* \"#utility.yul\":7:84   */\n      swap2\n      swap1\n      pop\n      jump\t// out\n        /* \"#utility.yul\":90:208   */\n    tag_32:\n        /* \"#utility.yul\":177:201   */\n      tag_43\n        /* \"#utility.yul\":195:200   */\n      dup2\n        /* \"#utility.yul\":177:201   */\n      tag_31\n      jump\t// in\n    tag_43:\n        /* \"#utility.yul\":172:175   */\n      dup3\n        /* \"#utility.yul\":165:202   */\n      mstore\n        /* \"#utility.yul\":90:208   */\n      pop\n      pop\n      jump\t// out\n        /* \"#utility.yul\":214:436   */\n    tag_12:\n        /* \"#utility.yul\":307:311   */\n      0x00\n        /* \"#utility.yul\":345:347   */\n      0x20\n        /* \"#utility.yul\":334:343   */\n      dup3\n        /* \"#utility.yul\":330:348   */\n      add\n        /* \"#utility.yul\":322:348   */\n      swap1\n      pop\n        /* \"#utility.yul\":358:429   */\n      tag_45\n        /* \"#utility.yul\":426:427   */\n      0x00\n        /* \"#utility.yul\":415:424   */\n      dup4\n        /* \"#utility.yul\":411:428   */\n      add\n        /* \"#utility.yul\":402:408   */\n      dup5\n        /* \"#utility.yul\":358:429   */\n      tag_32\n      jump\t// in\n    tag_45:\n        /* \"#utility.yul\":214:436   */\n      swap3\n      swap2\n      pop\n      pop\n      jump\t// out\n        /* \"#utility.yul\":442:568   */\n    tag_33:\n        /* \"#utility.yul\":479:486   */\n      0x00\n        /* \"#utility.yul\":519:561   */\n      0xffffffffffffffffffffffffffffffffffffffff\n        /* \"#utility.yul\":512:517   */\n      dup3\n        /* \"#utility.yul\":508:562   */\n      and\n        /* \"#utility.yul\":497:562   */\n      swap1\n      pop\n        /* \"#utility.yul\":442:568   */\n      swap2\n      swap1\n      pop\n      jump\t// out\n        /* \"#utility.yul\":574:634   */\n    tag_34:\n        /* \"#utility.yul\":602:605   */\n      0x00\n        /* \"#utility.yul\":623:628   */\n      dup2\n        /* \"#utility.yul\":616:628   */\n      swap1\n      pop\n        /* \"#utility.yul\":574:634   */\n      swap2\n      swap1\n      pop\n      jump\t// out\n        /* \"#utility.yul\":640:782   */\n    tag_35:\n        /* \"#utility.yul\":690:699   */\n      0x00\n        /* \"#utility.yul\":723:776   */\n      tag_49\n        /* \"#utility.yul\":741:775   */\n      tag_50\n        /* \"#utility.yul\":750:774   */\n      tag_51\n        /* \"#utility.yul\":768:773   */\n      dup5\n        /* \"#utility.yul\":750:774   */\n      tag_33\n      jump\t// in\n    tag_51:\n        /* \"#utility.yul\":741:775   */\n      tag_34\n      jump\t// in\n    tag_50:\n        /* \"#utility.yul\":723:776   */\n      tag_33\n      jump\t// in\n    tag_49:\n        /* \"#utility.yul\":710:776   */\n      swap1\n      pop\n        /* \"#utility.yul\":640:782   */\n      swap2\n      swap1\n      pop\n      jump\t// out\n        /* \"#utility.yul\":788:914   */\n    tag_36:\n        /* \"#utility.yul\":838:847   */\n      0x00\n        /* \"#utility.yul\":871:908   */\n      tag_53\n        /* \"#utility.yul\":902:907   */\n      dup3\n        /* \"#utility.yul\":871:908   */\n      tag_35\n      jump\t// in\n    tag_53:\n        /* \"#utility.yul\":858:908   */\n      swap1\n      pop\n        /* \"#utility.yul\":788:914   */\n      swap2\n      swap1\n      pop\n      jump\t// out\n        /* \"#utility.yul\":920:1067   */\n    tag_37:\n        /* \"#utility.yul\":991:1000   */\n      0x00\n        /* \"#utility.yul\":1024:1061   */\n      tag_55\n        /* \"#utility.yul\":1055:1060   */\n      dup3\n        /* \"#utility.yul\":1024:1061   */\n      tag_36\n      jump\t// in\n    tag_55:\n        /* \"#utility.yul\":1011:1061   */\n      swap1\n      pop\n        /* \"#utility.yul\":920:1067   */\n      swap2\n      swap1\n      pop\n      jump\t// out\n        /* \"#utility.yul\":1073:1246   */\n    tag_38:\n        /* \"#utility.yul\":1181:1239   */\n      tag_57\n        /* \"#utility.yul\":1233:1238   */\n      dup2\n        /* \"#utility.yul\":1181:1239   */\n      tag_37\n      jump\t// in\n    tag_57:\n        /* \"#utility.yul\":1176:1179   */\n      dup3\n        /* \"#utility.yul\":1169:1240   */\n      mstore\n        /* \"#utility.yul\":1073:1246   */\n      pop\n      pop\n      jump\t// out\n        /* \"#utility.yul\":1252:1516   */\n    tag_16:\n        /* \"#utility.yul\":1366:1370   */\n      0x00\n        /* \"#utility.yul\":1404:1406   */\n      0x20\n        /* \"#utility.yul\":1393:1402   */\n      dup3\n        /* \"#utility.yul\":1389:1407   */\n      add\n        /* \"#utility.yul\":1381:1407   */\n      swap1\n      pop\n        /* \"#utility.yul\":1417:1509   */\n      tag_59\n        /* \"#utility.yul\":1506:1507   */\n      0x00\n        /* \"#utility.yul\":1495:1504   */\n      dup4\n        /* \"#utility.yul\":1491:1508   */\n      add\n        /* \"#utility.yul\":1482:1488   */\n      dup5\n        /* \"#utility.yul\":1417:1509   */\n      tag_38\n      jump\t// in\n    tag_59:\n        /* \"#utility.yul\":1252:1516   */\n      swap3\n      swap2\n      pop\n      pop\n      jump\t// out\n        /* \"#utility.yul\":1522:1702   */\n    tag_39:\n        /* \"#utility.yul\":1570:1647   */\n      0x4e487b7100000000000000000000000000000000000000000000000000000000\n        /* \"#utility.yul\":1567:1568   */\n      0x00\n        /* \"#utility.yul\":1560:1648   */\n      mstore\n        /* \"#utility.yul\":1667:1671   */\n      0x11\n        /* \"#utility.yul\":1664:1665   */\n      0x04\n        /* \"#utility.yul\":1657:1672   */\n      mstore\n        /* \"#utility.yul\":1691:1695   */\n      0x24\n        /* \"#utility.yul\":1688:1689   */\n      0x00\n        /* \"#utility.yul\":1681:1696   */\n      revert\n        /* \"#utility.yul\":1708:1899   */\n    tag_25:\n        /* \"#utility.yul\":1748:1751   */\n      0x00\n        /* \"#utility.yul\":1767:1787   */\n      tag_62\n        /* \"#utility.yul\":1785:1786   */\n      dup3\n        /* \"#utility.yul\":1767:1787   */\n      tag_31\n      jump\t// in\n    tag_62:\n        /* \"#utility.yul\":1762:1787   */\n      swap2\n      pop\n        /* \"#utility.yul\":1801:1821   */\n      tag_63\n        /* \"#utility.yul\":1819:1820   */\n      dup4\n        /* \"#utility.yul\":1801:1821   */\n      tag_31\n      jump\t// in\n    tag_63:\n        /* \"#utility.yul\":1796:1821   */\n      swap3\n      pop\n        /* \"#utility.yul\":1844:1845   */\n      dup3\n        /* \"#utility.yul\":1841:1842   */\n      dup3\n        /* \"#utility.yul\":1837:1846   */\n      add\n        /* \"#utility.yul\":1830:1846   */\n      swap1\n      pop\n        /* \"#utility.yul\":1865:1868   */\n      dup1\n        /* \"#utility.yul\":1862:1863   */\n      dup3\n        /* \"#utility.yul\":1859:1869   */\n      gt\n        /* \"#utility.yul\":1856:1892   */\n      iszero\n      tag_64\n      jumpi\n        /* \"#utility.yul\":1872:1890   */\n      tag_65\n      tag_39\n      jump\t// in\n    tag_65:\n        /* \"#utility.yul\":1856:1892   */\n    tag_64:\n        /* \"#utility.yul\":1708:1899   */\n      swap3\n      swap2\n      pop\n      pop\n      jump\t// out\n        /* \"#utility.yul\":1905:2138   */\n    tag_30:\n        /* \"#utility.yul\":1944:1947   */\n      0x00\n        /* \"#utility.yul\":1967:1991   */\n      tag_67\n        /* \"#utility.yul\":1985:1990   */\n      dup3\n        /* \"#utility.yul\":1967:1991   */\n      tag_31\n      jump\t// in\n    tag_67:\n        /* \"#utility.yul\":1958:1991   */\n      swap2\n      pop\n        /* \"#utility.yul\":2013:2079   */\n      0xffffffffffffffffffffffffffffffffffffffffffffffffffffffffffffffff\n        /* \"#utility.yul\":2006:2011   */\n      dup3\n        /* \"#utility.yul\":2003:2080   */\n      sub\n        /* \"#utility.yul\":2000:2103   */\n      tag_68\n      jumpi\n        /* \"#utility.yul\":2083:2101   */\n      tag_69\n      tag_39\n      jump\t// in\n    tag_69:\n        /* \"#utility.yul\":2000:2103   */\n    tag_68:\n        /* \"#utility.yul\":2130:2131   */\n      0x01\n        /* \"#utility.yul\":2123:2128   */\n      dup3\n        /* \"#utility.yul\":2119:2132   */\n      add\n        /* \"#utility.yul\":2112:2132   */\n      swap1\n      pop\n        /* \"#utility.yul\":1905:2138   */\n      swap2\n      swap1\n      pop\n      jump\t// out\n\n    auxdata: 0xa26469706673582212202d47dc8060a0e1c47fb1ce09da14a99848f78ed87bf3863d86452fb94cdd58ba64736f6c63430008220033\n}\n",
				"bytecode": {
					"linkReferences": {},
					"object": "608060405234801561000f575f5ffd5b5060405161045a38038061045a833981810160405281019061003191906100d5565b8060025f6101000a81548173ffffffffffffffffffffffffffffffffffffffff021916908373ffffffffffffffffffffffffffffffffffffffff16021790555050610100565b5f5ffd5b5f73ffffffffffffffffffffffffffffffffffffffff82169050919050565b5f6100a48261007b565b9050919050565b6100b48161009a565b81146100be575f5ffd5b50565b5f815190506100cf816100ab565b92915050565b5f602082840312156100ea576100e9610077565b5b5f6100f7848285016100c1565b91505092915050565b61034d8061010d5f395ff3fe608060405234801561000f575f5ffd5b506004361061004a575f3560e01c806325609bee1461004e578063283c91f4146100585780634d547ada14610076578063c87fde3214610094575b5f5ffd5b6100566100b2565b005b61006061017c565b60405161006d91906101c4565b60405180910390f35b61007e610181565b60405161008b9190610257565b60405180910390f35b61009c6101a6565b6040516100a991906101c4565b60405180910390f35b5f5f90505f5f90505b60648110156101715780826100d0919061029d565b915060025f9054906101000a900473ffffffffffffffffffffffffffffffffffffffff1673ffffffffffffffffffffffffffffffffffffffff16632630dd3a6040518163ffffffff1660e01b81526004015f604051808303815f87803b158015610138575f5ffd5b505af115801561014a573d5f5f3e3d5ffd5b505050505f5f81548092919061015f906102d0565b919050555080806001019150506100bb565b508060018190555050565b5f5481565b60025f9054906101000a900473ffffffffffffffffffffffffffffffffffffffff1681565b60015481565b5f819050919050565b6101be816101ac565b82525050565b5f6020820190506101d75f8301846101b5565b92915050565b5f73ffffffffffffffffffffffffffffffffffffffff82169050919050565b5f819050919050565b5f61021f61021a610215846101dd565b6101fc565b6101dd565b9050919050565b5f61023082610205565b9050919050565b5f61024182610226565b9050919050565b61025181610237565b82525050565b5f60208201905061026a5f830184610248565b92915050565b7f4e487b71000000000000000000000000000000000000000000000000000000005f52601160045260245ffd5b5f6102a7826101ac565b91506102b2836101ac565b92508282019050808211156102ca576102c9610270565b5b92915050565b5f6102da826101ac565b91507fffffffffffffffffffffffffffffffffffffffffffffffffffffffffffffffff820361030c5761030b610270565b5b60018201905091905056fea26469706673582212202d47dc8060a0e1c47fb1ce09da14a99848f78ed87bf3863d86452fb94cdd58ba64736f6c63430008220033",
					"opcodes": "PUSH1 0x80 PUSH1 0x40 MSTORE CALLVALUE DUP1 ISZERO PUSH2 0xF JUMPI PUSH0 PUSH0 REVERT JUMPDEST POP PUSH1 0x40 MLOAD PUSH2 0x45A CODESIZE SUB DUP1 PUSH2 0x45A DUP4 CODECOPY DUP2 DUP2 ADD PUSH1 0x40 MSTORE DUP2 ADD SWAP1 PUSH2 0x31 SWAP2 SWAP1 PUSH2 0xD5 JUMP JUMPDEST DUP1 PUSH1 0x2 PUSH0 PUSH2 0x100 EXP DUP2 SLOAD DUP2 PUSH20 0xFFFFFFFFFFFFFFFFFFFFFFFFFFFFFFFFFFFFFFFF MUL NOT AND SWAP1 DUP4 PUSH20 0xFFFFFFFFFFFFFFFFFFFFFFFFFFFFFFFFFFFFFFFF AND MUL OR SWAP1 SSTORE POP POP PUSH2 0x100 JUMP JUMPDEST PUSH0 PUSH0 REVERT JUMPDEST PUSH0 PUSH20 0xFFFFFFFFFFFFFFFFFFFFFFFFFFFFFFFFFFFFFFFF DUP3 AND SWAP1 POP SWAP2 SWAP1 POP JUMP JUMPDEST PUSH0 PUSH2 0xA4 DUP3 PUSH2 0x7B JUMP JUMPDEST SWAP1 POP SWAP2 SWAP1 POP JUMP JUMPDEST PUSH2 0xB4 DUP2 PUSH2 0x9A JUMP JUMPDEST DUP2 EQ PUSH2 0xBE JUMPI PUSH0 PUSH0 REVERT JUMPDEST POP JUMP JUMPDEST PUSH0 DUP2 MLOAD SWAP1 POP PUSH2 0xCF DUP2 PUSH2 0xAB JUMP JUMPDEST SWAP3 SWAP2 POP POP JUMP JUMPDEST PUSH0 PUSH1 0x20 DUP3 DUP5 SUB SLT ISZERO PUSH2 0xEA JUMPI PUSH2 0xE9 PUSH2 0x77 JUMP JUMPDEST JUMPDEST PUSH0 PUSH2 0xF7 DUP5 DUP3 DUP6 ADD PUSH2 0xC1 JUMP JUMPDEST SWAP2 POP POP SWAP3 SWAP2 POP POP JUMP JUMPDEST PUSH2 0x34D DUP1 PUSH2 0x10D PUSH0 CODECOPY PUSH0 RETURN INVALID PUSH1 0x80 PUSH1 0x40 MSTORE CALLVALUE DUP1 ISZERO PUSH2 0xF JUMPI PUSH0 PUSH0 REVERT JUMPDEST POP PUSH1 0x4 CALLDATASIZE LT PUSH2 0x4A JUMPI PUSH0 CALLDATALOAD PUSH1 0xE0 SHR DUP1 PUSH4 0x25609BEE EQ PUSH2 0x4E JUMPI DUP1 PUSH4 0x283C91F4 EQ PUSH2 0x58 JUMPI DUP1 PUSH4 0x4D547ADA EQ PUSH2 0x76 JUMPI DUP1 PUSH4 0xC87FDE32 EQ PUSH2 0x94 JUMPI JUMPDEST PUSH0 PUSH0 REVERT JUMPDEST PUSH2 0x56 PUSH2 0xB2 JUMP JUMPDEST STOP JUMPDEST PUSH2 0x60 PUSH2 0x17C JUMP JUMPDEST PUSH1 0x40 MLOAD PUSH2 0x6D SWAP2 SWAP1 PUSH2 0x1C4 JUMP JUMPDEST PUSH1 0x40 MLOAD DUP1 SWAP2 SUB SWAP1 RETURN JUMPDEST PUSH2 0x7E PUSH2 0x181 JUMP JUMPDEST PUSH1 0x40 MLOAD PUSH2 0x8B SWAP2 SWAP1 PUSH2 0x257 JUMP JUMPDEST PUSH1 0x40 MLOAD DUP1 SWAP2 SUB SWAP1 RETURN JUMPDEST PUSH2 0x9C PUSH2 0x1A6 JUMP JUMPDEST PUSH1 0x40 MLOAD PUSH2 0xA9 SWAP2 SWAP1 PUSH2 0x1C4 JUMP JUMPDEST PUSH1 0x40 MLOAD DUP1 SWAP2 SUB SWAP1 RETURN JUMPDEST PUSH0 PUSH0 SWAP1 POP PUSH0 PUSH0 SWAP1 POP JUMPDEST PUSH1 0x64 DUP2 LT ISZERO PUSH2 0x171 JUMPI DUP1 DUP3 PUSH2 0xD0 SWAP2 SWAP1 PUSH2 0x29D JUMP JUMPDEST SWAP2 POP PUSH1 0x2 PUSH0 SWAP1 SLOAD SWAP1 PUSH2 0x100 EXP SWAP1 DIV PUSH20 0xFFFFFFFFFFFFFFFFFFFFFFFFFFFFFFFFFFFFFFFF AND PUSH20 0xFFFFFFFFFFFFFFFFFFFFFFFFFFFFFFFFFFFFFFFF AND PUSH4 0x2630DD3A PUSH1 0x40 MLOAD DUP2 PUSH4 0xFFFFFFFF AND PUSH1 0xE0 SHL DUP2 MSTORE PUSH1 0x4 ADD PUSH0 PUSH1 0x40 MLOAD DUP1 DUP4 SUB DUP2 PUSH0 DUP8 DUP1 EXTCODESIZE ISZERO DUP1 ISZERO PUSH2 0x138 JUMPI PUSH0 PUSH0 REVERT JUMPDEST POP GAS CALL ISZERO DUP1 ISZERO PUSH2 0x14A JUMPI RETURNDATASIZE PUSH0 PUSH0 RETURNDATACOPY RETURNDATASIZE PUSH0 REVERT JUMPDEST POP POP POP POP PUSH0 PUSH0 DUP2 SLOAD DUP1 SWAP3 SWAP2 SWAP1 PUSH2 0x15F SWAP1 PUSH2 0x2D0 JUMP JUMPDEST SWAP2 SWAP1 POP SSTORE POP DUP1 DUP1 PUSH1 0x1 ADD SWAP2 POP POP PUSH2 0xBB JUMP JUMPDEST POP DUP1 PUSH1 0x1 DUP2 SWAP1 SSTORE POP POP JUMP JUMPDEST PUSH0 SLOAD DUP2 JUMP JUMPDEST PUSH1 0x2 PUSH0 SWAP1 SLOAD SWAP1 PUSH2 0x100 EXP SWAP1 DIV PUSH20 0xFFFFFFFFFFFFFFFFFFFFFFFFFFFFFFFFFFFFFFFF AND DUP2 JUMP JUMPDEST PUSH1 0x1 SLOAD DUP2 JUMP JUMPDEST PUSH0 DUP2 SWAP1 POP SWAP2 SWAP1 POP JUMP JUMPDEST PUSH2 0x1BE DUP2 PUSH2 0x1AC JUMP JUMPDEST DUP3 MSTORE POP POP JUMP JUMPDEST PUSH0 PUSH1 0x20 DUP3 ADD SWAP1 POP PUSH2 0x1D7 PUSH0 DUP4 ADD DUP5 PUSH2 0x1B5 JUMP JUMPDEST SWAP3 SWAP2 POP POP JUMP JUMPDEST PUSH0 PUSH20 0xFFFFFFFFFFFFFFFFFFFFFFFFFFFFFFFFFFFFFFFF DUP3 AND SWAP1 POP SWAP2 SWAP1 POP JUMP JUMPDEST PUSH0 DUP2 SWAP1 POP SWAP2 SWAP1 POP JUMP JUMPDEST PUSH0 PUSH2 0x21F PUSH2 0x21A PUSH2 0x215 DUP5 PUSH2 0x1DD JUMP JUMPDEST PUSH2 0x1FC JUMP JUMPDEST PUSH2 0x1DD JUMP JUMPDEST SWAP1 POP SWAP2 SWAP1 POP JUMP JUMPDEST PUSH0 PUSH2 0x230 DUP3 PUSH2 0x205 JUMP JUMPDEST SWAP1 POP SWAP2 SWAP1 POP JUMP JUMPDEST PUSH0 PUSH2 0x241 DUP3 PUSH2 0x226 JUMP JUMPDEST SWAP1 POP SWAP2 SWAP1 POP JUMP JUMPDEST PUSH2 0x251 DUP2 PUSH2 0x237 JUMP JUMPDEST DUP3 MSTORE POP POP JUMP JUMPDEST PUSH0 PUSH1 0x20 DUP3 ADD SWAP1 POP PUSH2 0x26A PUSH0 DUP4 ADD DUP5 PUSH2 0x248 JUMP JUMPDEST SWAP3 SWAP2 POP POP JUMP JUMPDEST PUSH32 0x4E487B7100000000000000000000000000000000000000000000000000000000 PUSH0 MSTORE PUSH1 0x11 PUSH1 0x4 MSTORE PUSH1 0x24 PUSH0 REVERT JUMPDEST PUSH0 PUSH2 0x2A7 DUP3 PUSH2 0x1AC JUMP JUMPDEST SWAP2 POP PUSH2 0x2B2 DUP4 PUSH2 0x1AC JUMP JUMPDEST SWAP3 POP DUP3 DUP3 ADD SWAP1 POP DUP1 DUP3 GT ISZERO PUSH2 0x2CA JUMPI PUSH2 0x2C9 PUSH2 0x270 JUMP JUMPDEST JUMPDEST SWAP3 SWAP2 POP POP JUMP JUMPDEST PUSH0 PUSH2 0x2DA DUP3 PUSH2 0x1AC JUMP JUMPDEST SWAP2 POP PUSH32 0xFFFFFFFFFFFFFFFFFFFFFFFFFFFFFFFFFFFFFFFFFFFFFFFFFFFFFFFFFFFFFFFF DUP3 SUB PUSH2 0x30C JUMPI PUSH2 0x30B PUSH2 0x270 JUMP JUMPDEST JUMPDEST PUSH1 0x1 DUP3 ADD SWAP1 POP SWAP2 SWAP1 POP JUMP INVALID LOG2 PUSH5 0x6970667358 0x22 SLT KECCAK256 0x2D SELFBALANCE 0xDC DUP1 PUSH1 0xA0 RJUMPI 0xC47F 0xB1 0xCE MULMOD 0xDA EQ 0xA9 SWAP9 BASEFEE 0xF7 DUP15 0xD8 PUSH28 0xF3863D86452FB94CDD58BA64736F6C63430008220033000000000000 "
				},
				"gasEstimates": {
					"creation": {
						"codeDepositCost": "169000",
						"executionCost": "infinite",
						"totalCost": "infinite"
					},
					"external": {
						"finalSum()": "2469",
						"runLoop()": "infinite",
						"totalIterations()": "2424",
						"worker()": "infinite"
					}
				},
				"methodIdentifiers": {
					"finalSum()": "c87fde32",
					"runLoop()": "25609bee",
					"totalIterations()": "283c91f4",
					"worker()": "4d547ada"
				}
			},
			"storageLayout": {
				"storage": [
					{
						"astId": 13,
						"contract": "test66.sol:LoopGasUsage",
						"label": "totalIterations",
						"offset": 0,
						"slot": "0",
						"type": "t_uint256"
					},
					{
						"astId": 15,
						"contract": "test66.sol:LoopGasUsage",
						"label": "finalSum",
						"offset": 0,
						"slot": "1",
						"type": "t_uint256"
					},
					{
						"astId": 18,
						"contract": "test66.sol:LoopGasUsage",
						"label": "worker",
						"offset": 0,
						"slot": "2",
						"type": "t_contract(ExternalWorker)11"
					}
				],
				"types": {
					"t_contract(ExternalWorker)11": {
						"encoding": "inplace",
						"label": "contract ExternalWorker",
						"numberOfBytes": "20"
					},
					"t_uint256": {
						"encoding": "inplace",
						"label": "uint256",
						"numberOfBytes": "32"
					}
				}
			},
			"userdoc": {
				"kind": "user",
				"methods": {},
				"version": 1
			}
		}
	}
}