{
	"test53.sol": {
		"LowLevelCallExample": {
			"abi": [
				{
					"anonymous": false,
					"inputs": [
						{
							"indexed": true,
							"internalType": "address",
							"name": "user",
							"type": "address"
						},
						{
							"indexed": false,
							"internalType": "uint256",
							"name": "amount",
							"type": "uint256"
						}
					],
					"name": "Deposit",
					"type": "event"
				},
				{
					"anonymous": false,
					"inputs": [
						{
							"indexed": true,
							"internalType": "address",
							"name": "user",
							"type": "address"
						},
						{
							"indexed": false,
							"internalType": "uint256",
							"name": "amount",
							"type": "uint256"
						}
					],
					"name": "TransferFailed",
					"type": "event"
				},
				{
					"anonymous": false,
					"inputs": [
						{
							"indexed": true,
							"internalType": "address",
							"name": "user",
							"type": "address"
						},
						{
							"indexed": false,
							"internalType": "uint256",
							"name": "amount",
							"type": "uint256"
						}
					],
					"name": "Withdraw",
					"type": "event"
				},
				{
					"inputs": [
						{
							"internalType": "address",
							"name": "",
							"type": "address"
						}
					],
					"name": "balances",
					"outputs": [
						{
							"internalType": "uint256",
							"name": "",
							"type": "uint256"
						}
					],
					"stateMutability": "view",
					"type": "function"
				},
				{
					"inputs": [],
					"name": "contractBalance",
					"outputs": [
						{
							"internalType": "uint256",
							"name": "",
							"type": "uint256"
						}
					],
					"stateMutability": "view",
					"type": "function"
				},
				{
					"inputs": [],
					"name": "deposit",
					"outputs": [],
					"stateMutability": "payable",
					"type": "function"
				},
				{
					"inputs": [
						{
							"internalType": "uint256",
							"name": "_amount",
							"type": "uint256"
						}
					],
					"name": "safeWithdraw",
					"outputs": [],
					"stateMutability": "nonpayable",
					"type": "function"
				},
				{
					"inputs": [
						{
							"internalType": "uint256",
							"name": "_amount",
							"type": "uint256"
						}
					],
					"name": "vulnerableWithdraw",
					"outputs": [],
					"stateMutability": "nonpayable",
					"type": "function"
				}
			],
			"devdoc": {
				"kind": "dev",
				"methods": {},
				"version": 1
			},
			"evm": {
				"assembly": "    /* \"test53.sol\":14872:19029  contract LowLevelCallExample {... */\n  mstore(0x40, 0x80)\n  callvalue\n  dup1\n  iszero\n  tag_1\n  jumpi\n  revert(0x00, 0x00)\ntag_1:\n  pop\n  dataSize(sub_0)\n  dup1\n  dataOffset(sub_0)\n  0x00\n  codecopy\n  0x00\n  return\nstop\n\nsub_0: assembly {\n        /* \"test53.sol\":14872:19029  contract LowLevelCallExample {... */\n      mstore(0x40, 0x80)\n      jumpi(tag_1, lt(calldatasize, 0x04))\n      shr(0xe0, calldataload(0x00))\n      dup1\n      0x27e235e3\n      eq\n      tag_2\n      jumpi\n      dup1\n      0x8b7afe2e\n      eq\n      tag_3\n      jumpi\n      dup1\n      0xb0fd035b\n      eq\n      tag_4\n      jumpi\n      dup1\n      0xcc817673\n      eq\n      tag_5\n      jumpi\n      dup1\n      0xd0e30db0\n      eq\n      tag_6\n      jumpi\n    tag_1:\n      revert(0x00, 0x00)\n        /* \"test53.sol\":15067:15110  mapping(address => uint256) public balances */\n    tag_2:\n      callvalue\n      dup1\n      iszero\n      tag_7\n      jumpi\n      revert(0x00, 0x00)\n    tag_7:\n      pop\n      tag_8\n      0x04\n      dup1\n      calldatasize\n      sub\n      dup2\n      add\n      swap1\n      tag_9\n      swap2\n      swap1\n      tag_10\n      jump\t// in\n    tag_9:\n      tag_11\n      jump\t// in\n    tag_8:\n      mload(0x40)\n      tag_12\n      swap2\n      swap1\n      tag_13\n      jump\t// in\n    tag_12:\n      mload(0x40)\n      dup1\n      swap2\n      sub\n      swap1\n      return\n        /* \"test53.sol\":18886:19026  function contractBalance()... */\n    tag_3:\n      callvalue\n      dup1\n      iszero\n      tag_14\n      jumpi\n      revert(0x00, 0x00)\n    tag_14:\n      pop\n      tag_15\n      tag_16\n      jump\t// in\n    tag_15:\n      mload(0x40)\n      tag_17\n      swap2\n      swap1\n      tag_13\n      jump\t// in\n    tag_17:\n      mload(0x40)\n      dup1\n      swap2\n      sub\n      swap1\n      return\n        /* \"test53.sol\":16563:17536  function safeWithdraw(... */\n    tag_4:\n      callvalue\n      dup1\n      iszero\n      tag_18\n      jumpi\n      revert(0x00, 0x00)\n    tag_18:\n      pop\n      tag_19\n      0x04\n      dup1\n      calldatasize\n      sub\n      dup2\n      add\n      swap1\n      tag_20\n      swap2\n      swap1\n      tag_21\n      jump\t// in\n    tag_20:\n      tag_22\n      jump\t// in\n    tag_19:\n      stop\n        /* \"test53.sol\":17713:18720  function vulnerableWithdraw(... */\n    tag_5:\n      callvalue\n      dup1\n      iszero\n      tag_23\n      jumpi\n      revert(0x00, 0x00)\n    tag_23:\n      pop\n      tag_24\n      0x04\n      dup1\n      calldatasize\n      sub\n      dup2\n      add\n      swap1\n      tag_25\n      swap2\n      swap1\n      tag_21\n      jump\t// in\n    tag_25:\n      tag_26\n      jump\t// in\n    tag_24:\n      stop\n        /* \"test53.sol\":16113:16400  function deposit()... */\n    tag_6:\n      tag_27\n      tag_28\n      jump\t// in\n    tag_27:\n      stop\n        /* \"test53.sol\":15067:15110  mapping(address => uint256) public balances */\n    tag_11:\n      mstore(0x20, 0x00)\n      dup1\n      0x00\n      mstore\n      keccak256(0x00, 0x40)\n      0x00\n      swap2\n      pop\n      swap1\n      pop\n      sload\n      dup2\n      jump\t// out\n        /* \"test53.sol\":18886:19026  function contractBalance()... */\n    tag_16:\n        /* \"test53.sol\":18963:18970  uint256 */\n      0x00\n        /* \"test53.sol\":18997:19018  address(this).balance */\n      selfbalance\n        /* \"test53.sol\":18990:19018  return address(this).balance */\n      swap1\n      pop\n        /* \"test53.sol\":18886:19026  function contractBalance()... */\n      swap1\n      jump\t// out\n        /* \"test53.sol\":16563:17536  function safeWithdraw(... */\n    tag_22:\n        /* \"test53.sol\":15824:15830  locked */\n      0x01\n      0x00\n      swap1\n      sload\n      swap1\n      0x0100\n      exp\n      swap1\n      div\n      0xff\n      and\n        /* \"test53.sol\":15823:15830  !locked */\n      iszero\n        /* \"test53.sol\":15801:15877  require(... */\n      tag_31\n      jumpi\n      mload(0x40)\n      0x08c379a000000000000000000000000000000000000000000000000000000000\n      dup2\n      mstore\n      0x04\n      add\n      tag_32\n      swap1\n      tag_33\n      jump\t// in\n    tag_32:\n      mload(0x40)\n      dup1\n      swap2\n      sub\n      swap1\n      revert\n    tag_31:\n        /* \"test53.sol\":15899:15903  true */\n      0x01\n        /* \"test53.sol\":15890:15896  locked */\n      dup1\n      0x00\n        /* \"test53.sol\":15890:15903  locked = true */\n      0x0100\n      exp\n      dup2\n      sload\n      dup2\n      0xff\n      mul\n      not\n      and\n      swap1\n      dup4\n      iszero\n      iszero\n      mul\n      or\n      swap1\n      sstore\n      pop\n        /* \"test53.sol\":16766:16773  _amount */\n      dup1\n        /* \"test53.sol\":16742:16750  balances */\n      0x00\n        /* \"test53.sol\":16742:16762  balances[msg.sender] */\n      0x00\n        /* \"test53.sol\":16751:16761  msg.sender */\n      caller\n        /* \"test53.sol\":16742:16762  balances[msg.sender] */\n      0xffffffffffffffffffffffffffffffffffffffff\n      and\n      0xffffffffffffffffffffffffffffffffffffffff\n      and\n      dup2\n      mstore\n      0x20\n      add\n      swap1\n      dup2\n      mstore\n      0x20\n      add\n      0x00\n      keccak256\n      sload\n        /* \"test53.sol\":16742:16773  balances[msg.sender] >= _amount */\n      lt\n      iszero\n        /* \"test53.sol\":16720:16821  require(... */\n      tag_35\n      jumpi\n      mload(0x40)\n      0x08c379a000000000000000000000000000000000000000000000000000000000\n      dup2\n      mstore\n      0x04\n      add\n      tag_36\n      swap1\n      tag_37\n      jump\t// in\n    tag_36:\n      mload(0x40)\n      dup1\n      swap2\n      sub\n      swap1\n      revert\n    tag_35:\n        /* \"test53.sol\":16903:16910  _amount */\n      dup1\n        /* \"test53.sol\":16879:16887  balances */\n      0x00\n        /* \"test53.sol\":16879:16899  balances[msg.sender] */\n      0x00\n        /* \"test53.sol\":16888:16898  msg.sender */\n      caller\n        /* \"test53.sol\":16879:16899  balances[msg.sender] */\n      0xffffffffffffffffffffffffffffffffffffffff\n      and\n      0xffffffffffffffffffffffffffffffffffffffff\n      and\n      dup2\n      mstore\n      0x20\n      add\n      swap1\n      dup2\n      mstore\n      0x20\n      add\n      0x00\n      keccak256\n      0x00\n        /* \"test53.sol\":16879:16910  balances[msg.sender] -= _amount */\n      dup3\n      dup3\n      sload\n      tag_38\n      swap2\n      swap1\n      tag_39\n      jump\t// in\n    tag_38:\n      swap3\n      pop\n      pop\n      dup2\n      swap1\n      sstore\n      pop\n        /* \"test53.sol\":16973:16985  bool success */\n      0x00\n        /* \"test53.sol\":17012:17022  msg.sender */\n      caller\n        /* \"test53.sol\":17004:17028  payable(msg.sender).call */\n      0xffffffffffffffffffffffffffffffffffffffff\n      and\n        /* \"test53.sol\":17054:17061  _amount */\n      dup3\n        /* \"test53.sol\":17004:17080  payable(msg.sender).call{... */\n      mload(0x40)\n      tag_40\n      swap1\n      tag_41\n      jump\t// in\n    tag_40:\n      0x00\n      mload(0x40)\n      dup1\n      dup4\n      sub\n      dup2\n      dup6\n      dup8\n      gas\n      call\n      swap3\n      pop\n      pop\n      pop\n      returndatasize\n      dup1\n      0x00\n      dup2\n      eq\n      tag_44\n      jumpi\n      mload(0x40)\n      swap2\n      pop\n      and(add(returndatasize, 0x3f), not(0x1f))\n      dup3\n      add\n      0x40\n      mstore\n      returndatasize\n      dup3\n      mstore\n      returndatasize\n      0x00\n      0x20\n      dup5\n      add\n      returndatacopy\n      jump(tag_43)\n    tag_44:\n      0x60\n      swap2\n      pop\n    tag_43:\n      pop\n        /* \"test53.sol\":16972:17080  (bool success, ) =... */\n      pop\n      swap1\n      pop\n        /* \"test53.sol\":17158:17165  success */\n      dup1\n        /* \"test53.sol\":17153:17445  if (!success) {... */\n      tag_45\n      jumpi\n        /* \"test53.sol\":17274:17281  _amount */\n      dup2\n        /* \"test53.sol\":17250:17258  balances */\n      0x00\n        /* \"test53.sol\":17250:17270  balances[msg.sender] */\n      0x00\n        /* \"test53.sol\":17259:17269  msg.sender */\n      caller\n        /* \"test53.sol\":17250:17270  balances[msg.sender] */\n      0xffffffffffffffffffffffffffffffffffffffff\n      and\n      0xffffffffffffffffffffffffffffffffffffffff\n      and\n      dup2\n      mstore\n      0x20\n      add\n      swap1\n      dup2\n      mstore\n      0x20\n      add\n      0x00\n      keccak256\n      0x00\n        /* \"test53.sol\":17250:17281  balances[msg.sender] += _amount */\n      dup3\n      dup3\n      sload\n      tag_46\n      swap2\n      swap1\n      tag_47\n      jump\t// in\n    tag_46:\n      swap3\n      pop\n      pop\n      dup2\n      swap1\n      sstore\n      pop\n        /* \"test53.sol\":17336:17346  msg.sender */\n      caller\n        /* \"test53.sol\":17303:17387  TransferFailed(... */\n      0xffffffffffffffffffffffffffffffffffffffff\n      and\n      0x1c43b9761b3fba5321ca8212bfc231945f668ccc0c446f333999eea9ce8fda81\n        /* \"test53.sol\":17365:17372  _amount */\n      dup4\n        /* \"test53.sol\":17303:17387  TransferFailed(... */\n      mload(0x40)\n      tag_48\n      swap2\n      swap1\n      tag_13\n      jump\t// in\n    tag_48:\n      mload(0x40)\n      dup1\n      swap2\n      sub\n      swap1\n      log2\n        /* \"test53.sol\":17404:17433  revert(\"ETH transfer failed\") */\n      mload(0x40)\n      0x08c379a000000000000000000000000000000000000000000000000000000000\n      dup2\n      mstore\n      0x04\n      add\n      tag_49\n      swap1\n      tag_50\n      jump\t// in\n    tag_49:\n      mload(0x40)\n      dup1\n      swap2\n      sub\n      swap1\n      revert\n        /* \"test53.sol\":17153:17445  if (!success) {... */\n    tag_45:\n        /* \"test53.sol\":17485:17495  msg.sender */\n      caller\n        /* \"test53.sol\":17462:17528  Withdraw(... */\n      0xffffffffffffffffffffffffffffffffffffffff\n      and\n      0x884edad9ce6fa2440d8a54cc123490eb96d2768479d49ff9c7366125a9424364\n        /* \"test53.sol\":17510:17517  _amount */\n      dup4\n        /* \"test53.sol\":17462:17528  Withdraw(... */\n      mload(0x40)\n      tag_51\n      swap2\n      swap1\n      tag_13\n      jump\t// in\n    tag_51:\n      mload(0x40)\n      dup1\n      swap2\n      sub\n      swap1\n      log2\n        /* \"test53.sol\":16663:17536  {... */\n      pop\n        /* \"test53.sol\":15939:15944  false */\n      0x00\n        /* \"test53.sol\":15930:15936  locked */\n      0x01\n      0x00\n        /* \"test53.sol\":15930:15944  locked = false */\n      0x0100\n      exp\n      dup2\n      sload\n      dup2\n      0xff\n      mul\n      not\n      and\n      swap1\n      dup4\n      iszero\n      iszero\n      mul\n      or\n      swap1\n      sstore\n      pop\n        /* \"test53.sol\":16563:17536  function safeWithdraw(... */\n      pop\n      jump\t// out\n        /* \"test53.sol\":17713:18720  function vulnerableWithdraw(... */\n    tag_26:\n        /* \"test53.sol\":15824:15830  locked */\n      0x01\n      0x00\n      swap1\n      sload\n      swap1\n      0x0100\n      exp\n      swap1\n      div\n      0xff\n      and\n        /* \"test53.sol\":15823:15830  !locked */\n      iszero\n        /* \"test53.sol\":15801:15877  require(... */\n      tag_53\n      jumpi\n      mload(0x40)\n      0x08c379a000000000000000000000000000000000000000000000000000000000\n      dup2\n      mstore\n      0x04\n      add\n      tag_54\n      swap1\n      tag_33\n      jump\t// in\n    tag_54:\n      mload(0x40)\n      dup1\n      swap2\n      sub\n      swap1\n      revert\n    tag_53:\n        /* \"test53.sol\":15899:15903  true */\n      0x01\n        /* \"test53.sol\":15890:15896  locked */\n      dup1\n      0x00\n        /* \"test53.sol\":15890:15903  locked = true */\n      0x0100\n      exp\n      dup2\n      sload\n      dup2\n      0xff\n      mul\n      not\n      and\n      swap1\n      dup4\n      iszero\n      iszero\n      mul\n      or\n      swap1\n      sstore\n      pop\n        /* \"test53.sol\":17922:17929  _amount */\n      dup1\n        /* \"test53.sol\":17898:17906  balances */\n      0x00\n        /* \"test53.sol\":17898:17918  balances[msg.sender] */\n      0x00\n        /* \"test53.sol\":17907:17917  msg.sender */\n      caller\n        /* \"test53.sol\":17898:17918  balances[msg.sender] */\n      0xffffffffffffffffffffffffffffffffffffffff\n      and\n      0xffffffffffffffffffffffffffffffffffffffff\n      and\n      dup2\n      mstore\n      0x20\n      add\n      swap1\n      dup2\n      mstore\n      0x20\n      add\n      0x00\n      keccak256\n      sload\n        /* \"test53.sol\":17898:17929  balances[msg.sender] >= _amount */\n      lt\n      iszero\n        /* \"test53.sol\":17876:17977  require(... */\n      tag_56\n      jumpi\n      mload(0x40)\n      0x08c379a000000000000000000000000000000000000000000000000000000000\n      dup2\n      mstore\n      0x04\n      add\n      tag_57\n      swap1\n      tag_37\n      jump\t// in\n    tag_57:\n      mload(0x40)\n      dup1\n      swap2\n      sub\n      swap1\n      revert\n    tag_56:\n        /* \"test53.sol\":18092:18099  _amount */\n      dup1\n        /* \"test53.sol\":18068:18076  balances */\n      0x00\n        /* \"test53.sol\":18068:18088  balances[msg.sender] */\n      0x00\n        /* \"test53.sol\":18077:18087  msg.sender */\n      caller\n        /* \"test53.sol\":18068:18088  balances[msg.sender] */\n      0xffffffffffffffffffffffffffffffffffffffff\n      and\n      0xffffffffffffffffffffffffffffffffffffffff\n      and\n      dup2\n      mstore\n      0x20\n      add\n      swap1\n      dup2\n      mstore\n      0x20\n      add\n      0x00\n      keccak256\n      0x00\n        /* \"test53.sol\":18068:18099  balances[msg.sender] -= _amount */\n      dup3\n      dup3\n      sload\n      tag_58\n      swap2\n      swap1\n      tag_39\n      jump\t// in\n    tag_58:\n      swap3\n      pop\n      pop\n      dup2\n      swap1\n      sstore\n      pop\n        /* \"test53.sol\":18162:18174  bool success */\n      0x00\n        /* \"test53.sol\":18201:18211  msg.sender */\n      caller\n        /* \"test53.sol\":18193:18217  payable(msg.sender).call */\n      0xffffffffffffffffffffffffffffffffffffffff\n      and\n        /* \"test53.sol\":18243:18250  _amount */\n      dup3\n        /* \"test53.sol\":18193:18269  payable(msg.sender).call{... */\n      mload(0x40)\n      tag_59\n      swap1\n      tag_41\n      jump\t// in\n    tag_59:\n      0x00\n      mload(0x40)\n      dup1\n      dup4\n      sub\n      dup2\n      dup6\n      dup8\n      gas\n      call\n      swap3\n      pop\n      pop\n      pop\n      returndatasize\n      dup1\n      0x00\n      dup2\n      eq\n      tag_62\n      jumpi\n      mload(0x40)\n      swap2\n      pop\n      and(add(returndatasize, 0x3f), not(0x1f))\n      dup3\n      add\n      0x40\n      mstore\n      returndatasize\n      dup3\n      mstore\n      returndatasize\n      0x00\n      0x20\n      dup5\n      add\n      returndatacopy\n      jump(tag_61)\n    tag_62:\n      0x60\n      swap2\n      pop\n    tag_61:\n      pop\n        /* \"test53.sol\":18161:18269  (bool success, ) =... */\n      pop\n      swap1\n      pop\n        /* \"test53.sol\":18346:18353  success */\n      dup1\n        /* \"test53.sol\":18341:18629  if (!success) {... */\n      tag_63\n      jumpi\n        /* \"test53.sol\":18462:18469  _amount */\n      dup2\n        /* \"test53.sol\":18438:18446  balances */\n      0x00\n        /* \"test53.sol\":18438:18458  balances[msg.sender] */\n      0x00\n        /* \"test53.sol\":18447:18457  msg.sender */\n      caller\n        /* \"test53.sol\":18438:18458  balances[msg.sender] */\n      0xffffffffffffffffffffffffffffffffffffffff\n      and\n      0xffffffffffffffffffffffffffffffffffffffff\n      and\n      dup2\n      mstore\n      0x20\n      add\n      swap1\n      dup2\n      mstore\n      0x20\n      add\n      0x00\n      keccak256\n      0x00\n        /* \"test53.sol\":18438:18469  balances[msg.sender] += _amount */\n      dup3\n      dup3\n      sload\n      tag_64\n      swap2\n      swap1\n      tag_47\n      jump\t// in\n    tag_64:\n      swap3\n      pop\n      pop\n      dup2\n      swap1\n      sstore\n      pop\n        /* \"test53.sol\":18524:18534  msg.sender */\n      caller\n        /* \"test53.sol\":18491:18575  TransferFailed(... */\n      0xffffffffffffffffffffffffffffffffffffffff\n      and\n      0x1c43b9761b3fba5321ca8212bfc231945f668ccc0c446f333999eea9ce8fda81\n        /* \"test53.sol\":18553:18560  _amount */\n      dup4\n        /* \"test53.sol\":18491:18575  TransferFailed(... */\n      mload(0x40)\n      tag_65\n      swap2\n      swap1\n      tag_13\n      jump\t// in\n    tag_65:\n      mload(0x40)\n      dup1\n      swap2\n      sub\n      swap1\n      log2\n        /* \"test53.sol\":18592:18617  revert(\"Transfer failed\") */\n      mload(0x40)\n      0x08c379a000000000000000000000000000000000000000000000000000000000\n      dup2\n      mstore\n      0x04\n      add\n      tag_66\n      swap1\n      tag_67\n      jump\t// in\n    tag_66:\n      mload(0x40)\n      dup1\n      swap2\n      sub\n      swap1\n      revert\n        /* \"test53.sol\":18341:18629  if (!success) {... */\n    tag_63:\n        /* \"test53.sol\":18669:18679  msg.sender */\n      caller\n        /* \"test53.sol\":18646:18712  Withdraw(... */\n      0xffffffffffffffffffffffffffffffffffffffff\n      and\n      0x884edad9ce6fa2440d8a54cc123490eb96d2768479d49ff9c7366125a9424364\n        /* \"test53.sol\":18694:18701  _amount */\n      dup4\n        /* \"test53.sol\":18646:18712  Withdraw(... */\n      mload(0x40)\n      tag_68\n      swap2\n      swap1\n      tag_13\n      jump\t// in\n    tag_68:\n      mload(0x40)\n      dup1\n      swap2\n      sub\n      swap1\n      log2\n        /* \"test53.sol\":17819:18720  {... */\n      pop\n        /* \"test53.sol\":15939:15944  false */\n      0x00\n        /* \"test53.sol\":15930:15936  locked */\n      0x01\n      0x00\n        /* \"test53.sol\":15930:15944  locked = false */\n      0x0100\n      exp\n      dup2\n      sload\n      dup2\n      0xff\n      mul\n      not\n      and\n      swap1\n      dup4\n      iszero\n      iszero\n      mul\n      or\n      swap1\n      sstore\n      pop\n        /* \"test53.sol\":17713:18720  function vulnerableWithdraw(... */\n      pop\n      jump\t// out\n        /* \"test53.sol\":16113:16400  function deposit()... */\n    tag_28:\n        /* \"test53.sol\":16219:16220  0 */\n      0x00\n        /* \"test53.sol\":16207:16216  msg.value */\n      callvalue\n        /* \"test53.sol\":16207:16220  msg.value > 0 */\n      gt\n        /* \"test53.sol\":16185:16261  require(... */\n      tag_70\n      jumpi\n      mload(0x40)\n      0x08c379a000000000000000000000000000000000000000000000000000000000\n      dup2\n      mstore\n      0x04\n      add\n      tag_71\n      swap1\n      tag_72\n      jump\t// in\n    tag_71:\n      mload(0x40)\n      dup1\n      swap2\n      sub\n      swap1\n      revert\n    tag_70:\n        /* \"test53.sol\":16298:16307  msg.value */\n      callvalue\n        /* \"test53.sol\":16274:16282  balances */\n      0x00\n        /* \"test53.sol\":16274:16294  balances[msg.sender] */\n      0x00\n        /* \"test53.sol\":16283:16293  msg.sender */\n      caller\n        /* \"test53.sol\":16274:16294  balances[msg.sender] */\n      0xffffffffffffffffffffffffffffffffffffffff\n      and\n      0xffffffffffffffffffffffffffffffffffffffff\n      and\n      dup2\n      mstore\n      0x20\n      add\n      swap1\n      dup2\n      mstore\n      0x20\n      add\n      0x00\n      keccak256\n      0x00\n        /* \"test53.sol\":16274:16307  balances[msg.sender] += msg.value */\n      dup3\n      dup3\n      sload\n      tag_73\n      swap2\n      swap1\n      tag_47\n      jump\t// in\n    tag_73:\n      swap3\n      pop\n      pop\n      dup2\n      swap1\n      sstore\n      pop\n        /* \"test53.sol\":16347:16357  msg.sender */\n      caller\n        /* \"test53.sol\":16325:16392  Deposit(... */\n      0xffffffffffffffffffffffffffffffffffffffff\n      and\n      0xe1fffcc4923d04b559f4d29a8bfc6cda04eb5b0d3c460751c2402c5c5cc9109c\n        /* \"test53.sol\":16372:16381  msg.value */\n      callvalue\n        /* \"test53.sol\":16325:16392  Deposit(... */\n      mload(0x40)\n      tag_74\n      swap2\n      swap1\n      tag_13\n      jump\t// in\n    tag_74:\n      mload(0x40)\n      dup1\n      swap2\n      sub\n      swap1\n      log2\n        /* \"test53.sol\":16113:16400  function deposit()... */\n      jump\t// out\n        /* \"#utility.yul\":88:205   */\n    tag_76:\n        /* \"#utility.yul\":197:198   */\n      0x00\n        /* \"#utility.yul\":194:195   */\n      0x00\n        /* \"#utility.yul\":187:199   */\n      revert\n        /* \"#utility.yul\":334:460   */\n    tag_78:\n        /* \"#utility.yul\":371:378   */\n      0x00\n        /* \"#utility.yul\":411:453   */\n      0xffffffffffffffffffffffffffffffffffffffff\n        /* \"#utility.yul\":404:409   */\n      dup3\n        /* \"#utility.yul\":400:454   */\n      and\n        /* \"#utility.yul\":389:454   */\n      swap1\n      pop\n        /* \"#utility.yul\":334:460   */\n      swap2\n      swap1\n      pop\n      jump\t// out\n        /* \"#utility.yul\":466:562   */\n    tag_79:\n        /* \"#utility.yul\":503:510   */\n      0x00\n        /* \"#utility.yul\":532:556   */\n      tag_107\n        /* \"#utility.yul\":550:555   */\n      dup3\n        /* \"#utility.yul\":532:556   */\n      tag_78\n      jump\t// in\n    tag_107:\n        /* \"#utility.yul\":521:556   */\n      swap1\n      pop\n        /* \"#utility.yul\":466:562   */\n      swap2\n      swap1\n      pop\n      jump\t// out\n        /* \"#utility.yul\":568:690   */\n    tag_80:\n        /* \"#utility.yul\":641:665   */\n      tag_109\n        /* \"#utility.yul\":659:664   */\n      dup2\n        /* \"#utility.yul\":641:665   */\n      tag_79\n      jump\t// in\n    tag_109:\n        /* \"#utility.yul\":634:639   */\n      dup2\n        /* \"#utility.yul\":631:666   */\n      eq\n        /* \"#utility.yul\":621:684   */\n      tag_110\n      jumpi\n        /* \"#utility.yul\":680:681   */\n      0x00\n        /* \"#utility.yul\":677:678   */\n      0x00\n        /* \"#utility.yul\":670:682   */\n      revert\n        /* \"#utility.yul\":621:684   */\n    tag_110:\n        /* \"#utility.yul\":568:690   */\n      pop\n      jump\t// out\n        /* \"#utility.yul\":696:835   */\n    tag_81:\n        /* \"#utility.yul\":742:747   */\n      0x00\n        /* \"#utility.yul\":780:786   */\n      dup2\n        /* \"#utility.yul\":767:787   */\n      calldataload\n        /* \"#utility.yul\":758:787   */\n      swap1\n      pop\n        /* \"#utility.yul\":796:829   */\n      tag_112\n        /* \"#utility.yul\":823:828   */\n      dup2\n        /* \"#utility.yul\":796:829   */\n      tag_80\n      jump\t// in\n    tag_112:\n        /* \"#utility.yul\":696:835   */\n      swap3\n      swap2\n      pop\n      pop\n      jump\t// out\n        /* \"#utility.yul\":841:1170   */\n    tag_10:\n        /* \"#utility.yul\":900:906   */\n      0x00\n        /* \"#utility.yul\":949:951   */\n      0x20\n        /* \"#utility.yul\":937:946   */\n      dup3\n        /* \"#utility.yul\":928:935   */\n      dup5\n        /* \"#utility.yul\":924:947   */\n      sub\n        /* \"#utility.yul\":920:952   */\n      slt\n        /* \"#utility.yul\":917:1036   */\n      iszero\n      tag_114\n      jumpi\n        /* \"#utility.yul\":955:1034   */\n      tag_115\n      tag_76\n      jump\t// in\n    tag_115:\n        /* \"#utility.yul\":917:1036   */\n    tag_114:\n        /* \"#utility.yul\":1075:1076   */\n      0x00\n        /* \"#utility.yul\":1100:1153   */\n      tag_116\n        /* \"#utility.yul\":1145:1152   */\n      dup5\n        /* \"#utility.yul\":1136:1142   */\n      dup3\n        /* \"#utility.yul\":1125:1134   */\n      dup6\n        /* \"#utility.yul\":1121:1143   */\n      add\n        /* \"#utility.yul\":1100:1153   */\n      tag_81\n      jump\t// in\n    tag_116:\n        /* \"#utility.yul\":1090:1153   */\n      swap2\n      pop\n        /* \"#utility.yul\":1046:1163   */\n      pop\n        /* \"#utility.yul\":841:1170   */\n      swap3\n      swap2\n      pop\n      pop\n      jump\t// out\n        /* \"#utility.yul\":1176:1253   */\n    tag_82:\n        /* \"#utility.yul\":1213:1220   */\n      0x00\n        /* \"#utility.yul\":1242:1247   */\n      dup2\n        /* \"#utility.yul\":1231:1247   */\n      swap1\n      pop\n        /* \"#utility.yul\":1176:1253   */\n      swap2\n      swap1\n      pop\n      jump\t// out\n        /* \"#utility.yul\":1259:1377   */\n    tag_83:\n        /* \"#utility.yul\":1346:1370   */\n      tag_119\n        /* \"#utility.yul\":1364:1369   */\n      dup2\n        /* \"#utility.yul\":1346:1370   */\n      tag_82\n      jump\t// in\n    tag_119:\n        /* \"#utility.yul\":1341:1344   */\n      dup3\n        /* \"#utility.yul\":1334:1371   */\n      mstore\n        /* \"#utility.yul\":1259:1377   */\n      pop\n      pop\n      jump\t// out\n        /* \"#utility.yul\":1383:1605   */\n    tag_13:\n        /* \"#utility.yul\":1476:1480   */\n      0x00\n        /* \"#utility.yul\":1514:1516   */\n      0x20\n        /* \"#utility.yul\":1503:1512   */\n      dup3\n        /* \"#utility.yul\":1499:1517   */\n      add\n        /* \"#utility.yul\":1491:1517   */\n      swap1\n      pop\n        /* \"#utility.yul\":1527:1598   */\n      tag_121\n        /* \"#utility.yul\":1595:1596   */\n      0x00\n        /* \"#utility.yul\":1584:1593   */\n      dup4\n        /* \"#utility.yul\":1580:1597   */\n      add\n        /* \"#utility.yul\":1571:1577   */\n      dup5\n        /* \"#utility.yul\":1527:1598   */\n      tag_83\n      jump\t// in\n    tag_121:\n        /* \"#utility.yul\":1383:1605   */\n      swap3\n      swap2\n      pop\n      pop\n      jump\t// out\n        /* \"#utility.yul\":1611:1733   */\n    tag_84:\n        /* \"#utility.yul\":1684:1708   */\n      tag_123\n        /* \"#utility.yul\":1702:1707   */\n      dup2\n        /* \"#utility.yul\":1684:1708   */\n      tag_82\n      jump\t// in\n    tag_123:\n        /* \"#utility.yul\":1677:1682   */\n      dup2\n        /* \"#utility.yul\":1674:1709   */\n      eq\n        /* \"#utility.yul\":1664:1727   */\n      tag_124\n      jumpi\n        /* \"#utility.yul\":1723:1724   */\n      0x00\n        /* \"#utility.yul\":1720:1721   */\n      0x00\n        /* \"#utility.yul\":1713:1725   */\n      revert\n        /* \"#utility.yul\":1664:1727   */\n    tag_124:\n        /* \"#utility.yul\":1611:1733   */\n      pop\n      jump\t// out\n        /* \"#utility.yul\":1739:1878   */\n    tag_85:\n        /* \"#utility.yul\":1785:1790   */\n      0x00\n        /* \"#utility.yul\":1823:1829   */\n      dup2\n        /* \"#utility.yul\":1810:1830   */\n      calldataload\n        /* \"#utility.yul\":1801:1830   */\n      swap1\n      pop\n        /* \"#utility.yul\":1839:1872   */\n      tag_126\n        /* \"#utility.yul\":1866:1871   */\n      dup2\n        /* \"#utility.yul\":1839:1872   */\n      tag_84\n      jump\t// in\n    tag_126:\n        /* \"#utility.yul\":1739:1878   */\n      swap3\n      swap2\n      pop\n      pop\n      jump\t// out\n        /* \"#utility.yul\":1884:2213   */\n    tag_21:\n        /* \"#utility.yul\":1943:1949   */\n      0x00\n        /* \"#utility.yul\":1992:1994   */\n      0x20\n        /* \"#utility.yul\":1980:1989   */\n      dup3\n        /* \"#utility.yul\":1971:1978   */\n      dup5\n        /* \"#utility.yul\":1967:1990   */\n      sub\n        /* \"#utility.yul\":1963:1995   */\n      slt\n        /* \"#utility.yul\":1960:2079   */\n      iszero\n      tag_128\n      jumpi\n        /* \"#utility.yul\":1998:2077   */\n      tag_129\n      tag_76\n      jump\t// in\n    tag_129:\n        /* \"#utility.yul\":1960:2079   */\n    tag_128:\n        /* \"#utility.yul\":2118:2119   */\n      0x00\n        /* \"#utility.yul\":2143:2196   */\n      tag_130\n        /* \"#utility.yul\":2188:2195   */\n      dup5\n        /* \"#utility.yul\":2179:2185   */\n      dup3\n        /* \"#utility.yul\":2168:2177   */\n      dup6\n        /* \"#utility.yul\":2164:2186   */\n      add\n        /* \"#utility.yul\":2143:2196   */\n      tag_85\n      jump\t// in\n    tag_130:\n        /* \"#utility.yul\":2133:2196   */\n      swap2\n      pop\n        /* \"#utility.yul\":2089:2206   */\n      pop\n        /* \"#utility.yul\":1884:2213   */\n      swap3\n      swap2\n      pop\n      pop\n      jump\t// out\n        /* \"#utility.yul\":2219:2388   */\n    tag_86:\n        /* \"#utility.yul\":2303:2314   */\n      0x00\n        /* \"#utility.yul\":2337:2343   */\n      dup3\n        /* \"#utility.yul\":2332:2335   */\n      dup3\n        /* \"#utility.yul\":2325:2344   */\n      mstore\n        /* \"#utility.yul\":2377:2381   */\n      0x20\n        /* \"#utility.yul\":2372:2375   */\n      dup3\n        /* \"#utility.yul\":2368:2382   */\n      add\n        /* \"#utility.yul\":2353:2382   */\n      swap1\n      pop\n        /* \"#utility.yul\":2219:2388   */\n      swap3\n      swap2\n      pop\n      pop\n      jump\t// out\n        /* \"#utility.yul\":2394:2563   */\n    tag_87:\n        /* \"#utility.yul\":2534:2555   */\n      0x5265656e7472616e637920646574656374656400000000000000000000000000\n        /* \"#utility.yul\":2530:2531   */\n      0x00\n        /* \"#utility.yul\":2522:2528   */\n      dup3\n        /* \"#utility.yul\":2518:2532   */\n      add\n        /* \"#utility.yul\":2511:2556   */\n      mstore\n        /* \"#utility.yul\":2394:2563   */\n      pop\n      jump\t// out\n        /* \"#utility.yul\":2569:2935   */\n    tag_88:\n        /* \"#utility.yul\":2711:2714   */\n      0x00\n        /* \"#utility.yul\":2732:2799   */\n      tag_134\n        /* \"#utility.yul\":2796:2798   */\n      0x13\n        /* \"#utility.yul\":2791:2794   */\n      dup4\n        /* \"#utility.yul\":2732:2799   */\n      tag_86\n      jump\t// in\n    tag_134:\n        /* \"#utility.yul\":2725:2799   */\n      swap2\n      pop\n        /* \"#utility.yul\":2808:2901   */\n      tag_135\n        /* \"#utility.yul\":2897:2900   */\n      dup3\n        /* \"#utility.yul\":2808:2901   */\n      tag_87\n      jump\t// in\n    tag_135:\n        /* \"#utility.yul\":2926:2928   */\n      0x20\n        /* \"#utility.yul\":2921:2924   */\n      dup3\n        /* \"#utility.yul\":2917:2929   */\n      add\n        /* \"#utility.yul\":2910:2929   */\n      swap1\n      pop\n        /* \"#utility.yul\":2569:2935   */\n      swap2\n      swap1\n      pop\n      jump\t// out\n        /* \"#utility.yul\":2941:3360   */\n    tag_33:\n        /* \"#utility.yul\":3107:3111   */\n      0x00\n        /* \"#utility.yul\":3145:3147   */\n      0x20\n        /* \"#utility.yul\":3134:3143   */\n      dup3\n        /* \"#utility.yul\":3130:3148   */\n      add\n        /* \"#utility.yul\":3122:3148   */\n      swap1\n      pop\n        /* \"#utility.yul\":3194:3203   */\n      dup2\n        /* \"#utility.yul\":3188:3192   */\n      dup2\n        /* \"#utility.yul\":3184:3204   */\n      sub\n        /* \"#utility.yul\":3180:3181   */\n      0x00\n        /* \"#utility.yul\":3169:3178   */\n      dup4\n        /* \"#utility.yul\":3165:3182   */\n      add\n        /* \"#utility.yul\":3158:3205   */\n      mstore\n        /* \"#utility.yul\":3222:3353   */\n      tag_137\n        /* \"#utility.yul\":3348:3352   */\n      dup2\n        /* \"#utility.yul\":3222:3353   */\n      tag_88\n      jump\t// in\n    tag_137:\n        /* \"#utility.yul\":3214:3353   */\n      swap1\n      pop\n        /* \"#utility.yul\":2941:3360   */\n      swap2\n      swap1\n      pop\n      jump\t// out\n        /* \"#utility.yul\":3366:3536   */\n    tag_89:\n        /* \"#utility.yul\":3506:3528   */\n      0x496e73756666696369656e742062616c616e6365000000000000000000000000\n        /* \"#utility.yul\":3502:3503   */\n      0x00\n        /* \"#utility.yul\":3494:3500   */\n      dup3\n        /* \"#utility.yul\":3490:3504   */\n      add\n        /* \"#utility.yul\":3483:3529   */\n      mstore\n        /* \"#utility.yul\":3366:3536   */\n      pop\n      jump\t// out\n        /* \"#utility.yul\":3542:3908   */\n    tag_90:\n        /* \"#utility.yul\":3684:3687   */\n      0x00\n        /* \"#utility.yul\":3705:3772   */\n      tag_140\n        /* \"#utility.yul\":3769:3771   */\n      0x14\n        /* \"#utility.yul\":3764:3767   */\n      dup4\n        /* \"#utility.yul\":3705:3772   */\n      tag_86\n      jump\t// in\n    tag_140:\n        /* \"#utility.yul\":3698:3772   */\n      swap2\n      pop\n        /* \"#utility.yul\":3781:3874   */\n      tag_141\n        /* \"#utility.yul\":3870:3873   */\n      dup3\n        /* \"#utility.yul\":3781:3874   */\n      tag_89\n      jump\t// in\n    tag_141:\n        /* \"#utility.yul\":3899:3901   */\n      0x20\n        /* \"#utility.yul\":3894:3897   */\n      dup3\n        /* \"#utility.yul\":3890:3902   */\n      add\n        /* \"#utility.yul\":3883:3902   */\n      swap1\n      pop\n        /* \"#utility.yul\":3542:3908   */\n      swap2\n      swap1\n      pop\n      jump\t// out\n        /* \"#utility.yul\":3914:4333   */\n    tag_37:\n        /* \"#utility.yul\":4080:4084   */\n      0x00\n        /* \"#utility.yul\":4118:4120   */\n      0x20\n        /* \"#utility.yul\":4107:4116   */\n      dup3\n        /* \"#utility.yul\":4103:4121   */\n      add\n        /* \"#utility.yul\":4095:4121   */\n      swap1\n      pop\n        /* \"#utility.yul\":4167:4176   */\n      dup2\n        /* \"#utility.yul\":4161:4165   */\n      dup2\n        /* \"#utility.yul\":4157:4177   */\n      sub\n        /* \"#utility.yul\":4153:4154   */\n      0x00\n        /* \"#utility.yul\":4142:4151   */\n      dup4\n        /* \"#utility.yul\":4138:4155   */\n      add\n        /* \"#utility.yul\":4131:4178   */\n      mstore\n        /* \"#utility.yul\":4195:4326   */\n      tag_143\n        /* \"#utility.yul\":4321:4325   */\n      dup2\n        /* \"#utility.yul\":4195:4326   */\n      tag_90\n      jump\t// in\n    tag_143:\n        /* \"#utility.yul\":4187:4326   */\n      swap1\n      pop\n        /* \"#utility.yul\":3914:4333   */\n      swap2\n      swap1\n      pop\n      jump\t// out\n        /* \"#utility.yul\":4339:4519   */\n    tag_91:\n        /* \"#utility.yul\":4387:4464   */\n      0x4e487b7100000000000000000000000000000000000000000000000000000000\n        /* \"#utility.yul\":4384:4385   */\n      0x00\n        /* \"#utility.yul\":4377:4465   */\n      mstore\n        /* \"#utility.yul\":4484:4488   */\n      0x11\n        /* \"#utility.yul\":4481:4482   */\n      0x04\n        /* \"#utility.yul\":4474:4489   */\n      mstore\n        /* \"#utility.yul\":4508:4512   */\n      0x24\n        /* \"#utility.yul\":4505:4506   */\n      0x00\n        /* \"#utility.yul\":4498:4513   */\n      revert\n        /* \"#utility.yul\":4525:4719   */\n    tag_39:\n        /* \"#utility.yul\":4565:4569   */\n      0x00\n        /* \"#utility.yul\":4585:4605   */\n      tag_146\n        /* \"#utility.yul\":4603:4604   */\n      dup3\n        /* \"#utility.yul\":4585:4605   */\n      tag_82\n      jump\t// in\n    tag_146:\n        /* \"#utility.yul\":4580:4605   */\n      swap2\n      pop\n        /* \"#utility.yul\":4619:4639   */\n      tag_147\n        /* \"#utility.yul\":4637:4638   */\n      dup4\n        /* \"#utility.yul\":4619:4639   */\n      tag_82\n      jump\t// in\n    tag_147:\n        /* \"#utility.yul\":4614:4639   */\n      swap3\n      pop\n        /* \"#utility.yul\":4663:4664   */\n      dup3\n        /* \"#utility.yul\":4660:4661   */\n      dup3\n        /* \"#utility.yul\":4656:4665   */\n      sub\n        /* \"#utility.yul\":4648:4665   */\n      swap1\n      pop\n        /* \"#utility.yul\":4687:4688   */\n      dup2\n        /* \"#utility.yul\":4681:4685   */\n      dup2\n        /* \"#utility.yul\":4678:4689   */\n      gt\n        /* \"#utility.yul\":4675:4712   */\n      iszero\n      tag_148\n      jumpi\n        /* \"#utility.yul\":4692:4710   */\n      tag_149\n      tag_91\n      jump\t// in\n    tag_149:\n        /* \"#utility.yul\":4675:4712   */\n    tag_148:\n        /* \"#utility.yul\":4525:4719   */\n      swap3\n      swap2\n      pop\n      pop\n      jump\t// out\n        /* \"#utility.yul\":4725:4872   */\n    tag_92:\n        /* \"#utility.yul\":4826:4837   */\n      0x00\n        /* \"#utility.yul\":4863:4866   */\n      dup2\n        /* \"#utility.yul\":4848:4866   */\n      swap1\n      pop\n        /* \"#utility.yul\":4725:4872   */\n      swap3\n      swap2\n      pop\n      pop\n      jump\t// out\n        /* \"#utility.yul\":4878:4992   */\n    tag_93:\n      pop\n      jump\t// out\n        /* \"#utility.yul\":4998:5396   */\n    tag_94:\n        /* \"#utility.yul\":5157:5160   */\n      0x00\n        /* \"#utility.yul\":5178:5261   */\n      tag_153\n        /* \"#utility.yul\":5259:5260   */\n      0x00\n        /* \"#utility.yul\":5254:5257   */\n      dup4\n        /* \"#utility.yul\":5178:5261   */\n      tag_92\n      jump\t// in\n    tag_153:\n        /* \"#utility.yul\":5171:5261   */\n      swap2\n      pop\n        /* \"#utility.yul\":5270:5363   */\n      tag_154\n        /* \"#utility.yul\":5359:5362   */\n      dup3\n        /* \"#utility.yul\":5270:5363   */\n      tag_93\n      jump\t// in\n    tag_154:\n        /* \"#utility.yul\":5388:5389   */\n      0x00\n        /* \"#utility.yul\":5383:5386   */\n      dup3\n        /* \"#utility.yul\":5379:5390   */\n      add\n        /* \"#utility.yul\":5372:5390   */\n      swap1\n      pop\n        /* \"#utility.yul\":4998:5396   */\n      swap2\n      swap1\n      pop\n      jump\t// out\n        /* \"#utility.yul\":5402:5781   */\n    tag_41:\n        /* \"#utility.yul\":5586:5589   */\n      0x00\n        /* \"#utility.yul\":5608:5755   */\n      tag_156\n        /* \"#utility.yul\":5751:5754   */\n      dup3\n        /* \"#utility.yul\":5608:5755   */\n      tag_94\n      jump\t// in\n    tag_156:\n        /* \"#utility.yul\":5601:5755   */\n      swap2\n      pop\n        /* \"#utility.yul\":5772:5775   */\n      dup2\n        /* \"#utility.yul\":5765:5775   */\n      swap1\n      pop\n        /* \"#utility.yul\":5402:5781   */\n      swap2\n      swap1\n      pop\n      jump\t// out\n        /* \"#utility.yul\":5787:5978   */\n    tag_47:\n        /* \"#utility.yul\":5827:5830   */\n      0x00\n        /* \"#utility.yul\":5846:5866   */\n      tag_158\n        /* \"#utility.yul\":5864:5865   */\n      dup3\n        /* \"#utility.yul\":5846:5866   */\n      tag_82\n      jump\t// in\n    tag_158:\n        /* \"#utility.yul\":5841:5866   */\n      swap2\n      pop\n        /* \"#utility.yul\":5880:5900   */\n      tag_159\n        /* \"#utility.yul\":5898:5899   */\n      dup4\n        /* \"#utility.yul\":5880:5900   */\n      tag_82\n      jump\t// in\n    tag_159:\n        /* \"#utility.yul\":5875:5900   */\n      swap3\n      pop\n        /* \"#utility.yul\":5923:5924   */\n      dup3\n        /* \"#utility.yul\":5920:5921   */\n      dup3\n        /* \"#utility.yul\":5916:5925   */\n      add\n        /* \"#utility.yul\":5909:5925   */\n      swap1\n      pop\n        /* \"#utility.yul\":5944:5947   */\n      dup1\n        /* \"#utility.yul\":5941:5942   */\n      dup3\n        /* \"#utility.yul\":5938:5948   */\n      gt\n        /* \"#utility.yul\":5935:5971   */\n      iszero\n      tag_160\n      jumpi\n        /* \"#utility.yul\":5951:5969   */\n      tag_161\n      tag_91\n      jump\t// in\n    tag_161:\n        /* \"#utility.yul\":5935:5971   */\n    tag_160:\n        /* \"#utility.yul\":5787:5978   */\n      swap3\n      swap2\n      pop\n      pop\n      jump\t// out\n        /* \"#utility.yul\":5984:6153   */\n    tag_95:\n        /* \"#utility.yul\":6124:6145   */\n      0x455448207472616e73666572206661696c656400000000000000000000000000\n        /* \"#utility.yul\":6120:6121   */\n      0x00\n        /* \"#utility.yul\":6112:6118   */\n      dup3\n        /* \"#utility.yul\":6108:6122   */\n      add\n        /* \"#utility.yul\":6101:6146   */\n      mstore\n        /* \"#utility.yul\":5984:6153   */\n      pop\n      jump\t// out\n        /* \"#utility.yul\":6159:6525   */\n    tag_96:\n        /* \"#utility.yul\":6301:6304   */\n      0x00\n        /* \"#utility.yul\":6322:6389   */\n      tag_164\n        /* \"#utility.yul\":6386:6388   */\n      0x13\n        /* \"#utility.yul\":6381:6384   */\n      dup4\n        /* \"#utility.yul\":6322:6389   */\n      tag_86\n      jump\t// in\n    tag_164:\n        /* \"#utility.yul\":6315:6389   */\n      swap2\n      pop\n        /* \"#utility.yul\":6398:6491   */\n      tag_165\n        /* \"#utility.yul\":6487:6490   */\n      dup3\n        /* \"#utility.yul\":6398:6491   */\n      tag_95\n      jump\t// in\n    tag_165:\n        /* \"#utility.yul\":6516:6518   */\n      0x20\n        /* \"#utility.yul\":6511:6514   */\n      dup3\n        /* \"#utility.yul\":6507:6519   */\n      add\n        /* \"#utility.yul\":6500:6519   */\n      swap1\n      pop\n        /* \"#utility.yul\":6159:6525   */\n      swap2\n      swap1\n      pop\n      jump\t// out\n        /* \"#utility.yul\":6531:6950   */\n    tag_50:\n        /* \"#utility.yul\":6697:6701   */\n      0x00\n        /* \"#utility.yul\":6735:6737   */\n      0x20\n        /* \"#utility.yul\":6724:6733   */\n      dup3\n        /* \"#utility.yul\":6720:6738   */\n      add\n        /* \"#utility.yul\":6712:6738   */\n      swap1\n      pop\n        /* \"#utility.yul\":6784:6793   */\n      dup2\n        /* \"#utility.yul\":6778:6782   */\n      dup2\n        /* \"#utility.yul\":6774:6794   */\n      sub\n        /* \"#utility.yul\":6770:6771   */\n      0x00\n        /* \"#utility.yul\":6759:6768   */\n      dup4\n        /* \"#utility.yul\":6755:6772   */\n      add\n        /* \"#utility.yul\":6748:6795   */\n      mstore\n        /* \"#utility.yul\":6812:6943   */\n      tag_167\n        /* \"#utility.yul\":6938:6942   */\n      dup2\n        /* \"#utility.yul\":6812:6943   */\n      tag_96\n      jump\t// in\n    tag_167:\n        /* \"#utility.yul\":6804:6943   */\n      swap1\n      pop\n        /* \"#utility.yul\":6531:6950   */\n      swap2\n      swap1\n      pop\n      jump\t// out\n        /* \"#utility.yul\":6956:7121   */\n    tag_97:\n        /* \"#utility.yul\":7096:7113   */\n      0x5472616e73666572206661696c65640000000000000000000000000000000000\n        /* \"#utility.yul\":7092:7093   */\n      0x00\n        /* \"#utility.yul\":7084:7090   */\n      dup3\n        /* \"#utility.yul\":7080:7094   */\n      add\n        /* \"#utility.yul\":7073:7114   */\n      mstore\n        /* \"#utility.yul\":6956:7121   */\n      pop\n      jump\t// out\n        /* \"#utility.yul\":7127:7493   */\n    tag_98:\n        /* \"#utility.yul\":7269:7272   */\n      0x00\n        /* \"#utility.yul\":7290:7357   */\n      tag_170\n        /* \"#utility.yul\":7354:7356   */\n      0x0f\n        /* \"#utility.yul\":7349:7352   */\n      dup4\n        /* \"#utility.yul\":7290:7357   */\n      tag_86\n      jump\t// in\n    tag_170:\n        /* \"#utility.yul\":7283:7357   */\n      swap2\n      pop\n        /* \"#utility.yul\":7366:7459   */\n      tag_171\n        /* \"#utility.yul\":7455:7458   */\n      dup3\n        /* \"#utility.yul\":7366:7459   */\n      tag_97\n      jump\t// in\n    tag_171:\n        /* \"#utility.yul\":7484:7486   */\n      0x20\n        /* \"#utility.yul\":7479:7482   */\n      dup3\n        /* \"#utility.yul\":7475:7487   */\n      add\n        /* \"#utility.yul\":7468:7487   */\n      swap1\n      pop\n        /* \"#utility.yul\":7127:7493   */\n      swap2\n      swap1\n      pop\n      jump\t// out\n        /* \"#utility.yul\":7499:7918   */\n    tag_67:\n        /* \"#utility.yul\":7665:7669   */\n      0x00\n        /* \"#utility.yul\":7703:7705   */\n      0x20\n        /* \"#utility.yul\":7692:7701   */\n      dup3\n        /* \"#utility.yul\":7688:7706   */\n      add\n        /* \"#utility.yul\":7680:7706   */\n      swap1\n      pop\n        /* \"#utility.yul\":7752:7761   */\n      dup2\n        /* \"#utility.yul\":7746:7750   */\n      dup2\n        /* \"#utility.yul\":7742:7762   */\n      sub\n        /* \"#utility.yul\":7738:7739   */\n      0x00\n        /* \"#utility.yul\":7727:7736   */\n      dup4\n        /* \"#utility.yul\":7723:7740   */\n      add\n        /* \"#utility.yul\":7716:7763   */\n      mstore\n        /* \"#utility.yul\":7780:7911   */\n      tag_173\n        /* \"#utility.yul\":7906:7910   */\n      dup2\n        /* \"#utility.yul\":7780:7911   */\n      tag_98\n      jump\t// in\n    tag_173:\n        /* \"#utility.yul\":7772:7911   */\n      swap1\n      pop\n        /* \"#utility.yul\":7499:7918   */\n      swap2\n      swap1\n      pop\n      jump\t// out\n        /* \"#utility.yul\":7924:8087   */\n    tag_99:\n        /* \"#utility.yul\":8064:8079   */\n      0x4d7573742073656e642045544800000000000000000000000000000000000000\n        /* \"#utility.yul\":8060:8061   */\n      0x00\n        /* \"#utility.yul\":8052:8058   */\n      dup3\n        /* \"#utility.yul\":8048:8062   */\n      add\n        /* \"#utility.yul\":8041:8080   */\n      mstore\n        /* \"#utility.yul\":7924:8087   */\n      pop\n      jump\t// out\n        /* \"#utility.yul\":8093:8459   */\n    tag_100:\n        /* \"#utility.yul\":8235:8238   */\n      0x00\n        /* \"#utility.yul\":8256:8323   */\n      tag_176\n        /* \"#utility.yul\":8320:8322   */\n      0x0d\n        /* \"#utility.yul\":8315:8318   */\n      dup4\n        /* \"#utility.yul\":8256:8323   */\n      tag_86\n      jump\t// in\n    tag_176:\n        /* \"#utility.yul\":8249:8323   */\n      swap2\n      pop\n        /* \"#utility.yul\":8332:8425   */\n      tag_177\n        /* \"#utility.yul\":8421:8424   */\n      dup3\n        /* \"#utility.yul\":8332:8425   */\n      tag_99\n      jump\t// in\n    tag_177:\n        /* \"#utility.yul\":8450:8452   */\n      0x20\n        /* \"#utility.yul\":8445:8448   */\n      dup3\n        /* \"#utility.yul\":8441:8453   */\n      add\n        /* \"#utility.yul\":8434:8453   */\n      swap1\n      pop\n        /* \"#utility.yul\":8093:8459   */\n      swap2\n      swap1\n      pop\n      jump\t// out\n        /* \"#utility.yul\":8465:8884   */\n    tag_72:\n        /* \"#utility.yul\":8631:8635   */\n      0x00\n        /* \"#utility.yul\":8669:8671   */\n      0x20\n        /* \"#utility.yul\":8658:8667   */\n      dup3\n        /* \"#utility.yul\":8654:8672   */\n      add\n        /* \"#utility.yul\":8646:8672   */\n      swap1\n      pop\n        /* \"#utility.yul\":8718:8727   */\n      dup2\n        /* \"#utility.yul\":8712:8716   */\n      dup2\n        /* \"#utility.yul\":8708:8728   */\n      sub\n        /* \"#utility.yul\":8704:8705   */\n      0x00\n        /* \"#utility.yul\":8693:8702   */\n      dup4\n        /* \"#utility.yul\":8689:8706   */\n      add\n        /* \"#utility.yul\":8682:8729   */\n      mstore\n        /* \"#utility.yul\":8746:8877   */\n      tag_179\n        /* \"#utility.yul\":8872:8876   */\n      dup2\n        /* \"#utility.yul\":8746:8877   */\n      tag_100\n      jump\t// in\n    tag_179:\n        /* \"#utility.yul\":8738:8877   */\n      swap1\n      pop\n        /* \"#utility.yul\":8465:8884   */\n      swap2\n      swap1\n      pop\n      jump\t// out\n\n    auxdata: 0xa2646970667358221220f2b426770194f45e137dcb2c303fa431a241ec4d8109a78ab11de8d0726ba74964736f6c63430008220033\n}\n",
				"bytecode": {
					"linkReferences": {},
					"object": "6080604052348015600e575f5ffd5b50610c158061001c5f395ff3fe608060405260043610610049575f3560e01c806327e235e31461004d5780638b7afe2e14610089578063b0fd035b146100b3578063cc817673146100db578063d0e30db014610103575b5f5ffd5b348015610058575f5ffd5b50610073600480360381019061006e9190610842565b61010d565b6040516100809190610885565b60405180910390f35b348015610094575f5ffd5b5061009d610121565b6040516100aa9190610885565b60405180910390f35b3480156100be575f5ffd5b506100d960048036038101906100d491906108c8565b610128565b005b3480156100e6575f5ffd5b5061010160048036038101906100fc91906108c8565b610414565b005b61010b610700565b005b5f602052805f5260405f205f915090505481565b5f47905090565b60015f9054906101000a900460ff1615610177576040517f08c379a000000000000000000000000000000000000000000000000000000000815260040161016e9061094d565b60405180910390fd5b6001805f6101000a81548160ff021916908315150217905550805f5f3373ffffffffffffffffffffffffffffffffffffffff1673ffffffffffffffffffffffffffffffffffffffff1681526020019081526020015f2054101561020f576040517f08c379a0000000000000000000000000000000000000000000000000000000008152600401610206906109b5565b60405180910390fd5b805f5f3373ffffffffffffffffffffffffffffffffffffffff1673ffffffffffffffffffffffffffffffffffffffff1681526020019081526020015f205f82825461025a9190610a00565b925050819055505f3373ffffffffffffffffffffffffffffffffffffffff168260405161028690610a60565b5f6040518083038185875af1925050503d805f81146102c0576040519150601f19603f3d011682016040523d82523d5f602084013e6102c5565b606091505b50509050806103a957815f5f3373ffffffffffffffffffffffffffffffffffffffff1673ffffffffffffffffffffffffffffffffffffffff1681526020019081526020015f205f8282546103199190610a74565b925050819055503373ffffffffffffffffffffffffffffffffffffffff167f1c43b9761b3fba5321ca8212bfc231945f668ccc0c446f333999eea9ce8fda81836040516103669190610885565b60405180910390a26040517f08c379a00000000000000000000000000000000000000000000000000000000081526004016103a090610af1565b60405180910390fd5b3373ffffffffffffffffffffffffffffffffffffffff167f884edad9ce6fa2440d8a54cc123490eb96d2768479d49ff9c7366125a9424364836040516103ef9190610885565b60405180910390a2505f60015f6101000a81548160ff02191690831515021790555050565b60015f9054906101000a900460ff1615610463576040517f08c379a000000000000000000000000000000000000000000000000000000000815260040161045a9061094d565b60405180910390fd5b6001805f6101000a81548160ff021916908315150217905550805f5f3373ffffffffffffffffffffffffffffffffffffffff1673ffffffffffffffffffffffffffffffffffffffff1681526020019081526020015f205410156104fb576040517f08c379a00000000000000000000000000000000000000000000000000000000081526004016104f2906109b5565b60405180910390fd5b805f5f3373ffffffffffffffffffffffffffffffffffffffff1673ffffffffffffffffffffffffffffffffffffffff1681526020019081526020015f205f8282546105469190610a00565b925050819055505f3373ffffffffffffffffffffffffffffffffffffffff168260405161057290610a60565b5f6040518083038185875af1925050503d805f81146105ac576040519150601f19603f3d011682016040523d82523d5f602084013e6105b1565b606091505b505090508061069557815f5f3373ffffffffffffffffffffffffffffffffffffffff1673ffffffffffffffffffffffffffffffffffffffff1681526020019081526020015f205f8282546106059190610a74565b925050819055503373ffffffffffffffffffffffffffffffffffffffff167f1c43b9761b3fba5321ca8212bfc231945f668ccc0c446f333999eea9ce8fda81836040516106529190610885565b60405180910390a26040517f08c379a000000000000000000000000000000000000000000000000000000000815260040161068c90610b59565b60405180910390fd5b3373ffffffffffffffffffffffffffffffffffffffff167f884edad9ce6fa2440d8a54cc123490eb96d2768479d49ff9c7366125a9424364836040516106db9190610885565b60405180910390a2505f60015f6101000a81548160ff02191690831515021790555050565b5f3411610742576040517f08c379a000000000000000000000000000000000000000000000000000000000815260040161073990610bc1565b60405180910390fd5b345f5f3373ffffffffffffffffffffffffffffffffffffffff1673ffffffffffffffffffffffffffffffffffffffff1681526020019081526020015f205f82825461078d9190610a74565b925050819055503373ffffffffffffffffffffffffffffffffffffffff167fe1fffcc4923d04b559f4d29a8bfc6cda04eb5b0d3c460751c2402c5c5cc9109c346040516107da9190610885565b60405180910390a2565b5f5ffd5b5f73ffffffffffffffffffffffffffffffffffffffff82169050919050565b5f610811826107e8565b9050919050565b61082181610807565b811461082b575f5ffd5b50565b5f8135905061083c81610818565b92915050565b5f60208284031215610857576108566107e4565b5b5f6108648482850161082e565b91505092915050565b5f819050919050565b61087f8161086d565b82525050565b5f6020820190506108985f830184610876565b92915050565b6108a78161086d565b81146108b1575f5ffd5b50565b5f813590506108c28161089e565b92915050565b5f602082840312156108dd576108dc6107e4565b5b5f6108ea848285016108b4565b91505092915050565b5f82825260208201905092915050565b7f5265656e7472616e6379206465746563746564000000000000000000000000005f82015250565b5f6109376013836108f3565b915061094282610903565b602082019050919050565b5f6020820190508181035f8301526109648161092b565b9050919050565b7f496e73756666696369656e742062616c616e63650000000000000000000000005f82015250565b5f61099f6014836108f3565b91506109aa8261096b565b602082019050919050565b5f6020820190508181035f8301526109cc81610993565b9050919050565b7f4e487b71000000000000000000000000000000000000000000000000000000005f52601160045260245ffd5b5f610a0a8261086d565b9150610a158361086d565b9250828203905081811115610a2d57610a2c6109d3565b5b92915050565b5f81905092915050565b50565b5f610a4b5f83610a33565b9150610a5682610a3d565b5f82019050919050565b5f610a6a82610a40565b9150819050919050565b5f610a7e8261086d565b9150610a898361086d565b9250828201905080821115610aa157610aa06109d3565b5b92915050565b7f455448207472616e73666572206661696c6564000000000000000000000000005f82015250565b5f610adb6013836108f3565b9150610ae682610aa7565b602082019050919050565b5f6020820190508181035f830152610b0881610acf565b9050919050565b7f5472616e73666572206661696c656400000000000000000000000000000000005f82015250565b5f610b43600f836108f3565b9150610b4e82610b0f565b602082019050919050565b5f6020820190508181035f830152610b7081610b37565b9050919050565b7f4d7573742073656e6420455448000000000000000000000000000000000000005f82015250565b5f610bab600d836108f3565b9150610bb682610b77565b602082019050919050565b5f6020820190508181035f830152610bd881610b9f565b905091905056fea2646970667358221220f2b426770194f45e137dcb2c303fa431a241ec4d8109a78ab11de8d0726ba74964736f6c63430008220033",
					"opcodes": "PUSH1 0x80 PUSH1 0x40 MSTORE CALLVALUE DUP1 ISZERO PUSH1 0xE JUMPI PUSH0 PUSH0 REVERT JUMPDEST POP PUSH2 0xC15 DUP1 PUSH2 0x1C PUSH0 CODECOPY PUSH0 RETURN INVALID PUSH1 0x80 PUSH1 0x40 MSTORE PUSH1 0x4 CALLDATASIZE LT PUSH2 0x49 JUMPI PUSH0 CALLDATALOAD PUSH1 0xE0 SHR DUP1 PUSH4 0x27E235E3 EQ PUSH2 0x4D JUMPI DUP1 PUSH4 0x8B7AFE2E EQ PUSH2 0x89 JUMPI DUP1 PUSH4 0xB0FD035B EQ PUSH2 0xB3 JUMPI DUP1 PUSH4 0xCC817673 EQ PUSH2 0xDB JUMPI DUP1 PUSH4 0xD0E30DB0 EQ PUSH2 0x103 JUMPI JUMPDEST PUSH0 PUSH0 REVERT JUMPDEST CALLVALUE DUP1 ISZERO PUSH2 0x58 JUMPI PUSH0 PUSH0 REVERT JUMPDEST POP PUSH2 0x73 PUSH1 0x4 DUP1 CALLDATASIZE SUB DUP2 ADD SWAP1 PUSH2 0x6E SWAP2 SWAP1 PUSH2 0x842 JUMP JUMPDEST PUSH2 0x10D JUMP JUMPDEST PUSH1 0x40 MLOAD PUSH2 0x80 SWAP2 SWAP1 PUSH2 0x885 JUMP JUMPDEST PUSH1 0x40 MLOAD DUP1 SWAP2 SUB SWAP1 RETURN JUMPDEST CALLVALUE DUP1 ISZERO PUSH2 0x94 JUMPI PUSH0 PUSH0 REVERT JUMPDEST POP PUSH2 0x9D PUSH2 0x121 JUMP JUMPDEST PUSH1 0x40 MLOAD PUSH2 0xAA SWAP2 SWAP1 PUSH2 0x885 JUMP JUMPDEST PUSH1 0x40 MLOAD DUP1 SWAP2 SUB SWAP1 RETURN JUMPDEST CALLVALUE DUP1 ISZERO PUSH2 0xBE JUMPI PUSH0 PUSH0 REVERT JUMPDEST POP PUSH2 0xD9 PUSH1 0x4 DUP1 CALLDATASIZE SUB DUP2 ADD SWAP1 PUSH2 0xD4 SWAP2 SWAP1 PUSH2 0x8C8 JUMP JUMPDEST PUSH2 0x128 JUMP JUMPDEST STOP JUMPDEST CALLVALUE DUP1 ISZERO PUSH2 0xE6 JUMPI PUSH0 PUSH0 REVERT JUMPDEST POP PUSH2 0x101 PUSH1 0x4 DUP1 CALLDATASIZE SUB DUP2 ADD SWAP1 PUSH2 0xFC SWAP2 SWAP1 PUSH2 0x8C8 JUMP JUMPDEST PUSH2 0x414 JUMP JUMPDEST STOP JUMPDEST PUSH2 0x10B PUSH2 0x700 JUMP JUMPDEST STOP JUMPDEST PUSH0 PUSH1 0x20 MSTORE DUP1 PUSH0 MSTORE PUSH1 0x40 PUSH0 KECCAK256 PUSH0 SWAP2 POP SWAP1 POP SLOAD DUP2 JUMP JUMPDEST PUSH0 SELFBALANCE SWAP1 POP SWAP1 JUMP JUMPDEST PUSH1 0x1 PUSH0 SWAP1 SLOAD SWAP1 PUSH2 0x100 EXP SWAP1 DIV PUSH1 0xFF AND ISZERO PUSH2 0x177 JUMPI PUSH1 0x40 MLOAD PUSH32 0x8C379A000000000000000000000000000000000000000000000000000000000 DUP2 MSTORE PUSH1 0x4 ADD PUSH2 0x16E SWAP1 PUSH2 0x94D JUMP JUMPDEST PUSH1 0x40 MLOAD DUP1 SWAP2 SUB SWAP1 REVERT JUMPDEST PUSH1 0x1 DUP1 PUSH0 PUSH2 0x100 EXP DUP2 SLOAD DUP2 PUSH1 0xFF MUL NOT AND SWAP1 DUP4 ISZERO ISZERO MUL OR SWAP1 SSTORE POP DUP1 PUSH0 PUSH0 CALLER PUSH20 0xFFFFFFFFFFFFFFFFFFFFFFFFFFFFFFFFFFFFFFFF AND PUSH20 0xFFFFFFFFFFFFFFFFFFFFFFFFFFFFFFFFFFFFFFFF AND DUP2 MSTORE PUSH1 0x20 ADD SWAP1 DUP2 MSTORE PUSH1 0x20 ADD PUSH0 KECCAK256 SLOAD LT ISZERO PUSH2 0x20F JUMPI PUSH1 0x40 MLOAD PUSH32 0x8C379A000000000000000000000000000000000000000000000000000000000 DUP2 MSTORE PUSH1 0x4 ADD PUSH2 0x206 SWAP1 PUSH2 0x9B5 JUMP JUMPDEST PUSH1 0x40 MLOAD DUP1 SWAP2 SUB SWAP1 REVERT JUMPDEST DUP1 PUSH0 PUSH0 CALLER PUSH20 0xFFFFFFFFFFFFFFFFFFFFFFFFFFFFFFFFFFFFFFFF AND PUSH20 0xFFFFFFFFFFFFFFFFFFFFFFFFFFFFFFFFFFFFFFFF AND DUP2 MSTORE PUSH1 0x20 ADD SWAP1 DUP2 MSTORE PUSH1 0x20 ADD PUSH0 KECCAK256 PUSH0 DUP3 DUP3 SLOAD PUSH2 0x25A SWAP2 SWAP1 PUSH2 0xA00 JUMP JUMPDEST SWAP3 POP POP DUP2 SWAP1 SSTORE POP PUSH0 CALLER PUSH20 0xFFFFFFFFFFFFFFFFFFFFFFFFFFFFFFFFFFFFFFFF AND DUP3 PUSH1 0x40 MLOAD PUSH2 0x286 SWAP1 PUSH2 0xA60 JUMP JUMPDEST PUSH0 PUSH1 0x40 MLOAD DUP1 DUP4 SUB DUP2 DUP6 DUP8 GAS CALL SWAP3 POP POP POP RETURNDATASIZE DUP1 PUSH0 DUP2 EQ PUSH2 0x2C0 JUMPI PUSH1 0x40 MLOAD SWAP2 POP PUSH1 0x1F NOT PUSH1 0x3F RETURNDATASIZE ADD AND DUP3 ADD PUSH1 0x40 MSTORE RETURNDATASIZE DUP3 MSTORE RETURNDATASIZE PUSH0 PUSH1 0x20 DUP5 ADD RETURNDATACOPY PUSH2 0x2C5 JUMP JUMPDEST PUSH1 0x60 SWAP2 POP JUMPDEST POP POP SWAP1 POP DUP1 PUSH2 0x3A9 JUMPI DUP2 PUSH0 PUSH0 CALLER PUSH20 0xFFFFFFFFFFFFFFFFFFFFFFFFFFFFFFFFFFFFFFFF AND PUSH20 0xFFFFFFFFFFFFFFFFFFFFFFFFFFFFFFFFFFFFFFFF AND DUP2 MSTORE PUSH1 0x20 ADD SWAP1 DUP2 MSTORE PUSH1 0x20 ADD PUSH0 KECCAK256 PUSH0 DUP3 DUP3 SLOAD PUSH2 0x319 SWAP2 SWAP1 PUSH2 0xA74 JUMP JUMPDEST SWAP3 POP POP DUP2 SWAP1 SSTORE POP CALLER PUSH20 0xFFFFFFFFFFFFFFFFFFFFFFFFFFFFFFFFFFFFFFFF AND PUSH32 0x1C43B9761B3FBA5321CA8212BFC231945F668CCC0C446F333999EEA9CE8FDA81 DUP4 PUSH1 0x40 MLOAD PUSH2 0x366 SWAP2 SWAP1 PUSH2 0x885 JUMP JUMPDEST PUSH1 0x40 MLOAD DUP1 SWAP2 SUB SWAP1 LOG2 PUSH1 0x40 MLOAD PUSH32 0x8C379A000000000000000000000000000000000000000000000000000000000 DUP2 MSTORE PUSH1 0x4 ADD PUSH2 0x3A0 SWAP1 PUSH2 0xAF1 JUMP JUMPDEST PUSH1 0x40 MLOAD DUP1 SWAP2 SUB SWAP1 REVERT JUMPDEST CALLER PUSH20 0xFFFFFFFFFFFFFFFFFFFFFFFFFFFFFFFFFFFFFFFF AND PUSH32 0x884EDAD9CE6FA2440D8A54CC123490EB96D2768479D49FF9C7366125A9424364 DUP4 PUSH1 0x40 MLOAD PUSH2 0x3EF SWAP2 SWAP1 PUSH2 0x885 JUMP JUMPDEST PUSH1 0x40 MLOAD DUP1 SWAP2 SUB SWAP1 LOG2 POP PUSH0 PUSH1 0x1 PUSH0 PUSH2 0x100 EXP DUP2 SLOAD DUP2 PUSH1 0xFF MUL NOT AND SWAP1 DUP4 ISZERO ISZERO MUL OR SWAP1 SSTORE POP POP JUMP JUMPDEST PUSH1 0x1 PUSH0 SWAP1 SLOAD SWAP1 PUSH2 0x100 EXP SWAP1 DIV PUSH1 0xFF AND ISZERO PUSH2 0x463 JUMPI PUSH1 0x40 MLOAD PUSH32 0x8C379A000000000000000000000000000000000000000000000000000000000 DUP2 MSTORE PUSH1 0x4 ADD PUSH2 0x45A SWAP1 PUSH2 0x94D JUMP JUMPDEST PUSH1 0x40 MLOAD DUP1 SWAP2 SUB SWAP1 REVERT JUMPDEST PUSH1 0x1 DUP1 PUSH0 PUSH2 0x100 EXP DUP2 SLOAD DUP2 PUSH1 0xFF MUL NOT AND SWAP1 DUP4 ISZERO ISZERO MUL OR SWAP1 SSTORE POP DUP1 PUSH0 PUSH0 CALLER PUSH20 0xFFFFFFFFFFFFFFFFFFFFFFFFFFFFFFFFFFFFFFFF AND PUSH20 0xFFFFFFFFFFFFFFFFFFFFFFFFFFFFFFFFFFFFFFFF AND DUP2 MSTORE PUSH1 0x20 ADD SWAP1 DUP2 MSTORE PUSH1 0x20 ADD PUSH0 KECCAK256 SLOAD LT ISZERO PUSH2 0x4FB JUMPI PUSH1 0x40 MLOAD PUSH32 0x8C379A000000000000000000000000000000000000000000000000000000000 DUP2 MSTORE PUSH1 0x4 ADD PUSH2 0x4F2 SWAP1 PUSH2 0x9B5 JUMP JUMPDEST PUSH1 0x40 MLOAD DUP1 SWAP2 SUB SWAP1 REVERT JUMPDEST DUP1 PUSH0 PUSH0 CALLER PUSH20 0xFFFFFFFFFFFFFFFFFFFFFFFFFFFFFFFFFFFFFFFF AND PUSH20 0xFFFFFFFFFFFFFFFFFFFFFFFFFFFFFFFFFFFFFFFF AND DUP2 MSTORE PUSH1 0x20 ADD SWAP1 DUP2 MSTORE PUSH1 0x20 ADD PUSH0 KECCAK256 PUSH0 DUP3 DUP3 SLOAD PUSH2 0x546 SWAP2 SWAP1 PUSH2 0xA00 JUMP JUMPDEST SWAP3 POP POP DUP2 SWAP1 SSTORE POP PUSH0 CALLER PUSH20 0xFFFFFFFFFFFFFFFFFFFFFFFFFFFFFFFFFFFFFFFF AND DUP3 PUSH1 0x40 MLOAD PUSH2 0x572 SWAP1 PUSH2 0xA60 JUMP JUMPDEST PUSH0 PUSH1 0x40 MLOAD DUP1 DUP4 SUB DUP2 DUP6 DUP8 GAS CALL SWAP3 POP POP POP RETURNDATASIZE DUP1 PUSH0 DUP2 EQ PUSH2 0x5AC JUMPI PUSH1 0x40 MLOAD SWAP2 POP PUSH1 0x1F NOT PUSH1 0x3F RETURNDATASIZE ADD AND DUP3 ADD PUSH1 0x40 MSTORE RETURNDATASIZE DUP3 MSTORE RETURNDATASIZE PUSH0 PUSH1 0x20 DUP5 ADD RETURNDATACOPY PUSH2 0x5B1 JUMP JUMPDEST PUSH1 0x60 SWAP2 POP JUMPDEST POP POP SWAP1 POP DUP1 PUSH2 0x695 JUMPI DUP2 PUSH0 PUSH0 CALLER PUSH20 0xFFFFFFFFFFFFFFFFFFFFFFFFFFFFFFFFFFFFFFFF AND PUSH20 0xFFFFFFFFFFFFFFFFFFFFFFFFFFFFFFFFFFFFFFFF AND DUP2 MSTORE PUSH1 0x20 ADD SWAP1 DUP2 MSTORE PUSH1 0x20 ADD PUSH0 KECCAK256 PUSH0 DUP3 DUP3 SLOAD PUSH2 0x605 SWAP2 SWAP1 PUSH2 0xA74 JUMP JUMPDEST SWAP3 POP POP DUP2 SWAP1 SSTORE POP CALLER PUSH20 0xFFFFFFFFFFFFFFFFFFFFFFFFFFFFFFFFFFFFFFFF AND PUSH32 0x1C43B9761B3FBA5321CA8212BFC231945F668CCC0C446F333999EEA9CE8FDA81 DUP4 PUSH1 0x40 MLOAD PUSH2 0x652 SWAP2 SWAP1 PUSH2 0x885 JUMP JUMPDEST PUSH1 0x40 MLOAD DUP1 SWAP2 SUB SWAP1 LOG2 PUSH1 0x40 MLOAD PUSH32 0x8C379A000000000000000000000000000000000000000000000000000000000 DUP2 MSTORE PUSH1 0x4 ADD PUSH2 0x68C SWAP1 PUSH2 0xB59 JUMP JUMPDEST PUSH1 0x40 MLOAD DUP1 SWAP2 SUB SWAP1 REVERT JUMPDEST CALLER PUSH20 0xFFFFFFFFFFFFFFFFFFFFFFFFFFFFFFFFFFFFFFFF AND PUSH32 0x884EDAD9CE6FA2440D8A54CC123490EB96D2768479D49FF9C7366125A9424364 DUP4 PUSH1 0x40 MLOAD PUSH2 0x6DB SWAP2 SWAP1 PUSH2 0x885 JUMP JUMPDEST PUSH1 0x40 MLOAD DUP1 SWAP2 SUB SWAP1 LOG2 POP PUSH0 PUSH1 0x1 PUSH0 PUSH2 0x100 EXP DUP2 SLOAD DUP2 PUSH1 0xFF MUL NOT AND SWAP1 DUP4 ISZERO ISZERO MUL OR SWAP1 SSTORE POP POP JUMP JUMPDEST PUSH0 CALLVALUE GT PUSH2 0x742 JUMPI PUSH1 0x40 MLOAD PUSH32 0x8C379A000000000000000000000000000000000000000000000000000000000 DUP2 MSTORE PUSH1 0x4 ADD PUSH2 0x739 SWAP1 PUSH2 0xBC1 JUMP JUMPDEST PUSH1 0x40 MLOAD DUP1 SWAP2 SUB SWAP1 REVERT JUMPDEST CALLVALUE PUSH0 PUSH0 CALLER PUSH20 0xFFFFFFFFFFFFFFFFFFFFFFFFFFFFFFFFFFFFFFFF AND PUSH20 0xFFFFFFFFFFFFFFFFFFFFFFFFFFFFFFFFFFFFFFFF AND DUP2 MSTORE PUSH1 0x20 ADD SWAP1 DUP2 MSTORE PUSH1 0x20 ADD PUSH0 KECCAK256 PUSH0 DUP3 DUP3 SLOAD PUSH2 0x78D SWAP2 SWAP1 PUSH2 0xA74 JUMP JUMPDEST SWAP3 POP POP DUP2 SWAP1 SSTORE POP CALLER PUSH20 0xFFFFFFFFFFFFFFFFFFFFFFFFFFFFFFFFFFFFFFFF AND PUSH32 0xE1FFFCC4923D04B559F4D29A8BFC6CDA04EB5B0D3C460751C2402C5C5CC9109C CALLVALUE PUSH1 0x40 MLOAD PUSH2 0x7DA SWAP2 SWAP1 PUSH2 0x885 JUMP JUMPDEST PUSH1 0x40 MLOAD DUP1 SWAP2 SUB SWAP1 LOG2 JUMP JUMPDEST PUSH0 PUSH0 REVERT JUMPDEST PUSH0 PUSH20 0xFFFFFFFFFFFFFFFFFFFFFFFFFFFFFFFFFFFFFFFF DUP3 AND SWAP1 POP SWAP2 SWAP1 POP JUMP JUMPDEST PUSH0 PUSH2 0x811 DUP3 PUSH2 0x7E8 JUMP JUMPDEST SWAP1 POP SWAP2 SWAP1 POP JUMP JUMPDEST PUSH2 0x821 DUP2 PUSH2 0x807 JUMP JUMPDEST DUP2 EQ PUSH2 0x82B JUMPI PUSH0 PUSH0 REVERT JUMPDEST POP JUMP JUMPDEST PUSH0 DUP2 CALLDATALOAD SWAP1 POP PUSH2 0x83C DUP2 PUSH2 0x818 JUMP JUMPDEST SWAP3 SWAP2 POP POP JUMP JUMPDEST PUSH0 PUSH1 0x20 DUP3 DUP5 SUB SLT ISZERO PUSH2 0x857 JUMPI PUSH2 0x856 PUSH2 0x7E4 JUMP JUMPDEST JUMPDEST PUSH0 PUSH2 0x864 DUP5 DUP3 DUP6 ADD PUSH2 0x82E JUMP JUMPDEST SWAP2 POP POP SWAP3 SWAP2 POP POP JUMP JUMPDEST PUSH0 DUP2 SWAP1 POP SWAP2 SWAP1 POP JUMP JUMPDEST PUSH2 0x87F DUP2 PUSH2 0x86D JUMP JUMPDEST DUP3 MSTORE POP POP JUMP JUMPDEST PUSH0 PUSH1 0x20 DUP3 ADD SWAP1 POP PUSH2 0x898 PUSH0 DUP4 ADD DUP5 PUSH2 0x876 JUMP JUMPDEST SWAP3 SWAP2 POP POP JUMP JUMPDEST PUSH2 0x8A7 DUP2 PUSH2 0x86D JUMP JUMPDEST DUP2 EQ PUSH2 0x8B1 JUMPI PUSH0 PUSH0 REVERT JUMPDEST POP JUMP JUMPDEST PUSH0 DUP2 CALLDATALOAD SWAP1 POP PUSH2 0x8C2 DUP2 PUSH2 0x89E JUMP JUMPDEST SWAP3 SWAP2 POP POP JUMP JUMPDEST PUSH0 PUSH1 0x20 DUP3 DUP5 SUB SLT ISZERO PUSH2 0x8DD JUMPI PUSH2 0x8DC PUSH2 0x7E4 JUMP JUMPDEST JUMPDEST PUSH0 PUSH2 0x8EA DUP5 DUP3 DUP6 ADD PUSH2 0x8B4 JUMP JUMPDEST SWAP2 POP POP SWAP3 SWAP2 POP POP JUMP JUMPDEST PUSH0 DUP3 DUP3 MSTORE PUSH1 0x20 DUP3 ADD SWAP1 POP SWAP3 SWAP2 POP POP JUMP JUMPDEST PUSH32 0x5265656E7472616E637920646574656374656400000000000000000000000000 PUSH0 DUP3 ADD MSTORE POP JUMP JUMPDEST PUSH0 PUSH2 0x937 PUSH1 0x13 DUP4 PUSH2 0x8F3 JUMP JUMPDEST SWAP2 POP PUSH2 0x942 DUP3 PUSH2 0x903 JUMP JUMPDEST PUSH1 0x20 DUP3 ADD SWAP1 POP SWAP2 SWAP1 POP JUMP JUMPDEST PUSH0 PUSH1 0x20 DUP3 ADD SWAP1 POP DUP2 DUP2 SUB PUSH0 DUP4 ADD MSTORE PUSH2 0x964 DUP2 PUSH2 0x92B JUMP JUMPDEST SWAP1 POP SWAP2 SWAP1 POP JUMP JUMPDEST PUSH32 0x496E73756666696369656E742062616C616E6365000000000000000000000000 PUSH0 DUP3 ADD MSTORE POP JUMP JUMPDEST PUSH0 PUSH2 0x99F PUSH1 0x14 DUP4 PUSH2 0x8F3 JUMP JUMPDEST SWAP2 POP PUSH2 0x9AA DUP3 PUSH2 0x96B JUMP JUMPDEST PUSH1 0x20 DUP3 ADD SWAP1 POP SWAP2 SWAP1 POP JUMP JUMPDEST PUSH0 PUSH1 0x20 DUP3 ADD SWAP1 POP DUP2 DUP2 SUB PUSH0 DUP4 ADD MSTORE PUSH2 0x9CC DUP2 PUSH2 0x993 JUMP JUMPDEST SWAP1 POP SWAP2 SWAP1 POP JUMP JUMPDEST PUSH32 0x4E487B7100000000000000000000000000000000000000000000000000000000 PUSH0 MSTORE PUSH1 0x11 PUSH1 0x4 MSTORE PUSH1 0x24 PUSH0 REVERT JUMPDEST PUSH0 PUSH2 0xA0A DUP3 PUSH2 0x86D JUMP JUMPDEST SWAP2 POP PUSH2 0xA15 DUP4 PUSH2 0x86D JUMP JUMPDEST SWAP3 POP DUP3 DUP3 SUB SWAP1 POP DUP2 DUP2 GT ISZERO PUSH2 0xA2D JUMPI PUSH2 0xA2C PUSH2 0x9D3 JUMP JUMPDEST JUMPDEST SWAP3 SWAP2 POP POP JUMP JUMPDEST PUSH0 DUP2 SWAP1 POP SWAP3 SWAP2 POP POP JUMP JUMPDEST POP JUMP JUMPDEST PUSH0 PUSH2 0xA4B PUSH0 DUP4 PUSH2 0xA33 JUMP JUMPDEST SWAP2 POP PUSH2 0xA56 DUP3 PUSH2 0xA3D JUMP JUMPDEST PUSH0 DUP3 ADD SWAP1 POP SWAP2 SWAP1 POP JUMP JUMPDEST PUSH0 PUSH2 0xA6A DUP3 PUSH2 0xA40 JUMP JUMPDEST SWAP2 POP DUP2 SWAP1 POP SWAP2 SWAP1 POP JUMP JUMPDEST PUSH0 PUSH2 0xA7E DUP3 PUSH2 0x86D JUMP JUMPDEST SWAP2 POP PUSH2 0xA89 DUP4 PUSH2 0x86D JUMP JUMPDEST SWAP3 POP DUP3 DUP3 ADD SWAP1 POP DUP1 DUP3 GT ISZERO PUSH2 0xAA1 JUMPI PUSH2 0xAA0 PUSH2 0x9D3 JUMP JUMPDEST JUMPDEST SWAP3 SWAP2 POP POP JUMP JUMPDEST PUSH32 0x455448207472616E73666572206661696C656400000000000000000000000000 PUSH0 DUP3 ADD MSTORE POP JUMP JUMPDEST PUSH0 PUSH2 0xADB PUSH1 0x13 DUP4 PUSH2 0x8F3 JUMP JUMPDEST SWAP2 POP PUSH2 0xAE6 DUP3 PUSH2 0xAA7 JUMP JUMPDEST PUSH1 0x20 DUP3 ADD SWAP1 POP SWAP2 SWAP1 POP JUMP JUMPDEST PUSH0 PUSH1 0x20 DUP3 ADD SWAP1 POP DUP2 DUP2 SUB PUSH0 DUP4 ADD MSTORE PUSH2 0xB08 DUP2 PUSH2 0xACF JUMP JUMPDEST SWAP1 POP SWAP2 SWAP1 POP JUMP JUMPDEST PUSH32 0x5472616E73666572206661696C65640000000000000000000000000000000000 PUSH0 DUP3 ADD MSTORE POP JUMP JUMPDEST PUSH0 PUSH2 0xB43 PUSH1 0xF DUP4 PUSH2 0x8F3 JUMP JUMPDEST SWAP2 POP PUSH2 0xB4E DUP3 PUSH2 0xB0F JUMP JUMPDEST PUSH1 0x20 DUP3 ADD SWAP1 POP SWAP2 SWAP1 POP JUMP JUMPDEST PUSH0 PUSH1 0x20 DUP3 ADD SWAP1 POP DUP2 DUP2 SUB PUSH0 DUP4 ADD MSTORE PUSH2 0xB70 DUP2 PUSH2 0xB37 JUMP JUMPDEST SWAP1 POP SWAP2 SWAP1 POP JUMP JUMPDEST PUSH32 0x4D7573742073656E642045544800000000000000000000000000000000000000 PUSH0 DUP3 ADD MSTORE POP JUMP JUMPDEST PUSH0 PUSH2 0xBAB PUSH1 0xD DUP4 PUSH2 0x8F3 JUMP JUMPDEST SWAP2 POP PUSH2 0xBB6 DUP3 PUSH2 0xB77 JUMP JUMPDEST PUSH1 0x20 DUP3 ADD SWAP1 POP SWAP2 SWAP1 POP JUMP JUMPDEST PUSH0 PUSH1 0x20 DUP3 ADD SWAP1 POP DUP2 DUP2 SUB PUSH0 DUP4 ADD MSTORE PUSH2 0xBD8 DUP2 PUSH2 0xB9F JUMP JUMPDEST SWAP1 POP SWAP2 SWAP1 POP JUMP INVALID LOG2 PUSH5 0x6970667358 0x22 SLT KECCAK256 CALLCODE 0xB4 0x26 PUSH24 0x194F45E137DCB2C303FA431A241EC4D8109A78AB11DE8D0 PUSH19 0x6BA74964736F6C634300082200330000000000 "
				},
				"gasEstimates": {
					"creation": {
						"codeDepositCost": "618600",
						"executionCost": "649",
						"totalCost": "619249"
					},
					"external": {
						"balances(address)": "2779",
						"contractBalance()": "334",
						"deposit()": "infinite",
						"safeWithdraw(uint256)": "infinite",
						"vulnerableWithdraw(uint256)": "infinite"
					}
				},
				"methodIdentifiers": {
					"balances(address)": "27e235e3",
					"contractBalance()": "8b7afe2e",
					"deposit()": "d0e30db0",
					"safeWithdraw(uint256)": "b0fd035b",
					"vulnerableWithdraw(uint256)": "cc817673"
				}
			},
			"storageLayout": {
				"storage": [
					{
						"astId": 5,
						"contract": "test53.sol:LowLevelCallExample",
						"label": "balances",
						"offset": 0,
						"slot": "0",
						"type": "t_mapping(t_address,t_uint256)"
					},
					{
						"astId": 7,
						"contract": "test53.sol:LowLevelCallExample",
						"label": "locked",
						"offset": 0,
						"slot": "1",
						"type": "t_bool"
					}
				],
				"types": {
					"t_address": {
						"encoding": "inplace",
						"label": "address",
						"numberOfBytes": "20"
					},
					"t_bool": {
						"encoding": "inplace",
						"label": "bool",
						"numberOfBytes": "1"
					},
					"t_mapping(t_address,t_uint256)": {
						"encoding": "mapping",
						"key": "t_address",
						"label": "mapping(address => uint256)",
						"numberOfBytes": "32",
						"value": "t_uint256"
					},
					"t_uint256": {
						"encoding": "inplace",
						"label": "uint256",
						"numberOfBytes": "32"
					}
				}
			},
			"userdoc": {
				"kind": "user",
				"methods": {},
				"version": 1
			}
		}
	}
}