{
	"test74.sol": {
		"ZeroValueEdgeCase": {
			"abi": [
				{
					"anonymous": false,
					"inputs": [
						{
							"indexed": true,
							"internalType": "address",
							"name": "user",
							"type": "address"
						},
						{
							"indexed": false,
							"internalType": "uint256",
							"name": "value",
							"type": "uint256"
						}
					],
					"name": "ValueAdded",
					"type": "event"
				},
				{
					"inputs": [
						{
							"internalType": "uint256",
							"name": "value",
							"type": "uint256"
						}
					],
					"name": "addValue",
					"outputs": [],
					"stateMutability": "nonpayable",
					"type": "function"
				},
				{
					"inputs": [
						{
							"internalType": "uint256",
							"name": "value",
							"type": "uint256"
						}
					],
					"name": "addValueSafe",
					"outputs": [],
					"stateMutability": "nonpayable",
					"type": "function"
				},
				{
					"inputs": [],
					"name": "compareGas",
					"outputs": [
						{
							"internalType": "uint256",
							"name": "withoutValidation",
							"type": "uint256"
						},
						{
							"internalType": "uint256",
							"name": "withValidation",
							"type": "uint256"
						}
					],
					"stateMutability": "view",
					"type": "function"
				},
				{
					"inputs": [],
					"name": "counter",
					"outputs": [
						{
							"internalType": "uint256",
							"name": "",
							"type": "uint256"
						}
					],
					"stateMutability": "view",
					"type": "function"
				},
				{
					"inputs": [],
					"name": "gasWithValidation",
					"outputs": [
						{
							"internalType": "uint256",
							"name": "",
							"type": "uint256"
						}
					],
					"stateMutability": "view",
					"type": "function"
				},
				{
					"inputs": [],
					"name": "gasWithoutValidation",
					"outputs": [
						{
							"internalType": "uint256",
							"name": "",
							"type": "uint256"
						}
					],
					"stateMutability": "view",
					"type": "function"
				},
				{
					"inputs": [],
					"name": "lastInput",
					"outputs": [
						{
							"internalType": "uint256",
							"name": "",
							"type": "uint256"
						}
					],
					"stateMutability": "view",
					"type": "function"
				},
				{
					"inputs": [],
					"name": "maxUint",
					"outputs": [
						{
							"internalType": "uint256",
							"name": "",
							"type": "uint256"
						}
					],
					"stateMutability": "pure",
					"type": "function"
				},
				{
					"inputs": [],
					"name": "total",
					"outputs": [
						{
							"internalType": "uint256",
							"name": "",
							"type": "uint256"
						}
					],
					"stateMutability": "view",
					"type": "function"
				}
			],
			"devdoc": {
				"kind": "dev",
				"methods": {},
				"version": 1
			},
			"evm": {
				"assembly": "    /* \"test74.sol\":11105:13500  contract ZeroValueEdgeCase {... */\n  mstore(0x40, 0x80)\n  callvalue\n  dup1\n  iszero\n  tag_1\n  jumpi\n  revert(0x00, 0x00)\ntag_1:\n  pop\n  dataSize(sub_0)\n  dup1\n  dataOffset(sub_0)\n  0x00\n  codecopy\n  0x00\n  return\nstop\n\nsub_0: assembly {\n        /* \"test74.sol\":11105:13500  contract ZeroValueEdgeCase {... */\n      mstore(0x40, 0x80)\n      callvalue\n      dup1\n      iszero\n      tag_1\n      jumpi\n      revert(0x00, 0x00)\n    tag_1:\n      pop\n      jumpi(tag_2, lt(calldatasize, 0x04))\n      shr(0xe0, calldataload(0x00))\n      dup1\n      0x61bc221a\n      gt\n      tag_12\n      jumpi\n      dup1\n      0x61bc221a\n      eq\n      tag_7\n      jumpi\n      dup1\n      0x6d880102\n      eq\n      tag_8\n      jumpi\n      dup1\n      0x76cdf0fa\n      eq\n      tag_9\n      jumpi\n      dup1\n      0x8f32aa78\n      eq\n      tag_10\n      jumpi\n      dup1\n      0xff59c42b\n      eq\n      tag_11\n      jumpi\n      jump(tag_2)\n    tag_12:\n      dup1\n      0x16a0c5b5\n      eq\n      tag_3\n      jumpi\n      dup1\n      0x2ddbd13a\n      eq\n      tag_4\n      jumpi\n      dup1\n      0x53a7df05\n      eq\n      tag_5\n      jumpi\n      dup1\n      0x5b9af12b\n      eq\n      tag_6\n      jumpi\n    tag_2:\n      revert(0x00, 0x00)\n        /* \"test74.sol\":13358:13497  function maxUint()... */\n    tag_3:\n      tag_13\n      tag_14\n      jump\t// in\n    tag_13:\n      mload(0x40)\n      tag_15\n      swap2\n      swap1\n      tag_16\n      jump\t// in\n    tag_15:\n      mload(0x40)\n      dup1\n      swap2\n      sub\n      swap1\n      return\n        /* \"test74.sol\":11178:11198  uint256 public total */\n    tag_4:\n      tag_17\n      tag_18\n      jump\t// in\n    tag_17:\n      mload(0x40)\n      tag_19\n      swap2\n      swap1\n      tag_16\n      jump\t// in\n    tag_19:\n      mload(0x40)\n      dup1\n      swap2\n      sub\n      swap1\n      return\n        /* \"test74.sol\":11341:11373  uint256 public gasWithValidation */\n    tag_5:\n      tag_20\n      tag_21\n      jump\t// in\n    tag_20:\n      mload(0x40)\n      tag_22\n      swap2\n      swap1\n      tag_16\n      jump\t// in\n    tag_22:\n      mload(0x40)\n      dup1\n      swap2\n      sub\n      swap1\n      return\n        /* \"test74.sol\":11620:11912  function addValue(... */\n    tag_6:\n      tag_23\n      0x04\n      dup1\n      calldatasize\n      sub\n      dup2\n      add\n      swap1\n      tag_24\n      swap2\n      swap1\n      tag_25\n      jump\t// in\n    tag_24:\n      tag_26\n      jump\t// in\n    tag_23:\n      stop\n        /* \"test74.sol\":11236:11258  uint256 public counter */\n    tag_7:\n      tag_27\n      tag_28\n      jump\t// in\n    tag_27:\n      mload(0x40)\n      tag_29\n      swap2\n      swap1\n      tag_16\n      jump\t// in\n    tag_29:\n      mload(0x40)\n      dup1\n      swap2\n      sub\n      swap1\n      return\n        /* \"test74.sol\":11205:11229  uint256 public lastInput */\n    tag_8:\n      tag_30\n      tag_31\n      jump\t// in\n    tag_30:\n      mload(0x40)\n      tag_32\n      swap2\n      swap1\n      tag_16\n      jump\t// in\n    tag_32:\n      mload(0x40)\n      dup1\n      swap2\n      sub\n      swap1\n      return\n        /* \"test74.sol\":11299:11334  uint256 public gasWithoutValidation */\n    tag_9:\n      tag_33\n      tag_34\n      jump\t// in\n    tag_33:\n      mload(0x40)\n      tag_35\n      swap2\n      swap1\n      tag_16\n      jump\t// in\n    tag_35:\n      mload(0x40)\n      dup1\n      swap2\n      sub\n      swap1\n      return\n        /* \"test74.sol\":12928:13197  function compareGas()... */\n    tag_10:\n      tag_36\n      tag_37\n      jump\t// in\n    tag_36:\n      mload(0x40)\n      tag_38\n      swap3\n      swap2\n      swap1\n      tag_39\n      jump\t// in\n    tag_38:\n      mload(0x40)\n      dup1\n      swap2\n      sub\n      swap1\n      return\n        /* \"test74.sol\":12016:12766  function addValueSafe(... */\n    tag_11:\n      tag_40\n      0x04\n      dup1\n      calldatasize\n      sub\n      dup2\n      add\n      swap1\n      tag_41\n      swap2\n      swap1\n      tag_25\n      jump\t// in\n    tag_41:\n      tag_42\n      jump\t// in\n    tag_40:\n      stop\n        /* \"test74.sol\":13358:13497  function maxUint()... */\n    tag_14:\n        /* \"test74.sol\":13427:13434  uint256 */\n      0x00\n        /* \"test74.sol\":13472:13489  type(uint256).max */\n      0xffffffffffffffffffffffffffffffffffffffffffffffffffffffffffffffff\n        /* \"test74.sol\":13452:13489  return... */\n      swap1\n      pop\n        /* \"test74.sol\":13358:13497  function maxUint()... */\n      swap1\n      jump\t// out\n        /* \"test74.sol\":11178:11198  uint256 public total */\n    tag_18:\n      sload(0x00)\n      dup2\n      jump\t// out\n        /* \"test74.sol\":11341:11373  uint256 public gasWithValidation */\n    tag_21:\n      sload(0x04)\n      dup2\n      jump\t// out\n        /* \"test74.sol\":11620:11912  function addValue(... */\n    tag_26:\n        /* \"test74.sol\":11695:11711  uint256 startGas */\n      0x00\n        /* \"test74.sol\":11719:11728  gasleft() */\n      gas\n        /* \"test74.sol\":11695:11728  uint256 startGas =... */\n      swap1\n      pop\n        /* \"test74.sol\":11747:11752  value */\n      dup2\n        /* \"test74.sol\":11735:11744  lastInput */\n      0x01\n        /* \"test74.sol\":11735:11752  lastInput = value */\n      dup2\n      swap1\n      sstore\n      pop\n        /* \"test74.sol\":11768:11773  value */\n      dup2\n        /* \"test74.sol\":11759:11764  total */\n      0x00\n      0x00\n        /* \"test74.sol\":11759:11773  total += value */\n      dup3\n      dup3\n      sload\n      tag_45\n      swap2\n      swap1\n      tag_46\n      jump\t// in\n    tag_45:\n      swap3\n      pop\n      pop\n      dup2\n      swap1\n      sstore\n      pop\n        /* \"test74.sol\":11780:11787  counter */\n      0x02\n      0x00\n        /* \"test74.sol\":11780:11789  counter++ */\n      dup2\n      sload\n      dup1\n      swap3\n      swap2\n      swap1\n      tag_47\n      swap1\n      tag_48\n      jump\t// in\n    tag_47:\n      swap2\n      swap1\n      pop\n      sstore\n      pop\n        /* \"test74.sol\":11818:11828  msg.sender */\n      caller\n        /* \"test74.sol\":11801:11847  ValueAdded(... */\n      0xffffffffffffffffffffffffffffffffffffffff\n      and\n      0xe1d95dcfba9d7b8018a7269ed1485c9e65f81d520213216942c2f8a4c6f4f8e7\n        /* \"test74.sol\":11835:11840  value */\n      dup4\n        /* \"test74.sol\":11801:11847  ValueAdded(... */\n      mload(0x40)\n      tag_49\n      swap2\n      swap1\n      tag_16\n      jump\t// in\n    tag_49:\n      mload(0x40)\n      dup1\n      swap2\n      sub\n      swap1\n      log2\n        /* \"test74.sol\":11893:11902  gasleft() */\n      gas\n        /* \"test74.sol\":11882:11890  startGas */\n      dup2\n        /* \"test74.sol\":11882:11902  startGas - gasleft() */\n      tag_50\n      swap2\n      swap1\n      tag_51\n      jump\t// in\n    tag_50:\n        /* \"test74.sol\":11854:11874  gasWithoutValidation */\n      0x03\n        /* \"test74.sol\":11854:11902  gasWithoutValidation =... */\n      dup2\n      swap1\n      sstore\n      pop\n        /* \"test74.sol\":11688:11912  {... */\n      pop\n        /* \"test74.sol\":11620:11912  function addValue(... */\n      pop\n      jump\t// out\n        /* \"test74.sol\":11236:11258  uint256 public counter */\n    tag_28:\n      sload(0x02)\n      dup2\n      jump\t// out\n        /* \"test74.sol\":11205:11229  uint256 public lastInput */\n    tag_31:\n      sload(0x01)\n      dup2\n      jump\t// out\n        /* \"test74.sol\":11299:11334  uint256 public gasWithoutValidation */\n    tag_34:\n      sload(0x03)\n      dup2\n      jump\t// out\n        /* \"test74.sol\":12928:13197  function compareGas()... */\n    tag_37:\n        /* \"test74.sol\":13014:13039  uint256 withoutValidation */\n      0x00\n        /* \"test74.sol\":13054:13076  uint256 withValidation */\n      0x00\n        /* \"test74.sol\":13126:13146  gasWithoutValidation */\n      sload(0x03)\n        /* \"test74.sol\":13161:13178  gasWithValidation */\n      sload(0x04)\n        /* \"test74.sol\":13104:13189  return (... */\n      swap2\n      pop\n      swap2\n      pop\n        /* \"test74.sol\":12928:13197  function compareGas()... */\n      swap1\n      swap2\n      jump\t// out\n        /* \"test74.sol\":12016:12766  function addValueSafe(... */\n    tag_42:\n        /* \"test74.sol\":12103:12119  uint256 startGas */\n      0x00\n        /* \"test74.sol\":12135:12144  gasleft() */\n      gas\n        /* \"test74.sol\":12103:12144  uint256 startGas =... */\n      swap1\n      pop\n        /* \"test74.sol\":12241:12242  0 */\n      0x00\n        /* \"test74.sol\":12232:12237  value */\n      dup3\n        /* \"test74.sol\":12232:12242  value != 0 */\n      sub\n        /* \"test74.sol\":12210:12286  require(... */\n      tag_54\n      jumpi\n      mload(0x40)\n      0x08c379a000000000000000000000000000000000000000000000000000000000\n      dup2\n      mstore\n      0x04\n      add\n      tag_55\n      swap1\n      tag_56\n      jump\t// in\n    tag_55:\n      mload(0x40)\n      dup1\n      swap2\n      sub\n      swap1\n      revert\n    tag_54:\n        /* \"test74.sol\":12404:12409  value */\n      dup2\n        /* \"test74.sol\":12384:12401  type(uint256).max */\n      0xffffffffffffffffffffffffffffffffffffffffffffffffffffffffffffffff\n        /* \"test74.sol\":12384:12409  type(uint256).max - value */\n      tag_57\n      swap2\n      swap1\n      tag_51\n      jump\t// in\n    tag_57:\n        /* \"test74.sol\":12362:12367  total */\n      sload(0x00)\n        /* \"test74.sol\":12362:12409  total <=... */\n      gt\n      iszero\n        /* \"test74.sol\":12340:12450  require(... */\n      tag_58\n      jumpi\n      mload(0x40)\n      0x08c379a000000000000000000000000000000000000000000000000000000000\n      dup2\n      mstore\n      0x04\n      add\n      tag_59\n      swap1\n      tag_60\n      jump\t// in\n    tag_59:\n      mload(0x40)\n      dup1\n      swap2\n      sub\n      swap1\n      revert\n    tag_58:\n        /* \"test74.sol\":12475:12480  value */\n      dup2\n        /* \"test74.sol\":12463:12472  lastInput */\n      0x01\n        /* \"test74.sol\":12463:12480  lastInput = value */\n      dup2\n      swap1\n      sstore\n      pop\n        /* \"test74.sol\":12500:12505  value */\n      dup2\n        /* \"test74.sol\":12491:12496  total */\n      0x00\n      0x00\n        /* \"test74.sol\":12491:12505  total += value */\n      dup3\n      dup3\n      sload\n      tag_61\n      swap2\n      swap1\n      tag_46\n      jump\t// in\n    tag_61:\n      swap3\n      pop\n      pop\n      dup2\n      swap1\n      sstore\n      pop\n        /* \"test74.sol\":12516:12523  counter */\n      0x02\n      0x00\n        /* \"test74.sol\":12516:12525  counter++ */\n      dup2\n      sload\n      dup1\n      swap3\n      swap2\n      swap1\n      tag_62\n      swap1\n      tag_48\n      jump\t// in\n    tag_62:\n      swap2\n      swap1\n      pop\n      sstore\n      pop\n        /* \"test74.sol\":12621:12631  msg.sender */\n      caller\n        /* \"test74.sol\":12596:12662  ValueAdded(... */\n      0xffffffffffffffffffffffffffffffffffffffff\n      and\n      0xe1d95dcfba9d7b8018a7269ed1485c9e65f81d520213216942c2f8a4c6f4f8e7\n        /* \"test74.sol\":12646:12651  value */\n      dup4\n        /* \"test74.sol\":12596:12662  ValueAdded(... */\n      mload(0x40)\n      tag_63\n      swap2\n      swap1\n      tag_16\n      jump\t// in\n    tag_63:\n      mload(0x40)\n      dup1\n      swap2\n      sub\n      swap1\n      log2\n        /* \"test74.sol\":12749:12758  gasleft() */\n      gas\n        /* \"test74.sol\":12738:12746  startGas */\n      dup2\n        /* \"test74.sol\":12738:12758  startGas - gasleft() */\n      tag_64\n      swap2\n      swap1\n      tag_51\n      jump\t// in\n    tag_64:\n        /* \"test74.sol\":12705:12722  gasWithValidation */\n      0x04\n        /* \"test74.sol\":12705:12758  gasWithValidation =... */\n      dup2\n      swap1\n      sstore\n      pop\n        /* \"test74.sol\":12092:12766  {... */\n      pop\n        /* \"test74.sol\":12016:12766  function addValueSafe(... */\n      pop\n      jump\t// out\n        /* \"#utility.yul\":7:84   */\n    tag_65:\n        /* \"#utility.yul\":44:51   */\n      0x00\n        /* \"#utility.yul\":73:78   */\n      dup2\n        /* \"#utility.yul\":62:78   */\n      swap1\n      pop\n        /* \"#utility.yul\":7:84   */\n      swap2\n      swap1\n      pop\n      jump\t// out\n        /* \"#utility.yul\":90:208   */\n    tag_66:\n        /* \"#utility.yul\":177:201   */\n      tag_81\n        /* \"#utility.yul\":195:200   */\n      dup2\n        /* \"#utility.yul\":177:201   */\n      tag_65\n      jump\t// in\n    tag_81:\n        /* \"#utility.yul\":172:175   */\n      dup3\n        /* \"#utility.yul\":165:202   */\n      mstore\n        /* \"#utility.yul\":90:208   */\n      pop\n      pop\n      jump\t// out\n        /* \"#utility.yul\":214:436   */\n    tag_16:\n        /* \"#utility.yul\":307:311   */\n      0x00\n        /* \"#utility.yul\":345:347   */\n      0x20\n        /* \"#utility.yul\":334:343   */\n      dup3\n        /* \"#utility.yul\":330:348   */\n      add\n        /* \"#utility.yul\":322:348   */\n      swap1\n      pop\n        /* \"#utility.yul\":358:429   */\n      tag_83\n        /* \"#utility.yul\":426:427   */\n      0x00\n        /* \"#utility.yul\":415:424   */\n      dup4\n        /* \"#utility.yul\":411:428   */\n      add\n        /* \"#utility.yul\":402:408   */\n      dup5\n        /* \"#utility.yul\":358:429   */\n      tag_66\n      jump\t// in\n    tag_83:\n        /* \"#utility.yul\":214:436   */\n      swap3\n      swap2\n      pop\n      pop\n      jump\t// out\n        /* \"#utility.yul\":523:640   */\n    tag_68:\n        /* \"#utility.yul\":632:633   */\n      0x00\n        /* \"#utility.yul\":629:630   */\n      0x00\n        /* \"#utility.yul\":622:634   */\n      revert\n        /* \"#utility.yul\":769:891   */\n    tag_70:\n        /* \"#utility.yul\":842:866   */\n      tag_88\n        /* \"#utility.yul\":860:865   */\n      dup2\n        /* \"#utility.yul\":842:866   */\n      tag_65\n      jump\t// in\n    tag_88:\n        /* \"#utility.yul\":835:840   */\n      dup2\n        /* \"#utility.yul\":832:867   */\n      eq\n        /* \"#utility.yul\":822:885   */\n      tag_89\n      jumpi\n        /* \"#utility.yul\":881:882   */\n      0x00\n        /* \"#utility.yul\":878:879   */\n      0x00\n        /* \"#utility.yul\":871:883   */\n      revert\n        /* \"#utility.yul\":822:885   */\n    tag_89:\n        /* \"#utility.yul\":769:891   */\n      pop\n      jump\t// out\n        /* \"#utility.yul\":897:1036   */\n    tag_71:\n        /* \"#utility.yul\":943:948   */\n      0x00\n        /* \"#utility.yul\":981:987   */\n      dup2\n        /* \"#utility.yul\":968:988   */\n      calldataload\n        /* \"#utility.yul\":959:988   */\n      swap1\n      pop\n        /* \"#utility.yul\":997:1030   */\n      tag_91\n        /* \"#utility.yul\":1024:1029   */\n      dup2\n        /* \"#utility.yul\":997:1030   */\n      tag_70\n      jump\t// in\n    tag_91:\n        /* \"#utility.yul\":897:1036   */\n      swap3\n      swap2\n      pop\n      pop\n      jump\t// out\n        /* \"#utility.yul\":1042:1371   */\n    tag_25:\n        /* \"#utility.yul\":1101:1107   */\n      0x00\n        /* \"#utility.yul\":1150:1152   */\n      0x20\n        /* \"#utility.yul\":1138:1147   */\n      dup3\n        /* \"#utility.yul\":1129:1136   */\n      dup5\n        /* \"#utility.yul\":1125:1148   */\n      sub\n        /* \"#utility.yul\":1121:1153   */\n      slt\n        /* \"#utility.yul\":1118:1237   */\n      iszero\n      tag_93\n      jumpi\n        /* \"#utility.yul\":1156:1235   */\n      tag_94\n      tag_68\n      jump\t// in\n    tag_94:\n        /* \"#utility.yul\":1118:1237   */\n    tag_93:\n        /* \"#utility.yul\":1276:1277   */\n      0x00\n        /* \"#utility.yul\":1301:1354   */\n      tag_95\n        /* \"#utility.yul\":1346:1353   */\n      dup5\n        /* \"#utility.yul\":1337:1343   */\n      dup3\n        /* \"#utility.yul\":1326:1335   */\n      dup6\n        /* \"#utility.yul\":1322:1344   */\n      add\n        /* \"#utility.yul\":1301:1354   */\n      tag_71\n      jump\t// in\n    tag_95:\n        /* \"#utility.yul\":1291:1354   */\n      swap2\n      pop\n        /* \"#utility.yul\":1247:1364   */\n      pop\n        /* \"#utility.yul\":1042:1371   */\n      swap3\n      swap2\n      pop\n      pop\n      jump\t// out\n        /* \"#utility.yul\":1377:1709   */\n    tag_39:\n        /* \"#utility.yul\":1498:1502   */\n      0x00\n        /* \"#utility.yul\":1536:1538   */\n      0x40\n        /* \"#utility.yul\":1525:1534   */\n      dup3\n        /* \"#utility.yul\":1521:1539   */\n      add\n        /* \"#utility.yul\":1513:1539   */\n      swap1\n      pop\n        /* \"#utility.yul\":1549:1620   */\n      tag_97\n        /* \"#utility.yul\":1617:1618   */\n      0x00\n        /* \"#utility.yul\":1606:1615   */\n      dup4\n        /* \"#utility.yul\":1602:1619   */\n      add\n        /* \"#utility.yul\":1593:1599   */\n      dup6\n        /* \"#utility.yul\":1549:1620   */\n      tag_66\n      jump\t// in\n    tag_97:\n        /* \"#utility.yul\":1630:1702   */\n      tag_98\n        /* \"#utility.yul\":1698:1700   */\n      0x20\n        /* \"#utility.yul\":1687:1696   */\n      dup4\n        /* \"#utility.yul\":1683:1701   */\n      add\n        /* \"#utility.yul\":1674:1680   */\n      dup5\n        /* \"#utility.yul\":1630:1702   */\n      tag_66\n      jump\t// in\n    tag_98:\n        /* \"#utility.yul\":1377:1709   */\n      swap4\n      swap3\n      pop\n      pop\n      pop\n      jump\t// out\n        /* \"#utility.yul\":1715:1895   */\n    tag_72:\n        /* \"#utility.yul\":1763:1840   */\n      0x4e487b7100000000000000000000000000000000000000000000000000000000\n        /* \"#utility.yul\":1760:1761   */\n      0x00\n        /* \"#utility.yul\":1753:1841   */\n      mstore\n        /* \"#utility.yul\":1860:1864   */\n      0x11\n        /* \"#utility.yul\":1857:1858   */\n      0x04\n        /* \"#utility.yul\":1850:1865   */\n      mstore\n        /* \"#utility.yul\":1884:1888   */\n      0x24\n        /* \"#utility.yul\":1881:1882   */\n      0x00\n        /* \"#utility.yul\":1874:1889   */\n      revert\n        /* \"#utility.yul\":1901:2092   */\n    tag_46:\n        /* \"#utility.yul\":1941:1944   */\n      0x00\n        /* \"#utility.yul\":1960:1980   */\n      tag_101\n        /* \"#utility.yul\":1978:1979   */\n      dup3\n        /* \"#utility.yul\":1960:1980   */\n      tag_65\n      jump\t// in\n    tag_101:\n        /* \"#utility.yul\":1955:1980   */\n      swap2\n      pop\n        /* \"#utility.yul\":1994:2014   */\n      tag_102\n        /* \"#utility.yul\":2012:2013   */\n      dup4\n        /* \"#utility.yul\":1994:2014   */\n      tag_65\n      jump\t// in\n    tag_102:\n        /* \"#utility.yul\":1989:2014   */\n      swap3\n      pop\n        /* \"#utility.yul\":2037:2038   */\n      dup3\n        /* \"#utility.yul\":2034:2035   */\n      dup3\n        /* \"#utility.yul\":2030:2039   */\n      add\n        /* \"#utility.yul\":2023:2039   */\n      swap1\n      pop\n        /* \"#utility.yul\":2058:2061   */\n      dup1\n        /* \"#utility.yul\":2055:2056   */\n      dup3\n        /* \"#utility.yul\":2052:2062   */\n      gt\n        /* \"#utility.yul\":2049:2085   */\n      iszero\n      tag_103\n      jumpi\n        /* \"#utility.yul\":2065:2083   */\n      tag_104\n      tag_72\n      jump\t// in\n    tag_104:\n        /* \"#utility.yul\":2049:2085   */\n    tag_103:\n        /* \"#utility.yul\":1901:2092   */\n      swap3\n      swap2\n      pop\n      pop\n      jump\t// out\n        /* \"#utility.yul\":2098:2331   */\n    tag_48:\n        /* \"#utility.yul\":2137:2140   */\n      0x00\n        /* \"#utility.yul\":2160:2184   */\n      tag_106\n        /* \"#utility.yul\":2178:2183   */\n      dup3\n        /* \"#utility.yul\":2160:2184   */\n      tag_65\n      jump\t// in\n    tag_106:\n        /* \"#utility.yul\":2151:2184   */\n      swap2\n      pop\n        /* \"#utility.yul\":2206:2272   */\n      0xffffffffffffffffffffffffffffffffffffffffffffffffffffffffffffffff\n        /* \"#utility.yul\":2199:2204   */\n      dup3\n        /* \"#utility.yul\":2196:2273   */\n      sub\n        /* \"#utility.yul\":2193:2296   */\n      tag_107\n      jumpi\n        /* \"#utility.yul\":2276:2294   */\n      tag_108\n      tag_72\n      jump\t// in\n    tag_108:\n        /* \"#utility.yul\":2193:2296   */\n    tag_107:\n        /* \"#utility.yul\":2323:2324   */\n      0x01\n        /* \"#utility.yul\":2316:2321   */\n      dup3\n        /* \"#utility.yul\":2312:2325   */\n      add\n        /* \"#utility.yul\":2305:2325   */\n      swap1\n      pop\n        /* \"#utility.yul\":2098:2331   */\n      swap2\n      swap1\n      pop\n      jump\t// out\n        /* \"#utility.yul\":2337:2531   */\n    tag_51:\n        /* \"#utility.yul\":2377:2381   */\n      0x00\n        /* \"#utility.yul\":2397:2417   */\n      tag_110\n        /* \"#utility.yul\":2415:2416   */\n      dup3\n        /* \"#utility.yul\":2397:2417   */\n      tag_65\n      jump\t// in\n    tag_110:\n        /* \"#utility.yul\":2392:2417   */\n      swap2\n      pop\n        /* \"#utility.yul\":2431:2451   */\n      tag_111\n        /* \"#utility.yul\":2449:2450   */\n      dup4\n        /* \"#utility.yul\":2431:2451   */\n      tag_65\n      jump\t// in\n    tag_111:\n        /* \"#utility.yul\":2426:2451   */\n      swap3\n      pop\n        /* \"#utility.yul\":2475:2476   */\n      dup3\n        /* \"#utility.yul\":2472:2473   */\n      dup3\n        /* \"#utility.yul\":2468:2477   */\n      sub\n        /* \"#utility.yul\":2460:2477   */\n      swap1\n      pop\n        /* \"#utility.yul\":2499:2500   */\n      dup2\n        /* \"#utility.yul\":2493:2497   */\n      dup2\n        /* \"#utility.yul\":2490:2501   */\n      gt\n        /* \"#utility.yul\":2487:2524   */\n      iszero\n      tag_112\n      jumpi\n        /* \"#utility.yul\":2504:2522   */\n      tag_113\n      tag_72\n      jump\t// in\n    tag_113:\n        /* \"#utility.yul\":2487:2524   */\n    tag_112:\n        /* \"#utility.yul\":2337:2531   */\n      swap3\n      swap2\n      pop\n      pop\n      jump\t// out\n        /* \"#utility.yul\":2537:2706   */\n    tag_73:\n        /* \"#utility.yul\":2621:2632   */\n      0x00\n        /* \"#utility.yul\":2655:2661   */\n      dup3\n        /* \"#utility.yul\":2650:2653   */\n      dup3\n        /* \"#utility.yul\":2643:2662   */\n      mstore\n        /* \"#utility.yul\":2695:2699   */\n      0x20\n        /* \"#utility.yul\":2690:2693   */\n      dup3\n        /* \"#utility.yul\":2686:2700   */\n      add\n        /* \"#utility.yul\":2671:2700   */\n      swap1\n      pop\n        /* \"#utility.yul\":2537:2706   */\n      swap3\n      swap2\n      pop\n      pop\n      jump\t// out\n        /* \"#utility.yul\":2712:2878   */\n    tag_74:\n        /* \"#utility.yul\":2852:2870   */\n      0x5a65726f206e6f7420616c6c6f77656400000000000000000000000000000000\n        /* \"#utility.yul\":2848:2849   */\n      0x00\n        /* \"#utility.yul\":2840:2846   */\n      dup3\n        /* \"#utility.yul\":2836:2850   */\n      add\n        /* \"#utility.yul\":2829:2871   */\n      mstore\n        /* \"#utility.yul\":2712:2878   */\n      pop\n      jump\t// out\n        /* \"#utility.yul\":2884:3250   */\n    tag_75:\n        /* \"#utility.yul\":3026:3029   */\n      0x00\n        /* \"#utility.yul\":3047:3114   */\n      tag_117\n        /* \"#utility.yul\":3111:3113   */\n      0x10\n        /* \"#utility.yul\":3106:3109   */\n      dup4\n        /* \"#utility.yul\":3047:3114   */\n      tag_73\n      jump\t// in\n    tag_117:\n        /* \"#utility.yul\":3040:3114   */\n      swap2\n      pop\n        /* \"#utility.yul\":3123:3216   */\n      tag_118\n        /* \"#utility.yul\":3212:3215   */\n      dup3\n        /* \"#utility.yul\":3123:3216   */\n      tag_74\n      jump\t// in\n    tag_118:\n        /* \"#utility.yul\":3241:3243   */\n      0x20\n        /* \"#utility.yul\":3236:3239   */\n      dup3\n        /* \"#utility.yul\":3232:3244   */\n      add\n        /* \"#utility.yul\":3225:3244   */\n      swap1\n      pop\n        /* \"#utility.yul\":2884:3250   */\n      swap2\n      swap1\n      pop\n      jump\t// out\n        /* \"#utility.yul\":3256:3675   */\n    tag_56:\n        /* \"#utility.yul\":3422:3426   */\n      0x00\n        /* \"#utility.yul\":3460:3462   */\n      0x20\n        /* \"#utility.yul\":3449:3458   */\n      dup3\n        /* \"#utility.yul\":3445:3463   */\n      add\n        /* \"#utility.yul\":3437:3463   */\n      swap1\n      pop\n        /* \"#utility.yul\":3509:3518   */\n      dup2\n        /* \"#utility.yul\":3503:3507   */\n      dup2\n        /* \"#utility.yul\":3499:3519   */\n      sub\n        /* \"#utility.yul\":3495:3496   */\n      0x00\n        /* \"#utility.yul\":3484:3493   */\n      dup4\n        /* \"#utility.yul\":3480:3497   */\n      add\n        /* \"#utility.yul\":3473:3520   */\n      mstore\n        /* \"#utility.yul\":3537:3668   */\n      tag_120\n        /* \"#utility.yul\":3663:3667   */\n      dup2\n        /* \"#utility.yul\":3537:3668   */\n      tag_75\n      jump\t// in\n    tag_120:\n        /* \"#utility.yul\":3529:3668   */\n      swap1\n      pop\n        /* \"#utility.yul\":3256:3675   */\n      swap2\n      swap1\n      pop\n      jump\t// out\n        /* \"#utility.yul\":3681:3844   */\n    tag_76:\n        /* \"#utility.yul\":3821:3836   */\n      0x4f766572666c6f77207269736b00000000000000000000000000000000000000\n        /* \"#utility.yul\":3817:3818   */\n      0x00\n        /* \"#utility.yul\":3809:3815   */\n      dup3\n        /* \"#utility.yul\":3805:3819   */\n      add\n        /* \"#utility.yul\":3798:3837   */\n      mstore\n        /* \"#utility.yul\":3681:3844   */\n      pop\n      jump\t// out\n        /* \"#utility.yul\":3850:4216   */\n    tag_77:\n        /* \"#utility.yul\":3992:3995   */\n      0x00\n        /* \"#utility.yul\":4013:4080   */\n      tag_123\n        /* \"#utility.yul\":4077:4079   */\n      0x0d\n        /* \"#utility.yul\":4072:4075   */\n      dup4\n        /* \"#utility.yul\":4013:4080   */\n      tag_73\n      jump\t// in\n    tag_123:\n        /* \"#utility.yul\":4006:4080   */\n      swap2\n      pop\n        /* \"#utility.yul\":4089:4182   */\n      tag_124\n        /* \"#utility.yul\":4178:4181   */\n      dup3\n        /* \"#utility.yul\":4089:4182   */\n      tag_76\n      jump\t// in\n    tag_124:\n        /* \"#utility.yul\":4207:4209   */\n      0x20\n        /* \"#utility.yul\":4202:4205   */\n      dup3\n        /* \"#utility.yul\":4198:4210   */\n      add\n        /* \"#utility.yul\":4191:4210   */\n      swap1\n      pop\n        /* \"#utility.yul\":3850:4216   */\n      swap2\n      swap1\n      pop\n      jump\t// out\n        /* \"#utility.yul\":4222:4641   */\n    tag_60:\n        /* \"#utility.yul\":4388:4392   */\n      0x00\n        /* \"#utility.yul\":4426:4428   */\n      0x20\n        /* \"#utility.yul\":4415:4424   */\n      dup3\n        /* \"#utility.yul\":4411:4429   */\n      add\n        /* \"#utility.yul\":4403:4429   */\n      swap1\n      pop\n        /* \"#utility.yul\":4475:4484   */\n      dup2\n        /* \"#utility.yul\":4469:4473   */\n      dup2\n        /* \"#utility.yul\":4465:4485   */\n      sub\n        /* \"#utility.yul\":4461:4462   */\n      0x00\n        /* \"#utility.yul\":4450:4459   */\n      dup4\n        /* \"#utility.yul\":4446:4463   */\n      add\n        /* \"#utility.yul\":4439:4486   */\n      mstore\n        /* \"#utility.yul\":4503:4634   */\n      tag_126\n        /* \"#utility.yul\":4629:4633   */\n      dup2\n        /* \"#utility.yul\":4503:4634   */\n      tag_77\n      jump\t// in\n    tag_126:\n        /* \"#utility.yul\":4495:4634   */\n      swap1\n      pop\n        /* \"#utility.yul\":4222:4641   */\n      swap2\n      swap1\n      pop\n      jump\t// out\n\n    auxdata: 0xa26469706673582212204f9461b05730c94fc0aaabfa39689051be262053e5334b4a9af085665701ebff64736f6c63430008220033\n}\n",
				"bytecode": {
					"linkReferences": {},
					"object": "6080604052348015600e575f5ffd5b506106808061001c5f395ff3fe608060405234801561000f575f5ffd5b5060043610610091575f3560e01c806361bc221a1161006457806361bc221a1461010b5780636d8801021461012957806376cdf0fa146101475780638f32aa7814610165578063ff59c42b1461018457610091565b806316a0c5b5146100955780632ddbd13a146100b357806353a7df05146100d15780635b9af12b146100ef575b5f5ffd5b61009d6101a0565b6040516100aa91906103f7565b60405180910390f35b6100bb6101c7565b6040516100c891906103f7565b60405180910390f35b6100d96101cc565b6040516100e691906103f7565b60405180910390f35b6101096004803603810190610104919061043e565b6101d2565b005b61011361026f565b60405161012091906103f7565b60405180910390f35b610131610275565b60405161013e91906103f7565b60405180910390f35b61014f61027b565b60405161015c91906103f7565b60405180910390f35b61016d610281565b60405161017b929190610469565b60405180910390f35b61019e6004803603810190610199919061043e565b610291565b005b5f7fffffffffffffffffffffffffffffffffffffffffffffffffffffffffffffffff905090565b5f5481565b60045481565b5f5a905081600181905550815f5f8282546101ed91906104bd565b9250508190555060025f815480929190610206906104f0565b91905055503373ffffffffffffffffffffffffffffffffffffffff167fe1d95dcfba9d7b8018a7269ed1485c9e65f81d520213216942c2f8a4c6f4f8e78360405161025191906103f7565b60405180910390a25a816102659190610537565b6003819055505050565b60025481565b60015481565b60035481565b5f5f600354600454915091509091565b5f5a90505f82036102d7576040517f08c379a00000000000000000000000000000000000000000000000000000000081526004016102ce906105c4565b60405180910390fd5b817fffffffffffffffffffffffffffffffffffffffffffffffffffffffffffffffff6103039190610537565b5f541115610346576040517f08c379a000000000000000000000000000000000000000000000000000000000815260040161033d9061062c565b60405180910390fd5b81600181905550815f5f82825461035d91906104bd565b9250508190555060025f815480929190610376906104f0565b91905055503373ffffffffffffffffffffffffffffffffffffffff167fe1d95dcfba9d7b8018a7269ed1485c9e65f81d520213216942c2f8a4c6f4f8e7836040516103c191906103f7565b60405180910390a25a816103d59190610537565b6004819055505050565b5f819050919050565b6103f1816103df565b82525050565b5f60208201905061040a5f8301846103e8565b92915050565b5f5ffd5b61041d816103df565b8114610427575f5ffd5b50565b5f8135905061043881610414565b92915050565b5f6020828403121561045357610452610410565b5b5f6104608482850161042a565b91505092915050565b5f60408201905061047c5f8301856103e8565b61048960208301846103e8565b9392505050565b7f4e487b71000000000000000000000000000000000000000000000000000000005f52601160045260245ffd5b5f6104c7826103df565b91506104d2836103df565b92508282019050808211156104ea576104e9610490565b5b92915050565b5f6104fa826103df565b91507fffffffffffffffffffffffffffffffffffffffffffffffffffffffffffffffff820361052c5761052b610490565b5b600182019050919050565b5f610541826103df565b915061054c836103df565b925082820390508181111561056457610563610490565b5b92915050565b5f82825260208201905092915050565b7f5a65726f206e6f7420616c6c6f776564000000000000000000000000000000005f82015250565b5f6105ae60108361056a565b91506105b98261057a565b602082019050919050565b5f6020820190508181035f8301526105db816105a2565b9050919050565b7f4f766572666c6f77207269736b000000000000000000000000000000000000005f82015250565b5f610616600d8361056a565b9150610621826105e2565b602082019050919050565b5f6020820190508181035f8301526106438161060a565b905091905056fea26469706673582212204f9461b05730c94fc0aaabfa39689051be262053e5334b4a9af085665701ebff64736f6c63430008220033",
					"opcodes": "PUSH1 0x80 PUSH1 0x40 MSTORE CALLVALUE DUP1 ISZERO PUSH1 0xE JUMPI PUSH0 PUSH0 REVERT JUMPDEST POP PUSH2 0x680 DUP1 PUSH2 0x1C PUSH0 CODECOPY PUSH0 RETURN INVALID PUSH1 0x80 PUSH1 0x40 MSTORE CALLVALUE DUP1 ISZERO PUSH2 0xF JUMPI PUSH0 PUSH0 REVERT JUMPDEST POP PUSH1 0x4 CALLDATASIZE LT PUSH2 0x91 JUMPI PUSH0 CALLDATALOAD PUSH1 0xE0 SHR DUP1 PUSH4 0x61BC221A GT PUSH2 0x64 JUMPI DUP1 PUSH4 0x61BC221A EQ PUSH2 0x10B JUMPI DUP1 PUSH4 0x6D880102 EQ PUSH2 0x129 JUMPI DUP1 PUSH4 0x76CDF0FA EQ PUSH2 0x147 JUMPI DUP1 PUSH4 0x8F32AA78 EQ PUSH2 0x165 JUMPI DUP1 PUSH4 0xFF59C42B EQ PUSH2 0x184 JUMPI PUSH2 0x91 JUMP JUMPDEST DUP1 PUSH4 0x16A0C5B5 EQ PUSH2 0x95 JUMPI DUP1 PUSH4 0x2DDBD13A EQ PUSH2 0xB3 JUMPI DUP1 PUSH4 0x53A7DF05 EQ PUSH2 0xD1 JUMPI DUP1 PUSH4 0x5B9AF12B EQ PUSH2 0xEF JUMPI JUMPDEST PUSH0 PUSH0 REVERT JUMPDEST PUSH2 0x9D PUSH2 0x1A0 JUMP JUMPDEST PUSH1 0x40 MLOAD PUSH2 0xAA SWAP2 SWAP1 PUSH2 0x3F7 JUMP JUMPDEST PUSH1 0x40 MLOAD DUP1 SWAP2 SUB SWAP1 RETURN JUMPDEST PUSH2 0xBB PUSH2 0x1C7 JUMP JUMPDEST PUSH1 0x40 MLOAD PUSH2 0xC8 SWAP2 SWAP1 PUSH2 0x3F7 JUMP JUMPDEST PUSH1 0x40 MLOAD DUP1 SWAP2 SUB SWAP1 RETURN JUMPDEST PUSH2 0xD9 PUSH2 0x1CC JUMP JUMPDEST PUSH1 0x40 MLOAD PUSH2 0xE6 SWAP2 SWAP1 PUSH2 0x3F7 JUMP JUMPDEST PUSH1 0x40 MLOAD DUP1 SWAP2 SUB SWAP1 RETURN JUMPDEST PUSH2 0x109 PUSH1 0x4 DUP1 CALLDATASIZE SUB DUP2 ADD SWAP1 PUSH2 0x104 SWAP2 SWAP1 PUSH2 0x43E JUMP JUMPDEST PUSH2 0x1D2 JUMP JUMPDEST STOP JUMPDEST PUSH2 0x113 PUSH2 0x26F JUMP JUMPDEST PUSH1 0x40 MLOAD PUSH2 0x120 SWAP2 SWAP1 PUSH2 0x3F7 JUMP JUMPDEST PUSH1 0x40 MLOAD DUP1 SWAP2 SUB SWAP1 RETURN JUMPDEST PUSH2 0x131 PUSH2 0x275 JUMP JUMPDEST PUSH1 0x40 MLOAD PUSH2 0x13E SWAP2 SWAP1 PUSH2 0x3F7 JUMP JUMPDEST PUSH1 0x40 MLOAD DUP1 SWAP2 SUB SWAP1 RETURN JUMPDEST PUSH2 0x14F PUSH2 0x27B JUMP JUMPDEST PUSH1 0x40 MLOAD PUSH2 0x15C SWAP2 SWAP1 PUSH2 0x3F7 JUMP JUMPDEST PUSH1 0x40 MLOAD DUP1 SWAP2 SUB SWAP1 RETURN JUMPDEST PUSH2 0x16D PUSH2 0x281 JUMP JUMPDEST PUSH1 0x40 MLOAD PUSH2 0x17B SWAP3 SWAP2 SWAP1 PUSH2 0x469 JUMP JUMPDEST PUSH1 0x40 MLOAD DUP1 SWAP2 SUB SWAP1 RETURN JUMPDEST PUSH2 0x19E PUSH1 0x4 DUP1 CALLDATASIZE SUB DUP2 ADD SWAP1 PUSH2 0x199 SWAP2 SWAP1 PUSH2 0x43E JUMP JUMPDEST PUSH2 0x291 JUMP JUMPDEST STOP JUMPDEST PUSH0 PUSH32 0xFFFFFFFFFFFFFFFFFFFFFFFFFFFFFFFFFFFFFFFFFFFFFFFFFFFFFFFFFFFFFFFF SWAP1 POP SWAP1 JUMP JUMPDEST PUSH0 SLOAD DUP2 JUMP JUMPDEST PUSH1 0x4 SLOAD DUP2 JUMP JUMPDEST PUSH0 GAS SWAP1 POP DUP2 PUSH1 0x1 DUP2 SWAP1 SSTORE POP DUP2 PUSH0 PUSH0 DUP3 DUP3 SLOAD PUSH2 0x1ED SWAP2 SWAP1 PUSH2 0x4BD JUMP JUMPDEST SWAP3 POP POP DUP2 SWAP1 SSTORE POP PUSH1 0x2 PUSH0 DUP2 SLOAD DUP1 SWAP3 SWAP2 SWAP1 PUSH2 0x206 SWAP1 PUSH2 0x4F0 JUMP JUMPDEST SWAP2 SWAP1 POP SSTORE POP CALLER PUSH20 0xFFFFFFFFFFFFFFFFFFFFFFFFFFFFFFFFFFFFFFFF AND PUSH32 0xE1D95DCFBA9D7B8018A7269ED1485C9E65F81D520213216942C2F8A4C6F4F8E7 DUP4 PUSH1 0x40 MLOAD PUSH2 0x251 SWAP2 SWAP1 PUSH2 0x3F7 JUMP JUMPDEST PUSH1 0x40 MLOAD DUP1 SWAP2 SUB SWAP1 LOG2 GAS DUP2 PUSH2 0x265 SWAP2 SWAP1 PUSH2 0x537 JUMP JUMPDEST PUSH1 0x3 DUP2 SWAP1 SSTORE POP POP POP JUMP JUMPDEST PUSH1 0x2 SLOAD DUP2 JUMP JUMPDEST PUSH1 0x1 SLOAD DUP2 JUMP JUMPDEST PUSH1 0x3 SLOAD DUP2 JUMP JUMPDEST PUSH0 PUSH0 PUSH1 0x3 SLOAD PUSH1 0x4 SLOAD SWAP2 POP SWAP2 POP SWAP1 SWAP2 JUMP JUMPDEST PUSH0 GAS SWAP1 POP PUSH0 DUP3 SUB PUSH2 0x2D7 JUMPI PUSH1 0x40 MLOAD PUSH32 0x8C379A000000000000000000000000000000000000000000000000000000000 DUP2 MSTORE PUSH1 0x4 ADD PUSH2 0x2CE SWAP1 PUSH2 0x5C4 JUMP JUMPDEST PUSH1 0x40 MLOAD DUP1 SWAP2 SUB SWAP1 REVERT JUMPDEST DUP2 PUSH32 0xFFFFFFFFFFFFFFFFFFFFFFFFFFFFFFFFFFFFFFFFFFFFFFFFFFFFFFFFFFFFFFFF PUSH2 0x303 SWAP2 SWAP1 PUSH2 0x537 JUMP JUMPDEST PUSH0 SLOAD GT ISZERO PUSH2 0x346 JUMPI PUSH1 0x40 MLOAD PUSH32 0x8C379A000000000000000000000000000000000000000000000000000000000 DUP2 MSTORE PUSH1 0x4 ADD PUSH2 0x33D SWAP1 PUSH2 0x62C JUMP JUMPDEST PUSH1 0x40 MLOAD DUP1 SWAP2 SUB SWAP1 REVERT JUMPDEST DUP2 PUSH1 0x1 DUP2 SWAP1 SSTORE POP DUP2 PUSH0 PUSH0 DUP3 DUP3 SLOAD PUSH2 0x35D SWAP2 SWAP1 PUSH2 0x4BD JUMP JUMPDEST SWAP3 POP POP DUP2 SWAP1 SSTORE POP PUSH1 0x2 PUSH0 DUP2 SLOAD DUP1 SWAP3 SWAP2 SWAP1 PUSH2 0x376 SWAP1 PUSH2 0x4F0 JUMP JUMPDEST SWAP2 SWAP1 POP SSTORE POP CALLER PUSH20 0xFFFFFFFFFFFFFFFFFFFFFFFFFFFFFFFFFFFFFFFF AND PUSH32 0xE1D95DCFBA9D7B8018A7269ED1485C9E65F81D520213216942C2F8A4C6F4F8E7 DUP4 PUSH1 0x40 MLOAD PUSH2 0x3C1 SWAP2 SWAP1 PUSH2 0x3F7 JUMP JUMPDEST PUSH1 0x40 MLOAD DUP1 SWAP2 SUB SWAP1 LOG2 GAS DUP2 PUSH2 0x3D5 SWAP2 SWAP1 PUSH2 0x537 JUMP JUMPDEST PUSH1 0x4 DUP2 SWAP1 SSTORE POP POP POP JUMP JUMPDEST PUSH0 DUP2 SWAP1 POP SWAP2 SWAP1 POP JUMP JUMPDEST PUSH2 0x3F1 DUP2 PUSH2 0x3DF JUMP JUMPDEST DUP3 MSTORE POP POP JUMP JUMPDEST PUSH0 PUSH1 0x20 DUP3 ADD SWAP1 POP PUSH2 0x40A PUSH0 DUP4 ADD DUP5 PUSH2 0x3E8 JUMP JUMPDEST SWAP3 SWAP2 POP POP JUMP JUMPDEST PUSH0 PUSH0 REVERT JUMPDEST PUSH2 0x41D DUP2 PUSH2 0x3DF JUMP JUMPDEST DUP2 EQ PUSH2 0x427 JUMPI PUSH0 PUSH0 REVERT JUMPDEST POP JUMP JUMPDEST PUSH0 DUP2 CALLDATALOAD SWAP1 POP PUSH2 0x438 DUP2 PUSH2 0x414 JUMP JUMPDEST SWAP3 SWAP2 POP POP JUMP JUMPDEST PUSH0 PUSH1 0x20 DUP3 DUP5 SUB SLT ISZERO PUSH2 0x453 JUMPI PUSH2 0x452 PUSH2 0x410 JUMP JUMPDEST JUMPDEST PUSH0 PUSH2 0x460 DUP5 DUP3 DUP6 ADD PUSH2 0x42A JUMP JUMPDEST SWAP2 POP POP SWAP3 SWAP2 POP POP JUMP JUMPDEST PUSH0 PUSH1 0x40 DUP3 ADD SWAP1 POP PUSH2 0x47C PUSH0 DUP4 ADD DUP6 PUSH2 0x3E8 JUMP JUMPDEST PUSH2 0x489 PUSH1 0x20 DUP4 ADD DUP5 PUSH2 0x3E8 JUMP JUMPDEST SWAP4 SWAP3 POP POP POP JUMP JUMPDEST PUSH32 0x4E487B7100000000000000000000000000000000000000000000000000000000 PUSH0 MSTORE PUSH1 0x11 PUSH1 0x4 MSTORE PUSH1 0x24 PUSH0 REVERT JUMPDEST PUSH0 PUSH2 0x4C7 DUP3 PUSH2 0x3DF JUMP JUMPDEST SWAP2 POP PUSH2 0x4D2 DUP4 PUSH2 0x3DF JUMP JUMPDEST SWAP3 POP DUP3 DUP3 ADD SWAP1 POP DUP1 DUP3 GT ISZERO PUSH2 0x4EA JUMPI PUSH2 0x4E9 PUSH2 0x490 JUMP JUMPDEST JUMPDEST SWAP3 SWAP2 POP POP JUMP JUMPDEST PUSH0 PUSH2 0x4FA DUP3 PUSH2 0x3DF JUMP JUMPDEST SWAP2 POP PUSH32 0xFFFFFFFFFFFFFFFFFFFFFFFFFFFFFFFFFFFFFFFFFFFFFFFFFFFFFFFFFFFFFFFF DUP3 SUB PUSH2 0x52C JUMPI PUSH2 0x52B PUSH2 0x490 JUMP JUMPDEST JUMPDEST PUSH1 0x1 DUP3 ADD SWAP1 POP SWAP2 SWAP1 POP JUMP JUMPDEST PUSH0 PUSH2 0x541 DUP3 PUSH2 0x3DF JUMP JUMPDEST SWAP2 POP PUSH2 0x54C DUP4 PUSH2 0x3DF JUMP JUMPDEST SWAP3 POP DUP3 DUP3 SUB SWAP1 POP DUP2 DUP2 GT ISZERO PUSH2 0x564 JUMPI PUSH2 0x563 PUSH2 0x490 JUMP JUMPDEST JUMPDEST SWAP3 SWAP2 POP POP JUMP JUMPDEST PUSH0 DUP3 DUP3 MSTORE PUSH1 0x20 DUP3 ADD SWAP1 POP SWAP3 SWAP2 POP POP JUMP JUMPDEST PUSH32 0x5A65726F206E6F7420616C6C6F77656400000000000000000000000000000000 PUSH0 DUP3 ADD MSTORE POP JUMP JUMPDEST PUSH0 PUSH2 0x5AE PUSH1 0x10 DUP4 PUSH2 0x56A JUMP JUMPDEST SWAP2 POP PUSH2 0x5B9 DUP3 PUSH2 0x57A JUMP JUMPDEST PUSH1 0x20 DUP3 ADD SWAP1 POP SWAP2 SWAP1 POP JUMP JUMPDEST PUSH0 PUSH1 0x20 DUP3 ADD SWAP1 POP DUP2 DUP2 SUB PUSH0 DUP4 ADD MSTORE PUSH2 0x5DB DUP2 PUSH2 0x5A2 JUMP JUMPDEST SWAP1 POP SWAP2 SWAP1 POP JUMP JUMPDEST PUSH32 0x4F766572666C6F77207269736B00000000000000000000000000000000000000 PUSH0 DUP3 ADD MSTORE POP JUMP JUMPDEST PUSH0 PUSH2 0x616 PUSH1 0xD DUP4 PUSH2 0x56A JUMP JUMPDEST SWAP2 POP PUSH2 0x621 DUP3 PUSH2 0x5E2 JUMP JUMPDEST PUSH1 0x20 DUP3 ADD SWAP1 POP SWAP2 SWAP1 POP JUMP JUMPDEST PUSH0 PUSH1 0x20 DUP3 ADD SWAP1 POP DUP2 DUP2 SUB PUSH0 DUP4 ADD MSTORE PUSH2 0x643 DUP2 PUSH2 0x60A JUMP JUMPDEST SWAP1 POP SWAP2 SWAP1 POP JUMP INVALID LOG2 PUSH5 0x6970667358 0x22 SLT KECCAK256 0x4F SWAP5 PUSH2 0xB057 ADDRESS 0xC9 0x4F 0xC0 0xAA 0xAB STATICCALL CODECOPY PUSH9 0x9051BE262053E5334B BLOBBASEFEE SWAP11 CREATE DUP6 PUSH7 0x5701EBFF64736F PUSH13 0x63430008220033000000000000 "
				},
				"gasEstimates": {
					"creation": {
						"codeDepositCost": "332800",
						"executionCost": "366",
						"totalCost": "333166"
					},
					"external": {
						"addValue(uint256)": "infinite",
						"addValueSafe(uint256)": "infinite",
						"compareGas()": "infinite",
						"counter()": "2425",
						"gasWithValidation()": "2470",
						"gasWithoutValidation()": "2469",
						"lastInput()": "2447",
						"maxUint()": "333",
						"total()": "2447"
					}
				},
				"methodIdentifiers": {
					"addValue(uint256)": "5b9af12b",
					"addValueSafe(uint256)": "ff59c42b",
					"compareGas()": "8f32aa78",
					"counter()": "61bc221a",
					"gasWithValidation()": "53a7df05",
					"gasWithoutValidation()": "76cdf0fa",
					"lastInput()": "6d880102",
					"maxUint()": "16a0c5b5",
					"total()": "2ddbd13a"
				}
			},
			"storageLayout": {
				"storage": [
					{
						"astId": 3,
						"contract": "test74.sol:ZeroValueEdgeCase",
						"label": "total",
						"offset": 0,
						"slot": "0",
						"type": "t_uint256"
					},
					{
						"astId": 5,
						"contract": "test74.sol:ZeroValueEdgeCase",
						"label": "lastInput",
						"offset": 0,
						"slot": "1",
						"type": "t_uint256"
					},
					{
						"astId": 7,
						"contract": "test74.sol:ZeroValueEdgeCase",
						"label": "counter",
						"offset": 0,
						"slot": "2",
						"type": "t_uint256"
					},
					{
						"astId": 9,
						"contract": "test74.sol:ZeroValueEdgeCase",
						"label": "gasWithoutValidation",
						"offset": 0,
						"slot": "3",
						"type": "t_uint256"
					},
					{
						"astId": 11,
						"contract": "test74.sol:ZeroValueEdgeCase",
						"label": "gasWithValidation",
						"offset": 0,
						"slot": "4",
						"type": "t_uint256"
					}
				],
				"types": {
					"t_uint256": {
						"encoding": "inplace",
						"label": "uint256",
						"numberOfBytes": "32"
					}
				}
			},
			"userdoc": {
				"kind": "user",
				"methods": {},
				"version": 1
			}
		}
	}
}