{
	"data": {
		"bytecode": {
			"linkReferences": {},
			"object": "6080604052348015600e575f5ffd5b5061076a8061001c5f395ff3fe608060405234801561000f575f5ffd5b5060043610610086575f3560e01c80634869f99d116100595780634869f99d14610110578063664ca5611461012e5780637aa63a861461014c5780638af77bd71461016a57610086565b80630aaac11a1461008a5780631a36a58e146100a65780632d32d546146100d6578063416e366d146100f4575b5f5ffd5b6100a4600480360381019061009f9190610415565b610188565b005b6100c060048036038101906100bb9190610493565b61022c565b6040516100cd9190610513565b60405180910390f35b6100de6102c6565b6040516100eb9190610513565b60405180910390f35b61010e60048036038101906101099190610415565b6102cc565b005b610118610392565b6040516101259190610513565b60405180910390f35b610136610397565b6040516101439190610513565b60405180910390f35b61015461039d565b6040516101619190610513565b60405180910390f35b6101726103a6565b60405161017f9190610513565b60405180910390f35b6103e882829050146101cf576040517f08c379a00000000000000000000000000000000000000000000000000000000081526004016101c690610586565b60405180910390fd5b5f5f5a90505f5b84849050811015610213578484828181106101f4576101f36105a4565b5b905060200201358361020691906105fe565b92508060010190506101d6565b505a816102209190610631565b60038190555050505050565b5f84849050821115801561023f57508183105b61027e576040517f08c379a0000000000000000000000000000000000000000000000000000000008152600401610275906106ae565b60405180910390fd5b5f8390505b828110156102bd5785858281811061029e5761029d6105a4565b5b90506020020135826102b091906105fe565b9150806001019050610283565b50949350505050565b60035481565b6101f4828290501115610314576040517f08c379a000000000000000000000000000000000000000000000000000000000815260040161030b90610716565b60405180910390fd5b5f5f5a90505f5b8484905081101561035857848482818110610339576103386105a4565b5b905060200201358361034b91906105fe565b925080600101905061031b565b50815f819055508383905060015f82825461037391906105fe565b925050819055505a816103869190610631565b60028190555050505050565b5f5481565b60025481565b5f600154905090565b60015481565b5f5ffd5b5f5ffd5b5f5ffd5b5f5ffd5b5f5ffd5b5f5f83601f8401126103d5576103d46103b4565b5b8235905067ffffffffffffffff8111156103f2576103f16103b8565b5b60208301915083602082028301111561040e5761040d6103bc565b5b9250929050565b5f5f6020838503121561042b5761042a6103ac565b5b5f83013567ffffffffffffffff811115610448576104476103b0565b5b610454858286016103c0565b92509250509250929050565b5f819050919050565b61047281610460565b811461047c575f5ffd5b50565b5f8135905061048d81610469565b92915050565b5f5f5f5f606085870312156104ab576104aa6103ac565b5b5f85013567ffffffffffffffff8111156104c8576104c76103b0565b5b6104d4878288016103c0565b945094505060206104e78782880161047f565b92505060406104f88782880161047f565b91505092959194509250565b61050d81610460565b82525050565b5f6020820190506105265f830184610504565b92915050565b5f82825260208201905092915050565b7f4e656564203130303020656c656d656e747300000000000000000000000000005f82015250565b5f61057060128361052c565b915061057b8261053c565b602082019050919050565b5f6020820190508181035f83015261059d81610564565b9050919050565b7f4e487b71000000000000000000000000000000000000000000000000000000005f52603260045260245ffd5b7f4e487b71000000000000000000000000000000000000000000000000000000005f52601160045260245ffd5b5f61060882610460565b915061061383610460565b925082820190508082111561062b5761062a6105d1565b5b92915050565b5f61063b82610460565b915061064683610460565b925082820390508181111561065e5761065d6105d1565b5b92915050565b7f496e76616c69642072616e6765000000000000000000000000000000000000005f82015250565b5f610698600d8361052c565b91506106a382610664565b602082019050919050565b5f6020820190508181035f8301526106c58161068c565b9050919050565b7f4d61782035303020656c656d656e7473000000000000000000000000000000005f82015250565b5f61070060108361052c565b915061070b826106cc565b602082019050919050565b5f6020820190508181035f83015261072d816106f4565b905091905056fea2646970667358221220d7ff2c31bb6c9e3e835b7603dd168906dbf00d6b7a4c883b64097f887d73c32364736f6c63430008220033",
			"opcodes": "PUSH1 0x80 PUSH1 0x40 MSTORE CALLVALUE DUP1 ISZERO PUSH1 0xE JUMPI PUSH0 PUSH0 REVERT JUMPDEST POP PUSH2 0x76A DUP1 PUSH2 0x1C PUSH0 CODECOPY PUSH0 RETURN INVALID PUSH1 0x80 PUSH1 0x40 MSTORE CALLVALUE DUP1 ISZERO PUSH2 0xF JUMPI PUSH0 PUSH0 REVERT JUMPDEST POP PUSH1 0x4 CALLDATASIZE LT PUSH2 0x86 JUMPI PUSH0 CALLDATALOAD PUSH1 0xE0 SHR DUP1 PUSH4 0x4869F99D GT PUSH2 0x59 JUMPI DUP1 PUSH4 0x4869F99D EQ PUSH2 0x110 JUMPI DUP1 PUSH4 0x664CA561 EQ PUSH2 0x12E JUMPI DUP1 PUSH4 0x7AA63A86 EQ PUSH2 0x14C JUMPI DUP1 PUSH4 0x8AF77BD7 EQ PUSH2 0x16A JUMPI PUSH2 0x86 JUMP JUMPDEST DUP1 PUSH4 0xAAAC11A EQ PUSH2 0x8A JUMPI DUP1 PUSH4 0x1A36A58E EQ PUSH2 0xA6 JUMPI DUP1 PUSH4 0x2D32D546 EQ PUSH2 0xD6 JUMPI DUP1 PUSH4 0x416E366D EQ PUSH2 0xF4 JUMPI JUMPDEST PUSH0 PUSH0 REVERT JUMPDEST PUSH2 0xA4 PUSH1 0x4 DUP1 CALLDATASIZE SUB DUP2 ADD SWAP1 PUSH2 0x9F SWAP2 SWAP1 PUSH2 0x415 JUMP JUMPDEST PUSH2 0x188 JUMP JUMPDEST STOP JUMPDEST PUSH2 0xC0 PUSH1 0x4 DUP1 CALLDATASIZE SUB DUP2 ADD SWAP1 PUSH2 0xBB SWAP2 SWAP1 PUSH2 0x493 JUMP JUMPDEST PUSH2 0x22C JUMP JUMPDEST PUSH1 0x40 MLOAD PUSH2 0xCD SWAP2 SWAP1 PUSH2 0x513 JUMP JUMPDEST PUSH1 0x40 MLOAD DUP1 SWAP2 SUB SWAP1 RETURN JUMPDEST PUSH2 0xDE PUSH2 0x2C6 JUMP JUMPDEST PUSH1 0x40 MLOAD PUSH2 0xEB SWAP2 SWAP1 PUSH2 0x513 JUMP JUMPDEST PUSH1 0x40 MLOAD DUP1 SWAP2 SUB SWAP1 RETURN JUMPDEST PUSH2 0x10E PUSH1 0x4 DUP1 CALLDATASIZE SUB DUP2 ADD SWAP1 PUSH2 0x109 SWAP2 SWAP1 PUSH2 0x415 JUMP JUMPDEST PUSH2 0x2CC JUMP JUMPDEST STOP JUMPDEST PUSH2 0x118 PUSH2 0x392 JUMP JUMPDEST PUSH1 0x40 MLOAD PUSH2 0x125 SWAP2 SWAP1 PUSH2 0x513 JUMP JUMPDEST PUSH1 0x40 MLOAD DUP1 SWAP2 SUB SWAP1 RETURN JUMPDEST PUSH2 0x136 PUSH2 0x397 JUMP JUMPDEST PUSH1 0x40 MLOAD PUSH2 0x143 SWAP2 SWAP1 PUSH2 0x513 JUMP JUMPDEST PUSH1 0x40 MLOAD DUP1 SWAP2 SUB SWAP1 RETURN JUMPDEST PUSH2 0x154 PUSH2 0x39D JUMP JUMPDEST PUSH1 0x40 MLOAD PUSH2 0x161 SWAP2 SWAP1 PUSH2 0x513 JUMP JUMPDEST PUSH1 0x40 MLOAD DUP1 SWAP2 SUB SWAP1 RETURN JUMPDEST PUSH2 0x172 PUSH2 0x3A6 JUMP JUMPDEST PUSH1 0x40 MLOAD PUSH2 0x17F SWAP2 SWAP1 PUSH2 0x513 JUMP JUMPDEST PUSH1 0x40 MLOAD DUP1 SWAP2 SUB SWAP1 RETURN JUMPDEST PUSH2 0x3E8 DUP3 DUP3 SWAP1 POP EQ PUSH2 0x1CF JUMPI PUSH1 0x40 MLOAD PUSH32 0x8C379A000000000000000000000000000000000000000000000000000000000 DUP2 MSTORE PUSH1 0x4 ADD PUSH2 0x1C6 SWAP1 PUSH2 0x586 JUMP JUMPDEST PUSH1 0x40 MLOAD DUP1 SWAP2 SUB SWAP1 REVERT JUMPDEST PUSH0 PUSH0 GAS SWAP1 POP PUSH0 JUMPDEST DUP5 DUP5 SWAP1 POP DUP2 LT ISZERO PUSH2 0x213 JUMPI DUP5 DUP5 DUP3 DUP2 DUP2 LT PUSH2 0x1F4 JUMPI PUSH2 0x1F3 PUSH2 0x5A4 JUMP JUMPDEST JUMPDEST SWAP1 POP PUSH1 0x20 MUL ADD CALLDATALOAD DUP4 PUSH2 0x206 SWAP2 SWAP1 PUSH2 0x5FE JUMP JUMPDEST SWAP3 POP DUP1 PUSH1 0x1 ADD SWAP1 POP PUSH2 0x1D6 JUMP JUMPDEST POP GAS DUP2 PUSH2 0x220 SWAP2 SWAP1 PUSH2 0x631 JUMP JUMPDEST PUSH1 0x3 DUP2 SWAP1 SSTORE POP POP POP POP POP JUMP JUMPDEST PUSH0 DUP5 DUP5 SWAP1 POP DUP3 GT ISZERO DUP1 ISZERO PUSH2 0x23F JUMPI POP DUP2 DUP4 LT JUMPDEST PUSH2 0x27E JUMPI PUSH1 0x40 MLOAD PUSH32 0x8C379A000000000000000000000000000000000000000000000000000000000 DUP2 MSTORE PUSH1 0x4 ADD PUSH2 0x275 SWAP1 PUSH2 0x6AE JUMP JUMPDEST PUSH1 0x40 MLOAD DUP1 SWAP2 SUB SWAP1 REVERT JUMPDEST PUSH0 DUP4 SWAP1 POP JUMPDEST DUP3 DUP2 LT ISZERO PUSH2 0x2BD JUMPI DUP6 DUP6 DUP3 DUP2 DUP2 LT PUSH2 0x29E JUMPI PUSH2 0x29D PUSH2 0x5A4 JUMP JUMPDEST JUMPDEST SWAP1 POP PUSH1 0x20 MUL ADD CALLDATALOAD DUP3 PUSH2 0x2B0 SWAP2 SWAP1 PUSH2 0x5FE JUMP JUMPDEST SWAP2 POP DUP1 PUSH1 0x1 ADD SWAP1 POP PUSH2 0x283 JUMP JUMPDEST POP SWAP5 SWAP4 POP POP POP POP JUMP JUMPDEST PUSH1 0x3 SLOAD DUP2 JUMP JUMPDEST PUSH2 0x1F4 DUP3 DUP3 SWAP1 POP GT ISZERO PUSH2 0x314 JUMPI PUSH1 0x40 MLOAD PUSH32 0x8C379A000000000000000000000000000000000000000000000000000000000 DUP2 MSTORE PUSH1 0x4 ADD PUSH2 0x30B SWAP1 PUSH2 0x716 JUMP JUMPDEST PUSH1 0x40 MLOAD DUP1 SWAP2 SUB SWAP1 REVERT JUMPDEST PUSH0 PUSH0 GAS SWAP1 POP PUSH0 JUMPDEST DUP5 DUP5 SWAP1 POP DUP2 LT ISZERO PUSH2 0x358 JUMPI DUP5 DUP5 DUP3 DUP2 DUP2 LT PUSH2 0x339 JUMPI PUSH2 0x338 PUSH2 0x5A4 JUMP JUMPDEST JUMPDEST SWAP1 POP PUSH1 0x20 MUL ADD CALLDATALOAD DUP4 PUSH2 0x34B SWAP2 SWAP1 PUSH2 0x5FE JUMP JUMPDEST SWAP3 POP DUP1 PUSH1 0x1 ADD SWAP1 POP PUSH2 0x31B JUMP JUMPDEST POP DUP2 PUSH0 DUP2 SWAP1 SSTORE POP DUP4 DUP4 SWAP1 POP PUSH1 0x1 PUSH0 DUP3 DUP3 SLOAD PUSH2 0x373 SWAP2 SWAP1 PUSH2 0x5FE JUMP JUMPDEST SWAP3 POP POP DUP2 SWAP1 SSTORE POP GAS DUP2 PUSH2 0x386 SWAP2 SWAP1 PUSH2 0x631 JUMP JUMPDEST PUSH1 0x2 DUP2 SWAP1 SSTORE POP POP POP POP POP JUMP JUMPDEST PUSH0 SLOAD DUP2 JUMP JUMPDEST PUSH1 0x2 SLOAD DUP2 JUMP JUMPDEST PUSH0 PUSH1 0x1 SLOAD SWAP1 POP SWAP1 JUMP JUMPDEST PUSH1 0x1 SLOAD DUP2 JUMP JUMPDEST PUSH0 PUSH0 REVERT JUMPDEST PUSH0 PUSH0 REVERT JUMPDEST PUSH0 PUSH0 REVERT JUMPDEST PUSH0 PUSH0 REVERT JUMPDEST PUSH0 PUSH0 REVERT JUMPDEST PUSH0 PUSH0 DUP4 PUSH1 0x1F DUP5 ADD SLT PUSH2 0x3D5 JUMPI PUSH2 0x3D4 PUSH2 0x3B4 JUMP JUMPDEST JUMPDEST DUP3 CALLDATALOAD SWAP1 POP PUSH8 0xFFFFFFFFFFFFFFFF DUP2 GT ISZERO PUSH2 0x3F2 JUMPI PUSH2 0x3F1 PUSH2 0x3B8 JUMP JUMPDEST JUMPDEST PUSH1 0x20 DUP4 ADD SWAP2 POP DUP4 PUSH1 0x20 DUP3 MUL DUP4 ADD GT ISZERO PUSH2 0x40E JUMPI PUSH2 0x40D PUSH2 0x3BC JUMP JUMPDEST JUMPDEST SWAP3 POP SWAP3 SWAP1 POP JUMP JUMPDEST PUSH0 PUSH0 PUSH1 0x20 DUP4 DUP6 SUB SLT ISZERO PUSH2 0x42B JUMPI PUSH2 0x42A PUSH2 0x3AC JUMP JUMPDEST JUMPDEST PUSH0 DUP4 ADD CALLDATALOAD PUSH8 0xFFFFFFFFFFFFFFFF DUP2 GT ISZERO PUSH2 0x448 JUMPI PUSH2 0x447 PUSH2 0x3B0 JUMP JUMPDEST JUMPDEST PUSH2 0x454 DUP6 DUP3 DUP7 ADD PUSH2 0x3C0 JUMP JUMPDEST SWAP3 POP SWAP3 POP POP SWAP3 POP SWAP3 SWAP1 POP JUMP JUMPDEST PUSH0 DUP2 SWAP1 POP SWAP2 SWAP1 POP JUMP JUMPDEST PUSH2 0x472 DUP2 PUSH2 0x460 JUMP JUMPDEST DUP2 EQ PUSH2 0x47C JUMPI PUSH0 PUSH0 REVERT JUMPDEST POP JUMP JUMPDEST PUSH0 DUP2 CALLDATALOAD SWAP1 POP PUSH2 0x48D DUP2 PUSH2 0x469 JUMP JUMPDEST SWAP3 SWAP2 POP POP JUMP JUMPDEST PUSH0 PUSH0 PUSH0 PUSH0 PUSH1 0x60 DUP6 DUP8 SUB SLT ISZERO PUSH2 0x4AB JUMPI PUSH2 0x4AA PUSH2 0x3AC JUMP JUMPDEST JUMPDEST PUSH0 DUP6 ADD CALLDATALOAD PUSH8 0xFFFFFFFFFFFFFFFF DUP2 GT ISZERO PUSH2 0x4C8 JUMPI PUSH2 0x4C7 PUSH2 0x3B0 JUMP JUMPDEST JUMPDEST PUSH2 0x4D4 DUP8 DUP3 DUP9 ADD PUSH2 0x3C0 JUMP JUMPDEST SWAP5 POP SWAP5 POP POP PUSH1 0x20 PUSH2 0x4E7 DUP8 DUP3 DUP9 ADD PUSH2 0x47F JUMP JUMPDEST SWAP3 POP POP PUSH1 0x40 PUSH2 0x4F8 DUP8 DUP3 DUP9 ADD PUSH2 0x47F JUMP JUMPDEST SWAP2 POP POP SWAP3 SWAP6 SWAP2 SWAP5 POP SWAP3 POP JUMP JUMPDEST PUSH2 0x50D DUP2 PUSH2 0x460 JUMP JUMPDEST DUP3 MSTORE POP POP JUMP JUMPDEST PUSH0 PUSH1 0x20 DUP3 ADD SWAP1 POP PUSH2 0x526 PUSH0 DUP4 ADD DUP5 PUSH2 0x504 JUMP JUMPDEST SWAP3 SWAP2 POP POP JUMP JUMPDEST PUSH0 DUP3 DUP3 MSTORE PUSH1 0x20 DUP3 ADD SWAP1 POP SWAP3 SWAP2 POP POP JUMP JUMPDEST PUSH32 0x4E656564203130303020656C656D656E74730000000000000000000000000000 PUSH0 DUP3 ADD MSTORE POP JUMP JUMPDEST PUSH0 PUSH2 0x570 PUSH1 0x12 DUP4 PUSH2 0x52C JUMP JUMPDEST SWAP2 POP PUSH2 0x57B DUP3 PUSH2 0x53C JUMP JUMPDEST PUSH1 0x20 DUP3 ADD SWAP1 POP SWAP2 SWAP1 POP JUMP JUMPDEST PUSH0 PUSH1 0x20 DUP3 ADD SWAP1 POP DUP2 DUP2 SUB PUSH0 DUP4 ADD MSTORE PUSH2 0x59D DUP2 PUSH2 0x564 JUMP JUMPDEST SWAP1 POP SWAP2 SWAP1 POP JUMP JUMPDEST PUSH32 0x4E487B7100000000000000000000000000000000000000000000000000000000 PUSH0 MSTORE PUSH1 0x32 PUSH1 0x4 MSTORE PUSH1 0x24 PUSH0 REVERT JUMPDEST PUSH32 0x4E487B7100000000000000000000000000000000000000000000000000000000 PUSH0 MSTORE PUSH1 0x11 PUSH1 0x4 MSTORE PUSH1 0x24 PUSH0 REVERT JUMPDEST PUSH0 PUSH2 0x608 DUP3 PUSH2 0x460 JUMP JUMPDEST SWAP2 POP PUSH2 0x613 DUP4 PUSH2 0x460 JUMP JUMPDEST SWAP3 POP DUP3 DUP3 ADD SWAP1 POP DUP1 DUP3 GT ISZERO PUSH2 0x62B JUMPI PUSH2 0x62A PUSH2 0x5D1 JUMP JUMPDEST JUMPDEST SWAP3 SWAP2 POP POP JUMP JUMPDEST PUSH0 PUSH2 0x63B DUP3 PUSH2 0x460 JUMP JUMPDEST SWAP2 POP PUSH2 0x646 DUP4 PUSH2 0x460 JUMP JUMPDEST SWAP3 POP DUP3 DUP3 SUB SWAP1 POP DUP2 DUP2 GT ISZERO PUSH2 0x65E JUMPI PUSH2 0x65D PUSH2 0x5D1 JUMP JUMPDEST JUMPDEST SWAP3 SWAP2 POP POP JUMP JUMPDEST PUSH32 0x496E76616C69642072616E676500000000000000000000000000000000000000 PUSH0 DUP3 ADD MSTORE POP JUMP JUMPDEST PUSH0 PUSH2 0x698 PUSH1 0xD DUP4 PUSH2 0x52C JUMP JUMPDEST SWAP2 POP PUSH2 0x6A3 DUP3 PUSH2 0x664 JUMP JUMPDEST PUSH1 0x20 DUP3 ADD SWAP1 POP SWAP2 SWAP1 POP JUMP JUMPDEST PUSH0 PUSH1 0x20 DUP3 ADD SWAP1 POP DUP2 DUP2 SUB PUSH0 DUP4 ADD MSTORE PUSH2 0x6C5 DUP2 PUSH2 0x68C JUMP JUMPDEST SWAP1 POP SWAP2 SWAP1 POP JUMP JUMPDEST PUSH32 0x4D61782035303020656C656D656E747300000000000000000000000000000000 PUSH0 DUP3 ADD MSTORE POP JUMP JUMPDEST PUSH0 PUSH2 0x700 PUSH1 0x10 DUP4 PUSH2 0x52C JUMP JUMPDEST SWAP2 POP PUSH2 0x70B DUP3 PUSH2 0x6CC JUMP JUMPDEST PUSH1 0x20 DUP3 ADD SWAP1 POP SWAP2 SWAP1 POP JUMP JUMPDEST PUSH0 PUSH1 0x20 DUP3 ADD SWAP1 POP DUP2 DUP2 SUB PUSH0 DUP4 ADD MSTORE PUSH2 0x72D DUP2 PUSH2 0x6F4 JUMP JUMPDEST SWAP1 POP SWAP2 SWAP1 POP JUMP INVALID LOG2 PUSH5 0x6970667358 0x22 SLT KECCAK256 0xD7 SELFDESTRUCT 0x2C BALANCE 0xBB PUSH13 0x9E3E835B7603DD168906DBF00D PUSH12 0x7A4C883B64097F887D73C323 PUSH5 0x736F6C6343 STOP ADDMOD 0x22 STOP CALLER "
		},
		"gasEstimates": {
			"creation": {
				"codeDepositCost": "379600",
				"executionCost": "416",
				"totalCost": "380016"
			},
			"external": {
				"batchProcess(uint256[],uint256,uint256)": "infinite",
				"compare1000Gas(uint256[])": "infinite",
				"gasUsed1000()": "2470",
				"gasUsed500()": "2447",
				"getTotalElements()": "2476",
				"processCalldataArray(uint256[])": "infinite",
				"totalElements()": "2491",
				"totalSum()": "2424"
			}
		},
		"methodIdentifiers": {
			"batchProcess(uint256[],uint256,uint256)": "1a36a58e",
			"compare1000Gas(uint256[])": "0aaac11a",
			"gasUsed1000()": "2d32d546",
			"gasUsed500()": "664ca561",
			"getTotalElements()": "7aa63a86",
			"processCalldataArray(uint256[])": "416e366d",
			"totalElements()": "8af77bd7",
			"totalSum()": "4869f99d"
		}
	},
	"abi": [
		{
			"inputs": [
				{
					"internalType": "uint256[]",
					"name": "data",
					"type": "uint256[]"
				},
				{
					"internalType": "uint256",
					"name": "start",
					"type": "uint256"
				},
				{
					"internalType": "uint256",
					"name": "end",
					"type": "uint256"
				}
			],
			"name": "batchProcess",
			"outputs": [
				{
					"internalType": "uint256",
					"name": "sum",
					"type": "uint256"
				}
			],
			"stateMutability": "nonpayable",
			"type": "function"
		},
		{
			"inputs": [
				{
					"internalType": "uint256[]",
					"name": "data",
					"type": "uint256[]"
				}
			],
			"name": "compare1000Gas",
			"outputs": [],
			"stateMutability": "nonpayable",
			"type": "function"
		},
		{
			"inputs": [],
			"name": "gasUsed1000",
			"outputs": [
				{
					"internalType": "uint256",
					"name": "",
					"type": "uint256"
				}
			],
			"stateMutability": "view",
			"type": "function"
		},
		{
			"inputs": [],
			"name": "gasUsed500",
			"outputs": [
				{
					"internalType": "uint256",
					"name": "",
					"type": "uint256"
				}
			],
			"stateMutability": "view",
			"type": "function"
		},
		{
			"inputs": [],
			"name": "getTotalElements",
			"outputs": [
				{
					"internalType": "uint256",
					"name": "",
					"type": "uint256"
				}
			],
			"stateMutability": "view",
			"type": "function"
		},
		{
			"inputs": [
				{
					"internalType": "uint256[]",
					"name": "data",
					"type": "uint256[]"
				}
			],
			"name": "processCalldataArray",
			"outputs": [],
			"stateMutability": "nonpayable",
			"type": "function"
		},
		{
			"inputs": [],
			"name": "totalElements",
			"outputs": [
				{
					"internalType": "uint256",
					"name": "",
					"type": "uint256"
				}
			],
			"stateMutability": "view",
			"type": "function"
		},
		{
			"inputs": [],
			"name": "totalSum",
			"outputs": [
				{
					"internalType": "uint256",
					"name": "",
					"type": "uint256"
				}
			],
			"stateMutability": "view",
			"type": "function"
		}
	]
}