{
	"data": {
		"bytecode": {
			"linkReferences": {},
			"object": "6080604052348015600e575f5ffd5b506111148061001c5f395ff3fe608060405260043610610094575f3560e01c806374be48061161005857806374be480614610145578063830c29ae146101615780638b7afe2e1461017d5780639415bc59146101a7578063c2ef3603146101d15761009b565b806321b1e5f81461009f57806329158d72146100bb57806341456ddb146100e357806346f99063146100ff578063636e082b146101295761009b565b3661009b57005b5f5ffd5b6100b960048036038101906100b4919061092f565b6101f9565b005b3480156100c6575f5ffd5b506100e160048036038101906100dc9190610995565b610323565b005b6100fd60048036038101906100f8919061092f565b61046f565b005b34801561010a575f5ffd5b5061011361055f565b60405161012091906109d8565b60405180910390f35b610143600480360381019061013e919061092f565b610565565b005b61015f600480360381019061015a919061092f565b6105e4565b005b61017b6004803603810190610176919061092f565b610696565b005b348015610188575f5ffd5b50610191610779565b60405161019e91906109d8565b60405180910390f35b3480156101b2575f5ffd5b506101bb610780565b6040516101c89190610a0b565b60405180910390f35b3480156101dc575f5ffd5b506101f760048036038101906101f29190610995565b610791565b005b5f8173ffffffffffffffffffffffffffffffffffffffff163460405161021e90610a51565b5f6040518083038185875af1925050503d805f8114610258576040519150601f19603f3d011682016040523d82523d5f602084013e61025d565b606091505b50509050805f5f6101000a81548160ff021916908315150217905550806102b9576040517f08c379a00000000000000000000000000000000000000000000000000000000081526004016102b090610abf565b60405180910390fd5b3460015f8282546102ca9190610b0a565b925050819055508173ffffffffffffffffffffffffffffffffffffffff167f6109e2559dfa766aaec7118351d48a523f0a4157f49c8d68749c8ac41318ad123460405161031791906109d8565b60405180910390a25050565b8073ffffffffffffffffffffffffffffffffffffffff16630b93381b6040518163ffffffff1660e01b81526004015f60405180830381865afa92505050801561038e57506040513d5f823e3d601f19601f8201168201806040525081019061038b9190610c79565b60015b6104335761039a610ccc565b806308c379a0036103f657506103ae610ceb565b806103b957506103f8565b7f2170a899eb3df99de3d6973d7f04a8981d877b84ca2055234d696ae04a5547f3816040516103e89190610dbc565b60405180910390a15061042e565b505b7f2170a899eb3df99de3d6973d7f04a8981d877b84ca2055234d696ae04a5547f360405161042590610e26565b60405180910390a15b61046c565b7f907064b0143a723ebd8288b576f516a5fe1e8ff61101035f8d305a383cf11854816040516104629190610dbc565b60405180910390a1505b50565b5f8173ffffffffffffffffffffffffffffffffffffffff163460405161049490610a51565b5f6040518083038185875af1925050503d805f81146104ce576040519150601f19603f3d011682016040523d82523d5f602084013e6104d3565b606091505b50509050805f5f6101000a81548160ff02191690831515021790555080610543578173ffffffffffffffffffffffffffffffffffffffff167f2c6a51e2684f1f7a886cf191634578f6404bec70bca6691f42f1818fdb5f2acd3460405161053a91906109d8565b60405180910390a25b3460015f8282546105549190610b0a565b925050819055505050565b60015481565b8073ffffffffffffffffffffffffffffffffffffffff166108fc3490811502906040515f60405180830381858888f193505050501580156105a8573d5f5f3e3d5ffd5b507f2e9574c196c05569c85f681508877828b5e771b15ae7311f1a4dbbd2a1481c1460016040516105d99190610e8e565b60405180910390a150565b5f8173ffffffffffffffffffffffffffffffffffffffff166108fc3490811502906040515f60405180830381858888f1935050505090507f2e9574c196c05569c85f681508877828b5e771b15ae7311f1a4dbbd2a1481c148160405161064a9190610f04565b60405180910390a180610692576040517f08c379a000000000000000000000000000000000000000000000000000000000815260040161068990610f7a565b60405180910390fd5b5050565b5f8173ffffffffffffffffffffffffffffffffffffffff16346040516106bb90610a51565b5f6040518083038185875af1925050503d805f81146106f5576040519150601f19603f3d011682016040523d82523d5f602084013e6106fa565b606091505b505090507f2e9574c196c05569c85f681508877828b5e771b15ae7311f1a4dbbd2a1481c148160405161072d9190610fe2565b60405180910390a180610775576040517f08c379a000000000000000000000000000000000000000000000000000000000815260040161076c90611058565b60405180910390fd5b5050565b5f47905090565b5f5f9054906101000a900460ff1681565b8073ffffffffffffffffffffffffffffffffffffffff1663a9cc47186040518163ffffffff1660e01b81526004015f6040518083038186803b1580156107d5575f5ffd5b505afa9250505080156107e6575060015b61088b576107f2610ccc565b806308c379a00361084e5750610806610ceb565b806108115750610850565b7f2170a899eb3df99de3d6973d7f04a8981d877b84ca2055234d696ae04a5547f3816040516108409190610dbc565b60405180910390a150610886565b505b7f2170a899eb3df99de3d6973d7f04a8981d877b84ca2055234d696ae04a5547f360405161087d90610e26565b60405180910390a15b6108c1565b7f907064b0143a723ebd8288b576f516a5fe1e8ff61101035f8d305a383cf118546040516108b8906110c0565b60405180910390a15b50565b5f604051905090565b5f5ffd5b5f5ffd5b5f73ffffffffffffffffffffffffffffffffffffffff82169050919050565b5f6108fe826108d5565b9050919050565b61090e816108f4565b8114610918575f5ffd5b50565b5f8135905061092981610905565b92915050565b5f60208284031215610944576109436108cd565b5b5f6109518482850161091b565b91505092915050565b5f610964826108d5565b9050919050565b6109748161095a565b811461097e575f5ffd5b50565b5f8135905061098f8161096b565b92915050565b5f602082840312156109aa576109a96108cd565b5b5f6109b784828501610981565b91505092915050565b5f819050919050565b6109d2816109c0565b82525050565b5f6020820190506109eb5f8301846109c9565b92915050565b5f8115159050919050565b610a05816109f1565b82525050565b5f602082019050610a1e5f8301846109fc565b92915050565b5f81905092915050565b50565b5f610a3c5f83610a24565b9150610a4782610a2e565b5f82019050919050565b5f610a5b82610a31565b9150819050919050565b5f82825260208201905092915050565b7f455448207472616e73666572206661696c6564000000000000000000000000005f82015250565b5f610aa9601383610a65565b9150610ab482610a75565b602082019050919050565b5f6020820190508181035f830152610ad681610a9d565b9050919050565b7f4e487b71000000000000000000000000000000000000000000000000000000005f52601160045260245ffd5b5f610b14826109c0565b9150610b1f836109c0565b9250828201905080821115610b3757610b36610add565b5b92915050565b5f5ffd5b5f5ffd5b5f601f19601f8301169050919050565b7f4e487b71000000000000000000000000000000000000000000000000000000005f52604160045260245ffd5b610b8b82610b45565b810181811067ffffffffffffffff82111715610baa57610ba9610b55565b5b80604052505050565b5f610bbc6108c4565b9050610bc88282610b82565b919050565b5f67ffffffffffffffff821115610be757610be6610b55565b5b610bf082610b45565b9050602081019050919050565b8281835e5f83830152505050565b5f610c1d610c1884610bcd565b610bb3565b905082815260208101848484011115610c3957610c38610b41565b5b610c44848285610bfd565b509392505050565b5f82601f830112610c6057610c5f610b3d565b5b8151610c70848260208601610c0b565b91505092915050565b5f60208284031215610c8e57610c8d6108cd565b5b5f82015167ffffffffffffffff811115610cab57610caa6108d1565b5b610cb784828501610c4c565b91505092915050565b5f8160e01c9050919050565b5f60033d1115610ce85760045f5f3e610ce55f51610cc0565b90505b90565b5f60443d10610d7757610cfc6108c4565b60043d036004823e80513d602482011167ffffffffffffffff82111715610d24575050610d77565b808201805167ffffffffffffffff811115610d425750505050610d77565b80602083010160043d038501811115610d5f575050505050610d77565b610d6e82602001850186610b82565b82955050505050505b90565b5f81519050919050565b5f610d8e82610d7a565b610d988185610a65565b9350610da8818560208601610bfd565b610db181610b45565b840191505092915050565b5f6020820190508181035f830152610dd48184610d84565b905092915050565b7f556e6b6e6f776e206572726f72000000000000000000000000000000000000005f82015250565b5f610e10600d83610a65565b9150610e1b82610ddc565b602082019050919050565b5f6020820190508181035f830152610e3d81610e04565b9050919050565b7f7472616e736665720000000000000000000000000000000000000000000000005f82015250565b5f610e78600883610a65565b9150610e8382610e44565b602082019050919050565b5f6040820190508181035f830152610ea581610e6c565b9050610eb460208301846109fc565b92915050565b7f73656e64000000000000000000000000000000000000000000000000000000005f82015250565b5f610eee600483610a65565b9150610ef982610eba565b602082019050919050565b5f6040820190508181035f830152610f1b81610ee2565b9050610f2a60208301846109fc565b92915050565b7f73656e64206661696c65640000000000000000000000000000000000000000005f82015250565b5f610f64600b83610a65565b9150610f6f82610f30565b602082019050919050565b5f6020820190508181035f830152610f9181610f58565b9050919050565b7f63616c6c000000000000000000000000000000000000000000000000000000005f82015250565b5f610fcc600483610a65565b9150610fd782610f98565b602082019050919050565b5f6040820190508181035f830152610ff981610fc0565b905061100860208301846109fc565b92915050565b7f63616c6c206661696c65640000000000000000000000000000000000000000005f82015250565b5f611042600b83610a65565b915061104d8261100e565b602082019050919050565b5f6020820190508181035f83015261106f81611036565b9050919050565b7f556e6578706563746564207375636365737300000000000000000000000000005f82015250565b5f6110aa601283610a65565b91506110b582611076565b602082019050919050565b5f6020820190508181035f8301526110d78161109e565b905091905056fea26469706673582212200bf634f8256b689f865af47a7d643b21914ea1a7a38dc6647eb7a9d1276cb62c64736f6c63430008220033",
			"opcodes": "PUSH1 0x80 PUSH1 0x40 MSTORE CALLVALUE DUP1 ISZERO PUSH1 0xE JUMPI PUSH0 PUSH0 REVERT JUMPDEST POP PUSH2 0x1114 DUP1 PUSH2 0x1C PUSH0 CODECOPY PUSH0 RETURN INVALID PUSH1 0x80 PUSH1 0x40 MSTORE PUSH1 0x4 CALLDATASIZE LT PUSH2 0x94 JUMPI PUSH0 CALLDATALOAD PUSH1 0xE0 SHR DUP1 PUSH4 0x74BE4806 GT PUSH2 0x58 JUMPI DUP1 PUSH4 0x74BE4806 EQ PUSH2 0x145 JUMPI DUP1 PUSH4 0x830C29AE EQ PUSH2 0x161 JUMPI DUP1 PUSH4 0x8B7AFE2E EQ PUSH2 0x17D JUMPI DUP1 PUSH4 0x9415BC59 EQ PUSH2 0x1A7 JUMPI DUP1 PUSH4 0xC2EF3603 EQ PUSH2 0x1D1 JUMPI PUSH2 0x9B JUMP JUMPDEST DUP1 PUSH4 0x21B1E5F8 EQ PUSH2 0x9F JUMPI DUP1 PUSH4 0x29158D72 EQ PUSH2 0xBB JUMPI DUP1 PUSH4 0x41456DDB EQ PUSH2 0xE3 JUMPI DUP1 PUSH4 0x46F99063 EQ PUSH2 0xFF JUMPI DUP1 PUSH4 0x636E082B EQ PUSH2 0x129 JUMPI PUSH2 0x9B JUMP JUMPDEST CALLDATASIZE PUSH2 0x9B JUMPI STOP JUMPDEST PUSH0 PUSH0 REVERT JUMPDEST PUSH2 0xB9 PUSH1 0x4 DUP1 CALLDATASIZE SUB DUP2 ADD SWAP1 PUSH2 0xB4 SWAP2 SWAP1 PUSH2 0x92F JUMP JUMPDEST PUSH2 0x1F9 JUMP JUMPDEST STOP JUMPDEST CALLVALUE DUP1 ISZERO PUSH2 0xC6 JUMPI PUSH0 PUSH0 REVERT JUMPDEST POP PUSH2 0xE1 PUSH1 0x4 DUP1 CALLDATASIZE SUB DUP2 ADD SWAP1 PUSH2 0xDC SWAP2 SWAP1 PUSH2 0x995 JUMP JUMPDEST PUSH2 0x323 JUMP JUMPDEST STOP JUMPDEST PUSH2 0xFD PUSH1 0x4 DUP1 CALLDATASIZE SUB DUP2 ADD SWAP1 PUSH2 0xF8 SWAP2 SWAP1 PUSH2 0x92F JUMP JUMPDEST PUSH2 0x46F JUMP JUMPDEST STOP JUMPDEST CALLVALUE DUP1 ISZERO PUSH2 0x10A JUMPI PUSH0 PUSH0 REVERT JUMPDEST POP PUSH2 0x113 PUSH2 0x55F JUMP JUMPDEST PUSH1 0x40 MLOAD PUSH2 0x120 SWAP2 SWAP1 PUSH2 0x9D8 JUMP JUMPDEST PUSH1 0x40 MLOAD DUP1 SWAP2 SUB SWAP1 RETURN JUMPDEST PUSH2 0x143 PUSH1 0x4 DUP1 CALLDATASIZE SUB DUP2 ADD SWAP1 PUSH2 0x13E SWAP2 SWAP1 PUSH2 0x92F JUMP JUMPDEST PUSH2 0x565 JUMP JUMPDEST STOP JUMPDEST PUSH2 0x15F PUSH1 0x4 DUP1 CALLDATASIZE SUB DUP2 ADD SWAP1 PUSH2 0x15A SWAP2 SWAP1 PUSH2 0x92F JUMP JUMPDEST PUSH2 0x5E4 JUMP JUMPDEST STOP JUMPDEST PUSH2 0x17B PUSH1 0x4 DUP1 CALLDATASIZE SUB DUP2 ADD SWAP1 PUSH2 0x176 SWAP2 SWAP1 PUSH2 0x92F JUMP JUMPDEST PUSH2 0x696 JUMP JUMPDEST STOP JUMPDEST CALLVALUE DUP1 ISZERO PUSH2 0x188 JUMPI PUSH0 PUSH0 REVERT JUMPDEST POP PUSH2 0x191 PUSH2 0x779 JUMP JUMPDEST PUSH1 0x40 MLOAD PUSH2 0x19E SWAP2 SWAP1 PUSH2 0x9D8 JUMP JUMPDEST PUSH1 0x40 MLOAD DUP1 SWAP2 SUB SWAP1 RETURN JUMPDEST CALLVALUE DUP1 ISZERO PUSH2 0x1B2 JUMPI PUSH0 PUSH0 REVERT JUMPDEST POP PUSH2 0x1BB PUSH2 0x780 JUMP JUMPDEST PUSH1 0x40 MLOAD PUSH2 0x1C8 SWAP2 SWAP1 PUSH2 0xA0B JUMP JUMPDEST PUSH1 0x40 MLOAD DUP1 SWAP2 SUB SWAP1 RETURN JUMPDEST CALLVALUE DUP1 ISZERO PUSH2 0x1DC JUMPI PUSH0 PUSH0 REVERT JUMPDEST POP PUSH2 0x1F7 PUSH1 0x4 DUP1 CALLDATASIZE SUB DUP2 ADD SWAP1 PUSH2 0x1F2 SWAP2 SWAP1 PUSH2 0x995 JUMP JUMPDEST PUSH2 0x791 JUMP JUMPDEST STOP JUMPDEST PUSH0 DUP2 PUSH20 0xFFFFFFFFFFFFFFFFFFFFFFFFFFFFFFFFFFFFFFFF AND CALLVALUE PUSH1 0x40 MLOAD PUSH2 0x21E SWAP1 PUSH2 0xA51 JUMP JUMPDEST PUSH0 PUSH1 0x40 MLOAD DUP1 DUP4 SUB DUP2 DUP6 DUP8 GAS CALL SWAP3 POP POP POP RETURNDATASIZE DUP1 PUSH0 DUP2 EQ PUSH2 0x258 JUMPI PUSH1 0x40 MLOAD SWAP2 POP PUSH1 0x1F NOT PUSH1 0x3F RETURNDATASIZE ADD AND DUP3 ADD PUSH1 0x40 MSTORE RETURNDATASIZE DUP3 MSTORE RETURNDATASIZE PUSH0 PUSH1 0x20 DUP5 ADD RETURNDATACOPY PUSH2 0x25D JUMP JUMPDEST PUSH1 0x60 SWAP2 POP JUMPDEST POP POP SWAP1 POP DUP1 PUSH0 PUSH0 PUSH2 0x100 EXP DUP2 SLOAD DUP2 PUSH1 0xFF MUL NOT AND SWAP1 DUP4 ISZERO ISZERO MUL OR SWAP1 SSTORE POP DUP1 PUSH2 0x2B9 JUMPI PUSH1 0x40 MLOAD PUSH32 0x8C379A000000000000000000000000000000000000000000000000000000000 DUP2 MSTORE PUSH1 0x4 ADD PUSH2 0x2B0 SWAP1 PUSH2 0xABF JUMP JUMPDEST PUSH1 0x40 MLOAD DUP1 SWAP2 SUB SWAP1 REVERT JUMPDEST CALLVALUE PUSH1 0x1 PUSH0 DUP3 DUP3 SLOAD PUSH2 0x2CA SWAP2 SWAP1 PUSH2 0xB0A JUMP JUMPDEST SWAP3 POP POP DUP2 SWAP1 SSTORE POP DUP2 PUSH20 0xFFFFFFFFFFFFFFFFFFFFFFFFFFFFFFFFFFFFFFFF AND PUSH32 0x6109E2559DFA766AAEC7118351D48A523F0A4157F49C8D68749C8AC41318AD12 CALLVALUE PUSH1 0x40 MLOAD PUSH2 0x317 SWAP2 SWAP1 PUSH2 0x9D8 JUMP JUMPDEST PUSH1 0x40 MLOAD DUP1 SWAP2 SUB SWAP1 LOG2 POP POP JUMP JUMPDEST DUP1 PUSH20 0xFFFFFFFFFFFFFFFFFFFFFFFFFFFFFFFFFFFFFFFF AND PUSH4 0xB93381B PUSH1 0x40 MLOAD DUP2 PUSH4 0xFFFFFFFF AND PUSH1 0xE0 SHL DUP2 MSTORE PUSH1 0x4 ADD PUSH0 PUSH1 0x40 MLOAD DUP1 DUP4 SUB DUP2 DUP7 GAS STATICCALL SWAP3 POP POP POP DUP1 ISZERO PUSH2 0x38E JUMPI POP PUSH1 0x40 MLOAD RETURNDATASIZE PUSH0 DUP3 RETURNDATACOPY RETURNDATASIZE PUSH1 0x1F NOT PUSH1 0x1F DUP3 ADD AND DUP3 ADD DUP1 PUSH1 0x40 MSTORE POP DUP2 ADD SWAP1 PUSH2 0x38B SWAP2 SWAP1 PUSH2 0xC79 JUMP JUMPDEST PUSH1 0x1 JUMPDEST PUSH2 0x433 JUMPI PUSH2 0x39A PUSH2 0xCCC JUMP JUMPDEST DUP1 PUSH4 0x8C379A0 SUB PUSH2 0x3F6 JUMPI POP PUSH2 0x3AE PUSH2 0xCEB JUMP JUMPDEST DUP1 PUSH2 0x3B9 JUMPI POP PUSH2 0x3F8 JUMP JUMPDEST PUSH32 0x2170A899EB3DF99DE3D6973D7F04A8981D877B84CA2055234D696AE04A5547F3 DUP2 PUSH1 0x40 MLOAD PUSH2 0x3E8 SWAP2 SWAP1 PUSH2 0xDBC JUMP JUMPDEST PUSH1 0x40 MLOAD DUP1 SWAP2 SUB SWAP1 LOG1 POP PUSH2 0x42E JUMP JUMPDEST POP JUMPDEST PUSH32 0x2170A899EB3DF99DE3D6973D7F04A8981D877B84CA2055234D696AE04A5547F3 PUSH1 0x40 MLOAD PUSH2 0x425 SWAP1 PUSH2 0xE26 JUMP JUMPDEST PUSH1 0x40 MLOAD DUP1 SWAP2 SUB SWAP1 LOG1 JUMPDEST PUSH2 0x46C JUMP JUMPDEST PUSH32 0x907064B0143A723EBD8288B576F516A5FE1E8FF61101035F8D305A383CF11854 DUP2 PUSH1 0x40 MLOAD PUSH2 0x462 SWAP2 SWAP1 PUSH2 0xDBC JUMP JUMPDEST PUSH1 0x40 MLOAD DUP1 SWAP2 SUB SWAP1 LOG1 POP JUMPDEST POP JUMP JUMPDEST PUSH0 DUP2 PUSH20 0xFFFFFFFFFFFFFFFFFFFFFFFFFFFFFFFFFFFFFFFF AND CALLVALUE PUSH1 0x40 MLOAD PUSH2 0x494 SWAP1 PUSH2 0xA51 JUMP JUMPDEST PUSH0 PUSH1 0x40 MLOAD DUP1 DUP4 SUB DUP2 DUP6 DUP8 GAS CALL SWAP3 POP POP POP RETURNDATASIZE DUP1 PUSH0 DUP2 EQ PUSH2 0x4CE JUMPI PUSH1 0x40 MLOAD SWAP2 POP PUSH1 0x1F NOT PUSH1 0x3F RETURNDATASIZE ADD AND DUP3 ADD PUSH1 0x40 MSTORE RETURNDATASIZE DUP3 MSTORE RETURNDATASIZE PUSH0 PUSH1 0x20 DUP5 ADD RETURNDATACOPY PUSH2 0x4D3 JUMP JUMPDEST PUSH1 0x60 SWAP2 POP JUMPDEST POP POP SWAP1 POP DUP1 PUSH0 PUSH0 PUSH2 0x100 EXP DUP2 SLOAD DUP2 PUSH1 0xFF MUL NOT AND SWAP1 DUP4 ISZERO ISZERO MUL OR SWAP1 SSTORE POP DUP1 PUSH2 0x543 JUMPI DUP2 PUSH20 0xFFFFFFFFFFFFFFFFFFFFFFFFFFFFFFFFFFFFFFFF AND PUSH32 0x2C6A51E2684F1F7A886CF191634578F6404BEC70BCA6691F42F1818FDB5F2ACD CALLVALUE PUSH1 0x40 MLOAD PUSH2 0x53A SWAP2 SWAP1 PUSH2 0x9D8 JUMP JUMPDEST PUSH1 0x40 MLOAD DUP1 SWAP2 SUB SWAP1 LOG2 JUMPDEST CALLVALUE PUSH1 0x1 PUSH0 DUP3 DUP3 SLOAD PUSH2 0x554 SWAP2 SWAP1 PUSH2 0xB0A JUMP JUMPDEST SWAP3 POP POP DUP2 SWAP1 SSTORE POP POP POP JUMP JUMPDEST PUSH1 0x1 SLOAD DUP2 JUMP JUMPDEST DUP1 PUSH20 0xFFFFFFFFFFFFFFFFFFFFFFFFFFFFFFFFFFFFFFFF AND PUSH2 0x8FC CALLVALUE SWAP1 DUP2 ISZERO MUL SWAP1 PUSH1 0x40 MLOAD PUSH0 PUSH1 0x40 MLOAD DUP1 DUP4 SUB DUP2 DUP6 DUP9 DUP9 CALL SWAP4 POP POP POP POP ISZERO DUP1 ISZERO PUSH2 0x5A8 JUMPI RETURNDATASIZE PUSH0 PUSH0 RETURNDATACOPY RETURNDATASIZE PUSH0 REVERT JUMPDEST POP PUSH32 0x2E9574C196C05569C85F681508877828B5E771B15AE7311F1A4DBBD2A1481C14 PUSH1 0x1 PUSH1 0x40 MLOAD PUSH2 0x5D9 SWAP2 SWAP1 PUSH2 0xE8E JUMP JUMPDEST PUSH1 0x40 MLOAD DUP1 SWAP2 SUB SWAP1 LOG1 POP JUMP JUMPDEST PUSH0 DUP2 PUSH20 0xFFFFFFFFFFFFFFFFFFFFFFFFFFFFFFFFFFFFFFFF AND PUSH2 0x8FC CALLVALUE SWAP1 DUP2 ISZERO MUL SWAP1 PUSH1 0x40 MLOAD PUSH0 PUSH1 0x40 MLOAD DUP1 DUP4 SUB DUP2 DUP6 DUP9 DUP9 CALL SWAP4 POP POP POP POP SWAP1 POP PUSH32 0x2E9574C196C05569C85F681508877828B5E771B15AE7311F1A4DBBD2A1481C14 DUP2 PUSH1 0x40 MLOAD PUSH2 0x64A SWAP2 SWAP1 PUSH2 0xF04 JUMP JUMPDEST PUSH1 0x40 MLOAD DUP1 SWAP2 SUB SWAP1 LOG1 DUP1 PUSH2 0x692 JUMPI PUSH1 0x40 MLOAD PUSH32 0x8C379A000000000000000000000000000000000000000000000000000000000 DUP2 MSTORE PUSH1 0x4 ADD PUSH2 0x689 SWAP1 PUSH2 0xF7A JUMP JUMPDEST PUSH1 0x40 MLOAD DUP1 SWAP2 SUB SWAP1 REVERT JUMPDEST POP POP JUMP JUMPDEST PUSH0 DUP2 PUSH20 0xFFFFFFFFFFFFFFFFFFFFFFFFFFFFFFFFFFFFFFFF AND CALLVALUE PUSH1 0x40 MLOAD PUSH2 0x6BB SWAP1 PUSH2 0xA51 JUMP JUMPDEST PUSH0 PUSH1 0x40 MLOAD DUP1 DUP4 SUB DUP2 DUP6 DUP8 GAS CALL SWAP3 POP POP POP RETURNDATASIZE DUP1 PUSH0 DUP2 EQ PUSH2 0x6F5 JUMPI PUSH1 0x40 MLOAD SWAP2 POP PUSH1 0x1F NOT PUSH1 0x3F RETURNDATASIZE ADD AND DUP3 ADD PUSH1 0x40 MSTORE RETURNDATASIZE DUP3 MSTORE RETURNDATASIZE PUSH0 PUSH1 0x20 DUP5 ADD RETURNDATACOPY PUSH2 0x6FA JUMP JUMPDEST PUSH1 0x60 SWAP2 POP JUMPDEST POP POP SWAP1 POP PUSH32 0x2E9574C196C05569C85F681508877828B5E771B15AE7311F1A4DBBD2A1481C14 DUP2 PUSH1 0x40 MLOAD PUSH2 0x72D SWAP2 SWAP1 PUSH2 0xFE2 JUMP JUMPDEST PUSH1 0x40 MLOAD DUP1 SWAP2 SUB SWAP1 LOG1 DUP1 PUSH2 0x775 JUMPI PUSH1 0x40 MLOAD PUSH32 0x8C379A000000000000000000000000000000000000000000000000000000000 DUP2 MSTORE PUSH1 0x4 ADD PUSH2 0x76C SWAP1 PUSH2 0x1058 JUMP JUMPDEST PUSH1 0x40 MLOAD DUP1 SWAP2 SUB SWAP1 REVERT JUMPDEST POP POP JUMP JUMPDEST PUSH0 SELFBALANCE SWAP1 POP SWAP1 JUMP JUMPDEST PUSH0 PUSH0 SWAP1 SLOAD SWAP1 PUSH2 0x100 EXP SWAP1 DIV PUSH1 0xFF AND DUP2 JUMP JUMPDEST DUP1 PUSH20 0xFFFFFFFFFFFFFFFFFFFFFFFFFFFFFFFFFFFFFFFF AND PUSH4 0xA9CC4718 PUSH1 0x40 MLOAD DUP2 PUSH4 0xFFFFFFFF AND PUSH1 0xE0 SHL DUP2 MSTORE PUSH1 0x4 ADD PUSH0 PUSH1 0x40 MLOAD DUP1 DUP4 SUB DUP2 DUP7 DUP1 EXTCODESIZE ISZERO DUP1 ISZERO PUSH2 0x7D5 JUMPI PUSH0 PUSH0 REVERT JUMPDEST POP GAS STATICCALL SWAP3 POP POP POP DUP1 ISZERO PUSH2 0x7E6 JUMPI POP PUSH1 0x1 JUMPDEST PUSH2 0x88B JUMPI PUSH2 0x7F2 PUSH2 0xCCC JUMP JUMPDEST DUP1 PUSH4 0x8C379A0 SUB PUSH2 0x84E JUMPI POP PUSH2 0x806 PUSH2 0xCEB JUMP JUMPDEST DUP1 PUSH2 0x811 JUMPI POP PUSH2 0x850 JUMP JUMPDEST PUSH32 0x2170A899EB3DF99DE3D6973D7F04A8981D877B84CA2055234D696AE04A5547F3 DUP2 PUSH1 0x40 MLOAD PUSH2 0x840 SWAP2 SWAP1 PUSH2 0xDBC JUMP JUMPDEST PUSH1 0x40 MLOAD DUP1 SWAP2 SUB SWAP1 LOG1 POP PUSH2 0x886 JUMP JUMPDEST POP JUMPDEST PUSH32 0x2170A899EB3DF99DE3D6973D7F04A8981D877B84CA2055234D696AE04A5547F3 PUSH1 0x40 MLOAD PUSH2 0x87D SWAP1 PUSH2 0xE26 JUMP JUMPDEST PUSH1 0x40 MLOAD DUP1 SWAP2 SUB SWAP1 LOG1 JUMPDEST PUSH2 0x8C1 JUMP JUMPDEST PUSH32 0x907064B0143A723EBD8288B576F516A5FE1E8FF61101035F8D305A383CF11854 PUSH1 0x40 MLOAD PUSH2 0x8B8 SWAP1 PUSH2 0x10C0 JUMP JUMPDEST PUSH1 0x40 MLOAD DUP1 SWAP2 SUB SWAP1 LOG1 JUMPDEST POP JUMP JUMPDEST PUSH0 PUSH1 0x40 MLOAD SWAP1 POP SWAP1 JUMP JUMPDEST PUSH0 PUSH0 REVERT JUMPDEST PUSH0 PUSH0 REVERT JUMPDEST PUSH0 PUSH20 0xFFFFFFFFFFFFFFFFFFFFFFFFFFFFFFFFFFFFFFFF DUP3 AND SWAP1 POP SWAP2 SWAP1 POP JUMP JUMPDEST PUSH0 PUSH2 0x8FE DUP3 PUSH2 0x8D5 JUMP JUMPDEST SWAP1 POP SWAP2 SWAP1 POP JUMP JUMPDEST PUSH2 0x90E DUP2 PUSH2 0x8F4 JUMP JUMPDEST DUP2 EQ PUSH2 0x918 JUMPI PUSH0 PUSH0 REVERT JUMPDEST POP JUMP JUMPDEST PUSH0 DUP2 CALLDATALOAD SWAP1 POP PUSH2 0x929 DUP2 PUSH2 0x905 JUMP JUMPDEST SWAP3 SWAP2 POP POP JUMP JUMPDEST PUSH0 PUSH1 0x20 DUP3 DUP5 SUB SLT ISZERO PUSH2 0x944 JUMPI PUSH2 0x943 PUSH2 0x8CD JUMP JUMPDEST JUMPDEST PUSH0 PUSH2 0x951 DUP5 DUP3 DUP6 ADD PUSH2 0x91B JUMP JUMPDEST SWAP2 POP POP SWAP3 SWAP2 POP POP JUMP JUMPDEST PUSH0 PUSH2 0x964 DUP3 PUSH2 0x8D5 JUMP JUMPDEST SWAP1 POP SWAP2 SWAP1 POP JUMP JUMPDEST PUSH2 0x974 DUP2 PUSH2 0x95A JUMP JUMPDEST DUP2 EQ PUSH2 0x97E JUMPI PUSH0 PUSH0 REVERT JUMPDEST POP JUMP JUMPDEST PUSH0 DUP2 CALLDATALOAD SWAP1 POP PUSH2 0x98F DUP2 PUSH2 0x96B JUMP JUMPDEST SWAP3 SWAP2 POP POP JUMP JUMPDEST PUSH0 PUSH1 0x20 DUP3 DUP5 SUB SLT ISZERO PUSH2 0x9AA JUMPI PUSH2 0x9A9 PUSH2 0x8CD JUMP JUMPDEST JUMPDEST PUSH0 PUSH2 0x9B7 DUP5 DUP3 DUP6 ADD PUSH2 0x981 JUMP JUMPDEST SWAP2 POP POP SWAP3 SWAP2 POP POP JUMP JUMPDEST PUSH0 DUP2 SWAP1 POP SWAP2 SWAP1 POP JUMP JUMPDEST PUSH2 0x9D2 DUP2 PUSH2 0x9C0 JUMP JUMPDEST DUP3 MSTORE POP POP JUMP JUMPDEST PUSH0 PUSH1 0x20 DUP3 ADD SWAP1 POP PUSH2 0x9EB PUSH0 DUP4 ADD DUP5 PUSH2 0x9C9 JUMP JUMPDEST SWAP3 SWAP2 POP POP JUMP JUMPDEST PUSH0 DUP2 ISZERO ISZERO SWAP1 POP SWAP2 SWAP1 POP JUMP JUMPDEST PUSH2 0xA05 DUP2 PUSH2 0x9F1 JUMP JUMPDEST DUP3 MSTORE POP POP JUMP JUMPDEST PUSH0 PUSH1 0x20 DUP3 ADD SWAP1 POP PUSH2 0xA1E PUSH0 DUP4 ADD DUP5 PUSH2 0x9FC JUMP JUMPDEST SWAP3 SWAP2 POP POP JUMP JUMPDEST PUSH0 DUP2 SWAP1 POP SWAP3 SWAP2 POP POP JUMP JUMPDEST POP JUMP JUMPDEST PUSH0 PUSH2 0xA3C PUSH0 DUP4 PUSH2 0xA24 JUMP JUMPDEST SWAP2 POP PUSH2 0xA47 DUP3 PUSH2 0xA2E JUMP JUMPDEST PUSH0 DUP3 ADD SWAP1 POP SWAP2 SWAP1 POP JUMP JUMPDEST PUSH0 PUSH2 0xA5B DUP3 PUSH2 0xA31 JUMP JUMPDEST SWAP2 POP DUP2 SWAP1 POP SWAP2 SWAP1 POP JUMP JUMPDEST PUSH0 DUP3 DUP3 MSTORE PUSH1 0x20 DUP3 ADD SWAP1 POP SWAP3 SWAP2 POP POP JUMP JUMPDEST PUSH32 0x455448207472616E73666572206661696C656400000000000000000000000000 PUSH0 DUP3 ADD MSTORE POP JUMP JUMPDEST PUSH0 PUSH2 0xAA9 PUSH1 0x13 DUP4 PUSH2 0xA65 JUMP JUMPDEST SWAP2 POP PUSH2 0xAB4 DUP3 PUSH2 0xA75 JUMP JUMPDEST PUSH1 0x20 DUP3 ADD SWAP1 POP SWAP2 SWAP1 POP JUMP JUMPDEST PUSH0 PUSH1 0x20 DUP3 ADD SWAP1 POP DUP2 DUP2 SUB PUSH0 DUP4 ADD MSTORE PUSH2 0xAD6 DUP2 PUSH2 0xA9D JUMP JUMPDEST SWAP1 POP SWAP2 SWAP1 POP JUMP JUMPDEST PUSH32 0x4E487B7100000000000000000000000000000000000000000000000000000000 PUSH0 MSTORE PUSH1 0x11 PUSH1 0x4 MSTORE PUSH1 0x24 PUSH0 REVERT JUMPDEST PUSH0 PUSH2 0xB14 DUP3 PUSH2 0x9C0 JUMP JUMPDEST SWAP2 POP PUSH2 0xB1F DUP4 PUSH2 0x9C0 JUMP JUMPDEST SWAP3 POP DUP3 DUP3 ADD SWAP1 POP DUP1 DUP3 GT ISZERO PUSH2 0xB37 JUMPI PUSH2 0xB36 PUSH2 0xADD JUMP JUMPDEST JUMPDEST SWAP3 SWAP2 POP POP JUMP JUMPDEST PUSH0 PUSH0 REVERT JUMPDEST PUSH0 PUSH0 REVERT JUMPDEST PUSH0 PUSH1 0x1F NOT PUSH1 0x1F DUP4 ADD AND SWAP1 POP SWAP2 SWAP1 POP JUMP JUMPDEST PUSH32 0x4E487B7100000000000000000000000000000000000000000000000000000000 PUSH0 MSTORE PUSH1 0x41 PUSH1 0x4 MSTORE PUSH1 0x24 PUSH0 REVERT JUMPDEST PUSH2 0xB8B DUP3 PUSH2 0xB45 JUMP JUMPDEST DUP2 ADD DUP2 DUP2 LT PUSH8 0xFFFFFFFFFFFFFFFF DUP3 GT OR ISZERO PUSH2 0xBAA JUMPI PUSH2 0xBA9 PUSH2 0xB55 JUMP JUMPDEST JUMPDEST DUP1 PUSH1 0x40 MSTORE POP POP POP JUMP JUMPDEST PUSH0 PUSH2 0xBBC PUSH2 0x8C4 JUMP JUMPDEST SWAP1 POP PUSH2 0xBC8 DUP3 DUP3 PUSH2 0xB82 JUMP JUMPDEST SWAP2 SWAP1 POP JUMP JUMPDEST PUSH0 PUSH8 0xFFFFFFFFFFFFFFFF DUP3 GT ISZERO PUSH2 0xBE7 JUMPI PUSH2 0xBE6 PUSH2 0xB55 JUMP JUMPDEST JUMPDEST PUSH2 0xBF0 DUP3 PUSH2 0xB45 JUMP JUMPDEST SWAP1 POP PUSH1 0x20 DUP2 ADD SWAP1 POP SWAP2 SWAP1 POP JUMP JUMPDEST DUP3 DUP2 DUP4 MCOPY PUSH0 DUP4 DUP4 ADD MSTORE POP POP POP JUMP JUMPDEST PUSH0 PUSH2 0xC1D PUSH2 0xC18 DUP5 PUSH2 0xBCD JUMP JUMPDEST PUSH2 0xBB3 JUMP JUMPDEST SWAP1 POP DUP3 DUP2 MSTORE PUSH1 0x20 DUP2 ADD DUP5 DUP5 DUP5 ADD GT ISZERO PUSH2 0xC39 JUMPI PUSH2 0xC38 PUSH2 0xB41 JUMP JUMPDEST JUMPDEST PUSH2 0xC44 DUP5 DUP3 DUP6 PUSH2 0xBFD JUMP JUMPDEST POP SWAP4 SWAP3 POP POP POP JUMP JUMPDEST PUSH0 DUP3 PUSH1 0x1F DUP4 ADD SLT PUSH2 0xC60 JUMPI PUSH2 0xC5F PUSH2 0xB3D JUMP JUMPDEST JUMPDEST DUP2 MLOAD PUSH2 0xC70 DUP5 DUP3 PUSH1 0x20 DUP7 ADD PUSH2 0xC0B JUMP JUMPDEST SWAP2 POP POP SWAP3 SWAP2 POP POP JUMP JUMPDEST PUSH0 PUSH1 0x20 DUP3 DUP5 SUB SLT ISZERO PUSH2 0xC8E JUMPI PUSH2 0xC8D PUSH2 0x8CD JUMP JUMPDEST JUMPDEST PUSH0 DUP3 ADD MLOAD PUSH8 0xFFFFFFFFFFFFFFFF DUP2 GT ISZERO PUSH2 0xCAB JUMPI PUSH2 0xCAA PUSH2 0x8D1 JUMP JUMPDEST JUMPDEST PUSH2 0xCB7 DUP5 DUP3 DUP6 ADD PUSH2 0xC4C JUMP JUMPDEST SWAP2 POP POP SWAP3 SWAP2 POP POP JUMP JUMPDEST PUSH0 DUP2 PUSH1 0xE0 SHR SWAP1 POP SWAP2 SWAP1 POP JUMP JUMPDEST PUSH0 PUSH1 0x3 RETURNDATASIZE GT ISZERO PUSH2 0xCE8 JUMPI PUSH1 0x4 PUSH0 PUSH0 RETURNDATACOPY PUSH2 0xCE5 PUSH0 MLOAD PUSH2 0xCC0 JUMP JUMPDEST SWAP1 POP JUMPDEST SWAP1 JUMP JUMPDEST PUSH0 PUSH1 0x44 RETURNDATASIZE LT PUSH2 0xD77 JUMPI PUSH2 0xCFC PUSH2 0x8C4 JUMP JUMPDEST PUSH1 0x4 RETURNDATASIZE SUB PUSH1 0x4 DUP3 RETURNDATACOPY DUP1 MLOAD RETURNDATASIZE PUSH1 0x24 DUP3 ADD GT PUSH8 0xFFFFFFFFFFFFFFFF DUP3 GT OR ISZERO PUSH2 0xD24 JUMPI POP POP PUSH2 0xD77 JUMP JUMPDEST DUP1 DUP3 ADD DUP1 MLOAD PUSH8 0xFFFFFFFFFFFFFFFF DUP2 GT ISZERO PUSH2 0xD42 JUMPI POP POP POP POP PUSH2 0xD77 JUMP JUMPDEST DUP1 PUSH1 0x20 DUP4 ADD ADD PUSH1 0x4 RETURNDATASIZE SUB DUP6 ADD DUP2 GT ISZERO PUSH2 0xD5F JUMPI POP POP POP POP POP PUSH2 0xD77 JUMP JUMPDEST PUSH2 0xD6E DUP3 PUSH1 0x20 ADD DUP6 ADD DUP7 PUSH2 0xB82 JUMP JUMPDEST DUP3 SWAP6 POP POP POP POP POP POP JUMPDEST SWAP1 JUMP JUMPDEST PUSH0 DUP2 MLOAD SWAP1 POP SWAP2 SWAP1 POP JUMP JUMPDEST PUSH0 PUSH2 0xD8E DUP3 PUSH2 0xD7A JUMP JUMPDEST PUSH2 0xD98 DUP2 DUP6 PUSH2 0xA65 JUMP JUMPDEST SWAP4 POP PUSH2 0xDA8 DUP2 DUP6 PUSH1 0x20 DUP7 ADD PUSH2 0xBFD JUMP JUMPDEST PUSH2 0xDB1 DUP2 PUSH2 0xB45 JUMP JUMPDEST DUP5 ADD SWAP2 POP POP SWAP3 SWAP2 POP POP JUMP JUMPDEST PUSH0 PUSH1 0x20 DUP3 ADD SWAP1 POP DUP2 DUP2 SUB PUSH0 DUP4 ADD MSTORE PUSH2 0xDD4 DUP2 DUP5 PUSH2 0xD84 JUMP JUMPDEST SWAP1 POP SWAP3 SWAP2 POP POP JUMP JUMPDEST PUSH32 0x556E6B6E6F776E206572726F7200000000000000000000000000000000000000 PUSH0 DUP3 ADD MSTORE POP JUMP JUMPDEST PUSH0 PUSH2 0xE10 PUSH1 0xD DUP4 PUSH2 0xA65 JUMP JUMPDEST SWAP2 POP PUSH2 0xE1B DUP3 PUSH2 0xDDC JUMP JUMPDEST PUSH1 0x20 DUP3 ADD SWAP1 POP SWAP2 SWAP1 POP JUMP JUMPDEST PUSH0 PUSH1 0x20 DUP3 ADD SWAP1 POP DUP2 DUP2 SUB PUSH0 DUP4 ADD MSTORE PUSH2 0xE3D DUP2 PUSH2 0xE04 JUMP JUMPDEST SWAP1 POP SWAP2 SWAP1 POP JUMP JUMPDEST PUSH32 0x7472616E73666572000000000000000000000000000000000000000000000000 PUSH0 DUP3 ADD MSTORE POP JUMP JUMPDEST PUSH0 PUSH2 0xE78 PUSH1 0x8 DUP4 PUSH2 0xA65 JUMP JUMPDEST SWAP2 POP PUSH2 0xE83 DUP3 PUSH2 0xE44 JUMP JUMPDEST PUSH1 0x20 DUP3 ADD SWAP1 POP SWAP2 SWAP1 POP JUMP JUMPDEST PUSH0 PUSH1 0x40 DUP3 ADD SWAP1 POP DUP2 DUP2 SUB PUSH0 DUP4 ADD MSTORE PUSH2 0xEA5 DUP2 PUSH2 0xE6C JUMP JUMPDEST SWAP1 POP PUSH2 0xEB4 PUSH1 0x20 DUP4 ADD DUP5 PUSH2 0x9FC JUMP JUMPDEST SWAP3 SWAP2 POP POP JUMP JUMPDEST PUSH32 0x73656E6400000000000000000000000000000000000000000000000000000000 PUSH0 DUP3 ADD MSTORE POP JUMP JUMPDEST PUSH0 PUSH2 0xEEE PUSH1 0x4 DUP4 PUSH2 0xA65 JUMP JUMPDEST SWAP2 POP PUSH2 0xEF9 DUP3 PUSH2 0xEBA JUMP JUMPDEST PUSH1 0x20 DUP3 ADD SWAP1 POP SWAP2 SWAP1 POP JUMP JUMPDEST PUSH0 PUSH1 0x40 DUP3 ADD SWAP1 POP DUP2 DUP2 SUB PUSH0 DUP4 ADD MSTORE PUSH2 0xF1B DUP2 PUSH2 0xEE2 JUMP JUMPDEST SWAP1 POP PUSH2 0xF2A PUSH1 0x20 DUP4 ADD DUP5 PUSH2 0x9FC JUMP JUMPDEST SWAP3 SWAP2 POP POP JUMP JUMPDEST PUSH32 0x73656E64206661696C6564000000000000000000000000000000000000000000 PUSH0 DUP3 ADD MSTORE POP JUMP JUMPDEST PUSH0 PUSH2 0xF64 PUSH1 0xB DUP4 PUSH2 0xA65 JUMP JUMPDEST SWAP2 POP PUSH2 0xF6F DUP3 PUSH2 0xF30 JUMP JUMPDEST PUSH1 0x20 DUP3 ADD SWAP1 POP SWAP2 SWAP1 POP JUMP JUMPDEST PUSH0 PUSH1 0x20 DUP3 ADD SWAP1 POP DUP2 DUP2 SUB PUSH0 DUP4 ADD MSTORE PUSH2 0xF91 DUP2 PUSH2 0xF58 JUMP JUMPDEST SWAP1 POP SWAP2 SWAP1 POP JUMP JUMPDEST PUSH32 0x63616C6C00000000000000000000000000000000000000000000000000000000 PUSH0 DUP3 ADD MSTORE POP JUMP JUMPDEST PUSH0 PUSH2 0xFCC PUSH1 0x4 DUP4 PUSH2 0xA65 JUMP JUMPDEST SWAP2 POP PUSH2 0xFD7 DUP3 PUSH2 0xF98 JUMP JUMPDEST PUSH1 0x20 DUP3 ADD SWAP1 POP SWAP2 SWAP1 POP JUMP JUMPDEST PUSH0 PUSH1 0x40 DUP3 ADD SWAP1 POP DUP2 DUP2 SUB PUSH0 DUP4 ADD MSTORE PUSH2 0xFF9 DUP2 PUSH2 0xFC0 JUMP JUMPDEST SWAP1 POP PUSH2 0x1008 PUSH1 0x20 DUP4 ADD DUP5 PUSH2 0x9FC JUMP JUMPDEST SWAP3 SWAP2 POP POP JUMP JUMPDEST PUSH32 0x63616C6C206661696C6564000000000000000000000000000000000000000000 PUSH0 DUP3 ADD MSTORE POP JUMP JUMPDEST PUSH0 PUSH2 0x1042 PUSH1 0xB DUP4 PUSH2 0xA65 JUMP JUMPDEST SWAP2 POP PUSH2 0x104D DUP3 PUSH2 0x100E JUMP JUMPDEST PUSH1 0x20 DUP3 ADD SWAP1 POP SWAP2 SWAP1 POP JUMP JUMPDEST PUSH0 PUSH1 0x20 DUP3 ADD SWAP1 POP DUP2 DUP2 SUB PUSH0 DUP4 ADD MSTORE PUSH2 0x106F DUP2 PUSH2 0x1036 JUMP JUMPDEST SWAP1 POP SWAP2 SWAP1 POP JUMP JUMPDEST PUSH32 0x556E657870656374656420737563636573730000000000000000000000000000 PUSH0 DUP3 ADD MSTORE POP JUMP JUMPDEST PUSH0 PUSH2 0x10AA PUSH1 0x12 DUP4 PUSH2 0xA65 JUMP JUMPDEST SWAP2 POP PUSH2 0x10B5 DUP3 PUSH2 0x1076 JUMP JUMPDEST PUSH1 0x20 DUP3 ADD SWAP1 POP SWAP2 SWAP1 POP JUMP JUMPDEST PUSH0 PUSH1 0x20 DUP3 ADD SWAP1 POP DUP2 DUP2 SUB PUSH0 DUP4 ADD MSTORE PUSH2 0x10D7 DUP2 PUSH2 0x109E JUMP JUMPDEST SWAP1 POP SWAP2 SWAP1 POP JUMP INVALID LOG2 PUSH5 0x6970667358 0x22 SLT KECCAK256 SIGNEXTEND 0xF6 CALLVALUE EXTCALL 0x25 PUSH12 0x689F865AF47A7D643B21914E LOG1 0xA7 LOG3 DUP14 0xC6 PUSH5 0x7EB7A9D127 PUSH13 0xB62C64736F6C63430008220033 "
		},
		"gasEstimates": {
			"creation": {
				"codeDepositCost": "874400",
				"executionCost": "907",
				"totalCost": "875307"
			},
			"external": {
				"contractBalance()": "378",
				"dangerousSend(address)": "infinite",
				"lastSuccess()": "2531",
				"sendETH(address)": "infinite",
				"sendViaCall(address)": "infinite",
				"sendViaSend(address)": "infinite",
				"sendViaTransfer(address)": "infinite",
				"testTryCatchFailure(address)": "infinite",
				"testTryCatchSuccess(address)": "infinite",
				"totalSent()": "2492"
			}
		},
		"methodIdentifiers": {
			"contractBalance()": "8b7afe2e",
			"dangerousSend(address)": "41456ddb",
			"lastSuccess()": "9415bc59",
			"sendETH(address)": "21b1e5f8",
			"sendViaCall(address)": "830c29ae",
			"sendViaSend(address)": "74be4806",
			"sendViaTransfer(address)": "636e082b",
			"testTryCatchFailure(address)": "c2ef3603",
			"testTryCatchSuccess(address)": "29158d72",
			"totalSent()": "46f99063"
		}
	},
	"abi": [
		{
			"anonymous": false,
			"inputs": [
				{
					"indexed": true,
					"internalType": "address",
					"name": "receiver",
					"type": "address"
				},
				{
					"indexed": false,
					"internalType": "uint256",
					"name": "amount",
					"type": "uint256"
				}
			],
			"name": "EtherSent",
			"type": "event"
		},
		{
			"anonymous": false,
			"inputs": [
				{
					"indexed": true,
					"internalType": "address",
					"name": "receiver",
					"type": "address"
				},
				{
					"indexed": false,
					"internalType": "uint256",
					"name": "amount",
					"type": "uint256"
				}
			],
			"name": "EtherTransferFailed",
			"type": "event"
		},
		{
			"anonymous": false,
			"inputs": [
				{
					"indexed": false,
					"internalType": "string",
					"name": "method",
					"type": "string"
				},
				{
					"indexed": false,
					"internalType": "bool",
					"name": "success",
					"type": "bool"
				}
			],
			"name": "TransferResult",
			"type": "event"
		},
		{
			"anonymous": false,
			"inputs": [
				{
					"indexed": false,
					"internalType": "string",
					"name": "reason",
					"type": "string"
				}
			],
			"name": "TryCatchFailure",
			"type": "event"
		},
		{
			"anonymous": false,
			"inputs": [
				{
					"indexed": false,
					"internalType": "string",
					"name": "result",
					"type": "string"
				}
			],
			"name": "TryCatchSuccess",
			"type": "event"
		},
		{
			"inputs": [],
			"name": "contractBalance",
			"outputs": [
				{
					"internalType": "uint256",
					"name": "",
					"type": "uint256"
				}
			],
			"stateMutability": "view",
			"type": "function"
		},
		{
			"inputs": [
				{
					"internalType": "address payable",
					"name": "_receiver",
					"type": "address"
				}
			],
			"name": "dangerousSend",
			"outputs": [],
			"stateMutability": "payable",
			"type": "function"
		},
		{
			"inputs": [],
			"name": "lastSuccess",
			"outputs": [
				{
					"internalType": "bool",
					"name": "",
					"type": "bool"
				}
			],
			"stateMutability": "view",
			"type": "function"
		},
		{
			"inputs": [
				{
					"internalType": "address payable",
					"name": "_receiver",
					"type": "address"
				}
			],
			"name": "sendETH",
			"outputs": [],
			"stateMutability": "payable",
			"type": "function"
		},
		{
			"inputs": [
				{
					"internalType": "address payable",
					"name": "_receiver",
					"type": "address"
				}
			],
			"name": "sendViaCall",
			"outputs": [],
			"stateMutability": "payable",
			"type": "function"
		},
		{
			"inputs": [
				{
					"internalType": "address payable",
					"name": "_receiver",
					"type": "address"
				}
			],
			"name": "sendViaSend",
			"outputs": [],
			"stateMutability": "payable",
			"type": "function"
		},
		{
			"inputs": [
				{
					"internalType": "address payable",
					"name": "_receiver",
					"type": "address"
				}
			],
			"name": "sendViaTransfer",
			"outputs": [],
			"stateMutability": "payable",
			"type": "function"
		},
		{
			"inputs": [
				{
					"internalType": "address",
					"name": "_target",
					"type": "address"
				}
			],
			"name": "testTryCatchFailure",
			"outputs": [],
			"stateMutability": "nonpayable",
			"type": "function"
		},
		{
			"inputs": [
				{
					"internalType": "address",
					"name": "_target",
					"type": "address"
				}
			],
			"name": "testTryCatchSuccess",
			"outputs": [],
			"stateMutability": "nonpayable",
			"type": "function"
		},
		{
			"inputs": [],
			"name": "totalSent",
			"outputs": [
				{
					"internalType": "uint256",
					"name": "",
					"type": "uint256"
				}
			],
			"stateMutability": "view",
			"type": "function"
		},
		{
			"stateMutability": "payable",
			"type": "receive"
		}
	]
}