{
	"data": {
		"bytecode": {
			"linkReferences": {},
			"object": "6080604052348015600e575f5ffd5b503360025f6101000a81548173ffffffffffffffffffffffffffffffffffffffff021916908373ffffffffffffffffffffffffffffffffffffffff1602179055506109438061005c5f395ff3fe608060405234801561000f575f5ffd5b506004361061007b575f3560e01c80637d882097116100595780637d882097146100e7578063b6b55f2514610105578063cecb4a6614610121578063f851a4401461013d5761007b565b806327e235e31461007f5780632e1a7d4d146100af5780632f7c9ed6146100cb575b5f5ffd5b61009960048036038101906100949190610553565b61015b565b6040516100a69190610596565b60405180910390f35b6100c960048036038101906100c491906105d9565b61016f565b005b6100e560048036038101906100e091906105d9565b610194565b005b6100ef6101e5565b6040516100fc9190610596565b60405180910390f35b61011f600480360381019061011a91906105d9565b6101eb565b005b61013b600480360381019061013691906105d9565b610219565b005b610145610249565b6040516101529190610613565b60405180910390f35b5f602052805f5260405f205f915090505481565b610179338261026e565b8060015f82825461018a9190610659565b9250508190555050565b61019d81610343565b5f6101a7826103cc565b90506101be3382846101b9919061068c565b6103ed565b80826101ca919061068c565b60015f8282546101da919061068c565b925050819055505050565b60015481565b6101f481610343565b6101fe33826103ed565b8060015f82825461020f919061068c565b9250508190555050565b610221610443565b5f61022b826104d4565b90508060015f82825461023e9190610659565b925050819055505050565b60025f9054906101000a900473ffffffffffffffffffffffffffffffffffffffff1681565b805f5f8473ffffffffffffffffffffffffffffffffffffffff1673ffffffffffffffffffffffffffffffffffffffff1681526020019081526020015f205410156102ed576040517f08c379a00000000000000000000000000000000000000000000000000000000081526004016102e490610719565b60405180910390fd5b805f5f8473ffffffffffffffffffffffffffffffffffffffff1673ffffffffffffffffffffffffffffffffffffffff1681526020019081526020015f205f8282546103389190610659565b925050819055505050565b5f8111610385576040517f08c379a000000000000000000000000000000000000000000000000000000000815260040161037c90610781565b60405180910390fd5b60648111156103c9576040517f08c379a00000000000000000000000000000000000000000000000000000000081526004016103c0906107e9565b60405180910390fd5b50565b5f6064600a836103dc9190610807565b6103e69190610875565b9050919050565b805f5f8473ffffffffffffffffffffffffffffffffffffffff1673ffffffffffffffffffffffffffffffffffffffff1681526020019081526020015f205f828254610438919061068c565b925050819055505050565b60025f9054906101000a900473ffffffffffffffffffffffffffffffffffffffff1673ffffffffffffffffffffffffffffffffffffffff163373ffffffffffffffffffffffffffffffffffffffff16146104d2576040517f08c379a00000000000000000000000000000000000000000000000000000000081526004016104c9906108ef565b60405180910390fd5b565b5f60646002836104e49190610807565b6104ee9190610875565b9050919050565b5f5ffd5b5f73ffffffffffffffffffffffffffffffffffffffff82169050919050565b5f610522826104f9565b9050919050565b61053281610518565b811461053c575f5ffd5b50565b5f8135905061054d81610529565b92915050565b5f60208284031215610568576105676104f5565b5b5f6105758482850161053f565b91505092915050565b5f819050919050565b6105908161057e565b82525050565b5f6020820190506105a95f830184610587565b92915050565b6105b88161057e565b81146105c2575f5ffd5b50565b5f813590506105d3816105af565b92915050565b5f602082840312156105ee576105ed6104f5565b5b5f6105fb848285016105c5565b91505092915050565b61060d81610518565b82525050565b5f6020820190506106265f830184610604565b92915050565b7f4e487b71000000000000000000000000000000000000000000000000000000005f52601160045260245ffd5b5f6106638261057e565b915061066e8361057e565b92508282039050818111156106865761068561062c565b5b92915050565b5f6106968261057e565b91506106a18361057e565b92508282019050808211156106b9576106b861062c565b5b92915050565b5f82825260208201905092915050565b7f496e73756666696369656e742062616c616e63650000000000000000000000005f82015250565b5f6107036014836106bf565b915061070e826106cf565b602082019050919050565b5f6020820190508181035f830152610730816106f7565b9050919050565b7f416d6f756e74206d757374206265203e203000000000000000000000000000005f82015250565b5f61076b6012836106bf565b915061077682610737565b602082019050919050565b5f6020820190508181035f8301526107988161075f565b9050919050565b7f416d6f756e7420746f6f206c61726765000000000000000000000000000000005f82015250565b5f6107d36010836106bf565b91506107de8261079f565b602082019050919050565b5f6020820190508181035f830152610800816107c7565b9050919050565b5f6108118261057e565b915061081c8361057e565b925082820261082a8161057e565b915082820484148315176108415761084061062c565b5b5092915050565b7f4e487b71000000000000000000000000000000000000000000000000000000005f52601260045260245ffd5b5f61087f8261057e565b915061088a8361057e565b92508261089a57610899610848565b5b828204905092915050565b7f4e6f742061646d696e00000000000000000000000000000000000000000000005f82015250565b5f6108d96009836106bf565b91506108e4826108a5565b602082019050919050565b5f6020820190508181035f830152610906816108cd565b905091905056fea2646970667358221220d68a86ebafd98a1dafbf08c548e19a50ade3229b17d382cff7f366c64c64288b64736f6c63430008220033",
			"opcodes": "PUSH1 0x80 PUSH1 0x40 MSTORE CALLVALUE DUP1 ISZERO PUSH1 0xE JUMPI PUSH0 PUSH0 REVERT JUMPDEST POP CALLER PUSH1 0x2 PUSH0 PUSH2 0x100 EXP DUP2 SLOAD DUP2 PUSH20 0xFFFFFFFFFFFFFFFFFFFFFFFFFFFFFFFFFFFFFFFF MUL NOT AND SWAP1 DUP4 PUSH20 0xFFFFFFFFFFFFFFFFFFFFFFFFFFFFFFFFFFFFFFFF AND MUL OR SWAP1 SSTORE POP PUSH2 0x943 DUP1 PUSH2 0x5C PUSH0 CODECOPY PUSH0 RETURN INVALID PUSH1 0x80 PUSH1 0x40 MSTORE CALLVALUE DUP1 ISZERO PUSH2 0xF JUMPI PUSH0 PUSH0 REVERT JUMPDEST POP PUSH1 0x4 CALLDATASIZE LT PUSH2 0x7B JUMPI PUSH0 CALLDATALOAD PUSH1 0xE0 SHR DUP1 PUSH4 0x7D882097 GT PUSH2 0x59 JUMPI DUP1 PUSH4 0x7D882097 EQ PUSH2 0xE7 JUMPI DUP1 PUSH4 0xB6B55F25 EQ PUSH2 0x105 JUMPI DUP1 PUSH4 0xCECB4A66 EQ PUSH2 0x121 JUMPI DUP1 PUSH4 0xF851A440 EQ PUSH2 0x13D JUMPI PUSH2 0x7B JUMP JUMPDEST DUP1 PUSH4 0x27E235E3 EQ PUSH2 0x7F JUMPI DUP1 PUSH4 0x2E1A7D4D EQ PUSH2 0xAF JUMPI DUP1 PUSH4 0x2F7C9ED6 EQ PUSH2 0xCB JUMPI JUMPDEST PUSH0 PUSH0 REVERT JUMPDEST PUSH2 0x99 PUSH1 0x4 DUP1 CALLDATASIZE SUB DUP2 ADD SWAP1 PUSH2 0x94 SWAP2 SWAP1 PUSH2 0x553 JUMP JUMPDEST PUSH2 0x15B JUMP JUMPDEST PUSH1 0x40 MLOAD PUSH2 0xA6 SWAP2 SWAP1 PUSH2 0x596 JUMP JUMPDEST PUSH1 0x40 MLOAD DUP1 SWAP2 SUB SWAP1 RETURN JUMPDEST PUSH2 0xC9 PUSH1 0x4 DUP1 CALLDATASIZE SUB DUP2 ADD SWAP1 PUSH2 0xC4 SWAP2 SWAP1 PUSH2 0x5D9 JUMP JUMPDEST PUSH2 0x16F JUMP JUMPDEST STOP JUMPDEST PUSH2 0xE5 PUSH1 0x4 DUP1 CALLDATASIZE SUB DUP2 ADD SWAP1 PUSH2 0xE0 SWAP2 SWAP1 PUSH2 0x5D9 JUMP JUMPDEST PUSH2 0x194 JUMP JUMPDEST STOP JUMPDEST PUSH2 0xEF PUSH2 0x1E5 JUMP JUMPDEST PUSH1 0x40 MLOAD PUSH2 0xFC SWAP2 SWAP1 PUSH2 0x596 JUMP JUMPDEST PUSH1 0x40 MLOAD DUP1 SWAP2 SUB SWAP1 RETURN JUMPDEST PUSH2 0x11F PUSH1 0x4 DUP1 CALLDATASIZE SUB DUP2 ADD SWAP1 PUSH2 0x11A SWAP2 SWAP1 PUSH2 0x5D9 JUMP JUMPDEST PUSH2 0x1EB JUMP JUMPDEST STOP JUMPDEST PUSH2 0x13B PUSH1 0x4 DUP1 CALLDATASIZE SUB DUP2 ADD SWAP1 PUSH2 0x136 SWAP2 SWAP1 PUSH2 0x5D9 JUMP JUMPDEST PUSH2 0x219 JUMP JUMPDEST STOP JUMPDEST PUSH2 0x145 PUSH2 0x249 JUMP JUMPDEST PUSH1 0x40 MLOAD PUSH2 0x152 SWAP2 SWAP1 PUSH2 0x613 JUMP JUMPDEST PUSH1 0x40 MLOAD DUP1 SWAP2 SUB SWAP1 RETURN JUMPDEST PUSH0 PUSH1 0x20 MSTORE DUP1 PUSH0 MSTORE PUSH1 0x40 PUSH0 KECCAK256 PUSH0 SWAP2 POP SWAP1 POP SLOAD DUP2 JUMP JUMPDEST PUSH2 0x179 CALLER DUP3 PUSH2 0x26E JUMP JUMPDEST DUP1 PUSH1 0x1 PUSH0 DUP3 DUP3 SLOAD PUSH2 0x18A SWAP2 SWAP1 PUSH2 0x659 JUMP JUMPDEST SWAP3 POP POP DUP2 SWAP1 SSTORE POP POP JUMP JUMPDEST PUSH2 0x19D DUP2 PUSH2 0x343 JUMP JUMPDEST PUSH0 PUSH2 0x1A7 DUP3 PUSH2 0x3CC JUMP JUMPDEST SWAP1 POP PUSH2 0x1BE CALLER DUP3 DUP5 PUSH2 0x1B9 SWAP2 SWAP1 PUSH2 0x68C JUMP JUMPDEST PUSH2 0x3ED JUMP JUMPDEST DUP1 DUP3 PUSH2 0x1CA SWAP2 SWAP1 PUSH2 0x68C JUMP JUMPDEST PUSH1 0x1 PUSH0 DUP3 DUP3 SLOAD PUSH2 0x1DA SWAP2 SWAP1 PUSH2 0x68C JUMP JUMPDEST SWAP3 POP POP DUP2 SWAP1 SSTORE POP POP POP JUMP JUMPDEST PUSH1 0x1 SLOAD DUP2 JUMP JUMPDEST PUSH2 0x1F4 DUP2 PUSH2 0x343 JUMP JUMPDEST PUSH2 0x1FE CALLER DUP3 PUSH2 0x3ED JUMP JUMPDEST DUP1 PUSH1 0x1 PUSH0 DUP3 DUP3 SLOAD PUSH2 0x20F SWAP2 SWAP1 PUSH2 0x68C JUMP JUMPDEST SWAP3 POP POP DUP2 SWAP1 SSTORE POP POP JUMP JUMPDEST PUSH2 0x221 PUSH2 0x443 JUMP JUMPDEST PUSH0 PUSH2 0x22B DUP3 PUSH2 0x4D4 JUMP JUMPDEST SWAP1 POP DUP1 PUSH1 0x1 PUSH0 DUP3 DUP3 SLOAD PUSH2 0x23E SWAP2 SWAP1 PUSH2 0x659 JUMP JUMPDEST SWAP3 POP POP DUP2 SWAP1 SSTORE POP POP POP JUMP JUMPDEST PUSH1 0x2 PUSH0 SWAP1 SLOAD SWAP1 PUSH2 0x100 EXP SWAP1 DIV PUSH20 0xFFFFFFFFFFFFFFFFFFFFFFFFFFFFFFFFFFFFFFFF AND DUP2 JUMP JUMPDEST DUP1 PUSH0 PUSH0 DUP5 PUSH20 0xFFFFFFFFFFFFFFFFFFFFFFFFFFFFFFFFFFFFFFFF AND PUSH20 0xFFFFFFFFFFFFFFFFFFFFFFFFFFFFFFFFFFFFFFFF AND DUP2 MSTORE PUSH1 0x20 ADD SWAP1 DUP2 MSTORE PUSH1 0x20 ADD PUSH0 KECCAK256 SLOAD LT ISZERO PUSH2 0x2ED JUMPI PUSH1 0x40 MLOAD PUSH32 0x8C379A000000000000000000000000000000000000000000000000000000000 DUP2 MSTORE PUSH1 0x4 ADD PUSH2 0x2E4 SWAP1 PUSH2 0x719 JUMP JUMPDEST PUSH1 0x40 MLOAD DUP1 SWAP2 SUB SWAP1 REVERT JUMPDEST DUP1 PUSH0 PUSH0 DUP5 PUSH20 0xFFFFFFFFFFFFFFFFFFFFFFFFFFFFFFFFFFFFFFFF AND PUSH20 0xFFFFFFFFFFFFFFFFFFFFFFFFFFFFFFFFFFFFFFFF AND DUP2 MSTORE PUSH1 0x20 ADD SWAP1 DUP2 MSTORE PUSH1 0x20 ADD PUSH0 KECCAK256 PUSH0 DUP3 DUP3 SLOAD PUSH2 0x338 SWAP2 SWAP1 PUSH2 0x659 JUMP JUMPDEST SWAP3 POP POP DUP2 SWAP1 SSTORE POP POP POP JUMP JUMPDEST PUSH0 DUP2 GT PUSH2 0x385 JUMPI PUSH1 0x40 MLOAD PUSH32 0x8C379A000000000000000000000000000000000000000000000000000000000 DUP2 MSTORE PUSH1 0x4 ADD PUSH2 0x37C SWAP1 PUSH2 0x781 JUMP JUMPDEST PUSH1 0x40 MLOAD DUP1 SWAP2 SUB SWAP1 REVERT JUMPDEST PUSH1 0x64 DUP2 GT ISZERO PUSH2 0x3C9 JUMPI PUSH1 0x40 MLOAD PUSH32 0x8C379A000000000000000000000000000000000000000000000000000000000 DUP2 MSTORE PUSH1 0x4 ADD PUSH2 0x3C0 SWAP1 PUSH2 0x7E9 JUMP JUMPDEST PUSH1 0x40 MLOAD DUP1 SWAP2 SUB SWAP1 REVERT JUMPDEST POP JUMP JUMPDEST PUSH0 PUSH1 0x64 PUSH1 0xA DUP4 PUSH2 0x3DC SWAP2 SWAP1 PUSH2 0x807 JUMP JUMPDEST PUSH2 0x3E6 SWAP2 SWAP1 PUSH2 0x875 JUMP JUMPDEST SWAP1 POP SWAP2 SWAP1 POP JUMP JUMPDEST DUP1 PUSH0 PUSH0 DUP5 PUSH20 0xFFFFFFFFFFFFFFFFFFFFFFFFFFFFFFFFFFFFFFFF AND PUSH20 0xFFFFFFFFFFFFFFFFFFFFFFFFFFFFFFFFFFFFFFFF AND DUP2 MSTORE PUSH1 0x20 ADD SWAP1 DUP2 MSTORE PUSH1 0x20 ADD PUSH0 KECCAK256 PUSH0 DUP3 DUP3 SLOAD PUSH2 0x438 SWAP2 SWAP1 PUSH2 0x68C JUMP JUMPDEST SWAP3 POP POP DUP2 SWAP1 SSTORE POP POP POP JUMP JUMPDEST PUSH1 0x2 PUSH0 SWAP1 SLOAD SWAP1 PUSH2 0x100 EXP SWAP1 DIV PUSH20 0xFFFFFFFFFFFFFFFFFFFFFFFFFFFFFFFFFFFFFFFF AND PUSH20 0xFFFFFFFFFFFFFFFFFFFFFFFFFFFFFFFFFFFFFFFF AND CALLER PUSH20 0xFFFFFFFFFFFFFFFFFFFFFFFFFFFFFFFFFFFFFFFF AND EQ PUSH2 0x4D2 JUMPI PUSH1 0x40 MLOAD PUSH32 0x8C379A000000000000000000000000000000000000000000000000000000000 DUP2 MSTORE PUSH1 0x4 ADD PUSH2 0x4C9 SWAP1 PUSH2 0x8EF JUMP JUMPDEST PUSH1 0x40 MLOAD DUP1 SWAP2 SUB SWAP1 REVERT JUMPDEST JUMP JUMPDEST PUSH0 PUSH1 0x64 PUSH1 0x2 DUP4 PUSH2 0x4E4 SWAP2 SWAP1 PUSH2 0x807 JUMP JUMPDEST PUSH2 0x4EE SWAP2 SWAP1 PUSH2 0x875 JUMP JUMPDEST SWAP1 POP SWAP2 SWAP1 POP JUMP JUMPDEST PUSH0 PUSH0 REVERT JUMPDEST PUSH0 PUSH20 0xFFFFFFFFFFFFFFFFFFFFFFFFFFFFFFFFFFFFFFFF DUP3 AND SWAP1 POP SWAP2 SWAP1 POP JUMP JUMPDEST PUSH0 PUSH2 0x522 DUP3 PUSH2 0x4F9 JUMP JUMPDEST SWAP1 POP SWAP2 SWAP1 POP JUMP JUMPDEST PUSH2 0x532 DUP2 PUSH2 0x518 JUMP JUMPDEST DUP2 EQ PUSH2 0x53C JUMPI PUSH0 PUSH0 REVERT JUMPDEST POP JUMP JUMPDEST PUSH0 DUP2 CALLDATALOAD SWAP1 POP PUSH2 0x54D DUP2 PUSH2 0x529 JUMP JUMPDEST SWAP3 SWAP2 POP POP JUMP JUMPDEST PUSH0 PUSH1 0x20 DUP3 DUP5 SUB SLT ISZERO PUSH2 0x568 JUMPI PUSH2 0x567 PUSH2 0x4F5 JUMP JUMPDEST JUMPDEST PUSH0 PUSH2 0x575 DUP5 DUP3 DUP6 ADD PUSH2 0x53F JUMP JUMPDEST SWAP2 POP POP SWAP3 SWAP2 POP POP JUMP JUMPDEST PUSH0 DUP2 SWAP1 POP SWAP2 SWAP1 POP JUMP JUMPDEST PUSH2 0x590 DUP2 PUSH2 0x57E JUMP JUMPDEST DUP3 MSTORE POP POP JUMP JUMPDEST PUSH0 PUSH1 0x20 DUP3 ADD SWAP1 POP PUSH2 0x5A9 PUSH0 DUP4 ADD DUP5 PUSH2 0x587 JUMP JUMPDEST SWAP3 SWAP2 POP POP JUMP JUMPDEST PUSH2 0x5B8 DUP2 PUSH2 0x57E JUMP JUMPDEST DUP2 EQ PUSH2 0x5C2 JUMPI PUSH0 PUSH0 REVERT JUMPDEST POP JUMP JUMPDEST PUSH0 DUP2 CALLDATALOAD SWAP1 POP PUSH2 0x5D3 DUP2 PUSH2 0x5AF JUMP JUMPDEST SWAP3 SWAP2 POP POP JUMP JUMPDEST PUSH0 PUSH1 0x20 DUP3 DUP5 SUB SLT ISZERO PUSH2 0x5EE JUMPI PUSH2 0x5ED PUSH2 0x4F5 JUMP JUMPDEST JUMPDEST PUSH0 PUSH2 0x5FB DUP5 DUP3 DUP6 ADD PUSH2 0x5C5 JUMP JUMPDEST SWAP2 POP POP SWAP3 SWAP2 POP POP JUMP JUMPDEST PUSH2 0x60D DUP2 PUSH2 0x518 JUMP JUMPDEST DUP3 MSTORE POP POP JUMP JUMPDEST PUSH0 PUSH1 0x20 DUP3 ADD SWAP1 POP PUSH2 0x626 PUSH0 DUP4 ADD DUP5 PUSH2 0x604 JUMP JUMPDEST SWAP3 SWAP2 POP POP JUMP JUMPDEST PUSH32 0x4E487B7100000000000000000000000000000000000000000000000000000000 PUSH0 MSTORE PUSH1 0x11 PUSH1 0x4 MSTORE PUSH1 0x24 PUSH0 REVERT JUMPDEST PUSH0 PUSH2 0x663 DUP3 PUSH2 0x57E JUMP JUMPDEST SWAP2 POP PUSH2 0x66E DUP4 PUSH2 0x57E JUMP JUMPDEST SWAP3 POP DUP3 DUP3 SUB SWAP1 POP DUP2 DUP2 GT ISZERO PUSH2 0x686 JUMPI PUSH2 0x685 PUSH2 0x62C JUMP JUMPDEST JUMPDEST SWAP3 SWAP2 POP POP JUMP JUMPDEST PUSH0 PUSH2 0x696 DUP3 PUSH2 0x57E JUMP JUMPDEST SWAP2 POP PUSH2 0x6A1 DUP4 PUSH2 0x57E JUMP JUMPDEST SWAP3 POP DUP3 DUP3 ADD SWAP1 POP DUP1 DUP3 GT ISZERO PUSH2 0x6B9 JUMPI PUSH2 0x6B8 PUSH2 0x62C JUMP JUMPDEST JUMPDEST SWAP3 SWAP2 POP POP JUMP JUMPDEST PUSH0 DUP3 DUP3 MSTORE PUSH1 0x20 DUP3 ADD SWAP1 POP SWAP3 SWAP2 POP POP JUMP JUMPDEST PUSH32 0x496E73756666696369656E742062616C616E6365000000000000000000000000 PUSH0 DUP3 ADD MSTORE POP JUMP JUMPDEST PUSH0 PUSH2 0x703 PUSH1 0x14 DUP4 PUSH2 0x6BF JUMP JUMPDEST SWAP2 POP PUSH2 0x70E DUP3 PUSH2 0x6CF JUMP JUMPDEST PUSH1 0x20 DUP3 ADD SWAP1 POP SWAP2 SWAP1 POP JUMP JUMPDEST PUSH0 PUSH1 0x20 DUP3 ADD SWAP1 POP DUP2 DUP2 SUB PUSH0 DUP4 ADD MSTORE PUSH2 0x730 DUP2 PUSH2 0x6F7 JUMP JUMPDEST SWAP1 POP SWAP2 SWAP1 POP JUMP JUMPDEST PUSH32 0x416D6F756E74206D757374206265203E20300000000000000000000000000000 PUSH0 DUP3 ADD MSTORE POP JUMP JUMPDEST PUSH0 PUSH2 0x76B PUSH1 0x12 DUP4 PUSH2 0x6BF JUMP JUMPDEST SWAP2 POP PUSH2 0x776 DUP3 PUSH2 0x737 JUMP JUMPDEST PUSH1 0x20 DUP3 ADD SWAP1 POP SWAP2 SWAP1 POP JUMP JUMPDEST PUSH0 PUSH1 0x20 DUP3 ADD SWAP1 POP DUP2 DUP2 SUB PUSH0 DUP4 ADD MSTORE PUSH2 0x798 DUP2 PUSH2 0x75F JUMP JUMPDEST SWAP1 POP SWAP2 SWAP1 POP JUMP JUMPDEST PUSH32 0x416D6F756E7420746F6F206C6172676500000000000000000000000000000000 PUSH0 DUP3 ADD MSTORE POP JUMP JUMPDEST PUSH0 PUSH2 0x7D3 PUSH1 0x10 DUP4 PUSH2 0x6BF JUMP JUMPDEST SWAP2 POP PUSH2 0x7DE DUP3 PUSH2 0x79F JUMP JUMPDEST PUSH1 0x20 DUP3 ADD SWAP1 POP SWAP2 SWAP1 POP JUMP JUMPDEST PUSH0 PUSH1 0x20 DUP3 ADD SWAP1 POP DUP2 DUP2 SUB PUSH0 DUP4 ADD MSTORE PUSH2 0x800 DUP2 PUSH2 0x7C7 JUMP JUMPDEST SWAP1 POP SWAP2 SWAP1 POP JUMP JUMPDEST PUSH0 PUSH2 0x811 DUP3 PUSH2 0x57E JUMP JUMPDEST SWAP2 POP PUSH2 0x81C DUP4 PUSH2 0x57E JUMP JUMPDEST SWAP3 POP DUP3 DUP3 MUL PUSH2 0x82A DUP2 PUSH2 0x57E JUMP JUMPDEST SWAP2 POP DUP3 DUP3 DIV DUP5 EQ DUP4 ISZERO OR PUSH2 0x841 JUMPI PUSH2 0x840 PUSH2 0x62C JUMP JUMPDEST JUMPDEST POP SWAP3 SWAP2 POP POP JUMP JUMPDEST PUSH32 0x4E487B7100000000000000000000000000000000000000000000000000000000 PUSH0 MSTORE PUSH1 0x12 PUSH1 0x4 MSTORE PUSH1 0x24 PUSH0 REVERT JUMPDEST PUSH0 PUSH2 0x87F DUP3 PUSH2 0x57E JUMP JUMPDEST SWAP2 POP PUSH2 0x88A DUP4 PUSH2 0x57E JUMP JUMPDEST SWAP3 POP DUP3 PUSH2 0x89A JUMPI PUSH2 0x899 PUSH2 0x848 JUMP JUMPDEST JUMPDEST DUP3 DUP3 DIV SWAP1 POP SWAP3 SWAP2 POP POP JUMP JUMPDEST PUSH32 0x4E6F742061646D696E0000000000000000000000000000000000000000000000 PUSH0 DUP3 ADD MSTORE POP JUMP JUMPDEST PUSH0 PUSH2 0x8D9 PUSH1 0x9 DUP4 PUSH2 0x6BF JUMP JUMPDEST SWAP2 POP PUSH2 0x8E4 DUP3 PUSH2 0x8A5 JUMP JUMPDEST PUSH1 0x20 DUP3 ADD SWAP1 POP SWAP2 SWAP1 POP JUMP JUMPDEST PUSH0 PUSH1 0x20 DUP3 ADD SWAP1 POP DUP2 DUP2 SUB PUSH0 DUP4 ADD MSTORE PUSH2 0x906 DUP2 PUSH2 0x8CD JUMP JUMPDEST SWAP1 POP SWAP2 SWAP1 POP JUMP INVALID LOG2 PUSH5 0x6970667358 0x22 SLT KECCAK256 0xD6 DUP11 DUP7 0xEB 0xAF 0xD9 DUP11 SAR 0xAF 0xBF ADDMOD 0xC5 BASEFEE RJUMPI 0x9A50 0xAD CALLF 0x229B OR 0xD3 DUP3 0xCF 0xF7 RETURN PUSH7 0xC64C64288B6473 PUSH16 0x6C634300082200330000000000000000 "
		},
		"gasEstimates": {
			"creation": {
				"codeDepositCost": "474200",
				"executionCost": "24774",
				"totalCost": "498974"
			},
			"external": {
				"admin()": "2574",
				"adminFeeAdjustment(uint256)": "infinite",
				"balances(address)": "2802",
				"deposit(uint256)": "infinite",
				"depositWithBonus(uint256)": "infinite",
				"totalDeposits()": "2425",
				"withdraw(uint256)": "infinite"
			},
			"internal": {
				"_calculateBonus(uint256)": "infinite",
				"_calculateFee(uint256)": "infinite",
				"_checkAdmin()": "infinite",
				"_updateBalance(address,uint256)": "infinite",
				"_validateAmount(uint256)": "infinite",
				"_withdrawBalance(address,uint256)": "infinite"
			}
		},
		"methodIdentifiers": {
			"admin()": "f851a440",
			"adminFeeAdjustment(uint256)": "cecb4a66",
			"balances(address)": "27e235e3",
			"deposit(uint256)": "b6b55f25",
			"depositWithBonus(uint256)": "2f7c9ed6",
			"totalDeposits()": "7d882097",
			"withdraw(uint256)": "2e1a7d4d"
		}
	},
	"abi": [
		{
			"inputs": [],
			"stateMutability": "nonpayable",
			"type": "constructor"
		},
		{
			"inputs": [],
			"name": "admin",
			"outputs": [
				{
					"internalType": "address",
					"name": "",
					"type": "address"
				}
			],
			"stateMutability": "view",
			"type": "function"
		},
		{
			"inputs": [
				{
					"internalType": "uint256",
					"name": "_amount",
					"type": "uint256"
				}
			],
			"name": "adminFeeAdjustment",
			"outputs": [],
			"stateMutability": "nonpayable",
			"type": "function"
		},
		{
			"inputs": [
				{
					"internalType": "address",
					"name": "",
					"type": "address"
				}
			],
			"name": "balances",
			"outputs": [
				{
					"internalType": "uint256",
					"name": "",
					"type": "uint256"
				}
			],
			"stateMutability": "view",
			"type": "function"
		},
		{
			"inputs": [
				{
					"internalType": "uint256",
					"name": "_amount",
					"type": "uint256"
				}
			],
			"name": "deposit",
			"outputs": [],
			"stateMutability": "nonpayable",
			"type": "function"
		},
		{
			"inputs": [
				{
					"internalType": "uint256",
					"name": "_amount",
					"type": "uint256"
				}
			],
			"name": "depositWithBonus",
			"outputs": [],
			"stateMutability": "nonpayable",
			"type": "function"
		},
		{
			"inputs": [],
			"name": "totalDeposits",
			"outputs": [
				{
					"internalType": "uint256",
					"name": "",
					"type": "uint256"
				}
			],
			"stateMutability": "view",
			"type": "function"
		},
		{
			"inputs": [
				{
					"internalType": "uint256",
					"name": "_amount",
					"type": "uint256"
				}
			],
			"name": "withdraw",
			"outputs": [],
			"stateMutability": "nonpayable",
			"type": "function"
		}
	]
}