{
	"data": {
		"bytecode": {
			"linkReferences": {},
			"object": "6080604052348015600e575f5ffd5b506108018061001c5f395ff3fe608060405234801561000f575f5ffd5b50600436106100a7575f3560e01c806360fe47b11161006f57806360fe47b11461012d57806370b07b7b1461014957806374a7cbcd14610165578063853255cc1461016f5780638f32aa781461018d578063e1ce9200146101ac576100a7565b806310938ff7146100ab5780632ac2f832146100c9578063305f72b7146100d357806343183834146100f1578063501d815c1461010f575b5f5ffd5b6100b36101c8565b6040516100c091906104a7565b60405180910390f35b6100d16101ce565b005b6100db6101f1565b6040516100e891906104a7565b60405180910390f35b6100f96101f7565b60405161010691906104a7565b60405180910390f35b6101176101fc565b60405161012491906104a7565b60405180910390f35b610147600480360381019061014291906104f2565b610202565b005b610163600480360381019061015e919061057e565b6102d3565b005b61016d610358565b005b6101776103f3565b60405161018491906104a7565b60405180910390f35b6101956103f9565b6040516101a39291906105c9565b60405180910390f35b6101c660048036038101906101c191906104f2565b610409565b005b60035481565b5f5a90506101dc6064610202565b5a816101e8919061061d565b60038190555050565b60025481565b5f5481565b60045481565b7fffffffffffffffffffffffffffffffffffffffffffffffffffffffffffffffff8103610264576040517f08c379a000000000000000000000000000000000000000000000000000000000815260040161025b906106aa565b60405180910390fd5b805f819055508060015f82825461027b91906106c8565b9250508190555060025f815480929190610294906106fb565b91905055507fe12e3b7047ff60a2dd763cf536a43597e5ce7fe7aa7476345bd4cd079912bcef816040516102c891906104a7565b60405180910390a150565b5f5f90505b82829050811015610353577fffffffffffffffffffffffffffffffffffffffffffffffffffffffffffffffff83838381811061031757610316610742565b5b90506020020135146103465761034583838381811061033957610338610742565b5b90506020020135610202565b5b80806001019150506102d8565b505050565b5f5a90503073ffffffffffffffffffffffffffffffffffffffff166360fe47b17fffffffffffffffffffffffffffffffffffffffffffffffffffffffffffffffff6040518263ffffffff1660e01b81526004016103b591906104a7565b5f604051808303815f87803b1580156103cc575f5ffd5b505af19250505080156103dd575060015b505a816103ea919061061d565b60048190555050565b60015481565b5f5f600354600454915091509091565b5f5f90505b8181101561048b575f42448360405160200161042c9392919061078f565b604051602081830303815290604052805190602001205f1c90507f4d9c9cd2bcc0ae317c2f0809cef2f40dd99e027da5c78121640468c420f9794c8160405161047591906104a7565b60405180910390a150808060010191505061040e565b5050565b5f819050919050565b6104a18161048f565b82525050565b5f6020820190506104ba5f830184610498565b92915050565b5f5ffd5b5f5ffd5b6104d18161048f565b81146104db575f5ffd5b50565b5f813590506104ec816104c8565b92915050565b5f60208284031215610507576105066104c0565b5b5f610514848285016104de565b91505092915050565b5f5ffd5b5f5ffd5b5f5ffd5b5f5f83601f84011261053e5761053d61051d565b5b8235905067ffffffffffffffff81111561055b5761055a610521565b5b60208301915083602082028301111561057757610576610525565b5b9250929050565b5f5f60208385031215610594576105936104c0565b5b5f83013567ffffffffffffffff8111156105b1576105b06104c4565b5b6105bd85828601610529565b92509250509250929050565b5f6040820190506105dc5f830185610498565b6105e96020830184610498565b9392505050565b7f4e487b71000000000000000000000000000000000000000000000000000000005f52601160045260245ffd5b5f6106278261048f565b91506106328361048f565b925082820390508181111561064a576106496105f0565b5b92915050565b5f82825260208201905092915050565b7f4d61782075696e74206e6f7420616c6c6f7765640000000000000000000000005f82015250565b5f610694601483610650565b915061069f82610660565b602082019050919050565b5f6020820190508181035f8301526106c181610688565b9050919050565b5f6106d28261048f565b91506106dd8361048f565b92508282019050808211156106f5576106f46105f0565b5b92915050565b5f6107058261048f565b91507fffffffffffffffffffffffffffffffffffffffffffffffffffffffffffffffff8203610737576107366105f0565b5b600182019050919050565b7f4e487b71000000000000000000000000000000000000000000000000000000005f52603260045260245ffd5b5f819050919050565b6107896107848261048f565b61076f565b82525050565b5f61079a8286610778565b6020820191506107aa8285610778565b6020820191506107ba8284610778565b60208201915081905094935050505056fea2646970667358221220801bc5e295b2b24445f287e2cc90e0793acab89f29a437d0f81edb3000e2885364736f6c63430008220033",
			"opcodes": "PUSH1 0x80 PUSH1 0x40 MSTORE CALLVALUE DUP1 ISZERO PUSH1 0xE JUMPI PUSH0 PUSH0 REVERT JUMPDEST POP PUSH2 0x801 DUP1 PUSH2 0x1C PUSH0 CODECOPY PUSH0 RETURN INVALID PUSH1 0x80 PUSH1 0x40 MSTORE CALLVALUE DUP1 ISZERO PUSH2 0xF JUMPI PUSH0 PUSH0 REVERT JUMPDEST POP PUSH1 0x4 CALLDATASIZE LT PUSH2 0xA7 JUMPI PUSH0 CALLDATALOAD PUSH1 0xE0 SHR DUP1 PUSH4 0x60FE47B1 GT PUSH2 0x6F JUMPI DUP1 PUSH4 0x60FE47B1 EQ PUSH2 0x12D JUMPI DUP1 PUSH4 0x70B07B7B EQ PUSH2 0x149 JUMPI DUP1 PUSH4 0x74A7CBCD EQ PUSH2 0x165 JUMPI DUP1 PUSH4 0x853255CC EQ PUSH2 0x16F JUMPI DUP1 PUSH4 0x8F32AA78 EQ PUSH2 0x18D JUMPI DUP1 PUSH4 0xE1CE9200 EQ PUSH2 0x1AC JUMPI PUSH2 0xA7 JUMP JUMPDEST DUP1 PUSH4 0x10938FF7 EQ PUSH2 0xAB JUMPI DUP1 PUSH4 0x2AC2F832 EQ PUSH2 0xC9 JUMPI DUP1 PUSH4 0x305F72B7 EQ PUSH2 0xD3 JUMPI DUP1 PUSH4 0x43183834 EQ PUSH2 0xF1 JUMPI DUP1 PUSH4 0x501D815C EQ PUSH2 0x10F JUMPI JUMPDEST PUSH0 PUSH0 REVERT JUMPDEST PUSH2 0xB3 PUSH2 0x1C8 JUMP JUMPDEST PUSH1 0x40 MLOAD PUSH2 0xC0 SWAP2 SWAP1 PUSH2 0x4A7 JUMP JUMPDEST PUSH1 0x40 MLOAD DUP1 SWAP2 SUB SWAP1 RETURN JUMPDEST PUSH2 0xD1 PUSH2 0x1CE JUMP JUMPDEST STOP JUMPDEST PUSH2 0xDB PUSH2 0x1F1 JUMP JUMPDEST PUSH1 0x40 MLOAD PUSH2 0xE8 SWAP2 SWAP1 PUSH2 0x4A7 JUMP JUMPDEST PUSH1 0x40 MLOAD DUP1 SWAP2 SUB SWAP1 RETURN JUMPDEST PUSH2 0xF9 PUSH2 0x1F7 JUMP JUMPDEST PUSH1 0x40 MLOAD PUSH2 0x106 SWAP2 SWAP1 PUSH2 0x4A7 JUMP JUMPDEST PUSH1 0x40 MLOAD DUP1 SWAP2 SUB SWAP1 RETURN JUMPDEST PUSH2 0x117 PUSH2 0x1FC JUMP JUMPDEST PUSH1 0x40 MLOAD PUSH2 0x124 SWAP2 SWAP1 PUSH2 0x4A7 JUMP JUMPDEST PUSH1 0x40 MLOAD DUP1 SWAP2 SUB SWAP1 RETURN JUMPDEST PUSH2 0x147 PUSH1 0x4 DUP1 CALLDATASIZE SUB DUP2 ADD SWAP1 PUSH2 0x142 SWAP2 SWAP1 PUSH2 0x4F2 JUMP JUMPDEST PUSH2 0x202 JUMP JUMPDEST STOP JUMPDEST PUSH2 0x163 PUSH1 0x4 DUP1 CALLDATASIZE SUB DUP2 ADD SWAP1 PUSH2 0x15E SWAP2 SWAP1 PUSH2 0x57E JUMP JUMPDEST PUSH2 0x2D3 JUMP JUMPDEST STOP JUMPDEST PUSH2 0x16D PUSH2 0x358 JUMP JUMPDEST STOP JUMPDEST PUSH2 0x177 PUSH2 0x3F3 JUMP JUMPDEST PUSH1 0x40 MLOAD PUSH2 0x184 SWAP2 SWAP1 PUSH2 0x4A7 JUMP JUMPDEST PUSH1 0x40 MLOAD DUP1 SWAP2 SUB SWAP1 RETURN JUMPDEST PUSH2 0x195 PUSH2 0x3F9 JUMP JUMPDEST PUSH1 0x40 MLOAD PUSH2 0x1A3 SWAP3 SWAP2 SWAP1 PUSH2 0x5C9 JUMP JUMPDEST PUSH1 0x40 MLOAD DUP1 SWAP2 SUB SWAP1 RETURN JUMPDEST PUSH2 0x1C6 PUSH1 0x4 DUP1 CALLDATASIZE SUB DUP2 ADD SWAP1 PUSH2 0x1C1 SWAP2 SWAP1 PUSH2 0x4F2 JUMP JUMPDEST PUSH2 0x409 JUMP JUMPDEST STOP JUMPDEST PUSH1 0x3 SLOAD DUP2 JUMP JUMPDEST PUSH0 GAS SWAP1 POP PUSH2 0x1DC PUSH1 0x64 PUSH2 0x202 JUMP JUMPDEST GAS DUP2 PUSH2 0x1E8 SWAP2 SWAP1 PUSH2 0x61D JUMP JUMPDEST PUSH1 0x3 DUP2 SWAP1 SSTORE POP POP JUMP JUMPDEST PUSH1 0x2 SLOAD DUP2 JUMP JUMPDEST PUSH0 SLOAD DUP2 JUMP JUMPDEST PUSH1 0x4 SLOAD DUP2 JUMP JUMPDEST PUSH32 0xFFFFFFFFFFFFFFFFFFFFFFFFFFFFFFFFFFFFFFFFFFFFFFFFFFFFFFFFFFFFFFFF DUP2 SUB PUSH2 0x264 JUMPI PUSH1 0x40 MLOAD PUSH32 0x8C379A000000000000000000000000000000000000000000000000000000000 DUP2 MSTORE PUSH1 0x4 ADD PUSH2 0x25B SWAP1 PUSH2 0x6AA JUMP JUMPDEST PUSH1 0x40 MLOAD DUP1 SWAP2 SUB SWAP1 REVERT JUMPDEST DUP1 PUSH0 DUP2 SWAP1 SSTORE POP DUP1 PUSH1 0x1 PUSH0 DUP3 DUP3 SLOAD PUSH2 0x27B SWAP2 SWAP1 PUSH2 0x6C8 JUMP JUMPDEST SWAP3 POP POP DUP2 SWAP1 SSTORE POP PUSH1 0x2 PUSH0 DUP2 SLOAD DUP1 SWAP3 SWAP2 SWAP1 PUSH2 0x294 SWAP1 PUSH2 0x6FB JUMP JUMPDEST SWAP2 SWAP1 POP SSTORE POP PUSH32 0xE12E3B7047FF60A2DD763CF536A43597E5CE7FE7AA7476345BD4CD079912BCEF DUP2 PUSH1 0x40 MLOAD PUSH2 0x2C8 SWAP2 SWAP1 PUSH2 0x4A7 JUMP JUMPDEST PUSH1 0x40 MLOAD DUP1 SWAP2 SUB SWAP1 LOG1 POP JUMP JUMPDEST PUSH0 PUSH0 SWAP1 POP JUMPDEST DUP3 DUP3 SWAP1 POP DUP2 LT ISZERO PUSH2 0x353 JUMPI PUSH32 0xFFFFFFFFFFFFFFFFFFFFFFFFFFFFFFFFFFFFFFFFFFFFFFFFFFFFFFFFFFFFFFFF DUP4 DUP4 DUP4 DUP2 DUP2 LT PUSH2 0x317 JUMPI PUSH2 0x316 PUSH2 0x742 JUMP JUMPDEST JUMPDEST SWAP1 POP PUSH1 0x20 MUL ADD CALLDATALOAD EQ PUSH2 0x346 JUMPI PUSH2 0x345 DUP4 DUP4 DUP4 DUP2 DUP2 LT PUSH2 0x339 JUMPI PUSH2 0x338 PUSH2 0x742 JUMP JUMPDEST JUMPDEST SWAP1 POP PUSH1 0x20 MUL ADD CALLDATALOAD PUSH2 0x202 JUMP JUMPDEST JUMPDEST DUP1 DUP1 PUSH1 0x1 ADD SWAP2 POP POP PUSH2 0x2D8 JUMP JUMPDEST POP POP POP JUMP JUMPDEST PUSH0 GAS SWAP1 POP ADDRESS PUSH20 0xFFFFFFFFFFFFFFFFFFFFFFFFFFFFFFFFFFFFFFFF AND PUSH4 0x60FE47B1 PUSH32 0xFFFFFFFFFFFFFFFFFFFFFFFFFFFFFFFFFFFFFFFFFFFFFFFFFFFFFFFFFFFFFFFF PUSH1 0x40 MLOAD DUP3 PUSH4 0xFFFFFFFF AND PUSH1 0xE0 SHL DUP2 MSTORE PUSH1 0x4 ADD PUSH2 0x3B5 SWAP2 SWAP1 PUSH2 0x4A7 JUMP JUMPDEST PUSH0 PUSH1 0x40 MLOAD DUP1 DUP4 SUB DUP2 PUSH0 DUP8 DUP1 EXTCODESIZE ISZERO DUP1 ISZERO PUSH2 0x3CC JUMPI PUSH0 PUSH0 REVERT JUMPDEST POP GAS CALL SWAP3 POP POP POP DUP1 ISZERO PUSH2 0x3DD JUMPI POP PUSH1 0x1 JUMPDEST POP GAS DUP2 PUSH2 0x3EA SWAP2 SWAP1 PUSH2 0x61D JUMP JUMPDEST PUSH1 0x4 DUP2 SWAP1 SSTORE POP POP JUMP JUMPDEST PUSH1 0x1 SLOAD DUP2 JUMP JUMPDEST PUSH0 PUSH0 PUSH1 0x3 SLOAD PUSH1 0x4 SLOAD SWAP2 POP SWAP2 POP SWAP1 SWAP2 JUMP JUMPDEST PUSH0 PUSH0 SWAP1 POP JUMPDEST DUP2 DUP2 LT ISZERO PUSH2 0x48B JUMPI PUSH0 TIMESTAMP PREVRANDAO DUP4 PUSH1 0x40 MLOAD PUSH1 0x20 ADD PUSH2 0x42C SWAP4 SWAP3 SWAP2 SWAP1 PUSH2 0x78F JUMP JUMPDEST PUSH1 0x40 MLOAD PUSH1 0x20 DUP2 DUP4 SUB SUB DUP2 MSTORE SWAP1 PUSH1 0x40 MSTORE DUP1 MLOAD SWAP1 PUSH1 0x20 ADD KECCAK256 PUSH0 SHR SWAP1 POP PUSH32 0x4D9C9CD2BCC0AE317C2F0809CEF2F40DD99E027DA5C78121640468C420F9794C DUP2 PUSH1 0x40 MLOAD PUSH2 0x475 SWAP2 SWAP1 PUSH2 0x4A7 JUMP JUMPDEST PUSH1 0x40 MLOAD DUP1 SWAP2 SUB SWAP1 LOG1 POP DUP1 DUP1 PUSH1 0x1 ADD SWAP2 POP POP PUSH2 0x40E JUMP JUMPDEST POP POP JUMP JUMPDEST PUSH0 DUP2 SWAP1 POP SWAP2 SWAP1 POP JUMP JUMPDEST PUSH2 0x4A1 DUP2 PUSH2 0x48F JUMP JUMPDEST DUP3 MSTORE POP POP JUMP JUMPDEST PUSH0 PUSH1 0x20 DUP3 ADD SWAP1 POP PUSH2 0x4BA PUSH0 DUP4 ADD DUP5 PUSH2 0x498 JUMP JUMPDEST SWAP3 SWAP2 POP POP JUMP JUMPDEST PUSH0 PUSH0 REVERT JUMPDEST PUSH0 PUSH0 REVERT JUMPDEST PUSH2 0x4D1 DUP2 PUSH2 0x48F JUMP JUMPDEST DUP2 EQ PUSH2 0x4DB JUMPI PUSH0 PUSH0 REVERT JUMPDEST POP JUMP JUMPDEST PUSH0 DUP2 CALLDATALOAD SWAP1 POP PUSH2 0x4EC DUP2 PUSH2 0x4C8 JUMP JUMPDEST SWAP3 SWAP2 POP POP JUMP JUMPDEST PUSH0 PUSH1 0x20 DUP3 DUP5 SUB SLT ISZERO PUSH2 0x507 JUMPI PUSH2 0x506 PUSH2 0x4C0 JUMP JUMPDEST JUMPDEST PUSH0 PUSH2 0x514 DUP5 DUP3 DUP6 ADD PUSH2 0x4DE JUMP JUMPDEST SWAP2 POP POP SWAP3 SWAP2 POP POP JUMP JUMPDEST PUSH0 PUSH0 REVERT JUMPDEST PUSH0 PUSH0 REVERT JUMPDEST PUSH0 PUSH0 REVERT JUMPDEST PUSH0 PUSH0 DUP4 PUSH1 0x1F DUP5 ADD SLT PUSH2 0x53E JUMPI PUSH2 0x53D PUSH2 0x51D JUMP JUMPDEST JUMPDEST DUP3 CALLDATALOAD SWAP1 POP PUSH8 0xFFFFFFFFFFFFFFFF DUP2 GT ISZERO PUSH2 0x55B JUMPI PUSH2 0x55A PUSH2 0x521 JUMP JUMPDEST JUMPDEST PUSH1 0x20 DUP4 ADD SWAP2 POP DUP4 PUSH1 0x20 DUP3 MUL DUP4 ADD GT ISZERO PUSH2 0x577 JUMPI PUSH2 0x576 PUSH2 0x525 JUMP JUMPDEST JUMPDEST SWAP3 POP SWAP3 SWAP1 POP JUMP JUMPDEST PUSH0 PUSH0 PUSH1 0x20 DUP4 DUP6 SUB SLT ISZERO PUSH2 0x594 JUMPI PUSH2 0x593 PUSH2 0x4C0 JUMP JUMPDEST JUMPDEST PUSH0 DUP4 ADD CALLDATALOAD PUSH8 0xFFFFFFFFFFFFFFFF DUP2 GT ISZERO PUSH2 0x5B1 JUMPI PUSH2 0x5B0 PUSH2 0x4C4 JUMP JUMPDEST JUMPDEST PUSH2 0x5BD DUP6 DUP3 DUP7 ADD PUSH2 0x529 JUMP JUMPDEST SWAP3 POP SWAP3 POP POP SWAP3 POP SWAP3 SWAP1 POP JUMP JUMPDEST PUSH0 PUSH1 0x40 DUP3 ADD SWAP1 POP PUSH2 0x5DC PUSH0 DUP4 ADD DUP6 PUSH2 0x498 JUMP JUMPDEST PUSH2 0x5E9 PUSH1 0x20 DUP4 ADD DUP5 PUSH2 0x498 JUMP JUMPDEST SWAP4 SWAP3 POP POP POP JUMP JUMPDEST PUSH32 0x4E487B7100000000000000000000000000000000000000000000000000000000 PUSH0 MSTORE PUSH1 0x11 PUSH1 0x4 MSTORE PUSH1 0x24 PUSH0 REVERT JUMPDEST PUSH0 PUSH2 0x627 DUP3 PUSH2 0x48F JUMP JUMPDEST SWAP2 POP PUSH2 0x632 DUP4 PUSH2 0x48F JUMP JUMPDEST SWAP3 POP DUP3 DUP3 SUB SWAP1 POP DUP2 DUP2 GT ISZERO PUSH2 0x64A JUMPI PUSH2 0x649 PUSH2 0x5F0 JUMP JUMPDEST JUMPDEST SWAP3 SWAP2 POP POP JUMP JUMPDEST PUSH0 DUP3 DUP3 MSTORE PUSH1 0x20 DUP3 ADD SWAP1 POP SWAP3 SWAP2 POP POP JUMP JUMPDEST PUSH32 0x4D61782075696E74206E6F7420616C6C6F776564000000000000000000000000 PUSH0 DUP3 ADD MSTORE POP JUMP JUMPDEST PUSH0 PUSH2 0x694 PUSH1 0x14 DUP4 PUSH2 0x650 JUMP JUMPDEST SWAP2 POP PUSH2 0x69F DUP3 PUSH2 0x660 JUMP JUMPDEST PUSH1 0x20 DUP3 ADD SWAP1 POP SWAP2 SWAP1 POP JUMP JUMPDEST PUSH0 PUSH1 0x20 DUP3 ADD SWAP1 POP DUP2 DUP2 SUB PUSH0 DUP4 ADD MSTORE PUSH2 0x6C1 DUP2 PUSH2 0x688 JUMP JUMPDEST SWAP1 POP SWAP2 SWAP1 POP JUMP JUMPDEST PUSH0 PUSH2 0x6D2 DUP3 PUSH2 0x48F JUMP JUMPDEST SWAP2 POP PUSH2 0x6DD DUP4 PUSH2 0x48F JUMP JUMPDEST SWAP3 POP DUP3 DUP3 ADD SWAP1 POP DUP1 DUP3 GT ISZERO PUSH2 0x6F5 JUMPI PUSH2 0x6F4 PUSH2 0x5F0 JUMP JUMPDEST JUMPDEST SWAP3 SWAP2 POP POP JUMP JUMPDEST PUSH0 PUSH2 0x705 DUP3 PUSH2 0x48F JUMP JUMPDEST SWAP2 POP PUSH32 0xFFFFFFFFFFFFFFFFFFFFFFFFFFFFFFFFFFFFFFFFFFFFFFFFFFFFFFFFFFFFFFFF DUP3 SUB PUSH2 0x737 JUMPI PUSH2 0x736 PUSH2 0x5F0 JUMP JUMPDEST JUMPDEST PUSH1 0x1 DUP3 ADD SWAP1 POP SWAP2 SWAP1 POP JUMP JUMPDEST PUSH32 0x4E487B7100000000000000000000000000000000000000000000000000000000 PUSH0 MSTORE PUSH1 0x32 PUSH1 0x4 MSTORE PUSH1 0x24 PUSH0 REVERT JUMPDEST PUSH0 DUP2 SWAP1 POP SWAP2 SWAP1 POP JUMP JUMPDEST PUSH2 0x789 PUSH2 0x784 DUP3 PUSH2 0x48F JUMP JUMPDEST PUSH2 0x76F JUMP JUMPDEST DUP3 MSTORE POP POP JUMP JUMPDEST PUSH0 PUSH2 0x79A DUP3 DUP7 PUSH2 0x778 JUMP JUMPDEST PUSH1 0x20 DUP3 ADD SWAP2 POP PUSH2 0x7AA DUP3 DUP6 PUSH2 0x778 JUMP JUMPDEST PUSH1 0x20 DUP3 ADD SWAP2 POP PUSH2 0x7BA DUP3 DUP5 PUSH2 0x778 JUMP JUMPDEST PUSH1 0x20 DUP3 ADD SWAP2 POP DUP2 SWAP1 POP SWAP5 SWAP4 POP POP POP POP JUMP INVALID LOG2 PUSH5 0x6970667358 0x22 SLT KECCAK256 DUP1 SHL 0xC5 0xE2 SWAP6 0xB2 0xB2 PREVRANDAO GASLIMIT CALLCODE DUP8 0xE2 0xCC SWAP1 RJUMP 0x793A 0xCA 0xB8 SWAP16 0x29 LOG4 CALLDATACOPY 0xD0 EXTCALL CLZ 0xDB ADDRESS STOP 0xE2 DUP9 MSTORE8 PUSH5 0x736F6C6343 STOP ADDMOD 0x22 STOP CALLER "
		},
		"gasEstimates": {
			"creation": {
				"codeDepositCost": "409800",
				"executionCost": "447",
				"totalCost": "410247"
			},
			"external": {
				"batchSet(uint256[])": "infinite",
				"calls()": "2470",
				"compareGas()": "infinite",
				"fuzzTest(uint256)": "infinite",
				"lastValue()": "2491",
				"maxGas()": "2514",
				"normalGas()": "2426",
				"set(uint256)": "infinite",
				"sum()": "2491",
				"testMaxGas()": "infinite",
				"testNormalGas()": "infinite"
			}
		},
		"methodIdentifiers": {
			"batchSet(uint256[])": "70b07b7b",
			"calls()": "305f72b7",
			"compareGas()": "8f32aa78",
			"fuzzTest(uint256)": "e1ce9200",
			"lastValue()": "43183834",
			"maxGas()": "501d815c",
			"normalGas()": "10938ff7",
			"set(uint256)": "60fe47b1",
			"sum()": "853255cc",
			"testMaxGas()": "74a7cbcd",
			"testNormalGas()": "2ac2f832"
		}
	},
	"abi": [
		{
			"anonymous": false,
			"inputs": [
				{
					"indexed": false,
					"internalType": "uint256",
					"name": "value",
					"type": "uint256"
				}
			],
			"name": "FuzzValue",
			"type": "event"
		},
		{
			"anonymous": false,
			"inputs": [
				{
					"indexed": false,
					"internalType": "uint256",
					"name": "value",
					"type": "uint256"
				}
			],
			"name": "ValueReceived",
			"type": "event"
		},
		{
			"inputs": [
				{
					"internalType": "uint256[]",
					"name": "values",
					"type": "uint256[]"
				}
			],
			"name": "batchSet",
			"outputs": [],
			"stateMutability": "nonpayable",
			"type": "function"
		},
		{
			"inputs": [],
			"name": "calls",
			"outputs": [
				{
					"internalType": "uint256",
					"name": "",
					"type": "uint256"
				}
			],
			"stateMutability": "view",
			"type": "function"
		},
		{
			"inputs": [],
			"name": "compareGas",
			"outputs": [
				{
					"internalType": "uint256",
					"name": "normal",
					"type": "uint256"
				},
				{
					"internalType": "uint256",
					"name": "maxValue",
					"type": "uint256"
				}
			],
			"stateMutability": "view",
			"type": "function"
		},
		{
			"inputs": [
				{
					"internalType": "uint256",
					"name": "iterations",
					"type": "uint256"
				}
			],
			"name": "fuzzTest",
			"outputs": [],
			"stateMutability": "nonpayable",
			"type": "function"
		},
		{
			"inputs": [],
			"name": "lastValue",
			"outputs": [
				{
					"internalType": "uint256",
					"name": "",
					"type": "uint256"
				}
			],
			"stateMutability": "view",
			"type": "function"
		},
		{
			"inputs": [],
			"name": "maxGas",
			"outputs": [
				{
					"internalType": "uint256",
					"name": "",
					"type": "uint256"
				}
			],
			"stateMutability": "view",
			"type": "function"
		},
		{
			"inputs": [],
			"name": "normalGas",
			"outputs": [
				{
					"internalType": "uint256",
					"name": "",
					"type": "uint256"
				}
			],
			"stateMutability": "view",
			"type": "function"
		},
		{
			"inputs": [
				{
					"internalType": "uint256",
					"name": "value",
					"type": "uint256"
				}
			],
			"name": "set",
			"outputs": [],
			"stateMutability": "nonpayable",
			"type": "function"
		},
		{
			"inputs": [],
			"name": "sum",
			"outputs": [
				{
					"internalType": "uint256",
					"name": "",
					"type": "uint256"
				}
			],
			"stateMutability": "view",
			"type": "function"
		},
		{
			"inputs": [],
			"name": "testMaxGas",
			"outputs": [],
			"stateMutability": "nonpayable",
			"type": "function"
		},
		{
			"inputs": [],
			"name": "testNormalGas",
			"outputs": [],
			"stateMutability": "nonpayable",
			"type": "function"
		}
	]
}