{
	"data": {
		"bytecode": {
			"linkReferences": {},
			"object": "6080604052348015600e575f5ffd5b5061057f8061001c5f395ff3fe608060405234801561000f575f5ffd5b5060043610610091575f3560e01c80636a622364116100645780636a6223641461010a5780638dd7b84d14610128578063be1c766b14610146578063d4d5e8d514610164578063f0ba84401461018057610091565b806339ad3b0e146100955780633b19aeff146100c557806358378b41146100e457806362a5f17114610100575b5f5ffd5b6100af60048036038101906100aa9190610390565b6101b0565b6040516100bc91906103ca565b60405180910390f35b6100cd6101d2565b6040516100db9291906103e3565b60405180910390f35b6100fe60048036038101906100f9919061040a565b6101e2565b005b610108610265565b005b6101126102e5565b60405161011f91906103ca565b60405180910390f35b6101306102eb565b60405161013d91906103ca565b60405180910390f35b61014e6102f1565b60405161015b91906103ca565b60405180910390f35b61017e60048036038101906101799190610390565b6102fc565b005b61019a60048036038101906101959190610390565b61033a565b6040516101a791906103ca565b60405180910390f35b5f60fa826101be9190610475565b6113886101cb91906104b6565b9050919050565b5f5f600154600254915091509091565b5f5a90505f82846101f391906104b6565b90505f80549050811115610209575f8054905090505b5f5f8590505b8281101561024b575f818154811061022a576102296104e9565b5b905f5260205f2001548261023e91906104b6565b915080600101905061020f565b505a836102589190610516565b6002819055505050505050565b5f5a90505f5f5b5f805490508110156102ce575f818154811061028b5761028a6104e9565b5b905f5260205f2001548261029f91906104b6565b9150815f82815481106102b5576102b46104e9565b5b905f5260205f200181905550808060010191505061026c565b505a826102db9190610516565b6001819055505050565b60015481565b60025481565b5f5f80549050905090565b5f5b81811015610336575f81908060018154018082558091505060019003905f5260205f20015f90919091909150558060010190506102fe565b5050565b5f8181548110610348575f80fd5b905f5260205f20015f915090505481565b5f5ffd5b5f819050919050565b61036f8161035d565b8114610379575f5ffd5b50565b5f8135905061038a81610366565b92915050565b5f602082840312156103a5576103a4610359565b5b5f6103b28482850161037c565b91505092915050565b6103c48161035d565b82525050565b5f6020820190506103dd5f8301846103bb565b92915050565b5f6040820190506103f65f8301856103bb565b61040360208301846103bb565b9392505050565b5f5f604083850312156104205761041f610359565b5b5f61042d8582860161037c565b925050602061043e8582860161037c565b9150509250929050565b7f4e487b71000000000000000000000000000000000000000000000000000000005f52601160045260245ffd5b5f61047f8261035d565b915061048a8361035d565b92508282026104988161035d565b915082820484148315176104af576104ae610448565b5b5092915050565b5f6104c08261035d565b91506104cb8361035d565b92508282019050808211156104e3576104e2610448565b5b92915050565b7f4e487b71000000000000000000000000000000000000000000000000000000005f52603260045260245ffd5b5f6105208261035d565b915061052b8361035d565b925082820390508181111561054357610542610448565b5b9291505056fea26469706673582212204202b8612626536670bcd1bb2a5c186e402da2e531ea4145027a4ba4e6cb19fd64736f6c63430008220033",
			"opcodes": "PUSH1 0x80 PUSH1 0x40 MSTORE CALLVALUE DUP1 ISZERO PUSH1 0xE JUMPI PUSH0 PUSH0 REVERT JUMPDEST POP PUSH2 0x57F DUP1 PUSH2 0x1C PUSH0 CODECOPY PUSH0 RETURN INVALID PUSH1 0x80 PUSH1 0x40 MSTORE CALLVALUE DUP1 ISZERO PUSH2 0xF JUMPI PUSH0 PUSH0 REVERT JUMPDEST POP PUSH1 0x4 CALLDATASIZE LT PUSH2 0x91 JUMPI PUSH0 CALLDATALOAD PUSH1 0xE0 SHR DUP1 PUSH4 0x6A622364 GT PUSH2 0x64 JUMPI DUP1 PUSH4 0x6A622364 EQ PUSH2 0x10A JUMPI DUP1 PUSH4 0x8DD7B84D EQ PUSH2 0x128 JUMPI DUP1 PUSH4 0xBE1C766B EQ PUSH2 0x146 JUMPI DUP1 PUSH4 0xD4D5E8D5 EQ PUSH2 0x164 JUMPI DUP1 PUSH4 0xF0BA8440 EQ PUSH2 0x180 JUMPI PUSH2 0x91 JUMP JUMPDEST DUP1 PUSH4 0x39AD3B0E EQ PUSH2 0x95 JUMPI DUP1 PUSH4 0x3B19AEFF EQ PUSH2 0xC5 JUMPI DUP1 PUSH4 0x58378B41 EQ PUSH2 0xE4 JUMPI DUP1 PUSH4 0x62A5F171 EQ PUSH2 0x100 JUMPI JUMPDEST PUSH0 PUSH0 REVERT JUMPDEST PUSH2 0xAF PUSH1 0x4 DUP1 CALLDATASIZE SUB DUP2 ADD SWAP1 PUSH2 0xAA SWAP2 SWAP1 PUSH2 0x390 JUMP JUMPDEST PUSH2 0x1B0 JUMP JUMPDEST PUSH1 0x40 MLOAD PUSH2 0xBC SWAP2 SWAP1 PUSH2 0x3CA JUMP JUMPDEST PUSH1 0x40 MLOAD DUP1 SWAP2 SUB SWAP1 RETURN JUMPDEST PUSH2 0xCD PUSH2 0x1D2 JUMP JUMPDEST PUSH1 0x40 MLOAD PUSH2 0xDB SWAP3 SWAP2 SWAP1 PUSH2 0x3E3 JUMP JUMPDEST PUSH1 0x40 MLOAD DUP1 SWAP2 SUB SWAP1 RETURN JUMPDEST PUSH2 0xFE PUSH1 0x4 DUP1 CALLDATASIZE SUB DUP2 ADD SWAP1 PUSH2 0xF9 SWAP2 SWAP1 PUSH2 0x40A JUMP JUMPDEST PUSH2 0x1E2 JUMP JUMPDEST STOP JUMPDEST PUSH2 0x108 PUSH2 0x265 JUMP JUMPDEST STOP JUMPDEST PUSH2 0x112 PUSH2 0x2E5 JUMP JUMPDEST PUSH1 0x40 MLOAD PUSH2 0x11F SWAP2 SWAP1 PUSH2 0x3CA JUMP JUMPDEST PUSH1 0x40 MLOAD DUP1 SWAP2 SUB SWAP1 RETURN JUMPDEST PUSH2 0x130 PUSH2 0x2EB JUMP JUMPDEST PUSH1 0x40 MLOAD PUSH2 0x13D SWAP2 SWAP1 PUSH2 0x3CA JUMP JUMPDEST PUSH1 0x40 MLOAD DUP1 SWAP2 SUB SWAP1 RETURN JUMPDEST PUSH2 0x14E PUSH2 0x2F1 JUMP JUMPDEST PUSH1 0x40 MLOAD PUSH2 0x15B SWAP2 SWAP1 PUSH2 0x3CA JUMP JUMPDEST PUSH1 0x40 MLOAD DUP1 SWAP2 SUB SWAP1 RETURN JUMPDEST PUSH2 0x17E PUSH1 0x4 DUP1 CALLDATASIZE SUB DUP2 ADD SWAP1 PUSH2 0x179 SWAP2 SWAP1 PUSH2 0x390 JUMP JUMPDEST PUSH2 0x2FC JUMP JUMPDEST STOP JUMPDEST PUSH2 0x19A PUSH1 0x4 DUP1 CALLDATASIZE SUB DUP2 ADD SWAP1 PUSH2 0x195 SWAP2 SWAP1 PUSH2 0x390 JUMP JUMPDEST PUSH2 0x33A JUMP JUMPDEST PUSH1 0x40 MLOAD PUSH2 0x1A7 SWAP2 SWAP1 PUSH2 0x3CA JUMP JUMPDEST PUSH1 0x40 MLOAD DUP1 SWAP2 SUB SWAP1 RETURN JUMPDEST PUSH0 PUSH1 0xFA DUP3 PUSH2 0x1BE SWAP2 SWAP1 PUSH2 0x475 JUMP JUMPDEST PUSH2 0x1388 PUSH2 0x1CB SWAP2 SWAP1 PUSH2 0x4B6 JUMP JUMPDEST SWAP1 POP SWAP2 SWAP1 POP JUMP JUMPDEST PUSH0 PUSH0 PUSH1 0x1 SLOAD PUSH1 0x2 SLOAD SWAP2 POP SWAP2 POP SWAP1 SWAP2 JUMP JUMPDEST PUSH0 GAS SWAP1 POP PUSH0 DUP3 DUP5 PUSH2 0x1F3 SWAP2 SWAP1 PUSH2 0x4B6 JUMP JUMPDEST SWAP1 POP PUSH0 DUP1 SLOAD SWAP1 POP DUP2 GT ISZERO PUSH2 0x209 JUMPI PUSH0 DUP1 SLOAD SWAP1 POP SWAP1 POP JUMPDEST PUSH0 PUSH0 DUP6 SWAP1 POP JUMPDEST DUP3 DUP2 LT ISZERO PUSH2 0x24B JUMPI PUSH0 DUP2 DUP2 SLOAD DUP2 LT PUSH2 0x22A JUMPI PUSH2 0x229 PUSH2 0x4E9 JUMP JUMPDEST JUMPDEST SWAP1 PUSH0 MSTORE PUSH1 0x20 PUSH0 KECCAK256 ADD SLOAD DUP3 PUSH2 0x23E SWAP2 SWAP1 PUSH2 0x4B6 JUMP JUMPDEST SWAP2 POP DUP1 PUSH1 0x1 ADD SWAP1 POP PUSH2 0x20F JUMP JUMPDEST POP GAS DUP4 PUSH2 0x258 SWAP2 SWAP1 PUSH2 0x516 JUMP JUMPDEST PUSH1 0x2 DUP2 SWAP1 SSTORE POP POP POP POP POP POP JUMP JUMPDEST PUSH0 GAS SWAP1 POP PUSH0 PUSH0 JUMPDEST PUSH0 DUP1 SLOAD SWAP1 POP DUP2 LT ISZERO PUSH2 0x2CE JUMPI PUSH0 DUP2 DUP2 SLOAD DUP2 LT PUSH2 0x28B JUMPI PUSH2 0x28A PUSH2 0x4E9 JUMP JUMPDEST JUMPDEST SWAP1 PUSH0 MSTORE PUSH1 0x20 PUSH0 KECCAK256 ADD SLOAD DUP3 PUSH2 0x29F SWAP2 SWAP1 PUSH2 0x4B6 JUMP JUMPDEST SWAP2 POP DUP2 PUSH0 DUP3 DUP2 SLOAD DUP2 LT PUSH2 0x2B5 JUMPI PUSH2 0x2B4 PUSH2 0x4E9 JUMP JUMPDEST JUMPDEST SWAP1 PUSH0 MSTORE PUSH1 0x20 PUSH0 KECCAK256 ADD DUP2 SWAP1 SSTORE POP DUP1 DUP1 PUSH1 0x1 ADD SWAP2 POP POP PUSH2 0x26C JUMP JUMPDEST POP GAS DUP3 PUSH2 0x2DB SWAP2 SWAP1 PUSH2 0x516 JUMP JUMPDEST PUSH1 0x1 DUP2 SWAP1 SSTORE POP POP POP JUMP JUMPDEST PUSH1 0x1 SLOAD DUP2 JUMP JUMPDEST PUSH1 0x2 SLOAD DUP2 JUMP JUMPDEST PUSH0 PUSH0 DUP1 SLOAD SWAP1 POP SWAP1 POP SWAP1 JUMP JUMPDEST PUSH0 JUMPDEST DUP2 DUP2 LT ISZERO PUSH2 0x336 JUMPI PUSH0 DUP2 SWAP1 DUP1 PUSH1 0x1 DUP2 SLOAD ADD DUP1 DUP3 SSTORE DUP1 SWAP2 POP POP PUSH1 0x1 SWAP1 SUB SWAP1 PUSH0 MSTORE PUSH1 0x20 PUSH0 KECCAK256 ADD PUSH0 SWAP1 SWAP2 SWAP1 SWAP2 SWAP1 SWAP2 POP SSTORE DUP1 PUSH1 0x1 ADD SWAP1 POP PUSH2 0x2FE JUMP JUMPDEST POP POP JUMP JUMPDEST PUSH0 DUP2 DUP2 SLOAD DUP2 LT PUSH2 0x348 JUMPI PUSH0 DUP1 REVERT JUMPDEST SWAP1 PUSH0 MSTORE PUSH1 0x20 PUSH0 KECCAK256 ADD PUSH0 SWAP2 POP SWAP1 POP SLOAD DUP2 JUMP JUMPDEST PUSH0 PUSH0 REVERT JUMPDEST PUSH0 DUP2 SWAP1 POP SWAP2 SWAP1 POP JUMP JUMPDEST PUSH2 0x36F DUP2 PUSH2 0x35D JUMP JUMPDEST DUP2 EQ PUSH2 0x379 JUMPI PUSH0 PUSH0 REVERT JUMPDEST POP JUMP JUMPDEST PUSH0 DUP2 CALLDATALOAD SWAP1 POP PUSH2 0x38A DUP2 PUSH2 0x366 JUMP JUMPDEST SWAP3 SWAP2 POP POP JUMP JUMPDEST PUSH0 PUSH1 0x20 DUP3 DUP5 SUB SLT ISZERO PUSH2 0x3A5 JUMPI PUSH2 0x3A4 PUSH2 0x359 JUMP JUMPDEST JUMPDEST PUSH0 PUSH2 0x3B2 DUP5 DUP3 DUP6 ADD PUSH2 0x37C JUMP JUMPDEST SWAP2 POP POP SWAP3 SWAP2 POP POP JUMP JUMPDEST PUSH2 0x3C4 DUP2 PUSH2 0x35D JUMP JUMPDEST DUP3 MSTORE POP POP JUMP JUMPDEST PUSH0 PUSH1 0x20 DUP3 ADD SWAP1 POP PUSH2 0x3DD PUSH0 DUP4 ADD DUP5 PUSH2 0x3BB JUMP JUMPDEST SWAP3 SWAP2 POP POP JUMP JUMPDEST PUSH0 PUSH1 0x40 DUP3 ADD SWAP1 POP PUSH2 0x3F6 PUSH0 DUP4 ADD DUP6 PUSH2 0x3BB JUMP JUMPDEST PUSH2 0x403 PUSH1 0x20 DUP4 ADD DUP5 PUSH2 0x3BB JUMP JUMPDEST SWAP4 SWAP3 POP POP POP JUMP JUMPDEST PUSH0 PUSH0 PUSH1 0x40 DUP4 DUP6 SUB SLT ISZERO PUSH2 0x420 JUMPI PUSH2 0x41F PUSH2 0x359 JUMP JUMPDEST JUMPDEST PUSH0 PUSH2 0x42D DUP6 DUP3 DUP7 ADD PUSH2 0x37C JUMP JUMPDEST SWAP3 POP POP PUSH1 0x20 PUSH2 0x43E DUP6 DUP3 DUP7 ADD PUSH2 0x37C JUMP JUMPDEST SWAP2 POP POP SWAP3 POP SWAP3 SWAP1 POP JUMP JUMPDEST PUSH32 0x4E487B7100000000000000000000000000000000000000000000000000000000 PUSH0 MSTORE PUSH1 0x11 PUSH1 0x4 MSTORE PUSH1 0x24 PUSH0 REVERT JUMPDEST PUSH0 PUSH2 0x47F DUP3 PUSH2 0x35D JUMP JUMPDEST SWAP2 POP PUSH2 0x48A DUP4 PUSH2 0x35D JUMP JUMPDEST SWAP3 POP DUP3 DUP3 MUL PUSH2 0x498 DUP2 PUSH2 0x35D JUMP JUMPDEST SWAP2 POP DUP3 DUP3 DIV DUP5 EQ DUP4 ISZERO OR PUSH2 0x4AF JUMPI PUSH2 0x4AE PUSH2 0x448 JUMP JUMPDEST JUMPDEST POP SWAP3 SWAP2 POP POP JUMP JUMPDEST PUSH0 PUSH2 0x4C0 DUP3 PUSH2 0x35D JUMP JUMPDEST SWAP2 POP PUSH2 0x4CB DUP4 PUSH2 0x35D JUMP JUMPDEST SWAP3 POP DUP3 DUP3 ADD SWAP1 POP DUP1 DUP3 GT ISZERO PUSH2 0x4E3 JUMPI PUSH2 0x4E2 PUSH2 0x448 JUMP JUMPDEST JUMPDEST SWAP3 SWAP2 POP POP JUMP JUMPDEST PUSH32 0x4E487B7100000000000000000000000000000000000000000000000000000000 PUSH0 MSTORE PUSH1 0x32 PUSH1 0x4 MSTORE PUSH1 0x24 PUSH0 REVERT JUMPDEST PUSH0 PUSH2 0x520 DUP3 PUSH2 0x35D JUMP JUMPDEST SWAP2 POP PUSH2 0x52B DUP4 PUSH2 0x35D JUMP JUMPDEST SWAP3 POP DUP3 DUP3 SUB SWAP1 POP DUP2 DUP2 GT ISZERO PUSH2 0x543 JUMPI PUSH2 0x542 PUSH2 0x448 JUMP JUMPDEST JUMPDEST SWAP3 SWAP2 POP POP JUMP INVALID LOG2 PUSH5 0x6970667358 0x22 SLT KECCAK256 TIMESTAMP MUL 0xB8 PUSH2 0x2626 MSTORE8 PUSH7 0x70BCD1BB2A5C18 PUSH15 0x402DA2E531EA4145027A4BA4E6CB19 REVERT PUSH5 0x736F6C6343 STOP ADDMOD 0x22 STOP CALLER "
		},
		"gasEstimates": {
			"creation": {
				"codeDepositCost": "281400",
				"executionCost": "316",
				"totalCost": "281716"
			},
			"external": {
				"addMany(uint256)": "infinite",
				"dangerousLoop()": "infinite",
				"data(uint256)": "infinite",
				"estimateBatchGas(uint256)": "infinite",
				"gasComparison()": "infinite",
				"getLength()": "2483",
				"processChunk(uint256,uint256)": "infinite",
				"safeGasUsed()": "2447",
				"unsafeGasUsed()": "2425"
			}
		},
		"methodIdentifiers": {
			"addMany(uint256)": "d4d5e8d5",
			"dangerousLoop()": "62a5f171",
			"data(uint256)": "f0ba8440",
			"estimateBatchGas(uint256)": "39ad3b0e",
			"gasComparison()": "3b19aeff",
			"getLength()": "be1c766b",
			"processChunk(uint256,uint256)": "58378b41",
			"safeGasUsed()": "8dd7b84d",
			"unsafeGasUsed()": "6a622364"
		}
	},
	"abi": [
		{
			"inputs": [
				{
					"internalType": "uint256",
					"name": "n",
					"type": "uint256"
				}
			],
			"name": "addMany",
			"outputs": [],
			"stateMutability": "nonpayable",
			"type": "function"
		},
		{
			"inputs": [],
			"name": "dangerousLoop",
			"outputs": [],
			"stateMutability": "nonpayable",
			"type": "function"
		},
		{
			"inputs": [
				{
					"internalType": "uint256",
					"name": "",
					"type": "uint256"
				}
			],
			"name": "data",
			"outputs": [
				{
					"internalType": "uint256",
					"name": "",
					"type": "uint256"
				}
			],
			"stateMutability": "view",
			"type": "function"
		},
		{
			"inputs": [
				{
					"internalType": "uint256",
					"name": "batchSize",
					"type": "uint256"
				}
			],
			"name": "estimateBatchGas",
			"outputs": [
				{
					"internalType": "uint256",
					"name": "",
					"type": "uint256"
				}
			],
			"stateMutability": "pure",
			"type": "function"
		},
		{
			"inputs": [],
			"name": "gasComparison",
			"outputs": [
				{
					"internalType": "uint256",
					"name": "unsafeGas",
					"type": "uint256"
				},
				{
					"internalType": "uint256",
					"name": "safeGas",
					"type": "uint256"
				}
			],
			"stateMutability": "view",
			"type": "function"
		},
		{
			"inputs": [],
			"name": "getLength",
			"outputs": [
				{
					"internalType": "uint256",
					"name": "",
					"type": "uint256"
				}
			],
			"stateMutability": "view",
			"type": "function"
		},
		{
			"inputs": [
				{
					"internalType": "uint256",
					"name": "start",
					"type": "uint256"
				},
				{
					"internalType": "uint256",
					"name": "batchSize",
					"type": "uint256"
				}
			],
			"name": "processChunk",
			"outputs": [],
			"stateMutability": "nonpayable",
			"type": "function"
		},
		{
			"inputs": [],
			"name": "safeGasUsed",
			"outputs": [
				{
					"internalType": "uint256",
					"name": "",
					"type": "uint256"
				}
			],
			"stateMutability": "view",
			"type": "function"
		},
		{
			"inputs": [],
			"name": "unsafeGasUsed",
			"outputs": [
				{
					"internalType": "uint256",
					"name": "",
					"type": "uint256"
				}
			],
			"stateMutability": "view",
			"type": "function"
		}
	]
}