{
	"data": {
		"bytecode": {
			"linkReferences": {},
			"object": "6080604052348015600e575f5ffd5b506103278061001c5f395ff3fe608060405260043610610037575f3560e01c80631a3528511461007b578063c0f9882e14610091578063d67e4b84146100bb57610077565b36610077576040517f08c379a000000000000000000000000000000000000000000000000000000000815260040161006e906101c6565b60405180910390fd5b5f5ffd5b348015610086575f5ffd5b5061008f6100d1565b005b34801561009c575f5ffd5b506100a561010c565b6040516100b291906101fc565b60405180910390f35b3480156100c6575f5ffd5b506100cf610111565b005b6040517f08c379a00000000000000000000000000000000000000000000000000000000081526004016101039061025f565b60405180910390fd5b5f5481565b5f5f815480929190610122906102aa565b91905055503373ffffffffffffffffffffffffffffffffffffffff167f6ade1cb8451b88b400a61b4c5331932cf374fcf1b111c8c817894463f592110160405160405180910390a2565b5f82825260208201905092915050565b7f4554482072656a656374656400000000000000000000000000000000000000005f82015250565b5f6101b0600c8361016c565b91506101bb8261017c565b602082019050919050565b5f6020820190508181035f8301526101dd816101a4565b9050919050565b5f819050919050565b6101f6816101e4565b82525050565b5f60208201905061020f5f8301846101ed565b92915050565b7f496e74656e74696f6e616c206661696c757265000000000000000000000000005f82015250565b5f61024960138361016c565b915061025482610215565b602082019050919050565b5f6020820190508181035f8301526102768161023d565b9050919050565b7f4e487b71000000000000000000000000000000000000000000000000000000005f52601160045260245ffd5b5f6102b4826101e4565b91507fffffffffffffffffffffffffffffffffffffffffffffffffffffffffffffffff82036102e6576102e561027d565b5b60018201905091905056fea26469706673582212209abdd89cb89b3b9fe9647394924ab0d0f681836acf3f55968343aad3eb6db91864736f6c63430008220033",
			"opcodes": "PUSH1 0x80 PUSH1 0x40 MSTORE CALLVALUE DUP1 ISZERO PUSH1 0xE JUMPI PUSH0 PUSH0 REVERT JUMPDEST POP PUSH2 0x327 DUP1 PUSH2 0x1C PUSH0 CODECOPY PUSH0 RETURN INVALID PUSH1 0x80 PUSH1 0x40 MSTORE PUSH1 0x4 CALLDATASIZE LT PUSH2 0x37 JUMPI PUSH0 CALLDATALOAD PUSH1 0xE0 SHR DUP1 PUSH4 0x1A352851 EQ PUSH2 0x7B JUMPI DUP1 PUSH4 0xC0F9882E EQ PUSH2 0x91 JUMPI DUP1 PUSH4 0xD67E4B84 EQ PUSH2 0xBB JUMPI PUSH2 0x77 JUMP JUMPDEST CALLDATASIZE PUSH2 0x77 JUMPI PUSH1 0x40 MLOAD PUSH32 0x8C379A000000000000000000000000000000000000000000000000000000000 DUP2 MSTORE PUSH1 0x4 ADD PUSH2 0x6E SWAP1 PUSH2 0x1C6 JUMP JUMPDEST PUSH1 0x40 MLOAD DUP1 SWAP2 SUB SWAP1 REVERT JUMPDEST PUSH0 PUSH0 REVERT JUMPDEST CALLVALUE DUP1 ISZERO PUSH2 0x86 JUMPI PUSH0 PUSH0 REVERT JUMPDEST POP PUSH2 0x8F PUSH2 0xD1 JUMP JUMPDEST STOP JUMPDEST CALLVALUE DUP1 ISZERO PUSH2 0x9C JUMPI PUSH0 PUSH0 REVERT JUMPDEST POP PUSH2 0xA5 PUSH2 0x10C JUMP JUMPDEST PUSH1 0x40 MLOAD PUSH2 0xB2 SWAP2 SWAP1 PUSH2 0x1FC JUMP JUMPDEST PUSH1 0x40 MLOAD DUP1 SWAP2 SUB SWAP1 RETURN JUMPDEST CALLVALUE DUP1 ISZERO PUSH2 0xC6 JUMPI PUSH0 PUSH0 REVERT JUMPDEST POP PUSH2 0xCF PUSH2 0x111 JUMP JUMPDEST STOP JUMPDEST PUSH1 0x40 MLOAD PUSH32 0x8C379A000000000000000000000000000000000000000000000000000000000 DUP2 MSTORE PUSH1 0x4 ADD PUSH2 0x103 SWAP1 PUSH2 0x25F JUMP JUMPDEST PUSH1 0x40 MLOAD DUP1 SWAP2 SUB SWAP1 REVERT JUMPDEST PUSH0 SLOAD DUP2 JUMP JUMPDEST PUSH0 PUSH0 DUP2 SLOAD DUP1 SWAP3 SWAP2 SWAP1 PUSH2 0x122 SWAP1 PUSH2 0x2AA JUMP JUMPDEST SWAP2 SWAP1 POP SSTORE POP CALLER PUSH20 0xFFFFFFFFFFFFFFFFFFFFFFFFFFFFFFFFFFFFFFFF AND PUSH32 0x6ADE1CB8451B88B400A61B4C5331932CF374FCF1B111C8C817894463F5921101 PUSH1 0x40 MLOAD PUSH1 0x40 MLOAD DUP1 SWAP2 SUB SWAP1 LOG2 JUMP JUMPDEST PUSH0 DUP3 DUP3 MSTORE PUSH1 0x20 DUP3 ADD SWAP1 POP SWAP3 SWAP2 POP POP JUMP JUMPDEST PUSH32 0x4554482072656A65637465640000000000000000000000000000000000000000 PUSH0 DUP3 ADD MSTORE POP JUMP JUMPDEST PUSH0 PUSH2 0x1B0 PUSH1 0xC DUP4 PUSH2 0x16C JUMP JUMPDEST SWAP2 POP PUSH2 0x1BB DUP3 PUSH2 0x17C JUMP JUMPDEST PUSH1 0x20 DUP3 ADD SWAP1 POP SWAP2 SWAP1 POP JUMP JUMPDEST PUSH0 PUSH1 0x20 DUP3 ADD SWAP1 POP DUP2 DUP2 SUB PUSH0 DUP4 ADD MSTORE PUSH2 0x1DD DUP2 PUSH2 0x1A4 JUMP JUMPDEST SWAP1 POP SWAP2 SWAP1 POP JUMP JUMPDEST PUSH0 DUP2 SWAP1 POP SWAP2 SWAP1 POP JUMP JUMPDEST PUSH2 0x1F6 DUP2 PUSH2 0x1E4 JUMP JUMPDEST DUP3 MSTORE POP POP JUMP JUMPDEST PUSH0 PUSH1 0x20 DUP3 ADD SWAP1 POP PUSH2 0x20F PUSH0 DUP4 ADD DUP5 PUSH2 0x1ED JUMP JUMPDEST SWAP3 SWAP2 POP POP JUMP JUMPDEST PUSH32 0x496E74656E74696F6E616C206661696C75726500000000000000000000000000 PUSH0 DUP3 ADD MSTORE POP JUMP JUMPDEST PUSH0 PUSH2 0x249 PUSH1 0x13 DUP4 PUSH2 0x16C JUMP JUMPDEST SWAP2 POP PUSH2 0x254 DUP3 PUSH2 0x215 JUMP JUMPDEST PUSH1 0x20 DUP3 ADD SWAP1 POP SWAP2 SWAP1 POP JUMP JUMPDEST PUSH0 PUSH1 0x20 DUP3 ADD SWAP1 POP DUP2 DUP2 SUB PUSH0 DUP4 ADD MSTORE PUSH2 0x276 DUP2 PUSH2 0x23D JUMP JUMPDEST SWAP1 POP SWAP2 SWAP1 POP JUMP JUMPDEST PUSH32 0x4E487B7100000000000000000000000000000000000000000000000000000000 PUSH0 MSTORE PUSH1 0x11 PUSH1 0x4 MSTORE PUSH1 0x24 PUSH0 REVERT JUMPDEST PUSH0 PUSH2 0x2B4 DUP3 PUSH2 0x1E4 JUMP JUMPDEST SWAP2 POP PUSH32 0xFFFFFFFFFFFFFFFFFFFFFFFFFFFFFFFFFFFFFFFFFFFFFFFFFFFFFFFFFFFFFFFF DUP3 SUB PUSH2 0x2E6 JUMPI PUSH2 0x2E5 PUSH2 0x27D JUMP JUMPDEST JUMPDEST PUSH1 0x1 DUP3 ADD SWAP1 POP SWAP2 SWAP1 POP JUMP INVALID LOG2 PUSH5 0x6970667358 0x22 SLT KECCAK256 SWAP11 0xBD 0xD8 SWAP13 0xB8 SWAP12 EXTCODESIZE SWAP16 0xE9 PUSH5 0x7394924AB0 0xD0 0xF6 DUP2 DUP4 PUSH11 0xCF3F55968343AAD3EB6DB9 XOR PUSH5 0x736F6C6343 STOP ADDMOD 0x22 STOP CALLER "
		},
		"gasEstimates": {
			"creation": {
				"codeDepositCost": "161400",
				"executionCost": "206",
				"totalCost": "161606"
			},
			"external": {
				"alwaysFail()": "406",
				"callCounter()": "2424",
				"normalFunction()": "25678"
			}
		},
		"methodIdentifiers": {
			"alwaysFail()": "1a352851",
			"callCounter()": "c0f9882e",
			"normalFunction()": "d67e4b84"
		}
	},
	"abi": [
		{
			"anonymous": false,
			"inputs": [
				{
					"indexed": true,
					"internalType": "address",
					"name": "sender",
					"type": "address"
				},
				{
					"indexed": false,
					"internalType": "uint256",
					"name": "amount",
					"type": "uint256"
				}
			],
			"name": "ETHRejected",
			"type": "event"
		},
		{
			"anonymous": false,
			"inputs": [
				{
					"indexed": true,
					"internalType": "address",
					"name": "caller",
					"type": "address"
				},
				{
					"indexed": false,
					"internalType": "string",
					"name": "reason",
					"type": "string"
				}
			],
			"name": "FailureTriggered",
			"type": "event"
		},
		{
			"anonymous": false,
			"inputs": [
				{
					"indexed": true,
					"internalType": "address",
					"name": "caller",
					"type": "address"
				}
			],
			"name": "NormalFunctionCalled",
			"type": "event"
		},
		{
			"inputs": [],
			"name": "alwaysFail",
			"outputs": [],
			"stateMutability": "pure",
			"type": "function"
		},
		{
			"inputs": [],
			"name": "callCounter",
			"outputs": [
				{
					"internalType": "uint256",
					"name": "",
					"type": "uint256"
				}
			],
			"stateMutability": "view",
			"type": "function"
		},
		{
			"inputs": [],
			"name": "normalFunction",
			"outputs": [],
			"stateMutability": "nonpayable",
			"type": "function"
		},
		{
			"stateMutability": "payable",
			"type": "receive"
		}
	]
}