{
	"data": {
		"bytecode": {
			"linkReferences": {},
			"object": "6080604052348015600e575f5ffd5b506112398061001c5f395ff3fe60806040526004361061006e575f3560e01c8063bcb707cf1161004d578063bcb707cf146100e2578063c246e94d1461010a578063f024cfcf14610132578063f651d3fc1461015a5761006e565b80626e75ec146100725780633d2839ef1461009c5780639415bc59146100b8575b5f5ffd5b34801561007d575f5ffd5b50610086610176565b604051610093919061086a565b60405180910390f35b6100b660048036038101906100b191906108f5565b610202565b005b3480156100c3575f5ffd5b506100cc61026b565b6040516100d9919061093a565b60405180910390f35b3480156100ed575f5ffd5b50610108600480360381019061010391906109c1565b61027c565b005b348015610115575f5ffd5b50610130600480360381019061012b9190610a11565b6103cb565b005b34801561013d575f5ffd5b5061015860048036038101906101539190610a11565b61052e565b005b610174600480360381019061016f91906108f5565b6106e3565b005b6001805461018390610a69565b80601f01602080910402602001604051908101604052809291908181526020018280546101af90610a69565b80156101fa5780601f106101d1576101008083540402835291602001916101fa565b820191905f5260205f20905b8154815290600101906020018083116101dd57829003601f168201915b505050505081565b8073ffffffffffffffffffffffffffffffffffffffff163460405161022690610ac6565b5f6040518083038185875af1925050503d805f8114610260576040519150601f19603f3d011682016040523d82523d5f602084013e610265565b606091505b50505050565b5f5f9054906101000a900460ff1681565b5f5f8473ffffffffffffffffffffffffffffffffffffffff1663a9059cbb60e01b85856040516024016102b0929190610af8565b604051602081830303815290604052907bffffffffffffffffffffffffffffffffffffffffffffffffffffffff19166020820180517bffffffffffffffffffffffffffffffffffffffffffffffffffffffff838183161783525050505060405161031a9190610b4f565b5f604051808303815f865af19150503d805f8114610353576040519150601f19603f3d011682016040523d82523d5f602084013e610358565b606091505b509150915081801561038557505f815114806103845750808060200190518101906103839190610b8f565b5b5b6103c4576040517f08c379a00000000000000000000000000000000000000000000000000000000081526004016103bb90610c14565b60405180910390fd5b5050505050565b5f5f8273ffffffffffffffffffffffffffffffffffffffff166040516024016040516020818303038152906040527fca463e19000000000000000000000000000000000000000000000000000000007bffffffffffffffffffffffffffffffffffffffffffffffffffffffff19166020820180517bffffffffffffffffffffffffffffffffffffffffffffffffffffffff83818316178352505050506040516104749190610b4f565b5f604051808303815f865af19150503d805f81146104ad576040519150601f19603f3d011682016040523d82523d5f602084013e6104b2565b606091505b5091509150815f5f6101000a81548160ff02191690831515021790555080600190816104de9190610e10565b5081610529575f6104ee8261078f565b90507fb5e1dc2ddc0e1a0221e00b3c0446f36b707001d3ac7cfb494259863fdef7ccd78160405161051f9190610f21565b60405180910390a1505b505050565b8073ffffffffffffffffffffffffffffffffffffffff1663671bd39d6040518163ffffffff1660e01b81526004015f604051808303815f87803b158015610573575f5ffd5b505af1925050508015610584575060015b6106c757610590610f4d565b806308c379a00361062357506105a4610f9d565b806105af5750610625565b7fb5e1dc2ddc0e1a0221e00b3c0446f36b707001d3ac7cfb494259863fdef7ccd7816040516105de9190610f21565b60405180910390a1806040517f08c379a000000000000000000000000000000000000000000000000000000000815260040161061a9190610f21565b60405180910390fd5b505b3d805f811461064f576040519150601f19603f3d011682016040523d82523d5f602084013e610654565b606091505b507fc4820f5b1967bc51586f745a862ac05026debdfbd4ddb239f5ce3075f1cce7e681604051610684919061086a565b60405180910390a16040517f08c379a00000000000000000000000000000000000000000000000000000000081526004016106be90611076565b60405180910390fd5b60015f5f6101000a81548160ff02191690831515021790555050565b5f8173ffffffffffffffffffffffffffffffffffffffff163460405161070890610ac6565b5f6040518083038185875af1925050503d805f8114610742576040519150601f19603f3d011682016040523d82523d5f602084013e610747565b606091505b505090508061078b576040517f08c379a0000000000000000000000000000000000000000000000000000000008152600401610782906110de565b60405180910390fd5b5050565b60606044825110156107d8576040518060400160405280600e81526020017f556e6b6e6f776e2072657665727400000000000000000000000000000000000081525090506107f5565b600482019150818060200190518101906107f291906111bc565b90505b919050565b5f81519050919050565b5f82825260208201905092915050565b8281835e5f83830152505050565b5f601f19601f8301169050919050565b5f61083c826107fa565b6108468185610804565b9350610856818560208601610814565b61085f81610822565b840191505092915050565b5f6020820190508181035f8301526108828184610832565b905092915050565b5f604051905090565b5f5ffd5b5f5ffd5b5f73ffffffffffffffffffffffffffffffffffffffff82169050919050565b5f6108c48261089b565b9050919050565b6108d4816108ba565b81146108de575f5ffd5b50565b5f813590506108ef816108cb565b92915050565b5f6020828403121561090a57610909610893565b5b5f610917848285016108e1565b91505092915050565b5f8115159050919050565b61093481610920565b82525050565b5f60208201905061094d5f83018461092b565b92915050565b5f61095d8261089b565b9050919050565b61096d81610953565b8114610977575f5ffd5b50565b5f8135905061098881610964565b92915050565b5f819050919050565b6109a08161098e565b81146109aa575f5ffd5b50565b5f813590506109bb81610997565b92915050565b5f5f5f606084860312156109d8576109d7610893565b5b5f6109e58682870161097a565b93505060206109f68682870161097a565b9250506040610a07868287016109ad565b9150509250925092565b5f60208284031215610a2657610a25610893565b5b5f610a338482850161097a565b91505092915050565b7f4e487b71000000000000000000000000000000000000000000000000000000005f52602260045260245ffd5b5f6002820490506001821680610a8057607f821691505b602082108103610a9357610a92610a3c565b5b50919050565b5f81905092915050565b50565b5f610ab15f83610a99565b9150610abc82610aa3565b5f82019050919050565b5f610ad082610aa6565b9150819050919050565b610ae381610953565b82525050565b610af28161098e565b82525050565b5f604082019050610b0b5f830185610ada565b610b186020830184610ae9565b9392505050565b5f610b29826107fa565b610b338185610a99565b9350610b43818560208601610814565b80840191505092915050565b5f610b5a8284610b1f565b915081905092915050565b610b6e81610920565b8114610b78575f5ffd5b50565b5f81519050610b8981610b65565b92915050565b5f60208284031215610ba457610ba3610893565b5b5f610bb184828501610b7b565b91505092915050565b5f82825260208201905092915050565b7f4552433230207472616e73666572206661696c656400000000000000000000005f82015250565b5f610bfe601583610bba565b9150610c0982610bca565b602082019050919050565b5f6020820190508181035f830152610c2b81610bf2565b9050919050565b7f4e487b71000000000000000000000000000000000000000000000000000000005f52604160045260245ffd5b5f819050815f5260205f209050919050565b5f6020601f8301049050919050565b5f82821b905092915050565b5f60088302610cbb7fffffffffffffffffffffffffffffffffffffffffffffffffffffffffffffffff82610c80565b610cc58683610c80565b95508019841693508086168417925050509392505050565b5f819050919050565b5f610d00610cfb610cf68461098e565b610cdd565b61098e565b9050919050565b5f819050919050565b610d1983610ce6565b610d2d610d2582610d07565b848454610c8c565b825550505050565b5f5f905090565b610d44610d35565b610d4f818484610d10565b505050565b5f5b82811015610d7557610d6a5f828401610d3c565b600181019050610d56565b505050565b601f821115610dc85782821115610dc757610d9481610c5f565b610d9d83610c71565b610da685610c71565b6020861015610db3575f90505b808301610dc282840382610d54565b505050505b5b505050565b5f82821c905092915050565b5f610de85f1984600802610dcd565b1980831691505092915050565b5f610e008383610dd9565b9150826002028217905092915050565b610e19826107fa565b67ffffffffffffffff811115610e3257610e31610c32565b5b610e3c8254610a69565b610e47828285610d7a565b5f60209050601f831160018114610e78575f8415610e66578287015190505b610e708582610df5565b865550610ed7565b601f198416610e8686610c5f565b5f5b82811015610ead57848901518255600182019150602085019450602081019050610e88565b86831015610eca5784890151610ec6601f891682610dd9565b8355505b6001600288020188555050505b505050505050565b5f81519050919050565b5f610ef382610edf565b610efd8185610bba565b9350610f0d818560208601610814565b610f1681610822565b840191505092915050565b5f6020820190508181035f830152610f398184610ee9565b905092915050565b5f8160e01c9050919050565b5f60033d1115610f695760045f5f3e610f665f51610f41565b90505b90565b610f7582610822565b810181811067ffffffffffffffff82111715610f9457610f93610c32565b5b80604052505050565b5f60443d1061102957610fae61088a565b60043d036004823e80513d602482011167ffffffffffffffff82111715610fd6575050611029565b808201805167ffffffffffffffff811115610ff45750505050611029565b80602083010160043d038501811115611011575050505050611029565b61102082602001850186610f6c565b82955050505050505b90565b7f4c6f772d6c6576656c206661696c7572650000000000000000000000000000005f82015250565b5f611060601183610bba565b915061106b8261102c565b602082019050919050565b5f6020820190508181035f83015261108d81611054565b9050919050565b7f455448207472616e73666572206661696c6564000000000000000000000000005f82015250565b5f6110c8601383610bba565b91506110d382611094565b602082019050919050565b5f6020820190508181035f8301526110f5816110bc565b9050919050565b5f5ffd5b5f5ffd5b5f61110d61088a565b90506111198282610f6c565b919050565b5f67ffffffffffffffff82111561113857611137610c32565b5b61114182610822565b9050602081019050919050565b5f61116061115b8461111e565b611104565b90508281526020810184848401111561117c5761117b611100565b5b611187848285610814565b509392505050565b5f82601f8301126111a3576111a26110fc565b5b81516111b384826020860161114e565b91505092915050565b5f602082840312156111d1576111d0610893565b5b5f82015167ffffffffffffffff8111156111ee576111ed610897565b5b6111fa8482850161118f565b9150509291505056fea2646970667358221220ef8be42af58741c7db58f0a899b32ec8fbe1f27b711bfe9e7c32b89cc7d8213964736f6c63430008220033",
			"opcodes": "PUSH1 0x80 PUSH1 0x40 MSTORE CALLVALUE DUP1 ISZERO PUSH1 0xE JUMPI PUSH0 PUSH0 REVERT JUMPDEST POP PUSH2 0x1239 DUP1 PUSH2 0x1C PUSH0 CODECOPY PUSH0 RETURN INVALID PUSH1 0x80 PUSH1 0x40 MSTORE PUSH1 0x4 CALLDATASIZE LT PUSH2 0x6E JUMPI PUSH0 CALLDATALOAD PUSH1 0xE0 SHR DUP1 PUSH4 0xBCB707CF GT PUSH2 0x4D JUMPI DUP1 PUSH4 0xBCB707CF EQ PUSH2 0xE2 JUMPI DUP1 PUSH4 0xC246E94D EQ PUSH2 0x10A JUMPI DUP1 PUSH4 0xF024CFCF EQ PUSH2 0x132 JUMPI DUP1 PUSH4 0xF651D3FC EQ PUSH2 0x15A JUMPI PUSH2 0x6E JUMP JUMPDEST DUP1 PUSH3 0x6E75EC EQ PUSH2 0x72 JUMPI DUP1 PUSH4 0x3D2839EF EQ PUSH2 0x9C JUMPI DUP1 PUSH4 0x9415BC59 EQ PUSH2 0xB8 JUMPI JUMPDEST PUSH0 PUSH0 REVERT JUMPDEST CALLVALUE DUP1 ISZERO PUSH2 0x7D JUMPI PUSH0 PUSH0 REVERT JUMPDEST POP PUSH2 0x86 PUSH2 0x176 JUMP JUMPDEST PUSH1 0x40 MLOAD PUSH2 0x93 SWAP2 SWAP1 PUSH2 0x86A JUMP JUMPDEST PUSH1 0x40 MLOAD DUP1 SWAP2 SUB SWAP1 RETURN JUMPDEST PUSH2 0xB6 PUSH1 0x4 DUP1 CALLDATASIZE SUB DUP2 ADD SWAP1 PUSH2 0xB1 SWAP2 SWAP1 PUSH2 0x8F5 JUMP JUMPDEST PUSH2 0x202 JUMP JUMPDEST STOP JUMPDEST CALLVALUE DUP1 ISZERO PUSH2 0xC3 JUMPI PUSH0 PUSH0 REVERT JUMPDEST POP PUSH2 0xCC PUSH2 0x26B JUMP JUMPDEST PUSH1 0x40 MLOAD PUSH2 0xD9 SWAP2 SWAP1 PUSH2 0x93A JUMP JUMPDEST PUSH1 0x40 MLOAD DUP1 SWAP2 SUB SWAP1 RETURN JUMPDEST CALLVALUE DUP1 ISZERO PUSH2 0xED JUMPI PUSH0 PUSH0 REVERT JUMPDEST POP PUSH2 0x108 PUSH1 0x4 DUP1 CALLDATASIZE SUB DUP2 ADD SWAP1 PUSH2 0x103 SWAP2 SWAP1 PUSH2 0x9C1 JUMP JUMPDEST PUSH2 0x27C JUMP JUMPDEST STOP JUMPDEST CALLVALUE DUP1 ISZERO PUSH2 0x115 JUMPI PUSH0 PUSH0 REVERT JUMPDEST POP PUSH2 0x130 PUSH1 0x4 DUP1 CALLDATASIZE SUB DUP2 ADD SWAP1 PUSH2 0x12B SWAP2 SWAP1 PUSH2 0xA11 JUMP JUMPDEST PUSH2 0x3CB JUMP JUMPDEST STOP JUMPDEST CALLVALUE DUP1 ISZERO PUSH2 0x13D JUMPI PUSH0 PUSH0 REVERT JUMPDEST POP PUSH2 0x158 PUSH1 0x4 DUP1 CALLDATASIZE SUB DUP2 ADD SWAP1 PUSH2 0x153 SWAP2 SWAP1 PUSH2 0xA11 JUMP JUMPDEST PUSH2 0x52E JUMP JUMPDEST STOP JUMPDEST PUSH2 0x174 PUSH1 0x4 DUP1 CALLDATASIZE SUB DUP2 ADD SWAP1 PUSH2 0x16F SWAP2 SWAP1 PUSH2 0x8F5 JUMP JUMPDEST PUSH2 0x6E3 JUMP JUMPDEST STOP JUMPDEST PUSH1 0x1 DUP1 SLOAD PUSH2 0x183 SWAP1 PUSH2 0xA69 JUMP JUMPDEST DUP1 PUSH1 0x1F ADD PUSH1 0x20 DUP1 SWAP2 DIV MUL PUSH1 0x20 ADD PUSH1 0x40 MLOAD SWAP1 DUP2 ADD PUSH1 0x40 MSTORE DUP1 SWAP3 SWAP2 SWAP1 DUP2 DUP2 MSTORE PUSH1 0x20 ADD DUP3 DUP1 SLOAD PUSH2 0x1AF SWAP1 PUSH2 0xA69 JUMP JUMPDEST DUP1 ISZERO PUSH2 0x1FA JUMPI DUP1 PUSH1 0x1F LT PUSH2 0x1D1 JUMPI PUSH2 0x100 DUP1 DUP4 SLOAD DIV MUL DUP4 MSTORE SWAP2 PUSH1 0x20 ADD SWAP2 PUSH2 0x1FA JUMP JUMPDEST DUP3 ADD SWAP2 SWAP1 PUSH0 MSTORE PUSH1 0x20 PUSH0 KECCAK256 SWAP1 JUMPDEST DUP2 SLOAD DUP2 MSTORE SWAP1 PUSH1 0x1 ADD SWAP1 PUSH1 0x20 ADD DUP1 DUP4 GT PUSH2 0x1DD JUMPI DUP3 SWAP1 SUB PUSH1 0x1F AND DUP3 ADD SWAP2 JUMPDEST POP POP POP POP POP DUP2 JUMP JUMPDEST DUP1 PUSH20 0xFFFFFFFFFFFFFFFFFFFFFFFFFFFFFFFFFFFFFFFF AND CALLVALUE PUSH1 0x40 MLOAD PUSH2 0x226 SWAP1 PUSH2 0xAC6 JUMP JUMPDEST PUSH0 PUSH1 0x40 MLOAD DUP1 DUP4 SUB DUP2 DUP6 DUP8 GAS CALL SWAP3 POP POP POP RETURNDATASIZE DUP1 PUSH0 DUP2 EQ PUSH2 0x260 JUMPI PUSH1 0x40 MLOAD SWAP2 POP PUSH1 0x1F NOT PUSH1 0x3F RETURNDATASIZE ADD AND DUP3 ADD PUSH1 0x40 MSTORE RETURNDATASIZE DUP3 MSTORE RETURNDATASIZE PUSH0 PUSH1 0x20 DUP5 ADD RETURNDATACOPY PUSH2 0x265 JUMP JUMPDEST PUSH1 0x60 SWAP2 POP JUMPDEST POP POP POP POP JUMP JUMPDEST PUSH0 PUSH0 SWAP1 SLOAD SWAP1 PUSH2 0x100 EXP SWAP1 DIV PUSH1 0xFF AND DUP2 JUMP JUMPDEST PUSH0 PUSH0 DUP5 PUSH20 0xFFFFFFFFFFFFFFFFFFFFFFFFFFFFFFFFFFFFFFFF AND PUSH4 0xA9059CBB PUSH1 0xE0 SHL DUP6 DUP6 PUSH1 0x40 MLOAD PUSH1 0x24 ADD PUSH2 0x2B0 SWAP3 SWAP2 SWAP1 PUSH2 0xAF8 JUMP JUMPDEST PUSH1 0x40 MLOAD PUSH1 0x20 DUP2 DUP4 SUB SUB DUP2 MSTORE SWAP1 PUSH1 0x40 MSTORE SWAP1 PUSH28 0xFFFFFFFFFFFFFFFFFFFFFFFFFFFFFFFFFFFFFFFFFFFFFFFFFFFFFFFF NOT AND PUSH1 0x20 DUP3 ADD DUP1 MLOAD PUSH28 0xFFFFFFFFFFFFFFFFFFFFFFFFFFFFFFFFFFFFFFFFFFFFFFFFFFFFFFFF DUP4 DUP2 DUP4 AND OR DUP4 MSTORE POP POP POP POP PUSH1 0x40 MLOAD PUSH2 0x31A SWAP2 SWAP1 PUSH2 0xB4F JUMP JUMPDEST PUSH0 PUSH1 0x40 MLOAD DUP1 DUP4 SUB DUP2 PUSH0 DUP7 GAS CALL SWAP2 POP POP RETURNDATASIZE DUP1 PUSH0 DUP2 EQ PUSH2 0x353 JUMPI PUSH1 0x40 MLOAD SWAP2 POP PUSH1 0x1F NOT PUSH1 0x3F RETURNDATASIZE ADD AND DUP3 ADD PUSH1 0x40 MSTORE RETURNDATASIZE DUP3 MSTORE RETURNDATASIZE PUSH0 PUSH1 0x20 DUP5 ADD RETURNDATACOPY PUSH2 0x358 JUMP JUMPDEST PUSH1 0x60 SWAP2 POP JUMPDEST POP SWAP2 POP SWAP2 POP DUP2 DUP1 ISZERO PUSH2 0x385 JUMPI POP PUSH0 DUP2 MLOAD EQ DUP1 PUSH2 0x384 JUMPI POP DUP1 DUP1 PUSH1 0x20 ADD SWAP1 MLOAD DUP2 ADD SWAP1 PUSH2 0x383 SWAP2 SWAP1 PUSH2 0xB8F JUMP JUMPDEST JUMPDEST JUMPDEST PUSH2 0x3C4 JUMPI PUSH1 0x40 MLOAD PUSH32 0x8C379A000000000000000000000000000000000000000000000000000000000 DUP2 MSTORE PUSH1 0x4 ADD PUSH2 0x3BB SWAP1 PUSH2 0xC14 JUMP JUMPDEST PUSH1 0x40 MLOAD DUP1 SWAP2 SUB SWAP1 REVERT JUMPDEST POP POP POP POP POP JUMP JUMPDEST PUSH0 PUSH0 DUP3 PUSH20 0xFFFFFFFFFFFFFFFFFFFFFFFFFFFFFFFFFFFFFFFF AND PUSH1 0x40 MLOAD PUSH1 0x24 ADD PUSH1 0x40 MLOAD PUSH1 0x20 DUP2 DUP4 SUB SUB DUP2 MSTORE SWAP1 PUSH1 0x40 MSTORE PUSH32 0xCA463E1900000000000000000000000000000000000000000000000000000000 PUSH28 0xFFFFFFFFFFFFFFFFFFFFFFFFFFFFFFFFFFFFFFFFFFFFFFFFFFFFFFFF NOT AND PUSH1 0x20 DUP3 ADD DUP1 MLOAD PUSH28 0xFFFFFFFFFFFFFFFFFFFFFFFFFFFFFFFFFFFFFFFFFFFFFFFFFFFFFFFF DUP4 DUP2 DUP4 AND OR DUP4 MSTORE POP POP POP POP PUSH1 0x40 MLOAD PUSH2 0x474 SWAP2 SWAP1 PUSH2 0xB4F JUMP JUMPDEST PUSH0 PUSH1 0x40 MLOAD DUP1 DUP4 SUB DUP2 PUSH0 DUP7 GAS CALL SWAP2 POP POP RETURNDATASIZE DUP1 PUSH0 DUP2 EQ PUSH2 0x4AD JUMPI PUSH1 0x40 MLOAD SWAP2 POP PUSH1 0x1F NOT PUSH1 0x3F RETURNDATASIZE ADD AND DUP3 ADD PUSH1 0x40 MSTORE RETURNDATASIZE DUP3 MSTORE RETURNDATASIZE PUSH0 PUSH1 0x20 DUP5 ADD RETURNDATACOPY PUSH2 0x4B2 JUMP JUMPDEST PUSH1 0x60 SWAP2 POP JUMPDEST POP SWAP2 POP SWAP2 POP DUP2 PUSH0 PUSH0 PUSH2 0x100 EXP DUP2 SLOAD DUP2 PUSH1 0xFF MUL NOT AND SWAP1 DUP4 ISZERO ISZERO MUL OR SWAP1 SSTORE POP DUP1 PUSH1 0x1 SWAP1 DUP2 PUSH2 0x4DE SWAP2 SWAP1 PUSH2 0xE10 JUMP JUMPDEST POP DUP2 PUSH2 0x529 JUMPI PUSH0 PUSH2 0x4EE DUP3 PUSH2 0x78F JUMP JUMPDEST SWAP1 POP PUSH32 0xB5E1DC2DDC0E1A0221E00B3C0446F36B707001D3AC7CFB494259863FDEF7CCD7 DUP2 PUSH1 0x40 MLOAD PUSH2 0x51F SWAP2 SWAP1 PUSH2 0xF21 JUMP JUMPDEST PUSH1 0x40 MLOAD DUP1 SWAP2 SUB SWAP1 LOG1 POP JUMPDEST POP POP POP JUMP JUMPDEST DUP1 PUSH20 0xFFFFFFFFFFFFFFFFFFFFFFFFFFFFFFFFFFFFFFFF AND PUSH4 0x671BD39D PUSH1 0x40 MLOAD DUP2 PUSH4 0xFFFFFFFF AND PUSH1 0xE0 SHL DUP2 MSTORE PUSH1 0x4 ADD PUSH0 PUSH1 0x40 MLOAD DUP1 DUP4 SUB DUP2 PUSH0 DUP8 DUP1 EXTCODESIZE ISZERO DUP1 ISZERO PUSH2 0x573 JUMPI PUSH0 PUSH0 REVERT JUMPDEST POP GAS CALL SWAP3 POP POP POP DUP1 ISZERO PUSH2 0x584 JUMPI POP PUSH1 0x1 JUMPDEST PUSH2 0x6C7 JUMPI PUSH2 0x590 PUSH2 0xF4D JUMP JUMPDEST DUP1 PUSH4 0x8C379A0 SUB PUSH2 0x623 JUMPI POP PUSH2 0x5A4 PUSH2 0xF9D JUMP JUMPDEST DUP1 PUSH2 0x5AF JUMPI POP PUSH2 0x625 JUMP JUMPDEST PUSH32 0xB5E1DC2DDC0E1A0221E00B3C0446F36B707001D3AC7CFB494259863FDEF7CCD7 DUP2 PUSH1 0x40 MLOAD PUSH2 0x5DE SWAP2 SWAP1 PUSH2 0xF21 JUMP JUMPDEST PUSH1 0x40 MLOAD DUP1 SWAP2 SUB SWAP1 LOG1 DUP1 PUSH1 0x40 MLOAD PUSH32 0x8C379A000000000000000000000000000000000000000000000000000000000 DUP2 MSTORE PUSH1 0x4 ADD PUSH2 0x61A SWAP2 SWAP1 PUSH2 0xF21 JUMP JUMPDEST PUSH1 0x40 MLOAD DUP1 SWAP2 SUB SWAP1 REVERT JUMPDEST POP JUMPDEST RETURNDATASIZE DUP1 PUSH0 DUP2 EQ PUSH2 0x64F JUMPI PUSH1 0x40 MLOAD SWAP2 POP PUSH1 0x1F NOT PUSH1 0x3F RETURNDATASIZE ADD AND DUP3 ADD PUSH1 0x40 MSTORE RETURNDATASIZE DUP3 MSTORE RETURNDATASIZE PUSH0 PUSH1 0x20 DUP5 ADD RETURNDATACOPY PUSH2 0x654 JUMP JUMPDEST PUSH1 0x60 SWAP2 POP JUMPDEST POP PUSH32 0xC4820F5B1967BC51586F745A862AC05026DEBDFBD4DDB239F5CE3075F1CCE7E6 DUP2 PUSH1 0x40 MLOAD PUSH2 0x684 SWAP2 SWAP1 PUSH2 0x86A JUMP JUMPDEST PUSH1 0x40 MLOAD DUP1 SWAP2 SUB SWAP1 LOG1 PUSH1 0x40 MLOAD PUSH32 0x8C379A000000000000000000000000000000000000000000000000000000000 DUP2 MSTORE PUSH1 0x4 ADD PUSH2 0x6BE SWAP1 PUSH2 0x1076 JUMP JUMPDEST PUSH1 0x40 MLOAD DUP1 SWAP2 SUB SWAP1 REVERT JUMPDEST PUSH1 0x1 PUSH0 PUSH0 PUSH2 0x100 EXP DUP2 SLOAD DUP2 PUSH1 0xFF MUL NOT AND SWAP1 DUP4 ISZERO ISZERO MUL OR SWAP1 SSTORE POP POP JUMP JUMPDEST PUSH0 DUP2 PUSH20 0xFFFFFFFFFFFFFFFFFFFFFFFFFFFFFFFFFFFFFFFF AND CALLVALUE PUSH1 0x40 MLOAD PUSH2 0x708 SWAP1 PUSH2 0xAC6 JUMP JUMPDEST PUSH0 PUSH1 0x40 MLOAD DUP1 DUP4 SUB DUP2 DUP6 DUP8 GAS CALL SWAP3 POP POP POP RETURNDATASIZE DUP1 PUSH0 DUP2 EQ PUSH2 0x742 JUMPI PUSH1 0x40 MLOAD SWAP2 POP PUSH1 0x1F NOT PUSH1 0x3F RETURNDATASIZE ADD AND DUP3 ADD PUSH1 0x40 MSTORE RETURNDATASIZE DUP3 MSTORE RETURNDATASIZE PUSH0 PUSH1 0x20 DUP5 ADD RETURNDATACOPY PUSH2 0x747 JUMP JUMPDEST PUSH1 0x60 SWAP2 POP JUMPDEST POP POP SWAP1 POP DUP1 PUSH2 0x78B JUMPI PUSH1 0x40 MLOAD PUSH32 0x8C379A000000000000000000000000000000000000000000000000000000000 DUP2 MSTORE PUSH1 0x4 ADD PUSH2 0x782 SWAP1 PUSH2 0x10DE JUMP JUMPDEST PUSH1 0x40 MLOAD DUP1 SWAP2 SUB SWAP1 REVERT JUMPDEST POP POP JUMP JUMPDEST PUSH1 0x60 PUSH1 0x44 DUP3 MLOAD LT ISZERO PUSH2 0x7D8 JUMPI PUSH1 0x40 MLOAD DUP1 PUSH1 0x40 ADD PUSH1 0x40 MSTORE DUP1 PUSH1 0xE DUP2 MSTORE PUSH1 0x20 ADD PUSH32 0x556E6B6E6F776E20726576657274000000000000000000000000000000000000 DUP2 MSTORE POP SWAP1 POP PUSH2 0x7F5 JUMP JUMPDEST PUSH1 0x4 DUP3 ADD SWAP2 POP DUP2 DUP1 PUSH1 0x20 ADD SWAP1 MLOAD DUP2 ADD SWAP1 PUSH2 0x7F2 SWAP2 SWAP1 PUSH2 0x11BC JUMP JUMPDEST SWAP1 POP JUMPDEST SWAP2 SWAP1 POP JUMP JUMPDEST PUSH0 DUP2 MLOAD SWAP1 POP SWAP2 SWAP1 POP JUMP JUMPDEST PUSH0 DUP3 DUP3 MSTORE PUSH1 0x20 DUP3 ADD SWAP1 POP SWAP3 SWAP2 POP POP JUMP JUMPDEST DUP3 DUP2 DUP4 MCOPY PUSH0 DUP4 DUP4 ADD MSTORE POP POP POP JUMP JUMPDEST PUSH0 PUSH1 0x1F NOT PUSH1 0x1F DUP4 ADD AND SWAP1 POP SWAP2 SWAP1 POP JUMP JUMPDEST PUSH0 PUSH2 0x83C DUP3 PUSH2 0x7FA JUMP JUMPDEST PUSH2 0x846 DUP2 DUP6 PUSH2 0x804 JUMP JUMPDEST SWAP4 POP PUSH2 0x856 DUP2 DUP6 PUSH1 0x20 DUP7 ADD PUSH2 0x814 JUMP JUMPDEST PUSH2 0x85F DUP2 PUSH2 0x822 JUMP JUMPDEST DUP5 ADD SWAP2 POP POP SWAP3 SWAP2 POP POP JUMP JUMPDEST PUSH0 PUSH1 0x20 DUP3 ADD SWAP1 POP DUP2 DUP2 SUB PUSH0 DUP4 ADD MSTORE PUSH2 0x882 DUP2 DUP5 PUSH2 0x832 JUMP JUMPDEST SWAP1 POP SWAP3 SWAP2 POP POP JUMP JUMPDEST PUSH0 PUSH1 0x40 MLOAD SWAP1 POP SWAP1 JUMP JUMPDEST PUSH0 PUSH0 REVERT JUMPDEST PUSH0 PUSH0 REVERT JUMPDEST PUSH0 PUSH20 0xFFFFFFFFFFFFFFFFFFFFFFFFFFFFFFFFFFFFFFFF DUP3 AND SWAP1 POP SWAP2 SWAP1 POP JUMP JUMPDEST PUSH0 PUSH2 0x8C4 DUP3 PUSH2 0x89B JUMP JUMPDEST SWAP1 POP SWAP2 SWAP1 POP JUMP JUMPDEST PUSH2 0x8D4 DUP2 PUSH2 0x8BA JUMP JUMPDEST DUP2 EQ PUSH2 0x8DE JUMPI PUSH0 PUSH0 REVERT JUMPDEST POP JUMP JUMPDEST PUSH0 DUP2 CALLDATALOAD SWAP1 POP PUSH2 0x8EF DUP2 PUSH2 0x8CB JUMP JUMPDEST SWAP3 SWAP2 POP POP JUMP JUMPDEST PUSH0 PUSH1 0x20 DUP3 DUP5 SUB SLT ISZERO PUSH2 0x90A JUMPI PUSH2 0x909 PUSH2 0x893 JUMP JUMPDEST JUMPDEST PUSH0 PUSH2 0x917 DUP5 DUP3 DUP6 ADD PUSH2 0x8E1 JUMP JUMPDEST SWAP2 POP POP SWAP3 SWAP2 POP POP JUMP JUMPDEST PUSH0 DUP2 ISZERO ISZERO SWAP1 POP SWAP2 SWAP1 POP JUMP JUMPDEST PUSH2 0x934 DUP2 PUSH2 0x920 JUMP JUMPDEST DUP3 MSTORE POP POP JUMP JUMPDEST PUSH0 PUSH1 0x20 DUP3 ADD SWAP1 POP PUSH2 0x94D PUSH0 DUP4 ADD DUP5 PUSH2 0x92B JUMP JUMPDEST SWAP3 SWAP2 POP POP JUMP JUMPDEST PUSH0 PUSH2 0x95D DUP3 PUSH2 0x89B JUMP JUMPDEST SWAP1 POP SWAP2 SWAP1 POP JUMP JUMPDEST PUSH2 0x96D DUP2 PUSH2 0x953 JUMP JUMPDEST DUP2 EQ PUSH2 0x977 JUMPI PUSH0 PUSH0 REVERT JUMPDEST POP JUMP JUMPDEST PUSH0 DUP2 CALLDATALOAD SWAP1 POP PUSH2 0x988 DUP2 PUSH2 0x964 JUMP JUMPDEST SWAP3 SWAP2 POP POP JUMP JUMPDEST PUSH0 DUP2 SWAP1 POP SWAP2 SWAP1 POP JUMP JUMPDEST PUSH2 0x9A0 DUP2 PUSH2 0x98E JUMP JUMPDEST DUP2 EQ PUSH2 0x9AA JUMPI PUSH0 PUSH0 REVERT JUMPDEST POP JUMP JUMPDEST PUSH0 DUP2 CALLDATALOAD SWAP1 POP PUSH2 0x9BB DUP2 PUSH2 0x997 JUMP JUMPDEST SWAP3 SWAP2 POP POP JUMP JUMPDEST PUSH0 PUSH0 PUSH0 PUSH1 0x60 DUP5 DUP7 SUB SLT ISZERO PUSH2 0x9D8 JUMPI PUSH2 0x9D7 PUSH2 0x893 JUMP JUMPDEST JUMPDEST PUSH0 PUSH2 0x9E5 DUP7 DUP3 DUP8 ADD PUSH2 0x97A JUMP JUMPDEST SWAP4 POP POP PUSH1 0x20 PUSH2 0x9F6 DUP7 DUP3 DUP8 ADD PUSH2 0x97A JUMP JUMPDEST SWAP3 POP POP PUSH1 0x40 PUSH2 0xA07 DUP7 DUP3 DUP8 ADD PUSH2 0x9AD JUMP JUMPDEST SWAP2 POP POP SWAP3 POP SWAP3 POP SWAP3 JUMP JUMPDEST PUSH0 PUSH1 0x20 DUP3 DUP5 SUB SLT ISZERO PUSH2 0xA26 JUMPI PUSH2 0xA25 PUSH2 0x893 JUMP JUMPDEST JUMPDEST PUSH0 PUSH2 0xA33 DUP5 DUP3 DUP6 ADD PUSH2 0x97A JUMP JUMPDEST SWAP2 POP POP SWAP3 SWAP2 POP POP JUMP JUMPDEST PUSH32 0x4E487B7100000000000000000000000000000000000000000000000000000000 PUSH0 MSTORE PUSH1 0x22 PUSH1 0x4 MSTORE PUSH1 0x24 PUSH0 REVERT JUMPDEST PUSH0 PUSH1 0x2 DUP3 DIV SWAP1 POP PUSH1 0x1 DUP3 AND DUP1 PUSH2 0xA80 JUMPI PUSH1 0x7F DUP3 AND SWAP2 POP JUMPDEST PUSH1 0x20 DUP3 LT DUP2 SUB PUSH2 0xA93 JUMPI PUSH2 0xA92 PUSH2 0xA3C JUMP JUMPDEST JUMPDEST POP SWAP2 SWAP1 POP JUMP JUMPDEST PUSH0 DUP2 SWAP1 POP SWAP3 SWAP2 POP POP JUMP JUMPDEST POP JUMP JUMPDEST PUSH0 PUSH2 0xAB1 PUSH0 DUP4 PUSH2 0xA99 JUMP JUMPDEST SWAP2 POP PUSH2 0xABC DUP3 PUSH2 0xAA3 JUMP JUMPDEST PUSH0 DUP3 ADD SWAP1 POP SWAP2 SWAP1 POP JUMP JUMPDEST PUSH0 PUSH2 0xAD0 DUP3 PUSH2 0xAA6 JUMP JUMPDEST SWAP2 POP DUP2 SWAP1 POP SWAP2 SWAP1 POP JUMP JUMPDEST PUSH2 0xAE3 DUP2 PUSH2 0x953 JUMP JUMPDEST DUP3 MSTORE POP POP JUMP JUMPDEST PUSH2 0xAF2 DUP2 PUSH2 0x98E JUMP JUMPDEST DUP3 MSTORE POP POP JUMP JUMPDEST PUSH0 PUSH1 0x40 DUP3 ADD SWAP1 POP PUSH2 0xB0B PUSH0 DUP4 ADD DUP6 PUSH2 0xADA JUMP JUMPDEST PUSH2 0xB18 PUSH1 0x20 DUP4 ADD DUP5 PUSH2 0xAE9 JUMP JUMPDEST SWAP4 SWAP3 POP POP POP JUMP JUMPDEST PUSH0 PUSH2 0xB29 DUP3 PUSH2 0x7FA JUMP JUMPDEST PUSH2 0xB33 DUP2 DUP6 PUSH2 0xA99 JUMP JUMPDEST SWAP4 POP PUSH2 0xB43 DUP2 DUP6 PUSH1 0x20 DUP7 ADD PUSH2 0x814 JUMP JUMPDEST DUP1 DUP5 ADD SWAP2 POP POP SWAP3 SWAP2 POP POP JUMP JUMPDEST PUSH0 PUSH2 0xB5A DUP3 DUP5 PUSH2 0xB1F JUMP JUMPDEST SWAP2 POP DUP2 SWAP1 POP SWAP3 SWAP2 POP POP JUMP JUMPDEST PUSH2 0xB6E DUP2 PUSH2 0x920 JUMP JUMPDEST DUP2 EQ PUSH2 0xB78 JUMPI PUSH0 PUSH0 REVERT JUMPDEST POP JUMP JUMPDEST PUSH0 DUP2 MLOAD SWAP1 POP PUSH2 0xB89 DUP2 PUSH2 0xB65 JUMP JUMPDEST SWAP3 SWAP2 POP POP JUMP JUMPDEST PUSH0 PUSH1 0x20 DUP3 DUP5 SUB SLT ISZERO PUSH2 0xBA4 JUMPI PUSH2 0xBA3 PUSH2 0x893 JUMP JUMPDEST JUMPDEST PUSH0 PUSH2 0xBB1 DUP5 DUP3 DUP6 ADD PUSH2 0xB7B JUMP JUMPDEST SWAP2 POP POP SWAP3 SWAP2 POP POP JUMP JUMPDEST PUSH0 DUP3 DUP3 MSTORE PUSH1 0x20 DUP3 ADD SWAP1 POP SWAP3 SWAP2 POP POP JUMP JUMPDEST PUSH32 0x4552433230207472616E73666572206661696C65640000000000000000000000 PUSH0 DUP3 ADD MSTORE POP JUMP JUMPDEST PUSH0 PUSH2 0xBFE PUSH1 0x15 DUP4 PUSH2 0xBBA JUMP JUMPDEST SWAP2 POP PUSH2 0xC09 DUP3 PUSH2 0xBCA JUMP JUMPDEST PUSH1 0x20 DUP3 ADD SWAP1 POP SWAP2 SWAP1 POP JUMP JUMPDEST PUSH0 PUSH1 0x20 DUP3 ADD SWAP1 POP DUP2 DUP2 SUB PUSH0 DUP4 ADD MSTORE PUSH2 0xC2B DUP2 PUSH2 0xBF2 JUMP JUMPDEST SWAP1 POP SWAP2 SWAP1 POP JUMP JUMPDEST PUSH32 0x4E487B7100000000000000000000000000000000000000000000000000000000 PUSH0 MSTORE PUSH1 0x41 PUSH1 0x4 MSTORE PUSH1 0x24 PUSH0 REVERT JUMPDEST PUSH0 DUP2 SWAP1 POP DUP2 PUSH0 MSTORE PUSH1 0x20 PUSH0 KECCAK256 SWAP1 POP SWAP2 SWAP1 POP JUMP JUMPDEST PUSH0 PUSH1 0x20 PUSH1 0x1F DUP4 ADD DIV SWAP1 POP SWAP2 SWAP1 POP JUMP JUMPDEST PUSH0 DUP3 DUP3 SHL SWAP1 POP SWAP3 SWAP2 POP POP JUMP JUMPDEST PUSH0 PUSH1 0x8 DUP4 MUL PUSH2 0xCBB PUSH32 0xFFFFFFFFFFFFFFFFFFFFFFFFFFFFFFFFFFFFFFFFFFFFFFFFFFFFFFFFFFFFFFFF DUP3 PUSH2 0xC80 JUMP JUMPDEST PUSH2 0xCC5 DUP7 DUP4 PUSH2 0xC80 JUMP JUMPDEST SWAP6 POP DUP1 NOT DUP5 AND SWAP4 POP DUP1 DUP7 AND DUP5 OR SWAP3 POP POP POP SWAP4 SWAP3 POP POP POP JUMP JUMPDEST PUSH0 DUP2 SWAP1 POP SWAP2 SWAP1 POP JUMP JUMPDEST PUSH0 PUSH2 0xD00 PUSH2 0xCFB PUSH2 0xCF6 DUP5 PUSH2 0x98E JUMP JUMPDEST PUSH2 0xCDD JUMP JUMPDEST PUSH2 0x98E JUMP JUMPDEST SWAP1 POP SWAP2 SWAP1 POP JUMP JUMPDEST PUSH0 DUP2 SWAP1 POP SWAP2 SWAP1 POP JUMP JUMPDEST PUSH2 0xD19 DUP4 PUSH2 0xCE6 JUMP JUMPDEST PUSH2 0xD2D PUSH2 0xD25 DUP3 PUSH2 0xD07 JUMP JUMPDEST DUP5 DUP5 SLOAD PUSH2 0xC8C JUMP JUMPDEST DUP3 SSTORE POP POP POP POP JUMP JUMPDEST PUSH0 PUSH0 SWAP1 POP SWAP1 JUMP JUMPDEST PUSH2 0xD44 PUSH2 0xD35 JUMP JUMPDEST PUSH2 0xD4F DUP2 DUP5 DUP5 PUSH2 0xD10 JUMP JUMPDEST POP POP POP JUMP JUMPDEST PUSH0 JUMPDEST DUP3 DUP2 LT ISZERO PUSH2 0xD75 JUMPI PUSH2 0xD6A PUSH0 DUP3 DUP5 ADD PUSH2 0xD3C JUMP JUMPDEST PUSH1 0x1 DUP2 ADD SWAP1 POP PUSH2 0xD56 JUMP JUMPDEST POP POP POP JUMP JUMPDEST PUSH1 0x1F DUP3 GT ISZERO PUSH2 0xDC8 JUMPI DUP3 DUP3 GT ISZERO PUSH2 0xDC7 JUMPI PUSH2 0xD94 DUP2 PUSH2 0xC5F JUMP JUMPDEST PUSH2 0xD9D DUP4 PUSH2 0xC71 JUMP JUMPDEST PUSH2 0xDA6 DUP6 PUSH2 0xC71 JUMP JUMPDEST PUSH1 0x20 DUP7 LT ISZERO PUSH2 0xDB3 JUMPI PUSH0 SWAP1 POP JUMPDEST DUP1 DUP4 ADD PUSH2 0xDC2 DUP3 DUP5 SUB DUP3 PUSH2 0xD54 JUMP JUMPDEST POP POP POP POP JUMPDEST JUMPDEST POP POP POP JUMP JUMPDEST PUSH0 DUP3 DUP3 SHR SWAP1 POP SWAP3 SWAP2 POP POP JUMP JUMPDEST PUSH0 PUSH2 0xDE8 PUSH0 NOT DUP5 PUSH1 0x8 MUL PUSH2 0xDCD JUMP JUMPDEST NOT DUP1 DUP4 AND SWAP2 POP POP SWAP3 SWAP2 POP POP JUMP JUMPDEST PUSH0 PUSH2 0xE00 DUP4 DUP4 PUSH2 0xDD9 JUMP JUMPDEST SWAP2 POP DUP3 PUSH1 0x2 MUL DUP3 OR SWAP1 POP SWAP3 SWAP2 POP POP JUMP JUMPDEST PUSH2 0xE19 DUP3 PUSH2 0x7FA JUMP JUMPDEST PUSH8 0xFFFFFFFFFFFFFFFF DUP2 GT ISZERO PUSH2 0xE32 JUMPI PUSH2 0xE31 PUSH2 0xC32 JUMP JUMPDEST JUMPDEST PUSH2 0xE3C DUP3 SLOAD PUSH2 0xA69 JUMP JUMPDEST PUSH2 0xE47 DUP3 DUP3 DUP6 PUSH2 0xD7A JUMP JUMPDEST PUSH0 PUSH1 0x20 SWAP1 POP PUSH1 0x1F DUP4 GT PUSH1 0x1 DUP2 EQ PUSH2 0xE78 JUMPI PUSH0 DUP5 ISZERO PUSH2 0xE66 JUMPI DUP3 DUP8 ADD MLOAD SWAP1 POP JUMPDEST PUSH2 0xE70 DUP6 DUP3 PUSH2 0xDF5 JUMP JUMPDEST DUP7 SSTORE POP PUSH2 0xED7 JUMP JUMPDEST PUSH1 0x1F NOT DUP5 AND PUSH2 0xE86 DUP7 PUSH2 0xC5F JUMP JUMPDEST PUSH0 JUMPDEST DUP3 DUP2 LT ISZERO PUSH2 0xEAD JUMPI DUP5 DUP10 ADD MLOAD DUP3 SSTORE PUSH1 0x1 DUP3 ADD SWAP2 POP PUSH1 0x20 DUP6 ADD SWAP5 POP PUSH1 0x20 DUP2 ADD SWAP1 POP PUSH2 0xE88 JUMP JUMPDEST DUP7 DUP4 LT ISZERO PUSH2 0xECA JUMPI DUP5 DUP10 ADD MLOAD PUSH2 0xEC6 PUSH1 0x1F DUP10 AND DUP3 PUSH2 0xDD9 JUMP JUMPDEST DUP4 SSTORE POP JUMPDEST PUSH1 0x1 PUSH1 0x2 DUP9 MUL ADD DUP9 SSTORE POP POP POP JUMPDEST POP POP POP POP POP POP JUMP JUMPDEST PUSH0 DUP2 MLOAD SWAP1 POP SWAP2 SWAP1 POP JUMP JUMPDEST PUSH0 PUSH2 0xEF3 DUP3 PUSH2 0xEDF JUMP JUMPDEST PUSH2 0xEFD DUP2 DUP6 PUSH2 0xBBA JUMP JUMPDEST SWAP4 POP PUSH2 0xF0D DUP2 DUP6 PUSH1 0x20 DUP7 ADD PUSH2 0x814 JUMP JUMPDEST PUSH2 0xF16 DUP2 PUSH2 0x822 JUMP JUMPDEST DUP5 ADD SWAP2 POP POP SWAP3 SWAP2 POP POP JUMP JUMPDEST PUSH0 PUSH1 0x20 DUP3 ADD SWAP1 POP DUP2 DUP2 SUB PUSH0 DUP4 ADD MSTORE PUSH2 0xF39 DUP2 DUP5 PUSH2 0xEE9 JUMP JUMPDEST SWAP1 POP SWAP3 SWAP2 POP POP JUMP JUMPDEST PUSH0 DUP2 PUSH1 0xE0 SHR SWAP1 POP SWAP2 SWAP1 POP JUMP JUMPDEST PUSH0 PUSH1 0x3 RETURNDATASIZE GT ISZERO PUSH2 0xF69 JUMPI PUSH1 0x4 PUSH0 PUSH0 RETURNDATACOPY PUSH2 0xF66 PUSH0 MLOAD PUSH2 0xF41 JUMP JUMPDEST SWAP1 POP JUMPDEST SWAP1 JUMP JUMPDEST PUSH2 0xF75 DUP3 PUSH2 0x822 JUMP JUMPDEST DUP2 ADD DUP2 DUP2 LT PUSH8 0xFFFFFFFFFFFFFFFF DUP3 GT OR ISZERO PUSH2 0xF94 JUMPI PUSH2 0xF93 PUSH2 0xC32 JUMP JUMPDEST JUMPDEST DUP1 PUSH1 0x40 MSTORE POP POP POP JUMP JUMPDEST PUSH0 PUSH1 0x44 RETURNDATASIZE LT PUSH2 0x1029 JUMPI PUSH2 0xFAE PUSH2 0x88A JUMP JUMPDEST PUSH1 0x4 RETURNDATASIZE SUB PUSH1 0x4 DUP3 RETURNDATACOPY DUP1 MLOAD RETURNDATASIZE PUSH1 0x24 DUP3 ADD GT PUSH8 0xFFFFFFFFFFFFFFFF DUP3 GT OR ISZERO PUSH2 0xFD6 JUMPI POP POP PUSH2 0x1029 JUMP JUMPDEST DUP1 DUP3 ADD DUP1 MLOAD PUSH8 0xFFFFFFFFFFFFFFFF DUP2 GT ISZERO PUSH2 0xFF4 JUMPI POP POP POP POP PUSH2 0x1029 JUMP JUMPDEST DUP1 PUSH1 0x20 DUP4 ADD ADD PUSH1 0x4 RETURNDATASIZE SUB DUP6 ADD DUP2 GT ISZERO PUSH2 0x1011 JUMPI POP POP POP POP POP PUSH2 0x1029 JUMP JUMPDEST PUSH2 0x1020 DUP3 PUSH1 0x20 ADD DUP6 ADD DUP7 PUSH2 0xF6C JUMP JUMPDEST DUP3 SWAP6 POP POP POP POP POP POP JUMPDEST SWAP1 JUMP JUMPDEST PUSH32 0x4C6F772D6C6576656C206661696C757265000000000000000000000000000000 PUSH0 DUP3 ADD MSTORE POP JUMP JUMPDEST PUSH0 PUSH2 0x1060 PUSH1 0x11 DUP4 PUSH2 0xBBA JUMP JUMPDEST SWAP2 POP PUSH2 0x106B DUP3 PUSH2 0x102C JUMP JUMPDEST PUSH1 0x20 DUP3 ADD SWAP1 POP SWAP2 SWAP1 POP JUMP JUMPDEST PUSH0 PUSH1 0x20 DUP3 ADD SWAP1 POP DUP2 DUP2 SUB PUSH0 DUP4 ADD MSTORE PUSH2 0x108D DUP2 PUSH2 0x1054 JUMP JUMPDEST SWAP1 POP SWAP2 SWAP1 POP JUMP JUMPDEST PUSH32 0x455448207472616E73666572206661696C656400000000000000000000000000 PUSH0 DUP3 ADD MSTORE POP JUMP JUMPDEST PUSH0 PUSH2 0x10C8 PUSH1 0x13 DUP4 PUSH2 0xBBA JUMP JUMPDEST SWAP2 POP PUSH2 0x10D3 DUP3 PUSH2 0x1094 JUMP JUMPDEST PUSH1 0x20 DUP3 ADD SWAP1 POP SWAP2 SWAP1 POP JUMP JUMPDEST PUSH0 PUSH1 0x20 DUP3 ADD SWAP1 POP DUP2 DUP2 SUB PUSH0 DUP4 ADD MSTORE PUSH2 0x10F5 DUP2 PUSH2 0x10BC JUMP JUMPDEST SWAP1 POP SWAP2 SWAP1 POP JUMP JUMPDEST PUSH0 PUSH0 REVERT JUMPDEST PUSH0 PUSH0 REVERT JUMPDEST PUSH0 PUSH2 0x110D PUSH2 0x88A JUMP JUMPDEST SWAP1 POP PUSH2 0x1119 DUP3 DUP3 PUSH2 0xF6C JUMP JUMPDEST SWAP2 SWAP1 POP JUMP JUMPDEST PUSH0 PUSH8 0xFFFFFFFFFFFFFFFF DUP3 GT ISZERO PUSH2 0x1138 JUMPI PUSH2 0x1137 PUSH2 0xC32 JUMP JUMPDEST JUMPDEST PUSH2 0x1141 DUP3 PUSH2 0x822 JUMP JUMPDEST SWAP1 POP PUSH1 0x20 DUP2 ADD SWAP1 POP SWAP2 SWAP1 POP JUMP JUMPDEST PUSH0 PUSH2 0x1160 PUSH2 0x115B DUP5 PUSH2 0x111E JUMP JUMPDEST PUSH2 0x1104 JUMP JUMPDEST SWAP1 POP DUP3 DUP2 MSTORE PUSH1 0x20 DUP2 ADD DUP5 DUP5 DUP5 ADD GT ISZERO PUSH2 0x117C JUMPI PUSH2 0x117B PUSH2 0x1100 JUMP JUMPDEST JUMPDEST PUSH2 0x1187 DUP5 DUP3 DUP6 PUSH2 0x814 JUMP JUMPDEST POP SWAP4 SWAP3 POP POP POP JUMP JUMPDEST PUSH0 DUP3 PUSH1 0x1F DUP4 ADD SLT PUSH2 0x11A3 JUMPI PUSH2 0x11A2 PUSH2 0x10FC JUMP JUMPDEST JUMPDEST DUP2 MLOAD PUSH2 0x11B3 DUP5 DUP3 PUSH1 0x20 DUP7 ADD PUSH2 0x114E JUMP JUMPDEST SWAP2 POP POP SWAP3 SWAP2 POP POP JUMP JUMPDEST PUSH0 PUSH1 0x20 DUP3 DUP5 SUB SLT ISZERO PUSH2 0x11D1 JUMPI PUSH2 0x11D0 PUSH2 0x893 JUMP JUMPDEST JUMPDEST PUSH0 DUP3 ADD MLOAD PUSH8 0xFFFFFFFFFFFFFFFF DUP2 GT ISZERO PUSH2 0x11EE JUMPI PUSH2 0x11ED PUSH2 0x897 JUMP JUMPDEST JUMPDEST PUSH2 0x11FA DUP5 DUP3 DUP6 ADD PUSH2 0x118F JUMP JUMPDEST SWAP2 POP POP SWAP3 SWAP2 POP POP JUMP INVALID LOG2 PUSH5 0x6970667358 0x22 SLT KECCAK256 0xEF DUP12 RETF 0x2A CREATE2 DUP8 COINBASE 0xC7 0xDB PC CREATE 0xA8 SWAP10 0xB3 0x2E 0xC8 EXTSTATICCALL RJUMPI 0xF27B PUSH18 0x1BFE9E7C32B89CC7D8213964736F6C634300 ADDMOD 0x22 STOP CALLER "
		},
		"gasEstimates": {
			"creation": {
				"codeDepositCost": "933000",
				"executionCost": "966",
				"totalCost": "933966"
			},
			"external": {
				"checkedCall(address)": "infinite",
				"checkedETHTransfer(address)": "infinite",
				"lastData()": "infinite",
				"lastSuccess()": "2510",
				"lowLevelCall(address)": "infinite",
				"safeTransferERC20(address,address,uint256)": "infinite",
				"uncheckedETHTransfer(address)": "infinite"
			},
			"internal": {
				"_getRevertMsg(bytes memory)": "infinite"
			}
		},
		"methodIdentifiers": {
			"checkedCall(address)": "f024cfcf",
			"checkedETHTransfer(address)": "f651d3fc",
			"lastData()": "006e75ec",
			"lastSuccess()": "9415bc59",
			"lowLevelCall(address)": "c246e94d",
			"safeTransferERC20(address,address,uint256)": "bcb707cf",
			"uncheckedETHTransfer(address)": "3d2839ef"
		}
	},
	"abi": [
		{
			"anonymous": false,
			"inputs": [
				{
					"indexed": false,
					"internalType": "string",
					"name": "reason",
					"type": "string"
				}
			],
			"name": "CallFailed",
			"type": "event"
		},
		{
			"anonymous": false,
			"inputs": [
				{
					"indexed": false,
					"internalType": "bytes",
					"name": "data",
					"type": "bytes"
				}
			],
			"name": "UncheckedCallFailed",
			"type": "event"
		},
		{
			"inputs": [
				{
					"internalType": "address",
					"name": "target",
					"type": "address"
				}
			],
			"name": "checkedCall",
			"outputs": [],
			"stateMutability": "nonpayable",
			"type": "function"
		},
		{
			"inputs": [
				{
					"internalType": "address payable",
					"name": "to",
					"type": "address"
				}
			],
			"name": "checkedETHTransfer",
			"outputs": [],
			"stateMutability": "payable",
			"type": "function"
		},
		{
			"inputs": [],
			"name": "lastData",
			"outputs": [
				{
					"internalType": "bytes",
					"name": "",
					"type": "bytes"
				}
			],
			"stateMutability": "view",
			"type": "function"
		},
		{
			"inputs": [],
			"name": "lastSuccess",
			"outputs": [
				{
					"internalType": "bool",
					"name": "",
					"type": "bool"
				}
			],
			"stateMutability": "view",
			"type": "function"
		},
		{
			"inputs": [
				{
					"internalType": "address",
					"name": "target",
					"type": "address"
				}
			],
			"name": "lowLevelCall",
			"outputs": [],
			"stateMutability": "nonpayable",
			"type": "function"
		},
		{
			"inputs": [
				{
					"internalType": "address",
					"name": "token",
					"type": "address"
				},
				{
					"internalType": "address",
					"name": "to",
					"type": "address"
				},
				{
					"internalType": "uint256",
					"name": "amount",
					"type": "uint256"
				}
			],
			"name": "safeTransferERC20",
			"outputs": [],
			"stateMutability": "nonpayable",
			"type": "function"
		},
		{
			"inputs": [
				{
					"internalType": "address payable",
					"name": "to",
					"type": "address"
				}
			],
			"name": "uncheckedETHTransfer",
			"outputs": [],
			"stateMutability": "payable",
			"type": "function"
		}
	]
}