{
	"data": {
		"bytecode": {
			"linkReferences": {},
			"object": "6080604052348015600e575f5ffd5b5061111e8061001c5f395ff3fe608060405260043610610090575f3560e01c8063930dc71f11610058578063930dc71f14610176578063cc817673146101a1578063d0e30db0146101c9578063db2e21bc146101d3578063f68b2353146101e957610090565b806327e235e3146100945780632e1a7d4d146100d05780637d882097146100f857806384b4c56c146101225780638b7afe2e1461014c575b5f5ffd5b34801561009f575f5ffd5b506100ba60048036038101906100b59190610b13565b610213565b6040516100c79190610b56565b60405180910390f35b3480156100db575f5ffd5b506100f660048036038101906100f19190610b99565b610227565b005b348015610103575f5ffd5b5061010c6104f1565b6040516101199190610b56565b60405180910390f35b34801561012d575f5ffd5b506101366104f7565b6040516101439190610b56565b60405180910390f35b348015610157575f5ffd5b506101606104fd565b60405161016d9190610b56565b60405180910390f35b348015610181575f5ffd5b5061018a610504565b604051610198929190610bc4565b60405180910390f35b3480156101ac575f5ffd5b506101c760048036038101906101c29190610b99565b610514565b005b6101d161075c565b005b3480156101de575f5ffd5b506101e7610858565b005b3480156101f4575f5ffd5b506101fd610aaf565b60405161020a9190610b56565b60405180910390f35b5f602052805f5260405f205f915090505481565b60025f9054906101000a900460ff1615610276576040517f08c379a000000000000000000000000000000000000000000000000000000000815260040161026d90610c45565b60405180910390fd5b600160025f6101000a81548160ff021916908315150217905550805f5f3373ffffffffffffffffffffffffffffffffffffffff1673ffffffffffffffffffffffffffffffffffffffff1681526020019081526020015f2054101561030f576040517f08c379a000000000000000000000000000000000000000000000000000000000815260040161030690610cad565b60405180910390fd5b805f5f3373ffffffffffffffffffffffffffffffffffffffff1673ffffffffffffffffffffffffffffffffffffffff1681526020019081526020015f205f82825461035a9190610cf8565b925050819055508060015f8282546103729190610cf8565b9250508190555060035f81548092919061038b90610d2b565b91905055505f3373ffffffffffffffffffffffffffffffffffffffff16826040516103b590610d9f565b5f6040518083038185875af1925050503d805f81146103ef576040519150601f19603f3d011682016040523d82523d5f602084013e6103f4565b606091505b505090503373ffffffffffffffffffffffffffffffffffffffff167f18f4aac03f7ab06a6e8d99e179f3d3c4b91ed9768926b8844463a506cf033b8e8360405161043e9190610b56565b60405180910390a280610486576040517f08c379a000000000000000000000000000000000000000000000000000000000815260040161047d90610dfd565b60405180910390fd5b3373ffffffffffffffffffffffffffffffffffffffff167f485f1bb6524c663555797e00171a10f341656e59b02d6b557a0a38ba7d5d9751836040516104cc9190610e65565b60405180910390a2505f60025f6101000a81548160ff02191690831515021790555050565b60015481565b60035481565b5f47905090565b5f5f600354600454915091509091565b805f5f3373ffffffffffffffffffffffffffffffffffffffff1673ffffffffffffffffffffffffffffffffffffffff1681526020019081526020015f20541015610593576040517f08c379a000000000000000000000000000000000000000000000000000000000815260040161058a90610cad565b60405180910390fd5b5f3373ffffffffffffffffffffffffffffffffffffffff16826040516105b890610d9f565b5f6040518083038185875af1925050503d805f81146105f2576040519150601f19603f3d011682016040523d82523d5f602084013e6105f7565b606091505b505090503373ffffffffffffffffffffffffffffffffffffffff167f18f4aac03f7ab06a6e8d99e179f3d3c4b91ed9768926b8844463a506cf033b8e836040516106419190610b56565b60405180910390a280610689576040517f08c379a000000000000000000000000000000000000000000000000000000000815260040161068090610edb565b60405180910390fd5b815f5f3373ffffffffffffffffffffffffffffffffffffffff1673ffffffffffffffffffffffffffffffffffffffff1681526020019081526020015f205f8282546106d49190610cf8565b925050819055508160015f8282546106ec9190610cf8565b9250508190555060045f81548092919061070590610d2b565b91905055503373ffffffffffffffffffffffffffffffffffffffff167f485f1bb6524c663555797e00171a10f341656e59b02d6b557a0a38ba7d5d9751836040516107509190610f43565b60405180910390a25050565b5f341161079e576040517f08c379a000000000000000000000000000000000000000000000000000000000815260040161079590610fb9565b60405180910390fd5b345f5f3373ffffffffffffffffffffffffffffffffffffffff1673ffffffffffffffffffffffffffffffffffffffff1681526020019081526020015f205f8282546107e99190610fd7565b925050819055503460015f8282546108019190610fd7565b925050819055503373ffffffffffffffffffffffffffffffffffffffff167fe1fffcc4923d04b559f4d29a8bfc6cda04eb5b0d3c460751c2402c5c5cc9109c3460405161084e9190610b56565b60405180910390a2565b60025f9054906101000a900460ff16156108a7576040517f08c379a000000000000000000000000000000000000000000000000000000000815260040161089e90610c45565b60405180910390fd5b600160025f6101000a81548160ff0219169083151502179055505f5f5f3373ffffffffffffffffffffffffffffffffffffffff1673ffffffffffffffffffffffffffffffffffffffff1681526020019081526020015f205490505f8111610943576040517f08c379a000000000000000000000000000000000000000000000000000000000815260040161093a90611054565b60405180910390fd5b5f5f5f3373ffffffffffffffffffffffffffffffffffffffff1673ffffffffffffffffffffffffffffffffffffffff1681526020019081526020015f20819055508060015f8282546109959190610cf8565b925050819055505f3373ffffffffffffffffffffffffffffffffffffffff16826040516109c190610d9f565b5f6040518083038185875af1925050503d805f81146109fb576040519150601f19603f3d011682016040523d82523d5f602084013e610a00565b606091505b5050905080610a44576040517f08c379a0000000000000000000000000000000000000000000000000000000008152600401610a3b90610edb565b60405180910390fd5b3373ffffffffffffffffffffffffffffffffffffffff167f485f1bb6524c663555797e00171a10f341656e59b02d6b557a0a38ba7d5d975183604051610a8a91906110bc565b60405180910390a250505f60025f6101000a81548160ff021916908315150217905550565b60045481565b5f5ffd5b5f73ffffffffffffffffffffffffffffffffffffffff82169050919050565b5f610ae282610ab9565b9050919050565b610af281610ad8565b8114610afc575f5ffd5b50565b5f81359050610b0d81610ae9565b92915050565b5f60208284031215610b2857610b27610ab5565b5b5f610b3584828501610aff565b91505092915050565b5f819050919050565b610b5081610b3e565b82525050565b5f602082019050610b695f830184610b47565b92915050565b610b7881610b3e565b8114610b82575f5ffd5b50565b5f81359050610b9381610b6f565b92915050565b5f60208284031215610bae57610bad610ab5565b5b5f610bbb84828501610b85565b91505092915050565b5f604082019050610bd75f830185610b47565b610be46020830184610b47565b9392505050565b5f82825260208201905092915050565b7f5265656e7472616e6379206465746563746564000000000000000000000000005f82015250565b5f610c2f601383610beb565b9150610c3a82610bfb565b602082019050919050565b5f6020820190508181035f830152610c5c81610c23565b9050919050565b7f496e73756666696369656e742062616c616e63650000000000000000000000005f82015250565b5f610c97601483610beb565b9150610ca282610c63565b602082019050919050565b5f6020820190508181035f830152610cc481610c8b565b9050919050565b7f4e487b71000000000000000000000000000000000000000000000000000000005f52601160045260245ffd5b5f610d0282610b3e565b9150610d0d83610b3e565b9250828203905081811115610d2557610d24610ccb565b5b92915050565b5f610d3582610b3e565b91507fffffffffffffffffffffffffffffffffffffffffffffffffffffffffffffffff8203610d6757610d66610ccb565b5b600182019050919050565b5f81905092915050565b50565b5f610d8a5f83610d72565b9150610d9582610d7c565b5f82019050919050565b5f610da982610d7f565b9150819050919050565b7f455448207472616e73666572206661696c6564000000000000000000000000005f82015250565b5f610de7601383610beb565b9150610df282610db3565b602082019050919050565b5f6020820190508181035f830152610e1481610ddb565b9050919050565b7f73616665576974686472617700000000000000000000000000000000000000005f82015250565b5f610e4f600c83610beb565b9150610e5a82610e1b565b602082019050919050565b5f604082019050610e785f830184610b47565b8181036020830152610e8981610e43565b905092915050565b7f5472616e73666572206661696c656400000000000000000000000000000000005f82015250565b5f610ec5600f83610beb565b9150610ed082610e91565b602082019050919050565b5f6020820190508181035f830152610ef281610eb9565b9050919050565b7f76756c6e657261626c65576974686472617700000000000000000000000000005f82015250565b5f610f2d601283610beb565b9150610f3882610ef9565b602082019050919050565b5f604082019050610f565f830184610b47565b8181036020830152610f6781610f21565b905092915050565b7f4d7573742073656e6420455448000000000000000000000000000000000000005f82015250565b5f610fa3600d83610beb565b9150610fae82610f6f565b602082019050919050565b5f6020820190508181035f830152610fd081610f97565b9050919050565b5f610fe182610b3e565b9150610fec83610b3e565b925082820190508082111561100457611003610ccb565b5b92915050565b7f4e6f2062616c616e6365000000000000000000000000000000000000000000005f82015250565b5f61103e600a83610beb565b91506110498261100a565b602082019050919050565b5f6020820190508181035f83015261106b81611032565b9050919050565b7f656d657267656e637957697468647261770000000000000000000000000000005f82015250565b5f6110a6601183610beb565b91506110b182611072565b602082019050919050565b5f6040820190506110cf5f830184610b47565b81810360208301526110e08161109a565b90509291505056fea2646970667358221220187d39e16b1b7a619f84d86276f60ad3ad62e6770824dcbbefb4f287c37912c964736f6c63430008220033",
			"opcodes": "PUSH1 0x80 PUSH1 0x40 MSTORE CALLVALUE DUP1 ISZERO PUSH1 0xE JUMPI PUSH0 PUSH0 REVERT JUMPDEST POP PUSH2 0x111E DUP1 PUSH2 0x1C PUSH0 CODECOPY PUSH0 RETURN INVALID PUSH1 0x80 PUSH1 0x40 MSTORE PUSH1 0x4 CALLDATASIZE LT PUSH2 0x90 JUMPI PUSH0 CALLDATALOAD PUSH1 0xE0 SHR DUP1 PUSH4 0x930DC71F GT PUSH2 0x58 JUMPI DUP1 PUSH4 0x930DC71F EQ PUSH2 0x176 JUMPI DUP1 PUSH4 0xCC817673 EQ PUSH2 0x1A1 JUMPI DUP1 PUSH4 0xD0E30DB0 EQ PUSH2 0x1C9 JUMPI DUP1 PUSH4 0xDB2E21BC EQ PUSH2 0x1D3 JUMPI DUP1 PUSH4 0xF68B2353 EQ PUSH2 0x1E9 JUMPI PUSH2 0x90 JUMP JUMPDEST DUP1 PUSH4 0x27E235E3 EQ PUSH2 0x94 JUMPI DUP1 PUSH4 0x2E1A7D4D EQ PUSH2 0xD0 JUMPI DUP1 PUSH4 0x7D882097 EQ PUSH2 0xF8 JUMPI DUP1 PUSH4 0x84B4C56C EQ PUSH2 0x122 JUMPI DUP1 PUSH4 0x8B7AFE2E EQ PUSH2 0x14C JUMPI JUMPDEST PUSH0 PUSH0 REVERT JUMPDEST CALLVALUE DUP1 ISZERO PUSH2 0x9F JUMPI PUSH0 PUSH0 REVERT JUMPDEST POP PUSH2 0xBA PUSH1 0x4 DUP1 CALLDATASIZE SUB DUP2 ADD SWAP1 PUSH2 0xB5 SWAP2 SWAP1 PUSH2 0xB13 JUMP JUMPDEST PUSH2 0x213 JUMP JUMPDEST PUSH1 0x40 MLOAD PUSH2 0xC7 SWAP2 SWAP1 PUSH2 0xB56 JUMP JUMPDEST PUSH1 0x40 MLOAD DUP1 SWAP2 SUB SWAP1 RETURN JUMPDEST CALLVALUE DUP1 ISZERO PUSH2 0xDB JUMPI PUSH0 PUSH0 REVERT JUMPDEST POP PUSH2 0xF6 PUSH1 0x4 DUP1 CALLDATASIZE SUB DUP2 ADD SWAP1 PUSH2 0xF1 SWAP2 SWAP1 PUSH2 0xB99 JUMP JUMPDEST PUSH2 0x227 JUMP JUMPDEST STOP JUMPDEST CALLVALUE DUP1 ISZERO PUSH2 0x103 JUMPI PUSH0 PUSH0 REVERT JUMPDEST POP PUSH2 0x10C PUSH2 0x4F1 JUMP JUMPDEST PUSH1 0x40 MLOAD PUSH2 0x119 SWAP2 SWAP1 PUSH2 0xB56 JUMP JUMPDEST PUSH1 0x40 MLOAD DUP1 SWAP2 SUB SWAP1 RETURN JUMPDEST CALLVALUE DUP1 ISZERO PUSH2 0x12D JUMPI PUSH0 PUSH0 REVERT JUMPDEST POP PUSH2 0x136 PUSH2 0x4F7 JUMP JUMPDEST PUSH1 0x40 MLOAD PUSH2 0x143 SWAP2 SWAP1 PUSH2 0xB56 JUMP JUMPDEST PUSH1 0x40 MLOAD DUP1 SWAP2 SUB SWAP1 RETURN JUMPDEST CALLVALUE DUP1 ISZERO PUSH2 0x157 JUMPI PUSH0 PUSH0 REVERT JUMPDEST POP PUSH2 0x160 PUSH2 0x4FD JUMP JUMPDEST PUSH1 0x40 MLOAD PUSH2 0x16D SWAP2 SWAP1 PUSH2 0xB56 JUMP JUMPDEST PUSH1 0x40 MLOAD DUP1 SWAP2 SUB SWAP1 RETURN JUMPDEST CALLVALUE DUP1 ISZERO PUSH2 0x181 JUMPI PUSH0 PUSH0 REVERT JUMPDEST POP PUSH2 0x18A PUSH2 0x504 JUMP JUMPDEST PUSH1 0x40 MLOAD PUSH2 0x198 SWAP3 SWAP2 SWAP1 PUSH2 0xBC4 JUMP JUMPDEST PUSH1 0x40 MLOAD DUP1 SWAP2 SUB SWAP1 RETURN JUMPDEST CALLVALUE DUP1 ISZERO PUSH2 0x1AC JUMPI PUSH0 PUSH0 REVERT JUMPDEST POP PUSH2 0x1C7 PUSH1 0x4 DUP1 CALLDATASIZE SUB DUP2 ADD SWAP1 PUSH2 0x1C2 SWAP2 SWAP1 PUSH2 0xB99 JUMP JUMPDEST PUSH2 0x514 JUMP JUMPDEST STOP JUMPDEST PUSH2 0x1D1 PUSH2 0x75C JUMP JUMPDEST STOP JUMPDEST CALLVALUE DUP1 ISZERO PUSH2 0x1DE JUMPI PUSH0 PUSH0 REVERT JUMPDEST POP PUSH2 0x1E7 PUSH2 0x858 JUMP JUMPDEST STOP JUMPDEST CALLVALUE DUP1 ISZERO PUSH2 0x1F4 JUMPI PUSH0 PUSH0 REVERT JUMPDEST POP PUSH2 0x1FD PUSH2 0xAAF JUMP JUMPDEST PUSH1 0x40 MLOAD PUSH2 0x20A SWAP2 SWAP1 PUSH2 0xB56 JUMP JUMPDEST PUSH1 0x40 MLOAD DUP1 SWAP2 SUB SWAP1 RETURN JUMPDEST PUSH0 PUSH1 0x20 MSTORE DUP1 PUSH0 MSTORE PUSH1 0x40 PUSH0 KECCAK256 PUSH0 SWAP2 POP SWAP1 POP SLOAD DUP2 JUMP JUMPDEST PUSH1 0x2 PUSH0 SWAP1 SLOAD SWAP1 PUSH2 0x100 EXP SWAP1 DIV PUSH1 0xFF AND ISZERO PUSH2 0x276 JUMPI PUSH1 0x40 MLOAD PUSH32 0x8C379A000000000000000000000000000000000000000000000000000000000 DUP2 MSTORE PUSH1 0x4 ADD PUSH2 0x26D SWAP1 PUSH2 0xC45 JUMP JUMPDEST PUSH1 0x40 MLOAD DUP1 SWAP2 SUB SWAP1 REVERT JUMPDEST PUSH1 0x1 PUSH1 0x2 PUSH0 PUSH2 0x100 EXP DUP2 SLOAD DUP2 PUSH1 0xFF MUL NOT AND SWAP1 DUP4 ISZERO ISZERO MUL OR SWAP1 SSTORE POP DUP1 PUSH0 PUSH0 CALLER PUSH20 0xFFFFFFFFFFFFFFFFFFFFFFFFFFFFFFFFFFFFFFFF AND PUSH20 0xFFFFFFFFFFFFFFFFFFFFFFFFFFFFFFFFFFFFFFFF AND DUP2 MSTORE PUSH1 0x20 ADD SWAP1 DUP2 MSTORE PUSH1 0x20 ADD PUSH0 KECCAK256 SLOAD LT ISZERO PUSH2 0x30F JUMPI PUSH1 0x40 MLOAD PUSH32 0x8C379A000000000000000000000000000000000000000000000000000000000 DUP2 MSTORE PUSH1 0x4 ADD PUSH2 0x306 SWAP1 PUSH2 0xCAD JUMP JUMPDEST PUSH1 0x40 MLOAD DUP1 SWAP2 SUB SWAP1 REVERT JUMPDEST DUP1 PUSH0 PUSH0 CALLER PUSH20 0xFFFFFFFFFFFFFFFFFFFFFFFFFFFFFFFFFFFFFFFF AND PUSH20 0xFFFFFFFFFFFFFFFFFFFFFFFFFFFFFFFFFFFFFFFF AND DUP2 MSTORE PUSH1 0x20 ADD SWAP1 DUP2 MSTORE PUSH1 0x20 ADD PUSH0 KECCAK256 PUSH0 DUP3 DUP3 SLOAD PUSH2 0x35A SWAP2 SWAP1 PUSH2 0xCF8 JUMP JUMPDEST SWAP3 POP POP DUP2 SWAP1 SSTORE POP DUP1 PUSH1 0x1 PUSH0 DUP3 DUP3 SLOAD PUSH2 0x372 SWAP2 SWAP1 PUSH2 0xCF8 JUMP JUMPDEST SWAP3 POP POP DUP2 SWAP1 SSTORE POP PUSH1 0x3 PUSH0 DUP2 SLOAD DUP1 SWAP3 SWAP2 SWAP1 PUSH2 0x38B SWAP1 PUSH2 0xD2B JUMP JUMPDEST SWAP2 SWAP1 POP SSTORE POP PUSH0 CALLER PUSH20 0xFFFFFFFFFFFFFFFFFFFFFFFFFFFFFFFFFFFFFFFF AND DUP3 PUSH1 0x40 MLOAD PUSH2 0x3B5 SWAP1 PUSH2 0xD9F JUMP JUMPDEST PUSH0 PUSH1 0x40 MLOAD DUP1 DUP4 SUB DUP2 DUP6 DUP8 GAS CALL SWAP3 POP POP POP RETURNDATASIZE DUP1 PUSH0 DUP2 EQ PUSH2 0x3EF JUMPI PUSH1 0x40 MLOAD SWAP2 POP PUSH1 0x1F NOT PUSH1 0x3F RETURNDATASIZE ADD AND DUP3 ADD PUSH1 0x40 MSTORE RETURNDATASIZE DUP3 MSTORE RETURNDATASIZE PUSH0 PUSH1 0x20 DUP5 ADD RETURNDATACOPY PUSH2 0x3F4 JUMP JUMPDEST PUSH1 0x60 SWAP2 POP JUMPDEST POP POP SWAP1 POP CALLER PUSH20 0xFFFFFFFFFFFFFFFFFFFFFFFFFFFFFFFFFFFFFFFF AND PUSH32 0x18F4AAC03F7AB06A6E8D99E179F3D3C4B91ED9768926B8844463A506CF033B8E DUP4 PUSH1 0x40 MLOAD PUSH2 0x43E SWAP2 SWAP1 PUSH2 0xB56 JUMP JUMPDEST PUSH1 0x40 MLOAD DUP1 SWAP2 SUB SWAP1 LOG2 DUP1 PUSH2 0x486 JUMPI PUSH1 0x40 MLOAD PUSH32 0x8C379A000000000000000000000000000000000000000000000000000000000 DUP2 MSTORE PUSH1 0x4 ADD PUSH2 0x47D SWAP1 PUSH2 0xDFD JUMP JUMPDEST PUSH1 0x40 MLOAD DUP1 SWAP2 SUB SWAP1 REVERT JUMPDEST CALLER PUSH20 0xFFFFFFFFFFFFFFFFFFFFFFFFFFFFFFFFFFFFFFFF AND PUSH32 0x485F1BB6524C663555797E00171A10F341656E59B02D6B557A0A38BA7D5D9751 DUP4 PUSH1 0x40 MLOAD PUSH2 0x4CC SWAP2 SWAP1 PUSH2 0xE65 JUMP JUMPDEST PUSH1 0x40 MLOAD DUP1 SWAP2 SUB SWAP1 LOG2 POP PUSH0 PUSH1 0x2 PUSH0 PUSH2 0x100 EXP DUP2 SLOAD DUP2 PUSH1 0xFF MUL NOT AND SWAP1 DUP4 ISZERO ISZERO MUL OR SWAP1 SSTORE POP POP JUMP JUMPDEST PUSH1 0x1 SLOAD DUP2 JUMP JUMPDEST PUSH1 0x3 SLOAD DUP2 JUMP JUMPDEST PUSH0 SELFBALANCE SWAP1 POP SWAP1 JUMP JUMPDEST PUSH0 PUSH0 PUSH1 0x3 SLOAD PUSH1 0x4 SLOAD SWAP2 POP SWAP2 POP SWAP1 SWAP2 JUMP JUMPDEST DUP1 PUSH0 PUSH0 CALLER PUSH20 0xFFFFFFFFFFFFFFFFFFFFFFFFFFFFFFFFFFFFFFFF AND PUSH20 0xFFFFFFFFFFFFFFFFFFFFFFFFFFFFFFFFFFFFFFFF AND DUP2 MSTORE PUSH1 0x20 ADD SWAP1 DUP2 MSTORE PUSH1 0x20 ADD PUSH0 KECCAK256 SLOAD LT ISZERO PUSH2 0x593 JUMPI PUSH1 0x40 MLOAD PUSH32 0x8C379A000000000000000000000000000000000000000000000000000000000 DUP2 MSTORE PUSH1 0x4 ADD PUSH2 0x58A SWAP1 PUSH2 0xCAD JUMP JUMPDEST PUSH1 0x40 MLOAD DUP1 SWAP2 SUB SWAP1 REVERT JUMPDEST PUSH0 CALLER PUSH20 0xFFFFFFFFFFFFFFFFFFFFFFFFFFFFFFFFFFFFFFFF AND DUP3 PUSH1 0x40 MLOAD PUSH2 0x5B8 SWAP1 PUSH2 0xD9F JUMP JUMPDEST PUSH0 PUSH1 0x40 MLOAD DUP1 DUP4 SUB DUP2 DUP6 DUP8 GAS CALL SWAP3 POP POP POP RETURNDATASIZE DUP1 PUSH0 DUP2 EQ PUSH2 0x5F2 JUMPI PUSH1 0x40 MLOAD SWAP2 POP PUSH1 0x1F NOT PUSH1 0x3F RETURNDATASIZE ADD AND DUP3 ADD PUSH1 0x40 MSTORE RETURNDATASIZE DUP3 MSTORE RETURNDATASIZE PUSH0 PUSH1 0x20 DUP5 ADD RETURNDATACOPY PUSH2 0x5F7 JUMP JUMPDEST PUSH1 0x60 SWAP2 POP JUMPDEST POP POP SWAP1 POP CALLER PUSH20 0xFFFFFFFFFFFFFFFFFFFFFFFFFFFFFFFFFFFFFFFF AND PUSH32 0x18F4AAC03F7AB06A6E8D99E179F3D3C4B91ED9768926B8844463A506CF033B8E DUP4 PUSH1 0x40 MLOAD PUSH2 0x641 SWAP2 SWAP1 PUSH2 0xB56 JUMP JUMPDEST PUSH1 0x40 MLOAD DUP1 SWAP2 SUB SWAP1 LOG2 DUP1 PUSH2 0x689 JUMPI PUSH1 0x40 MLOAD PUSH32 0x8C379A000000000000000000000000000000000000000000000000000000000 DUP2 MSTORE PUSH1 0x4 ADD PUSH2 0x680 SWAP1 PUSH2 0xEDB JUMP JUMPDEST PUSH1 0x40 MLOAD DUP1 SWAP2 SUB SWAP1 REVERT JUMPDEST DUP2 PUSH0 PUSH0 CALLER PUSH20 0xFFFFFFFFFFFFFFFFFFFFFFFFFFFFFFFFFFFFFFFF AND PUSH20 0xFFFFFFFFFFFFFFFFFFFFFFFFFFFFFFFFFFFFFFFF AND DUP2 MSTORE PUSH1 0x20 ADD SWAP1 DUP2 MSTORE PUSH1 0x20 ADD PUSH0 KECCAK256 PUSH0 DUP3 DUP3 SLOAD PUSH2 0x6D4 SWAP2 SWAP1 PUSH2 0xCF8 JUMP JUMPDEST SWAP3 POP POP DUP2 SWAP1 SSTORE POP DUP2 PUSH1 0x1 PUSH0 DUP3 DUP3 SLOAD PUSH2 0x6EC SWAP2 SWAP1 PUSH2 0xCF8 JUMP JUMPDEST SWAP3 POP POP DUP2 SWAP1 SSTORE POP PUSH1 0x4 PUSH0 DUP2 SLOAD DUP1 SWAP3 SWAP2 SWAP1 PUSH2 0x705 SWAP1 PUSH2 0xD2B JUMP JUMPDEST SWAP2 SWAP1 POP SSTORE POP CALLER PUSH20 0xFFFFFFFFFFFFFFFFFFFFFFFFFFFFFFFFFFFFFFFF AND PUSH32 0x485F1BB6524C663555797E00171A10F341656E59B02D6B557A0A38BA7D5D9751 DUP4 PUSH1 0x40 MLOAD PUSH2 0x750 SWAP2 SWAP1 PUSH2 0xF43 JUMP JUMPDEST PUSH1 0x40 MLOAD DUP1 SWAP2 SUB SWAP1 LOG2 POP POP JUMP JUMPDEST PUSH0 CALLVALUE GT PUSH2 0x79E JUMPI PUSH1 0x40 MLOAD PUSH32 0x8C379A000000000000000000000000000000000000000000000000000000000 DUP2 MSTORE PUSH1 0x4 ADD PUSH2 0x795 SWAP1 PUSH2 0xFB9 JUMP JUMPDEST PUSH1 0x40 MLOAD DUP1 SWAP2 SUB SWAP1 REVERT JUMPDEST CALLVALUE PUSH0 PUSH0 CALLER PUSH20 0xFFFFFFFFFFFFFFFFFFFFFFFFFFFFFFFFFFFFFFFF AND PUSH20 0xFFFFFFFFFFFFFFFFFFFFFFFFFFFFFFFFFFFFFFFF AND DUP2 MSTORE PUSH1 0x20 ADD SWAP1 DUP2 MSTORE PUSH1 0x20 ADD PUSH0 KECCAK256 PUSH0 DUP3 DUP3 SLOAD PUSH2 0x7E9 SWAP2 SWAP1 PUSH2 0xFD7 JUMP JUMPDEST SWAP3 POP POP DUP2 SWAP1 SSTORE POP CALLVALUE PUSH1 0x1 PUSH0 DUP3 DUP3 SLOAD PUSH2 0x801 SWAP2 SWAP1 PUSH2 0xFD7 JUMP JUMPDEST SWAP3 POP POP DUP2 SWAP1 SSTORE POP CALLER PUSH20 0xFFFFFFFFFFFFFFFFFFFFFFFFFFFFFFFFFFFFFFFF AND PUSH32 0xE1FFFCC4923D04B559F4D29A8BFC6CDA04EB5B0D3C460751C2402C5C5CC9109C CALLVALUE PUSH1 0x40 MLOAD PUSH2 0x84E SWAP2 SWAP1 PUSH2 0xB56 JUMP JUMPDEST PUSH1 0x40 MLOAD DUP1 SWAP2 SUB SWAP1 LOG2 JUMP JUMPDEST PUSH1 0x2 PUSH0 SWAP1 SLOAD SWAP1 PUSH2 0x100 EXP SWAP1 DIV PUSH1 0xFF AND ISZERO PUSH2 0x8A7 JUMPI PUSH1 0x40 MLOAD PUSH32 0x8C379A000000000000000000000000000000000000000000000000000000000 DUP2 MSTORE PUSH1 0x4 ADD PUSH2 0x89E SWAP1 PUSH2 0xC45 JUMP JUMPDEST PUSH1 0x40 MLOAD DUP1 SWAP2 SUB SWAP1 REVERT JUMPDEST PUSH1 0x1 PUSH1 0x2 PUSH0 PUSH2 0x100 EXP DUP2 SLOAD DUP2 PUSH1 0xFF MUL NOT AND SWAP1 DUP4 ISZERO ISZERO MUL OR SWAP1 SSTORE POP PUSH0 PUSH0 PUSH0 CALLER PUSH20 0xFFFFFFFFFFFFFFFFFFFFFFFFFFFFFFFFFFFFFFFF AND PUSH20 0xFFFFFFFFFFFFFFFFFFFFFFFFFFFFFFFFFFFFFFFF AND DUP2 MSTORE PUSH1 0x20 ADD SWAP1 DUP2 MSTORE PUSH1 0x20 ADD PUSH0 KECCAK256 SLOAD SWAP1 POP PUSH0 DUP2 GT PUSH2 0x943 JUMPI PUSH1 0x40 MLOAD PUSH32 0x8C379A000000000000000000000000000000000000000000000000000000000 DUP2 MSTORE PUSH1 0x4 ADD PUSH2 0x93A SWAP1 PUSH2 0x1054 JUMP JUMPDEST PUSH1 0x40 MLOAD DUP1 SWAP2 SUB SWAP1 REVERT JUMPDEST PUSH0 PUSH0 PUSH0 CALLER PUSH20 0xFFFFFFFFFFFFFFFFFFFFFFFFFFFFFFFFFFFFFFFF AND PUSH20 0xFFFFFFFFFFFFFFFFFFFFFFFFFFFFFFFFFFFFFFFF AND DUP2 MSTORE PUSH1 0x20 ADD SWAP1 DUP2 MSTORE PUSH1 0x20 ADD PUSH0 KECCAK256 DUP2 SWAP1 SSTORE POP DUP1 PUSH1 0x1 PUSH0 DUP3 DUP3 SLOAD PUSH2 0x995 SWAP2 SWAP1 PUSH2 0xCF8 JUMP JUMPDEST SWAP3 POP POP DUP2 SWAP1 SSTORE POP PUSH0 CALLER PUSH20 0xFFFFFFFFFFFFFFFFFFFFFFFFFFFFFFFFFFFFFFFF AND DUP3 PUSH1 0x40 MLOAD PUSH2 0x9C1 SWAP1 PUSH2 0xD9F JUMP JUMPDEST PUSH0 PUSH1 0x40 MLOAD DUP1 DUP4 SUB DUP2 DUP6 DUP8 GAS CALL SWAP3 POP POP POP RETURNDATASIZE DUP1 PUSH0 DUP2 EQ PUSH2 0x9FB JUMPI PUSH1 0x40 MLOAD SWAP2 POP PUSH1 0x1F NOT PUSH1 0x3F RETURNDATASIZE ADD AND DUP3 ADD PUSH1 0x40 MSTORE RETURNDATASIZE DUP3 MSTORE RETURNDATASIZE PUSH0 PUSH1 0x20 DUP5 ADD RETURNDATACOPY PUSH2 0xA00 JUMP JUMPDEST PUSH1 0x60 SWAP2 POP JUMPDEST POP POP SWAP1 POP DUP1 PUSH2 0xA44 JUMPI PUSH1 0x40 MLOAD PUSH32 0x8C379A000000000000000000000000000000000000000000000000000000000 DUP2 MSTORE PUSH1 0x4 ADD PUSH2 0xA3B SWAP1 PUSH2 0xEDB JUMP JUMPDEST PUSH1 0x40 MLOAD DUP1 SWAP2 SUB SWAP1 REVERT JUMPDEST CALLER PUSH20 0xFFFFFFFFFFFFFFFFFFFFFFFFFFFFFFFFFFFFFFFF AND PUSH32 0x485F1BB6524C663555797E00171A10F341656E59B02D6B557A0A38BA7D5D9751 DUP4 PUSH1 0x40 MLOAD PUSH2 0xA8A SWAP2 SWAP1 PUSH2 0x10BC JUMP JUMPDEST PUSH1 0x40 MLOAD DUP1 SWAP2 SUB SWAP1 LOG2 POP POP PUSH0 PUSH1 0x2 PUSH0 PUSH2 0x100 EXP DUP2 SLOAD DUP2 PUSH1 0xFF MUL NOT AND SWAP1 DUP4 ISZERO ISZERO MUL OR SWAP1 SSTORE POP JUMP JUMPDEST PUSH1 0x4 SLOAD DUP2 JUMP JUMPDEST PUSH0 PUSH0 REVERT JUMPDEST PUSH0 PUSH20 0xFFFFFFFFFFFFFFFFFFFFFFFFFFFFFFFFFFFFFFFF DUP3 AND SWAP1 POP SWAP2 SWAP1 POP JUMP JUMPDEST PUSH0 PUSH2 0xAE2 DUP3 PUSH2 0xAB9 JUMP JUMPDEST SWAP1 POP SWAP2 SWAP1 POP JUMP JUMPDEST PUSH2 0xAF2 DUP2 PUSH2 0xAD8 JUMP JUMPDEST DUP2 EQ PUSH2 0xAFC JUMPI PUSH0 PUSH0 REVERT JUMPDEST POP JUMP JUMPDEST PUSH0 DUP2 CALLDATALOAD SWAP1 POP PUSH2 0xB0D DUP2 PUSH2 0xAE9 JUMP JUMPDEST SWAP3 SWAP2 POP POP JUMP JUMPDEST PUSH0 PUSH1 0x20 DUP3 DUP5 SUB SLT ISZERO PUSH2 0xB28 JUMPI PUSH2 0xB27 PUSH2 0xAB5 JUMP JUMPDEST JUMPDEST PUSH0 PUSH2 0xB35 DUP5 DUP3 DUP6 ADD PUSH2 0xAFF JUMP JUMPDEST SWAP2 POP POP SWAP3 SWAP2 POP POP JUMP JUMPDEST PUSH0 DUP2 SWAP1 POP SWAP2 SWAP1 POP JUMP JUMPDEST PUSH2 0xB50 DUP2 PUSH2 0xB3E JUMP JUMPDEST DUP3 MSTORE POP POP JUMP JUMPDEST PUSH0 PUSH1 0x20 DUP3 ADD SWAP1 POP PUSH2 0xB69 PUSH0 DUP4 ADD DUP5 PUSH2 0xB47 JUMP JUMPDEST SWAP3 SWAP2 POP POP JUMP JUMPDEST PUSH2 0xB78 DUP2 PUSH2 0xB3E JUMP JUMPDEST DUP2 EQ PUSH2 0xB82 JUMPI PUSH0 PUSH0 REVERT JUMPDEST POP JUMP JUMPDEST PUSH0 DUP2 CALLDATALOAD SWAP1 POP PUSH2 0xB93 DUP2 PUSH2 0xB6F JUMP JUMPDEST SWAP3 SWAP2 POP POP JUMP JUMPDEST PUSH0 PUSH1 0x20 DUP3 DUP5 SUB SLT ISZERO PUSH2 0xBAE JUMPI PUSH2 0xBAD PUSH2 0xAB5 JUMP JUMPDEST JUMPDEST PUSH0 PUSH2 0xBBB DUP5 DUP3 DUP6 ADD PUSH2 0xB85 JUMP JUMPDEST SWAP2 POP POP SWAP3 SWAP2 POP POP JUMP JUMPDEST PUSH0 PUSH1 0x40 DUP3 ADD SWAP1 POP PUSH2 0xBD7 PUSH0 DUP4 ADD DUP6 PUSH2 0xB47 JUMP JUMPDEST PUSH2 0xBE4 PUSH1 0x20 DUP4 ADD DUP5 PUSH2 0xB47 JUMP JUMPDEST SWAP4 SWAP3 POP POP POP JUMP JUMPDEST PUSH0 DUP3 DUP3 MSTORE PUSH1 0x20 DUP3 ADD SWAP1 POP SWAP3 SWAP2 POP POP JUMP JUMPDEST PUSH32 0x5265656E7472616E637920646574656374656400000000000000000000000000 PUSH0 DUP3 ADD MSTORE POP JUMP JUMPDEST PUSH0 PUSH2 0xC2F PUSH1 0x13 DUP4 PUSH2 0xBEB JUMP JUMPDEST SWAP2 POP PUSH2 0xC3A DUP3 PUSH2 0xBFB JUMP JUMPDEST PUSH1 0x20 DUP3 ADD SWAP1 POP SWAP2 SWAP1 POP JUMP JUMPDEST PUSH0 PUSH1 0x20 DUP3 ADD SWAP1 POP DUP2 DUP2 SUB PUSH0 DUP4 ADD MSTORE PUSH2 0xC5C DUP2 PUSH2 0xC23 JUMP JUMPDEST SWAP1 POP SWAP2 SWAP1 POP JUMP JUMPDEST PUSH32 0x496E73756666696369656E742062616C616E6365000000000000000000000000 PUSH0 DUP3 ADD MSTORE POP JUMP JUMPDEST PUSH0 PUSH2 0xC97 PUSH1 0x14 DUP4 PUSH2 0xBEB JUMP JUMPDEST SWAP2 POP PUSH2 0xCA2 DUP3 PUSH2 0xC63 JUMP JUMPDEST PUSH1 0x20 DUP3 ADD SWAP1 POP SWAP2 SWAP1 POP JUMP JUMPDEST PUSH0 PUSH1 0x20 DUP3 ADD SWAP1 POP DUP2 DUP2 SUB PUSH0 DUP4 ADD MSTORE PUSH2 0xCC4 DUP2 PUSH2 0xC8B JUMP JUMPDEST SWAP1 POP SWAP2 SWAP1 POP JUMP JUMPDEST PUSH32 0x4E487B7100000000000000000000000000000000000000000000000000000000 PUSH0 MSTORE PUSH1 0x11 PUSH1 0x4 MSTORE PUSH1 0x24 PUSH0 REVERT JUMPDEST PUSH0 PUSH2 0xD02 DUP3 PUSH2 0xB3E JUMP JUMPDEST SWAP2 POP PUSH2 0xD0D DUP4 PUSH2 0xB3E JUMP JUMPDEST SWAP3 POP DUP3 DUP3 SUB SWAP1 POP DUP2 DUP2 GT ISZERO PUSH2 0xD25 JUMPI PUSH2 0xD24 PUSH2 0xCCB JUMP JUMPDEST JUMPDEST SWAP3 SWAP2 POP POP JUMP JUMPDEST PUSH0 PUSH2 0xD35 DUP3 PUSH2 0xB3E JUMP JUMPDEST SWAP2 POP PUSH32 0xFFFFFFFFFFFFFFFFFFFFFFFFFFFFFFFFFFFFFFFFFFFFFFFFFFFFFFFFFFFFFFFF DUP3 SUB PUSH2 0xD67 JUMPI PUSH2 0xD66 PUSH2 0xCCB JUMP JUMPDEST JUMPDEST PUSH1 0x1 DUP3 ADD SWAP1 POP SWAP2 SWAP1 POP JUMP JUMPDEST PUSH0 DUP2 SWAP1 POP SWAP3 SWAP2 POP POP JUMP JUMPDEST POP JUMP JUMPDEST PUSH0 PUSH2 0xD8A PUSH0 DUP4 PUSH2 0xD72 JUMP JUMPDEST SWAP2 POP PUSH2 0xD95 DUP3 PUSH2 0xD7C JUMP JUMPDEST PUSH0 DUP3 ADD SWAP1 POP SWAP2 SWAP1 POP JUMP JUMPDEST PUSH0 PUSH2 0xDA9 DUP3 PUSH2 0xD7F JUMP JUMPDEST SWAP2 POP DUP2 SWAP1 POP SWAP2 SWAP1 POP JUMP JUMPDEST PUSH32 0x455448207472616E73666572206661696C656400000000000000000000000000 PUSH0 DUP3 ADD MSTORE POP JUMP JUMPDEST PUSH0 PUSH2 0xDE7 PUSH1 0x13 DUP4 PUSH2 0xBEB JUMP JUMPDEST SWAP2 POP PUSH2 0xDF2 DUP3 PUSH2 0xDB3 JUMP JUMPDEST PUSH1 0x20 DUP3 ADD SWAP1 POP SWAP2 SWAP1 POP JUMP JUMPDEST PUSH0 PUSH1 0x20 DUP3 ADD SWAP1 POP DUP2 DUP2 SUB PUSH0 DUP4 ADD MSTORE PUSH2 0xE14 DUP2 PUSH2 0xDDB JUMP JUMPDEST SWAP1 POP SWAP2 SWAP1 POP JUMP JUMPDEST PUSH32 0x7361666557697468647261770000000000000000000000000000000000000000 PUSH0 DUP3 ADD MSTORE POP JUMP JUMPDEST PUSH0 PUSH2 0xE4F PUSH1 0xC DUP4 PUSH2 0xBEB JUMP JUMPDEST SWAP2 POP PUSH2 0xE5A DUP3 PUSH2 0xE1B JUMP JUMPDEST PUSH1 0x20 DUP3 ADD SWAP1 POP SWAP2 SWAP1 POP JUMP JUMPDEST PUSH0 PUSH1 0x40 DUP3 ADD SWAP1 POP PUSH2 0xE78 PUSH0 DUP4 ADD DUP5 PUSH2 0xB47 JUMP JUMPDEST DUP2 DUP2 SUB PUSH1 0x20 DUP4 ADD MSTORE PUSH2 0xE89 DUP2 PUSH2 0xE43 JUMP JUMPDEST SWAP1 POP SWAP3 SWAP2 POP POP JUMP JUMPDEST PUSH32 0x5472616E73666572206661696C65640000000000000000000000000000000000 PUSH0 DUP3 ADD MSTORE POP JUMP JUMPDEST PUSH0 PUSH2 0xEC5 PUSH1 0xF DUP4 PUSH2 0xBEB JUMP JUMPDEST SWAP2 POP PUSH2 0xED0 DUP3 PUSH2 0xE91 JUMP JUMPDEST PUSH1 0x20 DUP3 ADD SWAP1 POP SWAP2 SWAP1 POP JUMP JUMPDEST PUSH0 PUSH1 0x20 DUP3 ADD SWAP1 POP DUP2 DUP2 SUB PUSH0 DUP4 ADD MSTORE PUSH2 0xEF2 DUP2 PUSH2 0xEB9 JUMP JUMPDEST SWAP1 POP SWAP2 SWAP1 POP JUMP JUMPDEST PUSH32 0x76756C6E657261626C6557697468647261770000000000000000000000000000 PUSH0 DUP3 ADD MSTORE POP JUMP JUMPDEST PUSH0 PUSH2 0xF2D PUSH1 0x12 DUP4 PUSH2 0xBEB JUMP JUMPDEST SWAP2 POP PUSH2 0xF38 DUP3 PUSH2 0xEF9 JUMP JUMPDEST PUSH1 0x20 DUP3 ADD SWAP1 POP SWAP2 SWAP1 POP JUMP JUMPDEST PUSH0 PUSH1 0x40 DUP3 ADD SWAP1 POP PUSH2 0xF56 PUSH0 DUP4 ADD DUP5 PUSH2 0xB47 JUMP JUMPDEST DUP2 DUP2 SUB PUSH1 0x20 DUP4 ADD MSTORE PUSH2 0xF67 DUP2 PUSH2 0xF21 JUMP JUMPDEST SWAP1 POP SWAP3 SWAP2 POP POP JUMP JUMPDEST PUSH32 0x4D7573742073656E642045544800000000000000000000000000000000000000 PUSH0 DUP3 ADD MSTORE POP JUMP JUMPDEST PUSH0 PUSH2 0xFA3 PUSH1 0xD DUP4 PUSH2 0xBEB JUMP JUMPDEST SWAP2 POP PUSH2 0xFAE DUP3 PUSH2 0xF6F JUMP JUMPDEST PUSH1 0x20 DUP3 ADD SWAP1 POP SWAP2 SWAP1 POP JUMP JUMPDEST PUSH0 PUSH1 0x20 DUP3 ADD SWAP1 POP DUP2 DUP2 SUB PUSH0 DUP4 ADD MSTORE PUSH2 0xFD0 DUP2 PUSH2 0xF97 JUMP JUMPDEST SWAP1 POP SWAP2 SWAP1 POP JUMP JUMPDEST PUSH0 PUSH2 0xFE1 DUP3 PUSH2 0xB3E JUMP JUMPDEST SWAP2 POP PUSH2 0xFEC DUP4 PUSH2 0xB3E JUMP JUMPDEST SWAP3 POP DUP3 DUP3 ADD SWAP1 POP DUP1 DUP3 GT ISZERO PUSH2 0x1004 JUMPI PUSH2 0x1003 PUSH2 0xCCB JUMP JUMPDEST JUMPDEST SWAP3 SWAP2 POP POP JUMP JUMPDEST PUSH32 0x4E6F2062616C616E636500000000000000000000000000000000000000000000 PUSH0 DUP3 ADD MSTORE POP JUMP JUMPDEST PUSH0 PUSH2 0x103E PUSH1 0xA DUP4 PUSH2 0xBEB JUMP JUMPDEST SWAP2 POP PUSH2 0x1049 DUP3 PUSH2 0x100A JUMP JUMPDEST PUSH1 0x20 DUP3 ADD SWAP1 POP SWAP2 SWAP1 POP JUMP JUMPDEST PUSH0 PUSH1 0x20 DUP3 ADD SWAP1 POP DUP2 DUP2 SUB PUSH0 DUP4 ADD MSTORE PUSH2 0x106B DUP2 PUSH2 0x1032 JUMP JUMPDEST SWAP1 POP SWAP2 SWAP1 POP JUMP JUMPDEST PUSH32 0x656D657267656E63795769746864726177000000000000000000000000000000 PUSH0 DUP3 ADD MSTORE POP JUMP JUMPDEST PUSH0 PUSH2 0x10A6 PUSH1 0x11 DUP4 PUSH2 0xBEB JUMP JUMPDEST SWAP2 POP PUSH2 0x10B1 DUP3 PUSH2 0x1072 JUMP JUMPDEST PUSH1 0x20 DUP3 ADD SWAP1 POP SWAP2 SWAP1 POP JUMP JUMPDEST PUSH0 PUSH1 0x40 DUP3 ADD SWAP1 POP PUSH2 0x10CF PUSH0 DUP4 ADD DUP5 PUSH2 0xB47 JUMP JUMPDEST DUP2 DUP2 SUB PUSH1 0x20 DUP4 ADD MSTORE PUSH2 0x10E0 DUP2 PUSH2 0x109A JUMP JUMPDEST SWAP1 POP SWAP3 SWAP2 POP POP JUMP INVALID LOG2 PUSH5 0x6970667358 0x22 SLT KECCAK256 XOR PUSH30 0x39E16B1B7A619F84D86276F60AD3AD62E6770824DCBBEFB4F287C37912C9 PUSH5 0x736F6C6343 STOP ADDMOD 0x22 STOP CALLER "
		},
		"gasEstimates": {
			"creation": {
				"codeDepositCost": "876400",
				"executionCost": "907",
				"totalCost": "877307"
			},
			"external": {
				"balances(address)": "2802",
				"compareBehavior()": "infinite",
				"contractBalance()": "423",
				"deposit()": "infinite",
				"emergencyWithdraw()": "infinite",
				"safeWithdrawCounter()": "2492",
				"totalDeposits()": "2470",
				"unsafeWithdrawCounter()": "2513",
				"vulnerableWithdraw(uint256)": "infinite",
				"withdraw(uint256)": "infinite"
			}
		},
		"methodIdentifiers": {
			"balances(address)": "27e235e3",
			"compareBehavior()": "930dc71f",
			"contractBalance()": "8b7afe2e",
			"deposit()": "d0e30db0",
			"emergencyWithdraw()": "db2e21bc",
			"safeWithdrawCounter()": "84b4c56c",
			"totalDeposits()": "7d882097",
			"unsafeWithdrawCounter()": "f68b2353",
			"vulnerableWithdraw(uint256)": "cc817673",
			"withdraw(uint256)": "2e1a7d4d"
		}
	},
	"abi": [
		{
			"anonymous": false,
			"inputs": [
				{
					"indexed": true,
					"internalType": "address",
					"name": "user",
					"type": "address"
				},
				{
					"indexed": false,
					"internalType": "uint256",
					"name": "amount",
					"type": "uint256"
				}
			],
			"name": "Deposit",
			"type": "event"
		},
		{
			"anonymous": false,
			"inputs": [
				{
					"indexed": true,
					"internalType": "address",
					"name": "target",
					"type": "address"
				},
				{
					"indexed": false,
					"internalType": "uint256",
					"name": "amount",
					"type": "uint256"
				}
			],
			"name": "ExternalCall",
			"type": "event"
		},
		{
			"anonymous": false,
			"inputs": [
				{
					"indexed": true,
					"internalType": "address",
					"name": "attacker",
					"type": "address"
				}
			],
			"name": "ReentrancyBlocked",
			"type": "event"
		},
		{
			"anonymous": false,
			"inputs": [
				{
					"indexed": true,
					"internalType": "address",
					"name": "user",
					"type": "address"
				},
				{
					"indexed": false,
					"internalType": "uint256",
					"name": "amount",
					"type": "uint256"
				},
				{
					"indexed": false,
					"internalType": "string",
					"name": "method",
					"type": "string"
				}
			],
			"name": "Withdraw",
			"type": "event"
		},
		{
			"inputs": [
				{
					"internalType": "address",
					"name": "",
					"type": "address"
				}
			],
			"name": "balances",
			"outputs": [
				{
					"internalType": "uint256",
					"name": "",
					"type": "uint256"
				}
			],
			"stateMutability": "view",
			"type": "function"
		},
		{
			"inputs": [],
			"name": "compareBehavior",
			"outputs": [
				{
					"internalType": "uint256",
					"name": "safeExecutions",
					"type": "uint256"
				},
				{
					"internalType": "uint256",
					"name": "unsafeExecutions",
					"type": "uint256"
				}
			],
			"stateMutability": "view",
			"type": "function"
		},
		{
			"inputs": [],
			"name": "contractBalance",
			"outputs": [
				{
					"internalType": "uint256",
					"name": "",
					"type": "uint256"
				}
			],
			"stateMutability": "view",
			"type": "function"
		},
		{
			"inputs": [],
			"name": "deposit",
			"outputs": [],
			"stateMutability": "payable",
			"type": "function"
		},
		{
			"inputs": [],
			"name": "emergencyWithdraw",
			"outputs": [],
			"stateMutability": "nonpayable",
			"type": "function"
		},
		{
			"inputs": [],
			"name": "safeWithdrawCounter",
			"outputs": [
				{
					"internalType": "uint256",
					"name": "",
					"type": "uint256"
				}
			],
			"stateMutability": "view",
			"type": "function"
		},
		{
			"inputs": [],
			"name": "totalDeposits",
			"outputs": [
				{
					"internalType": "uint256",
					"name": "",
					"type": "uint256"
				}
			],
			"stateMutability": "view",
			"type": "function"
		},
		{
			"inputs": [],
			"name": "unsafeWithdrawCounter",
			"outputs": [
				{
					"internalType": "uint256",
					"name": "",
					"type": "uint256"
				}
			],
			"stateMutability": "view",
			"type": "function"
		},
		{
			"inputs": [
				{
					"internalType": "uint256",
					"name": "_amount",
					"type": "uint256"
				}
			],
			"name": "vulnerableWithdraw",
			"outputs": [],
			"stateMutability": "nonpayable",
			"type": "function"
		},
		{
			"inputs": [
				{
					"internalType": "uint256",
					"name": "_amount",
					"type": "uint256"
				}
			],
			"name": "withdraw",
			"outputs": [],
			"stateMutability": "nonpayable",
			"type": "function"
		}
	]
}