{
	"data": {
		"bytecode": {
			"linkReferences": {},
			"object": "6080604052348015600e575f5ffd5b506104bb8061001c5f395ff3fe608060405234801561000f575f5ffd5b5060043610610085575f3560e01c806378df2a531161005957806378df2a53146100ed5780639e258efe1461010b578063a19083761461013b578063be1c766b1461014557610085565b8062ee96771461008957806307a73613146100a75780631bb85777146100c55780633a4f096d146100e3575b5f5ffd5b610091610163565b60405161009e9190610326565b60405180910390f35b6100af610169565b6040516100bc9190610326565b60405180910390f35b6100cd61016f565b6040516100da9190610326565b60405180910390f35b6100eb610175565b005b6100f561020a565b6040516101029190610326565b60405180910390f35b6101256004803603810190610120919061036d565b610210565b6040516101329190610326565b60405180910390f35b610143610234565b005b61014d6102f1565b60405161015a9190610326565b60405180910390f35b60015481565b60025481565b60045481565b5f5a90505f5f90505b6103e88110156101d1575f604051806020016040528083815250908060018154018082558091505060019003905f5260205f20015f909190919091505f820151815f01555050808060010191505061017e565b506103e860015f8282546101e591906103c5565b925050819055506103e76002819055505a8161020191906103f8565b60038190555050565b60035481565b5f818154811061021e575f80fd5b905f5260205f20015f91509050805f0154905081565b5f5a90505f6103e867ffffffffffffffff8111156102555761025461042b565b5b60405190808252806020026020018201604052801561028e57816020015b61027b6102fc565b8152602001906001900390816102735790505b5090505f5f90505b6103e88110156102da576040518060200160405280828152508282815181106102c2576102c1610458565b5b60200260200101819052508080600101915050610296565b505a826102e791906103f8565b6004819055505050565b5f5f80549050905090565b60405180602001604052805f81525090565b5f819050919050565b6103208161030e565b82525050565b5f6020820190506103395f830184610317565b92915050565b5f5ffd5b61034c8161030e565b8114610356575f5ffd5b50565b5f8135905061036781610343565b92915050565b5f602082840312156103825761038161033f565b5b5f61038f84828501610359565b91505092915050565b7f4e487b71000000000000000000000000000000000000000000000000000000005f52601160045260245ffd5b5f6103cf8261030e565b91506103da8361030e565b92508282019050808211156103f2576103f1610398565b5b92915050565b5f6104028261030e565b915061040d8361030e565b925082820390508181111561042557610424610398565b5b92915050565b7f4e487b71000000000000000000000000000000000000000000000000000000005f52604160045260245ffd5b7f4e487b71000000000000000000000000000000000000000000000000000000005f52603260045260245ffdfea264697066735822122095bdd719fcb3ee7cc308d1b9a3c0adee90fba00bd82350c21fa732b164f7e5c164736f6c63430008220033",
			"opcodes": "PUSH1 0x80 PUSH1 0x40 MSTORE CALLVALUE DUP1 ISZERO PUSH1 0xE JUMPI PUSH0 PUSH0 REVERT JUMPDEST POP PUSH2 0x4BB DUP1 PUSH2 0x1C PUSH0 CODECOPY PUSH0 RETURN INVALID PUSH1 0x80 PUSH1 0x40 MSTORE CALLVALUE DUP1 ISZERO PUSH2 0xF JUMPI PUSH0 PUSH0 REVERT JUMPDEST POP PUSH1 0x4 CALLDATASIZE LT PUSH2 0x85 JUMPI PUSH0 CALLDATALOAD PUSH1 0xE0 SHR DUP1 PUSH4 0x78DF2A53 GT PUSH2 0x59 JUMPI DUP1 PUSH4 0x78DF2A53 EQ PUSH2 0xED JUMPI DUP1 PUSH4 0x9E258EFE EQ PUSH2 0x10B JUMPI DUP1 PUSH4 0xA1908376 EQ PUSH2 0x13B JUMPI DUP1 PUSH4 0xBE1C766B EQ PUSH2 0x145 JUMPI PUSH2 0x85 JUMP JUMPDEST DUP1 PUSH3 0xEE9677 EQ PUSH2 0x89 JUMPI DUP1 PUSH4 0x7A73613 EQ PUSH2 0xA7 JUMPI DUP1 PUSH4 0x1BB85777 EQ PUSH2 0xC5 JUMPI DUP1 PUSH4 0x3A4F096D EQ PUSH2 0xE3 JUMPI JUMPDEST PUSH0 PUSH0 REVERT JUMPDEST PUSH2 0x91 PUSH2 0x163 JUMP JUMPDEST PUSH1 0x40 MLOAD PUSH2 0x9E SWAP2 SWAP1 PUSH2 0x326 JUMP JUMPDEST PUSH1 0x40 MLOAD DUP1 SWAP2 SUB SWAP1 RETURN JUMPDEST PUSH2 0xAF PUSH2 0x169 JUMP JUMPDEST PUSH1 0x40 MLOAD PUSH2 0xBC SWAP2 SWAP1 PUSH2 0x326 JUMP JUMPDEST PUSH1 0x40 MLOAD DUP1 SWAP2 SUB SWAP1 RETURN JUMPDEST PUSH2 0xCD PUSH2 0x16F JUMP JUMPDEST PUSH1 0x40 MLOAD PUSH2 0xDA SWAP2 SWAP1 PUSH2 0x326 JUMP JUMPDEST PUSH1 0x40 MLOAD DUP1 SWAP2 SUB SWAP1 RETURN JUMPDEST PUSH2 0xEB PUSH2 0x175 JUMP JUMPDEST STOP JUMPDEST PUSH2 0xF5 PUSH2 0x20A JUMP JUMPDEST PUSH1 0x40 MLOAD PUSH2 0x102 SWAP2 SWAP1 PUSH2 0x326 JUMP JUMPDEST PUSH1 0x40 MLOAD DUP1 SWAP2 SUB SWAP1 RETURN JUMPDEST PUSH2 0x125 PUSH1 0x4 DUP1 CALLDATASIZE SUB DUP2 ADD SWAP1 PUSH2 0x120 SWAP2 SWAP1 PUSH2 0x36D JUMP JUMPDEST PUSH2 0x210 JUMP JUMPDEST PUSH1 0x40 MLOAD PUSH2 0x132 SWAP2 SWAP1 PUSH2 0x326 JUMP JUMPDEST PUSH1 0x40 MLOAD DUP1 SWAP2 SUB SWAP1 RETURN JUMPDEST PUSH2 0x143 PUSH2 0x234 JUMP JUMPDEST STOP JUMPDEST PUSH2 0x14D PUSH2 0x2F1 JUMP JUMPDEST PUSH1 0x40 MLOAD PUSH2 0x15A SWAP2 SWAP1 PUSH2 0x326 JUMP JUMPDEST PUSH1 0x40 MLOAD DUP1 SWAP2 SUB SWAP1 RETURN JUMPDEST PUSH1 0x1 SLOAD DUP2 JUMP JUMPDEST PUSH1 0x2 SLOAD DUP2 JUMP JUMPDEST PUSH1 0x4 SLOAD DUP2 JUMP JUMPDEST PUSH0 GAS SWAP1 POP PUSH0 PUSH0 SWAP1 POP JUMPDEST PUSH2 0x3E8 DUP2 LT ISZERO PUSH2 0x1D1 JUMPI PUSH0 PUSH1 0x40 MLOAD DUP1 PUSH1 0x20 ADD PUSH1 0x40 MSTORE DUP1 DUP4 DUP2 MSTORE POP SWAP1 DUP1 PUSH1 0x1 DUP2 SLOAD ADD DUP1 DUP3 SSTORE DUP1 SWAP2 POP POP PUSH1 0x1 SWAP1 SUB SWAP1 PUSH0 MSTORE PUSH1 0x20 PUSH0 KECCAK256 ADD PUSH0 SWAP1 SWAP2 SWAP1 SWAP2 SWAP1 SWAP2 POP PUSH0 DUP3 ADD MLOAD DUP2 PUSH0 ADD SSTORE POP POP DUP1 DUP1 PUSH1 0x1 ADD SWAP2 POP POP PUSH2 0x17E JUMP JUMPDEST POP PUSH2 0x3E8 PUSH1 0x1 PUSH0 DUP3 DUP3 SLOAD PUSH2 0x1E5 SWAP2 SWAP1 PUSH2 0x3C5 JUMP JUMPDEST SWAP3 POP POP DUP2 SWAP1 SSTORE POP PUSH2 0x3E7 PUSH1 0x2 DUP2 SWAP1 SSTORE POP GAS DUP2 PUSH2 0x201 SWAP2 SWAP1 PUSH2 0x3F8 JUMP JUMPDEST PUSH1 0x3 DUP2 SWAP1 SSTORE POP POP JUMP JUMPDEST PUSH1 0x3 SLOAD DUP2 JUMP JUMPDEST PUSH0 DUP2 DUP2 SLOAD DUP2 LT PUSH2 0x21E JUMPI PUSH0 DUP1 REVERT JUMPDEST SWAP1 PUSH0 MSTORE PUSH1 0x20 PUSH0 KECCAK256 ADD PUSH0 SWAP2 POP SWAP1 POP DUP1 PUSH0 ADD SLOAD SWAP1 POP DUP2 JUMP JUMPDEST PUSH0 GAS SWAP1 POP PUSH0 PUSH2 0x3E8 PUSH8 0xFFFFFFFFFFFFFFFF DUP2 GT ISZERO PUSH2 0x255 JUMPI PUSH2 0x254 PUSH2 0x42B JUMP JUMPDEST JUMPDEST PUSH1 0x40 MLOAD SWAP1 DUP1 DUP3 MSTORE DUP1 PUSH1 0x20 MUL PUSH1 0x20 ADD DUP3 ADD PUSH1 0x40 MSTORE DUP1 ISZERO PUSH2 0x28E JUMPI DUP2 PUSH1 0x20 ADD JUMPDEST PUSH2 0x27B PUSH2 0x2FC JUMP JUMPDEST DUP2 MSTORE PUSH1 0x20 ADD SWAP1 PUSH1 0x1 SWAP1 SUB SWAP1 DUP2 PUSH2 0x273 JUMPI SWAP1 POP JUMPDEST POP SWAP1 POP PUSH0 PUSH0 SWAP1 POP JUMPDEST PUSH2 0x3E8 DUP2 LT ISZERO PUSH2 0x2DA JUMPI PUSH1 0x40 MLOAD DUP1 PUSH1 0x20 ADD PUSH1 0x40 MSTORE DUP1 DUP3 DUP2 MSTORE POP DUP3 DUP3 DUP2 MLOAD DUP2 LT PUSH2 0x2C2 JUMPI PUSH2 0x2C1 PUSH2 0x458 JUMP JUMPDEST JUMPDEST PUSH1 0x20 MUL PUSH1 0x20 ADD ADD DUP2 SWAP1 MSTORE POP DUP1 DUP1 PUSH1 0x1 ADD SWAP2 POP POP PUSH2 0x296 JUMP JUMPDEST POP GAS DUP3 PUSH2 0x2E7 SWAP2 SWAP1 PUSH2 0x3F8 JUMP JUMPDEST PUSH1 0x4 DUP2 SWAP1 SSTORE POP POP POP JUMP JUMPDEST PUSH0 PUSH0 DUP1 SLOAD SWAP1 POP SWAP1 POP SWAP1 JUMP JUMPDEST PUSH1 0x40 MLOAD DUP1 PUSH1 0x20 ADD PUSH1 0x40 MSTORE DUP1 PUSH0 DUP2 MSTORE POP SWAP1 JUMP JUMPDEST PUSH0 DUP2 SWAP1 POP SWAP2 SWAP1 POP JUMP JUMPDEST PUSH2 0x320 DUP2 PUSH2 0x30E JUMP JUMPDEST DUP3 MSTORE POP POP JUMP JUMPDEST PUSH0 PUSH1 0x20 DUP3 ADD SWAP1 POP PUSH2 0x339 PUSH0 DUP4 ADD DUP5 PUSH2 0x317 JUMP JUMPDEST SWAP3 SWAP2 POP POP JUMP JUMPDEST PUSH0 PUSH0 REVERT JUMPDEST PUSH2 0x34C DUP2 PUSH2 0x30E JUMP JUMPDEST DUP2 EQ PUSH2 0x356 JUMPI PUSH0 PUSH0 REVERT JUMPDEST POP JUMP JUMPDEST PUSH0 DUP2 CALLDATALOAD SWAP1 POP PUSH2 0x367 DUP2 PUSH2 0x343 JUMP JUMPDEST SWAP3 SWAP2 POP POP JUMP JUMPDEST PUSH0 PUSH1 0x20 DUP3 DUP5 SUB SLT ISZERO PUSH2 0x382 JUMPI PUSH2 0x381 PUSH2 0x33F JUMP JUMPDEST JUMPDEST PUSH0 PUSH2 0x38F DUP5 DUP3 DUP6 ADD PUSH2 0x359 JUMP JUMPDEST SWAP2 POP POP SWAP3 SWAP2 POP POP JUMP JUMPDEST PUSH32 0x4E487B7100000000000000000000000000000000000000000000000000000000 PUSH0 MSTORE PUSH1 0x11 PUSH1 0x4 MSTORE PUSH1 0x24 PUSH0 REVERT JUMPDEST PUSH0 PUSH2 0x3CF DUP3 PUSH2 0x30E JUMP JUMPDEST SWAP2 POP PUSH2 0x3DA DUP4 PUSH2 0x30E JUMP JUMPDEST SWAP3 POP DUP3 DUP3 ADD SWAP1 POP DUP1 DUP3 GT ISZERO PUSH2 0x3F2 JUMPI PUSH2 0x3F1 PUSH2 0x398 JUMP JUMPDEST JUMPDEST SWAP3 SWAP2 POP POP JUMP JUMPDEST PUSH0 PUSH2 0x402 DUP3 PUSH2 0x30E JUMP JUMPDEST SWAP2 POP PUSH2 0x40D DUP4 PUSH2 0x30E JUMP JUMPDEST SWAP3 POP DUP3 DUP3 SUB SWAP1 POP DUP2 DUP2 GT ISZERO PUSH2 0x425 JUMPI PUSH2 0x424 PUSH2 0x398 JUMP JUMPDEST JUMPDEST SWAP3 SWAP2 POP POP JUMP JUMPDEST PUSH32 0x4E487B7100000000000000000000000000000000000000000000000000000000 PUSH0 MSTORE PUSH1 0x41 PUSH1 0x4 MSTORE PUSH1 0x24 PUSH0 REVERT JUMPDEST PUSH32 0x4E487B7100000000000000000000000000000000000000000000000000000000 PUSH0 MSTORE PUSH1 0x32 PUSH1 0x4 MSTORE PUSH1 0x24 PUSH0 REVERT INVALID LOG2 PUSH5 0x6970667358 0x22 SLT KECCAK256 SWAP6 0xBD 0xD7 NOT 0xFC 0xB3 RETURNCONTRACT 0x7C 0xC3 ADDMOD DATALOADN 0xB9A3 0xC0 0xAD RETURNCONTRACT 0x90 EXTSTATICCALL LOG0 SIGNEXTEND 0xD8 0x23 POP 0xC2 0x1F 0xA7 ORIGIN 0xB1 PUSH5 0xF7E5C16473 PUSH16 0x6C634300082200330000000000000000 "
		},
		"gasEstimates": {
			"creation": {
				"codeDepositCost": "242200",
				"executionCost": "279",
				"totalCost": "242479"
			},
			"external": {
				"gasUsedMemory()": "2470",
				"gasUsedStorage()": "2425",
				"getLength()": "2505",
				"lastStoredValue()": "2448",
				"memoryVersion()": "infinite",
				"store1000Values()": "infinite",
				"storedValues(uint256)": "infinite",
				"totalWrites()": "2426"
			}
		},
		"methodIdentifiers": {
			"gasUsedMemory()": "1bb85777",
			"gasUsedStorage()": "78df2a53",
			"getLength()": "be1c766b",
			"lastStoredValue()": "07a73613",
			"memoryVersion()": "a1908376",
			"store1000Values()": "3a4f096d",
			"storedValues(uint256)": "9e258efe",
			"totalWrites()": "00ee9677"
		}
	},
	"abi": [
		{
			"inputs": [],
			"name": "gasUsedMemory",
			"outputs": [
				{
					"internalType": "uint256",
					"name": "",
					"type": "uint256"
				}
			],
			"stateMutability": "view",
			"type": "function"
		},
		{
			"inputs": [],
			"name": "gasUsedStorage",
			"outputs": [
				{
					"internalType": "uint256",
					"name": "",
					"type": "uint256"
				}
			],
			"stateMutability": "view",
			"type": "function"
		},
		{
			"inputs": [],
			"name": "getLength",
			"outputs": [
				{
					"internalType": "uint256",
					"name": "",
					"type": "uint256"
				}
			],
			"stateMutability": "view",
			"type": "function"
		},
		{
			"inputs": [],
			"name": "lastStoredValue",
			"outputs": [
				{
					"internalType": "uint256",
					"name": "",
					"type": "uint256"
				}
			],
			"stateMutability": "view",
			"type": "function"
		},
		{
			"inputs": [],
			"name": "memoryVersion",
			"outputs": [],
			"stateMutability": "nonpayable",
			"type": "function"
		},
		{
			"inputs": [],
			"name": "store1000Values",
			"outputs": [],
			"stateMutability": "nonpayable",
			"type": "function"
		},
		{
			"inputs": [
				{
					"internalType": "uint256",
					"name": "",
					"type": "uint256"
				}
			],
			"name": "storedValues",
			"outputs": [
				{
					"internalType": "uint256",
					"name": "value",
					"type": "uint256"
				}
			],
			"stateMutability": "view",
			"type": "function"
		},
		{
			"inputs": [],
			"name": "totalWrites",
			"outputs": [
				{
					"internalType": "uint256",
					"name": "",
					"type": "uint256"
				}
			],
			"stateMutability": "view",
			"type": "function"
		}
	]
}