{
	"data": {
		"bytecode": {
			"linkReferences": {},
			"object": "6080604052348015600e575f5ffd5b50610d5d8061001c5f395ff3fe60806040526004361061007a575f3560e01c80635bb113b51161004d5780635bb113b5146101375780638b7afe2e14610161578063b0fd035b1461018b578063d0e30db0146101b35761007a565b80630aa3af4b1461007e57806327e235e3146100a85780632e1a7d4d146100e45780633fd85cb41461010c575b5f5ffd5b348015610089575f5ffd5b506100926101bd565b60405161009f9190610852565b60405180910390f35b3480156100b3575f5ffd5b506100ce60048036038101906100c991906108c9565b6101c3565b6040516100db9190610852565b60405180910390f35b3480156100ef575f5ffd5b5061010a6004803603810190610105919061091e565b6101d7565b005b348015610117575f5ffd5b50610120610488565b60405161012e929190610949565b60405180910390f35b348015610142575f5ffd5b5061014b610498565b6040516101589190610852565b60405180910390f35b34801561016c575f5ffd5b5061017561049e565b6040516101829190610852565b60405180910390f35b348015610196575f5ffd5b506101b160048036038101906101ac919061091e565b6104a5565b005b6101bb610756565b005b60025481565b5f602052805f5260405f205f915090505481565b60015f9054906101000a900460ff1615610226576040517f08c379a000000000000000000000000000000000000000000000000000000000815260040161021d906109ca565b60405180910390fd5b6001805f6101000a81548160ff021916908315150217905550805f5f3373ffffffffffffffffffffffffffffffffffffffff1673ffffffffffffffffffffffffffffffffffffffff1681526020019081526020015f205410156102be576040517f08c379a00000000000000000000000000000000000000000000000000000000081526004016102b590610a32565b60405180910390fd5b805f5f3373ffffffffffffffffffffffffffffffffffffffff1673ffffffffffffffffffffffffffffffffffffffff1681526020019081526020015f205f8282546103099190610a7d565b9250508190555060025f81548092919061032290610ab0565b91905055505f3373ffffffffffffffffffffffffffffffffffffffff168260405161034c90610b24565b5f6040518083038185875af1925050503d805f8114610386576040519150601f19603f3d011682016040523d82523d5f602084013e61038b565b606091505b505090503373ffffffffffffffffffffffffffffffffffffffff167fc10f40ee88ce999058c155464bf55cea75c4ffd7e79bae05ed14b08a3758c84e836040516103d59190610852565b60405180910390a28061041d576040517f08c379a000000000000000000000000000000000000000000000000000000000815260040161041490610b82565b60405180910390fd5b3373ffffffffffffffffffffffffffffffffffffffff167f485f1bb6524c663555797e00171a10f341656e59b02d6b557a0a38ba7d5d9751836040516104639190610bea565b60405180910390a2505f60015f6101000a81548160ff02191690831515021790555050565b5f5f600254600354915091509091565b60035481565b5f47905090565b60015f9054906101000a900460ff16156104f4576040517f08c379a00000000000000000000000000000000000000000000000000000000081526004016104eb906109ca565b60405180910390fd5b6001805f6101000a81548160ff021916908315150217905550805f5f3373ffffffffffffffffffffffffffffffffffffffff1673ffffffffffffffffffffffffffffffffffffffff1681526020019081526020015f2054101561058c576040517f08c379a000000000000000000000000000000000000000000000000000000000815260040161058390610a32565b60405180910390fd5b805f5f3373ffffffffffffffffffffffffffffffffffffffff1673ffffffffffffffffffffffffffffffffffffffff1681526020019081526020015f205f8282546105d79190610a7d565b9250508190555060035f8154809291906105f090610ab0565b91905055505f3373ffffffffffffffffffffffffffffffffffffffff168260405161061a90610b24565b5f6040518083038185875af1925050503d805f8114610654576040519150601f19603f3d011682016040523d82523d5f602084013e610659565b606091505b505090503373ffffffffffffffffffffffffffffffffffffffff167fc10f40ee88ce999058c155464bf55cea75c4ffd7e79bae05ed14b08a3758c84e836040516106a39190610852565b60405180910390a2806106eb576040517f08c379a00000000000000000000000000000000000000000000000000000000081526004016106e290610b82565b60405180910390fd5b3373ffffffffffffffffffffffffffffffffffffffff167f485f1bb6524c663555797e00171a10f341656e59b02d6b557a0a38ba7d5d9751836040516107319190610c60565b60405180910390a2505f60015f6101000a81548160ff02191690831515021790555050565b5f3411610798576040517f08c379a000000000000000000000000000000000000000000000000000000000815260040161078f90610cd6565b60405180910390fd5b345f5f3373ffffffffffffffffffffffffffffffffffffffff1673ffffffffffffffffffffffffffffffffffffffff1681526020019081526020015f205f8282546107e39190610cf4565b925050819055503373ffffffffffffffffffffffffffffffffffffffff167fe1fffcc4923d04b559f4d29a8bfc6cda04eb5b0d3c460751c2402c5c5cc9109c346040516108309190610852565b60405180910390a2565b5f819050919050565b61084c8161083a565b82525050565b5f6020820190506108655f830184610843565b92915050565b5f5ffd5b5f73ffffffffffffffffffffffffffffffffffffffff82169050919050565b5f6108988261086f565b9050919050565b6108a88161088e565b81146108b2575f5ffd5b50565b5f813590506108c38161089f565b92915050565b5f602082840312156108de576108dd61086b565b5b5f6108eb848285016108b5565b91505092915050565b6108fd8161083a565b8114610907575f5ffd5b50565b5f81359050610918816108f4565b92915050565b5f602082840312156109335761093261086b565b5b5f6109408482850161090a565b91505092915050565b5f60408201905061095c5f830185610843565b6109696020830184610843565b9392505050565b5f82825260208201905092915050565b7f5265656e7472616e6379206465746563746564000000000000000000000000005f82015250565b5f6109b4601383610970565b91506109bf82610980565b602082019050919050565b5f6020820190508181035f8301526109e1816109a8565b9050919050565b7f496e73756666696369656e742062616c616e63650000000000000000000000005f82015250565b5f610a1c601483610970565b9150610a27826109e8565b602082019050919050565b5f6020820190508181035f830152610a4981610a10565b9050919050565b7f4e487b71000000000000000000000000000000000000000000000000000000005f52601160045260245ffd5b5f610a878261083a565b9150610a928361083a565b9250828203905081811115610aaa57610aa9610a50565b5b92915050565b5f610aba8261083a565b91507fffffffffffffffffffffffffffffffffffffffffffffffffffffffffffffffff8203610aec57610aeb610a50565b5b600182019050919050565b5f81905092915050565b50565b5f610b0f5f83610af7565b9150610b1a82610b01565b5f82019050919050565b5f610b2e82610b04565b9150819050919050565b7f5472616e73666572206661696c656400000000000000000000000000000000005f82015250565b5f610b6c600f83610970565b9150610b7782610b38565b602082019050919050565b5f6020820190508181035f830152610b9981610b60565b9050919050565b7f70617463686564576974686472617700000000000000000000000000000000005f82015250565b5f610bd4600f83610970565b9150610bdf82610ba0565b602082019050919050565b5f604082019050610bfd5f830184610843565b8181036020830152610c0e81610bc8565b905092915050565b7f73616665576974686472617700000000000000000000000000000000000000005f82015250565b5f610c4a600c83610970565b9150610c5582610c16565b602082019050919050565b5f604082019050610c735f830184610843565b8181036020830152610c8481610c3e565b905092915050565b7f4d7573742073656e6420455448000000000000000000000000000000000000005f82015250565b5f610cc0600d83610970565b9150610ccb82610c8c565b602082019050919050565b5f6020820190508181035f830152610ced81610cb4565b9050919050565b5f610cfe8261083a565b9150610d098361083a565b9250828201905080821115610d2157610d20610a50565b5b9291505056fea2646970667358221220102ce4b9797ab96e08482ed9c29495b36a659efddd92843dc3e5cd8cfc63f7d764736f6c63430008220033",
			"opcodes": "PUSH1 0x80 PUSH1 0x40 MSTORE CALLVALUE DUP1 ISZERO PUSH1 0xE JUMPI PUSH0 PUSH0 REVERT JUMPDEST POP PUSH2 0xD5D DUP1 PUSH2 0x1C PUSH0 CODECOPY PUSH0 RETURN INVALID PUSH1 0x80 PUSH1 0x40 MSTORE PUSH1 0x4 CALLDATASIZE LT PUSH2 0x7A JUMPI PUSH0 CALLDATALOAD PUSH1 0xE0 SHR DUP1 PUSH4 0x5BB113B5 GT PUSH2 0x4D JUMPI DUP1 PUSH4 0x5BB113B5 EQ PUSH2 0x137 JUMPI DUP1 PUSH4 0x8B7AFE2E EQ PUSH2 0x161 JUMPI DUP1 PUSH4 0xB0FD035B EQ PUSH2 0x18B JUMPI DUP1 PUSH4 0xD0E30DB0 EQ PUSH2 0x1B3 JUMPI PUSH2 0x7A JUMP JUMPDEST DUP1 PUSH4 0xAA3AF4B EQ PUSH2 0x7E JUMPI DUP1 PUSH4 0x27E235E3 EQ PUSH2 0xA8 JUMPI DUP1 PUSH4 0x2E1A7D4D EQ PUSH2 0xE4 JUMPI DUP1 PUSH4 0x3FD85CB4 EQ PUSH2 0x10C JUMPI JUMPDEST PUSH0 PUSH0 REVERT JUMPDEST CALLVALUE DUP1 ISZERO PUSH2 0x89 JUMPI PUSH0 PUSH0 REVERT JUMPDEST POP PUSH2 0x92 PUSH2 0x1BD JUMP JUMPDEST PUSH1 0x40 MLOAD PUSH2 0x9F SWAP2 SWAP1 PUSH2 0x852 JUMP JUMPDEST PUSH1 0x40 MLOAD DUP1 SWAP2 SUB SWAP1 RETURN JUMPDEST CALLVALUE DUP1 ISZERO PUSH2 0xB3 JUMPI PUSH0 PUSH0 REVERT JUMPDEST POP PUSH2 0xCE PUSH1 0x4 DUP1 CALLDATASIZE SUB DUP2 ADD SWAP1 PUSH2 0xC9 SWAP2 SWAP1 PUSH2 0x8C9 JUMP JUMPDEST PUSH2 0x1C3 JUMP JUMPDEST PUSH1 0x40 MLOAD PUSH2 0xDB SWAP2 SWAP1 PUSH2 0x852 JUMP JUMPDEST PUSH1 0x40 MLOAD DUP1 SWAP2 SUB SWAP1 RETURN JUMPDEST CALLVALUE DUP1 ISZERO PUSH2 0xEF JUMPI PUSH0 PUSH0 REVERT JUMPDEST POP PUSH2 0x10A PUSH1 0x4 DUP1 CALLDATASIZE SUB DUP2 ADD SWAP1 PUSH2 0x105 SWAP2 SWAP1 PUSH2 0x91E JUMP JUMPDEST PUSH2 0x1D7 JUMP JUMPDEST STOP JUMPDEST CALLVALUE DUP1 ISZERO PUSH2 0x117 JUMPI PUSH0 PUSH0 REVERT JUMPDEST POP PUSH2 0x120 PUSH2 0x488 JUMP JUMPDEST PUSH1 0x40 MLOAD PUSH2 0x12E SWAP3 SWAP2 SWAP1 PUSH2 0x949 JUMP JUMPDEST PUSH1 0x40 MLOAD DUP1 SWAP2 SUB SWAP1 RETURN JUMPDEST CALLVALUE DUP1 ISZERO PUSH2 0x142 JUMPI PUSH0 PUSH0 REVERT JUMPDEST POP PUSH2 0x14B PUSH2 0x498 JUMP JUMPDEST PUSH1 0x40 MLOAD PUSH2 0x158 SWAP2 SWAP1 PUSH2 0x852 JUMP JUMPDEST PUSH1 0x40 MLOAD DUP1 SWAP2 SUB SWAP1 RETURN JUMPDEST CALLVALUE DUP1 ISZERO PUSH2 0x16C JUMPI PUSH0 PUSH0 REVERT JUMPDEST POP PUSH2 0x175 PUSH2 0x49E JUMP JUMPDEST PUSH1 0x40 MLOAD PUSH2 0x182 SWAP2 SWAP1 PUSH2 0x852 JUMP JUMPDEST PUSH1 0x40 MLOAD DUP1 SWAP2 SUB SWAP1 RETURN JUMPDEST CALLVALUE DUP1 ISZERO PUSH2 0x196 JUMPI PUSH0 PUSH0 REVERT JUMPDEST POP PUSH2 0x1B1 PUSH1 0x4 DUP1 CALLDATASIZE SUB DUP2 ADD SWAP1 PUSH2 0x1AC SWAP2 SWAP1 PUSH2 0x91E JUMP JUMPDEST PUSH2 0x4A5 JUMP JUMPDEST STOP JUMPDEST PUSH2 0x1BB PUSH2 0x756 JUMP JUMPDEST STOP JUMPDEST PUSH1 0x2 SLOAD DUP2 JUMP JUMPDEST PUSH0 PUSH1 0x20 MSTORE DUP1 PUSH0 MSTORE PUSH1 0x40 PUSH0 KECCAK256 PUSH0 SWAP2 POP SWAP1 POP SLOAD DUP2 JUMP JUMPDEST PUSH1 0x1 PUSH0 SWAP1 SLOAD SWAP1 PUSH2 0x100 EXP SWAP1 DIV PUSH1 0xFF AND ISZERO PUSH2 0x226 JUMPI PUSH1 0x40 MLOAD PUSH32 0x8C379A000000000000000000000000000000000000000000000000000000000 DUP2 MSTORE PUSH1 0x4 ADD PUSH2 0x21D SWAP1 PUSH2 0x9CA JUMP JUMPDEST PUSH1 0x40 MLOAD DUP1 SWAP2 SUB SWAP1 REVERT JUMPDEST PUSH1 0x1 DUP1 PUSH0 PUSH2 0x100 EXP DUP2 SLOAD DUP2 PUSH1 0xFF MUL NOT AND SWAP1 DUP4 ISZERO ISZERO MUL OR SWAP1 SSTORE POP DUP1 PUSH0 PUSH0 CALLER PUSH20 0xFFFFFFFFFFFFFFFFFFFFFFFFFFFFFFFFFFFFFFFF AND PUSH20 0xFFFFFFFFFFFFFFFFFFFFFFFFFFFFFFFFFFFFFFFF AND DUP2 MSTORE PUSH1 0x20 ADD SWAP1 DUP2 MSTORE PUSH1 0x20 ADD PUSH0 KECCAK256 SLOAD LT ISZERO PUSH2 0x2BE JUMPI PUSH1 0x40 MLOAD PUSH32 0x8C379A000000000000000000000000000000000000000000000000000000000 DUP2 MSTORE PUSH1 0x4 ADD PUSH2 0x2B5 SWAP1 PUSH2 0xA32 JUMP JUMPDEST PUSH1 0x40 MLOAD DUP1 SWAP2 SUB SWAP1 REVERT JUMPDEST DUP1 PUSH0 PUSH0 CALLER PUSH20 0xFFFFFFFFFFFFFFFFFFFFFFFFFFFFFFFFFFFFFFFF AND PUSH20 0xFFFFFFFFFFFFFFFFFFFFFFFFFFFFFFFFFFFFFFFF AND DUP2 MSTORE PUSH1 0x20 ADD SWAP1 DUP2 MSTORE PUSH1 0x20 ADD PUSH0 KECCAK256 PUSH0 DUP3 DUP3 SLOAD PUSH2 0x309 SWAP2 SWAP1 PUSH2 0xA7D JUMP JUMPDEST SWAP3 POP POP DUP2 SWAP1 SSTORE POP PUSH1 0x2 PUSH0 DUP2 SLOAD DUP1 SWAP3 SWAP2 SWAP1 PUSH2 0x322 SWAP1 PUSH2 0xAB0 JUMP JUMPDEST SWAP2 SWAP1 POP SSTORE POP PUSH0 CALLER PUSH20 0xFFFFFFFFFFFFFFFFFFFFFFFFFFFFFFFFFFFFFFFF AND DUP3 PUSH1 0x40 MLOAD PUSH2 0x34C SWAP1 PUSH2 0xB24 JUMP JUMPDEST PUSH0 PUSH1 0x40 MLOAD DUP1 DUP4 SUB DUP2 DUP6 DUP8 GAS CALL SWAP3 POP POP POP RETURNDATASIZE DUP1 PUSH0 DUP2 EQ PUSH2 0x386 JUMPI PUSH1 0x40 MLOAD SWAP2 POP PUSH1 0x1F NOT PUSH1 0x3F RETURNDATASIZE ADD AND DUP3 ADD PUSH1 0x40 MSTORE RETURNDATASIZE DUP3 MSTORE RETURNDATASIZE PUSH0 PUSH1 0x20 DUP5 ADD RETURNDATACOPY PUSH2 0x38B JUMP JUMPDEST PUSH1 0x60 SWAP2 POP JUMPDEST POP POP SWAP1 POP CALLER PUSH20 0xFFFFFFFFFFFFFFFFFFFFFFFFFFFFFFFFFFFFFFFF AND PUSH32 0xC10F40EE88CE999058C155464BF55CEA75C4FFD7E79BAE05ED14B08A3758C84E DUP4 PUSH1 0x40 MLOAD PUSH2 0x3D5 SWAP2 SWAP1 PUSH2 0x852 JUMP JUMPDEST PUSH1 0x40 MLOAD DUP1 SWAP2 SUB SWAP1 LOG2 DUP1 PUSH2 0x41D JUMPI PUSH1 0x40 MLOAD PUSH32 0x8C379A000000000000000000000000000000000000000000000000000000000 DUP2 MSTORE PUSH1 0x4 ADD PUSH2 0x414 SWAP1 PUSH2 0xB82 JUMP JUMPDEST PUSH1 0x40 MLOAD DUP1 SWAP2 SUB SWAP1 REVERT JUMPDEST CALLER PUSH20 0xFFFFFFFFFFFFFFFFFFFFFFFFFFFFFFFFFFFFFFFF AND PUSH32 0x485F1BB6524C663555797E00171A10F341656E59B02D6B557A0A38BA7D5D9751 DUP4 PUSH1 0x40 MLOAD PUSH2 0x463 SWAP2 SWAP1 PUSH2 0xBEA JUMP JUMPDEST PUSH1 0x40 MLOAD DUP1 SWAP2 SUB SWAP1 LOG2 POP PUSH0 PUSH1 0x1 PUSH0 PUSH2 0x100 EXP DUP2 SLOAD DUP2 PUSH1 0xFF MUL NOT AND SWAP1 DUP4 ISZERO ISZERO MUL OR SWAP1 SSTORE POP POP JUMP JUMPDEST PUSH0 PUSH0 PUSH1 0x2 SLOAD PUSH1 0x3 SLOAD SWAP2 POP SWAP2 POP SWAP1 SWAP2 JUMP JUMPDEST PUSH1 0x3 SLOAD DUP2 JUMP JUMPDEST PUSH0 SELFBALANCE SWAP1 POP SWAP1 JUMP JUMPDEST PUSH1 0x1 PUSH0 SWAP1 SLOAD SWAP1 PUSH2 0x100 EXP SWAP1 DIV PUSH1 0xFF AND ISZERO PUSH2 0x4F4 JUMPI PUSH1 0x40 MLOAD PUSH32 0x8C379A000000000000000000000000000000000000000000000000000000000 DUP2 MSTORE PUSH1 0x4 ADD PUSH2 0x4EB SWAP1 PUSH2 0x9CA JUMP JUMPDEST PUSH1 0x40 MLOAD DUP1 SWAP2 SUB SWAP1 REVERT JUMPDEST PUSH1 0x1 DUP1 PUSH0 PUSH2 0x100 EXP DUP2 SLOAD DUP2 PUSH1 0xFF MUL NOT AND SWAP1 DUP4 ISZERO ISZERO MUL OR SWAP1 SSTORE POP DUP1 PUSH0 PUSH0 CALLER PUSH20 0xFFFFFFFFFFFFFFFFFFFFFFFFFFFFFFFFFFFFFFFF AND PUSH20 0xFFFFFFFFFFFFFFFFFFFFFFFFFFFFFFFFFFFFFFFF AND DUP2 MSTORE PUSH1 0x20 ADD SWAP1 DUP2 MSTORE PUSH1 0x20 ADD PUSH0 KECCAK256 SLOAD LT ISZERO PUSH2 0x58C JUMPI PUSH1 0x40 MLOAD PUSH32 0x8C379A000000000000000000000000000000000000000000000000000000000 DUP2 MSTORE PUSH1 0x4 ADD PUSH2 0x583 SWAP1 PUSH2 0xA32 JUMP JUMPDEST PUSH1 0x40 MLOAD DUP1 SWAP2 SUB SWAP1 REVERT JUMPDEST DUP1 PUSH0 PUSH0 CALLER PUSH20 0xFFFFFFFFFFFFFFFFFFFFFFFFFFFFFFFFFFFFFFFF AND PUSH20 0xFFFFFFFFFFFFFFFFFFFFFFFFFFFFFFFFFFFFFFFF AND DUP2 MSTORE PUSH1 0x20 ADD SWAP1 DUP2 MSTORE PUSH1 0x20 ADD PUSH0 KECCAK256 PUSH0 DUP3 DUP3 SLOAD PUSH2 0x5D7 SWAP2 SWAP1 PUSH2 0xA7D JUMP JUMPDEST SWAP3 POP POP DUP2 SWAP1 SSTORE POP PUSH1 0x3 PUSH0 DUP2 SLOAD DUP1 SWAP3 SWAP2 SWAP1 PUSH2 0x5F0 SWAP1 PUSH2 0xAB0 JUMP JUMPDEST SWAP2 SWAP1 POP SSTORE POP PUSH0 CALLER PUSH20 0xFFFFFFFFFFFFFFFFFFFFFFFFFFFFFFFFFFFFFFFF AND DUP3 PUSH1 0x40 MLOAD PUSH2 0x61A SWAP1 PUSH2 0xB24 JUMP JUMPDEST PUSH0 PUSH1 0x40 MLOAD DUP1 DUP4 SUB DUP2 DUP6 DUP8 GAS CALL SWAP3 POP POP POP RETURNDATASIZE DUP1 PUSH0 DUP2 EQ PUSH2 0x654 JUMPI PUSH1 0x40 MLOAD SWAP2 POP PUSH1 0x1F NOT PUSH1 0x3F RETURNDATASIZE ADD AND DUP3 ADD PUSH1 0x40 MSTORE RETURNDATASIZE DUP3 MSTORE RETURNDATASIZE PUSH0 PUSH1 0x20 DUP5 ADD RETURNDATACOPY PUSH2 0x659 JUMP JUMPDEST PUSH1 0x60 SWAP2 POP JUMPDEST POP POP SWAP1 POP CALLER PUSH20 0xFFFFFFFFFFFFFFFFFFFFFFFFFFFFFFFFFFFFFFFF AND PUSH32 0xC10F40EE88CE999058C155464BF55CEA75C4FFD7E79BAE05ED14B08A3758C84E DUP4 PUSH1 0x40 MLOAD PUSH2 0x6A3 SWAP2 SWAP1 PUSH2 0x852 JUMP JUMPDEST PUSH1 0x40 MLOAD DUP1 SWAP2 SUB SWAP1 LOG2 DUP1 PUSH2 0x6EB JUMPI PUSH1 0x40 MLOAD PUSH32 0x8C379A000000000000000000000000000000000000000000000000000000000 DUP2 MSTORE PUSH1 0x4 ADD PUSH2 0x6E2 SWAP1 PUSH2 0xB82 JUMP JUMPDEST PUSH1 0x40 MLOAD DUP1 SWAP2 SUB SWAP1 REVERT JUMPDEST CALLER PUSH20 0xFFFFFFFFFFFFFFFFFFFFFFFFFFFFFFFFFFFFFFFF AND PUSH32 0x485F1BB6524C663555797E00171A10F341656E59B02D6B557A0A38BA7D5D9751 DUP4 PUSH1 0x40 MLOAD PUSH2 0x731 SWAP2 SWAP1 PUSH2 0xC60 JUMP JUMPDEST PUSH1 0x40 MLOAD DUP1 SWAP2 SUB SWAP1 LOG2 POP PUSH0 PUSH1 0x1 PUSH0 PUSH2 0x100 EXP DUP2 SLOAD DUP2 PUSH1 0xFF MUL NOT AND SWAP1 DUP4 ISZERO ISZERO MUL OR SWAP1 SSTORE POP POP JUMP JUMPDEST PUSH0 CALLVALUE GT PUSH2 0x798 JUMPI PUSH1 0x40 MLOAD PUSH32 0x8C379A000000000000000000000000000000000000000000000000000000000 DUP2 MSTORE PUSH1 0x4 ADD PUSH2 0x78F SWAP1 PUSH2 0xCD6 JUMP JUMPDEST PUSH1 0x40 MLOAD DUP1 SWAP2 SUB SWAP1 REVERT JUMPDEST CALLVALUE PUSH0 PUSH0 CALLER PUSH20 0xFFFFFFFFFFFFFFFFFFFFFFFFFFFFFFFFFFFFFFFF AND PUSH20 0xFFFFFFFFFFFFFFFFFFFFFFFFFFFFFFFFFFFFFFFF AND DUP2 MSTORE PUSH1 0x20 ADD SWAP1 DUP2 MSTORE PUSH1 0x20 ADD PUSH0 KECCAK256 PUSH0 DUP3 DUP3 SLOAD PUSH2 0x7E3 SWAP2 SWAP1 PUSH2 0xCF4 JUMP JUMPDEST SWAP3 POP POP DUP2 SWAP1 SSTORE POP CALLER PUSH20 0xFFFFFFFFFFFFFFFFFFFFFFFFFFFFFFFFFFFFFFFF AND PUSH32 0xE1FFFCC4923D04B559F4D29A8BFC6CDA04EB5B0D3C460751C2402C5C5CC9109C CALLVALUE PUSH1 0x40 MLOAD PUSH2 0x830 SWAP2 SWAP1 PUSH2 0x852 JUMP JUMPDEST PUSH1 0x40 MLOAD DUP1 SWAP2 SUB SWAP1 LOG2 JUMP JUMPDEST PUSH0 DUP2 SWAP1 POP SWAP2 SWAP1 POP JUMP JUMPDEST PUSH2 0x84C DUP2 PUSH2 0x83A JUMP JUMPDEST DUP3 MSTORE POP POP JUMP JUMPDEST PUSH0 PUSH1 0x20 DUP3 ADD SWAP1 POP PUSH2 0x865 PUSH0 DUP4 ADD DUP5 PUSH2 0x843 JUMP JUMPDEST SWAP3 SWAP2 POP POP JUMP JUMPDEST PUSH0 PUSH0 REVERT JUMPDEST PUSH0 PUSH20 0xFFFFFFFFFFFFFFFFFFFFFFFFFFFFFFFFFFFFFFFF DUP3 AND SWAP1 POP SWAP2 SWAP1 POP JUMP JUMPDEST PUSH0 PUSH2 0x898 DUP3 PUSH2 0x86F JUMP JUMPDEST SWAP1 POP SWAP2 SWAP1 POP JUMP JUMPDEST PUSH2 0x8A8 DUP2 PUSH2 0x88E JUMP JUMPDEST DUP2 EQ PUSH2 0x8B2 JUMPI PUSH0 PUSH0 REVERT JUMPDEST POP JUMP JUMPDEST PUSH0 DUP2 CALLDATALOAD SWAP1 POP PUSH2 0x8C3 DUP2 PUSH2 0x89F JUMP JUMPDEST SWAP3 SWAP2 POP POP JUMP JUMPDEST PUSH0 PUSH1 0x20 DUP3 DUP5 SUB SLT ISZERO PUSH2 0x8DE JUMPI PUSH2 0x8DD PUSH2 0x86B JUMP JUMPDEST JUMPDEST PUSH0 PUSH2 0x8EB DUP5 DUP3 DUP6 ADD PUSH2 0x8B5 JUMP JUMPDEST SWAP2 POP POP SWAP3 SWAP2 POP POP JUMP JUMPDEST PUSH2 0x8FD DUP2 PUSH2 0x83A JUMP JUMPDEST DUP2 EQ PUSH2 0x907 JUMPI PUSH0 PUSH0 REVERT JUMPDEST POP JUMP JUMPDEST PUSH0 DUP2 CALLDATALOAD SWAP1 POP PUSH2 0x918 DUP2 PUSH2 0x8F4 JUMP JUMPDEST SWAP3 SWAP2 POP POP JUMP JUMPDEST PUSH0 PUSH1 0x20 DUP3 DUP5 SUB SLT ISZERO PUSH2 0x933 JUMPI PUSH2 0x932 PUSH2 0x86B JUMP JUMPDEST JUMPDEST PUSH0 PUSH2 0x940 DUP5 DUP3 DUP6 ADD PUSH2 0x90A JUMP JUMPDEST SWAP2 POP POP SWAP3 SWAP2 POP POP JUMP JUMPDEST PUSH0 PUSH1 0x40 DUP3 ADD SWAP1 POP PUSH2 0x95C PUSH0 DUP4 ADD DUP6 PUSH2 0x843 JUMP JUMPDEST PUSH2 0x969 PUSH1 0x20 DUP4 ADD DUP5 PUSH2 0x843 JUMP JUMPDEST SWAP4 SWAP3 POP POP POP JUMP JUMPDEST PUSH0 DUP3 DUP3 MSTORE PUSH1 0x20 DUP3 ADD SWAP1 POP SWAP3 SWAP2 POP POP JUMP JUMPDEST PUSH32 0x5265656E7472616E637920646574656374656400000000000000000000000000 PUSH0 DUP3 ADD MSTORE POP JUMP JUMPDEST PUSH0 PUSH2 0x9B4 PUSH1 0x13 DUP4 PUSH2 0x970 JUMP JUMPDEST SWAP2 POP PUSH2 0x9BF DUP3 PUSH2 0x980 JUMP JUMPDEST PUSH1 0x20 DUP3 ADD SWAP1 POP SWAP2 SWAP1 POP JUMP JUMPDEST PUSH0 PUSH1 0x20 DUP3 ADD SWAP1 POP DUP2 DUP2 SUB PUSH0 DUP4 ADD MSTORE PUSH2 0x9E1 DUP2 PUSH2 0x9A8 JUMP JUMPDEST SWAP1 POP SWAP2 SWAP1 POP JUMP JUMPDEST PUSH32 0x496E73756666696369656E742062616C616E6365000000000000000000000000 PUSH0 DUP3 ADD MSTORE POP JUMP JUMPDEST PUSH0 PUSH2 0xA1C PUSH1 0x14 DUP4 PUSH2 0x970 JUMP JUMPDEST SWAP2 POP PUSH2 0xA27 DUP3 PUSH2 0x9E8 JUMP JUMPDEST PUSH1 0x20 DUP3 ADD SWAP1 POP SWAP2 SWAP1 POP JUMP JUMPDEST PUSH0 PUSH1 0x20 DUP3 ADD SWAP1 POP DUP2 DUP2 SUB PUSH0 DUP4 ADD MSTORE PUSH2 0xA49 DUP2 PUSH2 0xA10 JUMP JUMPDEST SWAP1 POP SWAP2 SWAP1 POP JUMP JUMPDEST PUSH32 0x4E487B7100000000000000000000000000000000000000000000000000000000 PUSH0 MSTORE PUSH1 0x11 PUSH1 0x4 MSTORE PUSH1 0x24 PUSH0 REVERT JUMPDEST PUSH0 PUSH2 0xA87 DUP3 PUSH2 0x83A JUMP JUMPDEST SWAP2 POP PUSH2 0xA92 DUP4 PUSH2 0x83A JUMP JUMPDEST SWAP3 POP DUP3 DUP3 SUB SWAP1 POP DUP2 DUP2 GT ISZERO PUSH2 0xAAA JUMPI PUSH2 0xAA9 PUSH2 0xA50 JUMP JUMPDEST JUMPDEST SWAP3 SWAP2 POP POP JUMP JUMPDEST PUSH0 PUSH2 0xABA DUP3 PUSH2 0x83A JUMP JUMPDEST SWAP2 POP PUSH32 0xFFFFFFFFFFFFFFFFFFFFFFFFFFFFFFFFFFFFFFFFFFFFFFFFFFFFFFFFFFFFFFFF DUP3 SUB PUSH2 0xAEC JUMPI PUSH2 0xAEB PUSH2 0xA50 JUMP JUMPDEST JUMPDEST PUSH1 0x1 DUP3 ADD SWAP1 POP SWAP2 SWAP1 POP JUMP JUMPDEST PUSH0 DUP2 SWAP1 POP SWAP3 SWAP2 POP POP JUMP JUMPDEST POP JUMP JUMPDEST PUSH0 PUSH2 0xB0F PUSH0 DUP4 PUSH2 0xAF7 JUMP JUMPDEST SWAP2 POP PUSH2 0xB1A DUP3 PUSH2 0xB01 JUMP JUMPDEST PUSH0 DUP3 ADD SWAP1 POP SWAP2 SWAP1 POP JUMP JUMPDEST PUSH0 PUSH2 0xB2E DUP3 PUSH2 0xB04 JUMP JUMPDEST SWAP2 POP DUP2 SWAP1 POP SWAP2 SWAP1 POP JUMP JUMPDEST PUSH32 0x5472616E73666572206661696C65640000000000000000000000000000000000 PUSH0 DUP3 ADD MSTORE POP JUMP JUMPDEST PUSH0 PUSH2 0xB6C PUSH1 0xF DUP4 PUSH2 0x970 JUMP JUMPDEST SWAP2 POP PUSH2 0xB77 DUP3 PUSH2 0xB38 JUMP JUMPDEST PUSH1 0x20 DUP3 ADD SWAP1 POP SWAP2 SWAP1 POP JUMP JUMPDEST PUSH0 PUSH1 0x20 DUP3 ADD SWAP1 POP DUP2 DUP2 SUB PUSH0 DUP4 ADD MSTORE PUSH2 0xB99 DUP2 PUSH2 0xB60 JUMP JUMPDEST SWAP1 POP SWAP2 SWAP1 POP JUMP JUMPDEST PUSH32 0x7061746368656457697468647261770000000000000000000000000000000000 PUSH0 DUP3 ADD MSTORE POP JUMP JUMPDEST PUSH0 PUSH2 0xBD4 PUSH1 0xF DUP4 PUSH2 0x970 JUMP JUMPDEST SWAP2 POP PUSH2 0xBDF DUP3 PUSH2 0xBA0 JUMP JUMPDEST PUSH1 0x20 DUP3 ADD SWAP1 POP SWAP2 SWAP1 POP JUMP JUMPDEST PUSH0 PUSH1 0x40 DUP3 ADD SWAP1 POP PUSH2 0xBFD PUSH0 DUP4 ADD DUP5 PUSH2 0x843 JUMP JUMPDEST DUP2 DUP2 SUB PUSH1 0x20 DUP4 ADD MSTORE PUSH2 0xC0E DUP2 PUSH2 0xBC8 JUMP JUMPDEST SWAP1 POP SWAP3 SWAP2 POP POP JUMP JUMPDEST PUSH32 0x7361666557697468647261770000000000000000000000000000000000000000 PUSH0 DUP3 ADD MSTORE POP JUMP JUMPDEST PUSH0 PUSH2 0xC4A PUSH1 0xC DUP4 PUSH2 0x970 JUMP JUMPDEST SWAP2 POP PUSH2 0xC55 DUP3 PUSH2 0xC16 JUMP JUMPDEST PUSH1 0x20 DUP3 ADD SWAP1 POP SWAP2 SWAP1 POP JUMP JUMPDEST PUSH0 PUSH1 0x40 DUP3 ADD SWAP1 POP PUSH2 0xC73 PUSH0 DUP4 ADD DUP5 PUSH2 0x843 JUMP JUMPDEST DUP2 DUP2 SUB PUSH1 0x20 DUP4 ADD MSTORE PUSH2 0xC84 DUP2 PUSH2 0xC3E JUMP JUMPDEST SWAP1 POP SWAP3 SWAP2 POP POP JUMP JUMPDEST PUSH32 0x4D7573742073656E642045544800000000000000000000000000000000000000 PUSH0 DUP3 ADD MSTORE POP JUMP JUMPDEST PUSH0 PUSH2 0xCC0 PUSH1 0xD DUP4 PUSH2 0x970 JUMP JUMPDEST SWAP2 POP PUSH2 0xCCB DUP3 PUSH2 0xC8C JUMP JUMPDEST PUSH1 0x20 DUP3 ADD SWAP1 POP SWAP2 SWAP1 POP JUMP JUMPDEST PUSH0 PUSH1 0x20 DUP3 ADD SWAP1 POP DUP2 DUP2 SUB PUSH0 DUP4 ADD MSTORE PUSH2 0xCED DUP2 PUSH2 0xCB4 JUMP JUMPDEST SWAP1 POP SWAP2 SWAP1 POP JUMP JUMPDEST PUSH0 PUSH2 0xCFE DUP3 PUSH2 0x83A JUMP JUMPDEST SWAP2 POP PUSH2 0xD09 DUP4 PUSH2 0x83A JUMP JUMPDEST SWAP3 POP DUP3 DUP3 ADD SWAP1 POP DUP1 DUP3 GT ISZERO PUSH2 0xD21 JUMPI PUSH2 0xD20 PUSH2 0xA50 JUMP JUMPDEST JUMPDEST SWAP3 SWAP2 POP POP JUMP INVALID LOG2 PUSH5 0x6970667358 0x22 SLT KECCAK256 LT 0x2C RETF 0xB9 PUSH26 0x7AB96E08482ED9C29495B36A659EFDDD92843DC3E5CD8CFC63F7 0xD7 PUSH5 0x736F6C6343 STOP ADDMOD 0x22 STOP CALLER "
		},
		"gasEstimates": {
			"creation": {
				"codeDepositCost": "684200",
				"executionCost": "713",
				"totalCost": "684913"
			},
			"external": {
				"balances(address)": "2824",
				"compareFlows()": "infinite",
				"contractBalance()": "356",
				"deposit()": "infinite",
				"safeCounter()": "2425",
				"safeWithdraw(uint256)": "infinite",
				"vulnerableCounter()": "2426",
				"withdraw(uint256)": "infinite"
			}
		},
		"methodIdentifiers": {
			"balances(address)": "27e235e3",
			"compareFlows()": "3fd85cb4",
			"contractBalance()": "8b7afe2e",
			"deposit()": "d0e30db0",
			"safeCounter()": "5bb113b5",
			"safeWithdraw(uint256)": "b0fd035b",
			"vulnerableCounter()": "0aa3af4b",
			"withdraw(uint256)": "2e1a7d4d"
		}
	},
	"abi": [
		{
			"anonymous": false,
			"inputs": [
				{
					"indexed": true,
					"internalType": "address",
					"name": "user",
					"type": "address"
				},
				{
					"indexed": false,
					"internalType": "uint256",
					"name": "amount",
					"type": "uint256"
				}
			],
			"name": "Deposit",
			"type": "event"
		},
		{
			"anonymous": false,
			"inputs": [
				{
					"indexed": true,
					"internalType": "address",
					"name": "target",
					"type": "address"
				},
				{
					"indexed": false,
					"internalType": "uint256",
					"name": "amount",
					"type": "uint256"
				}
			],
			"name": "ExternalCallExecuted",
			"type": "event"
		},
		{
			"anonymous": false,
			"inputs": [
				{
					"indexed": true,
					"internalType": "address",
					"name": "attacker",
					"type": "address"
				}
			],
			"name": "ReentrancyBlocked",
			"type": "event"
		},
		{
			"anonymous": false,
			"inputs": [
				{
					"indexed": true,
					"internalType": "address",
					"name": "user",
					"type": "address"
				},
				{
					"indexed": false,
					"internalType": "uint256",
					"name": "amount",
					"type": "uint256"
				},
				{
					"indexed": false,
					"internalType": "string",
					"name": "method",
					"type": "string"
				}
			],
			"name": "Withdraw",
			"type": "event"
		},
		{
			"inputs": [
				{
					"internalType": "address",
					"name": "",
					"type": "address"
				}
			],
			"name": "balances",
			"outputs": [
				{
					"internalType": "uint256",
					"name": "",
					"type": "uint256"
				}
			],
			"stateMutability": "view",
			"type": "function"
		},
		{
			"inputs": [],
			"name": "compareFlows",
			"outputs": [
				{
					"internalType": "uint256",
					"name": "patchedWithdrawCalls",
					"type": "uint256"
				},
				{
					"internalType": "uint256",
					"name": "safeWithdrawCalls",
					"type": "uint256"
				}
			],
			"stateMutability": "view",
			"type": "function"
		},
		{
			"inputs": [],
			"name": "contractBalance",
			"outputs": [
				{
					"internalType": "uint256",
					"name": "",
					"type": "uint256"
				}
			],
			"stateMutability": "view",
			"type": "function"
		},
		{
			"inputs": [],
			"name": "deposit",
			"outputs": [],
			"stateMutability": "payable",
			"type": "function"
		},
		{
			"inputs": [],
			"name": "safeCounter",
			"outputs": [
				{
					"internalType": "uint256",
					"name": "",
					"type": "uint256"
				}
			],
			"stateMutability": "view",
			"type": "function"
		},
		{
			"inputs": [
				{
					"internalType": "uint256",
					"name": "_amount",
					"type": "uint256"
				}
			],
			"name": "safeWithdraw",
			"outputs": [],
			"stateMutability": "nonpayable",
			"type": "function"
		},
		{
			"inputs": [],
			"name": "vulnerableCounter",
			"outputs": [
				{
					"internalType": "uint256",
					"name": "",
					"type": "uint256"
				}
			],
			"stateMutability": "view",
			"type": "function"
		},
		{
			"inputs": [
				{
					"internalType": "uint256",
					"name": "_amount",
					"type": "uint256"
				}
			],
			"name": "withdraw",
			"outputs": [],
			"stateMutability": "nonpayable",
			"type": "function"
		}
	]
}